{
	"bitlime-periphery/contracts/Safemoon.sol": {
		"SafeMoon": {
			"abi": [
				{
					"inputs": [],
					"stateMutability": "nonpayable",
					"type": "constructor"
				},
				{
					"anonymous": false,
					"inputs": [
						{
							"indexed": true,
							"internalType": "address",
							"name": "owner",
							"type": "address"
						},
						{
							"indexed": true,
							"internalType": "address",
							"name": "spender",
							"type": "address"
						},
						{
							"indexed": false,
							"internalType": "uint256",
							"name": "value",
							"type": "uint256"
						}
					],
					"name": "Approval",
					"type": "event"
				},
				{
					"anonymous": false,
					"inputs": [
						{
							"indexed": false,
							"internalType": "uint256",
							"name": "minTokensBeforeSwap",
							"type": "uint256"
						}
					],
					"name": "MinTokensBeforeSwapUpdated",
					"type": "event"
				},
				{
					"anonymous": false,
					"inputs": [
						{
							"indexed": true,
							"internalType": "address",
							"name": "previousOwner",
							"type": "address"
						},
						{
							"indexed": true,
							"internalType": "address",
							"name": "newOwner",
							"type": "address"
						}
					],
					"name": "OwnershipTransferred",
					"type": "event"
				},
				{
					"anonymous": false,
					"inputs": [
						{
							"indexed": false,
							"internalType": "uint256",
							"name": "tokensSwapped",
							"type": "uint256"
						},
						{
							"indexed": false,
							"internalType": "uint256",
							"name": "ethReceived",
							"type": "uint256"
						},
						{
							"indexed": false,
							"internalType": "uint256",
							"name": "tokensIntoLiqudity",
							"type": "uint256"
						}
					],
					"name": "SwapAndLiquify",
					"type": "event"
				},
				{
					"anonymous": false,
					"inputs": [
						{
							"indexed": false,
							"internalType": "bool",
							"name": "enabled",
							"type": "bool"
						}
					],
					"name": "SwapAndLiquifyEnabledUpdated",
					"type": "event"
				},
				{
					"anonymous": false,
					"inputs": [
						{
							"indexed": true,
							"internalType": "address",
							"name": "from",
							"type": "address"
						},
						{
							"indexed": true,
							"internalType": "address",
							"name": "to",
							"type": "address"
						},
						{
							"indexed": false,
							"internalType": "uint256",
							"name": "value",
							"type": "uint256"
						}
					],
					"name": "Transfer",
					"type": "event"
				},
				{
					"inputs": [],
					"name": "_liquidityFee",
					"outputs": [
						{
							"internalType": "uint256",
							"name": "",
							"type": "uint256"
						}
					],
					"stateMutability": "view",
					"type": "function"
				},
				{
					"inputs": [],
					"name": "_maxTxAmount",
					"outputs": [
						{
							"internalType": "uint256",
							"name": "",
							"type": "uint256"
						}
					],
					"stateMutability": "view",
					"type": "function"
				},
				{
					"inputs": [],
					"name": "_taxFee",
					"outputs": [
						{
							"internalType": "uint256",
							"name": "",
							"type": "uint256"
						}
					],
					"stateMutability": "view",
					"type": "function"
				},
				{
					"inputs": [
						{
							"internalType": "address",
							"name": "owner",
							"type": "address"
						},
						{
							"internalType": "address",
							"name": "spender",
							"type": "address"
						}
					],
					"name": "allowance",
					"outputs": [
						{
							"internalType": "uint256",
							"name": "",
							"type": "uint256"
						}
					],
					"stateMutability": "view",
					"type": "function"
				},
				{
					"inputs": [
						{
							"internalType": "address",
							"name": "spender",
							"type": "address"
						},
						{
							"internalType": "uint256",
							"name": "amount",
							"type": "uint256"
						}
					],
					"name": "approve",
					"outputs": [
						{
							"internalType": "bool",
							"name": "",
							"type": "bool"
						}
					],
					"stateMutability": "nonpayable",
					"type": "function"
				},
				{
					"inputs": [
						{
							"internalType": "address",
							"name": "account",
							"type": "address"
						}
					],
					"name": "balanceOf",
					"outputs": [
						{
							"internalType": "uint256",
							"name": "",
							"type": "uint256"
						}
					],
					"stateMutability": "view",
					"type": "function"
				},
				{
					"inputs": [],
					"name": "decimals",
					"outputs": [
						{
							"internalType": "uint8",
							"name": "",
							"type": "uint8"
						}
					],
					"stateMutability": "view",
					"type": "function"
				},
				{
					"inputs": [
						{
							"internalType": "address",
							"name": "spender",
							"type": "address"
						},
						{
							"internalType": "uint256",
							"name": "subtractedValue",
							"type": "uint256"
						}
					],
					"name": "decreaseAllowance",
					"outputs": [
						{
							"internalType": "bool",
							"name": "",
							"type": "bool"
						}
					],
					"stateMutability": "nonpayable",
					"type": "function"
				},
				{
					"inputs": [
						{
							"internalType": "uint256",
							"name": "tAmount",
							"type": "uint256"
						}
					],
					"name": "deliver",
					"outputs": [],
					"stateMutability": "nonpayable",
					"type": "function"
				},
				{
					"inputs": [
						{
							"internalType": "address",
							"name": "account",
							"type": "address"
						}
					],
					"name": "excludeFromFee",
					"outputs": [],
					"stateMutability": "nonpayable",
					"type": "function"
				},
				{
					"inputs": [
						{
							"internalType": "address",
							"name": "account",
							"type": "address"
						}
					],
					"name": "excludeFromReward",
					"outputs": [],
					"stateMutability": "nonpayable",
					"type": "function"
				},
				{
					"inputs": [],
					"name": "geUnlockTime",
					"outputs": [
						{
							"internalType": "uint256",
							"name": "",
							"type": "uint256"
						}
					],
					"stateMutability": "view",
					"type": "function"
				},
				{
					"inputs": [
						{
							"internalType": "address",
							"name": "account",
							"type": "address"
						}
					],
					"name": "includeInFee",
					"outputs": [],
					"stateMutability": "nonpayable",
					"type": "function"
				},
				{
					"inputs": [
						{
							"internalType": "address",
							"name": "account",
							"type": "address"
						}
					],
					"name": "includeInReward",
					"outputs": [],
					"stateMutability": "nonpayable",
					"type": "function"
				},
				{
					"inputs": [
						{
							"internalType": "address",
							"name": "spender",
							"type": "address"
						},
						{
							"internalType": "uint256",
							"name": "addedValue",
							"type": "uint256"
						}
					],
					"name": "increaseAllowance",
					"outputs": [
						{
							"internalType": "bool",
							"name": "",
							"type": "bool"
						}
					],
					"stateMutability": "nonpayable",
					"type": "function"
				},
				{
					"inputs": [
						{
							"internalType": "address",
							"name": "account",
							"type": "address"
						}
					],
					"name": "isExcludedFromFee",
					"outputs": [
						{
							"internalType": "bool",
							"name": "",
							"type": "bool"
						}
					],
					"stateMutability": "view",
					"type": "function"
				},
				{
					"inputs": [
						{
							"internalType": "address",
							"name": "account",
							"type": "address"
						}
					],
					"name": "isExcludedFromReward",
					"outputs": [
						{
							"internalType": "bool",
							"name": "",
							"type": "bool"
						}
					],
					"stateMutability": "view",
					"type": "function"
				},
				{
					"inputs": [
						{
							"internalType": "uint256",
							"name": "time",
							"type": "uint256"
						}
					],
					"name": "lock",
					"outputs": [],
					"stateMutability": "nonpayable",
					"type": "function"
				},
				{
					"inputs": [],
					"name": "name",
					"outputs": [
						{
							"internalType": "string",
							"name": "",
							"type": "string"
						}
					],
					"stateMutability": "view",
					"type": "function"
				},
				{
					"inputs": [],
					"name": "owner",
					"outputs": [
						{
							"internalType": "address",
							"name": "",
							"type": "address"
						}
					],
					"stateMutability": "view",
					"type": "function"
				},
				{
					"inputs": [
						{
							"internalType": "uint256",
							"name": "tAmount",
							"type": "uint256"
						},
						{
							"internalType": "bool",
							"name": "deductTransferFee",
							"type": "bool"
						}
					],
					"name": "reflectionFromToken",
					"outputs": [
						{
							"internalType": "uint256",
							"name": "",
							"type": "uint256"
						}
					],
					"stateMutability": "view",
					"type": "function"
				},
				{
					"inputs": [],
					"name": "renounceOwnership",
					"outputs": [],
					"stateMutability": "nonpayable",
					"type": "function"
				},
				{
					"inputs": [
						{
							"internalType": "uint256",
							"name": "liquidityFee",
							"type": "uint256"
						}
					],
					"name": "setLiquidityFeePercent",
					"outputs": [],
					"stateMutability": "nonpayable",
					"type": "function"
				},
				{
					"inputs": [
						{
							"internalType": "uint256",
							"name": "maxTxPercent",
							"type": "uint256"
						}
					],
					"name": "setMaxTxPercent",
					"outputs": [],
					"stateMutability": "nonpayable",
					"type": "function"
				},
				{
					"inputs": [
						{
							"internalType": "bool",
							"name": "_enabled",
							"type": "bool"
						}
					],
					"name": "setSwapAndLiquifyEnabled",
					"outputs": [],
					"stateMutability": "nonpayable",
					"type": "function"
				},
				{
					"inputs": [
						{
							"internalType": "uint256",
							"name": "taxFee",
							"type": "uint256"
						}
					],
					"name": "setTaxFeePercent",
					"outputs": [],
					"stateMutability": "nonpayable",
					"type": "function"
				},
				{
					"inputs": [],
					"name": "swapAndLiquifyEnabled",
					"outputs": [
						{
							"internalType": "bool",
							"name": "",
							"type": "bool"
						}
					],
					"stateMutability": "view",
					"type": "function"
				},
				{
					"inputs": [],
					"name": "symbol",
					"outputs": [
						{
							"internalType": "string",
							"name": "",
							"type": "string"
						}
					],
					"stateMutability": "view",
					"type": "function"
				},
				{
					"inputs": [
						{
							"internalType": "uint256",
							"name": "rAmount",
							"type": "uint256"
						}
					],
					"name": "tokenFromReflection",
					"outputs": [
						{
							"internalType": "uint256",
							"name": "",
							"type": "uint256"
						}
					],
					"stateMutability": "view",
					"type": "function"
				},
				{
					"inputs": [],
					"name": "totalFees",
					"outputs": [
						{
							"internalType": "uint256",
							"name": "",
							"type": "uint256"
						}
					],
					"stateMutability": "view",
					"type": "function"
				},
				{
					"inputs": [],
					"name": "totalSupply",
					"outputs": [
						{
							"internalType": "uint256",
							"name": "",
							"type": "uint256"
						}
					],
					"stateMutability": "view",
					"type": "function"
				},
				{
					"inputs": [
						{
							"internalType": "address",
							"name": "recipient",
							"type": "address"
						},
						{
							"internalType": "uint256",
							"name": "amount",
							"type": "uint256"
						}
					],
					"name": "transfer",
					"outputs": [
						{
							"internalType": "bool",
							"name": "",
							"type": "bool"
						}
					],
					"stateMutability": "nonpayable",
					"type": "function"
				},
				{
					"inputs": [
						{
							"internalType": "address",
							"name": "sender",
							"type": "address"
						},
						{
							"internalType": "address",
							"name": "recipient",
							"type": "address"
						},
						{
							"internalType": "uint256",
							"name": "amount",
							"type": "uint256"
						}
					],
					"name": "transferFrom",
					"outputs": [
						{
							"internalType": "bool",
							"name": "",
							"type": "bool"
						}
					],
					"stateMutability": "nonpayable",
					"type": "function"
				},
				{
					"inputs": [
						{
							"internalType": "address",
							"name": "newOwner",
							"type": "address"
						}
					],
					"name": "transferOwnership",
					"outputs": [],
					"stateMutability": "nonpayable",
					"type": "function"
				},
				{
					"inputs": [],
					"name": "unlock",
					"outputs": [],
					"stateMutability": "nonpayable",
					"type": "function"
				},
				{
					"stateMutability": "payable",
					"type": "receive"
				}
			],
			"devdoc": {
				"methods": {
					"owner()": {
						"details": "Returns the address of the current owner."
					},
					"renounceOwnership()": {
						"details": "Leaves the contract without owner. It will not be possible to call `onlyOwner` functions anymore. Can only be called by the current owner.      * NOTE: Renouncing ownership will leave the contract without an owner, thereby removing any functionality that is only available to the owner."
					},
					"transferOwnership(address)": {
						"details": "Transfers ownership of the contract to a new account (`newOwner`). Can only be called by the current owner."
					}
				}
			},
			"evm": {
				"assembly": "    /* \"bitlime-periphery/contracts/Safemoon.sol\":26479:26505  1000000000 * 10**6 * 10**9 */\n  0xd3c21bcecceda1000000\n    /* \"bitlime-periphery/contracts/Safemoon.sol\":26453:26505  uint256 private _tTotal = 1000000000 * 10**6 * 10**9 */\n  0x09\n  sstore\n  not(0x085afffa6ff50bffffff)\n    /* \"bitlime-periphery/contracts/Safemoon.sol\":26512:26561  uint256 private _rTotal = (MAX - (MAX % _tTotal)) */\n  0x0a\n  sstore\n    /* \"bitlime-periphery/contracts/Safemoon.sol\":26603:26636  string private _name = \"SafeMoon\" */\n  0xc0\n    /* \"bitlime-periphery/contracts/Safemoon.sol\":25952:41591  contract SafeMoon is Context, IERC20, Ownable {\r... */\n  0x40\n    /* \"bitlime-periphery/contracts/Safemoon.sol\":26603:26636  string private _name = \"SafeMoon\" */\n  mstore\n  0x08\n    /* \"bitlime-periphery/contracts/Safemoon.sol\":25952:41591  contract SafeMoon is Context, IERC20, Ownable {\r... */\n  0x80\n    /* \"bitlime-periphery/contracts/Safemoon.sol\":26603:26636  string private _name = \"SafeMoon\" */\n  dup2\n  swap1\n  mstore\n  shl(0xc1, 0x29b0b332a6b7b7b7)\n  0xa0\n  swap1\n  dup2\n  mstore\n  tag_2\n  swap2\n  0x0c\n  swap2\n  swap1\n  tag_3\n  jump\t// in\ntag_2:\n  pop\n    /* \"bitlime-periphery/contracts/Safemoon.sol\":26643:26678  string private _symbol = \"SAFEMOON\" */\n  0x40\n  dup1\n  mload\n  dup1\n  dup3\n  add\n  swap1\n  swap2\n  mstore\n  0x08\n  dup1\n  dup3\n  mstore\n  shl(0xc1, 0x29a0a322a6a7a7a7)\n  0x20\n  swap1\n  swap3\n  add\n  swap2\n  dup3\n  mstore\n  tag_4\n  swap2\n  0x0d\n  swap2\n  tag_3\n  jump\t// in\ntag_4:\n  pop\n    /* \"bitlime-periphery/contracts/Safemoon.sol\":26685:26712  uint8 private _decimals = 9 */\n  0x0e\n  dup1\n  sload\n  not(0xff)\n  and\n    /* \"bitlime-periphery/contracts/Safemoon.sol\":26711:26712  9 */\n  0x09\n    /* \"bitlime-periphery/contracts/Safemoon.sol\":26685:26712  uint8 private _decimals = 9 */\n  or\n  swap1\n  sstore\n    /* \"bitlime-periphery/contracts/Safemoon.sol\":26750:26751  5 */\n  0x05\n    /* \"bitlime-periphery/contracts/Safemoon.sol\":26725:26751  uint256 public _taxFee = 5 */\n  0x0f\n  dup2\n  swap1\n  sstore\n    /* \"bitlime-periphery/contracts/Safemoon.sol\":26758:26799  uint256 private _previousTaxFee = _taxFee */\n  0x10\n  dup2\n  swap1\n  sstore\n    /* \"bitlime-periphery/contracts/Safemoon.sol\":26812:26844  uint256 public _liquidityFee = 5 */\n  0x11\n  dup2\n  swap1\n  sstore\n    /* \"bitlime-periphery/contracts/Safemoon.sol\":26851:26904  uint256 private _previousLiquidityFee = _liquidityFee */\n  0x12\n  sstore\n    /* \"bitlime-periphery/contracts/Safemoon.sol\":26947:26987  bool public swapAndLiquifyEnabled = true */\n  0x13\n  dup1\n  sload\n  not(0xff00)\n  and\n    /* \"bitlime-periphery/contracts/Safemoon.sol\":26685:26712  uint8 private _decimals = 9 */\n  0x0100\n    /* \"bitlime-periphery/contracts/Safemoon.sol\":26947:26987  bool public swapAndLiquifyEnabled = true */\n  or\n  swap1\n  sstore\n    /* \"bitlime-periphery/contracts/Safemoon.sol\":27030:27053  5000000 * 10**6 * 10**9 */\n  0x010f0cf064dd59200000\n    /* \"bitlime-periphery/contracts/Safemoon.sol\":27000:27053  uint256 public _maxTxAmount = 5000000 * 10**6 * 10**9 */\n  0x14\n  sstore\n    /* \"bitlime-periphery/contracts/Safemoon.sol\":27108:27130  500000 * 10**6 * 10**9 */\n  0x1b1ae4d6e2ef500000\n    /* \"bitlime-periphery/contracts/Safemoon.sol\":27060:27130  uint256 private numTokensSellToAddToLiquidity = 500000 * 10**6 * 10**9 */\n  0x15\n  sstore\n    /* \"bitlime-periphery/contracts/Safemoon.sol\":27527:27838  constructor () public {\r... */\n  callvalue\n    /* \"--CODEGEN--\":2:4   */\n  dup1\n  iszero\n  tag_5\n  jumpi\n    /* \"--CODEGEN--\":27:28   */\n  0x00\n    /* \"--CODEGEN--\":24:25   */\n  dup1\n    /* \"--CODEGEN--\":17:29   */\n  revert\n    /* \"--CODEGEN--\":2:4   */\ntag_5:\n  pop\n    /* \"bitlime-periphery/contracts/Safemoon.sol\":15695:15712  address msgSender */\n  0x00\n    /* \"bitlime-periphery/contracts/Safemoon.sol\":15715:15727  _msgSender() */\n  tag_9\n  sub(shl(0xe0, 0x01), 0x01)\n    /* \"bitlime-periphery/contracts/Safemoon.sol\":15715:15725  _msgSender */\n  tag_10\n    /* \"bitlime-periphery/contracts/Safemoon.sol\":15715:15727  _msgSender() */\n  and\n  jump\t// in\ntag_9:\n    /* \"bitlime-periphery/contracts/Safemoon.sol\":15738:15744  _owner */\n  0x00\n    /* \"bitlime-periphery/contracts/Safemoon.sol\":15738:15756  _owner = msgSender */\n  dup1\n  sload\n  not(sub(shl(0xa0, 0x01), 0x01))\n  and\n  sub(shl(0xa0, 0x01), 0x01)\n  dup4\n  and\n  swap1\n  dup2\n  or\n  dup3\n  sstore\n    /* \"bitlime-periphery/contracts/Safemoon.sol\":15772:15815  OwnershipTransferred(address(0), msgSender) */\n  mload(0x40)\n    /* \"bitlime-periphery/contracts/Safemoon.sol\":15738:15756  _owner = msgSender */\n  swap3\n  swap4\n  pop\n  swap2\n    /* \"bitlime-periphery/contracts/Safemoon.sol\":15772:15815  OwnershipTransferred(address(0), msgSender) */\n  0x8be0079c531659141344cd1fd0a4f28419497f9722a3daafe3b4186f6b6457e0\n  swap1\n    /* \"bitlime-periphery/contracts/Safemoon.sol\":15738:15744  _owner */\n  dup3\n  swap1\n    /* \"bitlime-periphery/contracts/Safemoon.sol\":15772:15815  OwnershipTransferred(address(0), msgSender) */\n  log3\n  pop\n    /* \"bitlime-periphery/contracts/Safemoon.sol\":27584:27591  _rTotal */\n  sload(0x0a)\n    /* \"bitlime-periphery/contracts/Safemoon.sol\":27560:27567  _rOwned */\n  0x03\n    /* \"bitlime-periphery/contracts/Safemoon.sol\":27560:27581  _rOwned[_msgSender()] */\n  0x00\n    /* \"bitlime-periphery/contracts/Safemoon.sol\":27568:27580  _msgSender() */\n  tag_12\n  sub(shl(0xe0, 0x01), 0x01)\n    /* \"bitlime-periphery/contracts/Safemoon.sol\":27568:27578  _msgSender */\n  tag_10\n    /* \"bitlime-periphery/contracts/Safemoon.sol\":27568:27580  _msgSender() */\n  and\n  jump\t// in\ntag_12:\n  sub(shl(0xa0, 0x01), 0x01)\n    /* \"bitlime-periphery/contracts/Safemoon.sol\":27560:27581  _rOwned[_msgSender()] */\n  and\n  sub(shl(0xa0, 0x01), 0x01)\n  and\n  dup2\n  mstore\n  0x20\n  add\n  swap1\n  dup2\n  mstore\n  0x20\n  add\n  0x00\n  keccak256\n    /* \"bitlime-periphery/contracts/Safemoon.sol\":27560:27591  _rOwned[_msgSender()] = _rTotal */\n  dup2\n  swap1\n  sstore\n  pop\n    /* \"bitlime-periphery/contracts/Safemoon.sol\":27706:27710  true */\n  0x01\n    /* \"bitlime-periphery/contracts/Safemoon.sol\":27676:27694  _isExcludedFromFee */\n  0x06\n    /* \"bitlime-periphery/contracts/Safemoon.sol\":27676:27703  _isExcludedFromFee[owner()] */\n  0x00\n    /* \"bitlime-periphery/contracts/Safemoon.sol\":27695:27702  owner() */\n  tag_13\n    /* \"bitlime-periphery/contracts/Safemoon.sol\":27695:27700  owner */\n  shl(0x20, tag_14)\n    /* \"bitlime-periphery/contracts/Safemoon.sol\":27695:27702  owner() */\n  0x20\n  shr\n  jump\t// in\ntag_13:\n  sub(shl(0xa0, 0x01), 0x01)\n    /* \"bitlime-periphery/contracts/Safemoon.sol\":27676:27703  _isExcludedFromFee[owner()] */\n  and\n  dup2\n  mstore\n  0x20\n  dup1\n  dup3\n  add\n  swap3\n  swap1\n  swap3\n  mstore\n  0x40\n  swap1\n  dup2\n  add\n  0x00\n  swap1\n  dup2\n  keccak256\n    /* \"bitlime-periphery/contracts/Safemoon.sol\":27676:27710  _isExcludedFromFee[owner()] = true */\n  dup1\n  sload\n  swap5\n  iszero\n  iszero\n  not(0xff)\n  swap6\n  dup7\n  and\n  or\n  swap1\n  sstore\n    /* \"bitlime-periphery/contracts/Safemoon.sol\":27748:27752  this */\n  address\n    /* \"bitlime-periphery/contracts/Safemoon.sol\":27721:27754  _isExcludedFromFee[address(this)] */\n  dup2\n  mstore\n    /* \"bitlime-periphery/contracts/Safemoon.sol\":27721:27739  _isExcludedFromFee */\n  0x06\n    /* \"bitlime-periphery/contracts/Safemoon.sol\":27721:27754  _isExcludedFromFee[address(this)] */\n  swap1\n  swap3\n  mstore\n  swap1\n  keccak256\n    /* \"bitlime-periphery/contracts/Safemoon.sol\":27721:27761  _isExcludedFromFee[address(this)] = true */\n  dup1\n  sload\n  swap1\n  swap2\n  and\n    /* \"bitlime-periphery/contracts/Safemoon.sol\":27676:27710  _isExcludedFromFee[owner()] = true */\n  0x01\n    /* \"bitlime-periphery/contracts/Safemoon.sol\":27721:27761  _isExcludedFromFee[address(this)] = true */\n  or\n  swap1\n  sstore\n    /* \"bitlime-periphery/contracts/Safemoon.sol\":27808:27820  _msgSender() */\n  tag_15\n  sub(shl(0xe0, 0x01), 0x01)\n    /* \"bitlime-periphery/contracts/Safemoon.sol\":27808:27818  _msgSender */\n  tag_10\n    /* \"bitlime-periphery/contracts/Safemoon.sol\":27808:27820  _msgSender() */\n  and\n  jump\t// in\ntag_15:\n  sub(shl(0xa0, 0x01), 0x01)\n    /* \"bitlime-periphery/contracts/Safemoon.sol\":27787:27830  Transfer(address(0), _msgSender(), _tTotal) */\n  and\n    /* \"bitlime-periphery/contracts/Safemoon.sol\":27804:27805  0 */\n  0x00\n  sub(shl(0xa0, 0x01), 0x01)\n    /* \"bitlime-periphery/contracts/Safemoon.sol\":27787:27830  Transfer(address(0), _msgSender(), _tTotal) */\n  and\n  0xddf252ad1be2c89b69c2b068fc378daa952ba7f163c4a11628f55a4df523b3ef\n    /* \"bitlime-periphery/contracts/Safemoon.sol\":27822:27829  _tTotal */\n  sload(0x09)\n    /* \"bitlime-periphery/contracts/Safemoon.sol\":27787:27830  Transfer(address(0), _msgSender(), _tTotal) */\n  mload(0x40)\n  dup1\n  dup3\n  dup2\n  mstore\n  0x20\n  add\n  swap2\n  pop\n  pop\n  mload(0x40)\n  dup1\n  swap2\n  sub\n  swap1\n  log3\n    /* \"bitlime-periphery/contracts/Safemoon.sol\":25952:41591  contract SafeMoon is Context, IERC20, Ownable {\r... */\n  jump(tag_16)\n    /* \"bitlime-periphery/contracts/Safemoon.sol\":8312:8418  function _msgSender() internal view virtual returns (address payable) {\r... */\ntag_10:\n    /* \"bitlime-periphery/contracts/Safemoon.sol\":8400:8410  msg.sender */\n  caller\n    /* \"bitlime-periphery/contracts/Safemoon.sol\":8312:8418  function _msgSender() internal view virtual returns (address payable) {\r... */\ntag_17:\n  swap1\n  jump\t// out\n    /* \"bitlime-periphery/contracts/Safemoon.sol\":15904:15983  function owner() public view returns (address) {\r... */\ntag_14:\n    /* \"bitlime-periphery/contracts/Safemoon.sol\":15942:15949  address */\n  0x00\n    /* \"bitlime-periphery/contracts/Safemoon.sol\":15969:15975  _owner */\n  sload\n  sub(shl(0xa0, 0x01), 0x01)\n  and\n    /* \"bitlime-periphery/contracts/Safemoon.sol\":15904:15983  function owner() public view returns (address) {\r... */\n  swap1\n  jump\t// out\n    /* \"bitlime-periphery/contracts/Safemoon.sol\":25952:41591  contract SafeMoon is Context, IERC20, Ownable {\r... */\ntag_3:\n  dup3\n  dup1\n  sload\n  0x01\n  dup2\n  0x01\n  and\n  iszero\n  0x0100\n  mul\n  sub\n  and\n  0x02\n  swap1\n  div\n  swap1\n  0x00\n  mstore\n  keccak256(0x00, 0x20)\n  swap1\n  0x1f\n  add\n  0x20\n  swap1\n  div\n  dup2\n  add\n  swap3\n  dup3\n  0x1f\n  lt\n  tag_20\n  jumpi\n  dup1\n  mload\n  not(0xff)\n  and\n  dup4\n  dup1\n  add\n  or\n  dup6\n  sstore\n  jump(tag_22)\ntag_20:\n  dup3\n  dup1\n  add\n  0x01\n  add\n  dup6\n  sstore\n  dup3\n  iszero\n  tag_22\n  jumpi\n  swap2\n  dup3\n  add\ntag_21:\n  dup3\n  dup2\n  gt\n  iszero\n  tag_22\n  jumpi\n  dup3\n  mload\n  dup3\n  sstore\n  swap2\n  0x20\n  add\n  swap2\n  swap1\n  0x01\n  add\n  swap1\n  jump(tag_21)\ntag_22:\n  pop\n  tag_23\n  swap3\n  swap2\n  pop\n  tag_24\n  jump\t// in\ntag_23:\n  pop\n  swap1\n  jump\t// out\ntag_24:\n  tag_17\n  swap2\n  swap1\ntag_26:\n  dup1\n  dup3\n  gt\n  iszero\n  tag_23\n  jumpi\n  0x00\n  dup2\n  sstore\n  0x01\n  add\n  jump(tag_26)\ntag_16:\n  dataSize(sub_0)\n  dup1\n  dataOffset(sub_0)\n  0x00\n  codecopy\n  0x00\n  return\nstop\n\nsub_0: assembly {\n        /* \"bitlime-periphery/contracts/Safemoon.sol\":25952:41591  contract SafeMoon is Context, IERC20, Ownable {\r... */\n      mstore(0x40, 0x80)\n      jumpi(tag_1, lt(calldatasize, 0x04))\n      shr(0xe0, calldataload(0x00))\n      dup1\n      0x6bc87c3a\n      gt\n      tag_38\n      jumpi\n      dup1\n      0xa69df4b5\n      gt\n      tag_39\n      jumpi\n      dup1\n      0xd543dbeb\n      gt\n      tag_40\n      jumpi\n      dup1\n      0xd543dbeb\n      eq\n      tag_33\n      jumpi\n      dup1\n      0xdd467064\n      eq\n      tag_34\n      jumpi\n      dup1\n      0xdd62ed3e\n      eq\n      tag_35\n      jumpi\n      dup1\n      0xea2f0b37\n      eq\n      tag_36\n      jumpi\n      dup1\n      0xf2fde38b\n      eq\n      tag_37\n      jumpi\n      jump(tag_2)\n    tag_40:\n      dup1\n      0xa69df4b5\n      eq\n      tag_29\n      jumpi\n      dup1\n      0xa9059cbb\n      eq\n      tag_30\n      jumpi\n      dup1\n      0xb6c52324\n      eq\n      tag_31\n      jumpi\n      dup1\n      0xc49b9a80\n      eq\n      tag_32\n      jumpi\n      jump(tag_2)\n    tag_39:\n      dup1\n      0x88f82020\n      gt\n      tag_41\n      jumpi\n      dup1\n      0x88f82020\n      eq\n      tag_24\n      jumpi\n      dup1\n      0x8da5cb5b\n      eq\n      tag_25\n      jumpi\n      dup1\n      0x8ee88c53\n      eq\n      tag_26\n      jumpi\n      dup1\n      0x95d89b41\n      eq\n      tag_27\n      jumpi\n      dup1\n      0xa457c2d7\n      eq\n      tag_28\n      jumpi\n      jump(tag_2)\n    tag_41:\n      dup1\n      0x6bc87c3a\n      eq\n      tag_20\n      jumpi\n      dup1\n      0x70a08231\n      eq\n      tag_21\n      jumpi\n      dup1\n      0x715018a6\n      eq\n      tag_22\n      jumpi\n      dup1\n      0x7d1db4a5\n      eq\n      tag_23\n      jumpi\n      jump(tag_2)\n    tag_38:\n      dup1\n      0x3685d419\n      gt\n      tag_42\n      jumpi\n      dup1\n      0x437823ec\n      gt\n      tag_43\n      jumpi\n      dup1\n      0x437823ec\n      eq\n      tag_15\n      jumpi\n      dup1\n      0x4549b039\n      eq\n      tag_16\n      jumpi\n      dup1\n      0x4a74bb02\n      eq\n      tag_17\n      jumpi\n      dup1\n      0x52390c02\n      eq\n      tag_18\n      jumpi\n      dup1\n      0x5342acb4\n      eq\n      tag_19\n      jumpi\n      jump(tag_2)\n    tag_43:\n      dup1\n      0x3685d419\n      eq\n      tag_11\n      jumpi\n      dup1\n      0x39509351\n      eq\n      tag_12\n      jumpi\n      dup1\n      0x3b124fe7\n      eq\n      tag_13\n      jumpi\n      dup1\n      0x3bd5d173\n      eq\n      tag_14\n      jumpi\n      jump(tag_2)\n    tag_42:\n      dup1\n      0x18160ddd\n      gt\n      tag_44\n      jumpi\n      dup1\n      0x18160ddd\n      eq\n      tag_7\n      jumpi\n      dup1\n      0x23b872dd\n      eq\n      tag_8\n      jumpi\n      dup1\n      0x2d838119\n      eq\n      tag_9\n      jumpi\n      dup1\n      0x313ce567\n      eq\n      tag_10\n      jumpi\n      jump(tag_2)\n    tag_44:\n      dup1\n      0x061c82d0\n      eq\n      tag_3\n      jumpi\n      dup1\n      0x06fdde03\n      eq\n      tag_4\n      jumpi\n      dup1\n      0x095ea7b3\n      eq\n      tag_5\n      jumpi\n      dup1\n      0x13114a9d\n      eq\n      tag_6\n      jumpi\n      jump(tag_2)\n    tag_1:\n      jumpi(tag_2, calldatasize)\n      stop\n    tag_2:\n        /* \"--CODEGEN--\":12:13   */\n      0x00\n        /* \"--CODEGEN--\":9:10   */\n      dup1\n        /* \"--CODEGEN--\":2:14   */\n      revert\n        /* \"bitlime-periphery/contracts/Safemoon.sol\":32911:33009  function setTaxFeePercent(uint256 taxFee) external onlyOwner() {\r... */\n    tag_3:\n      callvalue\n        /* \"--CODEGEN--\":5:14   */\n      dup1\n        /* \"--CODEGEN--\":2:4   */\n      iszero\n      tag_47\n      jumpi\n        /* \"--CODEGEN--\":27:28   */\n      0x00\n        /* \"--CODEGEN--\":24:25   */\n      dup1\n        /* \"--CODEGEN--\":17:29   */\n      revert\n        /* \"--CODEGEN--\":2:4   */\n    tag_47:\n        /* \"bitlime-periphery/contracts/Safemoon.sol\":32911:33009  function setTaxFeePercent(uint256 taxFee) external onlyOwner() {\r... */\n      pop\n      tag_48\n      0x04\n      dup1\n      calldatasize\n      sub\n        /* \"--CODEGEN--\":15:17   */\n      0x20\n        /* \"--CODEGEN--\":10:13   */\n      dup2\n        /* \"--CODEGEN--\":7:18   */\n      lt\n        /* \"--CODEGEN--\":4:6   */\n      iszero\n      tag_49\n      jumpi\n        /* \"--CODEGEN--\":31:32   */\n      0x00\n        /* \"--CODEGEN--\":28:29   */\n      dup1\n        /* \"--CODEGEN--\":21:33   */\n      revert\n        /* \"--CODEGEN--\":4:6   */\n    tag_49:\n      pop\n        /* \"bitlime-periphery/contracts/Safemoon.sol\":32911:33009  function setTaxFeePercent(uint256 taxFee) external onlyOwner() {\r... */\n      calldataload\n      tag_50\n      jump\t// in\n    tag_48:\n      stop\n        /* \"bitlime-periphery/contracts/Safemoon.sol\":27846:27929  function name() public view returns (string memory) {\r... */\n    tag_4:\n      callvalue\n        /* \"--CODEGEN--\":5:14   */\n      dup1\n        /* \"--CODEGEN--\":2:4   */\n      iszero\n      tag_51\n      jumpi\n        /* \"--CODEGEN--\":27:28   */\n      0x00\n        /* \"--CODEGEN--\":24:25   */\n      dup1\n        /* \"--CODEGEN--\":17:29   */\n      revert\n        /* \"--CODEGEN--\":2:4   */\n    tag_51:\n        /* \"bitlime-periphery/contracts/Safemoon.sol\":27846:27929  function name() public view returns (string memory) {\r... */\n      pop\n      tag_52\n      tag_53\n      jump\t// in\n    tag_52:\n      0x40\n      dup1\n      mload\n      0x20\n      dup1\n      dup3\n      mstore\n      dup4\n      mload\n      dup2\n      dup4\n      add\n      mstore\n      dup4\n      mload\n      swap2\n      swap3\n      dup4\n      swap3\n      swap1\n      dup4\n      add\n      swap2\n      dup6\n      add\n      swap1\n      dup1\n      dup4\n      dup4\n      0x00\n        /* \"--CODEGEN--\":8:108   */\n    tag_54:\n        /* \"--CODEGEN--\":33:36   */\n      dup4\n        /* \"--CODEGEN--\":30:31   */\n      dup2\n        /* \"--CODEGEN--\":27:37   */\n      lt\n        /* \"--CODEGEN--\":8:108   */\n      iszero\n      tag_56\n      jumpi\n        /* \"--CODEGEN--\":90:101   */\n      dup2\n      dup2\n      add\n        /* \"--CODEGEN--\":84:102   */\n      mload\n        /* \"--CODEGEN--\":71:82   */\n      dup4\n      dup3\n      add\n        /* \"--CODEGEN--\":64:103   */\n      mstore\n        /* \"--CODEGEN--\":52:54   */\n      0x20\n        /* \"--CODEGEN--\":45:55   */\n      add\n        /* \"--CODEGEN--\":8:108   */\n      jump(tag_54)\n    tag_56:\n        /* \"--CODEGEN--\":12:26   */\n      pop\n        /* \"bitlime-periphery/contracts/Safemoon.sol\":27846:27929  function name() public view returns (string memory) {\r... */\n      pop\n      pop\n      pop\n      swap1\n      pop\n      swap1\n      dup2\n      add\n      swap1\n      0x1f\n      and\n      dup1\n      iszero\n      tag_57\n      jumpi\n      dup1\n      dup3\n      sub\n      dup1\n      mload\n      0x01\n      dup4\n      0x20\n      sub\n      0x0100\n      exp\n      sub\n      not\n      and\n      dup2\n      mstore\n      0x20\n      add\n      swap2\n      pop\n    tag_57:\n      pop\n      swap3\n      pop\n      pop\n      pop\n      mload(0x40)\n      dup1\n      swap2\n      sub\n      swap1\n      return\n        /* \"bitlime-periphery/contracts/Safemoon.sol\":28758:28919  function approve(address spender, uint256 amount) public override returns (bool) {\r... */\n    tag_5:\n      callvalue\n        /* \"--CODEGEN--\":5:14   */\n      dup1\n        /* \"--CODEGEN--\":2:4   */\n      iszero\n      tag_58\n      jumpi\n        /* \"--CODEGEN--\":27:28   */\n      0x00\n        /* \"--CODEGEN--\":24:25   */\n      dup1\n        /* \"--CODEGEN--\":17:29   */\n      revert\n        /* \"--CODEGEN--\":2:4   */\n    tag_58:\n        /* \"bitlime-periphery/contracts/Safemoon.sol\":28758:28919  function approve(address spender, uint256 amount) public override returns (bool) {\r... */\n      pop\n      tag_59\n      0x04\n      dup1\n      calldatasize\n      sub\n        /* \"--CODEGEN--\":15:17   */\n      0x40\n        /* \"--CODEGEN--\":10:13   */\n      dup2\n        /* \"--CODEGEN--\":7:18   */\n      lt\n        /* \"--CODEGEN--\":4:6   */\n      iszero\n      tag_60\n      jumpi\n        /* \"--CODEGEN--\":31:32   */\n      0x00\n        /* \"--CODEGEN--\":28:29   */\n      dup1\n        /* \"--CODEGEN--\":21:33   */\n      revert\n        /* \"--CODEGEN--\":4:6   */\n    tag_60:\n      pop\n      sub(shl(0xa0, 0x01), 0x01)\n        /* \"bitlime-periphery/contracts/Safemoon.sol\":28758:28919  function approve(address spender, uint256 amount) public override returns (bool) {\r... */\n      dup2\n      calldataload\n      and\n      swap1\n      0x20\n      add\n      calldataload\n      tag_61\n      jump\t// in\n    tag_59:\n      0x40\n      dup1\n      mload\n      swap2\n      iszero\n      iszero\n      dup3\n      mstore\n      mload\n      swap1\n      dup2\n      swap1\n      sub\n      0x20\n      add\n      swap1\n      return\n        /* \"bitlime-periphery/contracts/Safemoon.sol\":29879:29966  function totalFees() public view returns (uint256) {\r... */\n    tag_6:\n      callvalue\n        /* \"--CODEGEN--\":5:14   */\n      dup1\n        /* \"--CODEGEN--\":2:4   */\n      iszero\n      tag_62\n      jumpi\n        /* \"--CODEGEN--\":27:28   */\n      0x00\n        /* \"--CODEGEN--\":24:25   */\n      dup1\n        /* \"--CODEGEN--\":17:29   */\n      revert\n        /* \"--CODEGEN--\":2:4   */\n    tag_62:\n        /* \"bitlime-periphery/contracts/Safemoon.sol\":29879:29966  function totalFees() public view returns (uint256) {\r... */\n      pop\n      tag_63\n      tag_64\n      jump\t// in\n    tag_63:\n      0x40\n      dup1\n      mload\n      swap2\n      dup3\n      mstore\n      mload\n      swap1\n      dup2\n      swap1\n      sub\n      0x20\n      add\n      swap1\n      return\n        /* \"bitlime-periphery/contracts/Safemoon.sol\":28123:28218  function totalSupply() public view override returns (uint256) {\r... */\n    tag_7:\n      callvalue\n        /* \"--CODEGEN--\":5:14   */\n      dup1\n        /* \"--CODEGEN--\":2:4   */\n      iszero\n      tag_65\n      jumpi\n        /* \"--CODEGEN--\":27:28   */\n      0x00\n        /* \"--CODEGEN--\":24:25   */\n      dup1\n        /* \"--CODEGEN--\":17:29   */\n      revert\n        /* \"--CODEGEN--\":2:4   */\n    tag_65:\n        /* \"bitlime-periphery/contracts/Safemoon.sol\":28123:28218  function totalSupply() public view override returns (uint256) {\r... */\n      pop\n      tag_63\n      tag_67\n      jump\t// in\n        /* \"bitlime-periphery/contracts/Safemoon.sol\":28927:29240  function transferFrom(address sender, address recipient, uint256 amount) public override returns (bool) {\r... */\n    tag_8:\n      callvalue\n        /* \"--CODEGEN--\":5:14   */\n      dup1\n        /* \"--CODEGEN--\":2:4   */\n      iszero\n      tag_68\n      jumpi\n        /* \"--CODEGEN--\":27:28   */\n      0x00\n        /* \"--CODEGEN--\":24:25   */\n      dup1\n        /* \"--CODEGEN--\":17:29   */\n      revert\n        /* \"--CODEGEN--\":2:4   */\n    tag_68:\n        /* \"bitlime-periphery/contracts/Safemoon.sol\":28927:29240  function transferFrom(address sender, address recipient, uint256 amount) public override returns (bool) {\r... */\n      pop\n      tag_59\n      0x04\n      dup1\n      calldatasize\n      sub\n        /* \"--CODEGEN--\":15:17   */\n      0x60\n        /* \"--CODEGEN--\":10:13   */\n      dup2\n        /* \"--CODEGEN--\":7:18   */\n      lt\n        /* \"--CODEGEN--\":4:6   */\n      iszero\n      tag_70\n      jumpi\n        /* \"--CODEGEN--\":31:32   */\n      0x00\n        /* \"--CODEGEN--\":28:29   */\n      dup1\n        /* \"--CODEGEN--\":21:33   */\n      revert\n        /* \"--CODEGEN--\":4:6   */\n    tag_70:\n      pop\n      sub(shl(0xa0, 0x01), 0x01)\n        /* \"bitlime-periphery/contracts/Safemoon.sol\":28927:29240  function transferFrom(address sender, address recipient, uint256 amount) public override returns (bool) {\r... */\n      dup2\n      calldataload\n      dup2\n      and\n      swap2\n      0x20\n      dup2\n      add\n      calldataload\n      swap1\n      swap2\n      and\n      swap1\n      0x40\n      add\n      calldataload\n      tag_71\n      jump\t// in\n        /* \"bitlime-periphery/contracts/Safemoon.sol\":30803:31056  function tokenFromReflection(uint256 rAmount) public view returns(uint256) {\r... */\n    tag_9:\n      callvalue\n        /* \"--CODEGEN--\":5:14   */\n      dup1\n        /* \"--CODEGEN--\":2:4   */\n      iszero\n      tag_72\n      jumpi\n        /* \"--CODEGEN--\":27:28   */\n      0x00\n        /* \"--CODEGEN--\":24:25   */\n      dup1\n        /* \"--CODEGEN--\":17:29   */\n      revert\n        /* \"--CODEGEN--\":2:4   */\n    tag_72:\n        /* \"bitlime-periphery/contracts/Safemoon.sol\":30803:31056  function tokenFromReflection(uint256 rAmount) public view returns(uint256) {\r... */\n      pop\n      tag_63\n      0x04\n      dup1\n      calldatasize\n      sub\n        /* \"--CODEGEN--\":15:17   */\n      0x20\n        /* \"--CODEGEN--\":10:13   */\n      dup2\n        /* \"--CODEGEN--\":7:18   */\n      lt\n        /* \"--CODEGEN--\":4:6   */\n      iszero\n      tag_74\n      jumpi\n        /* \"--CODEGEN--\":31:32   */\n      0x00\n        /* \"--CODEGEN--\":28:29   */\n      dup1\n        /* \"--CODEGEN--\":21:33   */\n      revert\n        /* \"--CODEGEN--\":4:6   */\n    tag_74:\n      pop\n        /* \"bitlime-periphery/contracts/Safemoon.sol\":30803:31056  function tokenFromReflection(uint256 rAmount) public view returns(uint256) {\r... */\n      calldataload\n      tag_75\n      jump\t// in\n        /* \"bitlime-periphery/contracts/Safemoon.sol\":28032:28115  function decimals() public view returns (uint8) {\r... */\n    tag_10:\n      callvalue\n        /* \"--CODEGEN--\":5:14   */\n      dup1\n        /* \"--CODEGEN--\":2:4   */\n      iszero\n      tag_76\n      jumpi\n        /* \"--CODEGEN--\":27:28   */\n      0x00\n        /* \"--CODEGEN--\":24:25   */\n      dup1\n        /* \"--CODEGEN--\":17:29   */\n      revert\n        /* \"--CODEGEN--\":2:4   */\n    tag_76:\n        /* \"bitlime-periphery/contracts/Safemoon.sol\":28032:28115  function decimals() public view returns (uint8) {\r... */\n      pop\n      tag_77\n      tag_78\n      jump\t// in\n    tag_77:\n      0x40\n      dup1\n      mload\n      0xff\n      swap1\n      swap3\n      and\n      dup3\n      mstore\n      mload\n      swap1\n      dup2\n      swap1\n      sub\n      0x20\n      add\n      swap1\n      return\n        /* \"bitlime-periphery/contracts/Safemoon.sol\":31519:31998  function includeInReward(address account) external onlyOwner() {\r... */\n    tag_11:\n      callvalue\n        /* \"--CODEGEN--\":5:14   */\n      dup1\n        /* \"--CODEGEN--\":2:4   */\n      iszero\n      tag_79\n      jumpi\n        /* \"--CODEGEN--\":27:28   */\n      0x00\n        /* \"--CODEGEN--\":24:25   */\n      dup1\n        /* \"--CODEGEN--\":17:29   */\n      revert\n        /* \"--CODEGEN--\":2:4   */\n    tag_79:\n        /* \"bitlime-periphery/contracts/Safemoon.sol\":31519:31998  function includeInReward(address account) external onlyOwner() {\r... */\n      pop\n      tag_48\n      0x04\n      dup1\n      calldatasize\n      sub\n        /* \"--CODEGEN--\":15:17   */\n      0x20\n        /* \"--CODEGEN--\":10:13   */\n      dup2\n        /* \"--CODEGEN--\":7:18   */\n      lt\n        /* \"--CODEGEN--\":4:6   */\n      iszero\n      tag_81\n      jumpi\n        /* \"--CODEGEN--\":31:32   */\n      0x00\n        /* \"--CODEGEN--\":28:29   */\n      dup1\n        /* \"--CODEGEN--\":21:33   */\n      revert\n        /* \"--CODEGEN--\":4:6   */\n    tag_81:\n      pop\n        /* \"bitlime-periphery/contracts/Safemoon.sol\":31519:31998  function includeInReward(address account) external onlyOwner() {\r... */\n      calldataload\n      sub(shl(0xa0, 0x01), 0x01)\n      and\n      tag_82\n      jump\t// in\n        /* \"bitlime-periphery/contracts/Safemoon.sol\":29248:29466  function increaseAllowance(address spender, uint256 addedValue) public virtual returns (bool) {\r... */\n    tag_12:\n      callvalue\n        /* \"--CODEGEN--\":5:14   */\n      dup1\n        /* \"--CODEGEN--\":2:4   */\n      iszero\n      tag_83\n      jumpi\n        /* \"--CODEGEN--\":27:28   */\n      0x00\n        /* \"--CODEGEN--\":24:25   */\n      dup1\n        /* \"--CODEGEN--\":17:29   */\n      revert\n        /* \"--CODEGEN--\":2:4   */\n    tag_83:\n        /* \"bitlime-periphery/contracts/Safemoon.sol\":29248:29466  function increaseAllowance(address spender, uint256 addedValue) public virtual returns (bool) {\r... */\n      pop\n      tag_59\n      0x04\n      dup1\n      calldatasize\n      sub\n        /* \"--CODEGEN--\":15:17   */\n      0x40\n        /* \"--CODEGEN--\":10:13   */\n      dup2\n        /* \"--CODEGEN--\":7:18   */\n      lt\n        /* \"--CODEGEN--\":4:6   */\n      iszero\n      tag_85\n      jumpi\n        /* \"--CODEGEN--\":31:32   */\n      0x00\n        /* \"--CODEGEN--\":28:29   */\n      dup1\n        /* \"--CODEGEN--\":21:33   */\n      revert\n        /* \"--CODEGEN--\":4:6   */\n    tag_85:\n      pop\n      sub(shl(0xa0, 0x01), 0x01)\n        /* \"bitlime-periphery/contracts/Safemoon.sol\":29248:29466  function increaseAllowance(address spender, uint256 addedValue) public virtual returns (bool) {\r... */\n      dup2\n      calldataload\n      and\n      swap1\n      0x20\n      add\n      calldataload\n      tag_86\n      jump\t// in\n        /* \"bitlime-periphery/contracts/Safemoon.sol\":26725:26751  uint256 public _taxFee = 5 */\n    tag_13:\n      callvalue\n        /* \"--CODEGEN--\":5:14   */\n      dup1\n        /* \"--CODEGEN--\":2:4   */\n      iszero\n      tag_87\n      jumpi\n        /* \"--CODEGEN--\":27:28   */\n      0x00\n        /* \"--CODEGEN--\":24:25   */\n      dup1\n        /* \"--CODEGEN--\":17:29   */\n      revert\n        /* \"--CODEGEN--\":2:4   */\n    tag_87:\n        /* \"bitlime-periphery/contracts/Safemoon.sol\":26725:26751  uint256 public _taxFee = 5 */\n      pop\n      tag_63\n      tag_89\n      jump\t// in\n        /* \"bitlime-periphery/contracts/Safemoon.sol\":29974:30351  function deliver(uint256 tAmount) public {\r... */\n    tag_14:\n      callvalue\n        /* \"--CODEGEN--\":5:14   */\n      dup1\n        /* \"--CODEGEN--\":2:4   */\n      iszero\n      tag_90\n      jumpi\n        /* \"--CODEGEN--\":27:28   */\n      0x00\n        /* \"--CODEGEN--\":24:25   */\n      dup1\n        /* \"--CODEGEN--\":17:29   */\n      revert\n        /* \"--CODEGEN--\":2:4   */\n    tag_90:\n        /* \"bitlime-periphery/contracts/Safemoon.sol\":29974:30351  function deliver(uint256 tAmount) public {\r... */\n      pop\n      tag_48\n      0x04\n      dup1\n      calldatasize\n      sub\n        /* \"--CODEGEN--\":15:17   */\n      0x20\n        /* \"--CODEGEN--\":10:13   */\n      dup2\n        /* \"--CODEGEN--\":7:18   */\n      lt\n        /* \"--CODEGEN--\":4:6   */\n      iszero\n      tag_92\n      jumpi\n        /* \"--CODEGEN--\":31:32   */\n      0x00\n        /* \"--CODEGEN--\":28:29   */\n      dup1\n        /* \"--CODEGEN--\":21:33   */\n      revert\n        /* \"--CODEGEN--\":4:6   */\n    tag_92:\n      pop\n        /* \"bitlime-periphery/contracts/Safemoon.sol\":29974:30351  function deliver(uint256 tAmount) public {\r... */\n      calldataload\n      tag_93\n      jump\t// in\n        /* \"bitlime-periphery/contracts/Safemoon.sol\":32666:32777  function excludeFromFee(address account) public onlyOwner {\r... */\n    tag_15:\n      callvalue\n        /* \"--CODEGEN--\":5:14   */\n      dup1\n        /* \"--CODEGEN--\":2:4   */\n      iszero\n      tag_94\n      jumpi\n        /* \"--CODEGEN--\":27:28   */\n      0x00\n        /* \"--CODEGEN--\":24:25   */\n      dup1\n        /* \"--CODEGEN--\":17:29   */\n      revert\n        /* \"--CODEGEN--\":2:4   */\n    tag_94:\n        /* \"bitlime-periphery/contracts/Safemoon.sol\":32666:32777  function excludeFromFee(address account) public onlyOwner {\r... */\n      pop\n      tag_48\n      0x04\n      dup1\n      calldatasize\n      sub\n        /* \"--CODEGEN--\":15:17   */\n      0x20\n        /* \"--CODEGEN--\":10:13   */\n      dup2\n        /* \"--CODEGEN--\":7:18   */\n      lt\n        /* \"--CODEGEN--\":4:6   */\n      iszero\n      tag_96\n      jumpi\n        /* \"--CODEGEN--\":31:32   */\n      0x00\n        /* \"--CODEGEN--\":28:29   */\n      dup1\n        /* \"--CODEGEN--\":21:33   */\n      revert\n        /* \"--CODEGEN--\":4:6   */\n    tag_96:\n      pop\n        /* \"bitlime-periphery/contracts/Safemoon.sol\":32666:32777  function excludeFromFee(address account) public onlyOwner {\r... */\n      calldataload\n      sub(shl(0xa0, 0x01), 0x01)\n      and\n      tag_97\n      jump\t// in\n        /* \"bitlime-periphery/contracts/Safemoon.sol\":30359:30795  function reflectionFromToken(uint256 tAmount, bool deductTransferFee) public view returns(uint256) {\r... */\n    tag_16:\n      callvalue\n        /* \"--CODEGEN--\":5:14   */\n      dup1\n        /* \"--CODEGEN--\":2:4   */\n      iszero\n      tag_98\n      jumpi\n        /* \"--CODEGEN--\":27:28   */\n      0x00\n        /* \"--CODEGEN--\":24:25   */\n      dup1\n        /* \"--CODEGEN--\":17:29   */\n      revert\n        /* \"--CODEGEN--\":2:4   */\n    tag_98:\n        /* \"bitlime-periphery/contracts/Safemoon.sol\":30359:30795  function reflectionFromToken(uint256 tAmount, bool deductTransferFee) public view returns(uint256) {\r... */\n      pop\n      tag_63\n      0x04\n      dup1\n      calldatasize\n      sub\n        /* \"--CODEGEN--\":15:17   */\n      0x40\n        /* \"--CODEGEN--\":10:13   */\n      dup2\n        /* \"--CODEGEN--\":7:18   */\n      lt\n        /* \"--CODEGEN--\":4:6   */\n      iszero\n      tag_100\n      jumpi\n        /* \"--CODEGEN--\":31:32   */\n      0x00\n        /* \"--CODEGEN--\":28:29   */\n      dup1\n        /* \"--CODEGEN--\":21:33   */\n      revert\n        /* \"--CODEGEN--\":4:6   */\n    tag_100:\n      pop\n        /* \"bitlime-periphery/contracts/Safemoon.sol\":30359:30795  function reflectionFromToken(uint256 tAmount, bool deductTransferFee) public view returns(uint256) {\r... */\n      dup1\n      calldataload\n      swap1\n      0x20\n      add\n      calldataload\n      iszero\n      iszero\n      tag_101\n      jump\t// in\n        /* \"bitlime-periphery/contracts/Safemoon.sol\":26947:26987  bool public swapAndLiquifyEnabled = true */\n    tag_17:\n      callvalue\n        /* \"--CODEGEN--\":5:14   */\n      dup1\n        /* \"--CODEGEN--\":2:4   */\n      iszero\n      tag_102\n      jumpi\n        /* \"--CODEGEN--\":27:28   */\n      0x00\n        /* \"--CODEGEN--\":24:25   */\n      dup1\n        /* \"--CODEGEN--\":17:29   */\n      revert\n        /* \"--CODEGEN--\":2:4   */\n    tag_102:\n        /* \"bitlime-periphery/contracts/Safemoon.sol\":26947:26987  bool public swapAndLiquifyEnabled = true */\n      pop\n      tag_59\n      tag_104\n      jump\t// in\n        /* \"bitlime-periphery/contracts/Safemoon.sol\":31064:31511  function excludeFromReward(address account) public onlyOwner() {\r... */\n    tag_18:\n      callvalue\n        /* \"--CODEGEN--\":5:14   */\n      dup1\n        /* \"--CODEGEN--\":2:4   */\n      iszero\n      tag_105\n      jumpi\n        /* \"--CODEGEN--\":27:28   */\n      0x00\n        /* \"--CODEGEN--\":24:25   */\n      dup1\n        /* \"--CODEGEN--\":17:29   */\n      revert\n        /* \"--CODEGEN--\":2:4   */\n    tag_105:\n        /* \"bitlime-periphery/contracts/Safemoon.sol\":31064:31511  function excludeFromReward(address account) public onlyOwner() {\r... */\n      pop\n      tag_48\n      0x04\n      dup1\n      calldatasize\n      sub\n        /* \"--CODEGEN--\":15:17   */\n      0x20\n        /* \"--CODEGEN--\":10:13   */\n      dup2\n        /* \"--CODEGEN--\":7:18   */\n      lt\n        /* \"--CODEGEN--\":4:6   */\n      iszero\n      tag_107\n      jumpi\n        /* \"--CODEGEN--\":31:32   */\n      0x00\n        /* \"--CODEGEN--\":28:29   */\n      dup1\n        /* \"--CODEGEN--\":21:33   */\n      revert\n        /* \"--CODEGEN--\":4:6   */\n    tag_107:\n      pop\n        /* \"bitlime-periphery/contracts/Safemoon.sol\":31064:31511  function excludeFromReward(address account) public onlyOwner() {\r... */\n      calldataload\n      sub(shl(0xa0, 0x01), 0x01)\n      and\n      tag_108\n      jump\t// in\n        /* \"bitlime-periphery/contracts/Safemoon.sol\":36808:36931  function isExcludedFromFee(address account) public view returns(bool) {\r... */\n    tag_19:\n      callvalue\n        /* \"--CODEGEN--\":5:14   */\n      dup1\n        /* \"--CODEGEN--\":2:4   */\n      iszero\n      tag_109\n      jumpi\n        /* \"--CODEGEN--\":27:28   */\n      0x00\n        /* \"--CODEGEN--\":24:25   */\n      dup1\n        /* \"--CODEGEN--\":17:29   */\n      revert\n        /* \"--CODEGEN--\":2:4   */\n    tag_109:\n        /* \"bitlime-periphery/contracts/Safemoon.sol\":36808:36931  function isExcludedFromFee(address account) public view returns(bool) {\r... */\n      pop\n      tag_59\n      0x04\n      dup1\n      calldatasize\n      sub\n        /* \"--CODEGEN--\":15:17   */\n      0x20\n        /* \"--CODEGEN--\":10:13   */\n      dup2\n        /* \"--CODEGEN--\":7:18   */\n      lt\n        /* \"--CODEGEN--\":4:6   */\n      iszero\n      tag_111\n      jumpi\n        /* \"--CODEGEN--\":31:32   */\n      0x00\n        /* \"--CODEGEN--\":28:29   */\n      dup1\n        /* \"--CODEGEN--\":21:33   */\n      revert\n        /* \"--CODEGEN--\":4:6   */\n    tag_111:\n      pop\n        /* \"bitlime-periphery/contracts/Safemoon.sol\":36808:36931  function isExcludedFromFee(address account) public view returns(bool) {\r... */\n      calldataload\n      sub(shl(0xa0, 0x01), 0x01)\n      and\n      tag_112\n      jump\t// in\n        /* \"bitlime-periphery/contracts/Safemoon.sol\":26812:26844  uint256 public _liquidityFee = 5 */\n    tag_20:\n      callvalue\n        /* \"--CODEGEN--\":5:14   */\n      dup1\n        /* \"--CODEGEN--\":2:4   */\n      iszero\n      tag_113\n      jumpi\n        /* \"--CODEGEN--\":27:28   */\n      0x00\n        /* \"--CODEGEN--\":24:25   */\n      dup1\n        /* \"--CODEGEN--\":17:29   */\n      revert\n        /* \"--CODEGEN--\":2:4   */\n    tag_113:\n        /* \"bitlime-periphery/contracts/Safemoon.sol\":26812:26844  uint256 public _liquidityFee = 5 */\n      pop\n      tag_63\n      tag_115\n      jump\t// in\n        /* \"bitlime-periphery/contracts/Safemoon.sol\":28226:28424  function balanceOf(address account) public view override returns (uint256) {\r... */\n    tag_21:\n      callvalue\n        /* \"--CODEGEN--\":5:14   */\n      dup1\n        /* \"--CODEGEN--\":2:4   */\n      iszero\n      tag_116\n      jumpi\n        /* \"--CODEGEN--\":27:28   */\n      0x00\n        /* \"--CODEGEN--\":24:25   */\n      dup1\n        /* \"--CODEGEN--\":17:29   */\n      revert\n        /* \"--CODEGEN--\":2:4   */\n    tag_116:\n        /* \"bitlime-periphery/contracts/Safemoon.sol\":28226:28424  function balanceOf(address account) public view override returns (uint256) {\r... */\n      pop\n      tag_63\n      0x04\n      dup1\n      calldatasize\n      sub\n        /* \"--CODEGEN--\":15:17   */\n      0x20\n        /* \"--CODEGEN--\":10:13   */\n      dup2\n        /* \"--CODEGEN--\":7:18   */\n      lt\n        /* \"--CODEGEN--\":4:6   */\n      iszero\n      tag_118\n      jumpi\n        /* \"--CODEGEN--\":31:32   */\n      0x00\n        /* \"--CODEGEN--\":28:29   */\n      dup1\n        /* \"--CODEGEN--\":21:33   */\n      revert\n        /* \"--CODEGEN--\":4:6   */\n    tag_118:\n      pop\n        /* \"bitlime-periphery/contracts/Safemoon.sol\":28226:28424  function balanceOf(address account) public view override returns (uint256) {\r... */\n      calldataload\n      sub(shl(0xa0, 0x01), 0x01)\n      and\n      tag_119\n      jump\t// in\n        /* \"bitlime-periphery/contracts/Safemoon.sol\":16547:16695  function renounceOwnership() public virtual onlyOwner {\r... */\n    tag_22:\n      callvalue\n        /* \"--CODEGEN--\":5:14   */\n      dup1\n        /* \"--CODEGEN--\":2:4   */\n      iszero\n      tag_120\n      jumpi\n        /* \"--CODEGEN--\":27:28   */\n      0x00\n        /* \"--CODEGEN--\":24:25   */\n      dup1\n        /* \"--CODEGEN--\":17:29   */\n      revert\n        /* \"--CODEGEN--\":2:4   */\n    tag_120:\n        /* \"bitlime-periphery/contracts/Safemoon.sol\":16547:16695  function renounceOwnership() public virtual onlyOwner {\r... */\n      pop\n      tag_48\n      tag_122\n      jump\t// in\n        /* \"bitlime-periphery/contracts/Safemoon.sol\":27000:27053  uint256 public _maxTxAmount = 5000000 * 10**6 * 10**9 */\n    tag_23:\n      callvalue\n        /* \"--CODEGEN--\":5:14   */\n      dup1\n        /* \"--CODEGEN--\":2:4   */\n      iszero\n      tag_123\n      jumpi\n        /* \"--CODEGEN--\":27:28   */\n      0x00\n        /* \"--CODEGEN--\":24:25   */\n      dup1\n        /* \"--CODEGEN--\":17:29   */\n      revert\n        /* \"--CODEGEN--\":2:4   */\n    tag_123:\n        /* \"bitlime-periphery/contracts/Safemoon.sol\":27000:27053  uint256 public _maxTxAmount = 5000000 * 10**6 * 10**9 */\n      pop\n      tag_63\n      tag_125\n      jump\t// in\n        /* \"bitlime-periphery/contracts/Safemoon.sol\":29751:29871  function isExcludedFromReward(address account) public view returns (bool) {\r... */\n    tag_24:\n      callvalue\n        /* \"--CODEGEN--\":5:14   */\n      dup1\n        /* \"--CODEGEN--\":2:4   */\n      iszero\n      tag_126\n      jumpi\n        /* \"--CODEGEN--\":27:28   */\n      0x00\n        /* \"--CODEGEN--\":24:25   */\n      dup1\n        /* \"--CODEGEN--\":17:29   */\n      revert\n        /* \"--CODEGEN--\":2:4   */\n    tag_126:\n        /* \"bitlime-periphery/contracts/Safemoon.sol\":29751:29871  function isExcludedFromReward(address account) public view returns (bool) {\r... */\n      pop\n      tag_59\n      0x04\n      dup1\n      calldatasize\n      sub\n        /* \"--CODEGEN--\":15:17   */\n      0x20\n        /* \"--CODEGEN--\":10:13   */\n      dup2\n        /* \"--CODEGEN--\":7:18   */\n      lt\n        /* \"--CODEGEN--\":4:6   */\n      iszero\n      tag_128\n      jumpi\n        /* \"--CODEGEN--\":31:32   */\n      0x00\n        /* \"--CODEGEN--\":28:29   */\n      dup1\n        /* \"--CODEGEN--\":21:33   */\n      revert\n        /* \"--CODEGEN--\":4:6   */\n    tag_128:\n      pop\n        /* \"bitlime-periphery/contracts/Safemoon.sol\":29751:29871  function isExcludedFromReward(address account) public view returns (bool) {\r... */\n      calldataload\n      sub(shl(0xa0, 0x01), 0x01)\n      and\n      tag_129\n      jump\t// in\n        /* \"bitlime-periphery/contracts/Safemoon.sol\":15904:15983  function owner() public view returns (address) {\r... */\n    tag_25:\n      callvalue\n        /* \"--CODEGEN--\":5:14   */\n      dup1\n        /* \"--CODEGEN--\":2:4   */\n      iszero\n      tag_130\n      jumpi\n        /* \"--CODEGEN--\":27:28   */\n      0x00\n        /* \"--CODEGEN--\":24:25   */\n      dup1\n        /* \"--CODEGEN--\":17:29   */\n      revert\n        /* \"--CODEGEN--\":2:4   */\n    tag_130:\n        /* \"bitlime-periphery/contracts/Safemoon.sol\":15904:15983  function owner() public view returns (address) {\r... */\n      pop\n      tag_131\n      tag_132\n      jump\t// in\n    tag_131:\n      0x40\n      dup1\n      mload\n      sub(shl(0xa0, 0x01), 0x01)\n      swap1\n      swap3\n      and\n      dup3\n      mstore\n      mload\n      swap1\n      dup2\n      swap1\n      sub\n      0x20\n      add\n      swap1\n      return\n        /* \"bitlime-periphery/contracts/Safemoon.sol\":33021:33143  function setLiquidityFeePercent(uint256 liquidityFee) external onlyOwner() {\r... */\n    tag_26:\n      callvalue\n        /* \"--CODEGEN--\":5:14   */\n      dup1\n        /* \"--CODEGEN--\":2:4   */\n      iszero\n      tag_133\n      jumpi\n        /* \"--CODEGEN--\":27:28   */\n      0x00\n        /* \"--CODEGEN--\":24:25   */\n      dup1\n        /* \"--CODEGEN--\":17:29   */\n      revert\n        /* \"--CODEGEN--\":2:4   */\n    tag_133:\n        /* \"bitlime-periphery/contracts/Safemoon.sol\":33021:33143  function setLiquidityFeePercent(uint256 liquidityFee) external onlyOwner() {\r... */\n      pop\n      tag_48\n      0x04\n      dup1\n      calldatasize\n      sub\n        /* \"--CODEGEN--\":15:17   */\n      0x20\n        /* \"--CODEGEN--\":10:13   */\n      dup2\n        /* \"--CODEGEN--\":7:18   */\n      lt\n        /* \"--CODEGEN--\":4:6   */\n      iszero\n      tag_135\n      jumpi\n        /* \"--CODEGEN--\":31:32   */\n      0x00\n        /* \"--CODEGEN--\":28:29   */\n      dup1\n        /* \"--CODEGEN--\":21:33   */\n      revert\n        /* \"--CODEGEN--\":4:6   */\n    tag_135:\n      pop\n        /* \"bitlime-periphery/contracts/Safemoon.sol\":33021:33143  function setLiquidityFeePercent(uint256 liquidityFee) external onlyOwner() {\r... */\n      calldataload\n      tag_136\n      jump\t// in\n        /* \"bitlime-periphery/contracts/Safemoon.sol\":27937:28024  function symbol() public view returns (string memory) {\r... */\n    tag_27:\n      callvalue\n        /* \"--CODEGEN--\":5:14   */\n      dup1\n        /* \"--CODEGEN--\":2:4   */\n      iszero\n      tag_137\n      jumpi\n        /* \"--CODEGEN--\":27:28   */\n      0x00\n        /* \"--CODEGEN--\":24:25   */\n      dup1\n        /* \"--CODEGEN--\":17:29   */\n      revert\n        /* \"--CODEGEN--\":2:4   */\n    tag_137:\n        /* \"bitlime-periphery/contracts/Safemoon.sol\":27937:28024  function symbol() public view returns (string memory) {\r... */\n      pop\n      tag_52\n      tag_139\n      jump\t// in\n        /* \"bitlime-periphery/contracts/Safemoon.sol\":29474:29743  function decreaseAllowance(address spender, uint256 subtractedValue) public virtual returns (bool) {\r... */\n    tag_28:\n      callvalue\n        /* \"--CODEGEN--\":5:14   */\n      dup1\n        /* \"--CODEGEN--\":2:4   */\n      iszero\n      tag_144\n      jumpi\n        /* \"--CODEGEN--\":27:28   */\n      0x00\n        /* \"--CODEGEN--\":24:25   */\n      dup1\n        /* \"--CODEGEN--\":17:29   */\n      revert\n        /* \"--CODEGEN--\":2:4   */\n    tag_144:\n        /* \"bitlime-periphery/contracts/Safemoon.sol\":29474:29743  function decreaseAllowance(address spender, uint256 subtractedValue) public virtual returns (bool) {\r... */\n      pop\n      tag_59\n      0x04\n      dup1\n      calldatasize\n      sub\n        /* \"--CODEGEN--\":15:17   */\n      0x40\n        /* \"--CODEGEN--\":10:13   */\n      dup2\n        /* \"--CODEGEN--\":7:18   */\n      lt\n        /* \"--CODEGEN--\":4:6   */\n      iszero\n      tag_146\n      jumpi\n        /* \"--CODEGEN--\":31:32   */\n      0x00\n        /* \"--CODEGEN--\":28:29   */\n      dup1\n        /* \"--CODEGEN--\":21:33   */\n      revert\n        /* \"--CODEGEN--\":4:6   */\n    tag_146:\n      pop\n      sub(shl(0xa0, 0x01), 0x01)\n        /* \"bitlime-periphery/contracts/Safemoon.sol\":29474:29743  function decreaseAllowance(address spender, uint256 subtractedValue) public virtual returns (bool) {\r... */\n      dup2\n      calldataload\n      and\n      swap1\n      0x20\n      add\n      calldataload\n      tag_147\n      jump\t// in\n        /* \"bitlime-periphery/contracts/Safemoon.sol\":17557:17850  function unlock() public virtual {\r... */\n    tag_29:\n      callvalue\n        /* \"--CODEGEN--\":5:14   */\n      dup1\n        /* \"--CODEGEN--\":2:4   */\n      iszero\n      tag_148\n      jumpi\n        /* \"--CODEGEN--\":27:28   */\n      0x00\n        /* \"--CODEGEN--\":24:25   */\n      dup1\n        /* \"--CODEGEN--\":17:29   */\n      revert\n        /* \"--CODEGEN--\":2:4   */\n    tag_148:\n        /* \"bitlime-periphery/contracts/Safemoon.sol\":17557:17850  function unlock() public virtual {\r... */\n      pop\n      tag_48\n      tag_150\n      jump\t// in\n        /* \"bitlime-periphery/contracts/Safemoon.sol\":28432:28599  function transfer(address recipient, uint256 amount) public override returns (bool) {\r... */\n    tag_30:\n      callvalue\n        /* \"--CODEGEN--\":5:14   */\n      dup1\n        /* \"--CODEGEN--\":2:4   */\n      iszero\n      tag_151\n      jumpi\n        /* \"--CODEGEN--\":27:28   */\n      0x00\n        /* \"--CODEGEN--\":24:25   */\n      dup1\n        /* \"--CODEGEN--\":17:29   */\n      revert\n        /* \"--CODEGEN--\":2:4   */\n    tag_151:\n        /* \"bitlime-periphery/contracts/Safemoon.sol\":28432:28599  function transfer(address recipient, uint256 amount) public override returns (bool) {\r... */\n      pop\n      tag_59\n      0x04\n      dup1\n      calldatasize\n      sub\n        /* \"--CODEGEN--\":15:17   */\n      0x40\n        /* \"--CODEGEN--\":10:13   */\n      dup2\n        /* \"--CODEGEN--\":7:18   */\n      lt\n        /* \"--CODEGEN--\":4:6   */\n      iszero\n      tag_153\n      jumpi\n        /* \"--CODEGEN--\":31:32   */\n      0x00\n        /* \"--CODEGEN--\":28:29   */\n      dup1\n        /* \"--CODEGEN--\":21:33   */\n      revert\n        /* \"--CODEGEN--\":4:6   */\n    tag_153:\n      pop\n      sub(shl(0xa0, 0x01), 0x01)\n        /* \"bitlime-periphery/contracts/Safemoon.sol\":28432:28599  function transfer(address recipient, uint256 amount) public override returns (bool) {\r... */\n      dup2\n      calldataload\n      and\n      swap1\n      0x20\n      add\n      calldataload\n      tag_154\n      jump\t// in\n        /* \"bitlime-periphery/contracts/Safemoon.sol\":17102:17191  function geUnlockTime() public view returns (uint256) {\r... */\n    tag_31:\n      callvalue\n        /* \"--CODEGEN--\":5:14   */\n      dup1\n        /* \"--CODEGEN--\":2:4   */\n      iszero\n      tag_155\n      jumpi\n        /* \"--CODEGEN--\":27:28   */\n      0x00\n        /* \"--CODEGEN--\":24:25   */\n      dup1\n        /* \"--CODEGEN--\":17:29   */\n      revert\n        /* \"--CODEGEN--\":2:4   */\n    tag_155:\n        /* \"bitlime-periphery/contracts/Safemoon.sol\":17102:17191  function geUnlockTime() public view returns (uint256) {\r... */\n      pop\n      tag_63\n      tag_157\n      jump\t// in\n        /* \"bitlime-periphery/contracts/Safemoon.sol\":33324:33495  function setSwapAndLiquifyEnabled(bool _enabled) public onlyOwner {\r... */\n    tag_32:\n      callvalue\n        /* \"--CODEGEN--\":5:14   */\n      dup1\n        /* \"--CODEGEN--\":2:4   */\n      iszero\n      tag_158\n      jumpi\n        /* \"--CODEGEN--\":27:28   */\n      0x00\n        /* \"--CODEGEN--\":24:25   */\n      dup1\n        /* \"--CODEGEN--\":17:29   */\n      revert\n        /* \"--CODEGEN--\":2:4   */\n    tag_158:\n        /* \"bitlime-periphery/contracts/Safemoon.sol\":33324:33495  function setSwapAndLiquifyEnabled(bool _enabled) public onlyOwner {\r... */\n      pop\n      tag_48\n      0x04\n      dup1\n      calldatasize\n      sub\n        /* \"--CODEGEN--\":15:17   */\n      0x20\n        /* \"--CODEGEN--\":10:13   */\n      dup2\n        /* \"--CODEGEN--\":7:18   */\n      lt\n        /* \"--CODEGEN--\":4:6   */\n      iszero\n      tag_160\n      jumpi\n        /* \"--CODEGEN--\":31:32   */\n      0x00\n        /* \"--CODEGEN--\":28:29   */\n      dup1\n        /* \"--CODEGEN--\":21:33   */\n      revert\n        /* \"--CODEGEN--\":4:6   */\n    tag_160:\n      pop\n        /* \"bitlime-periphery/contracts/Safemoon.sol\":33324:33495  function setSwapAndLiquifyEnabled(bool _enabled) public onlyOwner {\r... */\n      calldataload\n      iszero\n      iszero\n      tag_161\n      jump\t// in\n        /* \"bitlime-periphery/contracts/Safemoon.sol\":33154:33316  function setMaxTxPercent(uint256 maxTxPercent) external onlyOwner() {\r... */\n    tag_33:\n      callvalue\n        /* \"--CODEGEN--\":5:14   */\n      dup1\n        /* \"--CODEGEN--\":2:4   */\n      iszero\n      tag_162\n      jumpi\n        /* \"--CODEGEN--\":27:28   */\n      0x00\n        /* \"--CODEGEN--\":24:25   */\n      dup1\n        /* \"--CODEGEN--\":17:29   */\n      revert\n        /* \"--CODEGEN--\":2:4   */\n    tag_162:\n        /* \"bitlime-periphery/contracts/Safemoon.sol\":33154:33316  function setMaxTxPercent(uint256 maxTxPercent) external onlyOwner() {\r... */\n      pop\n      tag_48\n      0x04\n      dup1\n      calldatasize\n      sub\n        /* \"--CODEGEN--\":15:17   */\n      0x20\n        /* \"--CODEGEN--\":10:13   */\n      dup2\n        /* \"--CODEGEN--\":7:18   */\n      lt\n        /* \"--CODEGEN--\":4:6   */\n      iszero\n      tag_164\n      jumpi\n        /* \"--CODEGEN--\":31:32   */\n      0x00\n        /* \"--CODEGEN--\":28:29   */\n      dup1\n        /* \"--CODEGEN--\":21:33   */\n      revert\n        /* \"--CODEGEN--\":4:6   */\n    tag_164:\n      pop\n        /* \"bitlime-periphery/contracts/Safemoon.sol\":33154:33316  function setMaxTxPercent(uint256 maxTxPercent) external onlyOwner() {\r... */\n      calldataload\n      tag_165\n      jump\t// in\n        /* \"bitlime-periphery/contracts/Safemoon.sol\":17267:17481  function lock(uint256 time) public virtual onlyOwner {\r... */\n    tag_34:\n      callvalue\n        /* \"--CODEGEN--\":5:14   */\n      dup1\n        /* \"--CODEGEN--\":2:4   */\n      iszero\n      tag_166\n      jumpi\n        /* \"--CODEGEN--\":27:28   */\n      0x00\n        /* \"--CODEGEN--\":24:25   */\n      dup1\n        /* \"--CODEGEN--\":17:29   */\n      revert\n        /* \"--CODEGEN--\":2:4   */\n    tag_166:\n        /* \"bitlime-periphery/contracts/Safemoon.sol\":17267:17481  function lock(uint256 time) public virtual onlyOwner {\r... */\n      pop\n      tag_48\n      0x04\n      dup1\n      calldatasize\n      sub\n        /* \"--CODEGEN--\":15:17   */\n      0x20\n        /* \"--CODEGEN--\":10:13   */\n      dup2\n        /* \"--CODEGEN--\":7:18   */\n      lt\n        /* \"--CODEGEN--\":4:6   */\n      iszero\n      tag_168\n      jumpi\n        /* \"--CODEGEN--\":31:32   */\n      0x00\n        /* \"--CODEGEN--\":28:29   */\n      dup1\n        /* \"--CODEGEN--\":21:33   */\n      revert\n        /* \"--CODEGEN--\":4:6   */\n    tag_168:\n      pop\n        /* \"bitlime-periphery/contracts/Safemoon.sol\":17267:17481  function lock(uint256 time) public virtual onlyOwner {\r... */\n      calldataload\n      tag_169\n      jump\t// in\n        /* \"bitlime-periphery/contracts/Safemoon.sol\":28607:28750  function allowance(address owner, address spender) public view override returns (uint256) {\r... */\n    tag_35:\n      callvalue\n        /* \"--CODEGEN--\":5:14   */\n      dup1\n        /* \"--CODEGEN--\":2:4   */\n      iszero\n      tag_170\n      jumpi\n        /* \"--CODEGEN--\":27:28   */\n      0x00\n        /* \"--CODEGEN--\":24:25   */\n      dup1\n        /* \"--CODEGEN--\":17:29   */\n      revert\n        /* \"--CODEGEN--\":2:4   */\n    tag_170:\n        /* \"bitlime-periphery/contracts/Safemoon.sol\":28607:28750  function allowance(address owner, address spender) public view override returns (uint256) {\r... */\n      pop\n      tag_63\n      0x04\n      dup1\n      calldatasize\n      sub\n        /* \"--CODEGEN--\":15:17   */\n      0x40\n        /* \"--CODEGEN--\":10:13   */\n      dup2\n        /* \"--CODEGEN--\":7:18   */\n      lt\n        /* \"--CODEGEN--\":4:6   */\n      iszero\n      tag_172\n      jumpi\n        /* \"--CODEGEN--\":31:32   */\n      0x00\n        /* \"--CODEGEN--\":28:29   */\n      dup1\n        /* \"--CODEGEN--\":21:33   */\n      revert\n        /* \"--CODEGEN--\":4:6   */\n    tag_172:\n      pop\n      sub(shl(0xa0, 0x01), 0x01)\n        /* \"bitlime-periphery/contracts/Safemoon.sol\":28607:28750  function allowance(address owner, address spender) public view override returns (uint256) {\r... */\n      dup2\n      calldataload\n      dup2\n      and\n      swap2\n      0x20\n      add\n      calldataload\n      and\n      tag_173\n      jump\t// in\n        /* \"bitlime-periphery/contracts/Safemoon.sol\":32789:32899  function includeInFee(address account) public onlyOwner {\r... */\n    tag_36:\n      callvalue\n        /* \"--CODEGEN--\":5:14   */\n      dup1\n        /* \"--CODEGEN--\":2:4   */\n      iszero\n      tag_174\n      jumpi\n        /* \"--CODEGEN--\":27:28   */\n      0x00\n        /* \"--CODEGEN--\":24:25   */\n      dup1\n        /* \"--CODEGEN--\":17:29   */\n      revert\n        /* \"--CODEGEN--\":2:4   */\n    tag_174:\n        /* \"bitlime-periphery/contracts/Safemoon.sol\":32789:32899  function includeInFee(address account) public onlyOwner {\r... */\n      pop\n      tag_48\n      0x04\n      dup1\n      calldatasize\n      sub\n        /* \"--CODEGEN--\":15:17   */\n      0x20\n        /* \"--CODEGEN--\":10:13   */\n      dup2\n        /* \"--CODEGEN--\":7:18   */\n      lt\n        /* \"--CODEGEN--\":4:6   */\n      iszero\n      tag_176\n      jumpi\n        /* \"--CODEGEN--\":31:32   */\n      0x00\n        /* \"--CODEGEN--\":28:29   */\n      dup1\n        /* \"--CODEGEN--\":21:33   */\n      revert\n        /* \"--CODEGEN--\":4:6   */\n    tag_176:\n      pop\n        /* \"bitlime-periphery/contracts/Safemoon.sol\":32789:32899  function includeInFee(address account) public onlyOwner {\r... */\n      calldataload\n      sub(shl(0xa0, 0x01), 0x01)\n      and\n      tag_177\n      jump\t// in\n        /* \"bitlime-periphery/contracts/Safemoon.sol\":16850:17094  function transferOwnership(address newOwner) public virtual onlyOwner {\r... */\n    tag_37:\n      callvalue\n        /* \"--CODEGEN--\":5:14   */\n      dup1\n        /* \"--CODEGEN--\":2:4   */\n      iszero\n      tag_178\n      jumpi\n        /* \"--CODEGEN--\":27:28   */\n      0x00\n        /* \"--CODEGEN--\":24:25   */\n      dup1\n        /* \"--CODEGEN--\":17:29   */\n      revert\n        /* \"--CODEGEN--\":2:4   */\n    tag_178:\n        /* \"bitlime-periphery/contracts/Safemoon.sol\":16850:17094  function transferOwnership(address newOwner) public virtual onlyOwner {\r... */\n      pop\n      tag_48\n      0x04\n      dup1\n      calldatasize\n      sub\n        /* \"--CODEGEN--\":15:17   */\n      0x20\n        /* \"--CODEGEN--\":10:13   */\n      dup2\n        /* \"--CODEGEN--\":7:18   */\n      lt\n        /* \"--CODEGEN--\":4:6   */\n      iszero\n      tag_180\n      jumpi\n        /* \"--CODEGEN--\":31:32   */\n      0x00\n        /* \"--CODEGEN--\":28:29   */\n      dup1\n        /* \"--CODEGEN--\":21:33   */\n      revert\n        /* \"--CODEGEN--\":4:6   */\n    tag_180:\n      pop\n        /* \"bitlime-periphery/contracts/Safemoon.sol\":16850:17094  function transferOwnership(address newOwner) public virtual onlyOwner {\r... */\n      calldataload\n      sub(shl(0xa0, 0x01), 0x01)\n      and\n      tag_181\n      jump\t// in\n        /* \"bitlime-periphery/contracts/Safemoon.sol\":32911:33009  function setTaxFeePercent(uint256 taxFee) external onlyOwner() {\r... */\n    tag_50:\n        /* \"bitlime-periphery/contracts/Safemoon.sol\":16126:16138  _msgSender() */\n      tag_183\n        /* \"bitlime-periphery/contracts/Safemoon.sol\":16126:16136  _msgSender */\n      tag_184\n        /* \"bitlime-periphery/contracts/Safemoon.sol\":16126:16138  _msgSender() */\n      jump\t// in\n    tag_183:\n        /* \"bitlime-periphery/contracts/Safemoon.sol\":16116:16122  _owner */\n      sload(0x00)\n      sub(shl(0xa0, 0x01), 0x01)\n      swap1\n      dup2\n      and\n        /* \"bitlime-periphery/contracts/Safemoon.sol\":16116:16138  _owner == _msgSender() */\n      swap2\n      and\n      eq\n        /* \"bitlime-periphery/contracts/Safemoon.sol\":16108:16175  require(_owner == _msgSender(), \"Ownable: caller is not the owner\") */\n      tag_185\n      jumpi\n      0x40\n      dup1\n      mload\n      shl(0xe5, 0x461bcd)\n      dup2\n      mstore\n      0x20\n      0x04\n      dup3\n      add\n      dup2\n      swap1\n      mstore\n      0x24\n      dup3\n      add\n      mstore\n      0x00\n      dup1\n      mload\n      0x20\n      data_9924ebdf1add33d25d4ef888e16131f0a5687b0580a36c21b5c301a6c462effe\n      dup4\n      codecopy\n      dup2\n      mload\n      swap2\n      mstore\n      0x44\n      dup3\n      add\n      mstore\n      swap1\n      mload\n      swap1\n      dup2\n      swap1\n      sub\n      0x64\n      add\n      swap1\n      revert\n    tag_185:\n        /* \"bitlime-periphery/contracts/Safemoon.sol\":32985:32992  _taxFee */\n      0x0f\n        /* \"bitlime-periphery/contracts/Safemoon.sol\":32985:33001  _taxFee = taxFee */\n      sstore\n        /* \"bitlime-periphery/contracts/Safemoon.sol\":32911:33009  function setTaxFeePercent(uint256 taxFee) external onlyOwner() {\r... */\n      jump\t// out\n        /* \"bitlime-periphery/contracts/Safemoon.sol\":27846:27929  function name() public view returns (string memory) {\r... */\n    tag_53:\n        /* \"bitlime-periphery/contracts/Safemoon.sol\":27916:27921  _name */\n      0x0c\n        /* \"bitlime-periphery/contracts/Safemoon.sol\":27909:27921  return _name */\n      dup1\n      sload\n      0x40\n      dup1\n      mload\n      0x20\n      0x1f\n      0x02\n      not(0x00)\n      0x0100\n      0x01\n      dup9\n      and\n      iszero\n      mul\n      add\n      swap1\n      swap6\n      and\n      swap5\n      swap1\n      swap5\n      div\n      swap4\n      dup5\n      add\n      dup2\n      swap1\n      div\n      dup2\n      mul\n      dup3\n      add\n      dup2\n      add\n      swap1\n      swap3\n      mstore\n      dup3\n      dup2\n      mstore\n        /* \"bitlime-periphery/contracts/Safemoon.sol\":27883:27896  string memory */\n      0x60\n      swap4\n        /* \"bitlime-periphery/contracts/Safemoon.sol\":27909:27921  return _name */\n      swap1\n      swap3\n        /* \"bitlime-periphery/contracts/Safemoon.sol\":27916:27921  _name */\n      swap1\n      swap2\n        /* \"bitlime-periphery/contracts/Safemoon.sol\":27909:27921  return _name */\n      dup4\n      add\n        /* \"bitlime-periphery/contracts/Safemoon.sol\":27916:27921  _name */\n      dup3\n        /* \"bitlime-periphery/contracts/Safemoon.sol\":27909:27921  return _name */\n      dup3\n      dup1\n      iszero\n      tag_188\n      jumpi\n      dup1\n      0x1f\n      lt\n      tag_189\n      jumpi\n      0x0100\n      dup1\n      dup4\n      sload\n      div\n      mul\n      dup4\n      mstore\n      swap2\n      0x20\n      add\n      swap2\n      jump(tag_188)\n    tag_189:\n      dup3\n      add\n      swap2\n      swap1\n      0x00\n      mstore\n      keccak256(0x00, 0x20)\n      swap1\n    tag_190:\n      dup2\n      sload\n      dup2\n      mstore\n      swap1\n      0x01\n      add\n      swap1\n      0x20\n      add\n      dup1\n      dup4\n      gt\n      tag_190\n      jumpi\n      dup3\n      swap1\n      sub\n      0x1f\n      and\n      dup3\n      add\n      swap2\n    tag_188:\n      pop\n      pop\n      pop\n      pop\n      pop\n      swap1\n      pop\n        /* \"bitlime-periphery/contracts/Safemoon.sol\":27846:27929  function name() public view returns (string memory) {\r... */\n      swap1\n      jump\t// out\n        /* \"bitlime-periphery/contracts/Safemoon.sol\":28758:28919  function approve(address spender, uint256 amount) public override returns (bool) {\r... */\n    tag_61:\n        /* \"bitlime-periphery/contracts/Safemoon.sol\":28833:28837  bool */\n      0x00\n        /* \"bitlime-periphery/contracts/Safemoon.sol\":28850:28889  _approve(_msgSender(), spender, amount) */\n      tag_192\n        /* \"bitlime-periphery/contracts/Safemoon.sol\":28859:28871  _msgSender() */\n      tag_193\n        /* \"bitlime-periphery/contracts/Safemoon.sol\":28859:28869  _msgSender */\n      tag_184\n        /* \"bitlime-periphery/contracts/Safemoon.sol\":28859:28871  _msgSender() */\n      jump\t// in\n    tag_193:\n        /* \"bitlime-periphery/contracts/Safemoon.sol\":28873:28880  spender */\n      dup5\n        /* \"bitlime-periphery/contracts/Safemoon.sol\":28882:28888  amount */\n      dup5\n        /* \"bitlime-periphery/contracts/Safemoon.sol\":28850:28858  _approve */\n      tag_194\n        /* \"bitlime-periphery/contracts/Safemoon.sol\":28850:28889  _approve(_msgSender(), spender, amount) */\n      jump\t// in\n    tag_192:\n      pop\n        /* \"bitlime-periphery/contracts/Safemoon.sol\":28907:28911  true */\n      0x01\n        /* \"bitlime-periphery/contracts/Safemoon.sol\":28758:28919  function approve(address spender, uint256 amount) public override returns (bool) {\r... */\n    tag_191:\n      swap3\n      swap2\n      pop\n      pop\n      jump\t// out\n        /* \"bitlime-periphery/contracts/Safemoon.sol\":29879:29966  function totalFees() public view returns (uint256) {\r... */\n    tag_64:\n        /* \"bitlime-periphery/contracts/Safemoon.sol\":29948:29958  _tFeeTotal */\n      sload(0x0b)\n        /* \"bitlime-periphery/contracts/Safemoon.sol\":29879:29966  function totalFees() public view returns (uint256) {\r... */\n      swap1\n      jump\t// out\n        /* \"bitlime-periphery/contracts/Safemoon.sol\":28123:28218  function totalSupply() public view override returns (uint256) {\r... */\n    tag_67:\n        /* \"bitlime-periphery/contracts/Safemoon.sol\":28203:28210  _tTotal */\n      sload(0x09)\n        /* \"bitlime-periphery/contracts/Safemoon.sol\":28123:28218  function totalSupply() public view override returns (uint256) {\r... */\n      swap1\n      jump\t// out\n        /* \"bitlime-periphery/contracts/Safemoon.sol\":28927:29240  function transferFrom(address sender, address recipient, uint256 amount) public override returns (bool) {\r... */\n    tag_71:\n        /* \"bitlime-periphery/contracts/Safemoon.sol\":29025:29029  bool */\n      0x00\n        /* \"bitlime-periphery/contracts/Safemoon.sol\":29042:29078  _transfer(sender, recipient, amount) */\n      tag_198\n        /* \"bitlime-periphery/contracts/Safemoon.sol\":29052:29058  sender */\n      dup5\n        /* \"bitlime-periphery/contracts/Safemoon.sol\":29060:29069  recipient */\n      dup5\n        /* \"bitlime-periphery/contracts/Safemoon.sol\":29071:29077  amount */\n      dup5\n        /* \"bitlime-periphery/contracts/Safemoon.sol\":29042:29051  _transfer */\n      tag_199\n        /* \"bitlime-periphery/contracts/Safemoon.sol\":29042:29078  _transfer(sender, recipient, amount) */\n      jump\t// in\n    tag_198:\n        /* \"bitlime-periphery/contracts/Safemoon.sol\":29089:29210  _approve(sender, _msgSender(), _allowances[sender][_msgSender()].sub(amount, \"ERC20: transfer amount exceeds allowance\")) */\n      tag_200\n        /* \"bitlime-periphery/contracts/Safemoon.sol\":29098:29104  sender */\n      dup5\n        /* \"bitlime-periphery/contracts/Safemoon.sol\":29106:29118  _msgSender() */\n      tag_201\n        /* \"bitlime-periphery/contracts/Safemoon.sol\":29106:29116  _msgSender */\n      tag_184\n        /* \"bitlime-periphery/contracts/Safemoon.sol\":29106:29118  _msgSender() */\n      jump\t// in\n    tag_201:\n        /* \"bitlime-periphery/contracts/Safemoon.sol\":29120:29209  _allowances[sender][_msgSender()].sub(amount, \"ERC20: transfer amount exceeds allowance\") */\n      tag_202\n        /* \"bitlime-periphery/contracts/Safemoon.sol\":29158:29164  amount */\n      dup6\n        /* \"bitlime-periphery/contracts/Safemoon.sol\":29120:29209  _allowances[sender][_msgSender()].sub(amount, \"ERC20: transfer amount exceeds allowance\") */\n      mload(0x40)\n      dup1\n      0x60\n      add\n      0x40\n      mstore\n      dup1\n      0x28\n      dup2\n      mstore\n      0x20\n      add\n      data_974d1b4421da69cc60b481194f0dad36a5bb4e23da810da7a7fb30cdba178330\n      0x28\n      swap2\n      codecopy\n      sub(shl(0xa0, 0x01), 0x01)\n        /* \"bitlime-periphery/contracts/Safemoon.sol\":29120:29139  _allowances[sender] */\n      dup11\n      and\n      0x00\n      swap1\n      dup2\n      mstore\n        /* \"bitlime-periphery/contracts/Safemoon.sol\":29120:29131  _allowances */\n      0x05\n        /* \"bitlime-periphery/contracts/Safemoon.sol\":29120:29139  _allowances[sender] */\n      0x20\n      mstore\n      0x40\n      dup2\n      keccak256\n      swap1\n        /* \"bitlime-periphery/contracts/Safemoon.sol\":29140:29152  _msgSender() */\n      tag_203\n        /* \"bitlime-periphery/contracts/Safemoon.sol\":29140:29150  _msgSender */\n      tag_184\n        /* \"bitlime-periphery/contracts/Safemoon.sol\":29140:29152  _msgSender() */\n      jump\t// in\n    tag_203:\n      sub(shl(0xa0, 0x01), 0x01)\n        /* \"bitlime-periphery/contracts/Safemoon.sol\":29120:29153  _allowances[sender][_msgSender()] */\n      and\n      dup2\n      mstore\n      0x20\n      dup2\n      add\n      swap2\n      swap1\n      swap2\n      mstore\n      0x40\n      add\n      0x00\n      keccak256\n      sload\n      swap2\n        /* \"bitlime-periphery/contracts/Safemoon.sol\":29120:29209  _allowances[sender][_msgSender()].sub(amount, \"ERC20: transfer amount exceeds allowance\") */\n      swap1\n      0xffffffff\n        /* \"bitlime-periphery/contracts/Safemoon.sol\":29120:29157  _allowances[sender][_msgSender()].sub */\n      tag_204\n        /* \"bitlime-periphery/contracts/Safemoon.sol\":29120:29209  _allowances[sender][_msgSender()].sub(amount, \"ERC20: transfer amount exceeds allowance\") */\n      and\n      jump\t// in\n    tag_202:\n        /* \"bitlime-periphery/contracts/Safemoon.sol\":29089:29097  _approve */\n      tag_194\n        /* \"bitlime-periphery/contracts/Safemoon.sol\":29089:29210  _approve(sender, _msgSender(), _allowances[sender][_msgSender()].sub(amount, \"ERC20: transfer amount exceeds allowance\")) */\n      jump\t// in\n    tag_200:\n      pop\n        /* \"bitlime-periphery/contracts/Safemoon.sol\":29228:29232  true */\n      0x01\n        /* \"bitlime-periphery/contracts/Safemoon.sol\":28927:29240  function transferFrom(address sender, address recipient, uint256 amount) public override returns (bool) {\r... */\n      swap4\n      swap3\n      pop\n      pop\n      pop\n      jump\t// out\n        /* \"bitlime-periphery/contracts/Safemoon.sol\":30803:31056  function tokenFromReflection(uint256 rAmount) public view returns(uint256) {\r... */\n    tag_75:\n        /* \"bitlime-periphery/contracts/Safemoon.sol\":30869:30876  uint256 */\n      0x00\n        /* \"bitlime-periphery/contracts/Safemoon.sol\":30908:30915  _rTotal */\n      sload(0x0a)\n        /* \"bitlime-periphery/contracts/Safemoon.sol\":30897:30904  rAmount */\n      dup3\n        /* \"bitlime-periphery/contracts/Safemoon.sol\":30897:30915  rAmount <= _rTotal */\n      gt\n      iszero\n        /* \"bitlime-periphery/contracts/Safemoon.sol\":30889:30962  require(rAmount <= _rTotal, \"Amount must be less than total reflections\") */\n      tag_206\n      jumpi\n      mload(0x40)\n      shl(0xe5, 0x461bcd)\n      dup2\n      mstore\n      0x04\n      add\n      dup1\n      dup1\n      0x20\n      add\n      dup3\n      dup2\n      sub\n      dup3\n      mstore\n      0x2a\n      dup2\n      mstore\n      0x20\n      add\n      dup1\n      data_22f7af55a509c3b14f0d528f087748dec8a8bf425135e3f5dc28c6a31ec6d812\n      0x2a\n      swap2\n      codecopy\n      0x40\n      add\n      swap2\n      pop\n      pop\n      mload(0x40)\n      dup1\n      swap2\n      sub\n      swap1\n      revert\n    tag_206:\n        /* \"bitlime-periphery/contracts/Safemoon.sol\":30973:30992  uint256 currentRate */\n      0x00\n        /* \"bitlime-periphery/contracts/Safemoon.sol\":30996:31006  _getRate() */\n      tag_207\n        /* \"bitlime-periphery/contracts/Safemoon.sol\":30996:31004  _getRate */\n      tag_208\n        /* \"bitlime-periphery/contracts/Safemoon.sol\":30996:31006  _getRate() */\n      jump\t// in\n    tag_207:\n        /* \"bitlime-periphery/contracts/Safemoon.sol\":30973:31006  uint256 currentRate =  _getRate() */\n      swap1\n      pop\n        /* \"bitlime-periphery/contracts/Safemoon.sol\":31024:31048  rAmount.div(currentRate) */\n      tag_209\n        /* \"bitlime-periphery/contracts/Safemoon.sol\":31024:31031  rAmount */\n      dup4\n        /* \"bitlime-periphery/contracts/Safemoon.sol\":30973:31006  uint256 currentRate =  _getRate() */\n      dup3\n        /* \"bitlime-periphery/contracts/Safemoon.sol\":31024:31048  rAmount.div(currentRate) */\n      0xffffffff\n        /* \"bitlime-periphery/contracts/Safemoon.sol\":31024:31035  rAmount.div */\n      tag_210\n        /* \"bitlime-periphery/contracts/Safemoon.sol\":31024:31048  rAmount.div(currentRate) */\n      and\n      jump\t// in\n    tag_209:\n        /* \"bitlime-periphery/contracts/Safemoon.sol\":31017:31048  return rAmount.div(currentRate) */\n      swap2\n      pop\n      pop\n        /* \"bitlime-periphery/contracts/Safemoon.sol\":30803:31056  function tokenFromReflection(uint256 rAmount) public view returns(uint256) {\r... */\n    tag_205:\n      swap2\n      swap1\n      pop\n      jump\t// out\n        /* \"bitlime-periphery/contracts/Safemoon.sol\":28032:28115  function decimals() public view returns (uint8) {\r... */\n    tag_78:\n        /* \"bitlime-periphery/contracts/Safemoon.sol\":28098:28107  _decimals */\n      and(0xff, sload(0x0e))\n        /* \"bitlime-periphery/contracts/Safemoon.sol\":28032:28115  function decimals() public view returns (uint8) {\r... */\n      swap1\n      jump\t// out\n        /* \"bitlime-periphery/contracts/Safemoon.sol\":31519:31998  function includeInReward(address account) external onlyOwner() {\r... */\n    tag_82:\n        /* \"bitlime-periphery/contracts/Safemoon.sol\":16126:16138  _msgSender() */\n      tag_213\n        /* \"bitlime-periphery/contracts/Safemoon.sol\":16126:16136  _msgSender */\n      tag_184\n        /* \"bitlime-periphery/contracts/Safemoon.sol\":16126:16138  _msgSender() */\n      jump\t// in\n    tag_213:\n        /* \"bitlime-periphery/contracts/Safemoon.sol\":16116:16122  _owner */\n      sload(0x00)\n      sub(shl(0xa0, 0x01), 0x01)\n      swap1\n      dup2\n      and\n        /* \"bitlime-periphery/contracts/Safemoon.sol\":16116:16138  _owner == _msgSender() */\n      swap2\n      and\n      eq\n        /* \"bitlime-periphery/contracts/Safemoon.sol\":16108:16175  require(_owner == _msgSender(), \"Ownable: caller is not the owner\") */\n      tag_214\n      jumpi\n      0x40\n      dup1\n      mload\n      shl(0xe5, 0x461bcd)\n      dup2\n      mstore\n      0x20\n      0x04\n      dup3\n      add\n      dup2\n      swap1\n      mstore\n      0x24\n      dup3\n      add\n      mstore\n      0x00\n      dup1\n      mload\n      0x20\n      data_9924ebdf1add33d25d4ef888e16131f0a5687b0580a36c21b5c301a6c462effe\n      dup4\n      codecopy\n      dup2\n      mload\n      swap2\n      mstore\n      0x44\n      dup3\n      add\n      mstore\n      swap1\n      mload\n      swap1\n      dup2\n      swap1\n      sub\n      0x64\n      add\n      swap1\n      revert\n    tag_214:\n      sub(shl(0xa0, 0x01), 0x01)\n        /* \"bitlime-periphery/contracts/Safemoon.sol\":31601:31621  _isExcluded[account] */\n      dup2\n      and\n      0x00\n      swap1\n      dup2\n      mstore\n        /* \"bitlime-periphery/contracts/Safemoon.sol\":31601:31612  _isExcluded */\n      0x07\n        /* \"bitlime-periphery/contracts/Safemoon.sol\":31601:31621  _isExcluded[account] */\n      0x20\n      mstore\n      0x40\n      swap1\n      keccak256\n      sload\n      0xff\n      and\n        /* \"bitlime-periphery/contracts/Safemoon.sol\":31593:31653  require(_isExcluded[account], \"Account is already excluded\") */\n      tag_216\n      jumpi\n      0x40\n      dup1\n      mload\n      shl(0xe5, 0x461bcd)\n      dup2\n      mstore\n      0x20\n      0x04\n      dup3\n      add\n      mstore\n      0x1b\n      0x24\n      dup3\n      add\n      mstore\n      0x4163636f756e7420697320616c7265616479206578636c756465640000000000\n      0x44\n      dup3\n      add\n      mstore\n      swap1\n      mload\n      swap1\n      dup2\n      swap1\n      sub\n      0x64\n      add\n      swap1\n      revert\n    tag_216:\n        /* \"bitlime-periphery/contracts/Safemoon.sol\":31669:31678  uint256 i */\n      0x00\n        /* \"bitlime-periphery/contracts/Safemoon.sol\":31664:31991  for (uint256 i = 0; i < _excluded.length; i++) {\r... */\n    tag_217:\n        /* \"bitlime-periphery/contracts/Safemoon.sol\":31688:31697  _excluded */\n      0x08\n        /* \"bitlime-periphery/contracts/Safemoon.sol\":31688:31704  _excluded.length */\n      sload\n        /* \"bitlime-periphery/contracts/Safemoon.sol\":31684:31704  i < _excluded.length */\n      dup2\n      lt\n        /* \"bitlime-periphery/contracts/Safemoon.sol\":31664:31991  for (uint256 i = 0; i < _excluded.length; i++) {\r... */\n      iszero\n      tag_218\n      jumpi\n        /* \"bitlime-periphery/contracts/Safemoon.sol\":31746:31753  account */\n      dup2\n      sub(shl(0xa0, 0x01), 0x01)\n        /* \"bitlime-periphery/contracts/Safemoon.sol\":31730:31753  _excluded[i] == account */\n      and\n        /* \"bitlime-periphery/contracts/Safemoon.sol\":31730:31739  _excluded */\n      0x08\n        /* \"bitlime-periphery/contracts/Safemoon.sol\":31740:31741  i */\n      dup3\n        /* \"bitlime-periphery/contracts/Safemoon.sol\":31730:31742  _excluded[i] */\n      dup2\n      sload\n      dup2\n      lt\n      tag_220\n      jumpi\n      invalid\n    tag_220:\n      0x00\n      swap2\n      dup3\n      mstore\n      0x20\n      swap1\n      swap2\n      keccak256\n      add\n      sload\n      sub(shl(0xa0, 0x01), 0x01)\n      and\n        /* \"bitlime-periphery/contracts/Safemoon.sol\":31730:31753  _excluded[i] == account */\n      eq\n        /* \"bitlime-periphery/contracts/Safemoon.sol\":31726:31980  if (_excluded[i] == account) {\r... */\n      iszero\n      tag_222\n      jumpi\n        /* \"bitlime-periphery/contracts/Safemoon.sol\":31789:31798  _excluded */\n      0x08\n        /* \"bitlime-periphery/contracts/Safemoon.sol\":31799:31815  _excluded.length */\n      dup1\n      sload\n      not(0x00)\n        /* \"bitlime-periphery/contracts/Safemoon.sol\":31799:31819  _excluded.length - 1 */\n      dup2\n      add\n      swap1\n        /* \"bitlime-periphery/contracts/Safemoon.sol\":31789:31820  _excluded[_excluded.length - 1] */\n      dup2\n      lt\n      tag_223\n      jumpi\n      invalid\n    tag_223:\n      0x00\n      swap2\n      dup3\n      mstore\n      0x20\n      swap1\n      swap2\n      keccak256\n      add\n      sload\n        /* \"bitlime-periphery/contracts/Safemoon.sol\":31774:31783  _excluded */\n      0x08\n        /* \"bitlime-periphery/contracts/Safemoon.sol\":31774:31786  _excluded[i] */\n      dup1\n      sload\n      sub(shl(0xa0, 0x01), 0x01)\n        /* \"bitlime-periphery/contracts/Safemoon.sol\":31789:31820  _excluded[_excluded.length - 1] */\n      swap1\n      swap3\n      and\n      swap2\n        /* \"bitlime-periphery/contracts/Safemoon.sol\":31784:31785  i */\n      dup4\n      swap1\n        /* \"bitlime-periphery/contracts/Safemoon.sol\":31774:31786  _excluded[i] */\n      dup2\n      lt\n      tag_225\n      jumpi\n      invalid\n    tag_225:\n      0x00\n      swap2\n      dup3\n      mstore\n      0x20\n      dup1\n      dup4\n      keccak256\n      swap2\n      swap1\n      swap2\n      add\n        /* \"bitlime-periphery/contracts/Safemoon.sol\":31774:31820  _excluded[i] = _excluded[_excluded.length - 1] */\n      dup1\n      sload\n      not(sub(shl(0xa0, 0x01), 0x01))\n      and\n      sub(shl(0xa0, 0x01), 0x01)\n      swap5\n      dup6\n      and\n      or\n      swap1\n      sstore\n        /* \"bitlime-periphery/contracts/Safemoon.sol\":31839:31855  _tOwned[account] */\n      swap2\n      dup5\n      and\n      dup2\n      mstore\n        /* \"bitlime-periphery/contracts/Safemoon.sol\":31839:31846  _tOwned */\n      0x04\n        /* \"bitlime-periphery/contracts/Safemoon.sol\":31839:31855  _tOwned[account] */\n      dup3\n      mstore\n      0x40\n      dup1\n      dup3\n      keccak256\n        /* \"bitlime-periphery/contracts/Safemoon.sol\":31839:31859  _tOwned[account] = 0 */\n      dup3\n      swap1\n      sstore\n        /* \"bitlime-periphery/contracts/Safemoon.sol\":31878:31889  _isExcluded */\n      0x07\n        /* \"bitlime-periphery/contracts/Safemoon.sol\":31878:31898  _isExcluded[account] */\n      swap1\n      swap3\n      mstore\n      keccak256\n        /* \"bitlime-periphery/contracts/Safemoon.sol\":31878:31906  _isExcluded[account] = false */\n      dup1\n      sload\n      not(0xff)\n      and\n      swap1\n      sstore\n        /* \"bitlime-periphery/contracts/Safemoon.sol\":31925:31934  _excluded */\n      0x08\n        /* \"bitlime-periphery/contracts/Safemoon.sol\":31925:31940  _excluded.pop() */\n      dup1\n      sload\n      dup1\n      tag_227\n      jumpi\n      invalid\n    tag_227:\n      0x00\n      dup3\n      dup2\n      mstore\n      0x20\n      swap1\n      keccak256\n      dup2\n      add\n      not(0x00)\n      swap1\n      dup2\n      add\n      dup1\n      sload\n      not(sub(shl(0xa0, 0x01), 0x01))\n      and\n      swap1\n      sstore\n      add\n      swap1\n      sstore\n        /* \"bitlime-periphery/contracts/Safemoon.sol\":31959:31964  break */\n      jump(tag_218)\n        /* \"bitlime-periphery/contracts/Safemoon.sol\":31726:31980  if (_excluded[i] == account) {\r... */\n    tag_222:\n        /* \"bitlime-periphery/contracts/Safemoon.sol\":31706:31709  i++ */\n      0x01\n      add\n        /* \"bitlime-periphery/contracts/Safemoon.sol\":31664:31991  for (uint256 i = 0; i < _excluded.length; i++) {\r... */\n      jump(tag_217)\n    tag_218:\n      pop\n        /* \"bitlime-periphery/contracts/Safemoon.sol\":31519:31998  function includeInReward(address account) external onlyOwner() {\r... */\n      pop\n      jump\t// out\n        /* \"bitlime-periphery/contracts/Safemoon.sol\":29248:29466  function increaseAllowance(address spender, uint256 addedValue) public virtual returns (bool) {\r... */\n    tag_86:\n        /* \"bitlime-periphery/contracts/Safemoon.sol\":29336:29340  bool */\n      0x00\n        /* \"bitlime-periphery/contracts/Safemoon.sol\":29353:29436  _approve(_msgSender(), spender, _allowances[_msgSender()][spender].add(addedValue)) */\n      tag_192\n        /* \"bitlime-periphery/contracts/Safemoon.sol\":29362:29374  _msgSender() */\n      tag_231\n        /* \"bitlime-periphery/contracts/Safemoon.sol\":29362:29372  _msgSender */\n      tag_184\n        /* \"bitlime-periphery/contracts/Safemoon.sol\":29362:29374  _msgSender() */\n      jump\t// in\n    tag_231:\n        /* \"bitlime-periphery/contracts/Safemoon.sol\":29376:29383  spender */\n      dup5\n        /* \"bitlime-periphery/contracts/Safemoon.sol\":29385:29435  _allowances[_msgSender()][spender].add(addedValue) */\n      tag_202\n        /* \"bitlime-periphery/contracts/Safemoon.sol\":29424:29434  addedValue */\n      dup6\n        /* \"bitlime-periphery/contracts/Safemoon.sol\":29385:29396  _allowances */\n      0x05\n        /* \"bitlime-periphery/contracts/Safemoon.sol\":29385:29410  _allowances[_msgSender()] */\n      0x00\n        /* \"bitlime-periphery/contracts/Safemoon.sol\":29397:29409  _msgSender() */\n      tag_233\n        /* \"bitlime-periphery/contracts/Safemoon.sol\":29397:29407  _msgSender */\n      tag_184\n        /* \"bitlime-periphery/contracts/Safemoon.sol\":29397:29409  _msgSender() */\n      jump\t// in\n    tag_233:\n      sub(shl(0xa0, 0x01), 0x01)\n        /* \"bitlime-periphery/contracts/Safemoon.sol\":29385:29410  _allowances[_msgSender()] */\n      swap1\n      dup2\n      and\n      dup3\n      mstore\n      0x20\n      dup1\n      dup4\n      add\n      swap4\n      swap1\n      swap4\n      mstore\n      0x40\n      swap2\n      dup3\n      add\n      0x00\n      swap1\n      dup2\n      keccak256\n        /* \"bitlime-periphery/contracts/Safemoon.sol\":29385:29419  _allowances[_msgSender()][spender] */\n      swap2\n      dup13\n      and\n      dup2\n      mstore\n      swap3\n      mstore\n      swap1\n      keccak256\n      sload\n      swap1\n        /* \"bitlime-periphery/contracts/Safemoon.sol\":29385:29435  _allowances[_msgSender()][spender].add(addedValue) */\n      0xffffffff\n        /* \"bitlime-periphery/contracts/Safemoon.sol\":29385:29423  _allowances[_msgSender()][spender].add */\n      tag_234\n        /* \"bitlime-periphery/contracts/Safemoon.sol\":29385:29435  _allowances[_msgSender()][spender].add(addedValue) */\n      and\n      jump\t// in\n        /* \"bitlime-periphery/contracts/Safemoon.sol\":26725:26751  uint256 public _taxFee = 5 */\n    tag_89:\n      sload(0x0f)\n      dup2\n      jump\t// out\n        /* \"bitlime-periphery/contracts/Safemoon.sol\":29974:30351  function deliver(uint256 tAmount) public {\r... */\n    tag_93:\n        /* \"bitlime-periphery/contracts/Safemoon.sol\":30026:30040  address sender */\n      0x00\n        /* \"bitlime-periphery/contracts/Safemoon.sol\":30043:30055  _msgSender() */\n      tag_236\n        /* \"bitlime-periphery/contracts/Safemoon.sol\":30043:30053  _msgSender */\n      tag_184\n        /* \"bitlime-periphery/contracts/Safemoon.sol\":30043:30055  _msgSender() */\n      jump\t// in\n    tag_236:\n      sub(shl(0xa0, 0x01), 0x01)\n        /* \"bitlime-periphery/contracts/Safemoon.sol\":30075:30094  _isExcluded[sender] */\n      dup2\n      and\n      0x00\n      swap1\n      dup2\n      mstore\n        /* \"bitlime-periphery/contracts/Safemoon.sol\":30075:30086  _isExcluded */\n      0x07\n        /* \"bitlime-periphery/contracts/Safemoon.sol\":30075:30094  _isExcluded[sender] */\n      0x20\n      mstore\n      0x40\n      swap1\n      keccak256\n      sload\n        /* \"bitlime-periphery/contracts/Safemoon.sol\":30026:30055  address sender = _msgSender() */\n      swap1\n      swap2\n      pop\n        /* \"bitlime-periphery/contracts/Safemoon.sol\":30075:30094  _isExcluded[sender] */\n      0xff\n      and\n        /* \"bitlime-periphery/contracts/Safemoon.sol\":30074:30094  !_isExcluded[sender] */\n      iszero\n        /* \"bitlime-periphery/contracts/Safemoon.sol\":30066:30143  require(!_isExcluded[sender], \"Excluded addresses cannot call this function\") */\n      tag_237\n      jumpi\n      mload(0x40)\n      shl(0xe5, 0x461bcd)\n      dup2\n      mstore\n      0x04\n      add\n      dup1\n      dup1\n      0x20\n      add\n      dup3\n      dup2\n      sub\n      dup3\n      mstore\n      0x2c\n      dup2\n      mstore\n      0x20\n      add\n      dup1\n      data_ecefcaf5fbcf9ca6dcdb02298ba1da96f4ead317b0a4779917ecb2e5e7dc3ac4\n      0x2c\n      swap2\n      codecopy\n      0x40\n      add\n      swap2\n      pop\n      pop\n      mload(0x40)\n      dup1\n      swap2\n      sub\n      swap1\n      revert\n    tag_237:\n        /* \"bitlime-periphery/contracts/Safemoon.sol\":30155:30170  uint256 rAmount */\n      0x00\n        /* \"bitlime-periphery/contracts/Safemoon.sol\":30179:30198  _getValues(tAmount) */\n      tag_238\n        /* \"bitlime-periphery/contracts/Safemoon.sol\":30190:30197  tAmount */\n      dup4\n        /* \"bitlime-periphery/contracts/Safemoon.sol\":30179:30189  _getValues */\n      tag_239\n        /* \"bitlime-periphery/contracts/Safemoon.sol\":30179:30198  _getValues(tAmount) */\n      jump\t// in\n    tag_238:\n      pop\n      pop\n      pop\n      pop\n      sub(shl(0xa0, 0x01), 0x01)\n        /* \"bitlime-periphery/contracts/Safemoon.sol\":30227:30242  _rOwned[sender] */\n      dup5\n      and\n      0x00\n      swap1\n      dup2\n      mstore\n        /* \"bitlime-periphery/contracts/Safemoon.sol\":30227:30234  _rOwned */\n      0x03\n        /* \"bitlime-periphery/contracts/Safemoon.sol\":30227:30242  _rOwned[sender] */\n      0x20\n      mstore\n      0x40\n      swap1\n      keccak256\n      sload\n        /* \"bitlime-periphery/contracts/Safemoon.sol\":30154:30198  (uint256 rAmount,,,,,) = _getValues(tAmount) */\n      swap2\n      swap3\n      pop\n        /* \"bitlime-periphery/contracts/Safemoon.sol\":30227:30255  _rOwned[sender].sub(rAmount) */\n      tag_240\n      swap2\n        /* \"bitlime-periphery/contracts/Safemoon.sol\":30227:30242  _rOwned[sender] */\n      swap1\n      pop\n        /* \"bitlime-periphery/contracts/Safemoon.sol\":30154:30198  (uint256 rAmount,,,,,) = _getValues(tAmount) */\n      dup3\n        /* \"bitlime-periphery/contracts/Safemoon.sol\":30227:30246  _rOwned[sender].sub */\n      tag_241\n        /* \"bitlime-periphery/contracts/Safemoon.sol\":30227:30255  _rOwned[sender].sub(rAmount) */\n      jump\t// in\n    tag_240:\n      sub(shl(0xa0, 0x01), 0x01)\n        /* \"bitlime-periphery/contracts/Safemoon.sol\":30209:30224  _rOwned[sender] */\n      dup4\n      and\n      0x00\n      swap1\n      dup2\n      mstore\n        /* \"bitlime-periphery/contracts/Safemoon.sol\":30209:30216  _rOwned */\n      0x03\n        /* \"bitlime-periphery/contracts/Safemoon.sol\":30209:30224  _rOwned[sender] */\n      0x20\n      mstore\n      0x40\n      swap1\n      keccak256\n        /* \"bitlime-periphery/contracts/Safemoon.sol\":30209:30255  _rOwned[sender] = _rOwned[sender].sub(rAmount) */\n      sstore\n        /* \"bitlime-periphery/contracts/Safemoon.sol\":30276:30283  _rTotal */\n      sload(0x0a)\n        /* \"bitlime-periphery/contracts/Safemoon.sol\":30276:30296  _rTotal.sub(rAmount) */\n      tag_242\n      swap1\n        /* \"bitlime-periphery/contracts/Safemoon.sol\":30288:30295  rAmount */\n      dup3\n        /* \"bitlime-periphery/contracts/Safemoon.sol\":30276:30296  _rTotal.sub(rAmount) */\n      0xffffffff\n        /* \"bitlime-periphery/contracts/Safemoon.sol\":30276:30287  _rTotal.sub */\n      tag_241\n        /* \"bitlime-periphery/contracts/Safemoon.sol\":30276:30296  _rTotal.sub(rAmount) */\n      and\n      jump\t// in\n    tag_242:\n        /* \"bitlime-periphery/contracts/Safemoon.sol\":30266:30273  _rTotal */\n      0x0a\n        /* \"bitlime-periphery/contracts/Safemoon.sol\":30266:30296  _rTotal = _rTotal.sub(rAmount) */\n      sstore\n        /* \"bitlime-periphery/contracts/Safemoon.sol\":30320:30330  _tFeeTotal */\n      sload(0x0b)\n        /* \"bitlime-periphery/contracts/Safemoon.sol\":30320:30343  _tFeeTotal.add(tAmount) */\n      tag_243\n      swap1\n        /* \"bitlime-periphery/contracts/Safemoon.sol\":30335:30342  tAmount */\n      dup5\n        /* \"bitlime-periphery/contracts/Safemoon.sol\":30320:30343  _tFeeTotal.add(tAmount) */\n      0xffffffff\n        /* \"bitlime-periphery/contracts/Safemoon.sol\":30320:30334  _tFeeTotal.add */\n      tag_234\n        /* \"bitlime-periphery/contracts/Safemoon.sol\":30320:30343  _tFeeTotal.add(tAmount) */\n      and\n      jump\t// in\n    tag_243:\n        /* \"bitlime-periphery/contracts/Safemoon.sol\":30307:30317  _tFeeTotal */\n      0x0b\n        /* \"bitlime-periphery/contracts/Safemoon.sol\":30307:30343  _tFeeTotal = _tFeeTotal.add(tAmount) */\n      sstore\n      pop\n      pop\n      pop\n        /* \"bitlime-periphery/contracts/Safemoon.sol\":29974:30351  function deliver(uint256 tAmount) public {\r... */\n      jump\t// out\n        /* \"bitlime-periphery/contracts/Safemoon.sol\":32666:32777  function excludeFromFee(address account) public onlyOwner {\r... */\n    tag_97:\n        /* \"bitlime-periphery/contracts/Safemoon.sol\":16126:16138  _msgSender() */\n      tag_245\n        /* \"bitlime-periphery/contracts/Safemoon.sol\":16126:16136  _msgSender */\n      tag_184\n        /* \"bitlime-periphery/contracts/Safemoon.sol\":16126:16138  _msgSender() */\n      jump\t// in\n    tag_245:\n        /* \"bitlime-periphery/contracts/Safemoon.sol\":16116:16122  _owner */\n      sload(0x00)\n      sub(shl(0xa0, 0x01), 0x01)\n      swap1\n      dup2\n      and\n        /* \"bitlime-periphery/contracts/Safemoon.sol\":16116:16138  _owner == _msgSender() */\n      swap2\n      and\n      eq\n        /* \"bitlime-periphery/contracts/Safemoon.sol\":16108:16175  require(_owner == _msgSender(), \"Ownable: caller is not the owner\") */\n      tag_246\n      jumpi\n      0x40\n      dup1\n      mload\n      shl(0xe5, 0x461bcd)\n      dup2\n      mstore\n      0x20\n      0x04\n      dup3\n      add\n      dup2\n      swap1\n      mstore\n      0x24\n      dup3\n      add\n      mstore\n      0x00\n      dup1\n      mload\n      0x20\n      data_9924ebdf1add33d25d4ef888e16131f0a5687b0580a36c21b5c301a6c462effe\n      dup4\n      codecopy\n      dup2\n      mload\n      swap2\n      mstore\n      0x44\n      dup3\n      add\n      mstore\n      swap1\n      mload\n      swap1\n      dup2\n      swap1\n      sub\n      0x64\n      add\n      swap1\n      revert\n    tag_246:\n      sub(shl(0xa0, 0x01), 0x01)\n        /* \"bitlime-periphery/contracts/Safemoon.sol\":32735:32762  _isExcludedFromFee[account] */\n      and\n      0x00\n      swap1\n      dup2\n      mstore\n        /* \"bitlime-periphery/contracts/Safemoon.sol\":32735:32753  _isExcludedFromFee */\n      0x06\n        /* \"bitlime-periphery/contracts/Safemoon.sol\":32735:32762  _isExcludedFromFee[account] */\n      0x20\n      mstore\n      0x40\n      swap1\n      keccak256\n        /* \"bitlime-periphery/contracts/Safemoon.sol\":32735:32769  _isExcludedFromFee[account] = true */\n      dup1\n      sload\n      not(0xff)\n      and\n        /* \"bitlime-periphery/contracts/Safemoon.sol\":32765:32769  true */\n      0x01\n        /* \"bitlime-periphery/contracts/Safemoon.sol\":32735:32769  _isExcludedFromFee[account] = true */\n      or\n      swap1\n      sstore\n        /* \"bitlime-periphery/contracts/Safemoon.sol\":32666:32777  function excludeFromFee(address account) public onlyOwner {\r... */\n      jump\t// out\n        /* \"bitlime-periphery/contracts/Safemoon.sol\":30359:30795  function reflectionFromToken(uint256 tAmount, bool deductTransferFee) public view returns(uint256) {\r... */\n    tag_101:\n        /* \"bitlime-periphery/contracts/Safemoon.sol\":30449:30456  uint256 */\n      0x00\n        /* \"bitlime-periphery/contracts/Safemoon.sol\":30488:30495  _tTotal */\n      sload(0x09)\n        /* \"bitlime-periphery/contracts/Safemoon.sol\":30477:30484  tAmount */\n      dup4\n        /* \"bitlime-periphery/contracts/Safemoon.sol\":30477:30495  tAmount <= _tTotal */\n      gt\n      iszero\n        /* \"bitlime-periphery/contracts/Safemoon.sol\":30469:30531  require(tAmount <= _tTotal, \"Amount must be less than supply\") */\n      tag_249\n      jumpi\n      0x40\n      dup1\n      mload\n      shl(0xe5, 0x461bcd)\n      dup2\n      mstore\n      0x20\n      0x04\n      dup3\n      add\n      mstore\n      0x1f\n      0x24\n      dup3\n      add\n      mstore\n      0x416d6f756e74206d757374206265206c657373207468616e20737570706c7900\n      0x44\n      dup3\n      add\n      mstore\n      swap1\n      mload\n      swap1\n      dup2\n      swap1\n      sub\n      0x64\n      add\n      swap1\n      revert\n    tag_249:\n        /* \"bitlime-periphery/contracts/Safemoon.sol\":30547:30564  deductTransferFee */\n      dup2\n        /* \"bitlime-periphery/contracts/Safemoon.sol\":30542:30788  if (!deductTransferFee) {\r... */\n      tag_250\n      jumpi\n        /* \"bitlime-periphery/contracts/Safemoon.sol\":30582:30597  uint256 rAmount */\n      0x00\n        /* \"bitlime-periphery/contracts/Safemoon.sol\":30606:30625  _getValues(tAmount) */\n      tag_251\n        /* \"bitlime-periphery/contracts/Safemoon.sol\":30617:30624  tAmount */\n      dup5\n        /* \"bitlime-periphery/contracts/Safemoon.sol\":30606:30616  _getValues */\n      tag_239\n        /* \"bitlime-periphery/contracts/Safemoon.sol\":30606:30625  _getValues(tAmount) */\n      jump\t// in\n    tag_251:\n      pop\n        /* \"bitlime-periphery/contracts/Safemoon.sol\":30581:30625  (uint256 rAmount,,,,,) = _getValues(tAmount) */\n      swap4\n      swap6\n      pop\n        /* \"bitlime-periphery/contracts/Safemoon.sol\":30640:30654  return rAmount */\n      tag_191\n      swap5\n      pop\n      pop\n      pop\n      pop\n      pop\n      jump\n        /* \"bitlime-periphery/contracts/Safemoon.sol\":30542:30788  if (!deductTransferFee) {\r... */\n    tag_250:\n        /* \"bitlime-periphery/contracts/Safemoon.sol\":30689:30712  uint256 rTransferAmount */\n      0x00\n        /* \"bitlime-periphery/contracts/Safemoon.sol\":30720:30739  _getValues(tAmount) */\n      tag_253\n        /* \"bitlime-periphery/contracts/Safemoon.sol\":30731:30738  tAmount */\n      dup5\n        /* \"bitlime-periphery/contracts/Safemoon.sol\":30720:30730  _getValues */\n      tag_239\n        /* \"bitlime-periphery/contracts/Safemoon.sol\":30720:30739  _getValues(tAmount) */\n      jump\t// in\n    tag_253:\n      pop\n        /* \"bitlime-periphery/contracts/Safemoon.sol\":30687:30739  (,uint256 rTransferAmount,,,,) = _getValues(tAmount) */\n      swap3\n      swap6\n      pop\n        /* \"bitlime-periphery/contracts/Safemoon.sol\":30754:30776  return rTransferAmount */\n      tag_191\n      swap5\n      pop\n      pop\n      pop\n      pop\n      pop\n      jump\n        /* \"bitlime-periphery/contracts/Safemoon.sol\":26947:26987  bool public swapAndLiquifyEnabled = true */\n    tag_104:\n      sload(0x13)\n      0x0100\n      swap1\n      div\n      0xff\n      and\n      dup2\n      jump\t// out\n        /* \"bitlime-periphery/contracts/Safemoon.sol\":31064:31511  function excludeFromReward(address account) public onlyOwner() {\r... */\n    tag_108:\n        /* \"bitlime-periphery/contracts/Safemoon.sol\":16126:16138  _msgSender() */\n      tag_255\n        /* \"bitlime-periphery/contracts/Safemoon.sol\":16126:16136  _msgSender */\n      tag_184\n        /* \"bitlime-periphery/contracts/Safemoon.sol\":16126:16138  _msgSender() */\n      jump\t// in\n    tag_255:\n        /* \"bitlime-periphery/contracts/Safemoon.sol\":16116:16122  _owner */\n      sload(0x00)\n      sub(shl(0xa0, 0x01), 0x01)\n      swap1\n      dup2\n      and\n        /* \"bitlime-periphery/contracts/Safemoon.sol\":16116:16138  _owner == _msgSender() */\n      swap2\n      and\n      eq\n        /* \"bitlime-periphery/contracts/Safemoon.sol\":16108:16175  require(_owner == _msgSender(), \"Ownable: caller is not the owner\") */\n      tag_256\n      jumpi\n      0x40\n      dup1\n      mload\n      shl(0xe5, 0x461bcd)\n      dup2\n      mstore\n      0x20\n      0x04\n      dup3\n      add\n      dup2\n      swap1\n      mstore\n      0x24\n      dup3\n      add\n      mstore\n      0x00\n      dup1\n      mload\n      0x20\n      data_9924ebdf1add33d25d4ef888e16131f0a5687b0580a36c21b5c301a6c462effe\n      dup4\n      codecopy\n      dup2\n      mload\n      swap2\n      mstore\n      0x44\n      dup3\n      add\n      mstore\n      swap1\n      mload\n      swap1\n      dup2\n      swap1\n      sub\n      0x64\n      add\n      swap1\n      revert\n    tag_256:\n      sub(shl(0xa0, 0x01), 0x01)\n        /* \"bitlime-periphery/contracts/Safemoon.sol\":31261:31281  _isExcluded[account] */\n      dup2\n      and\n      0x00\n      swap1\n      dup2\n      mstore\n        /* \"bitlime-periphery/contracts/Safemoon.sol\":31261:31272  _isExcluded */\n      0x07\n        /* \"bitlime-periphery/contracts/Safemoon.sol\":31261:31281  _isExcluded[account] */\n      0x20\n      mstore\n      0x40\n      swap1\n      keccak256\n      sload\n      0xff\n      and\n        /* \"bitlime-periphery/contracts/Safemoon.sol\":31260:31281  !_isExcluded[account] */\n      iszero\n        /* \"bitlime-periphery/contracts/Safemoon.sol\":31252:31313  require(!_isExcluded[account], \"Account is already excluded\") */\n      tag_258\n      jumpi\n      0x40\n      dup1\n      mload\n      shl(0xe5, 0x461bcd)\n      dup2\n      mstore\n      0x20\n      0x04\n      dup3\n      add\n      mstore\n      0x1b\n      0x24\n      dup3\n      add\n      mstore\n      0x4163636f756e7420697320616c7265616479206578636c756465640000000000\n      0x44\n      dup3\n      add\n      mstore\n      swap1\n      mload\n      swap1\n      dup2\n      swap1\n      sub\n      0x64\n      add\n      swap1\n      revert\n    tag_258:\n      sub(shl(0xa0, 0x01), 0x01)\n        /* \"bitlime-periphery/contracts/Safemoon.sol\":31327:31343  _rOwned[account] */\n      dup2\n      and\n        /* \"bitlime-periphery/contracts/Safemoon.sol\":31346:31347  0 */\n      0x00\n        /* \"bitlime-periphery/contracts/Safemoon.sol\":31327:31343  _rOwned[account] */\n      swap1\n      dup2\n      mstore\n        /* \"bitlime-periphery/contracts/Safemoon.sol\":31327:31334  _rOwned */\n      0x03\n        /* \"bitlime-periphery/contracts/Safemoon.sol\":31327:31343  _rOwned[account] */\n      0x20\n      mstore\n      0x40\n      swap1\n      keccak256\n      sload\n        /* \"bitlime-periphery/contracts/Safemoon.sol\":31327:31347  _rOwned[account] > 0 */\n      iszero\n        /* \"bitlime-periphery/contracts/Safemoon.sol\":31324:31432  if(_rOwned[account] > 0) {\r... */\n      tag_259\n      jumpi\n      sub(shl(0xa0, 0x01), 0x01)\n        /* \"bitlime-periphery/contracts/Safemoon.sol\":31403:31419  _rOwned[account] */\n      dup2\n      and\n      0x00\n      swap1\n      dup2\n      mstore\n        /* \"bitlime-periphery/contracts/Safemoon.sol\":31403:31410  _rOwned */\n      0x03\n        /* \"bitlime-periphery/contracts/Safemoon.sol\":31403:31419  _rOwned[account] */\n      0x20\n      mstore\n      0x40\n      swap1\n      keccak256\n      sload\n        /* \"bitlime-periphery/contracts/Safemoon.sol\":31383:31420  tokenFromReflection(_rOwned[account]) */\n      tag_260\n      swap1\n        /* \"bitlime-periphery/contracts/Safemoon.sol\":31383:31402  tokenFromReflection */\n      tag_75\n        /* \"bitlime-periphery/contracts/Safemoon.sol\":31383:31420  tokenFromReflection(_rOwned[account]) */\n      jump\t// in\n    tag_260:\n      sub(shl(0xa0, 0x01), 0x01)\n        /* \"bitlime-periphery/contracts/Safemoon.sol\":31364:31380  _tOwned[account] */\n      dup3\n      and\n      0x00\n      swap1\n      dup2\n      mstore\n        /* \"bitlime-periphery/contracts/Safemoon.sol\":31364:31371  _tOwned */\n      0x04\n        /* \"bitlime-periphery/contracts/Safemoon.sol\":31364:31380  _tOwned[account] */\n      0x20\n      mstore\n      0x40\n      swap1\n      keccak256\n        /* \"bitlime-periphery/contracts/Safemoon.sol\":31364:31420  _tOwned[account] = tokenFromReflection(_rOwned[account]) */\n      sstore\n        /* \"bitlime-periphery/contracts/Safemoon.sol\":31324:31432  if(_rOwned[account] > 0) {\r... */\n    tag_259:\n      sub(shl(0xa0, 0x01), 0x01)\n        /* \"bitlime-periphery/contracts/Safemoon.sol\":31442:31462  _isExcluded[account] */\n      and\n      0x00\n      dup2\n      dup2\n      mstore\n        /* \"bitlime-periphery/contracts/Safemoon.sol\":31442:31453  _isExcluded */\n      0x07\n        /* \"bitlime-periphery/contracts/Safemoon.sol\":31442:31462  _isExcluded[account] */\n      0x20\n      mstore\n      0x40\n      dup2\n      keccak256\n        /* \"bitlime-periphery/contracts/Safemoon.sol\":31442:31469  _isExcluded[account] = true */\n      dup1\n      sload\n      not(0xff)\n      and\n        /* \"bitlime-periphery/contracts/Safemoon.sol\":31465:31469  true */\n      0x01\n        /* \"bitlime-periphery/contracts/Safemoon.sol\":31442:31469  _isExcluded[account] = true */\n      swap1\n      dup2\n      or\n      swap1\n      swap2\n      sstore\n        /* \"bitlime-periphery/contracts/Safemoon.sol\":31480:31489  _excluded */\n      0x08\n        /* \"--CODEGEN--\":27:37   */\n      dup1\n      sload\n        /* \"--CODEGEN--\":23:41   */\n      swap2\n      dup3\n      add\n        /* \"--CODEGEN--\":45:68   */\n      dup2\n      sstore\n        /* \"bitlime-periphery/contracts/Safemoon.sol\":31480:31503  _excluded.push(account) */\n      swap1\n      swap2\n      mstore\n      0xf3f7a9fe364faab93b216da50a3214154f22a0a2b415b23a84c8169e8b636ee3\n      add\n      dup1\n      sload\n      not(sub(shl(0xa0, 0x01), 0x01))\n      and\n      swap1\n      swap2\n      or\n      swap1\n      sstore\n        /* \"bitlime-periphery/contracts/Safemoon.sol\":31064:31511  function excludeFromReward(address account) public onlyOwner() {\r... */\n      jump\t// out\n        /* \"bitlime-periphery/contracts/Safemoon.sol\":36808:36931  function isExcludedFromFee(address account) public view returns(bool) {\r... */\n    tag_112:\n      sub(shl(0xa0, 0x01), 0x01)\n        /* \"bitlime-periphery/contracts/Safemoon.sol\":36896:36923  _isExcludedFromFee[account] */\n      and\n        /* \"bitlime-periphery/contracts/Safemoon.sol\":36872:36876  bool */\n      0x00\n        /* \"bitlime-periphery/contracts/Safemoon.sol\":36896:36923  _isExcludedFromFee[account] */\n      swap1\n      dup2\n      mstore\n        /* \"bitlime-periphery/contracts/Safemoon.sol\":36896:36914  _isExcludedFromFee */\n      0x06\n        /* \"bitlime-periphery/contracts/Safemoon.sol\":36896:36923  _isExcludedFromFee[account] */\n      0x20\n      mstore\n      0x40\n      swap1\n      keccak256\n      sload\n      0xff\n      and\n      swap1\n        /* \"bitlime-periphery/contracts/Safemoon.sol\":36808:36931  function isExcludedFromFee(address account) public view returns(bool) {\r... */\n      jump\t// out\n        /* \"bitlime-periphery/contracts/Safemoon.sol\":26812:26844  uint256 public _liquidityFee = 5 */\n    tag_115:\n      sload(0x11)\n      dup2\n      jump\t// out\n        /* \"bitlime-periphery/contracts/Safemoon.sol\":28226:28424  function balanceOf(address account) public view override returns (uint256) {\r... */\n    tag_119:\n      sub(shl(0xa0, 0x01), 0x01)\n        /* \"bitlime-periphery/contracts/Safemoon.sol\":28316:28336  _isExcluded[account] */\n      dup2\n      and\n        /* \"bitlime-periphery/contracts/Safemoon.sol\":28292:28299  uint256 */\n      0x00\n        /* \"bitlime-periphery/contracts/Safemoon.sol\":28316:28336  _isExcluded[account] */\n      swap1\n      dup2\n      mstore\n        /* \"bitlime-periphery/contracts/Safemoon.sol\":28316:28327  _isExcluded */\n      0x07\n        /* \"bitlime-periphery/contracts/Safemoon.sol\":28316:28336  _isExcluded[account] */\n      0x20\n      mstore\n      0x40\n      dup2\n      keccak256\n      sload\n      0xff\n      and\n        /* \"bitlime-periphery/contracts/Safemoon.sol\":28312:28361  if (_isExcluded[account]) return _tOwned[account] */\n      iszero\n      tag_264\n      jumpi\n      pop\n      sub(shl(0xa0, 0x01), 0x01)\n        /* \"bitlime-periphery/contracts/Safemoon.sol\":28345:28361  _tOwned[account] */\n      dup2\n      and\n      0x00\n      swap1\n      dup2\n      mstore\n        /* \"bitlime-periphery/contracts/Safemoon.sol\":28345:28352  _tOwned */\n      0x04\n        /* \"bitlime-periphery/contracts/Safemoon.sol\":28345:28361  _tOwned[account] */\n      0x20\n      mstore\n      0x40\n      swap1\n      keccak256\n      sload\n        /* \"bitlime-periphery/contracts/Safemoon.sol\":28338:28361  return _tOwned[account] */\n      jump(tag_205)\n        /* \"bitlime-periphery/contracts/Safemoon.sol\":28312:28361  if (_isExcluded[account]) return _tOwned[account] */\n    tag_264:\n      sub(shl(0xa0, 0x01), 0x01)\n        /* \"bitlime-periphery/contracts/Safemoon.sol\":28399:28415  _rOwned[account] */\n      dup3\n      and\n      0x00\n      swap1\n      dup2\n      mstore\n        /* \"bitlime-periphery/contracts/Safemoon.sol\":28399:28406  _rOwned */\n      0x03\n        /* \"bitlime-periphery/contracts/Safemoon.sol\":28399:28415  _rOwned[account] */\n      0x20\n      mstore\n      0x40\n      swap1\n      keccak256\n      sload\n        /* \"bitlime-periphery/contracts/Safemoon.sol\":28379:28416  tokenFromReflection(_rOwned[account]) */\n      tag_191\n      swap1\n        /* \"bitlime-periphery/contracts/Safemoon.sol\":28379:28398  tokenFromReflection */\n      tag_75\n        /* \"bitlime-periphery/contracts/Safemoon.sol\":28379:28416  tokenFromReflection(_rOwned[account]) */\n      jump\t// in\n        /* \"bitlime-periphery/contracts/Safemoon.sol\":16547:16695  function renounceOwnership() public virtual onlyOwner {\r... */\n    tag_122:\n        /* \"bitlime-periphery/contracts/Safemoon.sol\":16126:16138  _msgSender() */\n      tag_267\n        /* \"bitlime-periphery/contracts/Safemoon.sol\":16126:16136  _msgSender */\n      tag_184\n        /* \"bitlime-periphery/contracts/Safemoon.sol\":16126:16138  _msgSender() */\n      jump\t// in\n    tag_267:\n        /* \"bitlime-periphery/contracts/Safemoon.sol\":16116:16122  _owner */\n      sload(0x00)\n      sub(shl(0xa0, 0x01), 0x01)\n      swap1\n      dup2\n      and\n        /* \"bitlime-periphery/contracts/Safemoon.sol\":16116:16138  _owner == _msgSender() */\n      swap2\n      and\n      eq\n        /* \"bitlime-periphery/contracts/Safemoon.sol\":16108:16175  require(_owner == _msgSender(), \"Ownable: caller is not the owner\") */\n      tag_268\n      jumpi\n      0x40\n      dup1\n      mload\n      shl(0xe5, 0x461bcd)\n      dup2\n      mstore\n      0x20\n      0x04\n      dup3\n      add\n      dup2\n      swap1\n      mstore\n      0x24\n      dup3\n      add\n      mstore\n      0x00\n      dup1\n      mload\n      0x20\n      data_9924ebdf1add33d25d4ef888e16131f0a5687b0580a36c21b5c301a6c462effe\n      dup4\n      codecopy\n      dup2\n      mload\n      swap2\n      mstore\n      0x44\n      dup3\n      add\n      mstore\n      swap1\n      mload\n      swap1\n      dup2\n      swap1\n      sub\n      0x64\n      add\n      swap1\n      revert\n    tag_268:\n        /* \"bitlime-periphery/contracts/Safemoon.sol\":16654:16655  0 */\n      0x00\n        /* \"bitlime-periphery/contracts/Safemoon.sol\":16638:16644  _owner */\n      dup1\n      sload\n        /* \"bitlime-periphery/contracts/Safemoon.sol\":16617:16657  OwnershipTransferred(_owner, address(0)) */\n      mload(0x40)\n      sub(shl(0xa0, 0x01), 0x01)\n        /* \"bitlime-periphery/contracts/Safemoon.sol\":16638:16644  _owner */\n      swap1\n      swap2\n      and\n      swap1\n      0x00\n      dup1\n      mload\n      0x20\n      data_9c064737b570a74c2bac5d21056d93ac53115214216cd14d4a0fc9b60be81231\n      dup4\n      codecopy\n      dup2\n      mload\n      swap2\n      mstore\n        /* \"bitlime-periphery/contracts/Safemoon.sol\":16617:16657  OwnershipTransferred(_owner, address(0)) */\n      swap1\n        /* \"bitlime-periphery/contracts/Safemoon.sol\":16654:16655  0 */\n      dup4\n      swap1\n        /* \"bitlime-periphery/contracts/Safemoon.sol\":16617:16657  OwnershipTransferred(_owner, address(0)) */\n      log3\n        /* \"bitlime-periphery/contracts/Safemoon.sol\":16685:16686  0 */\n      0x00\n        /* \"bitlime-periphery/contracts/Safemoon.sol\":16668:16687  _owner = address(0) */\n      dup1\n      sload\n      not(sub(shl(0xa0, 0x01), 0x01))\n      and\n      swap1\n      sstore\n        /* \"bitlime-periphery/contracts/Safemoon.sol\":16547:16695  function renounceOwnership() public virtual onlyOwner {\r... */\n      jump\t// out\n        /* \"bitlime-periphery/contracts/Safemoon.sol\":27000:27053  uint256 public _maxTxAmount = 5000000 * 10**6 * 10**9 */\n    tag_125:\n      sload(0x14)\n      dup2\n      jump\t// out\n        /* \"bitlime-periphery/contracts/Safemoon.sol\":29751:29871  function isExcludedFromReward(address account) public view returns (bool) {\r... */\n    tag_129:\n      sub(shl(0xa0, 0x01), 0x01)\n        /* \"bitlime-periphery/contracts/Safemoon.sol\":29843:29863  _isExcluded[account] */\n      and\n        /* \"bitlime-periphery/contracts/Safemoon.sol\":29819:29823  bool */\n      0x00\n        /* \"bitlime-periphery/contracts/Safemoon.sol\":29843:29863  _isExcluded[account] */\n      swap1\n      dup2\n      mstore\n        /* \"bitlime-periphery/contracts/Safemoon.sol\":29843:29854  _isExcluded */\n      0x07\n        /* \"bitlime-periphery/contracts/Safemoon.sol\":29843:29863  _isExcluded[account] */\n      0x20\n      mstore\n      0x40\n      swap1\n      keccak256\n      sload\n      0xff\n      and\n      swap1\n        /* \"bitlime-periphery/contracts/Safemoon.sol\":29751:29871  function isExcludedFromReward(address account) public view returns (bool) {\r... */\n      jump\t// out\n        /* \"bitlime-periphery/contracts/Safemoon.sol\":15904:15983  function owner() public view returns (address) {\r... */\n    tag_132:\n        /* \"bitlime-periphery/contracts/Safemoon.sol\":15942:15949  address */\n      0x00\n        /* \"bitlime-periphery/contracts/Safemoon.sol\":15969:15975  _owner */\n      sload\n      sub(shl(0xa0, 0x01), 0x01)\n      and\n        /* \"bitlime-periphery/contracts/Safemoon.sol\":15904:15983  function owner() public view returns (address) {\r... */\n      swap1\n      jump\t// out\n        /* \"bitlime-periphery/contracts/Safemoon.sol\":33021:33143  function setLiquidityFeePercent(uint256 liquidityFee) external onlyOwner() {\r... */\n    tag_136:\n        /* \"bitlime-periphery/contracts/Safemoon.sol\":16126:16138  _msgSender() */\n      tag_273\n        /* \"bitlime-periphery/contracts/Safemoon.sol\":16126:16136  _msgSender */\n      tag_184\n        /* \"bitlime-periphery/contracts/Safemoon.sol\":16126:16138  _msgSender() */\n      jump\t// in\n    tag_273:\n        /* \"bitlime-periphery/contracts/Safemoon.sol\":16116:16122  _owner */\n      sload(0x00)\n      sub(shl(0xa0, 0x01), 0x01)\n      swap1\n      dup2\n      and\n        /* \"bitlime-periphery/contracts/Safemoon.sol\":16116:16138  _owner == _msgSender() */\n      swap2\n      and\n      eq\n        /* \"bitlime-periphery/contracts/Safemoon.sol\":16108:16175  require(_owner == _msgSender(), \"Ownable: caller is not the owner\") */\n      tag_274\n      jumpi\n      0x40\n      dup1\n      mload\n      shl(0xe5, 0x461bcd)\n      dup2\n      mstore\n      0x20\n      0x04\n      dup3\n      add\n      dup2\n      swap1\n      mstore\n      0x24\n      dup3\n      add\n      mstore\n      0x00\n      dup1\n      mload\n      0x20\n      data_9924ebdf1add33d25d4ef888e16131f0a5687b0580a36c21b5c301a6c462effe\n      dup4\n      codecopy\n      dup2\n      mload\n      swap2\n      mstore\n      0x44\n      dup3\n      add\n      mstore\n      swap1\n      mload\n      swap1\n      dup2\n      swap1\n      sub\n      0x64\n      add\n      swap1\n      revert\n    tag_274:\n        /* \"bitlime-periphery/contracts/Safemoon.sol\":33107:33120  _liquidityFee */\n      0x11\n        /* \"bitlime-periphery/contracts/Safemoon.sol\":33107:33135  _liquidityFee = liquidityFee */\n      sstore\n        /* \"bitlime-periphery/contracts/Safemoon.sol\":33021:33143  function setLiquidityFeePercent(uint256 liquidityFee) external onlyOwner() {\r... */\n      jump\t// out\n        /* \"bitlime-periphery/contracts/Safemoon.sol\":27937:28024  function symbol() public view returns (string memory) {\r... */\n    tag_139:\n        /* \"bitlime-periphery/contracts/Safemoon.sol\":28009:28016  _symbol */\n      0x0d\n        /* \"bitlime-periphery/contracts/Safemoon.sol\":28002:28016  return _symbol */\n      dup1\n      sload\n      0x40\n      dup1\n      mload\n      0x20\n      0x1f\n      0x02\n      not(0x00)\n      0x0100\n      0x01\n      dup9\n      and\n      iszero\n      mul\n      add\n      swap1\n      swap6\n      and\n      swap5\n      swap1\n      swap5\n      div\n      swap4\n      dup5\n      add\n      dup2\n      swap1\n      div\n      dup2\n      mul\n      dup3\n      add\n      dup2\n      add\n      swap1\n      swap3\n      mstore\n      dup3\n      dup2\n      mstore\n        /* \"bitlime-periphery/contracts/Safemoon.sol\":27976:27989  string memory */\n      0x60\n      swap4\n        /* \"bitlime-periphery/contracts/Safemoon.sol\":28002:28016  return _symbol */\n      swap1\n      swap3\n        /* \"bitlime-periphery/contracts/Safemoon.sol\":28009:28016  _symbol */\n      swap1\n      swap2\n        /* \"bitlime-periphery/contracts/Safemoon.sol\":28002:28016  return _symbol */\n      dup4\n      add\n        /* \"bitlime-periphery/contracts/Safemoon.sol\":28009:28016  _symbol */\n      dup3\n        /* \"bitlime-periphery/contracts/Safemoon.sol\":28002:28016  return _symbol */\n      dup3\n      dup1\n      iszero\n      tag_188\n      jumpi\n      dup1\n      0x1f\n      lt\n      tag_189\n      jumpi\n      0x0100\n      dup1\n      dup4\n      sload\n      div\n      mul\n      dup4\n      mstore\n      swap2\n      0x20\n      add\n      swap2\n      jump(tag_188)\n        /* \"bitlime-periphery/contracts/Safemoon.sol\":29474:29743  function decreaseAllowance(address spender, uint256 subtractedValue) public virtual returns (bool) {\r... */\n    tag_147:\n        /* \"bitlime-periphery/contracts/Safemoon.sol\":29567:29571  bool */\n      0x00\n        /* \"bitlime-periphery/contracts/Safemoon.sol\":29584:29713  _approve(_msgSender(), spender, _allowances[_msgSender()][spender].sub(subtractedValue, \"ERC20: decreased allowance below zero\")) */\n      tag_192\n        /* \"bitlime-periphery/contracts/Safemoon.sol\":29593:29605  _msgSender() */\n      tag_282\n        /* \"bitlime-periphery/contracts/Safemoon.sol\":29593:29603  _msgSender */\n      tag_184\n        /* \"bitlime-periphery/contracts/Safemoon.sol\":29593:29605  _msgSender() */\n      jump\t// in\n    tag_282:\n        /* \"bitlime-periphery/contracts/Safemoon.sol\":29607:29614  spender */\n      dup5\n        /* \"bitlime-periphery/contracts/Safemoon.sol\":29616:29712  _allowances[_msgSender()][spender].sub(subtractedValue, \"ERC20: decreased allowance below zero\") */\n      tag_202\n        /* \"bitlime-periphery/contracts/Safemoon.sol\":29655:29670  subtractedValue */\n      dup6\n        /* \"bitlime-periphery/contracts/Safemoon.sol\":29616:29712  _allowances[_msgSender()][spender].sub(subtractedValue, \"ERC20: decreased allowance below zero\") */\n      mload(0x40)\n      dup1\n      0x60\n      add\n      0x40\n      mstore\n      dup1\n      0x25\n      dup2\n      mstore\n      0x20\n      add\n      data_f8b476f7d28209d77d4a4ac1fe36b9f8259aa1bb6bddfa6e89de7e51615cf8a8\n      0x25\n      swap2\n      codecopy\n        /* \"bitlime-periphery/contracts/Safemoon.sol\":29616:29627  _allowances */\n      0x05\n        /* \"bitlime-periphery/contracts/Safemoon.sol\":29616:29641  _allowances[_msgSender()] */\n      0x00\n        /* \"bitlime-periphery/contracts/Safemoon.sol\":29628:29640  _msgSender() */\n      tag_284\n        /* \"bitlime-periphery/contracts/Safemoon.sol\":29628:29638  _msgSender */\n      tag_184\n        /* \"bitlime-periphery/contracts/Safemoon.sol\":29628:29640  _msgSender() */\n      jump\t// in\n    tag_284:\n      sub(shl(0xa0, 0x01), 0x01)\n        /* \"bitlime-periphery/contracts/Safemoon.sol\":29616:29641  _allowances[_msgSender()] */\n      swap1\n      dup2\n      and\n      dup3\n      mstore\n      0x20\n      dup1\n      dup4\n      add\n      swap4\n      swap1\n      swap4\n      mstore\n      0x40\n      swap2\n      dup3\n      add\n      0x00\n      swap1\n      dup2\n      keccak256\n        /* \"bitlime-periphery/contracts/Safemoon.sol\":29616:29650  _allowances[_msgSender()][spender] */\n      swap2\n      dup14\n      and\n      dup2\n      mstore\n      swap3\n      mstore\n      swap1\n      keccak256\n      sload\n      swap2\n        /* \"bitlime-periphery/contracts/Safemoon.sol\":29616:29712  _allowances[_msgSender()][spender].sub(subtractedValue, \"ERC20: decreased allowance below zero\") */\n      swap1\n      0xffffffff\n        /* \"bitlime-periphery/contracts/Safemoon.sol\":29616:29654  _allowances[_msgSender()][spender].sub */\n      tag_204\n        /* \"bitlime-periphery/contracts/Safemoon.sol\":29616:29712  _allowances[_msgSender()][spender].sub(subtractedValue, \"ERC20: decreased allowance below zero\") */\n      and\n      jump\t// in\n        /* \"bitlime-periphery/contracts/Safemoon.sol\":17557:17850  function unlock() public virtual {\r... */\n    tag_150:\n        /* \"bitlime-periphery/contracts/Safemoon.sol\":17609:17623  _previousOwner */\n      and(sub(shl(0xa0, 0x01), 0x01), sload(0x01))\n        /* \"bitlime-periphery/contracts/Safemoon.sol\":17627:17637  msg.sender */\n      caller\n        /* \"bitlime-periphery/contracts/Safemoon.sol\":17609:17637  _previousOwner == msg.sender */\n      eq\n        /* \"bitlime-periphery/contracts/Safemoon.sol\":17601:17677  require(_previousOwner == msg.sender, \"You don't have permission to unlock\") */\n      tag_286\n      jumpi\n      mload(0x40)\n      shl(0xe5, 0x461bcd)\n      dup2\n      mstore\n      0x04\n      add\n      dup1\n      dup1\n      0x20\n      add\n      dup3\n      dup2\n      sub\n      dup3\n      mstore\n      0x23\n      dup2\n      mstore\n      0x20\n      add\n      dup1\n      data_f4eb59be3df39931213d374c3658377dca3f0d2b46b7bc965af767c57c74b611\n      0x23\n      swap2\n      codecopy\n      0x40\n      add\n      swap2\n      pop\n      pop\n      mload(0x40)\n      dup1\n      swap2\n      sub\n      swap1\n      revert\n    tag_286:\n        /* \"bitlime-periphery/contracts/Safemoon.sol\":17702:17711  _lockTime */\n      sload(0x02)\n        /* \"bitlime-periphery/contracts/Safemoon.sol\":17696:17699  now */\n      timestamp\n        /* \"bitlime-periphery/contracts/Safemoon.sol\":17696:17711  now > _lockTime */\n      gt\n        /* \"bitlime-periphery/contracts/Safemoon.sol\":17688:17748  require(now > _lockTime , \"Contract is locked until 7 days\") */\n      tag_287\n      jumpi\n      0x40\n      dup1\n      mload\n      shl(0xe5, 0x461bcd)\n      dup2\n      mstore\n      0x20\n      0x04\n      dup3\n      add\n      mstore\n      0x1f\n      0x24\n      dup3\n      add\n      mstore\n      0x436f6e7472616374206973206c6f636b656420756e74696c2037206461797300\n      0x44\n      dup3\n      add\n      mstore\n      swap1\n      mload\n      swap1\n      dup2\n      swap1\n      sub\n      0x64\n      add\n      swap1\n      revert\n    tag_287:\n        /* \"bitlime-periphery/contracts/Safemoon.sol\":17793:17807  _previousOwner */\n      sload(0x01)\n      0x00\n        /* \"bitlime-periphery/contracts/Safemoon.sol\":17785:17791  _owner */\n      dup1\n      sload\n        /* \"bitlime-periphery/contracts/Safemoon.sol\":17764:17808  OwnershipTransferred(_owner, _previousOwner) */\n      mload(0x40)\n      sub(shl(0xa0, 0x01), 0x01)\n        /* \"bitlime-periphery/contracts/Safemoon.sol\":17793:17807  _previousOwner */\n      swap4\n      dup5\n      and\n      swap4\n        /* \"bitlime-periphery/contracts/Safemoon.sol\":17785:17791  _owner */\n      swap1\n      swap2\n      and\n      swap2\n      0x00\n      dup1\n      mload\n      0x20\n      data_9c064737b570a74c2bac5d21056d93ac53115214216cd14d4a0fc9b60be81231\n      dup4\n      codecopy\n      dup2\n      mload\n      swap2\n      mstore\n        /* \"bitlime-periphery/contracts/Safemoon.sol\":17764:17808  OwnershipTransferred(_owner, _previousOwner) */\n      swap2\n      log3\n        /* \"bitlime-periphery/contracts/Safemoon.sol\":17828:17842  _previousOwner */\n      sload(0x01)\n      0x00\n        /* \"bitlime-periphery/contracts/Safemoon.sol\":17819:17842  _owner = _previousOwner */\n      dup1\n      sload\n      not(sub(shl(0xa0, 0x01), 0x01))\n      and\n      sub(shl(0xa0, 0x01), 0x01)\n        /* \"bitlime-periphery/contracts/Safemoon.sol\":17828:17842  _previousOwner */\n      swap1\n      swap3\n      and\n        /* \"bitlime-periphery/contracts/Safemoon.sol\":17819:17842  _owner = _previousOwner */\n      swap2\n      swap1\n      swap2\n      or\n      swap1\n      sstore\n        /* \"bitlime-periphery/contracts/Safemoon.sol\":17557:17850  function unlock() public virtual {\r... */\n      jump\t// out\n        /* \"bitlime-periphery/contracts/Safemoon.sol\":28432:28599  function transfer(address recipient, uint256 amount) public override returns (bool) {\r... */\n    tag_154:\n        /* \"bitlime-periphery/contracts/Safemoon.sol\":28510:28514  bool */\n      0x00\n        /* \"bitlime-periphery/contracts/Safemoon.sol\":28527:28569  _transfer(_msgSender(), recipient, amount) */\n      tag_192\n        /* \"bitlime-periphery/contracts/Safemoon.sol\":28537:28549  _msgSender() */\n      tag_290\n        /* \"bitlime-periphery/contracts/Safemoon.sol\":28537:28547  _msgSender */\n      tag_184\n        /* \"bitlime-periphery/contracts/Safemoon.sol\":28537:28549  _msgSender() */\n      jump\t// in\n    tag_290:\n        /* \"bitlime-periphery/contracts/Safemoon.sol\":28551:28560  recipient */\n      dup5\n        /* \"bitlime-periphery/contracts/Safemoon.sol\":28562:28568  amount */\n      dup5\n        /* \"bitlime-periphery/contracts/Safemoon.sol\":28527:28536  _transfer */\n      tag_199\n        /* \"bitlime-periphery/contracts/Safemoon.sol\":28527:28569  _transfer(_msgSender(), recipient, amount) */\n      jump\t// in\n        /* \"bitlime-periphery/contracts/Safemoon.sol\":17102:17191  function geUnlockTime() public view returns (uint256) {\r... */\n    tag_157:\n        /* \"bitlime-periphery/contracts/Safemoon.sol\":17174:17183  _lockTime */\n      sload(0x02)\n        /* \"bitlime-periphery/contracts/Safemoon.sol\":17102:17191  function geUnlockTime() public view returns (uint256) {\r... */\n      swap1\n      jump\t// out\n        /* \"bitlime-periphery/contracts/Safemoon.sol\":33324:33495  function setSwapAndLiquifyEnabled(bool _enabled) public onlyOwner {\r... */\n    tag_161:\n        /* \"bitlime-periphery/contracts/Safemoon.sol\":16126:16138  _msgSender() */\n      tag_293\n        /* \"bitlime-periphery/contracts/Safemoon.sol\":16126:16136  _msgSender */\n      tag_184\n        /* \"bitlime-periphery/contracts/Safemoon.sol\":16126:16138  _msgSender() */\n      jump\t// in\n    tag_293:\n        /* \"bitlime-periphery/contracts/Safemoon.sol\":16116:16122  _owner */\n      sload(0x00)\n      sub(shl(0xa0, 0x01), 0x01)\n      swap1\n      dup2\n      and\n        /* \"bitlime-periphery/contracts/Safemoon.sol\":16116:16138  _owner == _msgSender() */\n      swap2\n      and\n      eq\n        /* \"bitlime-periphery/contracts/Safemoon.sol\":16108:16175  require(_owner == _msgSender(), \"Ownable: caller is not the owner\") */\n      tag_294\n      jumpi\n      0x40\n      dup1\n      mload\n      shl(0xe5, 0x461bcd)\n      dup2\n      mstore\n      0x20\n      0x04\n      dup3\n      add\n      dup2\n      swap1\n      mstore\n      0x24\n      dup3\n      add\n      mstore\n      0x00\n      dup1\n      mload\n      0x20\n      data_9924ebdf1add33d25d4ef888e16131f0a5687b0580a36c21b5c301a6c462effe\n      dup4\n      codecopy\n      dup2\n      mload\n      swap2\n      mstore\n      0x44\n      dup3\n      add\n      mstore\n      swap1\n      mload\n      swap1\n      dup2\n      swap1\n      sub\n      0x64\n      add\n      swap1\n      revert\n    tag_294:\n        /* \"bitlime-periphery/contracts/Safemoon.sol\":33401:33422  swapAndLiquifyEnabled */\n      0x13\n        /* \"bitlime-periphery/contracts/Safemoon.sol\":33401:33433  swapAndLiquifyEnabled = _enabled */\n      dup1\n      sload\n      dup3\n      iszero\n      iszero\n      0x0100\n      dup2\n      mul\n      not(0xff00)\n      swap1\n      swap3\n      and\n      swap2\n      swap1\n      swap2\n      or\n      swap1\n      swap2\n      sstore\n        /* \"bitlime-periphery/contracts/Safemoon.sol\":33449:33487  SwapAndLiquifyEnabledUpdated(_enabled) */\n      0x40\n      dup1\n      mload\n      swap2\n      dup3\n      mstore\n      mload\n      0x53726dfcaf90650aa7eb35524f4d3220f07413c8d6cb404cc8c18bf5591bc159\n      swap2\n      dup2\n      swap1\n      sub\n      0x20\n      add\n      swap1\n      log1\n        /* \"bitlime-periphery/contracts/Safemoon.sol\":33324:33495  function setSwapAndLiquifyEnabled(bool _enabled) public onlyOwner {\r... */\n      pop\n      jump\t// out\n        /* \"bitlime-periphery/contracts/Safemoon.sol\":33154:33316  function setMaxTxPercent(uint256 maxTxPercent) external onlyOwner() {\r... */\n    tag_165:\n        /* \"bitlime-periphery/contracts/Safemoon.sol\":16126:16138  _msgSender() */\n      tag_297\n        /* \"bitlime-periphery/contracts/Safemoon.sol\":16126:16136  _msgSender */\n      tag_184\n        /* \"bitlime-periphery/contracts/Safemoon.sol\":16126:16138  _msgSender() */\n      jump\t// in\n    tag_297:\n        /* \"bitlime-periphery/contracts/Safemoon.sol\":16116:16122  _owner */\n      sload(0x00)\n      sub(shl(0xa0, 0x01), 0x01)\n      swap1\n      dup2\n      and\n        /* \"bitlime-periphery/contracts/Safemoon.sol\":16116:16138  _owner == _msgSender() */\n      swap2\n      and\n      eq\n        /* \"bitlime-periphery/contracts/Safemoon.sol\":16108:16175  require(_owner == _msgSender(), \"Ownable: caller is not the owner\") */\n      tag_298\n      jumpi\n      0x40\n      dup1\n      mload\n      shl(0xe5, 0x461bcd)\n      dup2\n      mstore\n      0x20\n      0x04\n      dup3\n      add\n      dup2\n      swap1\n      mstore\n      0x24\n      dup3\n      add\n      mstore\n      0x00\n      dup1\n      mload\n      0x20\n      data_9924ebdf1add33d25d4ef888e16131f0a5687b0580a36c21b5c301a6c462effe\n      dup4\n      codecopy\n      dup2\n      mload\n      swap2\n      mstore\n      0x44\n      dup3\n      add\n      mstore\n      swap1\n      mload\n      swap1\n      dup2\n      swap1\n      sub\n      0x64\n      add\n      swap1\n      revert\n    tag_298:\n        /* \"bitlime-periphery/contracts/Safemoon.sol\":33248:33308  _tTotal.mul(maxTxPercent).div(\r... */\n      tag_300\n        /* \"bitlime-periphery/contracts/Safemoon.sol\":33292:33297  10**2 */\n      0x64\n        /* \"bitlime-periphery/contracts/Safemoon.sol\":33248:33273  _tTotal.mul(maxTxPercent) */\n      tag_301\n        /* \"bitlime-periphery/contracts/Safemoon.sol\":33260:33272  maxTxPercent */\n      dup4\n        /* \"bitlime-periphery/contracts/Safemoon.sol\":33248:33255  _tTotal */\n      sload(0x09)\n        /* \"bitlime-periphery/contracts/Safemoon.sol\":33248:33259  _tTotal.mul */\n      tag_302\n      swap1\n        /* \"bitlime-periphery/contracts/Safemoon.sol\":33248:33273  _tTotal.mul(maxTxPercent) */\n      swap2\n      swap1\n      0xffffffff\n      and\n      jump\t// in\n    tag_301:\n        /* \"bitlime-periphery/contracts/Safemoon.sol\":33248:33277  _tTotal.mul(maxTxPercent).div */\n      swap1\n        /* \"bitlime-periphery/contracts/Safemoon.sol\":33248:33308  _tTotal.mul(maxTxPercent).div(\r... */\n      0xffffffff\n        /* \"bitlime-periphery/contracts/Safemoon.sol\":33248:33277  _tTotal.mul(maxTxPercent).div */\n      tag_210\n        /* \"bitlime-periphery/contracts/Safemoon.sol\":33248:33308  _tTotal.mul(maxTxPercent).div(\r... */\n      and\n      jump\t// in\n    tag_300:\n        /* \"bitlime-periphery/contracts/Safemoon.sol\":33233:33245  _maxTxAmount */\n      0x14\n        /* \"bitlime-periphery/contracts/Safemoon.sol\":33233:33308  _maxTxAmount = _tTotal.mul(maxTxPercent).div(\r... */\n      sstore\n      pop\n        /* \"bitlime-periphery/contracts/Safemoon.sol\":33154:33316  function setMaxTxPercent(uint256 maxTxPercent) external onlyOwner() {\r... */\n      jump\t// out\n        /* \"bitlime-periphery/contracts/Safemoon.sol\":17267:17481  function lock(uint256 time) public virtual onlyOwner {\r... */\n    tag_169:\n        /* \"bitlime-periphery/contracts/Safemoon.sol\":16126:16138  _msgSender() */\n      tag_304\n        /* \"bitlime-periphery/contracts/Safemoon.sol\":16126:16136  _msgSender */\n      tag_184\n        /* \"bitlime-periphery/contracts/Safemoon.sol\":16126:16138  _msgSender() */\n      jump\t// in\n    tag_304:\n        /* \"bitlime-periphery/contracts/Safemoon.sol\":16116:16122  _owner */\n      sload(0x00)\n      sub(shl(0xa0, 0x01), 0x01)\n      swap1\n      dup2\n      and\n        /* \"bitlime-periphery/contracts/Safemoon.sol\":16116:16138  _owner == _msgSender() */\n      swap2\n      and\n      eq\n        /* \"bitlime-periphery/contracts/Safemoon.sol\":16108:16175  require(_owner == _msgSender(), \"Ownable: caller is not the owner\") */\n      tag_305\n      jumpi\n      0x40\n      dup1\n      mload\n      shl(0xe5, 0x461bcd)\n      dup2\n      mstore\n      0x20\n      0x04\n      dup3\n      add\n      dup2\n      swap1\n      mstore\n      0x24\n      dup3\n      add\n      mstore\n      0x00\n      dup1\n      mload\n      0x20\n      data_9924ebdf1add33d25d4ef888e16131f0a5687b0580a36c21b5c301a6c462effe\n      dup4\n      codecopy\n      dup2\n      mload\n      swap2\n      mstore\n      0x44\n      dup3\n      add\n      mstore\n      swap1\n      mload\n      swap1\n      dup2\n      swap1\n      sub\n      0x64\n      add\n      swap1\n      revert\n    tag_305:\n        /* \"bitlime-periphery/contracts/Safemoon.sol\":17348:17354  _owner */\n      0x00\n      dup1\n      sload\n      0x01\n        /* \"bitlime-periphery/contracts/Safemoon.sol\":17331:17354  _previousOwner = _owner */\n      dup1\n      sload\n      not(sub(shl(0xa0, 0x01), 0x01))\n      swap1\n      dup2\n      and\n      sub(shl(0xa0, 0x01), 0x01)\n        /* \"bitlime-periphery/contracts/Safemoon.sol\":17348:17354  _owner */\n      dup5\n      and\n        /* \"bitlime-periphery/contracts/Safemoon.sol\":17331:17354  _previousOwner = _owner */\n      or\n      swap1\n      swap2\n      sstore\n        /* \"bitlime-periphery/contracts/Safemoon.sol\":17365:17384  _owner = address(0) */\n      and\n      dup2\n      sstore\n        /* \"bitlime-periphery/contracts/Safemoon.sol\":17407:17410  now */\n      timestamp\n        /* \"bitlime-periphery/contracts/Safemoon.sol\":17407:17417  now + time */\n      dup3\n      add\n        /* \"bitlime-periphery/contracts/Safemoon.sol\":17395:17404  _lockTime */\n      0x02\n        /* \"bitlime-periphery/contracts/Safemoon.sol\":17395:17417  _lockTime = now + time */\n      sstore\n        /* \"bitlime-periphery/contracts/Safemoon.sol\":17433:17473  OwnershipTransferred(_owner, address(0)) */\n      mload(0x40)\n        /* \"bitlime-periphery/contracts/Safemoon.sol\":17348:17354  _owner */\n      dup2\n      swap1\n      0x00\n      dup1\n      mload\n      0x20\n      data_9c064737b570a74c2bac5d21056d93ac53115214216cd14d4a0fc9b60be81231\n      dup4\n      codecopy\n      dup2\n      mload\n      swap2\n      mstore\n        /* \"bitlime-periphery/contracts/Safemoon.sol\":17433:17473  OwnershipTransferred(_owner, address(0)) */\n      swap1\n        /* \"bitlime-periphery/contracts/Safemoon.sol\":17348:17354  _owner */\n      dup3\n      swap1\n        /* \"bitlime-periphery/contracts/Safemoon.sol\":17433:17473  OwnershipTransferred(_owner, address(0)) */\n      log3\n        /* \"bitlime-periphery/contracts/Safemoon.sol\":17267:17481  function lock(uint256 time) public virtual onlyOwner {\r... */\n      pop\n      jump\t// out\n        /* \"bitlime-periphery/contracts/Safemoon.sol\":28607:28750  function allowance(address owner, address spender) public view override returns (uint256) {\r... */\n    tag_173:\n      sub(shl(0xa0, 0x01), 0x01)\n        /* \"bitlime-periphery/contracts/Safemoon.sol\":28715:28733  _allowances[owner] */\n      swap2\n      dup3\n      and\n        /* \"bitlime-periphery/contracts/Safemoon.sol\":28688:28695  uint256 */\n      0x00\n        /* \"bitlime-periphery/contracts/Safemoon.sol\":28715:28733  _allowances[owner] */\n      swap1\n      dup2\n      mstore\n        /* \"bitlime-periphery/contracts/Safemoon.sol\":28715:28726  _allowances */\n      0x05\n        /* \"bitlime-periphery/contracts/Safemoon.sol\":28715:28733  _allowances[owner] */\n      0x20\n      swap1\n      dup2\n      mstore\n      0x40\n      dup1\n      dup4\n      keccak256\n        /* \"bitlime-periphery/contracts/Safemoon.sol\":28715:28742  _allowances[owner][spender] */\n      swap4\n      swap1\n      swap5\n      and\n      dup3\n      mstore\n      swap2\n      swap1\n      swap2\n      mstore\n      keccak256\n      sload\n      swap1\n        /* \"bitlime-periphery/contracts/Safemoon.sol\":28607:28750  function allowance(address owner, address spender) public view override returns (uint256) {\r... */\n      jump\t// out\n        /* \"bitlime-periphery/contracts/Safemoon.sol\":32789:32899  function includeInFee(address account) public onlyOwner {\r... */\n    tag_177:\n        /* \"bitlime-periphery/contracts/Safemoon.sol\":16126:16138  _msgSender() */\n      tag_309\n        /* \"bitlime-periphery/contracts/Safemoon.sol\":16126:16136  _msgSender */\n      tag_184\n        /* \"bitlime-periphery/contracts/Safemoon.sol\":16126:16138  _msgSender() */\n      jump\t// in\n    tag_309:\n        /* \"bitlime-periphery/contracts/Safemoon.sol\":16116:16122  _owner */\n      sload(0x00)\n      sub(shl(0xa0, 0x01), 0x01)\n      swap1\n      dup2\n      and\n        /* \"bitlime-periphery/contracts/Safemoon.sol\":16116:16138  _owner == _msgSender() */\n      swap2\n      and\n      eq\n        /* \"bitlime-periphery/contracts/Safemoon.sol\":16108:16175  require(_owner == _msgSender(), \"Ownable: caller is not the owner\") */\n      tag_310\n      jumpi\n      0x40\n      dup1\n      mload\n      shl(0xe5, 0x461bcd)\n      dup2\n      mstore\n      0x20\n      0x04\n      dup3\n      add\n      dup2\n      swap1\n      mstore\n      0x24\n      dup3\n      add\n      mstore\n      0x00\n      dup1\n      mload\n      0x20\n      data_9924ebdf1add33d25d4ef888e16131f0a5687b0580a36c21b5c301a6c462effe\n      dup4\n      codecopy\n      dup2\n      mload\n      swap2\n      mstore\n      0x44\n      dup3\n      add\n      mstore\n      swap1\n      mload\n      swap1\n      dup2\n      swap1\n      sub\n      0x64\n      add\n      swap1\n      revert\n    tag_310:\n      sub(shl(0xa0, 0x01), 0x01)\n        /* \"bitlime-periphery/contracts/Safemoon.sol\":32856:32883  _isExcludedFromFee[account] */\n      and\n        /* \"bitlime-periphery/contracts/Safemoon.sol\":32886:32891  false */\n      0x00\n        /* \"bitlime-periphery/contracts/Safemoon.sol\":32856:32883  _isExcludedFromFee[account] */\n      swap1\n      dup2\n      mstore\n        /* \"bitlime-periphery/contracts/Safemoon.sol\":32856:32874  _isExcludedFromFee */\n      0x06\n        /* \"bitlime-periphery/contracts/Safemoon.sol\":32856:32883  _isExcludedFromFee[account] */\n      0x20\n      mstore\n      0x40\n      swap1\n      keccak256\n        /* \"bitlime-periphery/contracts/Safemoon.sol\":32856:32891  _isExcludedFromFee[account] = false */\n      dup1\n      sload\n      not(0xff)\n      and\n      swap1\n      sstore\n        /* \"bitlime-periphery/contracts/Safemoon.sol\":32789:32899  function includeInFee(address account) public onlyOwner {\r... */\n      jump\t// out\n        /* \"bitlime-periphery/contracts/Safemoon.sol\":16850:17094  function transferOwnership(address newOwner) public virtual onlyOwner {\r... */\n    tag_181:\n        /* \"bitlime-periphery/contracts/Safemoon.sol\":16126:16138  _msgSender() */\n      tag_313\n        /* \"bitlime-periphery/contracts/Safemoon.sol\":16126:16136  _msgSender */\n      tag_184\n        /* \"bitlime-periphery/contracts/Safemoon.sol\":16126:16138  _msgSender() */\n      jump\t// in\n    tag_313:\n        /* \"bitlime-periphery/contracts/Safemoon.sol\":16116:16122  _owner */\n      sload(0x00)\n      sub(shl(0xa0, 0x01), 0x01)\n      swap1\n      dup2\n      and\n        /* \"bitlime-periphery/contracts/Safemoon.sol\":16116:16138  _owner == _msgSender() */\n      swap2\n      and\n      eq\n        /* \"bitlime-periphery/contracts/Safemoon.sol\":16108:16175  require(_owner == _msgSender(), \"Ownable: caller is not the owner\") */\n      tag_314\n      jumpi\n      0x40\n      dup1\n      mload\n      shl(0xe5, 0x461bcd)\n      dup2\n      mstore\n      0x20\n      0x04\n      dup3\n      add\n      dup2\n      swap1\n      mstore\n      0x24\n      dup3\n      add\n      mstore\n      0x00\n      dup1\n      mload\n      0x20\n      data_9924ebdf1add33d25d4ef888e16131f0a5687b0580a36c21b5c301a6c462effe\n      dup4\n      codecopy\n      dup2\n      mload\n      swap2\n      mstore\n      0x44\n      dup3\n      add\n      mstore\n      swap1\n      mload\n      swap1\n      dup2\n      swap1\n      sub\n      0x64\n      add\n      swap1\n      revert\n    tag_314:\n      sub(shl(0xa0, 0x01), 0x01)\n        /* \"bitlime-periphery/contracts/Safemoon.sol\":16939:16961  newOwner != address(0) */\n      dup2\n      and\n        /* \"bitlime-periphery/contracts/Safemoon.sol\":16931:17004  require(newOwner != address(0), \"Ownable: new owner is the zero address\") */\n      tag_316\n      jumpi\n      mload(0x40)\n      shl(0xe5, 0x461bcd)\n      dup2\n      mstore\n      0x04\n      add\n      dup1\n      dup1\n      0x20\n      add\n      dup3\n      dup2\n      sub\n      dup3\n      mstore\n      0x26\n      dup2\n      mstore\n      0x20\n      add\n      dup1\n      data_245f15ff17f551913a7a18385165551503906a406f905ac1c2437281a7cd0cfe\n      0x26\n      swap2\n      codecopy\n      0x40\n      add\n      swap2\n      pop\n      pop\n      mload(0x40)\n      dup1\n      swap2\n      sub\n      swap1\n      revert\n    tag_316:\n        /* \"bitlime-periphery/contracts/Safemoon.sol\":17041:17047  _owner */\n      0x00\n      dup1\n      sload\n        /* \"bitlime-periphery/contracts/Safemoon.sol\":17020:17058  OwnershipTransferred(_owner, newOwner) */\n      mload(0x40)\n      sub(shl(0xa0, 0x01), 0x01)\n      dup1\n      dup6\n      and\n      swap4\n        /* \"bitlime-periphery/contracts/Safemoon.sol\":17041:17047  _owner */\n      swap3\n      and\n      swap2\n      0x00\n      dup1\n      mload\n      0x20\n      data_9c064737b570a74c2bac5d21056d93ac53115214216cd14d4a0fc9b60be81231\n      dup4\n      codecopy\n      dup2\n      mload\n      swap2\n      mstore\n        /* \"bitlime-periphery/contracts/Safemoon.sol\":17020:17058  OwnershipTransferred(_owner, newOwner) */\n      swap2\n      log3\n        /* \"bitlime-periphery/contracts/Safemoon.sol\":17069:17075  _owner */\n      0x00\n        /* \"bitlime-periphery/contracts/Safemoon.sol\":17069:17086  _owner = newOwner */\n      dup1\n      sload\n      not(sub(shl(0xa0, 0x01), 0x01))\n      and\n      sub(shl(0xa0, 0x01), 0x01)\n      swap3\n      swap1\n      swap3\n      and\n      swap2\n      swap1\n      swap2\n      or\n      swap1\n      sstore\n        /* \"bitlime-periphery/contracts/Safemoon.sol\":16850:17094  function transferOwnership(address newOwner) public virtual onlyOwner {\r... */\n      jump\t// out\n        /* \"bitlime-periphery/contracts/Safemoon.sol\":8312:8418  function _msgSender() internal view virtual returns (address payable) {\r... */\n    tag_184:\n        /* \"bitlime-periphery/contracts/Safemoon.sol\":8400:8410  msg.sender */\n      caller\n        /* \"bitlime-periphery/contracts/Safemoon.sol\":8312:8418  function _msgSender() internal view virtual returns (address payable) {\r... */\n      swap1\n      jump\t// out\n        /* \"bitlime-periphery/contracts/Safemoon.sol\":36939:37276  function _approve(address owner, address spender, uint256 amount) private {\r... */\n    tag_194:\n      sub(shl(0xa0, 0x01), 0x01)\n        /* \"bitlime-periphery/contracts/Safemoon.sol\":37032:37051  owner != address(0) */\n      dup4\n      and\n        /* \"bitlime-periphery/contracts/Safemoon.sol\":37024:37092  require(owner != address(0), \"ERC20: approve from the zero address\") */\n      tag_319\n      jumpi\n      mload(0x40)\n      shl(0xe5, 0x461bcd)\n      dup2\n      mstore\n      0x04\n      add\n      dup1\n      dup1\n      0x20\n      add\n      dup3\n      dup2\n      sub\n      dup3\n      mstore\n      0x24\n      dup2\n      mstore\n      0x20\n      add\n      dup1\n      data_c953f4879035ed60e766b34720f656aab5c697b141d924c283124ecedb91c208\n      0x24\n      swap2\n      codecopy\n      0x40\n      add\n      swap2\n      pop\n      pop\n      mload(0x40)\n      dup1\n      swap2\n      sub\n      swap1\n      revert\n    tag_319:\n      sub(shl(0xa0, 0x01), 0x01)\n        /* \"bitlime-periphery/contracts/Safemoon.sol\":37111:37132  spender != address(0) */\n      dup3\n      and\n        /* \"bitlime-periphery/contracts/Safemoon.sol\":37103:37171  require(spender != address(0), \"ERC20: approve to the zero address\") */\n      tag_320\n      jumpi\n      mload(0x40)\n      shl(0xe5, 0x461bcd)\n      dup2\n      mstore\n      0x04\n      add\n      dup1\n      dup1\n      0x20\n      add\n      dup3\n      dup2\n      sub\n      dup3\n      mstore\n      0x22\n      dup2\n      mstore\n      0x20\n      add\n      dup1\n      data_24883cc5fe64ace9d0df1893501ecb93c77180f0ff69cca79affb3c316dc8029\n      0x22\n      swap2\n      codecopy\n      0x40\n      add\n      swap2\n      pop\n      pop\n      mload(0x40)\n      dup1\n      swap2\n      sub\n      swap1\n      revert\n    tag_320:\n      sub(shl(0xa0, 0x01), 0x01)\n        /* \"bitlime-periphery/contracts/Safemoon.sol\":37184:37202  _allowances[owner] */\n      dup1\n      dup5\n      and\n      0x00\n      dup2\n      dup2\n      mstore\n        /* \"bitlime-periphery/contracts/Safemoon.sol\":37184:37195  _allowances */\n      0x05\n        /* \"bitlime-periphery/contracts/Safemoon.sol\":37184:37202  _allowances[owner] */\n      0x20\n      swap1\n      dup2\n      mstore\n      0x40\n      dup1\n      dup4\n      keccak256\n        /* \"bitlime-periphery/contracts/Safemoon.sol\":37184:37211  _allowances[owner][spender] */\n      swap5\n      dup8\n      and\n      dup1\n      dup5\n      mstore\n      swap5\n      dup3\n      mstore\n      swap2\n      dup3\n      swap1\n      keccak256\n        /* \"bitlime-periphery/contracts/Safemoon.sol\":37184:37220  _allowances[owner][spender] = amount */\n      dup6\n      swap1\n      sstore\n        /* \"bitlime-periphery/contracts/Safemoon.sol\":37236:37268  Approval(owner, spender, amount) */\n      dup2\n      mload\n      dup6\n      dup2\n      mstore\n      swap2\n      mload\n      0x8c5be1e5ebec7d5bd14f71427d1e84f3dd0314c0f7b2291e5b200ac8c7c3b925\n      swap3\n      dup2\n      swap1\n      sub\n      swap1\n      swap2\n      add\n      swap1\n      log3\n        /* \"bitlime-periphery/contracts/Safemoon.sol\":36939:37276  function _approve(address owner, address spender, uint256 amount) private {\r... */\n      pop\n      pop\n      pop\n      jump\t// out\n        /* \"bitlime-periphery/contracts/Safemoon.sol\":37284:38979  function _transfer(\r... */\n    tag_199:\n      sub(shl(0xa0, 0x01), 0x01)\n        /* \"bitlime-periphery/contracts/Safemoon.sol\":37406:37424  from != address(0) */\n      dup4\n      and\n        /* \"bitlime-periphery/contracts/Safemoon.sol\":37398:37466  require(from != address(0), \"ERC20: transfer from the zero address\") */\n      tag_322\n      jumpi\n      mload(0x40)\n      shl(0xe5, 0x461bcd)\n      dup2\n      mstore\n      0x04\n      add\n      dup1\n      dup1\n      0x20\n      add\n      dup3\n      dup2\n      sub\n      dup3\n      mstore\n      0x25\n      dup2\n      mstore\n      0x20\n      add\n      dup1\n      data_baecc556b46f4ed0f2b4cb599d60785ac8563dd2dc0a5bf12edea1c39e5e1fea\n      0x25\n      swap2\n      codecopy\n      0x40\n      add\n      swap2\n      pop\n      pop\n      mload(0x40)\n      dup1\n      swap2\n      sub\n      swap1\n      revert\n    tag_322:\n      sub(shl(0xa0, 0x01), 0x01)\n        /* \"bitlime-periphery/contracts/Safemoon.sol\":37485:37501  to != address(0) */\n      dup3\n      and\n        /* \"bitlime-periphery/contracts/Safemoon.sol\":37477:37541  require(to != address(0), \"ERC20: transfer to the zero address\") */\n      tag_323\n      jumpi\n      mload(0x40)\n      shl(0xe5, 0x461bcd)\n      dup2\n      mstore\n      0x04\n      add\n      dup1\n      dup1\n      0x20\n      add\n      dup3\n      dup2\n      sub\n      dup3\n      mstore\n      0x23\n      dup2\n      mstore\n      0x20\n      add\n      dup1\n      data_0557e210f7a69a685100a7e4e3d0a7024c546085cee28910fd17d0b081d9516f\n      0x23\n      swap2\n      codecopy\n      0x40\n      add\n      swap2\n      pop\n      pop\n      mload(0x40)\n      dup1\n      swap2\n      sub\n      swap1\n      revert\n    tag_323:\n        /* \"bitlime-periphery/contracts/Safemoon.sol\":37569:37570  0 */\n      0x00\n        /* \"bitlime-periphery/contracts/Safemoon.sol\":37560:37566  amount */\n      dup2\n        /* \"bitlime-periphery/contracts/Safemoon.sol\":37560:37570  amount > 0 */\n      gt\n        /* \"bitlime-periphery/contracts/Safemoon.sol\":37552:37616  require(amount > 0, \"Transfer amount must be greater than zero\") */\n      tag_324\n      jumpi\n      mload(0x40)\n      shl(0xe5, 0x461bcd)\n      dup2\n      mstore\n      0x04\n      add\n      dup1\n      dup1\n      0x20\n      add\n      dup3\n      dup2\n      sub\n      dup3\n      mstore\n      0x29\n      dup2\n      mstore\n      0x20\n      add\n      dup1\n      data_9edb5ab58321f35d2386ea65721c9b107daa2c273610fc16d394af2a320ba785\n      0x29\n      swap2\n      codecopy\n      0x40\n      add\n      swap2\n      pop\n      pop\n      mload(0x40)\n      dup1\n      swap2\n      sub\n      swap1\n      revert\n    tag_324:\n        /* \"bitlime-periphery/contracts/Safemoon.sol\":37638:37645  owner() */\n      tag_325\n        /* \"bitlime-periphery/contracts/Safemoon.sol\":37638:37643  owner */\n      tag_132\n        /* \"bitlime-periphery/contracts/Safemoon.sol\":37638:37645  owner() */\n      jump\t// in\n    tag_325:\n      sub(shl(0xa0, 0x01), 0x01)\n        /* \"bitlime-periphery/contracts/Safemoon.sol\":37630:37645  from != owner() */\n      and\n        /* \"bitlime-periphery/contracts/Safemoon.sol\":37630:37634  from */\n      dup4\n      sub(shl(0xa0, 0x01), 0x01)\n        /* \"bitlime-periphery/contracts/Safemoon.sol\":37630:37645  from != owner() */\n      and\n      eq\n      iszero\n        /* \"bitlime-periphery/contracts/Safemoon.sol\":37630:37662  from != owner() && to != owner() */\n      dup1\n      iszero\n      tag_326\n      jumpi\n      pop\n        /* \"bitlime-periphery/contracts/Safemoon.sol\":37655:37662  owner() */\n      tag_327\n        /* \"bitlime-periphery/contracts/Safemoon.sol\":37655:37660  owner */\n      tag_132\n        /* \"bitlime-periphery/contracts/Safemoon.sol\":37655:37662  owner() */\n      jump\t// in\n    tag_327:\n      sub(shl(0xa0, 0x01), 0x01)\n        /* \"bitlime-periphery/contracts/Safemoon.sol\":37649:37662  to != owner() */\n      and\n        /* \"bitlime-periphery/contracts/Safemoon.sol\":37649:37651  to */\n      dup3\n      sub(shl(0xa0, 0x01), 0x01)\n        /* \"bitlime-periphery/contracts/Safemoon.sol\":37649:37662  to != owner() */\n      and\n      eq\n      iszero\n        /* \"bitlime-periphery/contracts/Safemoon.sol\":37630:37662  from != owner() && to != owner() */\n    tag_326:\n        /* \"bitlime-periphery/contracts/Safemoon.sol\":37627:37752  if(from != owner() && to != owner())\r... */\n      iszero\n      tag_329\n      jumpi\n        /* \"bitlime-periphery/contracts/Safemoon.sol\":37695:37707  _maxTxAmount */\n      sload(0x14)\n        /* \"bitlime-periphery/contracts/Safemoon.sol\":37685:37691  amount */\n      dup2\n        /* \"bitlime-periphery/contracts/Safemoon.sol\":37685:37707  amount <= _maxTxAmount */\n      gt\n      iszero\n        /* \"bitlime-periphery/contracts/Safemoon.sol\":37677:37752  require(amount <= _maxTxAmount, \"Transfer amount exceeds the maxTxAmount.\") */\n      tag_329\n      jumpi\n      mload(0x40)\n      shl(0xe5, 0x461bcd)\n      dup2\n      mstore\n      0x04\n      add\n      dup1\n      dup1\n      0x20\n      add\n      dup3\n      dup2\n      sub\n      dup3\n      mstore\n      0x28\n      dup2\n      mstore\n      0x20\n      add\n      dup1\n      data_72052210969ce5fd88e52b5e685de9548acef9bb1b6d02e29c1765d0674948dd\n      0x28\n      swap2\n      codecopy\n      0x40\n      add\n      swap2\n      pop\n      pop\n      mload(0x40)\n      dup1\n      swap2\n      sub\n      swap1\n      revert\n    tag_329:\n        /* \"bitlime-periphery/contracts/Safemoon.sol\":38047:38075  uint256 contractTokenBalance */\n      0x00\n        /* \"bitlime-periphery/contracts/Safemoon.sol\":38078:38102  balanceOf(address(this)) */\n      tag_330\n        /* \"bitlime-periphery/contracts/Safemoon.sol\":38096:38100  this */\n      address\n        /* \"bitlime-periphery/contracts/Safemoon.sol\":38078:38087  balanceOf */\n      tag_119\n        /* \"bitlime-periphery/contracts/Safemoon.sol\":38078:38102  balanceOf(address(this)) */\n      jump\t// in\n    tag_330:\n        /* \"bitlime-periphery/contracts/Safemoon.sol\":38047:38102  uint256 contractTokenBalance = balanceOf(address(this)) */\n      swap1\n      pop\n        /* \"bitlime-periphery/contracts/Safemoon.sol\":38150:38162  _maxTxAmount */\n      sload(0x14)\n        /* \"bitlime-periphery/contracts/Safemoon.sol\":38126:38146  contractTokenBalance */\n      dup2\n        /* \"bitlime-periphery/contracts/Safemoon.sol\":38126:38162  contractTokenBalance >= _maxTxAmount */\n      lt\n        /* \"bitlime-periphery/contracts/Safemoon.sol\":38123:38235  if(contractTokenBalance >= _maxTxAmount)\r... */\n      tag_331\n      jumpi\n      pop\n        /* \"bitlime-periphery/contracts/Safemoon.sol\":38211:38223  _maxTxAmount */\n      sload(0x14)\n        /* \"bitlime-periphery/contracts/Safemoon.sol\":38123:38235  if(contractTokenBalance >= _maxTxAmount)\r... */\n    tag_331:\n        /* \"bitlime-periphery/contracts/Safemoon.sol\":38306:38335  numTokensSellToAddToLiquidity */\n      sload(0x15)\n        /* \"bitlime-periphery/contracts/Safemoon.sol\":38282:38335  contractTokenBalance >= numTokensSellToAddToLiquidity */\n      dup2\n      lt\n      dup1\n      iszero\n      swap1\n      dup2\n      swap1\n        /* \"bitlime-periphery/contracts/Safemoon.sol\":38364:38417  overMinTokenBalance &&\r... */\n      tag_332\n      jumpi\n      pop\n        /* \"bitlime-periphery/contracts/Safemoon.sol\":38401:38417  inSwapAndLiquify */\n      and(0xff, sload(0x13))\n        /* \"bitlime-periphery/contracts/Safemoon.sol\":38400:38417  !inSwapAndLiquify */\n      iszero\n        /* \"bitlime-periphery/contracts/Safemoon.sol\":38364:38417  overMinTokenBalance &&\r... */\n    tag_332:\n        /* \"bitlime-periphery/contracts/Safemoon.sol\":38364:38455  overMinTokenBalance &&\r... */\n      dup1\n      iszero\n      tag_333\n      jumpi\n      pop\n        /* \"bitlime-periphery/contracts/Safemoon.sol\":38434:38455  swapAndLiquifyEnabled */\n      sload(0x13)\n      0x0100\n      swap1\n      div\n      0xff\n      and\n        /* \"bitlime-periphery/contracts/Safemoon.sol\":38364:38455  overMinTokenBalance &&\r... */\n    tag_333:\n        /* \"bitlime-periphery/contracts/Safemoon.sol\":38346:38546  if (\r... */\n      iszero\n      tag_334\n      jumpi\n        /* \"bitlime-periphery/contracts/Safemoon.sol\":38505:38534  numTokensSellToAddToLiquidity */\n      sload(0x15)\n        /* \"bitlime-periphery/contracts/Safemoon.sol\":38482:38534  contractTokenBalance = numTokensSellToAddToLiquidity */\n      swap2\n      pop\n        /* \"bitlime-periphery/contracts/Safemoon.sol\":38346:38546  if (\r... */\n    tag_334:\n      sub(shl(0xa0, 0x01), 0x01)\n        /* \"bitlime-periphery/contracts/Safemoon.sol\":38754:38778  _isExcludedFromFee[from] */\n      dup6\n      and\n        /* \"bitlime-periphery/contracts/Safemoon.sol\":38627:38639  bool takeFee */\n      0x00\n        /* \"bitlime-periphery/contracts/Safemoon.sol\":38754:38778  _isExcludedFromFee[from] */\n      swap1\n      dup2\n      mstore\n        /* \"bitlime-periphery/contracts/Safemoon.sol\":38754:38772  _isExcludedFromFee */\n      0x06\n        /* \"bitlime-periphery/contracts/Safemoon.sol\":38754:38778  _isExcludedFromFee[from] */\n      0x20\n      mstore\n      0x40\n      swap1\n      keccak256\n      sload\n        /* \"bitlime-periphery/contracts/Safemoon.sol\":38642:38646  true */\n      0x01\n      swap1\n        /* \"bitlime-periphery/contracts/Safemoon.sol\":38754:38778  _isExcludedFromFee[from] */\n      0xff\n      and\n      dup1\n        /* \"bitlime-periphery/contracts/Safemoon.sol\":38754:38804  _isExcludedFromFee[from] || _isExcludedFromFee[to] */\n      tag_335\n      jumpi\n      pop\n      sub(shl(0xa0, 0x01), 0x01)\n        /* \"bitlime-periphery/contracts/Safemoon.sol\":38782:38804  _isExcludedFromFee[to] */\n      dup6\n      and\n      0x00\n      swap1\n      dup2\n      mstore\n        /* \"bitlime-periphery/contracts/Safemoon.sol\":38782:38800  _isExcludedFromFee */\n      0x06\n        /* \"bitlime-periphery/contracts/Safemoon.sol\":38782:38804  _isExcludedFromFee[to] */\n      0x20\n      mstore\n      0x40\n      swap1\n      keccak256\n      sload\n      0xff\n      and\n        /* \"bitlime-periphery/contracts/Safemoon.sol\":38754:38804  _isExcludedFromFee[from] || _isExcludedFromFee[to] */\n    tag_335:\n        /* \"bitlime-periphery/contracts/Safemoon.sol\":38751:38847  if(_isExcludedFromFee[from] || _isExcludedFromFee[to]){\r... */\n      iszero\n      tag_336\n      jumpi\n      pop\n        /* \"bitlime-periphery/contracts/Safemoon.sol\":38830:38835  false */\n      0x00\n        /* \"bitlime-periphery/contracts/Safemoon.sol\":38751:38847  if(_isExcludedFromFee[from] || _isExcludedFromFee[to]){\r... */\n    tag_336:\n        /* \"bitlime-periphery/contracts/Safemoon.sol\":38933:38971  _tokenTransfer(from,to,amount,takeFee) */\n      tag_337\n        /* \"bitlime-periphery/contracts/Safemoon.sol\":38948:38952  from */\n      dup7\n        /* \"bitlime-periphery/contracts/Safemoon.sol\":38953:38955  to */\n      dup7\n        /* \"bitlime-periphery/contracts/Safemoon.sol\":38956:38962  amount */\n      dup7\n        /* \"bitlime-periphery/contracts/Safemoon.sol\":38963:38970  takeFee */\n      dup5\n        /* \"bitlime-periphery/contracts/Safemoon.sol\":38933:38947  _tokenTransfer */\n      tag_338\n        /* \"bitlime-periphery/contracts/Safemoon.sol\":38933:38971  _tokenTransfer(from,to,amount,takeFee) */\n      jump\t// in\n    tag_337:\n        /* \"bitlime-periphery/contracts/Safemoon.sol\":37284:38979  function _transfer(\r... */\n      pop\n      pop\n      pop\n      pop\n      pop\n      pop\n      jump\t// out\n        /* \"bitlime-periphery/contracts/Safemoon.sol\":4722:4914  function sub(uint256 a, uint256 b, string memory errorMessage) internal pure returns (uint256) {\r... */\n    tag_204:\n        /* \"bitlime-periphery/contracts/Safemoon.sol\":4808:4815  uint256 */\n      0x00\n        /* \"bitlime-periphery/contracts/Safemoon.sol\":4844:4856  errorMessage */\n      dup2\n        /* \"bitlime-periphery/contracts/Safemoon.sol\":4836:4842  b <= a */\n      dup5\n      dup5\n      gt\n      iszero\n        /* \"bitlime-periphery/contracts/Safemoon.sol\":4828:4857  require(b <= a, errorMessage) */\n      tag_340\n      jumpi\n      mload(0x40)\n      shl(0xe5, 0x461bcd)\n      dup2\n      mstore\n      0x04\n      add\n      dup1\n      dup1\n      0x20\n      add\n      dup3\n      dup2\n      sub\n      dup3\n      mstore\n      dup4\n      dup2\n      dup2\n      mload\n      dup2\n      mstore\n      0x20\n      add\n      swap2\n      pop\n      dup1\n      mload\n      swap1\n      0x20\n      add\n      swap1\n      dup1\n      dup4\n      dup4\n        /* \"--CODEGEN--\":23:24   */\n      0x00\n        /* \"--CODEGEN--\":8:108   */\n    tag_341:\n        /* \"--CODEGEN--\":33:36   */\n      dup4\n        /* \"--CODEGEN--\":30:31   */\n      dup2\n        /* \"--CODEGEN--\":27:37   */\n      lt\n        /* \"--CODEGEN--\":8:108   */\n      iszero\n      tag_343\n      jumpi\n        /* \"--CODEGEN--\":90:101   */\n      dup2\n      dup2\n      add\n        /* \"--CODEGEN--\":84:102   */\n      mload\n        /* \"--CODEGEN--\":71:82   */\n      dup4\n      dup3\n      add\n        /* \"--CODEGEN--\":64:103   */\n      mstore\n        /* \"--CODEGEN--\":52:54   */\n      0x20\n        /* \"--CODEGEN--\":45:55   */\n      add\n        /* \"--CODEGEN--\":8:108   */\n      jump(tag_341)\n    tag_343:\n        /* \"--CODEGEN--\":12:26   */\n      pop\n        /* \"bitlime-periphery/contracts/Safemoon.sol\":4828:4857  require(b <= a, errorMessage) */\n      pop\n      pop\n      pop\n      swap1\n      pop\n      swap1\n      dup2\n      add\n      swap1\n      0x1f\n      and\n      dup1\n      iszero\n      tag_344\n      jumpi\n      dup1\n      dup3\n      sub\n      dup1\n      mload\n      0x01\n      dup4\n      0x20\n      sub\n      0x0100\n      exp\n      sub\n      not\n      and\n      dup2\n      mstore\n      0x20\n      add\n      swap2\n      pop\n    tag_344:\n      pop\n      swap3\n      pop\n      pop\n      pop\n      mload(0x40)\n      dup1\n      swap2\n      sub\n      swap1\n      revert\n    tag_340:\n      pop\n      pop\n      pop\n        /* \"bitlime-periphery/contracts/Safemoon.sol\":4880:4885  a - b */\n      swap1\n      sub\n      swap1\n        /* \"bitlime-periphery/contracts/Safemoon.sol\":4722:4914  function sub(uint256 a, uint256 b, string memory errorMessage) internal pure returns (uint256) {\r... */\n      jump\t// out\n        /* \"bitlime-periphery/contracts/Safemoon.sol\":34958:35121  function _getRate() private view returns(uint256) {\r... */\n    tag_208:\n        /* \"bitlime-periphery/contracts/Safemoon.sol\":34999:35006  uint256 */\n      0x00\n        /* \"bitlime-periphery/contracts/Safemoon.sol\":35020:35035  uint256 rSupply */\n      dup1\n        /* \"bitlime-periphery/contracts/Safemoon.sol\":35037:35052  uint256 tSupply */\n      0x00\n        /* \"bitlime-periphery/contracts/Safemoon.sol\":35056:35075  _getCurrentSupply() */\n      tag_346\n        /* \"bitlime-periphery/contracts/Safemoon.sol\":35056:35073  _getCurrentSupply */\n      tag_347\n        /* \"bitlime-periphery/contracts/Safemoon.sol\":35056:35075  _getCurrentSupply() */\n      jump\t// in\n    tag_346:\n        /* \"bitlime-periphery/contracts/Safemoon.sol\":35019:35075  (uint256 rSupply, uint256 tSupply) = _getCurrentSupply() */\n      swap1\n      swap3\n      pop\n      swap1\n      pop\n        /* \"bitlime-periphery/contracts/Safemoon.sol\":35093:35113  rSupply.div(tSupply) */\n      tag_348\n        /* \"bitlime-periphery/contracts/Safemoon.sol\":35019:35075  (uint256 rSupply, uint256 tSupply) = _getCurrentSupply() */\n      dup3\n      dup3\n        /* \"bitlime-periphery/contracts/Safemoon.sol\":35093:35113  rSupply.div(tSupply) */\n      0xffffffff\n        /* \"bitlime-periphery/contracts/Safemoon.sol\":35093:35104  rSupply.div */\n      tag_210\n        /* \"bitlime-periphery/contracts/Safemoon.sol\":35093:35113  rSupply.div(tSupply) */\n      and\n      jump\t// in\n    tag_348:\n        /* \"bitlime-periphery/contracts/Safemoon.sol\":35086:35113  return rSupply.div(tSupply) */\n      swap3\n      pop\n      pop\n      pop\n        /* \"bitlime-periphery/contracts/Safemoon.sol\":34958:35121  function _getRate() private view returns(uint256) {\r... */\n      swap1\n      jump\t// out\n        /* \"bitlime-periphery/contracts/Safemoon.sol\":6120:6252  function div(uint256 a, uint256 b) internal pure returns (uint256) {\r... */\n    tag_210:\n        /* \"bitlime-periphery/contracts/Safemoon.sol\":6178:6185  uint256 */\n      0x00\n        /* \"bitlime-periphery/contracts/Safemoon.sol\":6205:6244  div(a, b, \"SafeMath: division by zero\") */\n      tag_350\n        /* \"bitlime-periphery/contracts/Safemoon.sol\":6209:6210  a */\n      dup4\n        /* \"bitlime-periphery/contracts/Safemoon.sol\":6212:6213  b */\n      dup4\n        /* \"bitlime-periphery/contracts/Safemoon.sol\":6205:6244  div(a, b, \"SafeMath: division by zero\") */\n      mload(0x40)\n      dup1\n      0x40\n      add\n      0x40\n      mstore\n      dup1\n      0x1a\n      dup2\n      mstore\n      0x20\n      add\n      0x536166654d6174683a206469766973696f6e206279207a65726f000000000000\n      dup2\n      mstore\n      pop\n        /* \"bitlime-periphery/contracts/Safemoon.sol\":6205:6208  div */\n      tag_351\n        /* \"bitlime-periphery/contracts/Safemoon.sol\":6205:6244  div(a, b, \"SafeMath: division by zero\") */\n      jump\t// in\n    tag_350:\n        /* \"bitlime-periphery/contracts/Safemoon.sol\":6198:6244  return div(a, b, \"SafeMath: division by zero\") */\n      swap4\n        /* \"bitlime-periphery/contracts/Safemoon.sol\":6120:6252  function div(uint256 a, uint256 b) internal pure returns (uint256) {\r... */\n      swap3\n      pop\n      pop\n      pop\n      jump\t// out\n        /* \"bitlime-periphery/contracts/Safemoon.sol\":3819:4000  function add(uint256 a, uint256 b) internal pure returns (uint256) {\r... */\n    tag_234:\n        /* \"bitlime-periphery/contracts/Safemoon.sol\":3877:3884  uint256 */\n      0x00\n        /* \"bitlime-periphery/contracts/Safemoon.sol\":3909:3914  a + b */\n      dup3\n      dup3\n      add\n        /* \"bitlime-periphery/contracts/Safemoon.sol\":3933:3939  c >= a */\n      dup4\n      dup2\n      lt\n      iszero\n        /* \"bitlime-periphery/contracts/Safemoon.sol\":3925:3971  require(c >= a, \"SafeMath: addition overflow\") */\n      tag_350\n      jumpi\n      0x40\n      dup1\n      mload\n      shl(0xe5, 0x461bcd)\n      dup2\n      mstore\n      0x20\n      0x04\n      dup3\n      add\n      mstore\n      0x1b\n      0x24\n      dup3\n      add\n      mstore\n      0x536166654d6174683a206164646974696f6e206f766572666c6f770000000000\n      0x44\n      dup3\n      add\n      mstore\n      swap1\n      mload\n      swap1\n      dup2\n      swap1\n      sub\n      0x64\n      add\n      swap1\n      revert\n        /* \"bitlime-periphery/contracts/Safemoon.sol\":33756:34175  function _getValues(uint256 tAmount) private view returns (uint256, uint256, uint256, uint256, uint256, uint256) {\r... */\n    tag_239:\n        /* \"bitlime-periphery/contracts/Safemoon.sol\":33815:33822  uint256 */\n      0x00\n        /* \"bitlime-periphery/contracts/Safemoon.sol\":33824:33831  uint256 */\n      dup1\n        /* \"bitlime-periphery/contracts/Safemoon.sol\":33833:33840  uint256 */\n      0x00\n        /* \"bitlime-periphery/contracts/Safemoon.sol\":33842:33849  uint256 */\n      dup1\n        /* \"bitlime-periphery/contracts/Safemoon.sol\":33851:33858  uint256 */\n      0x00\n        /* \"bitlime-periphery/contracts/Safemoon.sol\":33860:33867  uint256 */\n      dup1\n        /* \"bitlime-periphery/contracts/Safemoon.sol\":33881:33904  uint256 tTransferAmount */\n      0x00\n        /* \"bitlime-periphery/contracts/Safemoon.sol\":33906:33918  uint256 tFee */\n      dup1\n        /* \"bitlime-periphery/contracts/Safemoon.sol\":33920:33938  uint256 tLiquidity */\n      0x00\n        /* \"bitlime-periphery/contracts/Safemoon.sol\":33942:33962  _getTValues(tAmount) */\n      tag_355\n        /* \"bitlime-periphery/contracts/Safemoon.sol\":33954:33961  tAmount */\n      dup11\n        /* \"bitlime-periphery/contracts/Safemoon.sol\":33942:33953  _getTValues */\n      tag_356\n        /* \"bitlime-periphery/contracts/Safemoon.sol\":33942:33962  _getTValues(tAmount) */\n      jump\t// in\n    tag_355:\n        /* \"bitlime-periphery/contracts/Safemoon.sol\":33880:33962  (uint256 tTransferAmount, uint256 tFee, uint256 tLiquidity) = _getTValues(tAmount) */\n      swap3\n      pop\n      swap3\n      pop\n      swap3\n      pop\n        /* \"bitlime-periphery/contracts/Safemoon.sol\":33974:33989  uint256 rAmount */\n      0x00\n        /* \"bitlime-periphery/contracts/Safemoon.sol\":33991:34014  uint256 rTransferAmount */\n      dup1\n        /* \"bitlime-periphery/contracts/Safemoon.sol\":34016:34028  uint256 rFee */\n      0x00\n        /* \"bitlime-periphery/contracts/Safemoon.sol\":34032:34082  _getRValues(tAmount, tFee, tLiquidity, _getRate()) */\n      tag_357\n        /* \"bitlime-periphery/contracts/Safemoon.sol\":34044:34051  tAmount */\n      dup14\n        /* \"bitlime-periphery/contracts/Safemoon.sol\":34053:34057  tFee */\n      dup7\n        /* \"bitlime-periphery/contracts/Safemoon.sol\":34059:34069  tLiquidity */\n      dup7\n        /* \"bitlime-periphery/contracts/Safemoon.sol\":34071:34081  _getRate() */\n      tag_358\n        /* \"bitlime-periphery/contracts/Safemoon.sol\":34071:34079  _getRate */\n      tag_208\n        /* \"bitlime-periphery/contracts/Safemoon.sol\":34071:34081  _getRate() */\n      jump\t// in\n    tag_358:\n        /* \"bitlime-periphery/contracts/Safemoon.sol\":34032:34043  _getRValues */\n      tag_359\n        /* \"bitlime-periphery/contracts/Safemoon.sol\":34032:34082  _getRValues(tAmount, tFee, tLiquidity, _getRate()) */\n      jump\t// in\n    tag_357:\n        /* \"bitlime-periphery/contracts/Safemoon.sol\":33973:34082  (uint256 rAmount, uint256 rTransferAmount, uint256 rFee) = _getRValues(tAmount, tFee, tLiquidity, _getRate()) */\n      swap2\n      swap16\n      swap1\n      swap15\n      pop\n      swap1\n      swap13\n      pop\n        /* \"bitlime-periphery/contracts/Safemoon.sol\":34133:34148  tTransferAmount */\n      swap6\n      swap11\n      pop\n        /* \"bitlime-periphery/contracts/Safemoon.sol\":34150:34154  tFee */\n      swap4\n      swap9\n      pop\n        /* \"bitlime-periphery/contracts/Safemoon.sol\":34156:34166  tLiquidity */\n      swap2\n      swap7\n      pop\n        /* \"bitlime-periphery/contracts/Safemoon.sol\":33756:34175  function _getValues(uint256 tAmount) private view returns (uint256, uint256, uint256, uint256, uint256, uint256) {\r... */\n      swap3\n      swap5\n      pop\n      pop\n      pop\n      pop\n      pop\n      jump\t// out\n        /* \"bitlime-periphery/contracts/Safemoon.sol\":4283:4419  function sub(uint256 a, uint256 b) internal pure returns (uint256) {\r... */\n    tag_241:\n        /* \"bitlime-periphery/contracts/Safemoon.sol\":4341:4348  uint256 */\n      0x00\n        /* \"bitlime-periphery/contracts/Safemoon.sol\":4368:4411  sub(a, b, \"SafeMath: subtraction overflow\") */\n      tag_350\n        /* \"bitlime-periphery/contracts/Safemoon.sol\":4372:4373  a */\n      dup4\n        /* \"bitlime-periphery/contracts/Safemoon.sol\":4375:4376  b */\n      dup4\n        /* \"bitlime-periphery/contracts/Safemoon.sol\":4368:4411  sub(a, b, \"SafeMath: subtraction overflow\") */\n      mload(0x40)\n      dup1\n      0x40\n      add\n      0x40\n      mstore\n      dup1\n      0x1e\n      dup2\n      mstore\n      0x20\n      add\n      0x536166654d6174683a207375627472616374696f6e206f766572666c6f770000\n      dup2\n      mstore\n      pop\n        /* \"bitlime-periphery/contracts/Safemoon.sol\":4368:4371  sub */\n      tag_204\n        /* \"bitlime-periphery/contracts/Safemoon.sol\":4368:4411  sub(a, b, \"SafeMath: subtraction overflow\") */\n      jump\t// in\n        /* \"bitlime-periphery/contracts/Safemoon.sol\":5173:5644  function mul(uint256 a, uint256 b) internal pure returns (uint256) {\r... */\n    tag_302:\n        /* \"bitlime-periphery/contracts/Safemoon.sol\":5231:5238  uint256 */\n      0x00\n        /* \"bitlime-periphery/contracts/Safemoon.sol\":5476:5482  a == 0 */\n      dup3\n        /* \"bitlime-periphery/contracts/Safemoon.sol\":5472:5519  if (a == 0) {\r... */\n      tag_363\n      jumpi\n      pop\n        /* \"bitlime-periphery/contracts/Safemoon.sol\":5506:5507  0 */\n      0x00\n        /* \"bitlime-periphery/contracts/Safemoon.sol\":5499:5507  return 0 */\n      jump(tag_191)\n        /* \"bitlime-periphery/contracts/Safemoon.sol\":5472:5519  if (a == 0) {\r... */\n    tag_363:\n        /* \"bitlime-periphery/contracts/Safemoon.sol\":5543:5548  a * b */\n      dup3\n      dup3\n      mul\n        /* \"bitlime-periphery/contracts/Safemoon.sol\":5547:5548  b */\n      dup3\n        /* \"bitlime-periphery/contracts/Safemoon.sol\":5543:5544  a */\n      dup5\n        /* \"bitlime-periphery/contracts/Safemoon.sol\":5543:5548  a * b */\n      dup3\n        /* \"bitlime-periphery/contracts/Safemoon.sol\":5543:5544  a */\n      dup2\n        /* \"bitlime-periphery/contracts/Safemoon.sol\":5567:5572  c / a */\n      tag_364\n      jumpi\n      invalid\n    tag_364:\n      div\n        /* \"bitlime-periphery/contracts/Safemoon.sol\":5567:5577  c / a == b */\n      eq\n        /* \"bitlime-periphery/contracts/Safemoon.sol\":5559:5615  require(c / a == b, \"SafeMath: multiplication overflow\") */\n      tag_350\n      jumpi\n      mload(0x40)\n      shl(0xe5, 0x461bcd)\n      dup2\n      mstore\n      0x04\n      add\n      dup1\n      dup1\n      0x20\n      add\n      dup3\n      dup2\n      sub\n      dup3\n      mstore\n      0x21\n      dup2\n      mstore\n      0x20\n      add\n      dup1\n      data_9113bb53c2876a3805b2c9242029423fc540a728243ce887ab24c82cf119fba3\n      0x21\n      swap2\n      codecopy\n      0x40\n      add\n      swap2\n      pop\n      pop\n      mload(0x40)\n      dup1\n      swap2\n      sub\n      swap1\n      revert\n        /* \"bitlime-periphery/contracts/Safemoon.sol\":39064:39898  function _tokenTransfer(address sender, address recipient, uint256 amount,bool takeFee) private {\r... */\n    tag_338:\n        /* \"bitlime-periphery/contracts/Safemoon.sol\":39175:39182  takeFee */\n      dup1\n        /* \"bitlime-periphery/contracts/Safemoon.sol\":39171:39211  if(!takeFee)\r... */\n      tag_368\n      jumpi\n        /* \"bitlime-periphery/contracts/Safemoon.sol\":39197:39211  removeAllFee() */\n      tag_368\n        /* \"bitlime-periphery/contracts/Safemoon.sol\":39197:39209  removeAllFee */\n      tag_369\n        /* \"bitlime-periphery/contracts/Safemoon.sol\":39197:39211  removeAllFee() */\n      jump\t// in\n    tag_368:\n      sub(shl(0xa0, 0x01), 0x01)\n        /* \"bitlime-periphery/contracts/Safemoon.sol\":39236:39255  _isExcluded[sender] */\n      dup5\n      and\n      0x00\n      swap1\n      dup2\n      mstore\n        /* \"bitlime-periphery/contracts/Safemoon.sol\":39236:39247  _isExcluded */\n      0x07\n        /* \"bitlime-periphery/contracts/Safemoon.sol\":39236:39255  _isExcluded[sender] */\n      0x20\n      mstore\n      0x40\n      swap1\n      keccak256\n      sload\n      0xff\n      and\n        /* \"bitlime-periphery/contracts/Safemoon.sol\":39236:39282  _isExcluded[sender] && !_isExcluded[recipient] */\n      dup1\n      iszero\n      tag_370\n      jumpi\n      pop\n      sub(shl(0xa0, 0x01), 0x01)\n        /* \"bitlime-periphery/contracts/Safemoon.sol\":39260:39282  _isExcluded[recipient] */\n      dup4\n      and\n      0x00\n      swap1\n      dup2\n      mstore\n        /* \"bitlime-periphery/contracts/Safemoon.sol\":39260:39271  _isExcluded */\n      0x07\n        /* \"bitlime-periphery/contracts/Safemoon.sol\":39260:39282  _isExcluded[recipient] */\n      0x20\n      mstore\n      0x40\n      swap1\n      keccak256\n      sload\n      0xff\n      and\n        /* \"bitlime-periphery/contracts/Safemoon.sol\":39259:39282  !_isExcluded[recipient] */\n      iszero\n        /* \"bitlime-periphery/contracts/Safemoon.sol\":39236:39282  _isExcluded[sender] && !_isExcluded[recipient] */\n    tag_370:\n        /* \"bitlime-periphery/contracts/Safemoon.sol\":39232:39829  if (_isExcluded[sender] && !_isExcluded[recipient]) {\r... */\n      iszero\n      tag_371\n      jumpi\n        /* \"bitlime-periphery/contracts/Safemoon.sol\":39299:39347  _transferFromExcluded(sender, recipient, amount) */\n      tag_372\n        /* \"bitlime-periphery/contracts/Safemoon.sol\":39321:39327  sender */\n      dup5\n        /* \"bitlime-periphery/contracts/Safemoon.sol\":39329:39338  recipient */\n      dup5\n        /* \"bitlime-periphery/contracts/Safemoon.sol\":39340:39346  amount */\n      dup5\n        /* \"bitlime-periphery/contracts/Safemoon.sol\":39299:39320  _transferFromExcluded */\n      tag_373\n        /* \"bitlime-periphery/contracts/Safemoon.sol\":39299:39347  _transferFromExcluded(sender, recipient, amount) */\n      jump\t// in\n    tag_372:\n        /* \"bitlime-periphery/contracts/Safemoon.sol\":39232:39829  if (_isExcluded[sender] && !_isExcluded[recipient]) {\r... */\n      jump(tag_390)\n    tag_371:\n      sub(shl(0xa0, 0x01), 0x01)\n        /* \"bitlime-periphery/contracts/Safemoon.sol\":39370:39389  _isExcluded[sender] */\n      dup5\n      and\n      0x00\n      swap1\n      dup2\n      mstore\n        /* \"bitlime-periphery/contracts/Safemoon.sol\":39370:39381  _isExcluded */\n      0x07\n        /* \"bitlime-periphery/contracts/Safemoon.sol\":39370:39389  _isExcluded[sender] */\n      0x20\n      mstore\n      0x40\n      swap1\n      keccak256\n      sload\n      0xff\n      and\n        /* \"bitlime-periphery/contracts/Safemoon.sol\":39369:39389  !_isExcluded[sender] */\n      iszero\n        /* \"bitlime-periphery/contracts/Safemoon.sol\":39369:39415  !_isExcluded[sender] && _isExcluded[recipient] */\n      dup1\n      iszero\n      tag_375\n      jumpi\n      pop\n      sub(shl(0xa0, 0x01), 0x01)\n        /* \"bitlime-periphery/contracts/Safemoon.sol\":39393:39415  _isExcluded[recipient] */\n      dup4\n      and\n      0x00\n      swap1\n      dup2\n      mstore\n        /* \"bitlime-periphery/contracts/Safemoon.sol\":39393:39404  _isExcluded */\n      0x07\n        /* \"bitlime-periphery/contracts/Safemoon.sol\":39393:39415  _isExcluded[recipient] */\n      0x20\n      mstore\n      0x40\n      swap1\n      keccak256\n      sload\n      0xff\n      and\n        /* \"bitlime-periphery/contracts/Safemoon.sol\":39369:39415  !_isExcluded[sender] && _isExcluded[recipient] */\n    tag_375:\n        /* \"bitlime-periphery/contracts/Safemoon.sol\":39365:39829  if (!_isExcluded[sender] && _isExcluded[recipient]) {\r... */\n      iszero\n      tag_376\n      jumpi\n        /* \"bitlime-periphery/contracts/Safemoon.sol\":39432:39478  _transferToExcluded(sender, recipient, amount) */\n      tag_372\n        /* \"bitlime-periphery/contracts/Safemoon.sol\":39452:39458  sender */\n      dup5\n        /* \"bitlime-periphery/contracts/Safemoon.sol\":39460:39469  recipient */\n      dup5\n        /* \"bitlime-periphery/contracts/Safemoon.sol\":39471:39477  amount */\n      dup5\n        /* \"bitlime-periphery/contracts/Safemoon.sol\":39432:39451  _transferToExcluded */\n      tag_378\n        /* \"bitlime-periphery/contracts/Safemoon.sol\":39432:39478  _transferToExcluded(sender, recipient, amount) */\n      jump\t// in\n        /* \"bitlime-periphery/contracts/Safemoon.sol\":39365:39829  if (!_isExcluded[sender] && _isExcluded[recipient]) {\r... */\n    tag_376:\n      sub(shl(0xa0, 0x01), 0x01)\n        /* \"bitlime-periphery/contracts/Safemoon.sol\":39501:39520  _isExcluded[sender] */\n      dup5\n      and\n      0x00\n      swap1\n      dup2\n      mstore\n        /* \"bitlime-periphery/contracts/Safemoon.sol\":39501:39512  _isExcluded */\n      0x07\n        /* \"bitlime-periphery/contracts/Safemoon.sol\":39501:39520  _isExcluded[sender] */\n      0x20\n      mstore\n      0x40\n      swap1\n      keccak256\n      sload\n      0xff\n      and\n        /* \"bitlime-periphery/contracts/Safemoon.sol\":39500:39520  !_isExcluded[sender] */\n      iszero\n        /* \"bitlime-periphery/contracts/Safemoon.sol\":39500:39547  !_isExcluded[sender] && !_isExcluded[recipient] */\n      dup1\n      iszero\n      tag_380\n      jumpi\n      pop\n      sub(shl(0xa0, 0x01), 0x01)\n        /* \"bitlime-periphery/contracts/Safemoon.sol\":39525:39547  _isExcluded[recipient] */\n      dup4\n      and\n      0x00\n      swap1\n      dup2\n      mstore\n        /* \"bitlime-periphery/contracts/Safemoon.sol\":39525:39536  _isExcluded */\n      0x07\n        /* \"bitlime-periphery/contracts/Safemoon.sol\":39525:39547  _isExcluded[recipient] */\n      0x20\n      mstore\n      0x40\n      swap1\n      keccak256\n      sload\n      0xff\n      and\n        /* \"bitlime-periphery/contracts/Safemoon.sol\":39524:39547  !_isExcluded[recipient] */\n      iszero\n        /* \"bitlime-periphery/contracts/Safemoon.sol\":39500:39547  !_isExcluded[sender] && !_isExcluded[recipient] */\n    tag_380:\n        /* \"bitlime-periphery/contracts/Safemoon.sol\":39496:39829  if (!_isExcluded[sender] && !_isExcluded[recipient]) {\r... */\n      iszero\n      tag_381\n      jumpi\n        /* \"bitlime-periphery/contracts/Safemoon.sol\":39564:39608  _transferStandard(sender, recipient, amount) */\n      tag_372\n        /* \"bitlime-periphery/contracts/Safemoon.sol\":39582:39588  sender */\n      dup5\n        /* \"bitlime-periphery/contracts/Safemoon.sol\":39590:39599  recipient */\n      dup5\n        /* \"bitlime-periphery/contracts/Safemoon.sol\":39601:39607  amount */\n      dup5\n        /* \"bitlime-periphery/contracts/Safemoon.sol\":39564:39581  _transferStandard */\n      tag_383\n        /* \"bitlime-periphery/contracts/Safemoon.sol\":39564:39608  _transferStandard(sender, recipient, amount) */\n      jump\t// in\n        /* \"bitlime-periphery/contracts/Safemoon.sol\":39496:39829  if (!_isExcluded[sender] && !_isExcluded[recipient]) {\r... */\n    tag_381:\n      sub(shl(0xa0, 0x01), 0x01)\n        /* \"bitlime-periphery/contracts/Safemoon.sol\":39630:39649  _isExcluded[sender] */\n      dup5\n      and\n      0x00\n      swap1\n      dup2\n      mstore\n        /* \"bitlime-periphery/contracts/Safemoon.sol\":39630:39641  _isExcluded */\n      0x07\n        /* \"bitlime-periphery/contracts/Safemoon.sol\":39630:39649  _isExcluded[sender] */\n      0x20\n      mstore\n      0x40\n      swap1\n      keccak256\n      sload\n      0xff\n      and\n        /* \"bitlime-periphery/contracts/Safemoon.sol\":39630:39675  _isExcluded[sender] && _isExcluded[recipient] */\n      dup1\n      iszero\n      tag_385\n      jumpi\n      pop\n      sub(shl(0xa0, 0x01), 0x01)\n        /* \"bitlime-periphery/contracts/Safemoon.sol\":39653:39675  _isExcluded[recipient] */\n      dup4\n      and\n      0x00\n      swap1\n      dup2\n      mstore\n        /* \"bitlime-periphery/contracts/Safemoon.sol\":39653:39664  _isExcluded */\n      0x07\n        /* \"bitlime-periphery/contracts/Safemoon.sol\":39653:39675  _isExcluded[recipient] */\n      0x20\n      mstore\n      0x40\n      swap1\n      keccak256\n      sload\n      0xff\n      and\n        /* \"bitlime-periphery/contracts/Safemoon.sol\":39630:39675  _isExcluded[sender] && _isExcluded[recipient] */\n    tag_385:\n        /* \"bitlime-periphery/contracts/Safemoon.sol\":39626:39829  if (_isExcluded[sender] && _isExcluded[recipient]) {\r... */\n      iszero\n      tag_386\n      jumpi\n        /* \"bitlime-periphery/contracts/Safemoon.sol\":39692:39740  _transferBothExcluded(sender, recipient, amount) */\n      tag_372\n        /* \"bitlime-periphery/contracts/Safemoon.sol\":39714:39720  sender */\n      dup5\n        /* \"bitlime-periphery/contracts/Safemoon.sol\":39722:39731  recipient */\n      dup5\n        /* \"bitlime-periphery/contracts/Safemoon.sol\":39733:39739  amount */\n      dup5\n        /* \"bitlime-periphery/contracts/Safemoon.sol\":39692:39713  _transferBothExcluded */\n      tag_388\n        /* \"bitlime-periphery/contracts/Safemoon.sol\":39692:39740  _transferBothExcluded(sender, recipient, amount) */\n      jump\t// in\n        /* \"bitlime-periphery/contracts/Safemoon.sol\":39626:39829  if (_isExcluded[sender] && _isExcluded[recipient]) {\r... */\n    tag_386:\n        /* \"bitlime-periphery/contracts/Safemoon.sol\":39773:39817  _transferStandard(sender, recipient, amount) */\n      tag_390\n        /* \"bitlime-periphery/contracts/Safemoon.sol\":39791:39797  sender */\n      dup5\n        /* \"bitlime-periphery/contracts/Safemoon.sol\":39799:39808  recipient */\n      dup5\n        /* \"bitlime-periphery/contracts/Safemoon.sol\":39810:39816  amount */\n      dup5\n        /* \"bitlime-periphery/contracts/Safemoon.sol\":39773:39790  _transferStandard */\n      tag_383\n        /* \"bitlime-periphery/contracts/Safemoon.sol\":39773:39817  _transferStandard(sender, recipient, amount) */\n      jump\t// in\n    tag_390:\n        /* \"bitlime-periphery/contracts/Safemoon.sol\":39853:39860  takeFee */\n      dup1\n        /* \"bitlime-periphery/contracts/Safemoon.sol\":39849:39890  if(!takeFee)\r... */\n      tag_392\n      jumpi\n        /* \"bitlime-periphery/contracts/Safemoon.sol\":39875:39890  restoreAllFee() */\n      tag_392\n        /* \"bitlime-periphery/contracts/Safemoon.sol\":39875:39888  restoreAllFee */\n      tag_393\n        /* \"bitlime-periphery/contracts/Safemoon.sol\":39875:39890  restoreAllFee() */\n      jump\t// in\n    tag_392:\n        /* \"bitlime-periphery/contracts/Safemoon.sol\":39064:39898  function _tokenTransfer(address sender, address recipient, uint256 amount,bool takeFee) private {\r... */\n      pop\n      pop\n      pop\n      pop\n      jump\t// out\n        /* \"bitlime-periphery/contracts/Safemoon.sol\":35129:35690  function _getCurrentSupply() private view returns(uint256, uint256) {\r... */\n    tag_347:\n        /* \"bitlime-periphery/contracts/Safemoon.sol\":35226:35233  _rTotal */\n      sload(0x0a)\n        /* \"bitlime-periphery/contracts/Safemoon.sol\":35262:35269  _tTotal */\n      sload(0x09)\n        /* \"bitlime-periphery/contracts/Safemoon.sol\":35179:35186  uint256 */\n      0x00\n      swap2\n      dup3\n      swap2\n      dup3\n        /* \"bitlime-periphery/contracts/Safemoon.sol\":35286:35575  for (uint256 i = 0; i < _excluded.length; i++) {\r... */\n    tag_395:\n        /* \"bitlime-periphery/contracts/Safemoon.sol\":35310:35319  _excluded */\n      0x08\n        /* \"bitlime-periphery/contracts/Safemoon.sol\":35310:35326  _excluded.length */\n      sload\n        /* \"bitlime-periphery/contracts/Safemoon.sol\":35306:35326  i < _excluded.length */\n      dup2\n      lt\n        /* \"bitlime-periphery/contracts/Safemoon.sol\":35286:35575  for (uint256 i = 0; i < _excluded.length; i++) {\r... */\n      iszero\n      tag_396\n      jumpi\n        /* \"bitlime-periphery/contracts/Safemoon.sol\":35376:35383  rSupply */\n      dup3\n        /* \"bitlime-periphery/contracts/Safemoon.sol\":35352:35359  _rOwned */\n      0x03\n        /* \"bitlime-periphery/contracts/Safemoon.sol\":35352:35373  _rOwned[_excluded[i]] */\n      0x00\n        /* \"bitlime-periphery/contracts/Safemoon.sol\":35360:35369  _excluded */\n      0x08\n        /* \"bitlime-periphery/contracts/Safemoon.sol\":35370:35371  i */\n      dup5\n        /* \"bitlime-periphery/contracts/Safemoon.sol\":35360:35372  _excluded[i] */\n      dup2\n      sload\n      dup2\n      lt\n      tag_398\n      jumpi\n      invalid\n    tag_398:\n      0x00\n      swap2\n      dup3\n      mstore\n      0x20\n      dup1\n      dup4\n      keccak256\n      swap1\n      swap2\n      add\n      sload\n      sub(shl(0xa0, 0x01), 0x01)\n      and\n        /* \"bitlime-periphery/contracts/Safemoon.sol\":35352:35373  _rOwned[_excluded[i]] */\n      dup4\n      mstore\n      dup3\n      add\n      swap3\n      swap1\n      swap3\n      mstore\n      0x40\n      add\n      swap1\n      keccak256\n      sload\n        /* \"bitlime-periphery/contracts/Safemoon.sol\":35352:35383  _rOwned[_excluded[i]] > rSupply */\n      gt\n      dup1\n        /* \"bitlime-periphery/contracts/Safemoon.sol\":35352:35418  _rOwned[_excluded[i]] > rSupply || _tOwned[_excluded[i]] > tSupply */\n      tag_400\n      jumpi\n      pop\n        /* \"bitlime-periphery/contracts/Safemoon.sol\":35411:35418  tSupply */\n      dup2\n        /* \"bitlime-periphery/contracts/Safemoon.sol\":35387:35394  _tOwned */\n      0x04\n        /* \"bitlime-periphery/contracts/Safemoon.sol\":35387:35408  _tOwned[_excluded[i]] */\n      0x00\n        /* \"bitlime-periphery/contracts/Safemoon.sol\":35395:35404  _excluded */\n      0x08\n        /* \"bitlime-periphery/contracts/Safemoon.sol\":35405:35406  i */\n      dup5\n        /* \"bitlime-periphery/contracts/Safemoon.sol\":35395:35407  _excluded[i] */\n      dup2\n      sload\n      dup2\n      lt\n      tag_401\n      jumpi\n      invalid\n    tag_401:\n      0x00\n      swap2\n      dup3\n      mstore\n      0x20\n      dup1\n      dup4\n      keccak256\n      swap1\n      swap2\n      add\n      sload\n      sub(shl(0xa0, 0x01), 0x01)\n      and\n        /* \"bitlime-periphery/contracts/Safemoon.sol\":35387:35408  _tOwned[_excluded[i]] */\n      dup4\n      mstore\n      dup3\n      add\n      swap3\n      swap1\n      swap3\n      mstore\n      0x40\n      add\n      swap1\n      keccak256\n      sload\n        /* \"bitlime-periphery/contracts/Safemoon.sol\":35387:35418  _tOwned[_excluded[i]] > tSupply */\n      gt\n        /* \"bitlime-periphery/contracts/Safemoon.sol\":35352:35418  _rOwned[_excluded[i]] > rSupply || _tOwned[_excluded[i]] > tSupply */\n    tag_400:\n        /* \"bitlime-periphery/contracts/Safemoon.sol\":35348:35445  if (_rOwned[_excluded[i]] > rSupply || _tOwned[_excluded[i]] > tSupply) return (_rTotal, _tTotal) */\n      iszero\n      tag_403\n      jumpi\n        /* \"bitlime-periphery/contracts/Safemoon.sol\":35428:35435  _rTotal */\n      sload(0x0a)\n        /* \"bitlime-periphery/contracts/Safemoon.sol\":35437:35444  _tTotal */\n      sload(0x09)\n        /* \"bitlime-periphery/contracts/Safemoon.sol\":35420:35445  return (_rTotal, _tTotal) */\n      swap5\n      pop\n      swap5\n      pop\n      pop\n      pop\n      pop\n      jump(tag_394)\n        /* \"bitlime-periphery/contracts/Safemoon.sol\":35348:35445  if (_rOwned[_excluded[i]] > rSupply || _tOwned[_excluded[i]] > tSupply) return (_rTotal, _tTotal) */\n    tag_403:\n        /* \"bitlime-periphery/contracts/Safemoon.sol\":35470:35504  rSupply.sub(_rOwned[_excluded[i]]) */\n      tag_404\n        /* \"bitlime-periphery/contracts/Safemoon.sol\":35482:35489  _rOwned */\n      0x03\n        /* \"bitlime-periphery/contracts/Safemoon.sol\":35482:35503  _rOwned[_excluded[i]] */\n      0x00\n        /* \"bitlime-periphery/contracts/Safemoon.sol\":35490:35499  _excluded */\n      0x08\n        /* \"bitlime-periphery/contracts/Safemoon.sol\":35500:35501  i */\n      dup5\n        /* \"bitlime-periphery/contracts/Safemoon.sol\":35490:35502  _excluded[i] */\n      dup2\n      sload\n      dup2\n      lt\n      tag_405\n      jumpi\n      invalid\n    tag_405:\n      0x00\n      swap2\n      dup3\n      mstore\n      0x20\n      dup1\n      dup4\n      keccak256\n      swap1\n      swap2\n      add\n      sload\n      sub(shl(0xa0, 0x01), 0x01)\n      and\n        /* \"bitlime-periphery/contracts/Safemoon.sol\":35482:35503  _rOwned[_excluded[i]] */\n      dup4\n      mstore\n      dup3\n      add\n      swap3\n      swap1\n      swap3\n      mstore\n      0x40\n      add\n      swap1\n      keccak256\n      sload\n        /* \"bitlime-periphery/contracts/Safemoon.sol\":35470:35477  rSupply */\n      dup5\n      swap1\n        /* \"bitlime-periphery/contracts/Safemoon.sol\":35470:35504  rSupply.sub(_rOwned[_excluded[i]]) */\n      0xffffffff\n        /* \"bitlime-periphery/contracts/Safemoon.sol\":35470:35481  rSupply.sub */\n      tag_241\n        /* \"bitlime-periphery/contracts/Safemoon.sol\":35470:35504  rSupply.sub(_rOwned[_excluded[i]]) */\n      and\n      jump\t// in\n    tag_404:\n        /* \"bitlime-periphery/contracts/Safemoon.sol\":35460:35504  rSupply = rSupply.sub(_rOwned[_excluded[i]]) */\n      swap3\n      pop\n        /* \"bitlime-periphery/contracts/Safemoon.sol\":35529:35563  tSupply.sub(_tOwned[_excluded[i]]) */\n      tag_407\n        /* \"bitlime-periphery/contracts/Safemoon.sol\":35541:35548  _tOwned */\n      0x04\n        /* \"bitlime-periphery/contracts/Safemoon.sol\":35541:35562  _tOwned[_excluded[i]] */\n      0x00\n        /* \"bitlime-periphery/contracts/Safemoon.sol\":35549:35558  _excluded */\n      0x08\n        /* \"bitlime-periphery/contracts/Safemoon.sol\":35559:35560  i */\n      dup5\n        /* \"bitlime-periphery/contracts/Safemoon.sol\":35549:35561  _excluded[i] */\n      dup2\n      sload\n      dup2\n      lt\n      tag_408\n      jumpi\n      invalid\n    tag_408:\n      0x00\n      swap2\n      dup3\n      mstore\n      0x20\n      dup1\n      dup4\n      keccak256\n      swap1\n      swap2\n      add\n      sload\n      sub(shl(0xa0, 0x01), 0x01)\n      and\n        /* \"bitlime-periphery/contracts/Safemoon.sol\":35541:35562  _tOwned[_excluded[i]] */\n      dup4\n      mstore\n      dup3\n      add\n      swap3\n      swap1\n      swap3\n      mstore\n      0x40\n      add\n      swap1\n      keccak256\n      sload\n        /* \"bitlime-periphery/contracts/Safemoon.sol\":35529:35536  tSupply */\n      dup4\n      swap1\n        /* \"bitlime-periphery/contracts/Safemoon.sol\":35529:35563  tSupply.sub(_tOwned[_excluded[i]]) */\n      0xffffffff\n        /* \"bitlime-periphery/contracts/Safemoon.sol\":35529:35540  tSupply.sub */\n      tag_241\n        /* \"bitlime-periphery/contracts/Safemoon.sol\":35529:35563  tSupply.sub(_tOwned[_excluded[i]]) */\n      and\n      jump\t// in\n    tag_407:\n        /* \"bitlime-periphery/contracts/Safemoon.sol\":35519:35563  tSupply = tSupply.sub(_tOwned[_excluded[i]]) */\n      swap2\n      pop\n        /* \"bitlime-periphery/contracts/Safemoon.sol\":35328:35331  i++ */\n      0x01\n      add\n        /* \"bitlime-periphery/contracts/Safemoon.sol\":35286:35575  for (uint256 i = 0; i < _excluded.length; i++) {\r... */\n      jump(tag_395)\n    tag_396:\n      pop\n        /* \"bitlime-periphery/contracts/Safemoon.sol\":35611:35618  _tTotal */\n      sload(0x09)\n        /* \"bitlime-periphery/contracts/Safemoon.sol\":35599:35606  _rTotal */\n      sload(0x0a)\n        /* \"bitlime-periphery/contracts/Safemoon.sol\":35599:35619  _rTotal.div(_tTotal) */\n      tag_410\n      swap2\n      0xffffffff\n        /* \"bitlime-periphery/contracts/Safemoon.sol\":35599:35610  _rTotal.div */\n      tag_210\n        /* \"bitlime-periphery/contracts/Safemoon.sol\":35599:35619  _rTotal.div(_tTotal) */\n      and\n      jump\t// in\n    tag_410:\n        /* \"bitlime-periphery/contracts/Safemoon.sol\":35589:35596  rSupply */\n      dup3\n        /* \"bitlime-periphery/contracts/Safemoon.sol\":35589:35619  rSupply < _rTotal.div(_tTotal) */\n      lt\n        /* \"bitlime-periphery/contracts/Safemoon.sol\":35585:35646  if (rSupply < _rTotal.div(_tTotal)) return (_rTotal, _tTotal) */\n      iszero\n      tag_411\n      jumpi\n        /* \"bitlime-periphery/contracts/Safemoon.sol\":35629:35636  _rTotal */\n      sload(0x0a)\n        /* \"bitlime-periphery/contracts/Safemoon.sol\":35638:35645  _tTotal */\n      sload(0x09)\n        /* \"bitlime-periphery/contracts/Safemoon.sol\":35621:35646  return (_rTotal, _tTotal) */\n      swap4\n      pop\n      swap4\n      pop\n      pop\n      pop\n      jump(tag_394)\n        /* \"bitlime-periphery/contracts/Safemoon.sol\":35585:35646  if (rSupply < _rTotal.div(_tTotal)) return (_rTotal, _tTotal) */\n    tag_411:\n        /* \"bitlime-periphery/contracts/Safemoon.sol\":35665:35672  rSupply */\n      swap1\n      swap3\n      pop\n        /* \"bitlime-periphery/contracts/Safemoon.sol\":35674:35681  tSupply */\n      swap1\n      pop\n        /* \"bitlime-periphery/contracts/Safemoon.sol\":35129:35690  function _getCurrentSupply() private view returns(uint256, uint256) {\r... */\n    tag_394:\n      swap1\n      swap2\n      jump\t// out\n        /* \"bitlime-periphery/contracts/Safemoon.sol\":6748:7026  function div(uint256 a, uint256 b, string memory errorMessage) internal pure returns (uint256) {\r... */\n    tag_351:\n        /* \"bitlime-periphery/contracts/Safemoon.sol\":6834:6841  uint256 */\n      0x00\n        /* \"bitlime-periphery/contracts/Safemoon.sol\":6869:6881  errorMessage */\n      dup2\n        /* \"bitlime-periphery/contracts/Safemoon.sol\":6862:6867  b > 0 */\n      dup4\n        /* \"bitlime-periphery/contracts/Safemoon.sol\":6854:6882  require(b > 0, errorMessage) */\n      tag_413\n      jumpi\n      mload(0x40)\n      shl(0xe5, 0x461bcd)\n      dup2\n      mstore\n      0x20\n      0x04\n      dup3\n      add\n      dup2\n      dup2\n      mstore\n      dup4\n      mload\n      0x24\n      dup5\n      add\n      mstore\n      dup4\n      mload\n      swap1\n      swap3\n      dup4\n      swap3\n      0x44\n      swap1\n      swap2\n      add\n      swap2\n      swap1\n      dup6\n      add\n      swap1\n      dup1\n      dup4\n      dup4\n      0x00\n        /* \"--CODEGEN--\":27:37   */\n      dup4\n      iszero\n        /* \"--CODEGEN--\":8:108   */\n      tag_343\n      jumpi\n        /* \"--CODEGEN--\":90:101   */\n      dup2\n      dup2\n      add\n        /* \"--CODEGEN--\":84:102   */\n      mload\n        /* \"--CODEGEN--\":71:82   */\n      dup4\n      dup3\n      add\n        /* \"--CODEGEN--\":64:103   */\n      mstore\n        /* \"--CODEGEN--\":52:54   */\n      0x20\n        /* \"--CODEGEN--\":45:55   */\n      add\n        /* \"--CODEGEN--\":8:108   */\n      jump(tag_341)\n        /* \"bitlime-periphery/contracts/Safemoon.sol\":6854:6882  require(b > 0, errorMessage) */\n    tag_413:\n      pop\n        /* \"bitlime-periphery/contracts/Safemoon.sol\":6893:6902  uint256 c */\n      0x00\n        /* \"bitlime-periphery/contracts/Safemoon.sol\":6909:6910  b */\n      dup4\n        /* \"bitlime-periphery/contracts/Safemoon.sol\":6905:6906  a */\n      dup6\n        /* \"bitlime-periphery/contracts/Safemoon.sol\":6905:6910  a / b */\n      dup2\n      tag_418\n      jumpi\n      invalid\n    tag_418:\n      div\n      swap6\n        /* \"bitlime-periphery/contracts/Safemoon.sol\":6748:7026  function div(uint256 a, uint256 b, string memory errorMessage) internal pure returns (uint256) {\r... */\n      swap5\n      pop\n      pop\n      pop\n      pop\n      pop\n      jump\t// out\n        /* \"bitlime-periphery/contracts/Safemoon.sol\":34183:34513  function _getTValues(uint256 tAmount) private view returns (uint256, uint256, uint256) {\r... */\n    tag_356:\n        /* \"bitlime-periphery/contracts/Safemoon.sol\":34243:34250  uint256 */\n      0x00\n        /* \"bitlime-periphery/contracts/Safemoon.sol\":34252:34259  uint256 */\n      dup1\n        /* \"bitlime-periphery/contracts/Safemoon.sol\":34261:34268  uint256 */\n      0x00\n        /* \"bitlime-periphery/contracts/Safemoon.sol\":34281:34293  uint256 tFee */\n      dup1\n        /* \"bitlime-periphery/contracts/Safemoon.sol\":34296:34320  calculateTaxFee(tAmount) */\n      tag_420\n        /* \"bitlime-periphery/contracts/Safemoon.sol\":34312:34319  tAmount */\n      dup6\n        /* \"bitlime-periphery/contracts/Safemoon.sol\":34296:34311  calculateTaxFee */\n      tag_421\n        /* \"bitlime-periphery/contracts/Safemoon.sol\":34296:34320  calculateTaxFee(tAmount) */\n      jump\t// in\n    tag_420:\n        /* \"bitlime-periphery/contracts/Safemoon.sol\":34281:34320  uint256 tFee = calculateTaxFee(tAmount) */\n      swap1\n      pop\n        /* \"bitlime-periphery/contracts/Safemoon.sol\":34331:34349  uint256 tLiquidity */\n      0x00\n        /* \"bitlime-periphery/contracts/Safemoon.sol\":34352:34382  calculateLiquidityFee(tAmount) */\n      tag_422\n        /* \"bitlime-periphery/contracts/Safemoon.sol\":34374:34381  tAmount */\n      dup7\n        /* \"bitlime-periphery/contracts/Safemoon.sol\":34352:34373  calculateLiquidityFee */\n      tag_423\n        /* \"bitlime-periphery/contracts/Safemoon.sol\":34352:34382  calculateLiquidityFee(tAmount) */\n      jump\t// in\n    tag_422:\n        /* \"bitlime-periphery/contracts/Safemoon.sol\":34331:34382  uint256 tLiquidity = calculateLiquidityFee(tAmount) */\n      swap1\n      pop\n        /* \"bitlime-periphery/contracts/Safemoon.sol\":34393:34416  uint256 tTransferAmount */\n      0x00\n        /* \"bitlime-periphery/contracts/Safemoon.sol\":34419:34452  tAmount.sub(tFee).sub(tLiquidity) */\n      tag_424\n        /* \"bitlime-periphery/contracts/Safemoon.sol\":34331:34382  uint256 tLiquidity = calculateLiquidityFee(tAmount) */\n      dup3\n        /* \"bitlime-periphery/contracts/Safemoon.sol\":34419:34436  tAmount.sub(tFee) */\n      tag_425\n        /* \"bitlime-periphery/contracts/Safemoon.sol\":34419:34426  tAmount */\n      dup10\n        /* \"bitlime-periphery/contracts/Safemoon.sol\":34431:34435  tFee */\n      dup7\n        /* \"bitlime-periphery/contracts/Safemoon.sol\":34419:34436  tAmount.sub(tFee) */\n      0xffffffff\n        /* \"bitlime-periphery/contracts/Safemoon.sol\":34419:34430  tAmount.sub */\n      tag_241\n        /* \"bitlime-periphery/contracts/Safemoon.sol\":34419:34436  tAmount.sub(tFee) */\n      and\n      jump\t// in\n    tag_425:\n        /* \"bitlime-periphery/contracts/Safemoon.sol\":34419:34440  tAmount.sub(tFee).sub */\n      swap1\n        /* \"bitlime-periphery/contracts/Safemoon.sol\":34419:34452  tAmount.sub(tFee).sub(tLiquidity) */\n      0xffffffff\n        /* \"bitlime-periphery/contracts/Safemoon.sol\":34419:34440  tAmount.sub(tFee).sub */\n      tag_241\n        /* \"bitlime-periphery/contracts/Safemoon.sol\":34419:34452  tAmount.sub(tFee).sub(tLiquidity) */\n      and\n      jump\t// in\n    tag_424:\n        /* \"bitlime-periphery/contracts/Safemoon.sol\":34393:34452  uint256 tTransferAmount = tAmount.sub(tFee).sub(tLiquidity) */\n      swap8\n        /* \"bitlime-periphery/contracts/Safemoon.sol\":34488:34492  tFee */\n      swap3\n      swap7\n      pop\n        /* \"bitlime-periphery/contracts/Safemoon.sol\":34494:34504  tLiquidity */\n      swap1\n      swap5\n      pop\n        /* \"bitlime-periphery/contracts/Safemoon.sol\":34183:34513  function _getTValues(uint256 tAmount) private view returns (uint256, uint256, uint256) {\r... */\n      swap1\n      swap3\n      pop\n      pop\n      pop\n      jump\t// out\n        /* \"bitlime-periphery/contracts/Safemoon.sol\":34521:34950  function _getRValues(uint256 tAmount, uint256 tFee, uint256 tLiquidity, uint256 currentRate) private pure returns (uint256, uint256, uint256) {\r... */\n    tag_359:\n        /* \"bitlime-periphery/contracts/Safemoon.sol\":34636:34643  uint256 */\n      0x00\n      dup1\n      dup1\n      dup1\n        /* \"bitlime-periphery/contracts/Safemoon.sol\":34692:34716  tAmount.mul(currentRate) */\n      tag_427\n        /* \"bitlime-periphery/contracts/Safemoon.sol\":34692:34699  tAmount */\n      dup9\n        /* \"bitlime-periphery/contracts/Safemoon.sol\":34704:34715  currentRate */\n      dup7\n        /* \"bitlime-periphery/contracts/Safemoon.sol\":34692:34716  tAmount.mul(currentRate) */\n      0xffffffff\n        /* \"bitlime-periphery/contracts/Safemoon.sol\":34692:34703  tAmount.mul */\n      tag_302\n        /* \"bitlime-periphery/contracts/Safemoon.sol\":34692:34716  tAmount.mul(currentRate) */\n      and\n      jump\t// in\n    tag_427:\n        /* \"bitlime-periphery/contracts/Safemoon.sol\":34674:34716  uint256 rAmount = tAmount.mul(currentRate) */\n      swap1\n      pop\n        /* \"bitlime-periphery/contracts/Safemoon.sol\":34727:34739  uint256 rFee */\n      0x00\n        /* \"bitlime-periphery/contracts/Safemoon.sol\":34742:34763  tFee.mul(currentRate) */\n      tag_428\n        /* \"bitlime-periphery/contracts/Safemoon.sol\":34742:34746  tFee */\n      dup9\n        /* \"bitlime-periphery/contracts/Safemoon.sol\":34751:34762  currentRate */\n      dup8\n        /* \"bitlime-periphery/contracts/Safemoon.sol\":34742:34763  tFee.mul(currentRate) */\n      0xffffffff\n        /* \"bitlime-periphery/contracts/Safemoon.sol\":34742:34750  tFee.mul */\n      tag_302\n        /* \"bitlime-periphery/contracts/Safemoon.sol\":34742:34763  tFee.mul(currentRate) */\n      and\n      jump\t// in\n    tag_428:\n        /* \"bitlime-periphery/contracts/Safemoon.sol\":34727:34763  uint256 rFee = tFee.mul(currentRate) */\n      swap1\n      pop\n        /* \"bitlime-periphery/contracts/Safemoon.sol\":34774:34792  uint256 rLiquidity */\n      0x00\n        /* \"bitlime-periphery/contracts/Safemoon.sol\":34795:34822  tLiquidity.mul(currentRate) */\n      tag_429\n        /* \"bitlime-periphery/contracts/Safemoon.sol\":34795:34805  tLiquidity */\n      dup9\n        /* \"bitlime-periphery/contracts/Safemoon.sol\":34810:34821  currentRate */\n      dup9\n        /* \"bitlime-periphery/contracts/Safemoon.sol\":34795:34822  tLiquidity.mul(currentRate) */\n      0xffffffff\n        /* \"bitlime-periphery/contracts/Safemoon.sol\":34795:34809  tLiquidity.mul */\n      tag_302\n        /* \"bitlime-periphery/contracts/Safemoon.sol\":34795:34822  tLiquidity.mul(currentRate) */\n      and\n      jump\t// in\n    tag_429:\n        /* \"bitlime-periphery/contracts/Safemoon.sol\":34774:34822  uint256 rLiquidity = tLiquidity.mul(currentRate) */\n      swap1\n      pop\n        /* \"bitlime-periphery/contracts/Safemoon.sol\":34833:34856  uint256 rTransferAmount */\n      0x00\n        /* \"bitlime-periphery/contracts/Safemoon.sol\":34859:34892  rAmount.sub(rFee).sub(rLiquidity) */\n      tag_430\n        /* \"bitlime-periphery/contracts/Safemoon.sol\":34774:34822  uint256 rLiquidity = tLiquidity.mul(currentRate) */\n      dup3\n        /* \"bitlime-periphery/contracts/Safemoon.sol\":34859:34876  rAmount.sub(rFee) */\n      tag_425\n        /* \"bitlime-periphery/contracts/Safemoon.sol\":34859:34866  rAmount */\n      dup7\n        /* \"bitlime-periphery/contracts/Safemoon.sol\":34871:34875  rFee */\n      dup7\n        /* \"bitlime-periphery/contracts/Safemoon.sol\":34859:34876  rAmount.sub(rFee) */\n      0xffffffff\n        /* \"bitlime-periphery/contracts/Safemoon.sol\":34859:34870  rAmount.sub */\n      tag_241\n        /* \"bitlime-periphery/contracts/Safemoon.sol\":34859:34876  rAmount.sub(rFee) */\n      and\n      jump\t// in\n        /* \"bitlime-periphery/contracts/Safemoon.sol\":34859:34892  rAmount.sub(rFee).sub(rLiquidity) */\n    tag_430:\n        /* \"bitlime-periphery/contracts/Safemoon.sol\":34911:34918  rAmount */\n      swap4\n      swap12\n      swap4\n      swap11\n      pop\n        /* \"bitlime-periphery/contracts/Safemoon.sol\":34937:34941  rFee */\n      swap2\n      swap9\n      pop\n        /* \"bitlime-periphery/contracts/Safemoon.sol\":34521:34950  function _getRValues(uint256 tAmount, uint256 tFee, uint256 tLiquidity, uint256 currentRate) private pure returns (uint256, uint256, uint256) {\r... */\n      swap2\n      swap7\n      pop\n      pop\n      pop\n      pop\n      pop\n      pop\n      pop\n      jump\t// out\n        /* \"bitlime-periphery/contracts/Safemoon.sol\":36409:36659  function removeAllFee() private {\r... */\n    tag_369:\n        /* \"bitlime-periphery/contracts/Safemoon.sol\":36455:36462  _taxFee */\n      sload(0x0f)\n        /* \"bitlime-periphery/contracts/Safemoon.sol\":36455:36467  _taxFee == 0 */\n      iszero\n        /* \"bitlime-periphery/contracts/Safemoon.sol\":36455:36489  _taxFee == 0 && _liquidityFee == 0 */\n      dup1\n      iszero\n      tag_433\n      jumpi\n      pop\n        /* \"bitlime-periphery/contracts/Safemoon.sol\":36471:36484  _liquidityFee */\n      sload(0x11)\n        /* \"bitlime-periphery/contracts/Safemoon.sol\":36471:36489  _liquidityFee == 0 */\n      iszero\n        /* \"bitlime-periphery/contracts/Safemoon.sol\":36455:36489  _taxFee == 0 && _liquidityFee == 0 */\n    tag_433:\n        /* \"bitlime-periphery/contracts/Safemoon.sol\":36452:36498  if(_taxFee == 0 && _liquidityFee == 0) return; */\n      iszero\n      tag_434\n      jumpi\n        /* \"bitlime-periphery/contracts/Safemoon.sol\":36491:36498  return; */\n      jump(tag_432)\n        /* \"bitlime-periphery/contracts/Safemoon.sol\":36452:36498  if(_taxFee == 0 && _liquidityFee == 0) return; */\n    tag_434:\n        /* \"bitlime-periphery/contracts/Safemoon.sol\":36536:36543  _taxFee */\n      0x0f\n      dup1\n      sload\n        /* \"bitlime-periphery/contracts/Safemoon.sol\":36518:36533  _previousTaxFee */\n      0x10\n        /* \"bitlime-periphery/contracts/Safemoon.sol\":36518:36543  _previousTaxFee = _taxFee */\n      sstore\n        /* \"bitlime-periphery/contracts/Safemoon.sol\":36578:36591  _liquidityFee */\n      0x11\n      dup1\n      sload\n        /* \"bitlime-periphery/contracts/Safemoon.sol\":36554:36575  _previousLiquidityFee */\n      0x12\n        /* \"bitlime-periphery/contracts/Safemoon.sol\":36554:36591  _previousLiquidityFee = _liquidityFee */\n      sstore\n      0x00\n        /* \"bitlime-periphery/contracts/Safemoon.sol\":36612:36623  _taxFee = 0 */\n      swap2\n      dup3\n      swap1\n      sstore\n        /* \"bitlime-periphery/contracts/Safemoon.sol\":36634:36651  _liquidityFee = 0 */\n      sstore\n        /* \"bitlime-periphery/contracts/Safemoon.sol\":36409:36659  function removeAllFee() private {\r... */\n    tag_432:\n      jump\t// out\n        /* \"bitlime-periphery/contracts/Safemoon.sol\":41010:41576  function _transferFromExcluded(address sender, address recipient, uint256 tAmount) private {\r... */\n    tag_373:\n        /* \"bitlime-periphery/contracts/Safemoon.sol\":41113:41128  uint256 rAmount */\n      0x00\n        /* \"bitlime-periphery/contracts/Safemoon.sol\":41130:41153  uint256 rTransferAmount */\n      dup1\n        /* \"bitlime-periphery/contracts/Safemoon.sol\":41155:41167  uint256 rFee */\n      0x00\n        /* \"bitlime-periphery/contracts/Safemoon.sol\":41169:41192  uint256 tTransferAmount */\n      dup1\n        /* \"bitlime-periphery/contracts/Safemoon.sol\":41194:41206  uint256 tFee */\n      0x00\n        /* \"bitlime-periphery/contracts/Safemoon.sol\":41208:41226  uint256 tLiquidity */\n      dup1\n        /* \"bitlime-periphery/contracts/Safemoon.sol\":41230:41249  _getValues(tAmount) */\n      tag_436\n        /* \"bitlime-periphery/contracts/Safemoon.sol\":41241:41248  tAmount */\n      dup8\n        /* \"bitlime-periphery/contracts/Safemoon.sol\":41230:41240  _getValues */\n      tag_239\n        /* \"bitlime-periphery/contracts/Safemoon.sol\":41230:41249  _getValues(tAmount) */\n      jump\t// in\n    tag_436:\n      sub(shl(0xa0, 0x01), 0x01)\n        /* \"bitlime-periphery/contracts/Safemoon.sol\":41278:41293  _tOwned[sender] */\n      dup16\n      and\n      0x00\n      swap1\n      dup2\n      mstore\n        /* \"bitlime-periphery/contracts/Safemoon.sol\":41278:41285  _tOwned */\n      0x04\n        /* \"bitlime-periphery/contracts/Safemoon.sol\":41278:41293  _tOwned[sender] */\n      0x20\n      mstore\n      0x40\n      swap1\n      keccak256\n      sload\n        /* \"bitlime-periphery/contracts/Safemoon.sol\":41112:41249  (uint256 rAmount, uint256 rTransferAmount, uint256 rFee, uint256 tTransferAmount, uint256 tFee, uint256 tLiquidity) = _getValues(tAmount) */\n      swap6\n      swap12\n      pop\n      swap4\n      swap10\n      pop\n      swap2\n      swap8\n      pop\n      swap6\n      pop\n      swap4\n      pop\n      swap2\n      pop\n        /* \"bitlime-periphery/contracts/Safemoon.sol\":41278:41306  _tOwned[sender].sub(tAmount) */\n      tag_437\n      swap1\n        /* \"bitlime-periphery/contracts/Safemoon.sol\":41298:41305  tAmount */\n      dup9\n        /* \"bitlime-periphery/contracts/Safemoon.sol\":41278:41306  _tOwned[sender].sub(tAmount) */\n      0xffffffff\n        /* \"bitlime-periphery/contracts/Safemoon.sol\":41278:41297  _tOwned[sender].sub */\n      tag_241\n        /* \"bitlime-periphery/contracts/Safemoon.sol\":41278:41306  _tOwned[sender].sub(tAmount) */\n      and\n      jump\t// in\n    tag_437:\n      sub(shl(0xa0, 0x01), 0x01)\n        /* \"bitlime-periphery/contracts/Safemoon.sol\":41260:41275  _tOwned[sender] */\n      dup11\n      and\n      0x00\n      swap1\n      dup2\n      mstore\n        /* \"bitlime-periphery/contracts/Safemoon.sol\":41260:41267  _tOwned */\n      0x04\n        /* \"bitlime-periphery/contracts/Safemoon.sol\":41260:41275  _tOwned[sender] */\n      0x20\n      swap1\n      dup2\n      mstore\n      0x40\n      dup1\n      dup4\n      keccak256\n        /* \"bitlime-periphery/contracts/Safemoon.sol\":41260:41306  _tOwned[sender] = _tOwned[sender].sub(tAmount) */\n      swap4\n      swap1\n      swap4\n      sstore\n        /* \"bitlime-periphery/contracts/Safemoon.sol\":41335:41342  _rOwned */\n      0x03\n        /* \"bitlime-periphery/contracts/Safemoon.sol\":41335:41350  _rOwned[sender] */\n      swap1\n      mstore\n      keccak256\n      sload\n        /* \"bitlime-periphery/contracts/Safemoon.sol\":41335:41363  _rOwned[sender].sub(rAmount) */\n      tag_438\n      swap1\n        /* \"bitlime-periphery/contracts/Safemoon.sol\":41355:41362  rAmount */\n      dup8\n        /* \"bitlime-periphery/contracts/Safemoon.sol\":41335:41363  _rOwned[sender].sub(rAmount) */\n      0xffffffff\n        /* \"bitlime-periphery/contracts/Safemoon.sol\":41335:41354  _rOwned[sender].sub */\n      tag_241\n        /* \"bitlime-periphery/contracts/Safemoon.sol\":41335:41363  _rOwned[sender].sub(rAmount) */\n      and\n      jump\t// in\n    tag_438:\n      sub(shl(0xa0, 0x01), 0x01)\n        /* \"bitlime-periphery/contracts/Safemoon.sol\":41317:41332  _rOwned[sender] */\n      dup1\n      dup12\n      and\n      0x00\n      swap1\n      dup2\n      mstore\n        /* \"bitlime-periphery/contracts/Safemoon.sol\":41317:41324  _rOwned */\n      0x03\n        /* \"bitlime-periphery/contracts/Safemoon.sol\":41317:41332  _rOwned[sender] */\n      0x20\n      mstore\n      0x40\n      dup1\n      dup3\n      keccak256\n        /* \"bitlime-periphery/contracts/Safemoon.sol\":41317:41363  _rOwned[sender] = _rOwned[sender].sub(rAmount) */\n      swap4\n      swap1\n      swap4\n      sstore\n        /* \"bitlime-periphery/contracts/Safemoon.sol\":41395:41413  _rOwned[recipient] */\n      swap1\n      dup11\n      and\n      dup2\n      mstore\n      keccak256\n      sload\n        /* \"bitlime-periphery/contracts/Safemoon.sol\":41395:41434  _rOwned[recipient].add(rTransferAmount) */\n      tag_439\n      swap1\n        /* \"bitlime-periphery/contracts/Safemoon.sol\":41418:41433  rTransferAmount */\n      dup7\n        /* \"bitlime-periphery/contracts/Safemoon.sol\":41395:41434  _rOwned[recipient].add(rTransferAmount) */\n      0xffffffff\n        /* \"bitlime-periphery/contracts/Safemoon.sol\":41395:41417  _rOwned[recipient].add */\n      tag_234\n        /* \"bitlime-periphery/contracts/Safemoon.sol\":41395:41434  _rOwned[recipient].add(rTransferAmount) */\n      and\n      jump\t// in\n    tag_439:\n      sub(shl(0xa0, 0x01), 0x01)\n        /* \"bitlime-periphery/contracts/Safemoon.sol\":41374:41392  _rOwned[recipient] */\n      dup10\n      and\n      0x00\n      swap1\n      dup2\n      mstore\n        /* \"bitlime-periphery/contracts/Safemoon.sol\":41374:41381  _rOwned */\n      0x03\n        /* \"bitlime-periphery/contracts/Safemoon.sol\":41374:41392  _rOwned[recipient] */\n      0x20\n      mstore\n      0x40\n      swap1\n      keccak256\n        /* \"bitlime-periphery/contracts/Safemoon.sol\":41374:41434  _rOwned[recipient] = _rOwned[recipient].add(rTransferAmount) */\n      sstore\n        /* \"bitlime-periphery/contracts/Safemoon.sol\":41448:41474  _takeLiquidity(tLiquidity) */\n      tag_440\n        /* \"bitlime-periphery/contracts/Safemoon.sol\":41463:41473  tLiquidity */\n      dup2\n        /* \"bitlime-periphery/contracts/Safemoon.sol\":41448:41462  _takeLiquidity */\n      tag_441\n        /* \"bitlime-periphery/contracts/Safemoon.sol\":41448:41474  _takeLiquidity(tLiquidity) */\n      jump\t// in\n    tag_440:\n        /* \"bitlime-periphery/contracts/Safemoon.sol\":41485:41508  _reflectFee(rFee, tFee) */\n      tag_442\n        /* \"bitlime-periphery/contracts/Safemoon.sol\":41497:41501  rFee */\n      dup5\n        /* \"bitlime-periphery/contracts/Safemoon.sol\":41503:41507  tFee */\n      dup4\n        /* \"bitlime-periphery/contracts/Safemoon.sol\":41485:41496  _reflectFee */\n      tag_443\n        /* \"bitlime-periphery/contracts/Safemoon.sol\":41485:41508  _reflectFee(rFee, tFee) */\n      jump\t// in\n    tag_442:\n        /* \"bitlime-periphery/contracts/Safemoon.sol\":41541:41550  recipient */\n      dup8\n      sub(shl(0xa0, 0x01), 0x01)\n        /* \"bitlime-periphery/contracts/Safemoon.sol\":41524:41568  Transfer(sender, recipient, tTransferAmount) */\n      and\n        /* \"bitlime-periphery/contracts/Safemoon.sol\":41533:41539  sender */\n      dup10\n      sub(shl(0xa0, 0x01), 0x01)\n        /* \"bitlime-periphery/contracts/Safemoon.sol\":41524:41568  Transfer(sender, recipient, tTransferAmount) */\n      and\n      0xddf252ad1be2c89b69c2b068fc378daa952ba7f163c4a11628f55a4df523b3ef\n        /* \"bitlime-periphery/contracts/Safemoon.sol\":41552:41567  tTransferAmount */\n      dup6\n        /* \"bitlime-periphery/contracts/Safemoon.sol\":41524:41568  Transfer(sender, recipient, tTransferAmount) */\n      mload(0x40)\n      dup1\n      dup3\n      dup2\n      mstore\n      0x20\n      add\n      swap2\n      pop\n      pop\n      mload(0x40)\n      dup1\n      swap2\n      sub\n      swap1\n      log3\n        /* \"bitlime-periphery/contracts/Safemoon.sol\":41010:41576  function _transferFromExcluded(address sender, address recipient, uint256 tAmount) private {\r... */\n      pop\n      pop\n      pop\n      pop\n      pop\n      pop\n      pop\n      pop\n      pop\n      jump\t// out\n        /* \"bitlime-periphery/contracts/Safemoon.sol\":40416:41002  function _transferToExcluded(address sender, address recipient, uint256 tAmount) private {\r... */\n    tag_378:\n        /* \"bitlime-periphery/contracts/Safemoon.sol\":40517:40532  uint256 rAmount */\n      0x00\n        /* \"bitlime-periphery/contracts/Safemoon.sol\":40534:40557  uint256 rTransferAmount */\n      dup1\n        /* \"bitlime-periphery/contracts/Safemoon.sol\":40559:40571  uint256 rFee */\n      0x00\n        /* \"bitlime-periphery/contracts/Safemoon.sol\":40573:40596  uint256 tTransferAmount */\n      dup1\n        /* \"bitlime-periphery/contracts/Safemoon.sol\":40598:40610  uint256 tFee */\n      0x00\n        /* \"bitlime-periphery/contracts/Safemoon.sol\":40612:40630  uint256 tLiquidity */\n      dup1\n        /* \"bitlime-periphery/contracts/Safemoon.sol\":40634:40653  _getValues(tAmount) */\n      tag_445\n        /* \"bitlime-periphery/contracts/Safemoon.sol\":40645:40652  tAmount */\n      dup8\n        /* \"bitlime-periphery/contracts/Safemoon.sol\":40634:40644  _getValues */\n      tag_239\n        /* \"bitlime-periphery/contracts/Safemoon.sol\":40634:40653  _getValues(tAmount) */\n      jump\t// in\n    tag_445:\n      sub(shl(0xa0, 0x01), 0x01)\n        /* \"bitlime-periphery/contracts/Safemoon.sol\":40682:40697  _rOwned[sender] */\n      dup16\n      and\n      0x00\n      swap1\n      dup2\n      mstore\n        /* \"bitlime-periphery/contracts/Safemoon.sol\":40682:40689  _rOwned */\n      0x03\n        /* \"bitlime-periphery/contracts/Safemoon.sol\":40682:40697  _rOwned[sender] */\n      0x20\n      mstore\n      0x40\n      swap1\n      keccak256\n      sload\n        /* \"bitlime-periphery/contracts/Safemoon.sol\":40516:40653  (uint256 rAmount, uint256 rTransferAmount, uint256 rFee, uint256 tTransferAmount, uint256 tFee, uint256 tLiquidity) = _getValues(tAmount) */\n      swap6\n      swap12\n      pop\n      swap4\n      swap10\n      pop\n      swap2\n      swap8\n      pop\n      swap6\n      pop\n      swap4\n      pop\n      swap2\n      pop\n        /* \"bitlime-periphery/contracts/Safemoon.sol\":40682:40710  _rOwned[sender].sub(rAmount) */\n      tag_446\n      swap1\n        /* \"bitlime-periphery/contracts/Safemoon.sol\":40516:40653  (uint256 rAmount, uint256 rTransferAmount, uint256 rFee, uint256 tTransferAmount, uint256 tFee, uint256 tLiquidity) = _getValues(tAmount) */\n      dup8\n        /* \"bitlime-periphery/contracts/Safemoon.sol\":40682:40710  _rOwned[sender].sub(rAmount) */\n      0xffffffff\n        /* \"bitlime-periphery/contracts/Safemoon.sol\":40682:40701  _rOwned[sender].sub */\n      tag_241\n        /* \"bitlime-periphery/contracts/Safemoon.sol\":40682:40710  _rOwned[sender].sub(rAmount) */\n      and\n      jump\t// in\n    tag_446:\n      sub(shl(0xa0, 0x01), 0x01)\n        /* \"bitlime-periphery/contracts/Safemoon.sol\":40664:40679  _rOwned[sender] */\n      dup1\n      dup12\n      and\n      0x00\n      swap1\n      dup2\n      mstore\n        /* \"bitlime-periphery/contracts/Safemoon.sol\":40664:40671  _rOwned */\n      0x03\n        /* \"bitlime-periphery/contracts/Safemoon.sol\":40664:40679  _rOwned[sender] */\n      0x20\n      swap1\n      dup2\n      mstore\n      0x40\n      dup1\n      dup4\n      keccak256\n        /* \"bitlime-periphery/contracts/Safemoon.sol\":40664:40710  _rOwned[sender] = _rOwned[sender].sub(rAmount) */\n      swap5\n      swap1\n      swap5\n      sstore\n        /* \"bitlime-periphery/contracts/Safemoon.sol\":40742:40760  _tOwned[recipient] */\n      swap2\n      dup12\n      and\n      dup2\n      mstore\n        /* \"bitlime-periphery/contracts/Safemoon.sol\":40742:40749  _tOwned */\n      0x04\n        /* \"bitlime-periphery/contracts/Safemoon.sol\":40742:40760  _tOwned[recipient] */\n      swap1\n      swap2\n      mstore\n      keccak256\n      sload\n        /* \"bitlime-periphery/contracts/Safemoon.sol\":40742:40781  _tOwned[recipient].add(tTransferAmount) */\n      tag_447\n      swap1\n        /* \"bitlime-periphery/contracts/Safemoon.sol\":40765:40780  tTransferAmount */\n      dup5\n        /* \"bitlime-periphery/contracts/Safemoon.sol\":40742:40781  _tOwned[recipient].add(tTransferAmount) */\n      0xffffffff\n        /* \"bitlime-periphery/contracts/Safemoon.sol\":40742:40764  _tOwned[recipient].add */\n      tag_234\n        /* \"bitlime-periphery/contracts/Safemoon.sol\":40742:40781  _tOwned[recipient].add(tTransferAmount) */\n      and\n      jump\t// in\n    tag_447:\n      sub(shl(0xa0, 0x01), 0x01)\n        /* \"bitlime-periphery/contracts/Safemoon.sol\":40721:40739  _tOwned[recipient] */\n      dup10\n      and\n      0x00\n      swap1\n      dup2\n      mstore\n        /* \"bitlime-periphery/contracts/Safemoon.sol\":40721:40728  _tOwned */\n      0x04\n        /* \"bitlime-periphery/contracts/Safemoon.sol\":40721:40739  _tOwned[recipient] */\n      0x20\n      swap1\n      dup2\n      mstore\n      0x40\n      dup1\n      dup4\n      keccak256\n        /* \"bitlime-periphery/contracts/Safemoon.sol\":40721:40781  _tOwned[recipient] = _tOwned[recipient].add(tTransferAmount) */\n      swap4\n      swap1\n      swap4\n      sstore\n        /* \"bitlime-periphery/contracts/Safemoon.sol\":40813:40820  _rOwned */\n      0x03\n        /* \"bitlime-periphery/contracts/Safemoon.sol\":40813:40831  _rOwned[recipient] */\n      swap1\n      mstore\n      keccak256\n      sload\n        /* \"bitlime-periphery/contracts/Safemoon.sol\":40813:40852  _rOwned[recipient].add(rTransferAmount) */\n      tag_439\n      swap1\n        /* \"bitlime-periphery/contracts/Safemoon.sol\":40836:40851  rTransferAmount */\n      dup7\n        /* \"bitlime-periphery/contracts/Safemoon.sol\":40813:40852  _rOwned[recipient].add(rTransferAmount) */\n      0xffffffff\n        /* \"bitlime-periphery/contracts/Safemoon.sol\":40813:40835  _rOwned[recipient].add */\n      tag_234\n        /* \"bitlime-periphery/contracts/Safemoon.sol\":40813:40852  _rOwned[recipient].add(rTransferAmount) */\n      and\n      jump\t// in\n        /* \"bitlime-periphery/contracts/Safemoon.sol\":39906:40408  function _transferStandard(address sender, address recipient, uint256 tAmount) private {\r... */\n    tag_383:\n        /* \"bitlime-periphery/contracts/Safemoon.sol\":40005:40020  uint256 rAmount */\n      0x00\n        /* \"bitlime-periphery/contracts/Safemoon.sol\":40022:40045  uint256 rTransferAmount */\n      dup1\n        /* \"bitlime-periphery/contracts/Safemoon.sol\":40047:40059  uint256 rFee */\n      0x00\n        /* \"bitlime-periphery/contracts/Safemoon.sol\":40061:40084  uint256 tTransferAmount */\n      dup1\n        /* \"bitlime-periphery/contracts/Safemoon.sol\":40086:40098  uint256 tFee */\n      0x00\n        /* \"bitlime-periphery/contracts/Safemoon.sol\":40100:40118  uint256 tLiquidity */\n      dup1\n        /* \"bitlime-periphery/contracts/Safemoon.sol\":40122:40141  _getValues(tAmount) */\n      tag_452\n        /* \"bitlime-periphery/contracts/Safemoon.sol\":40133:40140  tAmount */\n      dup8\n        /* \"bitlime-periphery/contracts/Safemoon.sol\":40122:40132  _getValues */\n      tag_239\n        /* \"bitlime-periphery/contracts/Safemoon.sol\":40122:40141  _getValues(tAmount) */\n      jump\t// in\n    tag_452:\n      sub(shl(0xa0, 0x01), 0x01)\n        /* \"bitlime-periphery/contracts/Safemoon.sol\":40170:40185  _rOwned[sender] */\n      dup16\n      and\n      0x00\n      swap1\n      dup2\n      mstore\n        /* \"bitlime-periphery/contracts/Safemoon.sol\":40170:40177  _rOwned */\n      0x03\n        /* \"bitlime-periphery/contracts/Safemoon.sol\":40170:40185  _rOwned[sender] */\n      0x20\n      mstore\n      0x40\n      swap1\n      keccak256\n      sload\n        /* \"bitlime-periphery/contracts/Safemoon.sol\":40004:40141  (uint256 rAmount, uint256 rTransferAmount, uint256 rFee, uint256 tTransferAmount, uint256 tFee, uint256 tLiquidity) = _getValues(tAmount) */\n      swap6\n      swap12\n      pop\n      swap4\n      swap10\n      pop\n      swap2\n      swap8\n      pop\n      swap6\n      pop\n      swap4\n      pop\n      swap2\n      pop\n        /* \"bitlime-periphery/contracts/Safemoon.sol\":40170:40198  _rOwned[sender].sub(rAmount) */\n      tag_438\n      swap1\n        /* \"bitlime-periphery/contracts/Safemoon.sol\":40004:40141  (uint256 rAmount, uint256 rTransferAmount, uint256 rFee, uint256 tTransferAmount, uint256 tFee, uint256 tLiquidity) = _getValues(tAmount) */\n      dup8\n        /* \"bitlime-periphery/contracts/Safemoon.sol\":40170:40198  _rOwned[sender].sub(rAmount) */\n      0xffffffff\n        /* \"bitlime-periphery/contracts/Safemoon.sol\":40170:40189  _rOwned[sender].sub */\n      tag_241\n        /* \"bitlime-periphery/contracts/Safemoon.sol\":40170:40198  _rOwned[sender].sub(rAmount) */\n      and\n      jump\t// in\n        /* \"bitlime-periphery/contracts/Safemoon.sol\":32008:32650  function _transferBothExcluded(address sender, address recipient, uint256 tAmount) private {\r... */\n    tag_388:\n        /* \"bitlime-periphery/contracts/Safemoon.sol\":32111:32126  uint256 rAmount */\n      0x00\n        /* \"bitlime-periphery/contracts/Safemoon.sol\":32128:32151  uint256 rTransferAmount */\n      dup1\n        /* \"bitlime-periphery/contracts/Safemoon.sol\":32153:32165  uint256 rFee */\n      0x00\n        /* \"bitlime-periphery/contracts/Safemoon.sol\":32167:32190  uint256 tTransferAmount */\n      dup1\n        /* \"bitlime-periphery/contracts/Safemoon.sol\":32192:32204  uint256 tFee */\n      0x00\n        /* \"bitlime-periphery/contracts/Safemoon.sol\":32206:32224  uint256 tLiquidity */\n      dup1\n        /* \"bitlime-periphery/contracts/Safemoon.sol\":32228:32247  _getValues(tAmount) */\n      tag_458\n        /* \"bitlime-periphery/contracts/Safemoon.sol\":32239:32246  tAmount */\n      dup8\n        /* \"bitlime-periphery/contracts/Safemoon.sol\":32228:32238  _getValues */\n      tag_239\n        /* \"bitlime-periphery/contracts/Safemoon.sol\":32228:32247  _getValues(tAmount) */\n      jump\t// in\n    tag_458:\n      sub(shl(0xa0, 0x01), 0x01)\n        /* \"bitlime-periphery/contracts/Safemoon.sol\":32276:32291  _tOwned[sender] */\n      dup16\n      and\n      0x00\n      swap1\n      dup2\n      mstore\n        /* \"bitlime-periphery/contracts/Safemoon.sol\":32276:32283  _tOwned */\n      0x04\n        /* \"bitlime-periphery/contracts/Safemoon.sol\":32276:32291  _tOwned[sender] */\n      0x20\n      mstore\n      0x40\n      swap1\n      keccak256\n      sload\n        /* \"bitlime-periphery/contracts/Safemoon.sol\":32110:32247  (uint256 rAmount, uint256 rTransferAmount, uint256 rFee, uint256 tTransferAmount, uint256 tFee, uint256 tLiquidity) = _getValues(tAmount) */\n      swap6\n      swap12\n      pop\n      swap4\n      swap10\n      pop\n      swap2\n      swap8\n      pop\n      swap6\n      pop\n      swap4\n      pop\n      swap2\n      pop\n        /* \"bitlime-periphery/contracts/Safemoon.sol\":32276:32304  _tOwned[sender].sub(tAmount) */\n      tag_459\n      swap1\n        /* \"bitlime-periphery/contracts/Safemoon.sol\":32296:32303  tAmount */\n      dup9\n        /* \"bitlime-periphery/contracts/Safemoon.sol\":32276:32304  _tOwned[sender].sub(tAmount) */\n      0xffffffff\n        /* \"bitlime-periphery/contracts/Safemoon.sol\":32276:32295  _tOwned[sender].sub */\n      tag_241\n        /* \"bitlime-periphery/contracts/Safemoon.sol\":32276:32304  _tOwned[sender].sub(tAmount) */\n      and\n      jump\t// in\n    tag_459:\n      sub(shl(0xa0, 0x01), 0x01)\n        /* \"bitlime-periphery/contracts/Safemoon.sol\":32258:32273  _tOwned[sender] */\n      dup11\n      and\n      0x00\n      swap1\n      dup2\n      mstore\n        /* \"bitlime-periphery/contracts/Safemoon.sol\":32258:32265  _tOwned */\n      0x04\n        /* \"bitlime-periphery/contracts/Safemoon.sol\":32258:32273  _tOwned[sender] */\n      0x20\n      swap1\n      dup2\n      mstore\n      0x40\n      dup1\n      dup4\n      keccak256\n        /* \"bitlime-periphery/contracts/Safemoon.sol\":32258:32304  _tOwned[sender] = _tOwned[sender].sub(tAmount) */\n      swap4\n      swap1\n      swap4\n      sstore\n        /* \"bitlime-periphery/contracts/Safemoon.sol\":32333:32340  _rOwned */\n      0x03\n        /* \"bitlime-periphery/contracts/Safemoon.sol\":32333:32348  _rOwned[sender] */\n      swap1\n      mstore\n      keccak256\n      sload\n        /* \"bitlime-periphery/contracts/Safemoon.sol\":32333:32361  _rOwned[sender].sub(rAmount) */\n      tag_446\n      swap1\n        /* \"bitlime-periphery/contracts/Safemoon.sol\":32353:32360  rAmount */\n      dup8\n        /* \"bitlime-periphery/contracts/Safemoon.sol\":32333:32361  _rOwned[sender].sub(rAmount) */\n      0xffffffff\n        /* \"bitlime-periphery/contracts/Safemoon.sol\":32333:32352  _rOwned[sender].sub */\n      tag_241\n        /* \"bitlime-periphery/contracts/Safemoon.sol\":32333:32361  _rOwned[sender].sub(rAmount) */\n      and\n      jump\t// in\n        /* \"bitlime-periphery/contracts/Safemoon.sol\":36671:36796  function restoreAllFee() private {\r... */\n    tag_393:\n        /* \"bitlime-periphery/contracts/Safemoon.sol\":36725:36740  _previousTaxFee */\n      sload(0x10)\n        /* \"bitlime-periphery/contracts/Safemoon.sol\":36715:36722  _taxFee */\n      0x0f\n        /* \"bitlime-periphery/contracts/Safemoon.sol\":36715:36740  _taxFee = _previousTaxFee */\n      sstore\n        /* \"bitlime-periphery/contracts/Safemoon.sol\":36767:36788  _previousLiquidityFee */\n      sload(0x12)\n        /* \"bitlime-periphery/contracts/Safemoon.sol\":36751:36764  _liquidityFee */\n      0x11\n        /* \"bitlime-periphery/contracts/Safemoon.sol\":36751:36788  _liquidityFee = _previousLiquidityFee */\n      sstore\n        /* \"bitlime-periphery/contracts/Safemoon.sol\":36671:36796  function restoreAllFee() private {\r... */\n      jump\t// out\n        /* \"bitlime-periphery/contracts/Safemoon.sol\":36069:36223  function calculateTaxFee(uint256 _amount) private view returns (uint256) {\r... */\n    tag_421:\n        /* \"bitlime-periphery/contracts/Safemoon.sol\":36133:36140  uint256 */\n      0x00\n        /* \"bitlime-periphery/contracts/Safemoon.sol\":36160:36215  _amount.mul(_taxFee).div(\r... */\n      tag_191\n        /* \"bitlime-periphery/contracts/Safemoon.sol\":36199:36204  10**2 */\n      0x64\n        /* \"bitlime-periphery/contracts/Safemoon.sol\":36160:36180  _amount.mul(_taxFee) */\n      tag_301\n        /* \"bitlime-periphery/contracts/Safemoon.sol\":36172:36179  _taxFee */\n      sload(0x0f)\n        /* \"bitlime-periphery/contracts/Safemoon.sol\":36160:36167  _amount */\n      dup6\n        /* \"bitlime-periphery/contracts/Safemoon.sol\":36160:36171  _amount.mul */\n      tag_302\n      swap1\n        /* \"bitlime-periphery/contracts/Safemoon.sol\":36160:36180  _amount.mul(_taxFee) */\n      swap2\n      swap1\n      0xffffffff\n      and\n      jump\t// in\n        /* \"bitlime-periphery/contracts/Safemoon.sol\":36231:36397  function calculateLiquidityFee(uint256 _amount) private view returns (uint256) {\r... */\n    tag_423:\n        /* \"bitlime-periphery/contracts/Safemoon.sol\":36301:36308  uint256 */\n      0x00\n        /* \"bitlime-periphery/contracts/Safemoon.sol\":36328:36389  _amount.mul(_liquidityFee).div(\r... */\n      tag_191\n        /* \"bitlime-periphery/contracts/Safemoon.sol\":36373:36378  10**2 */\n      0x64\n        /* \"bitlime-periphery/contracts/Safemoon.sol\":36328:36354  _amount.mul(_liquidityFee) */\n      tag_301\n        /* \"bitlime-periphery/contracts/Safemoon.sol\":36340:36353  _liquidityFee */\n      sload(0x11)\n        /* \"bitlime-periphery/contracts/Safemoon.sol\":36328:36335  _amount */\n      dup6\n        /* \"bitlime-periphery/contracts/Safemoon.sol\":36328:36339  _amount.mul */\n      tag_302\n      swap1\n        /* \"bitlime-periphery/contracts/Safemoon.sol\":36328:36354  _amount.mul(_liquidityFee) */\n      swap2\n      swap1\n      0xffffffff\n      and\n      jump\t// in\n        /* \"bitlime-periphery/contracts/Safemoon.sol\":35702:36057  function _takeLiquidity(uint256 tLiquidity) private {\r... */\n    tag_441:\n        /* \"bitlime-periphery/contracts/Safemoon.sol\":35765:35784  uint256 currentRate */\n      0x00\n        /* \"bitlime-periphery/contracts/Safemoon.sol\":35788:35798  _getRate() */\n      tag_473\n        /* \"bitlime-periphery/contracts/Safemoon.sol\":35788:35796  _getRate */\n      tag_208\n        /* \"bitlime-periphery/contracts/Safemoon.sol\":35788:35798  _getRate() */\n      jump\t// in\n    tag_473:\n        /* \"bitlime-periphery/contracts/Safemoon.sol\":35765:35798  uint256 currentRate =  _getRate() */\n      swap1\n      pop\n        /* \"bitlime-periphery/contracts/Safemoon.sol\":35809:35827  uint256 rLiquidity */\n      0x00\n        /* \"bitlime-periphery/contracts/Safemoon.sol\":35830:35857  tLiquidity.mul(currentRate) */\n      tag_474\n        /* \"bitlime-periphery/contracts/Safemoon.sol\":35830:35840  tLiquidity */\n      dup4\n        /* \"bitlime-periphery/contracts/Safemoon.sol\":35765:35798  uint256 currentRate =  _getRate() */\n      dup4\n        /* \"bitlime-periphery/contracts/Safemoon.sol\":35830:35857  tLiquidity.mul(currentRate) */\n      0xffffffff\n        /* \"bitlime-periphery/contracts/Safemoon.sol\":35830:35844  tLiquidity.mul */\n      tag_302\n        /* \"bitlime-periphery/contracts/Safemoon.sol\":35830:35857  tLiquidity.mul(currentRate) */\n      and\n      jump\t// in\n    tag_474:\n        /* \"bitlime-periphery/contracts/Safemoon.sol\":35909:35913  this */\n      address\n        /* \"bitlime-periphery/contracts/Safemoon.sol\":35893:35915  _rOwned[address(this)] */\n      0x00\n      swap1\n      dup2\n      mstore\n        /* \"bitlime-periphery/contracts/Safemoon.sol\":35893:35900  _rOwned */\n      0x03\n        /* \"bitlime-periphery/contracts/Safemoon.sol\":35893:35915  _rOwned[address(this)] */\n      0x20\n      mstore\n      0x40\n      swap1\n      keccak256\n      sload\n        /* \"bitlime-periphery/contracts/Safemoon.sol\":35809:35857  uint256 rLiquidity = tLiquidity.mul(currentRate) */\n      swap1\n      swap2\n      pop\n        /* \"bitlime-periphery/contracts/Safemoon.sol\":35893:35931  _rOwned[address(this)].add(rLiquidity) */\n      tag_475\n      swap1\n        /* \"bitlime-periphery/contracts/Safemoon.sol\":35809:35857  uint256 rLiquidity = tLiquidity.mul(currentRate) */\n      dup3\n        /* \"bitlime-periphery/contracts/Safemoon.sol\":35893:35931  _rOwned[address(this)].add(rLiquidity) */\n      0xffffffff\n        /* \"bitlime-periphery/contracts/Safemoon.sol\":35893:35919  _rOwned[address(this)].add */\n      tag_234\n        /* \"bitlime-periphery/contracts/Safemoon.sol\":35893:35931  _rOwned[address(this)].add(rLiquidity) */\n      and\n      jump\t// in\n    tag_475:\n        /* \"bitlime-periphery/contracts/Safemoon.sol\":35884:35888  this */\n      address\n        /* \"bitlime-periphery/contracts/Safemoon.sol\":35868:35890  _rOwned[address(this)] */\n      0x00\n      swap1\n      dup2\n      mstore\n        /* \"bitlime-periphery/contracts/Safemoon.sol\":35868:35875  _rOwned */\n      0x03\n        /* \"bitlime-periphery/contracts/Safemoon.sol\":35868:35890  _rOwned[address(this)] */\n      0x20\n      swap1\n      dup2\n      mstore\n      0x40\n      dup1\n      dup4\n      keccak256\n        /* \"bitlime-periphery/contracts/Safemoon.sol\":35868:35931  _rOwned[address(this)] = _rOwned[address(this)].add(rLiquidity) */\n      swap4\n      swap1\n      swap4\n      sstore\n        /* \"bitlime-periphery/contracts/Safemoon.sol\":35945:35956  _isExcluded */\n      0x07\n        /* \"bitlime-periphery/contracts/Safemoon.sol\":35945:35971  _isExcluded[address(this)] */\n      swap1\n      mstore\n      keccak256\n      sload\n      0xff\n      and\n        /* \"bitlime-periphery/contracts/Safemoon.sol\":35942:36049  if(_isExcluded[address(this)])\r... */\n      iszero\n      tag_476\n      jumpi\n        /* \"bitlime-periphery/contracts/Safemoon.sol\":36027:36031  this */\n      address\n        /* \"bitlime-periphery/contracts/Safemoon.sol\":36011:36033  _tOwned[address(this)] */\n      0x00\n      swap1\n      dup2\n      mstore\n        /* \"bitlime-periphery/contracts/Safemoon.sol\":36011:36018  _tOwned */\n      0x04\n        /* \"bitlime-periphery/contracts/Safemoon.sol\":36011:36033  _tOwned[address(this)] */\n      0x20\n      mstore\n      0x40\n      swap1\n      keccak256\n      sload\n        /* \"bitlime-periphery/contracts/Safemoon.sol\":36011:36049  _tOwned[address(this)].add(tLiquidity) */\n      tag_477\n      swap1\n        /* \"bitlime-periphery/contracts/Safemoon.sol\":36038:36048  tLiquidity */\n      dup5\n        /* \"bitlime-periphery/contracts/Safemoon.sol\":36011:36049  _tOwned[address(this)].add(tLiquidity) */\n      0xffffffff\n        /* \"bitlime-periphery/contracts/Safemoon.sol\":36011:36037  _tOwned[address(this)].add */\n      tag_234\n        /* \"bitlime-periphery/contracts/Safemoon.sol\":36011:36049  _tOwned[address(this)].add(tLiquidity) */\n      and\n      jump\t// in\n    tag_477:\n        /* \"bitlime-periphery/contracts/Safemoon.sol\":36002:36006  this */\n      address\n        /* \"bitlime-periphery/contracts/Safemoon.sol\":35986:36008  _tOwned[address(this)] */\n      0x00\n      swap1\n      dup2\n      mstore\n        /* \"bitlime-periphery/contracts/Safemoon.sol\":35986:35993  _tOwned */\n      0x04\n        /* \"bitlime-periphery/contracts/Safemoon.sol\":35986:36008  _tOwned[address(this)] */\n      0x20\n      mstore\n      0x40\n      swap1\n      keccak256\n        /* \"bitlime-periphery/contracts/Safemoon.sol\":35986:36049  _tOwned[address(this)] = _tOwned[address(this)].add(tLiquidity) */\n      sstore\n        /* \"bitlime-periphery/contracts/Safemoon.sol\":35942:36049  if(_isExcluded[address(this)])\r... */\n    tag_476:\n        /* \"bitlime-periphery/contracts/Safemoon.sol\":35702:36057  function _takeLiquidity(uint256 tLiquidity) private {\r... */\n      pop\n      pop\n      pop\n      jump\t// out\n        /* \"bitlime-periphery/contracts/Safemoon.sol\":33601:33748  function _reflectFee(uint256 rFee, uint256 tFee) private {\r... */\n    tag_443:\n        /* \"bitlime-periphery/contracts/Safemoon.sol\":33679:33686  _rTotal */\n      sload(0x0a)\n        /* \"bitlime-periphery/contracts/Safemoon.sol\":33679:33696  _rTotal.sub(rFee) */\n      tag_479\n      swap1\n        /* \"bitlime-periphery/contracts/Safemoon.sol\":33691:33695  rFee */\n      dup4\n        /* \"bitlime-periphery/contracts/Safemoon.sol\":33679:33696  _rTotal.sub(rFee) */\n      0xffffffff\n        /* \"bitlime-periphery/contracts/Safemoon.sol\":33679:33690  _rTotal.sub */\n      tag_241\n        /* \"bitlime-periphery/contracts/Safemoon.sol\":33679:33696  _rTotal.sub(rFee) */\n      and\n      jump\t// in\n    tag_479:\n        /* \"bitlime-periphery/contracts/Safemoon.sol\":33669:33676  _rTotal */\n      0x0a\n        /* \"bitlime-periphery/contracts/Safemoon.sol\":33669:33696  _rTotal = _rTotal.sub(rFee) */\n      sstore\n        /* \"bitlime-periphery/contracts/Safemoon.sol\":33720:33730  _tFeeTotal */\n      sload(0x0b)\n        /* \"bitlime-periphery/contracts/Safemoon.sol\":33720:33740  _tFeeTotal.add(tFee) */\n      tag_480\n      swap1\n        /* \"bitlime-periphery/contracts/Safemoon.sol\":33735:33739  tFee */\n      dup3\n        /* \"bitlime-periphery/contracts/Safemoon.sol\":33720:33740  _tFeeTotal.add(tFee) */\n      0xffffffff\n        /* \"bitlime-periphery/contracts/Safemoon.sol\":33720:33734  _tFeeTotal.add */\n      tag_234\n        /* \"bitlime-periphery/contracts/Safemoon.sol\":33720:33740  _tFeeTotal.add(tFee) */\n      and\n      jump\t// in\n    tag_480:\n        /* \"bitlime-periphery/contracts/Safemoon.sol\":33707:33717  _tFeeTotal */\n      0x0b\n        /* \"bitlime-periphery/contracts/Safemoon.sol\":33707:33740  _tFeeTotal = _tFeeTotal.add(tFee) */\n      sstore\n      pop\n      pop\n        /* \"bitlime-periphery/contracts/Safemoon.sol\":33601:33748  function _reflectFee(uint256 rFee, uint256 tFee) private {\r... */\n      jump\t// out\n    stop\n    data_0557e210f7a69a685100a7e4e3d0a7024c546085cee28910fd17d0b081d9516f 45524332303a207472616e7366657220746f20746865207a65726f2061646472657373\n    data_22f7af55a509c3b14f0d528f087748dec8a8bf425135e3f5dc28c6a31ec6d812 416d6f756e74206d757374206265206c657373207468616e20746f74616c207265666c656374696f6e73\n    data_245f15ff17f551913a7a18385165551503906a406f905ac1c2437281a7cd0cfe 4f776e61626c653a206e6577206f776e657220697320746865207a65726f2061646472657373\n    data_24883cc5fe64ace9d0df1893501ecb93c77180f0ff69cca79affb3c316dc8029 45524332303a20617070726f766520746f20746865207a65726f2061646472657373\n    data_72052210969ce5fd88e52b5e685de9548acef9bb1b6d02e29c1765d0674948dd 5472616e7366657220616d6f756e74206578636565647320746865206d61785478416d6f756e742e\n    data_9113bb53c2876a3805b2c9242029423fc540a728243ce887ab24c82cf119fba3 536166654d6174683a206d756c7469706c69636174696f6e206f766572666c6f77\n    data_974d1b4421da69cc60b481194f0dad36a5bb4e23da810da7a7fb30cdba178330 45524332303a207472616e7366657220616d6f756e74206578636565647320616c6c6f77616e6365\n    data_9924ebdf1add33d25d4ef888e16131f0a5687b0580a36c21b5c301a6c462effe 4f776e61626c653a2063616c6c6572206973206e6f7420746865206f776e6572\n    data_9c064737b570a74c2bac5d21056d93ac53115214216cd14d4a0fc9b60be81231 8be0079c531659141344cd1fd0a4f28419497f9722a3daafe3b4186f6b6457e0\n    data_9edb5ab58321f35d2386ea65721c9b107daa2c273610fc16d394af2a320ba785 5472616e7366657220616d6f756e74206d7573742062652067726561746572207468616e207a65726f\n    data_baecc556b46f4ed0f2b4cb599d60785ac8563dd2dc0a5bf12edea1c39e5e1fea 45524332303a207472616e736665722066726f6d20746865207a65726f2061646472657373\n    data_c953f4879035ed60e766b34720f656aab5c697b141d924c283124ecedb91c208 45524332303a20617070726f76652066726f6d20746865207a65726f2061646472657373\n    data_ecefcaf5fbcf9ca6dcdb02298ba1da96f4ead317b0a4779917ecb2e5e7dc3ac4 4578636c75646564206164647265737365732063616e6e6f742063616c6c20746869732066756e6374696f6e\n    data_f4eb59be3df39931213d374c3658377dca3f0d2b46b7bc965af767c57c74b611 596f7520646f6e27742068617665207065726d697373696f6e20746f20756e6c6f636b\n    data_f8b476f7d28209d77d4a4ac1fe36b9f8259aa1bb6bddfa6e89de7e51615cf8a8 45524332303a2064656372656173656420616c6c6f77616e63652062656c6f77207a65726f\n\n    auxdata: 0xa26469706673582212208b7ebc7f265573a75c42c270122e8b8c7efaac7d6c1808595ea2afd3b913860d64736f6c63430006060033\n}\n",
				"bytecode": {
					"linkReferences": {},
					"object": "69d3c21bcecceda100000060095569085afffa6ff50bffffff19600a5560c0604052600860808190526729b0b332a6b7b7b760c11b60a09081526200004891600c919062000241565b506040805180820190915260088082526729a0a322a6a7a7a760c11b60209092019182526200007a91600d9162000241565b50600e805460ff191660091790556005600f819055601081905560118190556012556013805461ff00191661010017905569010f0cf064dd59200000601455681b1ae4d6e2ef500000601555348015620000d357600080fd5b506000620000e96001600160e01b036200022d16565b600080546001600160a01b0319166001600160a01b0383169081178255604051929350917f8be0079c531659141344cd1fd0a4f28419497f9722a3daafe3b4186f6b6457e0908290a350600a54600360006200014d6001600160e01b036200022d16565b6001600160a01b03166001600160a01b0316815260200190815260200160002081905550600160066000620001876200023260201b60201c565b6001600160a01b0316815260208082019290925260409081016000908120805494151560ff199586161790553081526006909252902080549091166001179055620001da6001600160e01b036200022d16565b6001600160a01b031660006001600160a01b03167fddf252ad1be2c89b69c2b068fc378daa952ba7f163c4a11628f55a4df523b3ef6009546040518082815260200191505060405180910390a3620002e3565b335b90565b6000546001600160a01b031690565b828054600181600116156101000203166002900490600052602060002090601f016020900481019282601f106200028457805160ff1916838001178555620002b4565b82800160010185558215620002b4579182015b82811115620002b457825182559160200191906001019062000297565b50620002c2929150620002c6565b5090565b6200022f91905b80821115620002c25760008155600101620002cd565b61267680620002f36000396000f3fe6080604052600436106102085760003560e01c80636bc87c3a11610118578063a69df4b5116100a0578063d543dbeb1161006f578063d543dbeb14610753578063dd4670641461077d578063dd62ed3e146107a7578063ea2f0b37146107e2578063f2fde38b146108155761020f565b8063a69df4b5146106c4578063a9059cbb146106d9578063b6c5232414610712578063c49b9a80146107275761020f565b806388f82020116100e757806388f82020146105e85780638da5cb5b1461061b5780638ee88c531461064c57806395d89b4114610676578063a457c2d71461068b5761020f565b80636bc87c3a1461057657806370a082311461058b578063715018a6146105be5780637d1db4a5146105d35761020f565b80633685d4191161019b578063437823ec1161016a578063437823ec146104965780634549b039146104c95780634a74bb02146104fb57806352390c02146105105780635342acb4146105435761020f565b80633685d419146103eb578063395093511461041e5780633b124fe7146104575780633bd5d1731461046c5761020f565b806318160ddd116101d757806318160ddd1461033e57806323b872dd146103535780632d83811914610396578063313ce567146103c05761020f565b8063061c82d01461021457806306fdde0314610240578063095ea7b3146102ca57806313114a9d146103175761020f565b3661020f57005b600080fd5b34801561022057600080fd5b5061023e6004803603602081101561023757600080fd5b5035610848565b005b34801561024c57600080fd5b506102556108a5565b6040805160208082528351818301528351919283929083019185019080838360005b8381101561028f578181015183820152602001610277565b50505050905090810190601f1680156102bc5780820380516001836020036101000a031916815260200191505b509250505060405180910390f35b3480156102d657600080fd5b50610303600480360360408110156102ed57600080fd5b506001600160a01b03813516906020013561093b565b604080519115158252519081900360200190f35b34801561032357600080fd5b5061032c610959565b60408051918252519081900360200190f35b34801561034a57600080fd5b5061032c61095f565b34801561035f57600080fd5b506103036004803603606081101561037657600080fd5b506001600160a01b03813581169160208101359091169060400135610965565b3480156103a257600080fd5b5061032c600480360360208110156103b957600080fd5b50356109f2565b3480156103cc57600080fd5b506103d5610a5a565b6040805160ff9092168252519081900360200190f35b3480156103f757600080fd5b5061023e6004803603602081101561040e57600080fd5b50356001600160a01b0316610a63565b34801561042a57600080fd5b506103036004803603604081101561044157600080fd5b506001600160a01b038135169060200135610c24565b34801561046357600080fd5b5061032c610c78565b34801561047857600080fd5b5061023e6004803603602081101561048f57600080fd5b5035610c7e565b3480156104a257600080fd5b5061023e600480360360208110156104b957600080fd5b50356001600160a01b0316610d64565b3480156104d557600080fd5b5061032c600480360360408110156104ec57600080fd5b50803590602001351515610de0565b34801561050757600080fd5b50610303610e72565b34801561051c57600080fd5b5061023e6004803603602081101561053357600080fd5b50356001600160a01b0316610e80565b34801561054f57600080fd5b506103036004803603602081101561056657600080fd5b50356001600160a01b0316611006565b34801561058257600080fd5b5061032c611024565b34801561059757600080fd5b5061032c600480360360208110156105ae57600080fd5b50356001600160a01b031661102a565b3480156105ca57600080fd5b5061023e61108c565b3480156105df57600080fd5b5061032c61111c565b3480156105f457600080fd5b506103036004803603602081101561060b57600080fd5b50356001600160a01b0316611122565b34801561062757600080fd5b50610630611140565b604080516001600160a01b039092168252519081900360200190f35b34801561065857600080fd5b5061023e6004803603602081101561066f57600080fd5b503561114f565b34801561068257600080fd5b506102556111ac565b34801561069757600080fd5b50610303600480360360408110156106ae57600080fd5b506001600160a01b03813516906020013561120d565b3480156106d057600080fd5b5061023e61127b565b3480156106e557600080fd5b50610303600480360360408110156106fc57600080fd5b506001600160a01b038135169060200135611369565b34801561071e57600080fd5b5061032c61137d565b34801561073357600080fd5b5061023e6004803603602081101561074a57600080fd5b50351515611383565b34801561075f57600080fd5b5061023e6004803603602081101561077657600080fd5b503561142a565b34801561078957600080fd5b5061023e600480360360208110156107a057600080fd5b50356114ae565b3480156107b357600080fd5b5061032c600480360360408110156107ca57600080fd5b506001600160a01b038135811691602001351661154c565b3480156107ee57600080fd5b5061023e6004803603602081101561080557600080fd5b50356001600160a01b0316611577565b34801561082157600080fd5b5061023e6004803603602081101561083857600080fd5b50356001600160a01b03166115f0565b6108506116d6565b6000546001600160a01b039081169116146108a0576040805162461bcd60e51b8152602060048201819052602482015260008051602061251b833981519152604482015290519081900360640190fd5b600f55565b600c8054604080516020601f60026000196101006001881615020190951694909404938401819004810282018101909252828152606093909290918301828280156109315780601f1061090657610100808354040283529160200191610931565b820191906000526020600020905b81548152906001019060200180831161091457829003601f168201915b5050505050905090565b600061094f6109486116d6565b84846116da565b5060015b92915050565b600b5490565b60095490565b60006109728484846117c6565b6109e88461097e6116d6565b6109e3856040518060600160405280602881526020016124f3602891396001600160a01b038a166000908152600560205260408120906109bc6116d6565b6001600160a01b03168152602081019190915260400160002054919063ffffffff6119c616565b6116da565b5060019392505050565b6000600a54821115610a355760405162461bcd60e51b815260040180806020018281038252602a815260200180612438602a913960400191505060405180910390fd5b6000610a3f611a5d565b9050610a51838263ffffffff611a8616565b9150505b919050565b600e5460ff1690565b610a6b6116d6565b6000546001600160a01b03908116911614610abb576040805162461bcd60e51b8152602060048201819052602482015260008051602061251b833981519152604482015290519081900360640190fd5b6001600160a01b03811660009081526007602052604090205460ff16610b28576040805162461bcd60e51b815260206004820152601b60248201527f4163636f756e7420697320616c7265616479206578636c756465640000000000604482015290519081900360640190fd5b60005b600854811015610c2057816001600160a01b031660088281548110610b4c57fe5b6000918252602090912001546001600160a01b03161415610c1857600880546000198101908110610b7957fe5b600091825260209091200154600880546001600160a01b039092169183908110610b9f57fe5b600091825260208083209190910180546001600160a01b0319166001600160a01b039485161790559184168152600482526040808220829055600790925220805460ff191690556008805480610bf157fe5b600082815260209020810160001990810180546001600160a01b0319169055019055610c20565b600101610b2b565b5050565b600061094f610c316116d6565b846109e38560056000610c426116d6565b6001600160a01b03908116825260208083019390935260409182016000908120918c16815292529020549063ffffffff611acf16565b600f5481565b6000610c886116d6565b6001600160a01b03811660009081526007602052604090205490915060ff1615610ce35760405162461bcd60e51b815260040180806020018281038252602c8152602001806125cd602c913960400191505060405180910390fd5b6000610cee83611b29565b505050506001600160a01b038416600090815260036020526040902054919250610d1a91905082611b78565b6001600160a01b038316600090815260036020526040902055600a54610d46908263ffffffff611b7816565b600a55600b54610d5c908463ffffffff611acf16565b600b55505050565b610d6c6116d6565b6000546001600160a01b03908116911614610dbc576040805162461bcd60e51b8152602060048201819052602482015260008051602061251b833981519152604482015290519081900360640190fd5b6001600160a01b03166000908152600660205260409020805460ff19166001179055565b6000600954831115610e39576040805162461bcd60e51b815260206004820152601f60248201527f416d6f756e74206d757374206265206c657373207468616e20737570706c7900604482015290519081900360640190fd5b81610e58576000610e4984611b29565b50939550610953945050505050565b6000610e6384611b29565b50929550610953945050505050565b601354610100900460ff1681565b610e886116d6565b6000546001600160a01b03908116911614610ed8576040805162461bcd60e51b8152602060048201819052602482015260008051602061251b833981519152604482015290519081900360640190fd5b6001600160a01b03811660009081526007602052604090205460ff1615610f46576040805162461bcd60e51b815260206004820152601b60248201527f4163636f756e7420697320616c7265616479206578636c756465640000000000604482015290519081900360640190fd5b6001600160a01b03811660009081526003602052604090205415610fa0576001600160a01b038116600090815260036020526040902054610f86906109f2565b6001600160a01b0382166000908152600460205260409020555b6001600160a01b03166000818152600760205260408120805460ff191660019081179091556008805491820181559091527ff3f7a9fe364faab93b216da50a3214154f22a0a2b415b23a84c8169e8b636ee30180546001600160a01b0319169091179055565b6001600160a01b031660009081526006602052604090205460ff1690565b60115481565b6001600160a01b03811660009081526007602052604081205460ff161561106a57506001600160a01b038116600090815260046020526040902054610a55565b6001600160a01b038216600090815260036020526040902054610953906109f2565b6110946116d6565b6000546001600160a01b039081169116146110e4576040805162461bcd60e51b8152602060048201819052602482015260008051602061251b833981519152604482015290519081900360640190fd5b600080546040516001600160a01b039091169060008051602061253b833981519152908390a3600080546001600160a01b0319169055565b60145481565b6001600160a01b031660009081526007602052604090205460ff1690565b6000546001600160a01b031690565b6111576116d6565b6000546001600160a01b039081169116146111a7576040805162461bcd60e51b8152602060048201819052602482015260008051602061251b833981519152604482015290519081900360640190fd5b601155565b600d8054604080516020601f60026000196101006001881615020190951694909404938401819004810282018101909252828152606093909290918301828280156109315780601f1061090657610100808354040283529160200191610931565b600061094f61121a6116d6565b846109e38560405180606001604052806025815260200161261c60259139600560006112446116d6565b6001600160a01b03908116825260208083019390935260409182016000908120918d1681529252902054919063ffffffff6119c616565b6001546001600160a01b031633146112c45760405162461bcd60e51b81526004018080602001828103825260238152602001806125f96023913960400191505060405180910390fd5b600254421161131a576040805162461bcd60e51b815260206004820152601f60248201527f436f6e7472616374206973206c6f636b656420756e74696c2037206461797300604482015290519081900360640190fd5b600154600080546040516001600160a01b03938416939091169160008051602061253b83398151915291a3600154600080546001600160a01b0319166001600160a01b03909216919091179055565b600061094f6113766116d6565b84846117c6565b60025490565b61138b6116d6565b6000546001600160a01b039081169116146113db576040805162461bcd60e51b8152602060048201819052602482015260008051602061251b833981519152604482015290519081900360640190fd5b60138054821515610100810261ff00199092169190911790915560408051918252517f53726dfcaf90650aa7eb35524f4d3220f07413c8d6cb404cc8c18bf5591bc1599181900360200190a150565b6114326116d6565b6000546001600160a01b03908116911614611482576040805162461bcd60e51b8152602060048201819052602482015260008051602061251b833981519152604482015290519081900360640190fd5b6114a8606461149c83600954611bba90919063ffffffff16565b9063ffffffff611a8616565b60145550565b6114b66116d6565b6000546001600160a01b03908116911614611506576040805162461bcd60e51b8152602060048201819052602482015260008051602061251b833981519152604482015290519081900360640190fd5b60008054600180546001600160a01b03199081166001600160a01b03841617909155168155428201600255604051819060008051602061253b833981519152908290a350565b6001600160a01b03918216600090815260056020908152604080832093909416825291909152205490565b61157f6116d6565b6000546001600160a01b039081169116146115cf576040805162461bcd60e51b8152602060048201819052602482015260008051602061251b833981519152604482015290519081900360640190fd5b6001600160a01b03166000908152600660205260409020805460ff19169055565b6115f86116d6565b6000546001600160a01b03908116911614611648576040805162461bcd60e51b8152602060048201819052602482015260008051602061251b833981519152604482015290519081900360640190fd5b6001600160a01b03811661168d5760405162461bcd60e51b81526004018080602001828103825260268152602001806124626026913960400191505060405180910390fd5b600080546040516001600160a01b038085169392169160008051602061253b83398151915291a3600080546001600160a01b0319166001600160a01b0392909216919091179055565b3390565b6001600160a01b03831661171f5760405162461bcd60e51b81526004018080602001828103825260248152602001806125a96024913960400191505060405180910390fd5b6001600160a01b0382166117645760405162461bcd60e51b81526004018080602001828103825260228152602001806124886022913960400191505060405180910390fd5b6001600160a01b03808416600081815260056020908152604080832094871680845294825291829020859055815185815291517f8c5be1e5ebec7d5bd14f71427d1e84f3dd0314c0f7b2291e5b200ac8c7c3b9259281900390910190a3505050565b6001600160a01b03831661180b5760405162461bcd60e51b81526004018080602001828103825260258152602001806125846025913960400191505060405180910390fd5b6001600160a01b0382166118505760405162461bcd60e51b81526004018080602001828103825260238152602001806124156023913960400191505060405180910390fd5b6000811161188f5760405162461bcd60e51b815260040180806020018281038252602981526020018061255b6029913960400191505060405180910390fd5b611897611140565b6001600160a01b0316836001600160a01b0316141580156118d157506118bb611140565b6001600160a01b0316826001600160a01b031614155b15611917576014548111156119175760405162461bcd60e51b81526004018080602001828103825260288152602001806124aa6028913960400191505060405180910390fd5b60006119223061102a565b9050601454811061193257506014545b60155481108015908190611949575060135460ff16155b801561195c5750601354610100900460ff165b156119675760155491505b6001600160a01b03851660009081526006602052604090205460019060ff16806119a957506001600160a01b03851660009081526006602052604090205460ff165b156119b2575060005b6119be86868684611c13565b505050505050565b60008184841115611a555760405162461bcd60e51b81526004018080602001828103825283818151815260200191508051906020019080838360005b83811015611a1a578181015183820152602001611a02565b50505050905090810190601f168015611a475780820380516001836020036101000a031916815260200191505b509250505060405180910390fd5b505050900390565b6000806000611a6a611d87565b9092509050611a7f828263ffffffff611a8616565b9250505090565b6000611ac883836040518060400160405280601a81526020017f536166654d6174683a206469766973696f6e206279207a65726f000000000000815250611efc565b9392505050565b600082820183811015611ac8576040805162461bcd60e51b815260206004820152601b60248201527f536166654d6174683a206164646974696f6e206f766572666c6f770000000000604482015290519081900360640190fd5b6000806000806000806000806000611b408a611f61565b9250925092506000806000611b5e8d8686611b59611a5d565b611faf565b919f909e50909c50959a5093985091965092945050505050565b6000611ac883836040518060400160405280601e81526020017f536166654d6174683a207375627472616374696f6e206f766572666c6f7700008152506119c6565b600082611bc957506000610953565b82820282848281611bd657fe5b0414611ac85760405162461bcd60e51b81526004018080602001828103825260218152602001806124d26021913960400191505060405180910390fd5b80611c2057611c20612017565b6001600160a01b03841660009081526007602052604090205460ff168015611c6157506001600160a01b03831660009081526007602052604090205460ff16155b15611c7657611c71848484612049565b611d74565b6001600160a01b03841660009081526007602052604090205460ff16158015611cb757506001600160a01b03831660009081526007602052604090205460ff165b15611cc757611c7184848461217f565b6001600160a01b03841660009081526007602052604090205460ff16158015611d0957506001600160a01b03831660009081526007602052604090205460ff16155b15611d1957611c7184848461223a565b6001600160a01b03841660009081526007602052604090205460ff168015611d5957506001600160a01b03831660009081526007602052604090205460ff165b15611d6957611c71848484612284565b611d7484848461223a565b80611d8157611d81612303565b50505050565b600a546009546000918291825b600854811015611ec457826003600060088481548110611db057fe5b60009182526020808320909101546001600160a01b031683528201929092526040019020541180611e155750816004600060088481548110611dee57fe5b60009182526020808320909101546001600160a01b03168352820192909252604001902054115b15611e2c57600a5460095494509450505050611ef8565b611e726003600060088481548110611e4057fe5b60009182526020808320909101546001600160a01b03168352820192909252604001902054849063ffffffff611b7816565b9250611eba6004600060088481548110611e8857fe5b60009182526020808320909101546001600160a01b03168352820192909252604001902054839063ffffffff611b7816565b9150600101611d94565b50600954600a54611eda9163ffffffff611a8616565b821015611ef257600a54600954935093505050611ef8565b90925090505b9091565b60008183611f4b5760405162461bcd60e51b8152602060048201818152835160248401528351909283926044909101919085019080838360008315611a1a578181015183820152602001611a02565b506000838581611f5757fe5b0495945050505050565b600080600080611f7085612311565b90506000611f7d8661232d565b90506000611fa182611f95898663ffffffff611b7816565b9063ffffffff611b7816565b979296509094509092505050565b6000808080611fc4888663ffffffff611bba16565b90506000611fd8888763ffffffff611bba16565b90506000611fec888863ffffffff611bba16565b9050600061200482611f95868663ffffffff611b7816565b939b939a50919850919650505050505050565b600f541580156120275750601154155b1561203157612047565b600f805460105560118054601255600091829055555b565b60008060008060008061205b87611b29565b6001600160a01b038f16600090815260046020526040902054959b50939950919750955093509150612093908863ffffffff611b7816565b6001600160a01b038a166000908152600460209081526040808320939093556003905220546120c8908763ffffffff611b7816565b6001600160a01b03808b1660009081526003602052604080822093909355908a16815220546120fd908663ffffffff611acf16565b6001600160a01b03891660009081526003602052604090205561211f81612349565b61212984836123e4565b876001600160a01b0316896001600160a01b03167fddf252ad1be2c89b69c2b068fc378daa952ba7f163c4a11628f55a4df523b3ef856040518082815260200191505060405180910390a3505050505050505050565b60008060008060008061219187611b29565b6001600160a01b038f16600090815260036020526040902054959b509399509197509550935091506121c9908763ffffffff611b7816565b6001600160a01b03808b16600090815260036020908152604080832094909455918b16815260049091522054612205908463ffffffff611acf16565b6001600160a01b0389166000908152600460209081526040808320939093556003905220546120fd908663ffffffff611acf16565b60008060008060008061224c87611b29565b6001600160a01b038f16600090815260036020526040902054959b509399509197509550935091506120c8908763ffffffff611b7816565b60008060008060008061229687611b29565b6001600160a01b038f16600090815260046020526040902054959b509399509197509550935091506122ce908863ffffffff611b7816565b6001600160a01b038a166000908152600460209081526040808320939093556003905220546121c9908763ffffffff611b7816565b601054600f55601254601155565b6000610953606461149c600f5485611bba90919063ffffffff16565b6000610953606461149c60115485611bba90919063ffffffff16565b6000612353611a5d565b90506000612367838363ffffffff611bba16565b3060009081526003602052604090205490915061238a908263ffffffff611acf16565b3060009081526003602090815260408083209390935560079052205460ff16156123df57306000908152600460205260409020546123ce908463ffffffff611acf16565b306000908152600460205260409020555b505050565b600a546123f7908363ffffffff611b7816565b600a55600b5461240d908263ffffffff611acf16565b600b55505056fe45524332303a207472616e7366657220746f20746865207a65726f2061646472657373416d6f756e74206d757374206265206c657373207468616e20746f74616c207265666c656374696f6e734f776e61626c653a206e6577206f776e657220697320746865207a65726f206164647265737345524332303a20617070726f766520746f20746865207a65726f20616464726573735472616e7366657220616d6f756e74206578636565647320746865206d61785478416d6f756e742e536166654d6174683a206d756c7469706c69636174696f6e206f766572666c6f7745524332303a207472616e7366657220616d6f756e74206578636565647320616c6c6f77616e63654f776e61626c653a2063616c6c6572206973206e6f7420746865206f776e65728be0079c531659141344cd1fd0a4f28419497f9722a3daafe3b4186f6b6457e05472616e7366657220616d6f756e74206d7573742062652067726561746572207468616e207a65726f45524332303a207472616e736665722066726f6d20746865207a65726f206164647265737345524332303a20617070726f76652066726f6d20746865207a65726f20616464726573734578636c75646564206164647265737365732063616e6e6f742063616c6c20746869732066756e6374696f6e596f7520646f6e27742068617665207065726d697373696f6e20746f20756e6c6f636b45524332303a2064656372656173656420616c6c6f77616e63652062656c6f77207a65726fa26469706673582212208b7ebc7f265573a75c42c270122e8b8c7efaac7d6c1808595ea2afd3b913860d64736f6c63430006060033",
					"opcodes": "PUSH10 0xD3C21BCECCEDA1000000 PUSH1 0x9 SSTORE PUSH10 0x85AFFFA6FF50BFFFFFF NOT PUSH1 0xA SSTORE PUSH1 0xC0 PUSH1 0x40 MSTORE PUSH1 0x8 PUSH1 0x80 DUP2 SWAP1 MSTORE PUSH8 0x29B0B332A6B7B7B7 PUSH1 0xC1 SHL PUSH1 0xA0 SWAP1 DUP2 MSTORE PUSH3 0x48 SWAP2 PUSH1 0xC SWAP2 SWAP1 PUSH3 0x241 JUMP JUMPDEST POP PUSH1 0x40 DUP1 MLOAD DUP1 DUP3 ADD SWAP1 SWAP2 MSTORE PUSH1 0x8 DUP1 DUP3 MSTORE PUSH8 0x29A0A322A6A7A7A7 PUSH1 0xC1 SHL PUSH1 0x20 SWAP1 SWAP3 ADD SWAP2 DUP3 MSTORE PUSH3 0x7A SWAP2 PUSH1 0xD SWAP2 PUSH3 0x241 JUMP JUMPDEST POP PUSH1 0xE DUP1 SLOAD PUSH1 0xFF NOT AND PUSH1 0x9 OR SWAP1 SSTORE PUSH1 0x5 PUSH1 0xF DUP2 SWAP1 SSTORE PUSH1 0x10 DUP2 SWAP1 SSTORE PUSH1 0x11 DUP2 SWAP1 SSTORE PUSH1 0x12 SSTORE PUSH1 0x13 DUP1 SLOAD PUSH2 0xFF00 NOT AND PUSH2 0x100 OR SWAP1 SSTORE PUSH10 0x10F0CF064DD59200000 PUSH1 0x14 SSTORE PUSH9 0x1B1AE4D6E2EF500000 PUSH1 0x15 SSTORE CALLVALUE DUP1 ISZERO PUSH3 0xD3 JUMPI PUSH1 0x0 DUP1 REVERT JUMPDEST POP PUSH1 0x0 PUSH3 0xE9 PUSH1 0x1 PUSH1 0x1 PUSH1 0xE0 SHL SUB PUSH3 0x22D AND JUMP JUMPDEST PUSH1 0x0 DUP1 SLOAD PUSH1 0x1 PUSH1 0x1 PUSH1 0xA0 SHL SUB NOT AND PUSH1 0x1 PUSH1 0x1 PUSH1 0xA0 SHL SUB DUP4 AND SWAP1 DUP2 OR DUP3 SSTORE PUSH1 0x40 MLOAD SWAP3 SWAP4 POP SWAP2 PUSH32 0x8BE0079C531659141344CD1FD0A4F28419497F9722A3DAAFE3B4186F6B6457E0 SWAP1 DUP3 SWAP1 LOG3 POP PUSH1 0xA SLOAD PUSH1 0x3 PUSH1 0x0 PUSH3 0x14D PUSH1 0x1 PUSH1 0x1 PUSH1 0xE0 SHL SUB PUSH3 0x22D AND JUMP JUMPDEST PUSH1 0x1 PUSH1 0x1 PUSH1 0xA0 SHL SUB AND PUSH1 0x1 PUSH1 0x1 PUSH1 0xA0 SHL SUB AND DUP2 MSTORE PUSH1 0x20 ADD SWAP1 DUP2 MSTORE PUSH1 0x20 ADD PUSH1 0x0 KECCAK256 DUP2 SWAP1 SSTORE POP PUSH1 0x1 PUSH1 0x6 PUSH1 0x0 PUSH3 0x187 PUSH3 0x232 PUSH1 0x20 SHL PUSH1 0x20 SHR JUMP JUMPDEST PUSH1 0x1 PUSH1 0x1 PUSH1 0xA0 SHL SUB AND DUP2 MSTORE PUSH1 0x20 DUP1 DUP3 ADD SWAP3 SWAP1 SWAP3 MSTORE PUSH1 0x40 SWAP1 DUP2 ADD PUSH1 0x0 SWAP1 DUP2 KECCAK256 DUP1 SLOAD SWAP5 ISZERO ISZERO PUSH1 0xFF NOT SWAP6 DUP7 AND OR SWAP1 SSTORE ADDRESS DUP2 MSTORE PUSH1 0x6 SWAP1 SWAP3 MSTORE SWAP1 KECCAK256 DUP1 SLOAD SWAP1 SWAP2 AND PUSH1 0x1 OR SWAP1 SSTORE PUSH3 0x1DA PUSH1 0x1 PUSH1 0x1 PUSH1 0xE0 SHL SUB PUSH3 0x22D AND JUMP JUMPDEST PUSH1 0x1 PUSH1 0x1 PUSH1 0xA0 SHL SUB AND PUSH1 0x0 PUSH1 0x1 PUSH1 0x1 PUSH1 0xA0 SHL SUB AND PUSH32 0xDDF252AD1BE2C89B69C2B068FC378DAA952BA7F163C4A11628F55A4DF523B3EF PUSH1 0x9 SLOAD PUSH1 0x40 MLOAD DUP1 DUP3 DUP2 MSTORE PUSH1 0x20 ADD SWAP2 POP POP PUSH1 0x40 MLOAD DUP1 SWAP2 SUB SWAP1 LOG3 PUSH3 0x2E3 JUMP JUMPDEST CALLER JUMPDEST SWAP1 JUMP JUMPDEST PUSH1 0x0 SLOAD PUSH1 0x1 PUSH1 0x1 PUSH1 0xA0 SHL SUB AND SWAP1 JUMP JUMPDEST DUP3 DUP1 SLOAD PUSH1 0x1 DUP2 PUSH1 0x1 AND ISZERO PUSH2 0x100 MUL SUB AND PUSH1 0x2 SWAP1 DIV SWAP1 PUSH1 0x0 MSTORE PUSH1 0x20 PUSH1 0x0 KECCAK256 SWAP1 PUSH1 0x1F ADD PUSH1 0x20 SWAP1 DIV DUP2 ADD SWAP3 DUP3 PUSH1 0x1F LT PUSH3 0x284 JUMPI DUP1 MLOAD PUSH1 0xFF NOT AND DUP4 DUP1 ADD OR DUP6 SSTORE PUSH3 0x2B4 JUMP JUMPDEST DUP3 DUP1 ADD PUSH1 0x1 ADD DUP6 SSTORE DUP3 ISZERO PUSH3 0x2B4 JUMPI SWAP2 DUP3 ADD JUMPDEST DUP3 DUP2 GT ISZERO PUSH3 0x2B4 JUMPI DUP3 MLOAD DUP3 SSTORE SWAP2 PUSH1 0x20 ADD SWAP2 SWAP1 PUSH1 0x1 ADD SWAP1 PUSH3 0x297 JUMP JUMPDEST POP PUSH3 0x2C2 SWAP3 SWAP2 POP PUSH3 0x2C6 JUMP JUMPDEST POP SWAP1 JUMP JUMPDEST PUSH3 0x22F SWAP2 SWAP1 JUMPDEST DUP1 DUP3 GT ISZERO PUSH3 0x2C2 JUMPI PUSH1 0x0 DUP2 SSTORE PUSH1 0x1 ADD PUSH3 0x2CD JUMP JUMPDEST PUSH2 0x2676 DUP1 PUSH3 0x2F3 PUSH1 0x0 CODECOPY PUSH1 0x0 RETURN INVALID PUSH1 0x80 PUSH1 0x40 MSTORE PUSH1 0x4 CALLDATASIZE LT PUSH2 0x208 JUMPI PUSH1 0x0 CALLDATALOAD PUSH1 0xE0 SHR DUP1 PUSH4 0x6BC87C3A GT PUSH2 0x118 JUMPI DUP1 PUSH4 0xA69DF4B5 GT PUSH2 0xA0 JUMPI DUP1 PUSH4 0xD543DBEB GT PUSH2 0x6F JUMPI DUP1 PUSH4 0xD543DBEB EQ PUSH2 0x753 JUMPI DUP1 PUSH4 0xDD467064 EQ PUSH2 0x77D JUMPI DUP1 PUSH4 0xDD62ED3E EQ PUSH2 0x7A7 JUMPI DUP1 PUSH4 0xEA2F0B37 EQ PUSH2 0x7E2 JUMPI DUP1 PUSH4 0xF2FDE38B EQ PUSH2 0x815 JUMPI PUSH2 0x20F JUMP JUMPDEST DUP1 PUSH4 0xA69DF4B5 EQ PUSH2 0x6C4 JUMPI DUP1 PUSH4 0xA9059CBB EQ PUSH2 0x6D9 JUMPI DUP1 PUSH4 0xB6C52324 EQ PUSH2 0x712 JUMPI DUP1 PUSH4 0xC49B9A80 EQ PUSH2 0x727 JUMPI PUSH2 0x20F JUMP JUMPDEST DUP1 PUSH4 0x88F82020 GT PUSH2 0xE7 JUMPI DUP1 PUSH4 0x88F82020 EQ PUSH2 0x5E8 JUMPI DUP1 PUSH4 0x8DA5CB5B EQ PUSH2 0x61B JUMPI DUP1 PUSH4 0x8EE88C53 EQ PUSH2 0x64C JUMPI DUP1 PUSH4 0x95D89B41 EQ PUSH2 0x676 JUMPI DUP1 PUSH4 0xA457C2D7 EQ PUSH2 0x68B JUMPI PUSH2 0x20F JUMP JUMPDEST DUP1 PUSH4 0x6BC87C3A EQ PUSH2 0x576 JUMPI DUP1 PUSH4 0x70A08231 EQ PUSH2 0x58B JUMPI DUP1 PUSH4 0x715018A6 EQ PUSH2 0x5BE JUMPI DUP1 PUSH4 0x7D1DB4A5 EQ PUSH2 0x5D3 JUMPI PUSH2 0x20F JUMP JUMPDEST DUP1 PUSH4 0x3685D419 GT PUSH2 0x19B JUMPI DUP1 PUSH4 0x437823EC GT PUSH2 0x16A JUMPI DUP1 PUSH4 0x437823EC EQ PUSH2 0x496 JUMPI DUP1 PUSH4 0x4549B039 EQ PUSH2 0x4C9 JUMPI DUP1 PUSH4 0x4A74BB02 EQ PUSH2 0x4FB JUMPI DUP1 PUSH4 0x52390C02 EQ PUSH2 0x510 JUMPI DUP1 PUSH4 0x5342ACB4 EQ PUSH2 0x543 JUMPI PUSH2 0x20F JUMP JUMPDEST DUP1 PUSH4 0x3685D419 EQ PUSH2 0x3EB JUMPI DUP1 PUSH4 0x39509351 EQ PUSH2 0x41E JUMPI DUP1 PUSH4 0x3B124FE7 EQ PUSH2 0x457 JUMPI DUP1 PUSH4 0x3BD5D173 EQ PUSH2 0x46C JUMPI PUSH2 0x20F JUMP JUMPDEST DUP1 PUSH4 0x18160DDD GT PUSH2 0x1D7 JUMPI DUP1 PUSH4 0x18160DDD EQ PUSH2 0x33E JUMPI DUP1 PUSH4 0x23B872DD EQ PUSH2 0x353 JUMPI DUP1 PUSH4 0x2D838119 EQ PUSH2 0x396 JUMPI DUP1 PUSH4 0x313CE567 EQ PUSH2 0x3C0 JUMPI PUSH2 0x20F JUMP JUMPDEST DUP1 PUSH4 0x61C82D0 EQ PUSH2 0x214 JUMPI DUP1 PUSH4 0x6FDDE03 EQ PUSH2 0x240 JUMPI DUP1 PUSH4 0x95EA7B3 EQ PUSH2 0x2CA JUMPI DUP1 PUSH4 0x13114A9D EQ PUSH2 0x317 JUMPI PUSH2 0x20F JUMP JUMPDEST CALLDATASIZE PUSH2 0x20F JUMPI STOP JUMPDEST PUSH1 0x0 DUP1 REVERT JUMPDEST CALLVALUE DUP1 ISZERO PUSH2 0x220 JUMPI PUSH1 0x0 DUP1 REVERT JUMPDEST POP PUSH2 0x23E PUSH1 0x4 DUP1 CALLDATASIZE SUB PUSH1 0x20 DUP2 LT ISZERO PUSH2 0x237 JUMPI PUSH1 0x0 DUP1 REVERT JUMPDEST POP CALLDATALOAD PUSH2 0x848 JUMP JUMPDEST STOP JUMPDEST CALLVALUE DUP1 ISZERO PUSH2 0x24C JUMPI PUSH1 0x0 DUP1 REVERT JUMPDEST POP PUSH2 0x255 PUSH2 0x8A5 JUMP JUMPDEST PUSH1 0x40 DUP1 MLOAD PUSH1 0x20 DUP1 DUP3 MSTORE DUP4 MLOAD DUP2 DUP4 ADD MSTORE DUP4 MLOAD SWAP2 SWAP3 DUP4 SWAP3 SWAP1 DUP4 ADD SWAP2 DUP6 ADD SWAP1 DUP1 DUP4 DUP4 PUSH1 0x0 JUMPDEST DUP4 DUP2 LT ISZERO PUSH2 0x28F JUMPI DUP2 DUP2 ADD MLOAD DUP4 DUP3 ADD MSTORE PUSH1 0x20 ADD PUSH2 0x277 JUMP JUMPDEST POP POP POP POP SWAP1 POP SWAP1 DUP2 ADD SWAP1 PUSH1 0x1F AND DUP1 ISZERO PUSH2 0x2BC JUMPI DUP1 DUP3 SUB DUP1 MLOAD PUSH1 0x1 DUP4 PUSH1 0x20 SUB PUSH2 0x100 EXP SUB NOT AND DUP2 MSTORE PUSH1 0x20 ADD SWAP2 POP JUMPDEST POP SWAP3 POP POP POP PUSH1 0x40 MLOAD DUP1 SWAP2 SUB SWAP1 RETURN JUMPDEST CALLVALUE DUP1 ISZERO PUSH2 0x2D6 JUMPI PUSH1 0x0 DUP1 REVERT JUMPDEST POP PUSH2 0x303 PUSH1 0x4 DUP1 CALLDATASIZE SUB PUSH1 0x40 DUP2 LT ISZERO PUSH2 0x2ED JUMPI PUSH1 0x0 DUP1 REVERT JUMPDEST POP PUSH1 0x1 PUSH1 0x1 PUSH1 0xA0 SHL SUB DUP2 CALLDATALOAD AND SWAP1 PUSH1 0x20 ADD CALLDATALOAD PUSH2 0x93B JUMP JUMPDEST PUSH1 0x40 DUP1 MLOAD SWAP2 ISZERO ISZERO DUP3 MSTORE MLOAD SWAP1 DUP2 SWAP1 SUB PUSH1 0x20 ADD SWAP1 RETURN JUMPDEST CALLVALUE DUP1 ISZERO PUSH2 0x323 JUMPI PUSH1 0x0 DUP1 REVERT JUMPDEST POP PUSH2 0x32C PUSH2 0x959 JUMP JUMPDEST PUSH1 0x40 DUP1 MLOAD SWAP2 DUP3 MSTORE MLOAD SWAP1 DUP2 SWAP1 SUB PUSH1 0x20 ADD SWAP1 RETURN JUMPDEST CALLVALUE DUP1 ISZERO PUSH2 0x34A JUMPI PUSH1 0x0 DUP1 REVERT JUMPDEST POP PUSH2 0x32C PUSH2 0x95F JUMP JUMPDEST CALLVALUE DUP1 ISZERO PUSH2 0x35F JUMPI PUSH1 0x0 DUP1 REVERT JUMPDEST POP PUSH2 0x303 PUSH1 0x4 DUP1 CALLDATASIZE SUB PUSH1 0x60 DUP2 LT ISZERO PUSH2 0x376 JUMPI PUSH1 0x0 DUP1 REVERT JUMPDEST POP PUSH1 0x1 PUSH1 0x1 PUSH1 0xA0 SHL SUB DUP2 CALLDATALOAD DUP2 AND SWAP2 PUSH1 0x20 DUP2 ADD CALLDATALOAD SWAP1 SWAP2 AND SWAP1 PUSH1 0x40 ADD CALLDATALOAD PUSH2 0x965 JUMP JUMPDEST CALLVALUE DUP1 ISZERO PUSH2 0x3A2 JUMPI PUSH1 0x0 DUP1 REVERT JUMPDEST POP PUSH2 0x32C PUSH1 0x4 DUP1 CALLDATASIZE SUB PUSH1 0x20 DUP2 LT ISZERO PUSH2 0x3B9 JUMPI PUSH1 0x0 DUP1 REVERT JUMPDEST POP CALLDATALOAD PUSH2 0x9F2 JUMP JUMPDEST CALLVALUE DUP1 ISZERO PUSH2 0x3CC JUMPI PUSH1 0x0 DUP1 REVERT JUMPDEST POP PUSH2 0x3D5 PUSH2 0xA5A JUMP JUMPDEST PUSH1 0x40 DUP1 MLOAD PUSH1 0xFF SWAP1 SWAP3 AND DUP3 MSTORE MLOAD SWAP1 DUP2 SWAP1 SUB PUSH1 0x20 ADD SWAP1 RETURN JUMPDEST CALLVALUE DUP1 ISZERO PUSH2 0x3F7 JUMPI PUSH1 0x0 DUP1 REVERT JUMPDEST POP PUSH2 0x23E PUSH1 0x4 DUP1 CALLDATASIZE SUB PUSH1 0x20 DUP2 LT ISZERO PUSH2 0x40E JUMPI PUSH1 0x0 DUP1 REVERT JUMPDEST POP CALLDATALOAD PUSH1 0x1 PUSH1 0x1 PUSH1 0xA0 SHL SUB AND PUSH2 0xA63 JUMP JUMPDEST CALLVALUE DUP1 ISZERO PUSH2 0x42A JUMPI PUSH1 0x0 DUP1 REVERT JUMPDEST POP PUSH2 0x303 PUSH1 0x4 DUP1 CALLDATASIZE SUB PUSH1 0x40 DUP2 LT ISZERO PUSH2 0x441 JUMPI PUSH1 0x0 DUP1 REVERT JUMPDEST POP PUSH1 0x1 PUSH1 0x1 PUSH1 0xA0 SHL SUB DUP2 CALLDATALOAD AND SWAP1 PUSH1 0x20 ADD CALLDATALOAD PUSH2 0xC24 JUMP JUMPDEST CALLVALUE DUP1 ISZERO PUSH2 0x463 JUMPI PUSH1 0x0 DUP1 REVERT JUMPDEST POP PUSH2 0x32C PUSH2 0xC78 JUMP JUMPDEST CALLVALUE DUP1 ISZERO PUSH2 0x478 JUMPI PUSH1 0x0 DUP1 REVERT JUMPDEST POP PUSH2 0x23E PUSH1 0x4 DUP1 CALLDATASIZE SUB PUSH1 0x20 DUP2 LT ISZERO PUSH2 0x48F JUMPI PUSH1 0x0 DUP1 REVERT JUMPDEST POP CALLDATALOAD PUSH2 0xC7E JUMP JUMPDEST CALLVALUE DUP1 ISZERO PUSH2 0x4A2 JUMPI PUSH1 0x0 DUP1 REVERT JUMPDEST POP PUSH2 0x23E PUSH1 0x4 DUP1 CALLDATASIZE SUB PUSH1 0x20 DUP2 LT ISZERO PUSH2 0x4B9 JUMPI PUSH1 0x0 DUP1 REVERT JUMPDEST POP CALLDATALOAD PUSH1 0x1 PUSH1 0x1 PUSH1 0xA0 SHL SUB AND PUSH2 0xD64 JUMP JUMPDEST CALLVALUE DUP1 ISZERO PUSH2 0x4D5 JUMPI PUSH1 0x0 DUP1 REVERT JUMPDEST POP PUSH2 0x32C PUSH1 0x4 DUP1 CALLDATASIZE SUB PUSH1 0x40 DUP2 LT ISZERO PUSH2 0x4EC JUMPI PUSH1 0x0 DUP1 REVERT JUMPDEST POP DUP1 CALLDATALOAD SWAP1 PUSH1 0x20 ADD CALLDATALOAD ISZERO ISZERO PUSH2 0xDE0 JUMP JUMPDEST CALLVALUE DUP1 ISZERO PUSH2 0x507 JUMPI PUSH1 0x0 DUP1 REVERT JUMPDEST POP PUSH2 0x303 PUSH2 0xE72 JUMP JUMPDEST CALLVALUE DUP1 ISZERO PUSH2 0x51C JUMPI PUSH1 0x0 DUP1 REVERT JUMPDEST POP PUSH2 0x23E PUSH1 0x4 DUP1 CALLDATASIZE SUB PUSH1 0x20 DUP2 LT ISZERO PUSH2 0x533 JUMPI PUSH1 0x0 DUP1 REVERT JUMPDEST POP CALLDATALOAD PUSH1 0x1 PUSH1 0x1 PUSH1 0xA0 SHL SUB AND PUSH2 0xE80 JUMP JUMPDEST CALLVALUE DUP1 ISZERO PUSH2 0x54F JUMPI PUSH1 0x0 DUP1 REVERT JUMPDEST POP PUSH2 0x303 PUSH1 0x4 DUP1 CALLDATASIZE SUB PUSH1 0x20 DUP2 LT ISZERO PUSH2 0x566 JUMPI PUSH1 0x0 DUP1 REVERT JUMPDEST POP CALLDATALOAD PUSH1 0x1 PUSH1 0x1 PUSH1 0xA0 SHL SUB AND PUSH2 0x1006 JUMP JUMPDEST CALLVALUE DUP1 ISZERO PUSH2 0x582 JUMPI PUSH1 0x0 DUP1 REVERT JUMPDEST POP PUSH2 0x32C PUSH2 0x1024 JUMP JUMPDEST CALLVALUE DUP1 ISZERO PUSH2 0x597 JUMPI PUSH1 0x0 DUP1 REVERT JUMPDEST POP PUSH2 0x32C PUSH1 0x4 DUP1 CALLDATASIZE SUB PUSH1 0x20 DUP2 LT ISZERO PUSH2 0x5AE JUMPI PUSH1 0x0 DUP1 REVERT JUMPDEST POP CALLDATALOAD PUSH1 0x1 PUSH1 0x1 PUSH1 0xA0 SHL SUB AND PUSH2 0x102A JUMP JUMPDEST CALLVALUE DUP1 ISZERO PUSH2 0x5CA JUMPI PUSH1 0x0 DUP1 REVERT JUMPDEST POP PUSH2 0x23E PUSH2 0x108C JUMP JUMPDEST CALLVALUE DUP1 ISZERO PUSH2 0x5DF JUMPI PUSH1 0x0 DUP1 REVERT JUMPDEST POP PUSH2 0x32C PUSH2 0x111C JUMP JUMPDEST CALLVALUE DUP1 ISZERO PUSH2 0x5F4 JUMPI PUSH1 0x0 DUP1 REVERT JUMPDEST POP PUSH2 0x303 PUSH1 0x4 DUP1 CALLDATASIZE SUB PUSH1 0x20 DUP2 LT ISZERO PUSH2 0x60B JUMPI PUSH1 0x0 DUP1 REVERT JUMPDEST POP CALLDATALOAD PUSH1 0x1 PUSH1 0x1 PUSH1 0xA0 SHL SUB AND PUSH2 0x1122 JUMP JUMPDEST CALLVALUE DUP1 ISZERO PUSH2 0x627 JUMPI PUSH1 0x0 DUP1 REVERT JUMPDEST POP PUSH2 0x630 PUSH2 0x1140 JUMP JUMPDEST PUSH1 0x40 DUP1 MLOAD PUSH1 0x1 PUSH1 0x1 PUSH1 0xA0 SHL SUB SWAP1 SWAP3 AND DUP3 MSTORE MLOAD SWAP1 DUP2 SWAP1 SUB PUSH1 0x20 ADD SWAP1 RETURN JUMPDEST CALLVALUE DUP1 ISZERO PUSH2 0x658 JUMPI PUSH1 0x0 DUP1 REVERT JUMPDEST POP PUSH2 0x23E PUSH1 0x4 DUP1 CALLDATASIZE SUB PUSH1 0x20 DUP2 LT ISZERO PUSH2 0x66F JUMPI PUSH1 0x0 DUP1 REVERT JUMPDEST POP CALLDATALOAD PUSH2 0x114F JUMP JUMPDEST CALLVALUE DUP1 ISZERO PUSH2 0x682 JUMPI PUSH1 0x0 DUP1 REVERT JUMPDEST POP PUSH2 0x255 PUSH2 0x11AC JUMP JUMPDEST CALLVALUE DUP1 ISZERO PUSH2 0x697 JUMPI PUSH1 0x0 DUP1 REVERT JUMPDEST POP PUSH2 0x303 PUSH1 0x4 DUP1 CALLDATASIZE SUB PUSH1 0x40 DUP2 LT ISZERO PUSH2 0x6AE JUMPI PUSH1 0x0 DUP1 REVERT JUMPDEST POP PUSH1 0x1 PUSH1 0x1 PUSH1 0xA0 SHL SUB DUP2 CALLDATALOAD AND SWAP1 PUSH1 0x20 ADD CALLDATALOAD PUSH2 0x120D JUMP JUMPDEST CALLVALUE DUP1 ISZERO PUSH2 0x6D0 JUMPI PUSH1 0x0 DUP1 REVERT JUMPDEST POP PUSH2 0x23E PUSH2 0x127B JUMP JUMPDEST CALLVALUE DUP1 ISZERO PUSH2 0x6E5 JUMPI PUSH1 0x0 DUP1 REVERT JUMPDEST POP PUSH2 0x303 PUSH1 0x4 DUP1 CALLDATASIZE SUB PUSH1 0x40 DUP2 LT ISZERO PUSH2 0x6FC JUMPI PUSH1 0x0 DUP1 REVERT JUMPDEST POP PUSH1 0x1 PUSH1 0x1 PUSH1 0xA0 SHL SUB DUP2 CALLDATALOAD AND SWAP1 PUSH1 0x20 ADD CALLDATALOAD PUSH2 0x1369 JUMP JUMPDEST CALLVALUE DUP1 ISZERO PUSH2 0x71E JUMPI PUSH1 0x0 DUP1 REVERT JUMPDEST POP PUSH2 0x32C PUSH2 0x137D JUMP JUMPDEST CALLVALUE DUP1 ISZERO PUSH2 0x733 JUMPI PUSH1 0x0 DUP1 REVERT JUMPDEST POP PUSH2 0x23E PUSH1 0x4 DUP1 CALLDATASIZE SUB PUSH1 0x20 DUP2 LT ISZERO PUSH2 0x74A JUMPI PUSH1 0x0 DUP1 REVERT JUMPDEST POP CALLDATALOAD ISZERO ISZERO PUSH2 0x1383 JUMP JUMPDEST CALLVALUE DUP1 ISZERO PUSH2 0x75F JUMPI PUSH1 0x0 DUP1 REVERT JUMPDEST POP PUSH2 0x23E PUSH1 0x4 DUP1 CALLDATASIZE SUB PUSH1 0x20 DUP2 LT ISZERO PUSH2 0x776 JUMPI PUSH1 0x0 DUP1 REVERT JUMPDEST POP CALLDATALOAD PUSH2 0x142A JUMP JUMPDEST CALLVALUE DUP1 ISZERO PUSH2 0x789 JUMPI PUSH1 0x0 DUP1 REVERT JUMPDEST POP PUSH2 0x23E PUSH1 0x4 DUP1 CALLDATASIZE SUB PUSH1 0x20 DUP2 LT ISZERO PUSH2 0x7A0 JUMPI PUSH1 0x0 DUP1 REVERT JUMPDEST POP CALLDATALOAD PUSH2 0x14AE JUMP JUMPDEST CALLVALUE DUP1 ISZERO PUSH2 0x7B3 JUMPI PUSH1 0x0 DUP1 REVERT JUMPDEST POP PUSH2 0x32C PUSH1 0x4 DUP1 CALLDATASIZE SUB PUSH1 0x40 DUP2 LT ISZERO PUSH2 0x7CA JUMPI PUSH1 0x0 DUP1 REVERT JUMPDEST POP PUSH1 0x1 PUSH1 0x1 PUSH1 0xA0 SHL SUB DUP2 CALLDATALOAD DUP2 AND SWAP2 PUSH1 0x20 ADD CALLDATALOAD AND PUSH2 0x154C JUMP JUMPDEST CALLVALUE DUP1 ISZERO PUSH2 0x7EE JUMPI PUSH1 0x0 DUP1 REVERT JUMPDEST POP PUSH2 0x23E PUSH1 0x4 DUP1 CALLDATASIZE SUB PUSH1 0x20 DUP2 LT ISZERO PUSH2 0x805 JUMPI PUSH1 0x0 DUP1 REVERT JUMPDEST POP CALLDATALOAD PUSH1 0x1 PUSH1 0x1 PUSH1 0xA0 SHL SUB AND PUSH2 0x1577 JUMP JUMPDEST CALLVALUE DUP1 ISZERO PUSH2 0x821 JUMPI PUSH1 0x0 DUP1 REVERT JUMPDEST POP PUSH2 0x23E PUSH1 0x4 DUP1 CALLDATASIZE SUB PUSH1 0x20 DUP2 LT ISZERO PUSH2 0x838 JUMPI PUSH1 0x0 DUP1 REVERT JUMPDEST POP CALLDATALOAD PUSH1 0x1 PUSH1 0x1 PUSH1 0xA0 SHL SUB AND PUSH2 0x15F0 JUMP JUMPDEST PUSH2 0x850 PUSH2 0x16D6 JUMP JUMPDEST PUSH1 0x0 SLOAD PUSH1 0x1 PUSH1 0x1 PUSH1 0xA0 SHL SUB SWAP1 DUP2 AND SWAP2 AND EQ PUSH2 0x8A0 JUMPI PUSH1 0x40 DUP1 MLOAD PUSH3 0x461BCD PUSH1 0xE5 SHL DUP2 MSTORE PUSH1 0x20 PUSH1 0x4 DUP3 ADD DUP2 SWAP1 MSTORE PUSH1 0x24 DUP3 ADD MSTORE PUSH1 0x0 DUP1 MLOAD PUSH1 0x20 PUSH2 0x251B DUP4 CODECOPY DUP2 MLOAD SWAP2 MSTORE PUSH1 0x44 DUP3 ADD MSTORE SWAP1 MLOAD SWAP1 DUP2 SWAP1 SUB PUSH1 0x64 ADD SWAP1 REVERT JUMPDEST PUSH1 0xF SSTORE JUMP JUMPDEST PUSH1 0xC DUP1 SLOAD PUSH1 0x40 DUP1 MLOAD PUSH1 0x20 PUSH1 0x1F PUSH1 0x2 PUSH1 0x0 NOT PUSH2 0x100 PUSH1 0x1 DUP9 AND ISZERO MUL ADD SWAP1 SWAP6 AND SWAP5 SWAP1 SWAP5 DIV SWAP4 DUP5 ADD DUP2 SWAP1 DIV DUP2 MUL DUP3 ADD DUP2 ADD SWAP1 SWAP3 MSTORE DUP3 DUP2 MSTORE PUSH1 0x60 SWAP4 SWAP1 SWAP3 SWAP1 SWAP2 DUP4 ADD DUP3 DUP3 DUP1 ISZERO PUSH2 0x931 JUMPI DUP1 PUSH1 0x1F LT PUSH2 0x906 JUMPI PUSH2 0x100 DUP1 DUP4 SLOAD DIV MUL DUP4 MSTORE SWAP2 PUSH1 0x20 ADD SWAP2 PUSH2 0x931 JUMP JUMPDEST DUP3 ADD SWAP2 SWAP1 PUSH1 0x0 MSTORE PUSH1 0x20 PUSH1 0x0 KECCAK256 SWAP1 JUMPDEST DUP2 SLOAD DUP2 MSTORE SWAP1 PUSH1 0x1 ADD SWAP1 PUSH1 0x20 ADD DUP1 DUP4 GT PUSH2 0x914 JUMPI DUP3 SWAP1 SUB PUSH1 0x1F AND DUP3 ADD SWAP2 JUMPDEST POP POP POP POP POP SWAP1 POP SWAP1 JUMP JUMPDEST PUSH1 0x0 PUSH2 0x94F PUSH2 0x948 PUSH2 0x16D6 JUMP JUMPDEST DUP5 DUP5 PUSH2 0x16DA JUMP JUMPDEST POP PUSH1 0x1 JUMPDEST SWAP3 SWAP2 POP POP JUMP JUMPDEST PUSH1 0xB SLOAD SWAP1 JUMP JUMPDEST PUSH1 0x9 SLOAD SWAP1 JUMP JUMPDEST PUSH1 0x0 PUSH2 0x972 DUP5 DUP5 DUP5 PUSH2 0x17C6 JUMP JUMPDEST PUSH2 0x9E8 DUP5 PUSH2 0x97E PUSH2 0x16D6 JUMP JUMPDEST PUSH2 0x9E3 DUP6 PUSH1 0x40 MLOAD DUP1 PUSH1 0x60 ADD PUSH1 0x40 MSTORE DUP1 PUSH1 0x28 DUP2 MSTORE PUSH1 0x20 ADD PUSH2 0x24F3 PUSH1 0x28 SWAP2 CODECOPY PUSH1 0x1 PUSH1 0x1 PUSH1 0xA0 SHL SUB DUP11 AND PUSH1 0x0 SWAP1 DUP2 MSTORE PUSH1 0x5 PUSH1 0x20 MSTORE PUSH1 0x40 DUP2 KECCAK256 SWAP1 PUSH2 0x9BC PUSH2 0x16D6 JUMP JUMPDEST PUSH1 0x1 PUSH1 0x1 PUSH1 0xA0 SHL SUB AND DUP2 MSTORE PUSH1 0x20 DUP2 ADD SWAP2 SWAP1 SWAP2 MSTORE PUSH1 0x40 ADD PUSH1 0x0 KECCAK256 SLOAD SWAP2 SWAP1 PUSH4 0xFFFFFFFF PUSH2 0x19C6 AND JUMP JUMPDEST PUSH2 0x16DA JUMP JUMPDEST POP PUSH1 0x1 SWAP4 SWAP3 POP POP POP JUMP JUMPDEST PUSH1 0x0 PUSH1 0xA SLOAD DUP3 GT ISZERO PUSH2 0xA35 JUMPI PUSH1 0x40 MLOAD PUSH3 0x461BCD PUSH1 0xE5 SHL DUP2 MSTORE PUSH1 0x4 ADD DUP1 DUP1 PUSH1 0x20 ADD DUP3 DUP2 SUB DUP3 MSTORE PUSH1 0x2A DUP2 MSTORE PUSH1 0x20 ADD DUP1 PUSH2 0x2438 PUSH1 0x2A SWAP2 CODECOPY PUSH1 0x40 ADD SWAP2 POP POP PUSH1 0x40 MLOAD DUP1 SWAP2 SUB SWAP1 REVERT JUMPDEST PUSH1 0x0 PUSH2 0xA3F PUSH2 0x1A5D JUMP JUMPDEST SWAP1 POP PUSH2 0xA51 DUP4 DUP3 PUSH4 0xFFFFFFFF PUSH2 0x1A86 AND JUMP JUMPDEST SWAP2 POP POP JUMPDEST SWAP2 SWAP1 POP JUMP JUMPDEST PUSH1 0xE SLOAD PUSH1 0xFF AND SWAP1 JUMP JUMPDEST PUSH2 0xA6B PUSH2 0x16D6 JUMP JUMPDEST PUSH1 0x0 SLOAD PUSH1 0x1 PUSH1 0x1 PUSH1 0xA0 SHL SUB SWAP1 DUP2 AND SWAP2 AND EQ PUSH2 0xABB JUMPI PUSH1 0x40 DUP1 MLOAD PUSH3 0x461BCD PUSH1 0xE5 SHL DUP2 MSTORE PUSH1 0x20 PUSH1 0x4 DUP3 ADD DUP2 SWAP1 MSTORE PUSH1 0x24 DUP3 ADD MSTORE PUSH1 0x0 DUP1 MLOAD PUSH1 0x20 PUSH2 0x251B DUP4 CODECOPY DUP2 MLOAD SWAP2 MSTORE PUSH1 0x44 DUP3 ADD MSTORE SWAP1 MLOAD SWAP1 DUP2 SWAP1 SUB PUSH1 0x64 ADD SWAP1 REVERT JUMPDEST PUSH1 0x1 PUSH1 0x1 PUSH1 0xA0 SHL SUB DUP2 AND PUSH1 0x0 SWAP1 DUP2 MSTORE PUSH1 0x7 PUSH1 0x20 MSTORE PUSH1 0x40 SWAP1 KECCAK256 SLOAD PUSH1 0xFF AND PUSH2 0xB28 JUMPI PUSH1 0x40 DUP1 MLOAD PUSH3 0x461BCD PUSH1 0xE5 SHL DUP2 MSTORE PUSH1 0x20 PUSH1 0x4 DUP3 ADD MSTORE PUSH1 0x1B PUSH1 0x24 DUP3 ADD MSTORE PUSH32 0x4163636F756E7420697320616C7265616479206578636C756465640000000000 PUSH1 0x44 DUP3 ADD MSTORE SWAP1 MLOAD SWAP1 DUP2 SWAP1 SUB PUSH1 0x64 ADD SWAP1 REVERT JUMPDEST PUSH1 0x0 JUMPDEST PUSH1 0x8 SLOAD DUP2 LT ISZERO PUSH2 0xC20 JUMPI DUP2 PUSH1 0x1 PUSH1 0x1 PUSH1 0xA0 SHL SUB AND PUSH1 0x8 DUP3 DUP2 SLOAD DUP2 LT PUSH2 0xB4C JUMPI INVALID JUMPDEST PUSH1 0x0 SWAP2 DUP3 MSTORE PUSH1 0x20 SWAP1 SWAP2 KECCAK256 ADD SLOAD PUSH1 0x1 PUSH1 0x1 PUSH1 0xA0 SHL SUB AND EQ ISZERO PUSH2 0xC18 JUMPI PUSH1 0x8 DUP1 SLOAD PUSH1 0x0 NOT DUP2 ADD SWAP1 DUP2 LT PUSH2 0xB79 JUMPI INVALID JUMPDEST PUSH1 0x0 SWAP2 DUP3 MSTORE PUSH1 0x20 SWAP1 SWAP2 KECCAK256 ADD SLOAD PUSH1 0x8 DUP1 SLOAD PUSH1 0x1 PUSH1 0x1 PUSH1 0xA0 SHL SUB SWAP1 SWAP3 AND SWAP2 DUP4 SWAP1 DUP2 LT PUSH2 0xB9F JUMPI INVALID JUMPDEST PUSH1 0x0 SWAP2 DUP3 MSTORE PUSH1 0x20 DUP1 DUP4 KECCAK256 SWAP2 SWAP1 SWAP2 ADD DUP1 SLOAD PUSH1 0x1 PUSH1 0x1 PUSH1 0xA0 SHL SUB NOT AND PUSH1 0x1 PUSH1 0x1 PUSH1 0xA0 SHL SUB SWAP5 DUP6 AND OR SWAP1 SSTORE SWAP2 DUP5 AND DUP2 MSTORE PUSH1 0x4 DUP3 MSTORE PUSH1 0x40 DUP1 DUP3 KECCAK256 DUP3 SWAP1 SSTORE PUSH1 0x7 SWAP1 SWAP3 MSTORE KECCAK256 DUP1 SLOAD PUSH1 0xFF NOT AND SWAP1 SSTORE PUSH1 0x8 DUP1 SLOAD DUP1 PUSH2 0xBF1 JUMPI INVALID JUMPDEST PUSH1 0x0 DUP3 DUP2 MSTORE PUSH1 0x20 SWAP1 KECCAK256 DUP2 ADD PUSH1 0x0 NOT SWAP1 DUP2 ADD DUP1 SLOAD PUSH1 0x1 PUSH1 0x1 PUSH1 0xA0 SHL SUB NOT AND SWAP1 SSTORE ADD SWAP1 SSTORE PUSH2 0xC20 JUMP JUMPDEST PUSH1 0x1 ADD PUSH2 0xB2B JUMP JUMPDEST POP POP JUMP JUMPDEST PUSH1 0x0 PUSH2 0x94F PUSH2 0xC31 PUSH2 0x16D6 JUMP JUMPDEST DUP5 PUSH2 0x9E3 DUP6 PUSH1 0x5 PUSH1 0x0 PUSH2 0xC42 PUSH2 0x16D6 JUMP JUMPDEST PUSH1 0x1 PUSH1 0x1 PUSH1 0xA0 SHL SUB SWAP1 DUP2 AND DUP3 MSTORE PUSH1 0x20 DUP1 DUP4 ADD SWAP4 SWAP1 SWAP4 MSTORE PUSH1 0x40 SWAP2 DUP3 ADD PUSH1 0x0 SWAP1 DUP2 KECCAK256 SWAP2 DUP13 AND DUP2 MSTORE SWAP3 MSTORE SWAP1 KECCAK256 SLOAD SWAP1 PUSH4 0xFFFFFFFF PUSH2 0x1ACF AND JUMP JUMPDEST PUSH1 0xF SLOAD DUP2 JUMP JUMPDEST PUSH1 0x0 PUSH2 0xC88 PUSH2 0x16D6 JUMP JUMPDEST PUSH1 0x1 PUSH1 0x1 PUSH1 0xA0 SHL SUB DUP2 AND PUSH1 0x0 SWAP1 DUP2 MSTORE PUSH1 0x7 PUSH1 0x20 MSTORE PUSH1 0x40 SWAP1 KECCAK256 SLOAD SWAP1 SWAP2 POP PUSH1 0xFF AND ISZERO PUSH2 0xCE3 JUMPI PUSH1 0x40 MLOAD PUSH3 0x461BCD PUSH1 0xE5 SHL DUP2 MSTORE PUSH1 0x4 ADD DUP1 DUP1 PUSH1 0x20 ADD DUP3 DUP2 SUB DUP3 MSTORE PUSH1 0x2C DUP2 MSTORE PUSH1 0x20 ADD DUP1 PUSH2 0x25CD PUSH1 0x2C SWAP2 CODECOPY PUSH1 0x40 ADD SWAP2 POP POP PUSH1 0x40 MLOAD DUP1 SWAP2 SUB SWAP1 REVERT JUMPDEST PUSH1 0x0 PUSH2 0xCEE DUP4 PUSH2 0x1B29 JUMP JUMPDEST POP POP POP POP PUSH1 0x1 PUSH1 0x1 PUSH1 0xA0 SHL SUB DUP5 AND PUSH1 0x0 SWAP1 DUP2 MSTORE PUSH1 0x3 PUSH1 0x20 MSTORE PUSH1 0x40 SWAP1 KECCAK256 SLOAD SWAP2 SWAP3 POP PUSH2 0xD1A SWAP2 SWAP1 POP DUP3 PUSH2 0x1B78 JUMP JUMPDEST PUSH1 0x1 PUSH1 0x1 PUSH1 0xA0 SHL SUB DUP4 AND PUSH1 0x0 SWAP1 DUP2 MSTORE PUSH1 0x3 PUSH1 0x20 MSTORE PUSH1 0x40 SWAP1 KECCAK256 SSTORE PUSH1 0xA SLOAD PUSH2 0xD46 SWAP1 DUP3 PUSH4 0xFFFFFFFF PUSH2 0x1B78 AND JUMP JUMPDEST PUSH1 0xA SSTORE PUSH1 0xB SLOAD PUSH2 0xD5C SWAP1 DUP5 PUSH4 0xFFFFFFFF PUSH2 0x1ACF AND JUMP JUMPDEST PUSH1 0xB SSTORE POP POP POP JUMP JUMPDEST PUSH2 0xD6C PUSH2 0x16D6 JUMP JUMPDEST PUSH1 0x0 SLOAD PUSH1 0x1 PUSH1 0x1 PUSH1 0xA0 SHL SUB SWAP1 DUP2 AND SWAP2 AND EQ PUSH2 0xDBC JUMPI PUSH1 0x40 DUP1 MLOAD PUSH3 0x461BCD PUSH1 0xE5 SHL DUP2 MSTORE PUSH1 0x20 PUSH1 0x4 DUP3 ADD DUP2 SWAP1 MSTORE PUSH1 0x24 DUP3 ADD MSTORE PUSH1 0x0 DUP1 MLOAD PUSH1 0x20 PUSH2 0x251B DUP4 CODECOPY DUP2 MLOAD SWAP2 MSTORE PUSH1 0x44 DUP3 ADD MSTORE SWAP1 MLOAD SWAP1 DUP2 SWAP1 SUB PUSH1 0x64 ADD SWAP1 REVERT JUMPDEST PUSH1 0x1 PUSH1 0x1 PUSH1 0xA0 SHL SUB AND PUSH1 0x0 SWAP1 DUP2 MSTORE PUSH1 0x6 PUSH1 0x20 MSTORE PUSH1 0x40 SWAP1 KECCAK256 DUP1 SLOAD PUSH1 0xFF NOT AND PUSH1 0x1 OR SWAP1 SSTORE JUMP JUMPDEST PUSH1 0x0 PUSH1 0x9 SLOAD DUP4 GT ISZERO PUSH2 0xE39 JUMPI PUSH1 0x40 DUP1 MLOAD PUSH3 0x461BCD PUSH1 0xE5 SHL DUP2 MSTORE PUSH1 0x20 PUSH1 0x4 DUP3 ADD MSTORE PUSH1 0x1F PUSH1 0x24 DUP3 ADD MSTORE PUSH32 0x416D6F756E74206D757374206265206C657373207468616E20737570706C7900 PUSH1 0x44 DUP3 ADD MSTORE SWAP1 MLOAD SWAP1 DUP2 SWAP1 SUB PUSH1 0x64 ADD SWAP1 REVERT JUMPDEST DUP2 PUSH2 0xE58 JUMPI PUSH1 0x0 PUSH2 0xE49 DUP5 PUSH2 0x1B29 JUMP JUMPDEST POP SWAP4 SWAP6 POP PUSH2 0x953 SWAP5 POP POP POP POP POP JUMP JUMPDEST PUSH1 0x0 PUSH2 0xE63 DUP5 PUSH2 0x1B29 JUMP JUMPDEST POP SWAP3 SWAP6 POP PUSH2 0x953 SWAP5 POP POP POP POP POP JUMP JUMPDEST PUSH1 0x13 SLOAD PUSH2 0x100 SWAP1 DIV PUSH1 0xFF AND DUP2 JUMP JUMPDEST PUSH2 0xE88 PUSH2 0x16D6 JUMP JUMPDEST PUSH1 0x0 SLOAD PUSH1 0x1 PUSH1 0x1 PUSH1 0xA0 SHL SUB SWAP1 DUP2 AND SWAP2 AND EQ PUSH2 0xED8 JUMPI PUSH1 0x40 DUP1 MLOAD PUSH3 0x461BCD PUSH1 0xE5 SHL DUP2 MSTORE PUSH1 0x20 PUSH1 0x4 DUP3 ADD DUP2 SWAP1 MSTORE PUSH1 0x24 DUP3 ADD MSTORE PUSH1 0x0 DUP1 MLOAD PUSH1 0x20 PUSH2 0x251B DUP4 CODECOPY DUP2 MLOAD SWAP2 MSTORE PUSH1 0x44 DUP3 ADD MSTORE SWAP1 MLOAD SWAP1 DUP2 SWAP1 SUB PUSH1 0x64 ADD SWAP1 REVERT JUMPDEST PUSH1 0x1 PUSH1 0x1 PUSH1 0xA0 SHL SUB DUP2 AND PUSH1 0x0 SWAP1 DUP2 MSTORE PUSH1 0x7 PUSH1 0x20 MSTORE PUSH1 0x40 SWAP1 KECCAK256 SLOAD PUSH1 0xFF AND ISZERO PUSH2 0xF46 JUMPI PUSH1 0x40 DUP1 MLOAD PUSH3 0x461BCD PUSH1 0xE5 SHL DUP2 MSTORE PUSH1 0x20 PUSH1 0x4 DUP3 ADD MSTORE PUSH1 0x1B PUSH1 0x24 DUP3 ADD MSTORE PUSH32 0x4163636F756E7420697320616C7265616479206578636C756465640000000000 PUSH1 0x44 DUP3 ADD MSTORE SWAP1 MLOAD SWAP1 DUP2 SWAP1 SUB PUSH1 0x64 ADD SWAP1 REVERT JUMPDEST PUSH1 0x1 PUSH1 0x1 PUSH1 0xA0 SHL SUB DUP2 AND PUSH1 0x0 SWAP1 DUP2 MSTORE PUSH1 0x3 PUSH1 0x20 MSTORE PUSH1 0x40 SWAP1 KECCAK256 SLOAD ISZERO PUSH2 0xFA0 JUMPI PUSH1 0x1 PUSH1 0x1 PUSH1 0xA0 SHL SUB DUP2 AND PUSH1 0x0 SWAP1 DUP2 MSTORE PUSH1 0x3 PUSH1 0x20 MSTORE PUSH1 0x40 SWAP1 KECCAK256 SLOAD PUSH2 0xF86 SWAP1 PUSH2 0x9F2 JUMP JUMPDEST PUSH1 0x1 PUSH1 0x1 PUSH1 0xA0 SHL SUB DUP3 AND PUSH1 0x0 SWAP1 DUP2 MSTORE PUSH1 0x4 PUSH1 0x20 MSTORE PUSH1 0x40 SWAP1 KECCAK256 SSTORE JUMPDEST PUSH1 0x1 PUSH1 0x1 PUSH1 0xA0 SHL SUB AND PUSH1 0x0 DUP2 DUP2 MSTORE PUSH1 0x7 PUSH1 0x20 MSTORE PUSH1 0x40 DUP2 KECCAK256 DUP1 SLOAD PUSH1 0xFF NOT AND PUSH1 0x1 SWAP1 DUP2 OR SWAP1 SWAP2 SSTORE PUSH1 0x8 DUP1 SLOAD SWAP2 DUP3 ADD DUP2 SSTORE SWAP1 SWAP2 MSTORE PUSH32 0xF3F7A9FE364FAAB93B216DA50A3214154F22A0A2B415B23A84C8169E8B636EE3 ADD DUP1 SLOAD PUSH1 0x1 PUSH1 0x1 PUSH1 0xA0 SHL SUB NOT AND SWAP1 SWAP2 OR SWAP1 SSTORE JUMP JUMPDEST PUSH1 0x1 PUSH1 0x1 PUSH1 0xA0 SHL SUB AND PUSH1 0x0 SWAP1 DUP2 MSTORE PUSH1 0x6 PUSH1 0x20 MSTORE PUSH1 0x40 SWAP1 KECCAK256 SLOAD PUSH1 0xFF AND SWAP1 JUMP JUMPDEST PUSH1 0x11 SLOAD DUP2 JUMP JUMPDEST PUSH1 0x1 PUSH1 0x1 PUSH1 0xA0 SHL SUB DUP2 AND PUSH1 0x0 SWAP1 DUP2 MSTORE PUSH1 0x7 PUSH1 0x20 MSTORE PUSH1 0x40 DUP2 KECCAK256 SLOAD PUSH1 0xFF AND ISZERO PUSH2 0x106A JUMPI POP PUSH1 0x1 PUSH1 0x1 PUSH1 0xA0 SHL SUB DUP2 AND PUSH1 0x0 SWAP1 DUP2 MSTORE PUSH1 0x4 PUSH1 0x20 MSTORE PUSH1 0x40 SWAP1 KECCAK256 SLOAD PUSH2 0xA55 JUMP JUMPDEST PUSH1 0x1 PUSH1 0x1 PUSH1 0xA0 SHL SUB DUP3 AND PUSH1 0x0 SWAP1 DUP2 MSTORE PUSH1 0x3 PUSH1 0x20 MSTORE PUSH1 0x40 SWAP1 KECCAK256 SLOAD PUSH2 0x953 SWAP1 PUSH2 0x9F2 JUMP JUMPDEST PUSH2 0x1094 PUSH2 0x16D6 JUMP JUMPDEST PUSH1 0x0 SLOAD PUSH1 0x1 PUSH1 0x1 PUSH1 0xA0 SHL SUB SWAP1 DUP2 AND SWAP2 AND EQ PUSH2 0x10E4 JUMPI PUSH1 0x40 DUP1 MLOAD PUSH3 0x461BCD PUSH1 0xE5 SHL DUP2 MSTORE PUSH1 0x20 PUSH1 0x4 DUP3 ADD DUP2 SWAP1 MSTORE PUSH1 0x24 DUP3 ADD MSTORE PUSH1 0x0 DUP1 MLOAD PUSH1 0x20 PUSH2 0x251B DUP4 CODECOPY DUP2 MLOAD SWAP2 MSTORE PUSH1 0x44 DUP3 ADD MSTORE SWAP1 MLOAD SWAP1 DUP2 SWAP1 SUB PUSH1 0x64 ADD SWAP1 REVERT JUMPDEST PUSH1 0x0 DUP1 SLOAD PUSH1 0x40 MLOAD PUSH1 0x1 PUSH1 0x1 PUSH1 0xA0 SHL SUB SWAP1 SWAP2 AND SWAP1 PUSH1 0x0 DUP1 MLOAD PUSH1 0x20 PUSH2 0x253B DUP4 CODECOPY DUP2 MLOAD SWAP2 MSTORE SWAP1 DUP4 SWAP1 LOG3 PUSH1 0x0 DUP1 SLOAD PUSH1 0x1 PUSH1 0x1 PUSH1 0xA0 SHL SUB NOT AND SWAP1 SSTORE JUMP JUMPDEST PUSH1 0x14 SLOAD DUP2 JUMP JUMPDEST PUSH1 0x1 PUSH1 0x1 PUSH1 0xA0 SHL SUB AND PUSH1 0x0 SWAP1 DUP2 MSTORE PUSH1 0x7 PUSH1 0x20 MSTORE PUSH1 0x40 SWAP1 KECCAK256 SLOAD PUSH1 0xFF AND SWAP1 JUMP JUMPDEST PUSH1 0x0 SLOAD PUSH1 0x1 PUSH1 0x1 PUSH1 0xA0 SHL SUB AND SWAP1 JUMP JUMPDEST PUSH2 0x1157 PUSH2 0x16D6 JUMP JUMPDEST PUSH1 0x0 SLOAD PUSH1 0x1 PUSH1 0x1 PUSH1 0xA0 SHL SUB SWAP1 DUP2 AND SWAP2 AND EQ PUSH2 0x11A7 JUMPI PUSH1 0x40 DUP1 MLOAD PUSH3 0x461BCD PUSH1 0xE5 SHL DUP2 MSTORE PUSH1 0x20 PUSH1 0x4 DUP3 ADD DUP2 SWAP1 MSTORE PUSH1 0x24 DUP3 ADD MSTORE PUSH1 0x0 DUP1 MLOAD PUSH1 0x20 PUSH2 0x251B DUP4 CODECOPY DUP2 MLOAD SWAP2 MSTORE PUSH1 0x44 DUP3 ADD MSTORE SWAP1 MLOAD SWAP1 DUP2 SWAP1 SUB PUSH1 0x64 ADD SWAP1 REVERT JUMPDEST PUSH1 0x11 SSTORE JUMP JUMPDEST PUSH1 0xD DUP1 SLOAD PUSH1 0x40 DUP1 MLOAD PUSH1 0x20 PUSH1 0x1F PUSH1 0x2 PUSH1 0x0 NOT PUSH2 0x100 PUSH1 0x1 DUP9 AND ISZERO MUL ADD SWAP1 SWAP6 AND SWAP5 SWAP1 SWAP5 DIV SWAP4 DUP5 ADD DUP2 SWAP1 DIV DUP2 MUL DUP3 ADD DUP2 ADD SWAP1 SWAP3 MSTORE DUP3 DUP2 MSTORE PUSH1 0x60 SWAP4 SWAP1 SWAP3 SWAP1 SWAP2 DUP4 ADD DUP3 DUP3 DUP1 ISZERO PUSH2 0x931 JUMPI DUP1 PUSH1 0x1F LT PUSH2 0x906 JUMPI PUSH2 0x100 DUP1 DUP4 SLOAD DIV MUL DUP4 MSTORE SWAP2 PUSH1 0x20 ADD SWAP2 PUSH2 0x931 JUMP JUMPDEST PUSH1 0x0 PUSH2 0x94F PUSH2 0x121A PUSH2 0x16D6 JUMP JUMPDEST DUP5 PUSH2 0x9E3 DUP6 PUSH1 0x40 MLOAD DUP1 PUSH1 0x60 ADD PUSH1 0x40 MSTORE DUP1 PUSH1 0x25 DUP2 MSTORE PUSH1 0x20 ADD PUSH2 0x261C PUSH1 0x25 SWAP2 CODECOPY PUSH1 0x5 PUSH1 0x0 PUSH2 0x1244 PUSH2 0x16D6 JUMP JUMPDEST PUSH1 0x1 PUSH1 0x1 PUSH1 0xA0 SHL SUB SWAP1 DUP2 AND DUP3 MSTORE PUSH1 0x20 DUP1 DUP4 ADD SWAP4 SWAP1 SWAP4 MSTORE PUSH1 0x40 SWAP2 DUP3 ADD PUSH1 0x0 SWAP1 DUP2 KECCAK256 SWAP2 DUP14 AND DUP2 MSTORE SWAP3 MSTORE SWAP1 KECCAK256 SLOAD SWAP2 SWAP1 PUSH4 0xFFFFFFFF PUSH2 0x19C6 AND JUMP JUMPDEST PUSH1 0x1 SLOAD PUSH1 0x1 PUSH1 0x1 PUSH1 0xA0 SHL SUB AND CALLER EQ PUSH2 0x12C4 JUMPI PUSH1 0x40 MLOAD PUSH3 0x461BCD PUSH1 0xE5 SHL DUP2 MSTORE PUSH1 0x4 ADD DUP1 DUP1 PUSH1 0x20 ADD DUP3 DUP2 SUB DUP3 MSTORE PUSH1 0x23 DUP2 MSTORE PUSH1 0x20 ADD DUP1 PUSH2 0x25F9 PUSH1 0x23 SWAP2 CODECOPY PUSH1 0x40 ADD SWAP2 POP POP PUSH1 0x40 MLOAD DUP1 SWAP2 SUB SWAP1 REVERT JUMPDEST PUSH1 0x2 SLOAD TIMESTAMP GT PUSH2 0x131A JUMPI PUSH1 0x40 DUP1 MLOAD PUSH3 0x461BCD PUSH1 0xE5 SHL DUP2 MSTORE PUSH1 0x20 PUSH1 0x4 DUP3 ADD MSTORE PUSH1 0x1F PUSH1 0x24 DUP3 ADD MSTORE PUSH32 0x436F6E7472616374206973206C6F636B656420756E74696C2037206461797300 PUSH1 0x44 DUP3 ADD MSTORE SWAP1 MLOAD SWAP1 DUP2 SWAP1 SUB PUSH1 0x64 ADD SWAP1 REVERT JUMPDEST PUSH1 0x1 SLOAD PUSH1 0x0 DUP1 SLOAD PUSH1 0x40 MLOAD PUSH1 0x1 PUSH1 0x1 PUSH1 0xA0 SHL SUB SWAP4 DUP5 AND SWAP4 SWAP1 SWAP2 AND SWAP2 PUSH1 0x0 DUP1 MLOAD PUSH1 0x20 PUSH2 0x253B DUP4 CODECOPY DUP2 MLOAD SWAP2 MSTORE SWAP2 LOG3 PUSH1 0x1 SLOAD PUSH1 0x0 DUP1 SLOAD PUSH1 0x1 PUSH1 0x1 PUSH1 0xA0 SHL SUB NOT AND PUSH1 0x1 PUSH1 0x1 PUSH1 0xA0 SHL SUB SWAP1 SWAP3 AND SWAP2 SWAP1 SWAP2 OR SWAP1 SSTORE JUMP JUMPDEST PUSH1 0x0 PUSH2 0x94F PUSH2 0x1376 PUSH2 0x16D6 JUMP JUMPDEST DUP5 DUP5 PUSH2 0x17C6 JUMP JUMPDEST PUSH1 0x2 SLOAD SWAP1 JUMP JUMPDEST PUSH2 0x138B PUSH2 0x16D6 JUMP JUMPDEST PUSH1 0x0 SLOAD PUSH1 0x1 PUSH1 0x1 PUSH1 0xA0 SHL SUB SWAP1 DUP2 AND SWAP2 AND EQ PUSH2 0x13DB JUMPI PUSH1 0x40 DUP1 MLOAD PUSH3 0x461BCD PUSH1 0xE5 SHL DUP2 MSTORE PUSH1 0x20 PUSH1 0x4 DUP3 ADD DUP2 SWAP1 MSTORE PUSH1 0x24 DUP3 ADD MSTORE PUSH1 0x0 DUP1 MLOAD PUSH1 0x20 PUSH2 0x251B DUP4 CODECOPY DUP2 MLOAD SWAP2 MSTORE PUSH1 0x44 DUP3 ADD MSTORE SWAP1 MLOAD SWAP1 DUP2 SWAP1 SUB PUSH1 0x64 ADD SWAP1 REVERT JUMPDEST PUSH1 0x13 DUP1 SLOAD DUP3 ISZERO ISZERO PUSH2 0x100 DUP2 MUL PUSH2 0xFF00 NOT SWAP1 SWAP3 AND SWAP2 SWAP1 SWAP2 OR SWAP1 SWAP2 SSTORE PUSH1 0x40 DUP1 MLOAD SWAP2 DUP3 MSTORE MLOAD PUSH32 0x53726DFCAF90650AA7EB35524F4D3220F07413C8D6CB404CC8C18BF5591BC159 SWAP2 DUP2 SWAP1 SUB PUSH1 0x20 ADD SWAP1 LOG1 POP JUMP JUMPDEST PUSH2 0x1432 PUSH2 0x16D6 JUMP JUMPDEST PUSH1 0x0 SLOAD PUSH1 0x1 PUSH1 0x1 PUSH1 0xA0 SHL SUB SWAP1 DUP2 AND SWAP2 AND EQ PUSH2 0x1482 JUMPI PUSH1 0x40 DUP1 MLOAD PUSH3 0x461BCD PUSH1 0xE5 SHL DUP2 MSTORE PUSH1 0x20 PUSH1 0x4 DUP3 ADD DUP2 SWAP1 MSTORE PUSH1 0x24 DUP3 ADD MSTORE PUSH1 0x0 DUP1 MLOAD PUSH1 0x20 PUSH2 0x251B DUP4 CODECOPY DUP2 MLOAD SWAP2 MSTORE PUSH1 0x44 DUP3 ADD MSTORE SWAP1 MLOAD SWAP1 DUP2 SWAP1 SUB PUSH1 0x64 ADD SWAP1 REVERT JUMPDEST PUSH2 0x14A8 PUSH1 0x64 PUSH2 0x149C DUP4 PUSH1 0x9 SLOAD PUSH2 0x1BBA SWAP1 SWAP2 SWAP1 PUSH4 0xFFFFFFFF AND JUMP JUMPDEST SWAP1 PUSH4 0xFFFFFFFF PUSH2 0x1A86 AND JUMP JUMPDEST PUSH1 0x14 SSTORE POP JUMP JUMPDEST PUSH2 0x14B6 PUSH2 0x16D6 JUMP JUMPDEST PUSH1 0x0 SLOAD PUSH1 0x1 PUSH1 0x1 PUSH1 0xA0 SHL SUB SWAP1 DUP2 AND SWAP2 AND EQ PUSH2 0x1506 JUMPI PUSH1 0x40 DUP1 MLOAD PUSH3 0x461BCD PUSH1 0xE5 SHL DUP2 MSTORE PUSH1 0x20 PUSH1 0x4 DUP3 ADD DUP2 SWAP1 MSTORE PUSH1 0x24 DUP3 ADD MSTORE PUSH1 0x0 DUP1 MLOAD PUSH1 0x20 PUSH2 0x251B DUP4 CODECOPY DUP2 MLOAD SWAP2 MSTORE PUSH1 0x44 DUP3 ADD MSTORE SWAP1 MLOAD SWAP1 DUP2 SWAP1 SUB PUSH1 0x64 ADD SWAP1 REVERT JUMPDEST PUSH1 0x0 DUP1 SLOAD PUSH1 0x1 DUP1 SLOAD PUSH1 0x1 PUSH1 0x1 PUSH1 0xA0 SHL SUB NOT SWAP1 DUP2 AND PUSH1 0x1 PUSH1 0x1 PUSH1 0xA0 SHL SUB DUP5 AND OR SWAP1 SWAP2 SSTORE AND DUP2 SSTORE TIMESTAMP DUP3 ADD PUSH1 0x2 SSTORE PUSH1 0x40 MLOAD DUP2 SWAP1 PUSH1 0x0 DUP1 MLOAD PUSH1 0x20 PUSH2 0x253B DUP4 CODECOPY DUP2 MLOAD SWAP2 MSTORE SWAP1 DUP3 SWAP1 LOG3 POP JUMP JUMPDEST PUSH1 0x1 PUSH1 0x1 PUSH1 0xA0 SHL SUB SWAP2 DUP3 AND PUSH1 0x0 SWAP1 DUP2 MSTORE PUSH1 0x5 PUSH1 0x20 SWAP1 DUP2 MSTORE PUSH1 0x40 DUP1 DUP4 KECCAK256 SWAP4 SWAP1 SWAP5 AND DUP3 MSTORE SWAP2 SWAP1 SWAP2 MSTORE KECCAK256 SLOAD SWAP1 JUMP JUMPDEST PUSH2 0x157F PUSH2 0x16D6 JUMP JUMPDEST PUSH1 0x0 SLOAD PUSH1 0x1 PUSH1 0x1 PUSH1 0xA0 SHL SUB SWAP1 DUP2 AND SWAP2 AND EQ PUSH2 0x15CF JUMPI PUSH1 0x40 DUP1 MLOAD PUSH3 0x461BCD PUSH1 0xE5 SHL DUP2 MSTORE PUSH1 0x20 PUSH1 0x4 DUP3 ADD DUP2 SWAP1 MSTORE PUSH1 0x24 DUP3 ADD MSTORE PUSH1 0x0 DUP1 MLOAD PUSH1 0x20 PUSH2 0x251B DUP4 CODECOPY DUP2 MLOAD SWAP2 MSTORE PUSH1 0x44 DUP3 ADD MSTORE SWAP1 MLOAD SWAP1 DUP2 SWAP1 SUB PUSH1 0x64 ADD SWAP1 REVERT JUMPDEST PUSH1 0x1 PUSH1 0x1 PUSH1 0xA0 SHL SUB AND PUSH1 0x0 SWAP1 DUP2 MSTORE PUSH1 0x6 PUSH1 0x20 MSTORE PUSH1 0x40 SWAP1 KECCAK256 DUP1 SLOAD PUSH1 0xFF NOT AND SWAP1 SSTORE JUMP JUMPDEST PUSH2 0x15F8 PUSH2 0x16D6 JUMP JUMPDEST PUSH1 0x0 SLOAD PUSH1 0x1 PUSH1 0x1 PUSH1 0xA0 SHL SUB SWAP1 DUP2 AND SWAP2 AND EQ PUSH2 0x1648 JUMPI PUSH1 0x40 DUP1 MLOAD PUSH3 0x461BCD PUSH1 0xE5 SHL DUP2 MSTORE PUSH1 0x20 PUSH1 0x4 DUP3 ADD DUP2 SWAP1 MSTORE PUSH1 0x24 DUP3 ADD MSTORE PUSH1 0x0 DUP1 MLOAD PUSH1 0x20 PUSH2 0x251B DUP4 CODECOPY DUP2 MLOAD SWAP2 MSTORE PUSH1 0x44 DUP3 ADD MSTORE SWAP1 MLOAD SWAP1 DUP2 SWAP1 SUB PUSH1 0x64 ADD SWAP1 REVERT JUMPDEST PUSH1 0x1 PUSH1 0x1 PUSH1 0xA0 SHL SUB DUP2 AND PUSH2 0x168D JUMPI PUSH1 0x40 MLOAD PUSH3 0x461BCD PUSH1 0xE5 SHL DUP2 MSTORE PUSH1 0x4 ADD DUP1 DUP1 PUSH1 0x20 ADD DUP3 DUP2 SUB DUP3 MSTORE PUSH1 0x26 DUP2 MSTORE PUSH1 0x20 ADD DUP1 PUSH2 0x2462 PUSH1 0x26 SWAP2 CODECOPY PUSH1 0x40 ADD SWAP2 POP POP PUSH1 0x40 MLOAD DUP1 SWAP2 SUB SWAP1 REVERT JUMPDEST PUSH1 0x0 DUP1 SLOAD PUSH1 0x40 MLOAD PUSH1 0x1 PUSH1 0x1 PUSH1 0xA0 SHL SUB DUP1 DUP6 AND SWAP4 SWAP3 AND SWAP2 PUSH1 0x0 DUP1 MLOAD PUSH1 0x20 PUSH2 0x253B DUP4 CODECOPY DUP2 MLOAD SWAP2 MSTORE SWAP2 LOG3 PUSH1 0x0 DUP1 SLOAD PUSH1 0x1 PUSH1 0x1 PUSH1 0xA0 SHL SUB NOT AND PUSH1 0x1 PUSH1 0x1 PUSH1 0xA0 SHL SUB SWAP3 SWAP1 SWAP3 AND SWAP2 SWAP1 SWAP2 OR SWAP1 SSTORE JUMP JUMPDEST CALLER SWAP1 JUMP JUMPDEST PUSH1 0x1 PUSH1 0x1 PUSH1 0xA0 SHL SUB DUP4 AND PUSH2 0x171F JUMPI PUSH1 0x40 MLOAD PUSH3 0x461BCD PUSH1 0xE5 SHL DUP2 MSTORE PUSH1 0x4 ADD DUP1 DUP1 PUSH1 0x20 ADD DUP3 DUP2 SUB DUP3 MSTORE PUSH1 0x24 DUP2 MSTORE PUSH1 0x20 ADD DUP1 PUSH2 0x25A9 PUSH1 0x24 SWAP2 CODECOPY PUSH1 0x40 ADD SWAP2 POP POP PUSH1 0x40 MLOAD DUP1 SWAP2 SUB SWAP1 REVERT JUMPDEST PUSH1 0x1 PUSH1 0x1 PUSH1 0xA0 SHL SUB DUP3 AND PUSH2 0x1764 JUMPI PUSH1 0x40 MLOAD PUSH3 0x461BCD PUSH1 0xE5 SHL DUP2 MSTORE PUSH1 0x4 ADD DUP1 DUP1 PUSH1 0x20 ADD DUP3 DUP2 SUB DUP3 MSTORE PUSH1 0x22 DUP2 MSTORE PUSH1 0x20 ADD DUP1 PUSH2 0x2488 PUSH1 0x22 SWAP2 CODECOPY PUSH1 0x40 ADD SWAP2 POP POP PUSH1 0x40 MLOAD DUP1 SWAP2 SUB SWAP1 REVERT JUMPDEST PUSH1 0x1 PUSH1 0x1 PUSH1 0xA0 SHL SUB DUP1 DUP5 AND PUSH1 0x0 DUP2 DUP2 MSTORE PUSH1 0x5 PUSH1 0x20 SWAP1 DUP2 MSTORE PUSH1 0x40 DUP1 DUP4 KECCAK256 SWAP5 DUP8 AND DUP1 DUP5 MSTORE SWAP5 DUP3 MSTORE SWAP2 DUP3 SWAP1 KECCAK256 DUP6 SWAP1 SSTORE DUP2 MLOAD DUP6 DUP2 MSTORE SWAP2 MLOAD PUSH32 0x8C5BE1E5EBEC7D5BD14F71427D1E84F3DD0314C0F7B2291E5B200AC8C7C3B925 SWAP3 DUP2 SWAP1 SUB SWAP1 SWAP2 ADD SWAP1 LOG3 POP POP POP JUMP JUMPDEST PUSH1 0x1 PUSH1 0x1 PUSH1 0xA0 SHL SUB DUP4 AND PUSH2 0x180B JUMPI PUSH1 0x40 MLOAD PUSH3 0x461BCD PUSH1 0xE5 SHL DUP2 MSTORE PUSH1 0x4 ADD DUP1 DUP1 PUSH1 0x20 ADD DUP3 DUP2 SUB DUP3 MSTORE PUSH1 0x25 DUP2 MSTORE PUSH1 0x20 ADD DUP1 PUSH2 0x2584 PUSH1 0x25 SWAP2 CODECOPY PUSH1 0x40 ADD SWAP2 POP POP PUSH1 0x40 MLOAD DUP1 SWAP2 SUB SWAP1 REVERT JUMPDEST PUSH1 0x1 PUSH1 0x1 PUSH1 0xA0 SHL SUB DUP3 AND PUSH2 0x1850 JUMPI PUSH1 0x40 MLOAD PUSH3 0x461BCD PUSH1 0xE5 SHL DUP2 MSTORE PUSH1 0x4 ADD DUP1 DUP1 PUSH1 0x20 ADD DUP3 DUP2 SUB DUP3 MSTORE PUSH1 0x23 DUP2 MSTORE PUSH1 0x20 ADD DUP1 PUSH2 0x2415 PUSH1 0x23 SWAP2 CODECOPY PUSH1 0x40 ADD SWAP2 POP POP PUSH1 0x40 MLOAD DUP1 SWAP2 SUB SWAP1 REVERT JUMPDEST PUSH1 0x0 DUP2 GT PUSH2 0x188F JUMPI PUSH1 0x40 MLOAD PUSH3 0x461BCD PUSH1 0xE5 SHL DUP2 MSTORE PUSH1 0x4 ADD DUP1 DUP1 PUSH1 0x20 ADD DUP3 DUP2 SUB DUP3 MSTORE PUSH1 0x29 DUP2 MSTORE PUSH1 0x20 ADD DUP1 PUSH2 0x255B PUSH1 0x29 SWAP2 CODECOPY PUSH1 0x40 ADD SWAP2 POP POP PUSH1 0x40 MLOAD DUP1 SWAP2 SUB SWAP1 REVERT JUMPDEST PUSH2 0x1897 PUSH2 0x1140 JUMP JUMPDEST PUSH1 0x1 PUSH1 0x1 PUSH1 0xA0 SHL SUB AND DUP4 PUSH1 0x1 PUSH1 0x1 PUSH1 0xA0 SHL SUB AND EQ ISZERO DUP1 ISZERO PUSH2 0x18D1 JUMPI POP PUSH2 0x18BB PUSH2 0x1140 JUMP JUMPDEST PUSH1 0x1 PUSH1 0x1 PUSH1 0xA0 SHL SUB AND DUP3 PUSH1 0x1 PUSH1 0x1 PUSH1 0xA0 SHL SUB AND EQ ISZERO JUMPDEST ISZERO PUSH2 0x1917 JUMPI PUSH1 0x14 SLOAD DUP2 GT ISZERO PUSH2 0x1917 JUMPI PUSH1 0x40 MLOAD PUSH3 0x461BCD PUSH1 0xE5 SHL DUP2 MSTORE PUSH1 0x4 ADD DUP1 DUP1 PUSH1 0x20 ADD DUP3 DUP2 SUB DUP3 MSTORE PUSH1 0x28 DUP2 MSTORE PUSH1 0x20 ADD DUP1 PUSH2 0x24AA PUSH1 0x28 SWAP2 CODECOPY PUSH1 0x40 ADD SWAP2 POP POP PUSH1 0x40 MLOAD DUP1 SWAP2 SUB SWAP1 REVERT JUMPDEST PUSH1 0x0 PUSH2 0x1922 ADDRESS PUSH2 0x102A JUMP JUMPDEST SWAP1 POP PUSH1 0x14 SLOAD DUP2 LT PUSH2 0x1932 JUMPI POP PUSH1 0x14 SLOAD JUMPDEST PUSH1 0x15 SLOAD DUP2 LT DUP1 ISZERO SWAP1 DUP2 SWAP1 PUSH2 0x1949 JUMPI POP PUSH1 0x13 SLOAD PUSH1 0xFF AND ISZERO JUMPDEST DUP1 ISZERO PUSH2 0x195C JUMPI POP PUSH1 0x13 SLOAD PUSH2 0x100 SWAP1 DIV PUSH1 0xFF AND JUMPDEST ISZERO PUSH2 0x1967 JUMPI PUSH1 0x15 SLOAD SWAP2 POP JUMPDEST PUSH1 0x1 PUSH1 0x1 PUSH1 0xA0 SHL SUB DUP6 AND PUSH1 0x0 SWAP1 DUP2 MSTORE PUSH1 0x6 PUSH1 0x20 MSTORE PUSH1 0x40 SWAP1 KECCAK256 SLOAD PUSH1 0x1 SWAP1 PUSH1 0xFF AND DUP1 PUSH2 0x19A9 JUMPI POP PUSH1 0x1 PUSH1 0x1 PUSH1 0xA0 SHL SUB DUP6 AND PUSH1 0x0 SWAP1 DUP2 MSTORE PUSH1 0x6 PUSH1 0x20 MSTORE PUSH1 0x40 SWAP1 KECCAK256 SLOAD PUSH1 0xFF AND JUMPDEST ISZERO PUSH2 0x19B2 JUMPI POP PUSH1 0x0 JUMPDEST PUSH2 0x19BE DUP7 DUP7 DUP7 DUP5 PUSH2 0x1C13 JUMP JUMPDEST POP POP POP POP POP POP JUMP JUMPDEST PUSH1 0x0 DUP2 DUP5 DUP5 GT ISZERO PUSH2 0x1A55 JUMPI PUSH1 0x40 MLOAD PUSH3 0x461BCD PUSH1 0xE5 SHL DUP2 MSTORE PUSH1 0x4 ADD DUP1 DUP1 PUSH1 0x20 ADD DUP3 DUP2 SUB DUP3 MSTORE DUP4 DUP2 DUP2 MLOAD DUP2 MSTORE PUSH1 0x20 ADD SWAP2 POP DUP1 MLOAD SWAP1 PUSH1 0x20 ADD SWAP1 DUP1 DUP4 DUP4 PUSH1 0x0 JUMPDEST DUP4 DUP2 LT ISZERO PUSH2 0x1A1A JUMPI DUP2 DUP2 ADD MLOAD DUP4 DUP3 ADD MSTORE PUSH1 0x20 ADD PUSH2 0x1A02 JUMP JUMPDEST POP POP POP POP SWAP1 POP SWAP1 DUP2 ADD SWAP1 PUSH1 0x1F AND DUP1 ISZERO PUSH2 0x1A47 JUMPI DUP1 DUP3 SUB DUP1 MLOAD PUSH1 0x1 DUP4 PUSH1 0x20 SUB PUSH2 0x100 EXP SUB NOT AND DUP2 MSTORE PUSH1 0x20 ADD SWAP2 POP JUMPDEST POP SWAP3 POP POP POP PUSH1 0x40 MLOAD DUP1 SWAP2 SUB SWAP1 REVERT JUMPDEST POP POP POP SWAP1 SUB SWAP1 JUMP JUMPDEST PUSH1 0x0 DUP1 PUSH1 0x0 PUSH2 0x1A6A PUSH2 0x1D87 JUMP JUMPDEST SWAP1 SWAP3 POP SWAP1 POP PUSH2 0x1A7F DUP3 DUP3 PUSH4 0xFFFFFFFF PUSH2 0x1A86 AND JUMP JUMPDEST SWAP3 POP POP POP SWAP1 JUMP JUMPDEST PUSH1 0x0 PUSH2 0x1AC8 DUP4 DUP4 PUSH1 0x40 MLOAD DUP1 PUSH1 0x40 ADD PUSH1 0x40 MSTORE DUP1 PUSH1 0x1A DUP2 MSTORE PUSH1 0x20 ADD PUSH32 0x536166654D6174683A206469766973696F6E206279207A65726F000000000000 DUP2 MSTORE POP PUSH2 0x1EFC JUMP JUMPDEST SWAP4 SWAP3 POP POP POP JUMP JUMPDEST PUSH1 0x0 DUP3 DUP3 ADD DUP4 DUP2 LT ISZERO PUSH2 0x1AC8 JUMPI PUSH1 0x40 DUP1 MLOAD PUSH3 0x461BCD PUSH1 0xE5 SHL DUP2 MSTORE PUSH1 0x20 PUSH1 0x4 DUP3 ADD MSTORE PUSH1 0x1B PUSH1 0x24 DUP3 ADD MSTORE PUSH32 0x536166654D6174683A206164646974696F6E206F766572666C6F770000000000 PUSH1 0x44 DUP3 ADD MSTORE SWAP1 MLOAD SWAP1 DUP2 SWAP1 SUB PUSH1 0x64 ADD SWAP1 REVERT JUMPDEST PUSH1 0x0 DUP1 PUSH1 0x0 DUP1 PUSH1 0x0 DUP1 PUSH1 0x0 DUP1 PUSH1 0x0 PUSH2 0x1B40 DUP11 PUSH2 0x1F61 JUMP JUMPDEST SWAP3 POP SWAP3 POP SWAP3 POP PUSH1 0x0 DUP1 PUSH1 0x0 PUSH2 0x1B5E DUP14 DUP7 DUP7 PUSH2 0x1B59 PUSH2 0x1A5D JUMP JUMPDEST PUSH2 0x1FAF JUMP JUMPDEST SWAP2 SWAP16 SWAP1 SWAP15 POP SWAP1 SWAP13 POP SWAP6 SWAP11 POP SWAP4 SWAP9 POP SWAP2 SWAP7 POP SWAP3 SWAP5 POP POP POP POP POP JUMP JUMPDEST PUSH1 0x0 PUSH2 0x1AC8 DUP4 DUP4 PUSH1 0x40 MLOAD DUP1 PUSH1 0x40 ADD PUSH1 0x40 MSTORE DUP1 PUSH1 0x1E DUP2 MSTORE PUSH1 0x20 ADD PUSH32 0x536166654D6174683A207375627472616374696F6E206F766572666C6F770000 DUP2 MSTORE POP PUSH2 0x19C6 JUMP JUMPDEST PUSH1 0x0 DUP3 PUSH2 0x1BC9 JUMPI POP PUSH1 0x0 PUSH2 0x953 JUMP JUMPDEST DUP3 DUP3 MUL DUP3 DUP5 DUP3 DUP2 PUSH2 0x1BD6 JUMPI INVALID JUMPDEST DIV EQ PUSH2 0x1AC8 JUMPI PUSH1 0x40 MLOAD PUSH3 0x461BCD PUSH1 0xE5 SHL DUP2 MSTORE PUSH1 0x4 ADD DUP1 DUP1 PUSH1 0x20 ADD DUP3 DUP2 SUB DUP3 MSTORE PUSH1 0x21 DUP2 MSTORE PUSH1 0x20 ADD DUP1 PUSH2 0x24D2 PUSH1 0x21 SWAP2 CODECOPY PUSH1 0x40 ADD SWAP2 POP POP PUSH1 0x40 MLOAD DUP1 SWAP2 SUB SWAP1 REVERT JUMPDEST DUP1 PUSH2 0x1C20 JUMPI PUSH2 0x1C20 PUSH2 0x2017 JUMP JUMPDEST PUSH1 0x1 PUSH1 0x1 PUSH1 0xA0 SHL SUB DUP5 AND PUSH1 0x0 SWAP1 DUP2 MSTORE PUSH1 0x7 PUSH1 0x20 MSTORE PUSH1 0x40 SWAP1 KECCAK256 SLOAD PUSH1 0xFF AND DUP1 ISZERO PUSH2 0x1C61 JUMPI POP PUSH1 0x1 PUSH1 0x1 PUSH1 0xA0 SHL SUB DUP4 AND PUSH1 0x0 SWAP1 DUP2 MSTORE PUSH1 0x7 PUSH1 0x20 MSTORE PUSH1 0x40 SWAP1 KECCAK256 SLOAD PUSH1 0xFF AND ISZERO JUMPDEST ISZERO PUSH2 0x1C76 JUMPI PUSH2 0x1C71 DUP5 DUP5 DUP5 PUSH2 0x2049 JUMP JUMPDEST PUSH2 0x1D74 JUMP JUMPDEST PUSH1 0x1 PUSH1 0x1 PUSH1 0xA0 SHL SUB DUP5 AND PUSH1 0x0 SWAP1 DUP2 MSTORE PUSH1 0x7 PUSH1 0x20 MSTORE PUSH1 0x40 SWAP1 KECCAK256 SLOAD PUSH1 0xFF AND ISZERO DUP1 ISZERO PUSH2 0x1CB7 JUMPI POP PUSH1 0x1 PUSH1 0x1 PUSH1 0xA0 SHL SUB DUP4 AND PUSH1 0x0 SWAP1 DUP2 MSTORE PUSH1 0x7 PUSH1 0x20 MSTORE PUSH1 0x40 SWAP1 KECCAK256 SLOAD PUSH1 0xFF AND JUMPDEST ISZERO PUSH2 0x1CC7 JUMPI PUSH2 0x1C71 DUP5 DUP5 DUP5 PUSH2 0x217F JUMP JUMPDEST PUSH1 0x1 PUSH1 0x1 PUSH1 0xA0 SHL SUB DUP5 AND PUSH1 0x0 SWAP1 DUP2 MSTORE PUSH1 0x7 PUSH1 0x20 MSTORE PUSH1 0x40 SWAP1 KECCAK256 SLOAD PUSH1 0xFF AND ISZERO DUP1 ISZERO PUSH2 0x1D09 JUMPI POP PUSH1 0x1 PUSH1 0x1 PUSH1 0xA0 SHL SUB DUP4 AND PUSH1 0x0 SWAP1 DUP2 MSTORE PUSH1 0x7 PUSH1 0x20 MSTORE PUSH1 0x40 SWAP1 KECCAK256 SLOAD PUSH1 0xFF AND ISZERO JUMPDEST ISZERO PUSH2 0x1D19 JUMPI PUSH2 0x1C71 DUP5 DUP5 DUP5 PUSH2 0x223A JUMP JUMPDEST PUSH1 0x1 PUSH1 0x1 PUSH1 0xA0 SHL SUB DUP5 AND PUSH1 0x0 SWAP1 DUP2 MSTORE PUSH1 0x7 PUSH1 0x20 MSTORE PUSH1 0x40 SWAP1 KECCAK256 SLOAD PUSH1 0xFF AND DUP1 ISZERO PUSH2 0x1D59 JUMPI POP PUSH1 0x1 PUSH1 0x1 PUSH1 0xA0 SHL SUB DUP4 AND PUSH1 0x0 SWAP1 DUP2 MSTORE PUSH1 0x7 PUSH1 0x20 MSTORE PUSH1 0x40 SWAP1 KECCAK256 SLOAD PUSH1 0xFF AND JUMPDEST ISZERO PUSH2 0x1D69 JUMPI PUSH2 0x1C71 DUP5 DUP5 DUP5 PUSH2 0x2284 JUMP JUMPDEST PUSH2 0x1D74 DUP5 DUP5 DUP5 PUSH2 0x223A JUMP JUMPDEST DUP1 PUSH2 0x1D81 JUMPI PUSH2 0x1D81 PUSH2 0x2303 JUMP JUMPDEST POP POP POP POP JUMP JUMPDEST PUSH1 0xA SLOAD PUSH1 0x9 SLOAD PUSH1 0x0 SWAP2 DUP3 SWAP2 DUP3 JUMPDEST PUSH1 0x8 SLOAD DUP2 LT ISZERO PUSH2 0x1EC4 JUMPI DUP3 PUSH1 0x3 PUSH1 0x0 PUSH1 0x8 DUP5 DUP2 SLOAD DUP2 LT PUSH2 0x1DB0 JUMPI INVALID JUMPDEST PUSH1 0x0 SWAP2 DUP3 MSTORE PUSH1 0x20 DUP1 DUP4 KECCAK256 SWAP1 SWAP2 ADD SLOAD PUSH1 0x1 PUSH1 0x1 PUSH1 0xA0 SHL SUB AND DUP4 MSTORE DUP3 ADD SWAP3 SWAP1 SWAP3 MSTORE PUSH1 0x40 ADD SWAP1 KECCAK256 SLOAD GT DUP1 PUSH2 0x1E15 JUMPI POP DUP2 PUSH1 0x4 PUSH1 0x0 PUSH1 0x8 DUP5 DUP2 SLOAD DUP2 LT PUSH2 0x1DEE JUMPI INVALID JUMPDEST PUSH1 0x0 SWAP2 DUP3 MSTORE PUSH1 0x20 DUP1 DUP4 KECCAK256 SWAP1 SWAP2 ADD SLOAD PUSH1 0x1 PUSH1 0x1 PUSH1 0xA0 SHL SUB AND DUP4 MSTORE DUP3 ADD SWAP3 SWAP1 SWAP3 MSTORE PUSH1 0x40 ADD SWAP1 KECCAK256 SLOAD GT JUMPDEST ISZERO PUSH2 0x1E2C JUMPI PUSH1 0xA SLOAD PUSH1 0x9 SLOAD SWAP5 POP SWAP5 POP POP POP POP PUSH2 0x1EF8 JUMP JUMPDEST PUSH2 0x1E72 PUSH1 0x3 PUSH1 0x0 PUSH1 0x8 DUP5 DUP2 SLOAD DUP2 LT PUSH2 0x1E40 JUMPI INVALID JUMPDEST PUSH1 0x0 SWAP2 DUP3 MSTORE PUSH1 0x20 DUP1 DUP4 KECCAK256 SWAP1 SWAP2 ADD SLOAD PUSH1 0x1 PUSH1 0x1 PUSH1 0xA0 SHL SUB AND DUP4 MSTORE DUP3 ADD SWAP3 SWAP1 SWAP3 MSTORE PUSH1 0x40 ADD SWAP1 KECCAK256 SLOAD DUP5 SWAP1 PUSH4 0xFFFFFFFF PUSH2 0x1B78 AND JUMP JUMPDEST SWAP3 POP PUSH2 0x1EBA PUSH1 0x4 PUSH1 0x0 PUSH1 0x8 DUP5 DUP2 SLOAD DUP2 LT PUSH2 0x1E88 JUMPI INVALID JUMPDEST PUSH1 0x0 SWAP2 DUP3 MSTORE PUSH1 0x20 DUP1 DUP4 KECCAK256 SWAP1 SWAP2 ADD SLOAD PUSH1 0x1 PUSH1 0x1 PUSH1 0xA0 SHL SUB AND DUP4 MSTORE DUP3 ADD SWAP3 SWAP1 SWAP3 MSTORE PUSH1 0x40 ADD SWAP1 KECCAK256 SLOAD DUP4 SWAP1 PUSH4 0xFFFFFFFF PUSH2 0x1B78 AND JUMP JUMPDEST SWAP2 POP PUSH1 0x1 ADD PUSH2 0x1D94 JUMP JUMPDEST POP PUSH1 0x9 SLOAD PUSH1 0xA SLOAD PUSH2 0x1EDA SWAP2 PUSH4 0xFFFFFFFF PUSH2 0x1A86 AND JUMP JUMPDEST DUP3 LT ISZERO PUSH2 0x1EF2 JUMPI PUSH1 0xA SLOAD PUSH1 0x9 SLOAD SWAP4 POP SWAP4 POP POP POP PUSH2 0x1EF8 JUMP JUMPDEST SWAP1 SWAP3 POP SWAP1 POP JUMPDEST SWAP1 SWAP2 JUMP JUMPDEST PUSH1 0x0 DUP2 DUP4 PUSH2 0x1F4B JUMPI PUSH1 0x40 MLOAD PUSH3 0x461BCD PUSH1 0xE5 SHL DUP2 MSTORE PUSH1 0x20 PUSH1 0x4 DUP3 ADD DUP2 DUP2 MSTORE DUP4 MLOAD PUSH1 0x24 DUP5 ADD MSTORE DUP4 MLOAD SWAP1 SWAP3 DUP4 SWAP3 PUSH1 0x44 SWAP1 SWAP2 ADD SWAP2 SWAP1 DUP6 ADD SWAP1 DUP1 DUP4 DUP4 PUSH1 0x0 DUP4 ISZERO PUSH2 0x1A1A JUMPI DUP2 DUP2 ADD MLOAD DUP4 DUP3 ADD MSTORE PUSH1 0x20 ADD PUSH2 0x1A02 JUMP JUMPDEST POP PUSH1 0x0 DUP4 DUP6 DUP2 PUSH2 0x1F57 JUMPI INVALID JUMPDEST DIV SWAP6 SWAP5 POP POP POP POP POP JUMP JUMPDEST PUSH1 0x0 DUP1 PUSH1 0x0 DUP1 PUSH2 0x1F70 DUP6 PUSH2 0x2311 JUMP JUMPDEST SWAP1 POP PUSH1 0x0 PUSH2 0x1F7D DUP7 PUSH2 0x232D JUMP JUMPDEST SWAP1 POP PUSH1 0x0 PUSH2 0x1FA1 DUP3 PUSH2 0x1F95 DUP10 DUP7 PUSH4 0xFFFFFFFF PUSH2 0x1B78 AND JUMP JUMPDEST SWAP1 PUSH4 0xFFFFFFFF PUSH2 0x1B78 AND JUMP JUMPDEST SWAP8 SWAP3 SWAP7 POP SWAP1 SWAP5 POP SWAP1 SWAP3 POP POP POP JUMP JUMPDEST PUSH1 0x0 DUP1 DUP1 DUP1 PUSH2 0x1FC4 DUP9 DUP7 PUSH4 0xFFFFFFFF PUSH2 0x1BBA AND JUMP JUMPDEST SWAP1 POP PUSH1 0x0 PUSH2 0x1FD8 DUP9 DUP8 PUSH4 0xFFFFFFFF PUSH2 0x1BBA AND JUMP JUMPDEST SWAP1 POP PUSH1 0x0 PUSH2 0x1FEC DUP9 DUP9 PUSH4 0xFFFFFFFF PUSH2 0x1BBA AND JUMP JUMPDEST SWAP1 POP PUSH1 0x0 PUSH2 0x2004 DUP3 PUSH2 0x1F95 DUP7 DUP7 PUSH4 0xFFFFFFFF PUSH2 0x1B78 AND JUMP JUMPDEST SWAP4 SWAP12 SWAP4 SWAP11 POP SWAP2 SWAP9 POP SWAP2 SWAP7 POP POP POP POP POP POP POP JUMP JUMPDEST PUSH1 0xF SLOAD ISZERO DUP1 ISZERO PUSH2 0x2027 JUMPI POP PUSH1 0x11 SLOAD ISZERO JUMPDEST ISZERO PUSH2 0x2031 JUMPI PUSH2 0x2047 JUMP JUMPDEST PUSH1 0xF DUP1 SLOAD PUSH1 0x10 SSTORE PUSH1 0x11 DUP1 SLOAD PUSH1 0x12 SSTORE PUSH1 0x0 SWAP2 DUP3 SWAP1 SSTORE SSTORE JUMPDEST JUMP JUMPDEST PUSH1 0x0 DUP1 PUSH1 0x0 DUP1 PUSH1 0x0 DUP1 PUSH2 0x205B DUP8 PUSH2 0x1B29 JUMP JUMPDEST PUSH1 0x1 PUSH1 0x1 PUSH1 0xA0 SHL SUB DUP16 AND PUSH1 0x0 SWAP1 DUP2 MSTORE PUSH1 0x4 PUSH1 0x20 MSTORE PUSH1 0x40 SWAP1 KECCAK256 SLOAD SWAP6 SWAP12 POP SWAP4 SWAP10 POP SWAP2 SWAP8 POP SWAP6 POP SWAP4 POP SWAP2 POP PUSH2 0x2093 SWAP1 DUP9 PUSH4 0xFFFFFFFF PUSH2 0x1B78 AND JUMP JUMPDEST PUSH1 0x1 PUSH1 0x1 PUSH1 0xA0 SHL SUB DUP11 AND PUSH1 0x0 SWAP1 DUP2 MSTORE PUSH1 0x4 PUSH1 0x20 SWAP1 DUP2 MSTORE PUSH1 0x40 DUP1 DUP4 KECCAK256 SWAP4 SWAP1 SWAP4 SSTORE PUSH1 0x3 SWAP1 MSTORE KECCAK256 SLOAD PUSH2 0x20C8 SWAP1 DUP8 PUSH4 0xFFFFFFFF PUSH2 0x1B78 AND JUMP JUMPDEST PUSH1 0x1 PUSH1 0x1 PUSH1 0xA0 SHL SUB DUP1 DUP12 AND PUSH1 0x0 SWAP1 DUP2 MSTORE PUSH1 0x3 PUSH1 0x20 MSTORE PUSH1 0x40 DUP1 DUP3 KECCAK256 SWAP4 SWAP1 SWAP4 SSTORE SWAP1 DUP11 AND DUP2 MSTORE KECCAK256 SLOAD PUSH2 0x20FD SWAP1 DUP7 PUSH4 0xFFFFFFFF PUSH2 0x1ACF AND JUMP JUMPDEST PUSH1 0x1 PUSH1 0x1 PUSH1 0xA0 SHL SUB DUP10 AND PUSH1 0x0 SWAP1 DUP2 MSTORE PUSH1 0x3 PUSH1 0x20 MSTORE PUSH1 0x40 SWAP1 KECCAK256 SSTORE PUSH2 0x211F DUP2 PUSH2 0x2349 JUMP JUMPDEST PUSH2 0x2129 DUP5 DUP4 PUSH2 0x23E4 JUMP JUMPDEST DUP8 PUSH1 0x1 PUSH1 0x1 PUSH1 0xA0 SHL SUB AND DUP10 PUSH1 0x1 PUSH1 0x1 PUSH1 0xA0 SHL SUB AND PUSH32 0xDDF252AD1BE2C89B69C2B068FC378DAA952BA7F163C4A11628F55A4DF523B3EF DUP6 PUSH1 0x40 MLOAD DUP1 DUP3 DUP2 MSTORE PUSH1 0x20 ADD SWAP2 POP POP PUSH1 0x40 MLOAD DUP1 SWAP2 SUB SWAP1 LOG3 POP POP POP POP POP POP POP POP POP JUMP JUMPDEST PUSH1 0x0 DUP1 PUSH1 0x0 DUP1 PUSH1 0x0 DUP1 PUSH2 0x2191 DUP8 PUSH2 0x1B29 JUMP JUMPDEST PUSH1 0x1 PUSH1 0x1 PUSH1 0xA0 SHL SUB DUP16 AND PUSH1 0x0 SWAP1 DUP2 MSTORE PUSH1 0x3 PUSH1 0x20 MSTORE PUSH1 0x40 SWAP1 KECCAK256 SLOAD SWAP6 SWAP12 POP SWAP4 SWAP10 POP SWAP2 SWAP8 POP SWAP6 POP SWAP4 POP SWAP2 POP PUSH2 0x21C9 SWAP1 DUP8 PUSH4 0xFFFFFFFF PUSH2 0x1B78 AND JUMP JUMPDEST PUSH1 0x1 PUSH1 0x1 PUSH1 0xA0 SHL SUB DUP1 DUP12 AND PUSH1 0x0 SWAP1 DUP2 MSTORE PUSH1 0x3 PUSH1 0x20 SWAP1 DUP2 MSTORE PUSH1 0x40 DUP1 DUP4 KECCAK256 SWAP5 SWAP1 SWAP5 SSTORE SWAP2 DUP12 AND DUP2 MSTORE PUSH1 0x4 SWAP1 SWAP2 MSTORE KECCAK256 SLOAD PUSH2 0x2205 SWAP1 DUP5 PUSH4 0xFFFFFFFF PUSH2 0x1ACF AND JUMP JUMPDEST PUSH1 0x1 PUSH1 0x1 PUSH1 0xA0 SHL SUB DUP10 AND PUSH1 0x0 SWAP1 DUP2 MSTORE PUSH1 0x4 PUSH1 0x20 SWAP1 DUP2 MSTORE PUSH1 0x40 DUP1 DUP4 KECCAK256 SWAP4 SWAP1 SWAP4 SSTORE PUSH1 0x3 SWAP1 MSTORE KECCAK256 SLOAD PUSH2 0x20FD SWAP1 DUP7 PUSH4 0xFFFFFFFF PUSH2 0x1ACF AND JUMP JUMPDEST PUSH1 0x0 DUP1 PUSH1 0x0 DUP1 PUSH1 0x0 DUP1 PUSH2 0x224C DUP8 PUSH2 0x1B29 JUMP JUMPDEST PUSH1 0x1 PUSH1 0x1 PUSH1 0xA0 SHL SUB DUP16 AND PUSH1 0x0 SWAP1 DUP2 MSTORE PUSH1 0x3 PUSH1 0x20 MSTORE PUSH1 0x40 SWAP1 KECCAK256 SLOAD SWAP6 SWAP12 POP SWAP4 SWAP10 POP SWAP2 SWAP8 POP SWAP6 POP SWAP4 POP SWAP2 POP PUSH2 0x20C8 SWAP1 DUP8 PUSH4 0xFFFFFFFF PUSH2 0x1B78 AND JUMP JUMPDEST PUSH1 0x0 DUP1 PUSH1 0x0 DUP1 PUSH1 0x0 DUP1 PUSH2 0x2296 DUP8 PUSH2 0x1B29 JUMP JUMPDEST PUSH1 0x1 PUSH1 0x1 PUSH1 0xA0 SHL SUB DUP16 AND PUSH1 0x0 SWAP1 DUP2 MSTORE PUSH1 0x4 PUSH1 0x20 MSTORE PUSH1 0x40 SWAP1 KECCAK256 SLOAD SWAP6 SWAP12 POP SWAP4 SWAP10 POP SWAP2 SWAP8 POP SWAP6 POP SWAP4 POP SWAP2 POP PUSH2 0x22CE SWAP1 DUP9 PUSH4 0xFFFFFFFF PUSH2 0x1B78 AND JUMP JUMPDEST PUSH1 0x1 PUSH1 0x1 PUSH1 0xA0 SHL SUB DUP11 AND PUSH1 0x0 SWAP1 DUP2 MSTORE PUSH1 0x4 PUSH1 0x20 SWAP1 DUP2 MSTORE PUSH1 0x40 DUP1 DUP4 KECCAK256 SWAP4 SWAP1 SWAP4 SSTORE PUSH1 0x3 SWAP1 MSTORE KECCAK256 SLOAD PUSH2 0x21C9 SWAP1 DUP8 PUSH4 0xFFFFFFFF PUSH2 0x1B78 AND JUMP JUMPDEST PUSH1 0x10 SLOAD PUSH1 0xF SSTORE PUSH1 0x12 SLOAD PUSH1 0x11 SSTORE JUMP JUMPDEST PUSH1 0x0 PUSH2 0x953 PUSH1 0x64 PUSH2 0x149C PUSH1 0xF SLOAD DUP6 PUSH2 0x1BBA SWAP1 SWAP2 SWAP1 PUSH4 0xFFFFFFFF AND JUMP JUMPDEST PUSH1 0x0 PUSH2 0x953 PUSH1 0x64 PUSH2 0x149C PUSH1 0x11 SLOAD DUP6 PUSH2 0x1BBA SWAP1 SWAP2 SWAP1 PUSH4 0xFFFFFFFF AND JUMP JUMPDEST PUSH1 0x0 PUSH2 0x2353 PUSH2 0x1A5D JUMP JUMPDEST SWAP1 POP PUSH1 0x0 PUSH2 0x2367 DUP4 DUP4 PUSH4 0xFFFFFFFF PUSH2 0x1BBA AND JUMP JUMPDEST ADDRESS PUSH1 0x0 SWAP1 DUP2 MSTORE PUSH1 0x3 PUSH1 0x20 MSTORE PUSH1 0x40 SWAP1 KECCAK256 SLOAD SWAP1 SWAP2 POP PUSH2 0x238A SWAP1 DUP3 PUSH4 0xFFFFFFFF PUSH2 0x1ACF AND JUMP JUMPDEST ADDRESS PUSH1 0x0 SWAP1 DUP2 MSTORE PUSH1 0x3 PUSH1 0x20 SWAP1 DUP2 MSTORE PUSH1 0x40 DUP1 DUP4 KECCAK256 SWAP4 SWAP1 SWAP4 SSTORE PUSH1 0x7 SWAP1 MSTORE KECCAK256 SLOAD PUSH1 0xFF AND ISZERO PUSH2 0x23DF JUMPI ADDRESS PUSH1 0x0 SWAP1 DUP2 MSTORE PUSH1 0x4 PUSH1 0x20 MSTORE PUSH1 0x40 SWAP1 KECCAK256 SLOAD PUSH2 0x23CE SWAP1 DUP5 PUSH4 0xFFFFFFFF PUSH2 0x1ACF AND JUMP JUMPDEST ADDRESS PUSH1 0x0 SWAP1 DUP2 MSTORE PUSH1 0x4 PUSH1 0x20 MSTORE PUSH1 0x40 SWAP1 KECCAK256 SSTORE JUMPDEST POP POP POP JUMP JUMPDEST PUSH1 0xA SLOAD PUSH2 0x23F7 SWAP1 DUP4 PUSH4 0xFFFFFFFF PUSH2 0x1B78 AND JUMP JUMPDEST PUSH1 0xA SSTORE PUSH1 0xB SLOAD PUSH2 0x240D SWAP1 DUP3 PUSH4 0xFFFFFFFF PUSH2 0x1ACF AND JUMP JUMPDEST PUSH1 0xB SSTORE POP POP JUMP INVALID GASLIMIT MSTORE NUMBER ORIGIN ADDRESS GASPRICE KECCAK256 PUSH21 0x72616E7366657220746F20746865207A65726F2061 PUSH5 0x6472657373 COINBASE PUSH14 0x6F756E74206D757374206265206C PUSH6 0x737320746861 PUSH15 0x20746F74616C207265666C65637469 PUSH16 0x6E734F776E61626C653A206E6577206F PUSH24 0x6E657220697320746865207A65726F206164647265737345 MSTORE NUMBER ORIGIN ADDRESS GASPRICE KECCAK256 PUSH2 0x7070 PUSH19 0x6F766520746F20746865207A65726F20616464 PUSH19 0x6573735472616E7366657220616D6F756E7420 PUSH6 0x786365656473 KECCAK256 PUSH21 0x6865206D61785478416D6F756E742E536166654D61 PUSH21 0x683A206D756C7469706C69636174696F6E206F7665 PUSH19 0x666C6F7745524332303A207472616E73666572 KECCAK256 PUSH2 0x6D6F PUSH22 0x6E74206578636565647320616C6C6F77616E63654F77 PUSH15 0x61626C653A2063616C6C6572206973 KECCAK256 PUSH15 0x6F7420746865206F776E65728BE007 SWAP13 MSTORE8 AND MSIZE EQ SGT DIFFICULTY 0xCD 0x1F 0xD0 LOG4 CALLCODE DUP5 NOT 0x49 PUSH32 0x9722A3DAAFE3B4186F6B6457E05472616E7366657220616D6F756E74206D7573 PUSH21 0x2062652067726561746572207468616E207A65726F GASLIMIT MSTORE NUMBER ORIGIN ADDRESS GASPRICE KECCAK256 PUSH21 0x72616E736665722066726F6D20746865207A65726F KECCAK256 PUSH2 0x6464 PUSH19 0x65737345524332303A20617070726F76652066 PUSH19 0x6F6D20746865207A65726F2061646472657373 GASLIMIT PUSH25 0x636C75646564206164647265737365732063616E6E6F742063 PUSH2 0x6C6C KECCAK256 PUSH21 0x6869732066756E6374696F6E596F7520646F6E2774 KECCAK256 PUSH9 0x617665207065726D69 PUSH20 0x73696F6E20746F20756E6C6F636B45524332303A KECCAK256 PUSH5 0x6563726561 PUSH20 0x656420616C6C6F77616E63652062656C6F77207A PUSH6 0x726FA2646970 PUSH7 0x73582212208B7E 0xBC PUSH32 0x265573A75C42C270122E8B8C7EFAAC7D6C1808595EA2AFD3B913860D64736F6C PUSH4 0x43000606 STOP CALLER "
				},
				"gasEstimates": {
					"creation": {
						"codeDepositCost": "1969200",
						"executionCost": "infinite",
						"totalCost": "infinite"
					},
					"external": {
						"_liquidityFee()": "1044",
						"_maxTxAmount()": "1110",
						"_taxFee()": "1088",
						"allowance(address,address)": "1338",
						"approve(address,uint256)": "infinite",
						"balanceOf(address)": "infinite",
						"decimals()": "1125",
						"decreaseAllowance(address,uint256)": "infinite",
						"deliver(uint256)": "infinite",
						"excludeFromFee(address)": "infinite",
						"excludeFromReward(address)": "infinite",
						"geUnlockTime()": "1087",
						"includeInFee(address)": "infinite",
						"includeInReward(address)": "infinite",
						"increaseAllowance(address,uint256)": "infinite",
						"isExcludedFromFee(address)": "1287",
						"isExcludedFromReward(address)": "1199",
						"lock(uint256)": "infinite",
						"name()": "infinite",
						"owner()": "1104",
						"reflectionFromToken(uint256,bool)": "infinite",
						"renounceOwnership()": "infinite",
						"setLiquidityFeePercent(uint256)": "infinite",
						"setMaxTxPercent(uint256)": "infinite",
						"setSwapAndLiquifyEnabled(bool)": "infinite",
						"setTaxFeePercent(uint256)": "infinite",
						"swapAndLiquifyEnabled()": "1110",
						"symbol()": "infinite",
						"tokenFromReflection(uint256)": "infinite",
						"totalFees()": "1111",
						"totalSupply()": "1044",
						"transfer(address,uint256)": "infinite",
						"transferFrom(address,address,uint256)": "infinite",
						"transferOwnership(address)": "infinite",
						"unlock()": "infinite"
					},
					"internal": {
						"_approve(address,address,uint256)": "infinite",
						"_getCurrentSupply()": "infinite",
						"_getRValues(uint256,uint256,uint256,uint256)": "infinite",
						"_getRate()": "infinite",
						"_getTValues(uint256)": "infinite",
						"_getValues(uint256)": "infinite",
						"_reflectFee(uint256,uint256)": "infinite",
						"_takeLiquidity(uint256)": "infinite",
						"_tokenTransfer(address,address,uint256,bool)": "infinite",
						"_transfer(address,address,uint256)": "infinite",
						"_transferBothExcluded(address,address,uint256)": "infinite",
						"_transferFromExcluded(address,address,uint256)": "infinite",
						"_transferStandard(address,address,uint256)": "infinite",
						"_transferToExcluded(address,address,uint256)": "infinite",
						"calculateLiquidityFee(uint256)": "infinite",
						"calculateTaxFee(uint256)": "infinite",
						"removeAllFee()": "53291",
						"restoreAllFee()": "41621"
					}
				},
				"methodIdentifiers": {
					"_liquidityFee()": "6bc87c3a",
					"_maxTxAmount()": "7d1db4a5",
					"_taxFee()": "3b124fe7",
					"allowance(address,address)": "dd62ed3e",
					"approve(address,uint256)": "095ea7b3",
					"balanceOf(address)": "70a08231",
					"decimals()": "313ce567",
					"decreaseAllowance(address,uint256)": "a457c2d7",
					"deliver(uint256)": "3bd5d173",
					"excludeFromFee(address)": "437823ec",
					"excludeFromReward(address)": "52390c02",
					"geUnlockTime()": "b6c52324",
					"includeInFee(address)": "ea2f0b37",
					"includeInReward(address)": "3685d419",
					"increaseAllowance(address,uint256)": "39509351",
					"isExcludedFromFee(address)": "5342acb4",
					"isExcludedFromReward(address)": "88f82020",
					"lock(uint256)": "dd467064",
					"name()": "06fdde03",
					"owner()": "8da5cb5b",
					"reflectionFromToken(uint256,bool)": "4549b039",
					"renounceOwnership()": "715018a6",
					"setLiquidityFeePercent(uint256)": "8ee88c53",
					"setMaxTxPercent(uint256)": "d543dbeb",
					"setSwapAndLiquifyEnabled(bool)": "c49b9a80",
					"setTaxFeePercent(uint256)": "061c82d0",
					"swapAndLiquifyEnabled()": "4a74bb02",
					"symbol()": "95d89b41",
					"tokenFromReflection(uint256)": "2d838119",
					"totalFees()": "13114a9d",
					"totalSupply()": "18160ddd",
					"transfer(address,uint256)": "a9059cbb",
					"transferFrom(address,address,uint256)": "23b872dd",
					"transferOwnership(address)": "f2fde38b",
					"unlock()": "a69df4b5"
				}
			},
			"storageLayout": {
				"storage": [
					{
						"astId": 497,
						"contract": "bitlime-periphery/contracts/Safemoon.sol:SafeMoon",
						"label": "_owner",
						"offset": 0,
						"slot": "0",
						"type": "t_address"
					},
					{
						"astId": 499,
						"contract": "bitlime-periphery/contracts/Safemoon.sol:SafeMoon",
						"label": "_previousOwner",
						"offset": 0,
						"slot": "1",
						"type": "t_address"
					},
					{
						"astId": 501,
						"contract": "bitlime-periphery/contracts/Safemoon.sol:SafeMoon",
						"label": "_lockTime",
						"offset": 0,
						"slot": "2",
						"type": "t_uint256"
					},
					{
						"astId": 1379,
						"contract": "bitlime-periphery/contracts/Safemoon.sol:SafeMoon",
						"label": "_rOwned",
						"offset": 0,
						"slot": "3",
						"type": "t_mapping(t_address,t_uint256)"
					},
					{
						"astId": 1383,
						"contract": "bitlime-periphery/contracts/Safemoon.sol:SafeMoon",
						"label": "_tOwned",
						"offset": 0,
						"slot": "4",
						"type": "t_mapping(t_address,t_uint256)"
					},
					{
						"astId": 1389,
						"contract": "bitlime-periphery/contracts/Safemoon.sol:SafeMoon",
						"label": "_allowances",
						"offset": 0,
						"slot": "5",
						"type": "t_mapping(t_address,t_mapping(t_address,t_uint256))"
					},
					{
						"astId": 1393,
						"contract": "bitlime-periphery/contracts/Safemoon.sol:SafeMoon",
						"label": "_isExcludedFromFee",
						"offset": 0,
						"slot": "6",
						"type": "t_mapping(t_address,t_bool)"
					},
					{
						"astId": 1397,
						"contract": "bitlime-periphery/contracts/Safemoon.sol:SafeMoon",
						"label": "_isExcluded",
						"offset": 0,
						"slot": "7",
						"type": "t_mapping(t_address,t_bool)"
					},
					{
						"astId": 1400,
						"contract": "bitlime-periphery/contracts/Safemoon.sol:SafeMoon",
						"label": "_excluded",
						"offset": 0,
						"slot": "8",
						"type": "t_array(t_address)dyn_storage"
					},
					{
						"astId": 1418,
						"contract": "bitlime-periphery/contracts/Safemoon.sol:SafeMoon",
						"label": "_tTotal",
						"offset": 0,
						"slot": "9",
						"type": "t_uint256"
					},
					{
						"astId": 1427,
						"contract": "bitlime-periphery/contracts/Safemoon.sol:SafeMoon",
						"label": "_rTotal",
						"offset": 0,
						"slot": "10",
						"type": "t_uint256"
					},
					{
						"astId": 1429,
						"contract": "bitlime-periphery/contracts/Safemoon.sol:SafeMoon",
						"label": "_tFeeTotal",
						"offset": 0,
						"slot": "11",
						"type": "t_uint256"
					},
					{
						"astId": 1432,
						"contract": "bitlime-periphery/contracts/Safemoon.sol:SafeMoon",
						"label": "_name",
						"offset": 0,
						"slot": "12",
						"type": "t_string_storage"
					},
					{
						"astId": 1435,
						"contract": "bitlime-periphery/contracts/Safemoon.sol:SafeMoon",
						"label": "_symbol",
						"offset": 0,
						"slot": "13",
						"type": "t_string_storage"
					},
					{
						"astId": 1438,
						"contract": "bitlime-periphery/contracts/Safemoon.sol:SafeMoon",
						"label": "_decimals",
						"offset": 0,
						"slot": "14",
						"type": "t_uint8"
					},
					{
						"astId": 1441,
						"contract": "bitlime-periphery/contracts/Safemoon.sol:SafeMoon",
						"label": "_taxFee",
						"offset": 0,
						"slot": "15",
						"type": "t_uint256"
					},
					{
						"astId": 1444,
						"contract": "bitlime-periphery/contracts/Safemoon.sol:SafeMoon",
						"label": "_previousTaxFee",
						"offset": 0,
						"slot": "16",
						"type": "t_uint256"
					},
					{
						"astId": 1447,
						"contract": "bitlime-periphery/contracts/Safemoon.sol:SafeMoon",
						"label": "_liquidityFee",
						"offset": 0,
						"slot": "17",
						"type": "t_uint256"
					},
					{
						"astId": 1450,
						"contract": "bitlime-periphery/contracts/Safemoon.sol:SafeMoon",
						"label": "_previousLiquidityFee",
						"offset": 0,
						"slot": "18",
						"type": "t_uint256"
					},
					{
						"astId": 1452,
						"contract": "bitlime-periphery/contracts/Safemoon.sol:SafeMoon",
						"label": "inSwapAndLiquify",
						"offset": 0,
						"slot": "19",
						"type": "t_bool"
					},
					{
						"astId": 1455,
						"contract": "bitlime-periphery/contracts/Safemoon.sol:SafeMoon",
						"label": "swapAndLiquifyEnabled",
						"offset": 1,
						"slot": "19",
						"type": "t_bool"
					},
					{
						"astId": 1466,
						"contract": "bitlime-periphery/contracts/Safemoon.sol:SafeMoon",
						"label": "_maxTxAmount",
						"offset": 0,
						"slot": "20",
						"type": "t_uint256"
					},
					{
						"astId": 1477,
						"contract": "bitlime-periphery/contracts/Safemoon.sol:SafeMoon",
						"label": "numTokensSellToAddToLiquidity",
						"offset": 0,
						"slot": "21",
						"type": "t_uint256"
					}
				],
				"types": {
					"t_address": {
						"encoding": "inplace",
						"label": "address",
						"numberOfBytes": "20"
					},
					"t_array(t_address)dyn_storage": {
						"base": "t_address",
						"encoding": "dynamic_array",
						"label": "address[]",
						"numberOfBytes": "32"
					},
					"t_bool": {
						"encoding": "inplace",
						"label": "bool",
						"numberOfBytes": "1"
					},
					"t_mapping(t_address,t_bool)": {
						"encoding": "mapping",
						"key": "t_address",
						"label": "mapping(address => bool)",
						"numberOfBytes": "32",
						"value": "t_bool"
					},
					"t_mapping(t_address,t_mapping(t_address,t_uint256))": {
						"encoding": "mapping",
						"key": "t_address",
						"label": "mapping(address => mapping(address => uint256))",
						"numberOfBytes": "32",
						"value": "t_mapping(t_address,t_uint256)"
					},
					"t_mapping(t_address,t_uint256)": {
						"encoding": "mapping",
						"key": "t_address",
						"label": "mapping(address => uint256)",
						"numberOfBytes": "32",
						"value": "t_uint256"
					},
					"t_string_storage": {
						"encoding": "bytes",
						"label": "string",
						"numberOfBytes": "32"
					},
					"t_uint256": {
						"encoding": "inplace",
						"label": "uint256",
						"numberOfBytes": "32"
					},
					"t_uint8": {
						"encoding": "inplace",
						"label": "uint8",
						"numberOfBytes": "1"
					}
				}
			},
			"userdoc": {
				"methods": {}
			}
		}
	}
}