{
	"bitlime-periphery/contracts/Safemoon.sol": {
		"SafeMoon": {
			"abi": [
				{
					"inputs": [],
					"stateMutability": "nonpayable",
					"type": "constructor"
				},
				{
					"anonymous": false,
					"inputs": [
						{
							"indexed": true,
							"internalType": "address",
							"name": "owner",
							"type": "address"
						},
						{
							"indexed": true,
							"internalType": "address",
							"name": "spender",
							"type": "address"
						},
						{
							"indexed": false,
							"internalType": "uint256",
							"name": "value",
							"type": "uint256"
						}
					],
					"name": "Approval",
					"type": "event"
				},
				{
					"anonymous": false,
					"inputs": [
						{
							"indexed": false,
							"internalType": "uint256",
							"name": "minTokensBeforeSwap",
							"type": "uint256"
						}
					],
					"name": "MinTokensBeforeSwapUpdated",
					"type": "event"
				},
				{
					"anonymous": false,
					"inputs": [
						{
							"indexed": true,
							"internalType": "address",
							"name": "previousOwner",
							"type": "address"
						},
						{
							"indexed": true,
							"internalType": "address",
							"name": "newOwner",
							"type": "address"
						}
					],
					"name": "OwnershipTransferred",
					"type": "event"
				},
				{
					"anonymous": false,
					"inputs": [
						{
							"indexed": false,
							"internalType": "uint256",
							"name": "tokensSwapped",
							"type": "uint256"
						},
						{
							"indexed": false,
							"internalType": "uint256",
							"name": "ethReceived",
							"type": "uint256"
						},
						{
							"indexed": false,
							"internalType": "uint256",
							"name": "tokensIntoLiqudity",
							"type": "uint256"
						}
					],
					"name": "SwapAndLiquify",
					"type": "event"
				},
				{
					"anonymous": false,
					"inputs": [
						{
							"indexed": false,
							"internalType": "bool",
							"name": "enabled",
							"type": "bool"
						}
					],
					"name": "SwapAndLiquifyEnabledUpdated",
					"type": "event"
				},
				{
					"anonymous": false,
					"inputs": [
						{
							"indexed": true,
							"internalType": "address",
							"name": "from",
							"type": "address"
						},
						{
							"indexed": true,
							"internalType": "address",
							"name": "to",
							"type": "address"
						},
						{
							"indexed": false,
							"internalType": "uint256",
							"name": "value",
							"type": "uint256"
						}
					],
					"name": "Transfer",
					"type": "event"
				},
				{
					"inputs": [],
					"name": "_liquidityFee",
					"outputs": [
						{
							"internalType": "uint256",
							"name": "",
							"type": "uint256"
						}
					],
					"stateMutability": "view",
					"type": "function"
				},
				{
					"inputs": [],
					"name": "_maxTxAmount",
					"outputs": [
						{
							"internalType": "uint256",
							"name": "",
							"type": "uint256"
						}
					],
					"stateMutability": "view",
					"type": "function"
				},
				{
					"inputs": [],
					"name": "_taxFee",
					"outputs": [
						{
							"internalType": "uint256",
							"name": "",
							"type": "uint256"
						}
					],
					"stateMutability": "view",
					"type": "function"
				},
				{
					"inputs": [
						{
							"internalType": "address",
							"name": "owner",
							"type": "address"
						},
						{
							"internalType": "address",
							"name": "spender",
							"type": "address"
						}
					],
					"name": "allowance",
					"outputs": [
						{
							"internalType": "uint256",
							"name": "",
							"type": "uint256"
						}
					],
					"stateMutability": "view",
					"type": "function"
				},
				{
					"inputs": [
						{
							"internalType": "address",
							"name": "spender",
							"type": "address"
						},
						{
							"internalType": "uint256",
							"name": "amount",
							"type": "uint256"
						}
					],
					"name": "approve",
					"outputs": [
						{
							"internalType": "bool",
							"name": "",
							"type": "bool"
						}
					],
					"stateMutability": "nonpayable",
					"type": "function"
				},
				{
					"inputs": [
						{
							"internalType": "address",
							"name": "account",
							"type": "address"
						}
					],
					"name": "balanceOf",
					"outputs": [
						{
							"internalType": "uint256",
							"name": "",
							"type": "uint256"
						}
					],
					"stateMutability": "view",
					"type": "function"
				},
				{
					"inputs": [],
					"name": "decimals",
					"outputs": [
						{
							"internalType": "uint8",
							"name": "",
							"type": "uint8"
						}
					],
					"stateMutability": "view",
					"type": "function"
				},
				{
					"inputs": [
						{
							"internalType": "address",
							"name": "spender",
							"type": "address"
						},
						{
							"internalType": "uint256",
							"name": "subtractedValue",
							"type": "uint256"
						}
					],
					"name": "decreaseAllowance",
					"outputs": [
						{
							"internalType": "bool",
							"name": "",
							"type": "bool"
						}
					],
					"stateMutability": "nonpayable",
					"type": "function"
				},
				{
					"inputs": [
						{
							"internalType": "uint256",
							"name": "tAmount",
							"type": "uint256"
						}
					],
					"name": "deliver",
					"outputs": [],
					"stateMutability": "nonpayable",
					"type": "function"
				},
				{
					"inputs": [
						{
							"internalType": "address",
							"name": "account",
							"type": "address"
						}
					],
					"name": "excludeFromFee",
					"outputs": [],
					"stateMutability": "nonpayable",
					"type": "function"
				},
				{
					"inputs": [
						{
							"internalType": "address",
							"name": "account",
							"type": "address"
						}
					],
					"name": "excludeFromReward",
					"outputs": [],
					"stateMutability": "nonpayable",
					"type": "function"
				},
				{
					"inputs": [],
					"name": "geUnlockTime",
					"outputs": [
						{
							"internalType": "uint256",
							"name": "",
							"type": "uint256"
						}
					],
					"stateMutability": "view",
					"type": "function"
				},
				{
					"inputs": [
						{
							"internalType": "address",
							"name": "account",
							"type": "address"
						}
					],
					"name": "includeInFee",
					"outputs": [],
					"stateMutability": "nonpayable",
					"type": "function"
				},
				{
					"inputs": [
						{
							"internalType": "address",
							"name": "account",
							"type": "address"
						}
					],
					"name": "includeInReward",
					"outputs": [],
					"stateMutability": "nonpayable",
					"type": "function"
				},
				{
					"inputs": [
						{
							"internalType": "address",
							"name": "spender",
							"type": "address"
						},
						{
							"internalType": "uint256",
							"name": "addedValue",
							"type": "uint256"
						}
					],
					"name": "increaseAllowance",
					"outputs": [
						{
							"internalType": "bool",
							"name": "",
							"type": "bool"
						}
					],
					"stateMutability": "nonpayable",
					"type": "function"
				},
				{
					"inputs": [
						{
							"internalType": "address",
							"name": "account",
							"type": "address"
						}
					],
					"name": "isExcludedFromFee",
					"outputs": [
						{
							"internalType": "bool",
							"name": "",
							"type": "bool"
						}
					],
					"stateMutability": "view",
					"type": "function"
				},
				{
					"inputs": [
						{
							"internalType": "address",
							"name": "account",
							"type": "address"
						}
					],
					"name": "isExcludedFromReward",
					"outputs": [
						{
							"internalType": "bool",
							"name": "",
							"type": "bool"
						}
					],
					"stateMutability": "view",
					"type": "function"
				},
				{
					"inputs": [
						{
							"internalType": "uint256",
							"name": "time",
							"type": "uint256"
						}
					],
					"name": "lock",
					"outputs": [],
					"stateMutability": "nonpayable",
					"type": "function"
				},
				{
					"inputs": [],
					"name": "name",
					"outputs": [
						{
							"internalType": "string",
							"name": "",
							"type": "string"
						}
					],
					"stateMutability": "view",
					"type": "function"
				},
				{
					"inputs": [],
					"name": "owner",
					"outputs": [
						{
							"internalType": "address",
							"name": "",
							"type": "address"
						}
					],
					"stateMutability": "view",
					"type": "function"
				},
				{
					"inputs": [
						{
							"internalType": "uint256",
							"name": "tAmount",
							"type": "uint256"
						},
						{
							"internalType": "bool",
							"name": "deductTransferFee",
							"type": "bool"
						}
					],
					"name": "reflectionFromToken",
					"outputs": [
						{
							"internalType": "uint256",
							"name": "",
							"type": "uint256"
						}
					],
					"stateMutability": "view",
					"type": "function"
				},
				{
					"inputs": [],
					"name": "renounceOwnership",
					"outputs": [],
					"stateMutability": "nonpayable",
					"type": "function"
				},
				{
					"inputs": [
						{
							"internalType": "uint256",
							"name": "liquidityFee",
							"type": "uint256"
						}
					],
					"name": "setLiquidityFeePercent",
					"outputs": [],
					"stateMutability": "nonpayable",
					"type": "function"
				},
				{
					"inputs": [
						{
							"internalType": "uint256",
							"name": "maxTxPercent",
							"type": "uint256"
						}
					],
					"name": "setMaxTxPercent",
					"outputs": [],
					"stateMutability": "nonpayable",
					"type": "function"
				},
				{
					"inputs": [
						{
							"internalType": "bool",
							"name": "_enabled",
							"type": "bool"
						}
					],
					"name": "setSwapAndLiquifyEnabled",
					"outputs": [],
					"stateMutability": "nonpayable",
					"type": "function"
				},
				{
					"inputs": [
						{
							"internalType": "uint256",
							"name": "taxFee",
							"type": "uint256"
						}
					],
					"name": "setTaxFeePercent",
					"outputs": [],
					"stateMutability": "nonpayable",
					"type": "function"
				},
				{
					"inputs": [],
					"name": "swapAndLiquifyEnabled",
					"outputs": [
						{
							"internalType": "bool",
							"name": "",
							"type": "bool"
						}
					],
					"stateMutability": "view",
					"type": "function"
				},
				{
					"inputs": [],
					"name": "symbol",
					"outputs": [
						{
							"internalType": "string",
							"name": "",
							"type": "string"
						}
					],
					"stateMutability": "view",
					"type": "function"
				},
				{
					"inputs": [
						{
							"internalType": "uint256",
							"name": "rAmount",
							"type": "uint256"
						}
					],
					"name": "tokenFromReflection",
					"outputs": [
						{
							"internalType": "uint256",
							"name": "",
							"type": "uint256"
						}
					],
					"stateMutability": "view",
					"type": "function"
				},
				{
					"inputs": [],
					"name": "totalFees",
					"outputs": [
						{
							"internalType": "uint256",
							"name": "",
							"type": "uint256"
						}
					],
					"stateMutability": "view",
					"type": "function"
				},
				{
					"inputs": [],
					"name": "totalSupply",
					"outputs": [
						{
							"internalType": "uint256",
							"name": "",
							"type": "uint256"
						}
					],
					"stateMutability": "view",
					"type": "function"
				},
				{
					"inputs": [
						{
							"internalType": "address",
							"name": "recipient",
							"type": "address"
						},
						{
							"internalType": "uint256",
							"name": "amount",
							"type": "uint256"
						}
					],
					"name": "transfer",
					"outputs": [
						{
							"internalType": "bool",
							"name": "",
							"type": "bool"
						}
					],
					"stateMutability": "nonpayable",
					"type": "function"
				},
				{
					"inputs": [
						{
							"internalType": "address",
							"name": "sender",
							"type": "address"
						},
						{
							"internalType": "address",
							"name": "recipient",
							"type": "address"
						},
						{
							"internalType": "uint256",
							"name": "amount",
							"type": "uint256"
						}
					],
					"name": "transferFrom",
					"outputs": [
						{
							"internalType": "bool",
							"name": "",
							"type": "bool"
						}
					],
					"stateMutability": "nonpayable",
					"type": "function"
				},
				{
					"inputs": [
						{
							"internalType": "address",
							"name": "newOwner",
							"type": "address"
						}
					],
					"name": "transferOwnership",
					"outputs": [],
					"stateMutability": "nonpayable",
					"type": "function"
				},
				{
					"inputs": [],
					"name": "uniswapV2Pair",
					"outputs": [
						{
							"internalType": "address",
							"name": "",
							"type": "address"
						}
					],
					"stateMutability": "view",
					"type": "function"
				},
				{
					"inputs": [],
					"name": "uniswapV2Router",
					"outputs": [
						{
							"internalType": "contract IUniswapV2Router02",
							"name": "",
							"type": "address"
						}
					],
					"stateMutability": "view",
					"type": "function"
				},
				{
					"inputs": [],
					"name": "unlock",
					"outputs": [],
					"stateMutability": "nonpayable",
					"type": "function"
				},
				{
					"stateMutability": "payable",
					"type": "receive"
				}
			],
			"devdoc": {
				"methods": {
					"owner()": {
						"details": "Returns the address of the current owner."
					},
					"renounceOwnership()": {
						"details": "Leaves the contract without owner. It will not be possible to call `onlyOwner` functions anymore. Can only be called by the current owner.      * NOTE: Renouncing ownership will leave the contract without an owner, thereby removing any functionality that is only available to the owner."
					},
					"transferOwnership(address)": {
						"details": "Transfers ownership of the contract to a new account (`newOwner`). Can only be called by the current owner."
					}
				}
			},
			"evm": {
				"assembly": "    /* \"bitlime-periphery/contracts/Safemoon.sol\":26619:26645  1000000000 * 10**6 * 10**9 */\n  0xd3c21bcecceda1000000\n    /* \"bitlime-periphery/contracts/Safemoon.sol\":26593:26645  uint256 private _tTotal = 1000000000 * 10**6 * 10**9 */\n  0x09\n  sstore\n  not(0x085afffa6ff50bffffff)\n    /* \"bitlime-periphery/contracts/Safemoon.sol\":26652:26701  uint256 private _rTotal = (MAX - (MAX % _tTotal)) */\n  0x0a\n  sstore\n    /* \"bitlime-periphery/contracts/Safemoon.sol\":26743:26776  string private _name = \"SafeMoon\" */\n  0x0100\n    /* \"bitlime-periphery/contracts/Safemoon.sol\":26092:44457  contract SafeMoon is Context, IERC20, Ownable {\r... */\n  0x40\n    /* \"bitlime-periphery/contracts/Safemoon.sol\":26743:26776  string private _name = \"SafeMoon\" */\n  mstore\n  0x08\n    /* \"bitlime-periphery/contracts/Safemoon.sol\":26092:44457  contract SafeMoon is Context, IERC20, Ownable {\r... */\n  0xc0\n    /* \"bitlime-periphery/contracts/Safemoon.sol\":26743:26776  string private _name = \"SafeMoon\" */\n  dup2\n  swap1\n  mstore\n  shl(0xc1, 0x29b0b332a6b7b7b7)\n  0xe0\n  swap1\n  dup2\n  mstore\n  tag_2\n  swap2\n  0x0c\n  swap2\n  swap1\n  tag_3\n  jump\t// in\ntag_2:\n  pop\n    /* \"bitlime-periphery/contracts/Safemoon.sol\":26783:26818  string private _symbol = \"SAFEMOON\" */\n  0x40\n  dup1\n  mload\n  dup1\n  dup3\n  add\n  swap1\n  swap2\n  mstore\n  0x08\n  dup1\n  dup3\n  mstore\n  shl(0xc1, 0x29a0a322a6a7a7a7)\n  0x20\n  swap1\n  swap3\n  add\n  swap2\n  dup3\n  mstore\n  tag_4\n  swap2\n  0x0d\n  swap2\n  tag_3\n  jump\t// in\ntag_4:\n  pop\n    /* \"bitlime-periphery/contracts/Safemoon.sol\":26825:26852  uint8 private _decimals = 9 */\n  0x0e\n  dup1\n  sload\n  not(0xff)\n  and\n    /* \"bitlime-periphery/contracts/Safemoon.sol\":26851:26852  9 */\n  0x09\n    /* \"bitlime-periphery/contracts/Safemoon.sol\":26825:26852  uint8 private _decimals = 9 */\n  or\n  swap1\n  sstore\n    /* \"bitlime-periphery/contracts/Safemoon.sol\":26890:26891  5 */\n  0x05\n    /* \"bitlime-periphery/contracts/Safemoon.sol\":26865:26891  uint256 public _taxFee = 5 */\n  0x0f\n  dup2\n  swap1\n  sstore\n    /* \"bitlime-periphery/contracts/Safemoon.sol\":26898:26939  uint256 private _previousTaxFee = _taxFee */\n  0x10\n  dup2\n  swap1\n  sstore\n    /* \"bitlime-periphery/contracts/Safemoon.sol\":26952:26984  uint256 public _liquidityFee = 5 */\n  0x11\n  dup2\n  swap1\n  sstore\n    /* \"bitlime-periphery/contracts/Safemoon.sol\":26991:27044  uint256 private _previousLiquidityFee = _liquidityFee */\n  0x12\n  sstore\n    /* \"bitlime-periphery/contracts/Safemoon.sol\":27190:27230  bool public swapAndLiquifyEnabled = true */\n  0x13\n  dup1\n  sload\n  not(0xff00)\n  and\n    /* \"bitlime-periphery/contracts/Safemoon.sol\":26825:26852  uint8 private _decimals = 9 */\n  0x0100\n    /* \"bitlime-periphery/contracts/Safemoon.sol\":27190:27230  bool public swapAndLiquifyEnabled = true */\n  or\n  swap1\n  sstore\n    /* \"bitlime-periphery/contracts/Safemoon.sol\":27273:27296  5000000 * 10**6 * 10**9 */\n  0x010f0cf064dd59200000\n    /* \"bitlime-periphery/contracts/Safemoon.sol\":27243:27296  uint256 public _maxTxAmount = 5000000 * 10**6 * 10**9 */\n  0x14\n  sstore\n    /* \"bitlime-periphery/contracts/Safemoon.sol\":27351:27373  500000 * 10**6 * 10**9 */\n  0x1b1ae4d6e2ef500000\n    /* \"bitlime-periphery/contracts/Safemoon.sol\":27303:27373  uint256 private numTokensSellToAddToLiquidity = 500000 * 10**6 * 10**9 */\n  0x15\n  sstore\n    /* \"bitlime-periphery/contracts/Safemoon.sol\":27770:28479  constructor () public {\r... */\n  callvalue\n    /* \"--CODEGEN--\":2:4   */\n  dup1\n  iszero\n  tag_5\n  jumpi\n    /* \"--CODEGEN--\":27:28   */\n  0x00\n    /* \"--CODEGEN--\":24:25   */\n  dup1\n    /* \"--CODEGEN--\":17:29   */\n  revert\n    /* \"--CODEGEN--\":2:4   */\ntag_5:\n  pop\n    /* \"bitlime-periphery/contracts/Safemoon.sol\":15835:15852  address msgSender */\n  0x00\n    /* \"bitlime-periphery/contracts/Safemoon.sol\":15855:15867  _msgSender() */\n  tag_9\n  sub(shl(0xe0, 0x01), 0x01)\n    /* \"bitlime-periphery/contracts/Safemoon.sol\":15855:15865  _msgSender */\n  tag_10\n    /* \"bitlime-periphery/contracts/Safemoon.sol\":15855:15867  _msgSender() */\n  and\n  jump\t// in\ntag_9:\n    /* \"bitlime-periphery/contracts/Safemoon.sol\":15878:15884  _owner */\n  0x00\n    /* \"bitlime-periphery/contracts/Safemoon.sol\":15878:15896  _owner = msgSender */\n  dup1\n  sload\n  not(sub(shl(0xa0, 0x01), 0x01))\n  and\n  sub(shl(0xa0, 0x01), 0x01)\n  dup4\n  and\n  swap1\n  dup2\n  or\n  dup3\n  sstore\n    /* \"bitlime-periphery/contracts/Safemoon.sol\":15912:15955  OwnershipTransferred(address(0), msgSender) */\n  mload(0x40)\n    /* \"bitlime-periphery/contracts/Safemoon.sol\":15878:15896  _owner = msgSender */\n  swap3\n  swap4\n  pop\n  swap2\n    /* \"bitlime-periphery/contracts/Safemoon.sol\":15912:15955  OwnershipTransferred(address(0), msgSender) */\n  0x8be0079c531659141344cd1fd0a4f28419497f9722a3daafe3b4186f6b6457e0\n  swap1\n    /* \"bitlime-periphery/contracts/Safemoon.sol\":15878:15884  _owner */\n  dup3\n  swap1\n    /* \"bitlime-periphery/contracts/Safemoon.sol\":15912:15955  OwnershipTransferred(address(0), msgSender) */\n  log3\n  pop\n    /* \"bitlime-periphery/contracts/Safemoon.sol\":27827:27834  _rTotal */\n  sload(0x0a)\n    /* \"bitlime-periphery/contracts/Safemoon.sol\":27803:27810  _rOwned */\n  0x03\n    /* \"bitlime-periphery/contracts/Safemoon.sol\":27803:27824  _rOwned[_msgSender()] */\n  0x00\n    /* \"bitlime-periphery/contracts/Safemoon.sol\":27811:27823  _msgSender() */\n  tag_12\n  sub(shl(0xe0, 0x01), 0x01)\n    /* \"bitlime-periphery/contracts/Safemoon.sol\":27811:27821  _msgSender */\n  tag_10\n    /* \"bitlime-periphery/contracts/Safemoon.sol\":27811:27823  _msgSender() */\n  and\n  jump\t// in\ntag_12:\n  sub(shl(0xa0, 0x01), 0x01)\n    /* \"bitlime-periphery/contracts/Safemoon.sol\":27803:27824  _rOwned[_msgSender()] */\n  and\n  sub(shl(0xa0, 0x01), 0x01)\n  and\n  dup2\n  mstore\n  0x20\n  add\n  swap1\n  dup2\n  mstore\n  0x20\n  add\n  0x00\n  keccak256\n    /* \"bitlime-periphery/contracts/Safemoon.sol\":27803:27834  _rOwned[_msgSender()] = _rTotal */\n  dup2\n  swap1\n  sstore\n  pop\n    /* \"bitlime-periphery/contracts/Safemoon.sol\":27855:27890  IUniswapV2Router02 _uniswapV2Router */\n  0x00\n    /* \"bitlime-periphery/contracts/Safemoon.sol\":27912:27954  0x05fF2B0DB69458A0750badebc4f9e13aDd608C7F */\n  0x05ff2b0db69458a0750badebc4f9e13add608c7f\n    /* \"bitlime-periphery/contracts/Safemoon.sol\":27855:27955  IUniswapV2Router02 _uniswapV2Router = IUniswapV2Router02(0x05fF2B0DB69458A0750badebc4f9e13aDd608C7F) */\n  swap1\n  pop\n    /* \"bitlime-periphery/contracts/Safemoon.sol\":28054:28070  _uniswapV2Router */\n  dup1\n  sub(shl(0xa0, 0x01), 0x01)\n    /* \"bitlime-periphery/contracts/Safemoon.sol\":28054:28078  _uniswapV2Router.factory */\n  and\n  0xc45a0155\n    /* \"bitlime-periphery/contracts/Safemoon.sol\":28054:28080  _uniswapV2Router.factory() */\n  mload(0x40)\n  dup2\n  0xffffffff\n  and\n  0xe0\n  shl\n  dup2\n  mstore\n  0x04\n  add\n  0x20\n  mload(0x40)\n  dup1\n  dup4\n  sub\n  dup2\n  dup7\n  dup1\n  extcodesize\n  iszero\n    /* \"--CODEGEN--\":5:14   */\n  dup1\n    /* \"--CODEGEN--\":2:4   */\n  iszero\n  tag_13\n  jumpi\n    /* \"--CODEGEN--\":27:28   */\n  0x00\n    /* \"--CODEGEN--\":24:25   */\n  dup1\n    /* \"--CODEGEN--\":17:29   */\n  revert\n    /* \"--CODEGEN--\":2:4   */\ntag_13:\n    /* \"bitlime-periphery/contracts/Safemoon.sol\":28054:28080  _uniswapV2Router.factory() */\n  pop\n  gas\n  staticcall\n  iszero\n    /* \"--CODEGEN--\":8:17   */\n  dup1\n    /* \"--CODEGEN--\":5:7   */\n  iszero\n  tag_15\n  jumpi\n    /* \"--CODEGEN--\":45:61   */\n  returndatasize\n    /* \"--CODEGEN--\":42:43   */\n  0x00\n    /* \"--CODEGEN--\":39:40   */\n  dup1\n    /* \"--CODEGEN--\":24:62   */\n  returndatacopy\n    /* \"--CODEGEN--\":77:93   */\n  returndatasize\n    /* \"--CODEGEN--\":74:75   */\n  0x00\n    /* \"--CODEGEN--\":67:94   */\n  revert\n    /* \"--CODEGEN--\":5:7   */\ntag_15:\n    /* \"bitlime-periphery/contracts/Safemoon.sol\":28054:28080  _uniswapV2Router.factory() */\n  pop\n  pop\n  pop\n  pop\n  mload(0x40)\n  returndatasize\n    /* \"--CODEGEN--\":15:17   */\n  0x20\n    /* \"--CODEGEN--\":10:13   */\n  dup2\n    /* \"--CODEGEN--\":7:18   */\n  lt\n    /* \"--CODEGEN--\":4:6   */\n  iszero\n  tag_16\n  jumpi\n    /* \"--CODEGEN--\":31:32   */\n  0x00\n    /* \"--CODEGEN--\":28:29   */\n  dup1\n    /* \"--CODEGEN--\":21:33   */\n  revert\n    /* \"--CODEGEN--\":4:6   */\ntag_16:\n  pop\n    /* \"bitlime-periphery/contracts/Safemoon.sol\":28054:28080  _uniswapV2Router.factory() */\n  mload\n    /* \"bitlime-periphery/contracts/Safemoon.sol\":28122:28145  _uniswapV2Router.WETH() */\n  0x40\n  dup1\n  mload\n  shl(0xe3, 0x15ab88c9)\n  dup2\n  mstore\n  swap1\n  mload\n  sub(shl(0xa0, 0x01), 0x01)\n    /* \"bitlime-periphery/contracts/Safemoon.sol\":28036:28106  IUniswapV2Factory(_uniswapV2Router.factory())\r... */\n  swap3\n  dup4\n  and\n  swap3\n  0xc9c65396\n  swap3\n    /* \"bitlime-periphery/contracts/Safemoon.sol\":28115:28119  this */\n  address\n  swap3\n    /* \"bitlime-periphery/contracts/Safemoon.sol\":28122:28143  _uniswapV2Router.WETH */\n  swap2\n  dup7\n  and\n  swap2\n  0xad5c4648\n  swap2\n    /* \"bitlime-periphery/contracts/Safemoon.sol\":28122:28145  _uniswapV2Router.WETH() */\n  0x04\n  dup1\n  dup3\n  add\n  swap3\n    /* \"bitlime-periphery/contracts/Safemoon.sol\":28054:28080  _uniswapV2Router.factory() */\n  0x20\n  swap3\n    /* \"bitlime-periphery/contracts/Safemoon.sol\":28122:28145  _uniswapV2Router.WETH() */\n  swap1\n  swap2\n  swap1\n  dup3\n  swap1\n  sub\n  add\n  dup2\n    /* \"bitlime-periphery/contracts/Safemoon.sol\":28122:28143  _uniswapV2Router.WETH */\n  dup7\n    /* \"bitlime-periphery/contracts/Safemoon.sol\":28122:28145  _uniswapV2Router.WETH() */\n  dup1\n  extcodesize\n  iszero\n    /* \"--CODEGEN--\":2:4   */\n  dup1\n  iszero\n  tag_17\n  jumpi\n    /* \"--CODEGEN--\":27:28   */\n  0x00\n    /* \"--CODEGEN--\":24:25   */\n  dup1\n    /* \"--CODEGEN--\":17:29   */\n  revert\n    /* \"--CODEGEN--\":2:4   */\ntag_17:\n    /* \"bitlime-periphery/contracts/Safemoon.sol\":28122:28145  _uniswapV2Router.WETH() */\n  pop\n  gas\n  staticcall\n  iszero\n    /* \"--CODEGEN--\":8:17   */\n  dup1\n    /* \"--CODEGEN--\":5:7   */\n  iszero\n  tag_19\n  jumpi\n    /* \"--CODEGEN--\":45:61   */\n  returndatasize\n    /* \"--CODEGEN--\":42:43   */\n  0x00\n    /* \"--CODEGEN--\":39:40   */\n  dup1\n    /* \"--CODEGEN--\":24:62   */\n  returndatacopy\n    /* \"--CODEGEN--\":77:93   */\n  returndatasize\n    /* \"--CODEGEN--\":74:75   */\n  0x00\n    /* \"--CODEGEN--\":67:94   */\n  revert\n    /* \"--CODEGEN--\":5:7   */\ntag_19:\n    /* \"bitlime-periphery/contracts/Safemoon.sol\":28122:28145  _uniswapV2Router.WETH() */\n  pop\n  pop\n  pop\n  pop\n  mload(0x40)\n  returndatasize\n    /* \"--CODEGEN--\":15:17   */\n  0x20\n    /* \"--CODEGEN--\":10:13   */\n  dup2\n    /* \"--CODEGEN--\":7:18   */\n  lt\n    /* \"--CODEGEN--\":4:6   */\n  iszero\n  tag_20\n  jumpi\n    /* \"--CODEGEN--\":31:32   */\n  0x00\n    /* \"--CODEGEN--\":28:29   */\n  dup1\n    /* \"--CODEGEN--\":21:33   */\n  revert\n    /* \"--CODEGEN--\":4:6   */\ntag_20:\n  pop\n    /* \"bitlime-periphery/contracts/Safemoon.sol\":28122:28145  _uniswapV2Router.WETH() */\n  mload\n    /* \"bitlime-periphery/contracts/Safemoon.sol\":28036:28146  IUniswapV2Factory(_uniswapV2Router.factory())\r... */\n  0x40\n  dup1\n  mload\n  not(sub(shl(0xe0, 0x01), 0x01))\n  0xe0\n  dup7\n  swap1\n  shl\n  and\n  dup2\n  mstore\n  sub(shl(0xa0, 0x01), 0x01)\n  swap4\n  dup5\n  and\n  0x04\n  dup3\n  add\n  mstore\n  swap3\n  swap1\n  swap2\n  and\n  0x24\n  dup4\n  add\n  mstore\n  mload\n  0x44\n  dup1\n  dup4\n  add\n  swap3\n    /* \"bitlime-periphery/contracts/Safemoon.sol\":28122:28145  _uniswapV2Router.WETH() */\n  0x20\n  swap3\n    /* \"bitlime-periphery/contracts/Safemoon.sol\":28036:28146  IUniswapV2Factory(_uniswapV2Router.factory())\r... */\n  swap2\n  swap1\n  dup3\n  swap1\n  sub\n  add\n  dup2\n  0x00\n  dup8\n  dup1\n  extcodesize\n  iszero\n    /* \"--CODEGEN--\":2:4   */\n  dup1\n  iszero\n  tag_21\n  jumpi\n    /* \"--CODEGEN--\":27:28   */\n  0x00\n    /* \"--CODEGEN--\":24:25   */\n  dup1\n    /* \"--CODEGEN--\":17:29   */\n  revert\n    /* \"--CODEGEN--\":2:4   */\ntag_21:\n    /* \"bitlime-periphery/contracts/Safemoon.sol\":28036:28146  IUniswapV2Factory(_uniswapV2Router.factory())\r... */\n  pop\n  gas\n  call\n  iszero\n    /* \"--CODEGEN--\":8:17   */\n  dup1\n    /* \"--CODEGEN--\":5:7   */\n  iszero\n  tag_23\n  jumpi\n    /* \"--CODEGEN--\":45:61   */\n  returndatasize\n    /* \"--CODEGEN--\":42:43   */\n  0x00\n    /* \"--CODEGEN--\":39:40   */\n  dup1\n    /* \"--CODEGEN--\":24:62   */\n  returndatacopy\n    /* \"--CODEGEN--\":77:93   */\n  returndatasize\n    /* \"--CODEGEN--\":74:75   */\n  0x00\n    /* \"--CODEGEN--\":67:94   */\n  revert\n    /* \"--CODEGEN--\":5:7   */\ntag_23:\n    /* \"bitlime-periphery/contracts/Safemoon.sol\":28036:28146  IUniswapV2Factory(_uniswapV2Router.factory())\r... */\n  pop\n  pop\n  pop\n  pop\n  mload(0x40)\n  returndatasize\n    /* \"--CODEGEN--\":15:17   */\n  0x20\n    /* \"--CODEGEN--\":10:13   */\n  dup2\n    /* \"--CODEGEN--\":7:18   */\n  lt\n    /* \"--CODEGEN--\":4:6   */\n  iszero\n  tag_24\n  jumpi\n    /* \"--CODEGEN--\":31:32   */\n  0x00\n    /* \"--CODEGEN--\":28:29   */\n  dup1\n    /* \"--CODEGEN--\":21:33   */\n  revert\n    /* \"--CODEGEN--\":4:6   */\ntag_24:\n  pop\n    /* \"bitlime-periphery/contracts/Safemoon.sol\":28036:28146  IUniswapV2Factory(_uniswapV2Router.factory())\r... */\n  mload\n  not(sub(shl(0x60, 0x01), 0x01))\n    /* \"bitlime-periphery/contracts/Safemoon.sol\":28020:28146  uniswapV2Pair = IUniswapV2Factory(_uniswapV2Router.factory())\r... */\n  0x60\n  swap2\n  dup3\n  shl\n  dup2\n  and\n  0xa0\n  mstore\n    /* \"bitlime-periphery/contracts/Safemoon.sol\":28210:28244  uniswapV2Router = _uniswapV2Router */\n  swap1\n  dup3\n  swap1\n  shl\n  and\n  0x80\n  mstore\n    /* \"bitlime-periphery/contracts/Safemoon.sol\":28347:28351  true */\n  0x01\n    /* \"bitlime-periphery/contracts/Safemoon.sol\":28317:28335  _isExcludedFromFee */\n  0x06\n    /* \"bitlime-periphery/contracts/Safemoon.sol\":28317:28344  _isExcludedFromFee[owner()] */\n  0x00\n    /* \"bitlime-periphery/contracts/Safemoon.sol\":28336:28343  owner() */\n  tag_25\n  sub(shl(0xe0, 0x01), 0x01)\n    /* \"bitlime-periphery/contracts/Safemoon.sol\":28336:28341  owner */\n  tag_26\n    /* \"bitlime-periphery/contracts/Safemoon.sol\":28336:28343  owner() */\n  and\n  jump\t// in\ntag_25:\n  sub(shl(0xa0, 0x01), 0x01)\n    /* \"bitlime-periphery/contracts/Safemoon.sol\":28317:28344  _isExcludedFromFee[owner()] */\n  and\n  dup2\n  mstore\n  0x20\n  dup1\n  dup3\n  add\n  swap3\n  swap1\n  swap3\n  mstore\n  0x40\n  swap1\n  dup2\n  add\n  0x00\n  swap1\n  dup2\n  keccak256\n    /* \"bitlime-periphery/contracts/Safemoon.sol\":28317:28351  _isExcludedFromFee[owner()] = true */\n  dup1\n  sload\n  swap5\n  iszero\n  iszero\n  not(0xff)\n  swap6\n  dup7\n  and\n  or\n  swap1\n  sstore\n    /* \"bitlime-periphery/contracts/Safemoon.sol\":28389:28393  this */\n  address\n    /* \"bitlime-periphery/contracts/Safemoon.sol\":28362:28395  _isExcludedFromFee[address(this)] */\n  dup2\n  mstore\n    /* \"bitlime-periphery/contracts/Safemoon.sol\":28362:28380  _isExcludedFromFee */\n  0x06\n    /* \"bitlime-periphery/contracts/Safemoon.sol\":28362:28395  _isExcludedFromFee[address(this)] */\n  swap1\n  swap3\n  mstore\n  swap1\n  keccak256\n    /* \"bitlime-periphery/contracts/Safemoon.sol\":28362:28402  _isExcludedFromFee[address(this)] = true */\n  dup1\n  sload\n  swap1\n  swap2\n  and\n    /* \"bitlime-periphery/contracts/Safemoon.sol\":28317:28351  _isExcludedFromFee[owner()] = true */\n  0x01\n    /* \"bitlime-periphery/contracts/Safemoon.sol\":28362:28402  _isExcludedFromFee[address(this)] = true */\n  or\n  swap1\n  sstore\n    /* \"bitlime-periphery/contracts/Safemoon.sol\":28449:28461  _msgSender() */\n  tag_27\n  sub(shl(0xe0, 0x01), 0x01)\n    /* \"bitlime-periphery/contracts/Safemoon.sol\":28449:28459  _msgSender */\n  tag_10\n    /* \"bitlime-periphery/contracts/Safemoon.sol\":28449:28461  _msgSender() */\n  and\n  jump\t// in\ntag_27:\n  sub(shl(0xa0, 0x01), 0x01)\n    /* \"bitlime-periphery/contracts/Safemoon.sol\":28428:28471  Transfer(address(0), _msgSender(), _tTotal) */\n  and\n    /* \"bitlime-periphery/contracts/Safemoon.sol\":28445:28446  0 */\n  0x00\n  sub(shl(0xa0, 0x01), 0x01)\n    /* \"bitlime-periphery/contracts/Safemoon.sol\":28428:28471  Transfer(address(0), _msgSender(), _tTotal) */\n  and\n  0xddf252ad1be2c89b69c2b068fc378daa952ba7f163c4a11628f55a4df523b3ef\n    /* \"bitlime-periphery/contracts/Safemoon.sol\":28463:28470  _tTotal */\n  sload(0x09)\n    /* \"bitlime-periphery/contracts/Safemoon.sol\":28428:28471  Transfer(address(0), _msgSender(), _tTotal) */\n  mload(0x40)\n  dup1\n  dup3\n  dup2\n  mstore\n  0x20\n  add\n  swap2\n  pop\n  pop\n  mload(0x40)\n  dup1\n  swap2\n  sub\n  swap1\n  log3\n    /* \"bitlime-periphery/contracts/Safemoon.sol\":27770:28479  constructor () public {\r... */\n  pop\n    /* \"bitlime-periphery/contracts/Safemoon.sol\":26092:44457  contract SafeMoon is Context, IERC20, Ownable {\r... */\n  jump(tag_28)\n    /* \"bitlime-periphery/contracts/Safemoon.sol\":8452:8558  function _msgSender() internal view virtual returns (address payable) {\r... */\ntag_10:\n    /* \"bitlime-periphery/contracts/Safemoon.sol\":8540:8550  msg.sender */\n  caller\n    /* \"bitlime-periphery/contracts/Safemoon.sol\":8452:8558  function _msgSender() internal view virtual returns (address payable) {\r... */\ntag_29:\n  swap1\n  jump\t// out\n    /* \"bitlime-periphery/contracts/Safemoon.sol\":16044:16123  function owner() public view returns (address) {\r... */\ntag_26:\n    /* \"bitlime-periphery/contracts/Safemoon.sol\":16082:16089  address */\n  0x00\n    /* \"bitlime-periphery/contracts/Safemoon.sol\":16109:16115  _owner */\n  sload\n  sub(shl(0xa0, 0x01), 0x01)\n  and\n    /* \"bitlime-periphery/contracts/Safemoon.sol\":16044:16123  function owner() public view returns (address) {\r... */\n  swap1\n  jump\t// out\n    /* \"bitlime-periphery/contracts/Safemoon.sol\":26092:44457  contract SafeMoon is Context, IERC20, Ownable {\r... */\ntag_3:\n  dup3\n  dup1\n  sload\n  0x01\n  dup2\n  0x01\n  and\n  iszero\n  0x0100\n  mul\n  sub\n  and\n  0x02\n  swap1\n  div\n  swap1\n  0x00\n  mstore\n  keccak256(0x00, 0x20)\n  swap1\n  0x1f\n  add\n  0x20\n  swap1\n  div\n  dup2\n  add\n  swap3\n  dup3\n  0x1f\n  lt\n  tag_32\n  jumpi\n  dup1\n  mload\n  not(0xff)\n  and\n  dup4\n  dup1\n  add\n  or\n  dup6\n  sstore\n  jump(tag_34)\ntag_32:\n  dup3\n  dup1\n  add\n  0x01\n  add\n  dup6\n  sstore\n  dup3\n  iszero\n  tag_34\n  jumpi\n  swap2\n  dup3\n  add\ntag_33:\n  dup3\n  dup2\n  gt\n  iszero\n  tag_34\n  jumpi\n  dup3\n  mload\n  dup3\n  sstore\n  swap2\n  0x20\n  add\n  swap2\n  swap1\n  0x01\n  add\n  swap1\n  jump(tag_33)\ntag_34:\n  pop\n  tag_35\n  swap3\n  swap2\n  pop\n  tag_36\n  jump\t// in\ntag_35:\n  pop\n  swap1\n  jump\t// out\ntag_36:\n  tag_29\n  swap2\n  swap1\ntag_38:\n  dup1\n  dup3\n  gt\n  iszero\n  tag_35\n  jumpi\n  0x00\n  dup2\n  sstore\n  0x01\n  add\n  jump(tag_38)\ntag_28:\n  shr(0x60, mload(0x80))\n  shr(0x60, mload(0xa0))\n  codecopy(0x00, dataOffset(sub_0), dataSize(sub_0))\n  assignImmutable(\"0x3420243e987a0dddfaa7d77b227cced5f6bc741ff3ff5461051f619ef3b8b7b2\")\n  assignImmutable(\"0xfc57b5902f0023899e1247e2ff263b1dfd650a9d73b378b1a0bb28583d7847fc\")\n  return(0x00, dataSize(sub_0))\nstop\n\nsub_0: assembly {\n        /* \"bitlime-periphery/contracts/Safemoon.sol\":26092:44457  contract SafeMoon is Context, IERC20, Ownable {\r... */\n      mstore(0x40, 0x80)\n      jumpi(tag_1, lt(calldatasize, 0x04))\n      shr(0xe0, calldataload(0x00))\n      dup1\n      0x5342acb4\n      gt\n      tag_40\n      jumpi\n      dup1\n      0xa457c2d7\n      gt\n      tag_41\n      jumpi\n      dup1\n      0xd543dbeb\n      gt\n      tag_42\n      jumpi\n      dup1\n      0xd543dbeb\n      eq\n      tag_35\n      jumpi\n      dup1\n      0xdd467064\n      eq\n      tag_36\n      jumpi\n      dup1\n      0xdd62ed3e\n      eq\n      tag_37\n      jumpi\n      dup1\n      0xea2f0b37\n      eq\n      tag_38\n      jumpi\n      dup1\n      0xf2fde38b\n      eq\n      tag_39\n      jumpi\n      jump(tag_2)\n    tag_42:\n      dup1\n      0xa457c2d7\n      eq\n      tag_30\n      jumpi\n      dup1\n      0xa69df4b5\n      eq\n      tag_31\n      jumpi\n      dup1\n      0xa9059cbb\n      eq\n      tag_32\n      jumpi\n      dup1\n      0xb6c52324\n      eq\n      tag_33\n      jumpi\n      dup1\n      0xc49b9a80\n      eq\n      tag_34\n      jumpi\n      jump(tag_2)\n    tag_41:\n      dup1\n      0x7d1db4a5\n      gt\n      tag_43\n      jumpi\n      dup1\n      0x7d1db4a5\n      eq\n      tag_25\n      jumpi\n      dup1\n      0x88f82020\n      eq\n      tag_26\n      jumpi\n      dup1\n      0x8da5cb5b\n      eq\n      tag_27\n      jumpi\n      dup1\n      0x8ee88c53\n      eq\n      tag_28\n      jumpi\n      dup1\n      0x95d89b41\n      eq\n      tag_29\n      jumpi\n      jump(tag_2)\n    tag_43:\n      dup1\n      0x5342acb4\n      eq\n      tag_21\n      jumpi\n      dup1\n      0x6bc87c3a\n      eq\n      tag_22\n      jumpi\n      dup1\n      0x70a08231\n      eq\n      tag_23\n      jumpi\n      dup1\n      0x715018a6\n      eq\n      tag_24\n      jumpi\n      jump(tag_2)\n    tag_40:\n      dup1\n      0x3685d419\n      gt\n      tag_44\n      jumpi\n      dup1\n      0x437823ec\n      gt\n      tag_45\n      jumpi\n      dup1\n      0x437823ec\n      eq\n      tag_16\n      jumpi\n      dup1\n      0x4549b039\n      eq\n      tag_17\n      jumpi\n      dup1\n      0x49bd5a5e\n      eq\n      tag_18\n      jumpi\n      dup1\n      0x4a74bb02\n      eq\n      tag_19\n      jumpi\n      dup1\n      0x52390c02\n      eq\n      tag_20\n      jumpi\n      jump(tag_2)\n    tag_45:\n      dup1\n      0x3685d419\n      eq\n      tag_12\n      jumpi\n      dup1\n      0x39509351\n      eq\n      tag_13\n      jumpi\n      dup1\n      0x3b124fe7\n      eq\n      tag_14\n      jumpi\n      dup1\n      0x3bd5d173\n      eq\n      tag_15\n      jumpi\n      jump(tag_2)\n    tag_44:\n      dup1\n      0x1694505e\n      gt\n      tag_46\n      jumpi\n      dup1\n      0x1694505e\n      eq\n      tag_7\n      jumpi\n      dup1\n      0x18160ddd\n      eq\n      tag_8\n      jumpi\n      dup1\n      0x23b872dd\n      eq\n      tag_9\n      jumpi\n      dup1\n      0x2d838119\n      eq\n      tag_10\n      jumpi\n      dup1\n      0x313ce567\n      eq\n      tag_11\n      jumpi\n      jump(tag_2)\n    tag_46:\n      dup1\n      0x061c82d0\n      eq\n      tag_3\n      jumpi\n      dup1\n      0x06fdde03\n      eq\n      tag_4\n      jumpi\n      dup1\n      0x095ea7b3\n      eq\n      tag_5\n      jumpi\n      dup1\n      0x13114a9d\n      eq\n      tag_6\n      jumpi\n      jump(tag_2)\n    tag_1:\n      jumpi(tag_2, calldatasize)\n      stop\n    tag_2:\n        /* \"--CODEGEN--\":12:13   */\n      0x00\n        /* \"--CODEGEN--\":9:10   */\n      dup1\n        /* \"--CODEGEN--\":2:14   */\n      revert\n        /* \"bitlime-periphery/contracts/Safemoon.sol\":33552:33650  function setTaxFeePercent(uint256 taxFee) external onlyOwner() {\r... */\n    tag_3:\n      callvalue\n        /* \"--CODEGEN--\":5:14   */\n      dup1\n        /* \"--CODEGEN--\":2:4   */\n      iszero\n      tag_49\n      jumpi\n        /* \"--CODEGEN--\":27:28   */\n      0x00\n        /* \"--CODEGEN--\":24:25   */\n      dup1\n        /* \"--CODEGEN--\":17:29   */\n      revert\n        /* \"--CODEGEN--\":2:4   */\n    tag_49:\n        /* \"bitlime-periphery/contracts/Safemoon.sol\":33552:33650  function setTaxFeePercent(uint256 taxFee) external onlyOwner() {\r... */\n      pop\n      tag_50\n      0x04\n      dup1\n      calldatasize\n      sub\n        /* \"--CODEGEN--\":15:17   */\n      0x20\n        /* \"--CODEGEN--\":10:13   */\n      dup2\n        /* \"--CODEGEN--\":7:18   */\n      lt\n        /* \"--CODEGEN--\":4:6   */\n      iszero\n      tag_51\n      jumpi\n        /* \"--CODEGEN--\":31:32   */\n      0x00\n        /* \"--CODEGEN--\":28:29   */\n      dup1\n        /* \"--CODEGEN--\":21:33   */\n      revert\n        /* \"--CODEGEN--\":4:6   */\n    tag_51:\n      pop\n        /* \"bitlime-periphery/contracts/Safemoon.sol\":33552:33650  function setTaxFeePercent(uint256 taxFee) external onlyOwner() {\r... */\n      calldataload\n      tag_52\n      jump\t// in\n    tag_50:\n      stop\n        /* \"bitlime-periphery/contracts/Safemoon.sol\":28487:28570  function name() public view returns (string memory) {\r... */\n    tag_4:\n      callvalue\n        /* \"--CODEGEN--\":5:14   */\n      dup1\n        /* \"--CODEGEN--\":2:4   */\n      iszero\n      tag_53\n      jumpi\n        /* \"--CODEGEN--\":27:28   */\n      0x00\n        /* \"--CODEGEN--\":24:25   */\n      dup1\n        /* \"--CODEGEN--\":17:29   */\n      revert\n        /* \"--CODEGEN--\":2:4   */\n    tag_53:\n        /* \"bitlime-periphery/contracts/Safemoon.sol\":28487:28570  function name() public view returns (string memory) {\r... */\n      pop\n      tag_54\n      tag_55\n      jump\t// in\n    tag_54:\n      0x40\n      dup1\n      mload\n      0x20\n      dup1\n      dup3\n      mstore\n      dup4\n      mload\n      dup2\n      dup4\n      add\n      mstore\n      dup4\n      mload\n      swap2\n      swap3\n      dup4\n      swap3\n      swap1\n      dup4\n      add\n      swap2\n      dup6\n      add\n      swap1\n      dup1\n      dup4\n      dup4\n      0x00\n        /* \"--CODEGEN--\":8:108   */\n    tag_56:\n        /* \"--CODEGEN--\":33:36   */\n      dup4\n        /* \"--CODEGEN--\":30:31   */\n      dup2\n        /* \"--CODEGEN--\":27:37   */\n      lt\n        /* \"--CODEGEN--\":8:108   */\n      iszero\n      tag_58\n      jumpi\n        /* \"--CODEGEN--\":90:101   */\n      dup2\n      dup2\n      add\n        /* \"--CODEGEN--\":84:102   */\n      mload\n        /* \"--CODEGEN--\":71:82   */\n      dup4\n      dup3\n      add\n        /* \"--CODEGEN--\":64:103   */\n      mstore\n        /* \"--CODEGEN--\":52:54   */\n      0x20\n        /* \"--CODEGEN--\":45:55   */\n      add\n        /* \"--CODEGEN--\":8:108   */\n      jump(tag_56)\n    tag_58:\n        /* \"--CODEGEN--\":12:26   */\n      pop\n        /* \"bitlime-periphery/contracts/Safemoon.sol\":28487:28570  function name() public view returns (string memory) {\r... */\n      pop\n      pop\n      pop\n      swap1\n      pop\n      swap1\n      dup2\n      add\n      swap1\n      0x1f\n      and\n      dup1\n      iszero\n      tag_59\n      jumpi\n      dup1\n      dup3\n      sub\n      dup1\n      mload\n      0x01\n      dup4\n      0x20\n      sub\n      0x0100\n      exp\n      sub\n      not\n      and\n      dup2\n      mstore\n      0x20\n      add\n      swap2\n      pop\n    tag_59:\n      pop\n      swap3\n      pop\n      pop\n      pop\n      mload(0x40)\n      dup1\n      swap2\n      sub\n      swap1\n      return\n        /* \"bitlime-periphery/contracts/Safemoon.sol\":29399:29560  function approve(address spender, uint256 amount) public override returns (bool) {\r... */\n    tag_5:\n      callvalue\n        /* \"--CODEGEN--\":5:14   */\n      dup1\n        /* \"--CODEGEN--\":2:4   */\n      iszero\n      tag_60\n      jumpi\n        /* \"--CODEGEN--\":27:28   */\n      0x00\n        /* \"--CODEGEN--\":24:25   */\n      dup1\n        /* \"--CODEGEN--\":17:29   */\n      revert\n        /* \"--CODEGEN--\":2:4   */\n    tag_60:\n        /* \"bitlime-periphery/contracts/Safemoon.sol\":29399:29560  function approve(address spender, uint256 amount) public override returns (bool) {\r... */\n      pop\n      tag_61\n      0x04\n      dup1\n      calldatasize\n      sub\n        /* \"--CODEGEN--\":15:17   */\n      0x40\n        /* \"--CODEGEN--\":10:13   */\n      dup2\n        /* \"--CODEGEN--\":7:18   */\n      lt\n        /* \"--CODEGEN--\":4:6   */\n      iszero\n      tag_62\n      jumpi\n        /* \"--CODEGEN--\":31:32   */\n      0x00\n        /* \"--CODEGEN--\":28:29   */\n      dup1\n        /* \"--CODEGEN--\":21:33   */\n      revert\n        /* \"--CODEGEN--\":4:6   */\n    tag_62:\n      pop\n      sub(shl(0xa0, 0x01), 0x01)\n        /* \"bitlime-periphery/contracts/Safemoon.sol\":29399:29560  function approve(address spender, uint256 amount) public override returns (bool) {\r... */\n      dup2\n      calldataload\n      and\n      swap1\n      0x20\n      add\n      calldataload\n      tag_63\n      jump\t// in\n    tag_61:\n      0x40\n      dup1\n      mload\n      swap2\n      iszero\n      iszero\n      dup3\n      mstore\n      mload\n      swap1\n      dup2\n      swap1\n      sub\n      0x20\n      add\n      swap1\n      return\n        /* \"bitlime-periphery/contracts/Safemoon.sol\":30520:30607  function totalFees() public view returns (uint256) {\r... */\n    tag_6:\n      callvalue\n        /* \"--CODEGEN--\":5:14   */\n      dup1\n        /* \"--CODEGEN--\":2:4   */\n      iszero\n      tag_64\n      jumpi\n        /* \"--CODEGEN--\":27:28   */\n      0x00\n        /* \"--CODEGEN--\":24:25   */\n      dup1\n        /* \"--CODEGEN--\":17:29   */\n      revert\n        /* \"--CODEGEN--\":2:4   */\n    tag_64:\n        /* \"bitlime-periphery/contracts/Safemoon.sol\":30520:30607  function totalFees() public view returns (uint256) {\r... */\n      pop\n      tag_65\n      tag_66\n      jump\t// in\n    tag_65:\n      0x40\n      dup1\n      mload\n      swap2\n      dup3\n      mstore\n      mload\n      swap1\n      dup2\n      swap1\n      sub\n      0x20\n      add\n      swap1\n      return\n        /* \"bitlime-periphery/contracts/Safemoon.sol\":27053:27104  IUniswapV2Router02 public immutable uniswapV2Router */\n    tag_7:\n      callvalue\n        /* \"--CODEGEN--\":5:14   */\n      dup1\n        /* \"--CODEGEN--\":2:4   */\n      iszero\n      tag_67\n      jumpi\n        /* \"--CODEGEN--\":27:28   */\n      0x00\n        /* \"--CODEGEN--\":24:25   */\n      dup1\n        /* \"--CODEGEN--\":17:29   */\n      revert\n        /* \"--CODEGEN--\":2:4   */\n    tag_67:\n        /* \"bitlime-periphery/contracts/Safemoon.sol\":27053:27104  IUniswapV2Router02 public immutable uniswapV2Router */\n      pop\n      tag_68\n      tag_69\n      jump\t// in\n    tag_68:\n      0x40\n      dup1\n      mload\n      sub(shl(0xa0, 0x01), 0x01)\n      swap1\n      swap3\n      and\n      dup3\n      mstore\n      mload\n      swap1\n      dup2\n      swap1\n      sub\n      0x20\n      add\n      swap1\n      return\n        /* \"bitlime-periphery/contracts/Safemoon.sol\":28764:28859  function totalSupply() public view override returns (uint256) {\r... */\n    tag_8:\n      callvalue\n        /* \"--CODEGEN--\":5:14   */\n      dup1\n        /* \"--CODEGEN--\":2:4   */\n      iszero\n      tag_70\n      jumpi\n        /* \"--CODEGEN--\":27:28   */\n      0x00\n        /* \"--CODEGEN--\":24:25   */\n      dup1\n        /* \"--CODEGEN--\":17:29   */\n      revert\n        /* \"--CODEGEN--\":2:4   */\n    tag_70:\n        /* \"bitlime-periphery/contracts/Safemoon.sol\":28764:28859  function totalSupply() public view override returns (uint256) {\r... */\n      pop\n      tag_65\n      tag_72\n      jump\t// in\n        /* \"bitlime-periphery/contracts/Safemoon.sol\":29568:29881  function transferFrom(address sender, address recipient, uint256 amount) public override returns (bool) {\r... */\n    tag_9:\n      callvalue\n        /* \"--CODEGEN--\":5:14   */\n      dup1\n        /* \"--CODEGEN--\":2:4   */\n      iszero\n      tag_73\n      jumpi\n        /* \"--CODEGEN--\":27:28   */\n      0x00\n        /* \"--CODEGEN--\":24:25   */\n      dup1\n        /* \"--CODEGEN--\":17:29   */\n      revert\n        /* \"--CODEGEN--\":2:4   */\n    tag_73:\n        /* \"bitlime-periphery/contracts/Safemoon.sol\":29568:29881  function transferFrom(address sender, address recipient, uint256 amount) public override returns (bool) {\r... */\n      pop\n      tag_61\n      0x04\n      dup1\n      calldatasize\n      sub\n        /* \"--CODEGEN--\":15:17   */\n      0x60\n        /* \"--CODEGEN--\":10:13   */\n      dup2\n        /* \"--CODEGEN--\":7:18   */\n      lt\n        /* \"--CODEGEN--\":4:6   */\n      iszero\n      tag_75\n      jumpi\n        /* \"--CODEGEN--\":31:32   */\n      0x00\n        /* \"--CODEGEN--\":28:29   */\n      dup1\n        /* \"--CODEGEN--\":21:33   */\n      revert\n        /* \"--CODEGEN--\":4:6   */\n    tag_75:\n      pop\n      sub(shl(0xa0, 0x01), 0x01)\n        /* \"bitlime-periphery/contracts/Safemoon.sol\":29568:29881  function transferFrom(address sender, address recipient, uint256 amount) public override returns (bool) {\r... */\n      dup2\n      calldataload\n      dup2\n      and\n      swap2\n      0x20\n      dup2\n      add\n      calldataload\n      swap1\n      swap2\n      and\n      swap1\n      0x40\n      add\n      calldataload\n      tag_76\n      jump\t// in\n        /* \"bitlime-periphery/contracts/Safemoon.sol\":31444:31697  function tokenFromReflection(uint256 rAmount) public view returns(uint256) {\r... */\n    tag_10:\n      callvalue\n        /* \"--CODEGEN--\":5:14   */\n      dup1\n        /* \"--CODEGEN--\":2:4   */\n      iszero\n      tag_77\n      jumpi\n        /* \"--CODEGEN--\":27:28   */\n      0x00\n        /* \"--CODEGEN--\":24:25   */\n      dup1\n        /* \"--CODEGEN--\":17:29   */\n      revert\n        /* \"--CODEGEN--\":2:4   */\n    tag_77:\n        /* \"bitlime-periphery/contracts/Safemoon.sol\":31444:31697  function tokenFromReflection(uint256 rAmount) public view returns(uint256) {\r... */\n      pop\n      tag_65\n      0x04\n      dup1\n      calldatasize\n      sub\n        /* \"--CODEGEN--\":15:17   */\n      0x20\n        /* \"--CODEGEN--\":10:13   */\n      dup2\n        /* \"--CODEGEN--\":7:18   */\n      lt\n        /* \"--CODEGEN--\":4:6   */\n      iszero\n      tag_79\n      jumpi\n        /* \"--CODEGEN--\":31:32   */\n      0x00\n        /* \"--CODEGEN--\":28:29   */\n      dup1\n        /* \"--CODEGEN--\":21:33   */\n      revert\n        /* \"--CODEGEN--\":4:6   */\n    tag_79:\n      pop\n        /* \"bitlime-periphery/contracts/Safemoon.sol\":31444:31697  function tokenFromReflection(uint256 rAmount) public view returns(uint256) {\r... */\n      calldataload\n      tag_80\n      jump\t// in\n        /* \"bitlime-periphery/contracts/Safemoon.sol\":28673:28756  function decimals() public view returns (uint8) {\r... */\n    tag_11:\n      callvalue\n        /* \"--CODEGEN--\":5:14   */\n      dup1\n        /* \"--CODEGEN--\":2:4   */\n      iszero\n      tag_81\n      jumpi\n        /* \"--CODEGEN--\":27:28   */\n      0x00\n        /* \"--CODEGEN--\":24:25   */\n      dup1\n        /* \"--CODEGEN--\":17:29   */\n      revert\n        /* \"--CODEGEN--\":2:4   */\n    tag_81:\n        /* \"bitlime-periphery/contracts/Safemoon.sol\":28673:28756  function decimals() public view returns (uint8) {\r... */\n      pop\n      tag_82\n      tag_83\n      jump\t// in\n    tag_82:\n      0x40\n      dup1\n      mload\n      0xff\n      swap1\n      swap3\n      and\n      dup3\n      mstore\n      mload\n      swap1\n      dup2\n      swap1\n      sub\n      0x20\n      add\n      swap1\n      return\n        /* \"bitlime-periphery/contracts/Safemoon.sol\":32160:32639  function includeInReward(address account) external onlyOwner() {\r... */\n    tag_12:\n      callvalue\n        /* \"--CODEGEN--\":5:14   */\n      dup1\n        /* \"--CODEGEN--\":2:4   */\n      iszero\n      tag_84\n      jumpi\n        /* \"--CODEGEN--\":27:28   */\n      0x00\n        /* \"--CODEGEN--\":24:25   */\n      dup1\n        /* \"--CODEGEN--\":17:29   */\n      revert\n        /* \"--CODEGEN--\":2:4   */\n    tag_84:\n        /* \"bitlime-periphery/contracts/Safemoon.sol\":32160:32639  function includeInReward(address account) external onlyOwner() {\r... */\n      pop\n      tag_50\n      0x04\n      dup1\n      calldatasize\n      sub\n        /* \"--CODEGEN--\":15:17   */\n      0x20\n        /* \"--CODEGEN--\":10:13   */\n      dup2\n        /* \"--CODEGEN--\":7:18   */\n      lt\n        /* \"--CODEGEN--\":4:6   */\n      iszero\n      tag_86\n      jumpi\n        /* \"--CODEGEN--\":31:32   */\n      0x00\n        /* \"--CODEGEN--\":28:29   */\n      dup1\n        /* \"--CODEGEN--\":21:33   */\n      revert\n        /* \"--CODEGEN--\":4:6   */\n    tag_86:\n      pop\n        /* \"bitlime-periphery/contracts/Safemoon.sol\":32160:32639  function includeInReward(address account) external onlyOwner() {\r... */\n      calldataload\n      sub(shl(0xa0, 0x01), 0x01)\n      and\n      tag_87\n      jump\t// in\n        /* \"bitlime-periphery/contracts/Safemoon.sol\":29889:30107  function increaseAllowance(address spender, uint256 addedValue) public virtual returns (bool) {\r... */\n    tag_13:\n      callvalue\n        /* \"--CODEGEN--\":5:14   */\n      dup1\n        /* \"--CODEGEN--\":2:4   */\n      iszero\n      tag_88\n      jumpi\n        /* \"--CODEGEN--\":27:28   */\n      0x00\n        /* \"--CODEGEN--\":24:25   */\n      dup1\n        /* \"--CODEGEN--\":17:29   */\n      revert\n        /* \"--CODEGEN--\":2:4   */\n    tag_88:\n        /* \"bitlime-periphery/contracts/Safemoon.sol\":29889:30107  function increaseAllowance(address spender, uint256 addedValue) public virtual returns (bool) {\r... */\n      pop\n      tag_61\n      0x04\n      dup1\n      calldatasize\n      sub\n        /* \"--CODEGEN--\":15:17   */\n      0x40\n        /* \"--CODEGEN--\":10:13   */\n      dup2\n        /* \"--CODEGEN--\":7:18   */\n      lt\n        /* \"--CODEGEN--\":4:6   */\n      iszero\n      tag_90\n      jumpi\n        /* \"--CODEGEN--\":31:32   */\n      0x00\n        /* \"--CODEGEN--\":28:29   */\n      dup1\n        /* \"--CODEGEN--\":21:33   */\n      revert\n        /* \"--CODEGEN--\":4:6   */\n    tag_90:\n      pop\n      sub(shl(0xa0, 0x01), 0x01)\n        /* \"bitlime-periphery/contracts/Safemoon.sol\":29889:30107  function increaseAllowance(address spender, uint256 addedValue) public virtual returns (bool) {\r... */\n      dup2\n      calldataload\n      and\n      swap1\n      0x20\n      add\n      calldataload\n      tag_91\n      jump\t// in\n        /* \"bitlime-periphery/contracts/Safemoon.sol\":26865:26891  uint256 public _taxFee = 5 */\n    tag_14:\n      callvalue\n        /* \"--CODEGEN--\":5:14   */\n      dup1\n        /* \"--CODEGEN--\":2:4   */\n      iszero\n      tag_92\n      jumpi\n        /* \"--CODEGEN--\":27:28   */\n      0x00\n        /* \"--CODEGEN--\":24:25   */\n      dup1\n        /* \"--CODEGEN--\":17:29   */\n      revert\n        /* \"--CODEGEN--\":2:4   */\n    tag_92:\n        /* \"bitlime-periphery/contracts/Safemoon.sol\":26865:26891  uint256 public _taxFee = 5 */\n      pop\n      tag_65\n      tag_94\n      jump\t// in\n        /* \"bitlime-periphery/contracts/Safemoon.sol\":30615:30992  function deliver(uint256 tAmount) public {\r... */\n    tag_15:\n      callvalue\n        /* \"--CODEGEN--\":5:14   */\n      dup1\n        /* \"--CODEGEN--\":2:4   */\n      iszero\n      tag_95\n      jumpi\n        /* \"--CODEGEN--\":27:28   */\n      0x00\n        /* \"--CODEGEN--\":24:25   */\n      dup1\n        /* \"--CODEGEN--\":17:29   */\n      revert\n        /* \"--CODEGEN--\":2:4   */\n    tag_95:\n        /* \"bitlime-periphery/contracts/Safemoon.sol\":30615:30992  function deliver(uint256 tAmount) public {\r... */\n      pop\n      tag_50\n      0x04\n      dup1\n      calldatasize\n      sub\n        /* \"--CODEGEN--\":15:17   */\n      0x20\n        /* \"--CODEGEN--\":10:13   */\n      dup2\n        /* \"--CODEGEN--\":7:18   */\n      lt\n        /* \"--CODEGEN--\":4:6   */\n      iszero\n      tag_97\n      jumpi\n        /* \"--CODEGEN--\":31:32   */\n      0x00\n        /* \"--CODEGEN--\":28:29   */\n      dup1\n        /* \"--CODEGEN--\":21:33   */\n      revert\n        /* \"--CODEGEN--\":4:6   */\n    tag_97:\n      pop\n        /* \"bitlime-periphery/contracts/Safemoon.sol\":30615:30992  function deliver(uint256 tAmount) public {\r... */\n      calldataload\n      tag_98\n      jump\t// in\n        /* \"bitlime-periphery/contracts/Safemoon.sol\":33307:33418  function excludeFromFee(address account) public onlyOwner {\r... */\n    tag_16:\n      callvalue\n        /* \"--CODEGEN--\":5:14   */\n      dup1\n        /* \"--CODEGEN--\":2:4   */\n      iszero\n      tag_99\n      jumpi\n        /* \"--CODEGEN--\":27:28   */\n      0x00\n        /* \"--CODEGEN--\":24:25   */\n      dup1\n        /* \"--CODEGEN--\":17:29   */\n      revert\n        /* \"--CODEGEN--\":2:4   */\n    tag_99:\n        /* \"bitlime-periphery/contracts/Safemoon.sol\":33307:33418  function excludeFromFee(address account) public onlyOwner {\r... */\n      pop\n      tag_50\n      0x04\n      dup1\n      calldatasize\n      sub\n        /* \"--CODEGEN--\":15:17   */\n      0x20\n        /* \"--CODEGEN--\":10:13   */\n      dup2\n        /* \"--CODEGEN--\":7:18   */\n      lt\n        /* \"--CODEGEN--\":4:6   */\n      iszero\n      tag_101\n      jumpi\n        /* \"--CODEGEN--\":31:32   */\n      0x00\n        /* \"--CODEGEN--\":28:29   */\n      dup1\n        /* \"--CODEGEN--\":21:33   */\n      revert\n        /* \"--CODEGEN--\":4:6   */\n    tag_101:\n      pop\n        /* \"bitlime-periphery/contracts/Safemoon.sol\":33307:33418  function excludeFromFee(address account) public onlyOwner {\r... */\n      calldataload\n      sub(shl(0xa0, 0x01), 0x01)\n      and\n      tag_102\n      jump\t// in\n        /* \"bitlime-periphery/contracts/Safemoon.sol\":31000:31436  function reflectionFromToken(uint256 tAmount, bool deductTransferFee) public view returns(uint256) {\r... */\n    tag_17:\n      callvalue\n        /* \"--CODEGEN--\":5:14   */\n      dup1\n        /* \"--CODEGEN--\":2:4   */\n      iszero\n      tag_103\n      jumpi\n        /* \"--CODEGEN--\":27:28   */\n      0x00\n        /* \"--CODEGEN--\":24:25   */\n      dup1\n        /* \"--CODEGEN--\":17:29   */\n      revert\n        /* \"--CODEGEN--\":2:4   */\n    tag_103:\n        /* \"bitlime-periphery/contracts/Safemoon.sol\":31000:31436  function reflectionFromToken(uint256 tAmount, bool deductTransferFee) public view returns(uint256) {\r... */\n      pop\n      tag_65\n      0x04\n      dup1\n      calldatasize\n      sub\n        /* \"--CODEGEN--\":15:17   */\n      0x40\n        /* \"--CODEGEN--\":10:13   */\n      dup2\n        /* \"--CODEGEN--\":7:18   */\n      lt\n        /* \"--CODEGEN--\":4:6   */\n      iszero\n      tag_105\n      jumpi\n        /* \"--CODEGEN--\":31:32   */\n      0x00\n        /* \"--CODEGEN--\":28:29   */\n      dup1\n        /* \"--CODEGEN--\":21:33   */\n      revert\n        /* \"--CODEGEN--\":4:6   */\n    tag_105:\n      pop\n        /* \"bitlime-periphery/contracts/Safemoon.sol\":31000:31436  function reflectionFromToken(uint256 tAmount, bool deductTransferFee) public view returns(uint256) {\r... */\n      dup1\n      calldataload\n      swap1\n      0x20\n      add\n      calldataload\n      iszero\n      iszero\n      tag_106\n      jump\t// in\n        /* \"bitlime-periphery/contracts/Safemoon.sol\":27111:27149  address public immutable uniswapV2Pair */\n    tag_18:\n      callvalue\n        /* \"--CODEGEN--\":5:14   */\n      dup1\n        /* \"--CODEGEN--\":2:4   */\n      iszero\n      tag_107\n      jumpi\n        /* \"--CODEGEN--\":27:28   */\n      0x00\n        /* \"--CODEGEN--\":24:25   */\n      dup1\n        /* \"--CODEGEN--\":17:29   */\n      revert\n        /* \"--CODEGEN--\":2:4   */\n    tag_107:\n        /* \"bitlime-periphery/contracts/Safemoon.sol\":27111:27149  address public immutable uniswapV2Pair */\n      pop\n      tag_68\n      tag_109\n      jump\t// in\n        /* \"bitlime-periphery/contracts/Safemoon.sol\":27190:27230  bool public swapAndLiquifyEnabled = true */\n    tag_19:\n      callvalue\n        /* \"--CODEGEN--\":5:14   */\n      dup1\n        /* \"--CODEGEN--\":2:4   */\n      iszero\n      tag_110\n      jumpi\n        /* \"--CODEGEN--\":27:28   */\n      0x00\n        /* \"--CODEGEN--\":24:25   */\n      dup1\n        /* \"--CODEGEN--\":17:29   */\n      revert\n        /* \"--CODEGEN--\":2:4   */\n    tag_110:\n        /* \"bitlime-periphery/contracts/Safemoon.sol\":27190:27230  bool public swapAndLiquifyEnabled = true */\n      pop\n      tag_61\n      tag_112\n      jump\t// in\n        /* \"bitlime-periphery/contracts/Safemoon.sol\":31705:32152  function excludeFromReward(address account) public onlyOwner() {\r... */\n    tag_20:\n      callvalue\n        /* \"--CODEGEN--\":5:14   */\n      dup1\n        /* \"--CODEGEN--\":2:4   */\n      iszero\n      tag_113\n      jumpi\n        /* \"--CODEGEN--\":27:28   */\n      0x00\n        /* \"--CODEGEN--\":24:25   */\n      dup1\n        /* \"--CODEGEN--\":17:29   */\n      revert\n        /* \"--CODEGEN--\":2:4   */\n    tag_113:\n        /* \"bitlime-periphery/contracts/Safemoon.sol\":31705:32152  function excludeFromReward(address account) public onlyOwner() {\r... */\n      pop\n      tag_50\n      0x04\n      dup1\n      calldatasize\n      sub\n        /* \"--CODEGEN--\":15:17   */\n      0x20\n        /* \"--CODEGEN--\":10:13   */\n      dup2\n        /* \"--CODEGEN--\":7:18   */\n      lt\n        /* \"--CODEGEN--\":4:6   */\n      iszero\n      tag_115\n      jumpi\n        /* \"--CODEGEN--\":31:32   */\n      0x00\n        /* \"--CODEGEN--\":28:29   */\n      dup1\n        /* \"--CODEGEN--\":21:33   */\n      revert\n        /* \"--CODEGEN--\":4:6   */\n    tag_115:\n      pop\n        /* \"bitlime-periphery/contracts/Safemoon.sol\":31705:32152  function excludeFromReward(address account) public onlyOwner() {\r... */\n      calldataload\n      sub(shl(0xa0, 0x01), 0x01)\n      and\n      tag_116\n      jump\t// in\n        /* \"bitlime-periphery/contracts/Safemoon.sol\":37449:37572  function isExcludedFromFee(address account) public view returns(bool) {\r... */\n    tag_21:\n      callvalue\n        /* \"--CODEGEN--\":5:14   */\n      dup1\n        /* \"--CODEGEN--\":2:4   */\n      iszero\n      tag_117\n      jumpi\n        /* \"--CODEGEN--\":27:28   */\n      0x00\n        /* \"--CODEGEN--\":24:25   */\n      dup1\n        /* \"--CODEGEN--\":17:29   */\n      revert\n        /* \"--CODEGEN--\":2:4   */\n    tag_117:\n        /* \"bitlime-periphery/contracts/Safemoon.sol\":37449:37572  function isExcludedFromFee(address account) public view returns(bool) {\r... */\n      pop\n      tag_61\n      0x04\n      dup1\n      calldatasize\n      sub\n        /* \"--CODEGEN--\":15:17   */\n      0x20\n        /* \"--CODEGEN--\":10:13   */\n      dup2\n        /* \"--CODEGEN--\":7:18   */\n      lt\n        /* \"--CODEGEN--\":4:6   */\n      iszero\n      tag_119\n      jumpi\n        /* \"--CODEGEN--\":31:32   */\n      0x00\n        /* \"--CODEGEN--\":28:29   */\n      dup1\n        /* \"--CODEGEN--\":21:33   */\n      revert\n        /* \"--CODEGEN--\":4:6   */\n    tag_119:\n      pop\n        /* \"bitlime-periphery/contracts/Safemoon.sol\":37449:37572  function isExcludedFromFee(address account) public view returns(bool) {\r... */\n      calldataload\n      sub(shl(0xa0, 0x01), 0x01)\n      and\n      tag_120\n      jump\t// in\n        /* \"bitlime-periphery/contracts/Safemoon.sol\":26952:26984  uint256 public _liquidityFee = 5 */\n    tag_22:\n      callvalue\n        /* \"--CODEGEN--\":5:14   */\n      dup1\n        /* \"--CODEGEN--\":2:4   */\n      iszero\n      tag_121\n      jumpi\n        /* \"--CODEGEN--\":27:28   */\n      0x00\n        /* \"--CODEGEN--\":24:25   */\n      dup1\n        /* \"--CODEGEN--\":17:29   */\n      revert\n        /* \"--CODEGEN--\":2:4   */\n    tag_121:\n        /* \"bitlime-periphery/contracts/Safemoon.sol\":26952:26984  uint256 public _liquidityFee = 5 */\n      pop\n      tag_65\n      tag_123\n      jump\t// in\n        /* \"bitlime-periphery/contracts/Safemoon.sol\":28867:29065  function balanceOf(address account) public view override returns (uint256) {\r... */\n    tag_23:\n      callvalue\n        /* \"--CODEGEN--\":5:14   */\n      dup1\n        /* \"--CODEGEN--\":2:4   */\n      iszero\n      tag_124\n      jumpi\n        /* \"--CODEGEN--\":27:28   */\n      0x00\n        /* \"--CODEGEN--\":24:25   */\n      dup1\n        /* \"--CODEGEN--\":17:29   */\n      revert\n        /* \"--CODEGEN--\":2:4   */\n    tag_124:\n        /* \"bitlime-periphery/contracts/Safemoon.sol\":28867:29065  function balanceOf(address account) public view override returns (uint256) {\r... */\n      pop\n      tag_65\n      0x04\n      dup1\n      calldatasize\n      sub\n        /* \"--CODEGEN--\":15:17   */\n      0x20\n        /* \"--CODEGEN--\":10:13   */\n      dup2\n        /* \"--CODEGEN--\":7:18   */\n      lt\n        /* \"--CODEGEN--\":4:6   */\n      iszero\n      tag_126\n      jumpi\n        /* \"--CODEGEN--\":31:32   */\n      0x00\n        /* \"--CODEGEN--\":28:29   */\n      dup1\n        /* \"--CODEGEN--\":21:33   */\n      revert\n        /* \"--CODEGEN--\":4:6   */\n    tag_126:\n      pop\n        /* \"bitlime-periphery/contracts/Safemoon.sol\":28867:29065  function balanceOf(address account) public view override returns (uint256) {\r... */\n      calldataload\n      sub(shl(0xa0, 0x01), 0x01)\n      and\n      tag_127\n      jump\t// in\n        /* \"bitlime-periphery/contracts/Safemoon.sol\":16687:16835  function renounceOwnership() public virtual onlyOwner {\r... */\n    tag_24:\n      callvalue\n        /* \"--CODEGEN--\":5:14   */\n      dup1\n        /* \"--CODEGEN--\":2:4   */\n      iszero\n      tag_128\n      jumpi\n        /* \"--CODEGEN--\":27:28   */\n      0x00\n        /* \"--CODEGEN--\":24:25   */\n      dup1\n        /* \"--CODEGEN--\":17:29   */\n      revert\n        /* \"--CODEGEN--\":2:4   */\n    tag_128:\n        /* \"bitlime-periphery/contracts/Safemoon.sol\":16687:16835  function renounceOwnership() public virtual onlyOwner {\r... */\n      pop\n      tag_50\n      tag_130\n      jump\t// in\n        /* \"bitlime-periphery/contracts/Safemoon.sol\":27243:27296  uint256 public _maxTxAmount = 5000000 * 10**6 * 10**9 */\n    tag_25:\n      callvalue\n        /* \"--CODEGEN--\":5:14   */\n      dup1\n        /* \"--CODEGEN--\":2:4   */\n      iszero\n      tag_131\n      jumpi\n        /* \"--CODEGEN--\":27:28   */\n      0x00\n        /* \"--CODEGEN--\":24:25   */\n      dup1\n        /* \"--CODEGEN--\":17:29   */\n      revert\n        /* \"--CODEGEN--\":2:4   */\n    tag_131:\n        /* \"bitlime-periphery/contracts/Safemoon.sol\":27243:27296  uint256 public _maxTxAmount = 5000000 * 10**6 * 10**9 */\n      pop\n      tag_65\n      tag_133\n      jump\t// in\n        /* \"bitlime-periphery/contracts/Safemoon.sol\":30392:30512  function isExcludedFromReward(address account) public view returns (bool) {\r... */\n    tag_26:\n      callvalue\n        /* \"--CODEGEN--\":5:14   */\n      dup1\n        /* \"--CODEGEN--\":2:4   */\n      iszero\n      tag_134\n      jumpi\n        /* \"--CODEGEN--\":27:28   */\n      0x00\n        /* \"--CODEGEN--\":24:25   */\n      dup1\n        /* \"--CODEGEN--\":17:29   */\n      revert\n        /* \"--CODEGEN--\":2:4   */\n    tag_134:\n        /* \"bitlime-periphery/contracts/Safemoon.sol\":30392:30512  function isExcludedFromReward(address account) public view returns (bool) {\r... */\n      pop\n      tag_61\n      0x04\n      dup1\n      calldatasize\n      sub\n        /* \"--CODEGEN--\":15:17   */\n      0x20\n        /* \"--CODEGEN--\":10:13   */\n      dup2\n        /* \"--CODEGEN--\":7:18   */\n      lt\n        /* \"--CODEGEN--\":4:6   */\n      iszero\n      tag_136\n      jumpi\n        /* \"--CODEGEN--\":31:32   */\n      0x00\n        /* \"--CODEGEN--\":28:29   */\n      dup1\n        /* \"--CODEGEN--\":21:33   */\n      revert\n        /* \"--CODEGEN--\":4:6   */\n    tag_136:\n      pop\n        /* \"bitlime-periphery/contracts/Safemoon.sol\":30392:30512  function isExcludedFromReward(address account) public view returns (bool) {\r... */\n      calldataload\n      sub(shl(0xa0, 0x01), 0x01)\n      and\n      tag_137\n      jump\t// in\n        /* \"bitlime-periphery/contracts/Safemoon.sol\":16044:16123  function owner() public view returns (address) {\r... */\n    tag_27:\n      callvalue\n        /* \"--CODEGEN--\":5:14   */\n      dup1\n        /* \"--CODEGEN--\":2:4   */\n      iszero\n      tag_138\n      jumpi\n        /* \"--CODEGEN--\":27:28   */\n      0x00\n        /* \"--CODEGEN--\":24:25   */\n      dup1\n        /* \"--CODEGEN--\":17:29   */\n      revert\n        /* \"--CODEGEN--\":2:4   */\n    tag_138:\n        /* \"bitlime-periphery/contracts/Safemoon.sol\":16044:16123  function owner() public view returns (address) {\r... */\n      pop\n      tag_68\n      tag_140\n      jump\t// in\n        /* \"bitlime-periphery/contracts/Safemoon.sol\":33662:33784  function setLiquidityFeePercent(uint256 liquidityFee) external onlyOwner() {\r... */\n    tag_28:\n      callvalue\n        /* \"--CODEGEN--\":5:14   */\n      dup1\n        /* \"--CODEGEN--\":2:4   */\n      iszero\n      tag_141\n      jumpi\n        /* \"--CODEGEN--\":27:28   */\n      0x00\n        /* \"--CODEGEN--\":24:25   */\n      dup1\n        /* \"--CODEGEN--\":17:29   */\n      revert\n        /* \"--CODEGEN--\":2:4   */\n    tag_141:\n        /* \"bitlime-periphery/contracts/Safemoon.sol\":33662:33784  function setLiquidityFeePercent(uint256 liquidityFee) external onlyOwner() {\r... */\n      pop\n      tag_50\n      0x04\n      dup1\n      calldatasize\n      sub\n        /* \"--CODEGEN--\":15:17   */\n      0x20\n        /* \"--CODEGEN--\":10:13   */\n      dup2\n        /* \"--CODEGEN--\":7:18   */\n      lt\n        /* \"--CODEGEN--\":4:6   */\n      iszero\n      tag_143\n      jumpi\n        /* \"--CODEGEN--\":31:32   */\n      0x00\n        /* \"--CODEGEN--\":28:29   */\n      dup1\n        /* \"--CODEGEN--\":21:33   */\n      revert\n        /* \"--CODEGEN--\":4:6   */\n    tag_143:\n      pop\n        /* \"bitlime-periphery/contracts/Safemoon.sol\":33662:33784  function setLiquidityFeePercent(uint256 liquidityFee) external onlyOwner() {\r... */\n      calldataload\n      tag_144\n      jump\t// in\n        /* \"bitlime-periphery/contracts/Safemoon.sol\":28578:28665  function symbol() public view returns (string memory) {\r... */\n    tag_29:\n      callvalue\n        /* \"--CODEGEN--\":5:14   */\n      dup1\n        /* \"--CODEGEN--\":2:4   */\n      iszero\n      tag_145\n      jumpi\n        /* \"--CODEGEN--\":27:28   */\n      0x00\n        /* \"--CODEGEN--\":24:25   */\n      dup1\n        /* \"--CODEGEN--\":17:29   */\n      revert\n        /* \"--CODEGEN--\":2:4   */\n    tag_145:\n        /* \"bitlime-periphery/contracts/Safemoon.sol\":28578:28665  function symbol() public view returns (string memory) {\r... */\n      pop\n      tag_54\n      tag_147\n      jump\t// in\n        /* \"bitlime-periphery/contracts/Safemoon.sol\":30115:30384  function decreaseAllowance(address spender, uint256 subtractedValue) public virtual returns (bool) {\r... */\n    tag_30:\n      callvalue\n        /* \"--CODEGEN--\":5:14   */\n      dup1\n        /* \"--CODEGEN--\":2:4   */\n      iszero\n      tag_152\n      jumpi\n        /* \"--CODEGEN--\":27:28   */\n      0x00\n        /* \"--CODEGEN--\":24:25   */\n      dup1\n        /* \"--CODEGEN--\":17:29   */\n      revert\n        /* \"--CODEGEN--\":2:4   */\n    tag_152:\n        /* \"bitlime-periphery/contracts/Safemoon.sol\":30115:30384  function decreaseAllowance(address spender, uint256 subtractedValue) public virtual returns (bool) {\r... */\n      pop\n      tag_61\n      0x04\n      dup1\n      calldatasize\n      sub\n        /* \"--CODEGEN--\":15:17   */\n      0x40\n        /* \"--CODEGEN--\":10:13   */\n      dup2\n        /* \"--CODEGEN--\":7:18   */\n      lt\n        /* \"--CODEGEN--\":4:6   */\n      iszero\n      tag_154\n      jumpi\n        /* \"--CODEGEN--\":31:32   */\n      0x00\n        /* \"--CODEGEN--\":28:29   */\n      dup1\n        /* \"--CODEGEN--\":21:33   */\n      revert\n        /* \"--CODEGEN--\":4:6   */\n    tag_154:\n      pop\n      sub(shl(0xa0, 0x01), 0x01)\n        /* \"bitlime-periphery/contracts/Safemoon.sol\":30115:30384  function decreaseAllowance(address spender, uint256 subtractedValue) public virtual returns (bool) {\r... */\n      dup2\n      calldataload\n      and\n      swap1\n      0x20\n      add\n      calldataload\n      tag_155\n      jump\t// in\n        /* \"bitlime-periphery/contracts/Safemoon.sol\":17697:17990  function unlock() public virtual {\r... */\n    tag_31:\n      callvalue\n        /* \"--CODEGEN--\":5:14   */\n      dup1\n        /* \"--CODEGEN--\":2:4   */\n      iszero\n      tag_156\n      jumpi\n        /* \"--CODEGEN--\":27:28   */\n      0x00\n        /* \"--CODEGEN--\":24:25   */\n      dup1\n        /* \"--CODEGEN--\":17:29   */\n      revert\n        /* \"--CODEGEN--\":2:4   */\n    tag_156:\n        /* \"bitlime-periphery/contracts/Safemoon.sol\":17697:17990  function unlock() public virtual {\r... */\n      pop\n      tag_50\n      tag_158\n      jump\t// in\n        /* \"bitlime-periphery/contracts/Safemoon.sol\":29073:29240  function transfer(address recipient, uint256 amount) public override returns (bool) {\r... */\n    tag_32:\n      callvalue\n        /* \"--CODEGEN--\":5:14   */\n      dup1\n        /* \"--CODEGEN--\":2:4   */\n      iszero\n      tag_159\n      jumpi\n        /* \"--CODEGEN--\":27:28   */\n      0x00\n        /* \"--CODEGEN--\":24:25   */\n      dup1\n        /* \"--CODEGEN--\":17:29   */\n      revert\n        /* \"--CODEGEN--\":2:4   */\n    tag_159:\n        /* \"bitlime-periphery/contracts/Safemoon.sol\":29073:29240  function transfer(address recipient, uint256 amount) public override returns (bool) {\r... */\n      pop\n      tag_61\n      0x04\n      dup1\n      calldatasize\n      sub\n        /* \"--CODEGEN--\":15:17   */\n      0x40\n        /* \"--CODEGEN--\":10:13   */\n      dup2\n        /* \"--CODEGEN--\":7:18   */\n      lt\n        /* \"--CODEGEN--\":4:6   */\n      iszero\n      tag_161\n      jumpi\n        /* \"--CODEGEN--\":31:32   */\n      0x00\n        /* \"--CODEGEN--\":28:29   */\n      dup1\n        /* \"--CODEGEN--\":21:33   */\n      revert\n        /* \"--CODEGEN--\":4:6   */\n    tag_161:\n      pop\n      sub(shl(0xa0, 0x01), 0x01)\n        /* \"bitlime-periphery/contracts/Safemoon.sol\":29073:29240  function transfer(address recipient, uint256 amount) public override returns (bool) {\r... */\n      dup2\n      calldataload\n      and\n      swap1\n      0x20\n      add\n      calldataload\n      tag_162\n      jump\t// in\n        /* \"bitlime-periphery/contracts/Safemoon.sol\":17242:17331  function geUnlockTime() public view returns (uint256) {\r... */\n    tag_33:\n      callvalue\n        /* \"--CODEGEN--\":5:14   */\n      dup1\n        /* \"--CODEGEN--\":2:4   */\n      iszero\n      tag_163\n      jumpi\n        /* \"--CODEGEN--\":27:28   */\n      0x00\n        /* \"--CODEGEN--\":24:25   */\n      dup1\n        /* \"--CODEGEN--\":17:29   */\n      revert\n        /* \"--CODEGEN--\":2:4   */\n    tag_163:\n        /* \"bitlime-periphery/contracts/Safemoon.sol\":17242:17331  function geUnlockTime() public view returns (uint256) {\r... */\n      pop\n      tag_65\n      tag_165\n      jump\t// in\n        /* \"bitlime-periphery/contracts/Safemoon.sol\":33965:34136  function setSwapAndLiquifyEnabled(bool _enabled) public onlyOwner {\r... */\n    tag_34:\n      callvalue\n        /* \"--CODEGEN--\":5:14   */\n      dup1\n        /* \"--CODEGEN--\":2:4   */\n      iszero\n      tag_166\n      jumpi\n        /* \"--CODEGEN--\":27:28   */\n      0x00\n        /* \"--CODEGEN--\":24:25   */\n      dup1\n        /* \"--CODEGEN--\":17:29   */\n      revert\n        /* \"--CODEGEN--\":2:4   */\n    tag_166:\n        /* \"bitlime-periphery/contracts/Safemoon.sol\":33965:34136  function setSwapAndLiquifyEnabled(bool _enabled) public onlyOwner {\r... */\n      pop\n      tag_50\n      0x04\n      dup1\n      calldatasize\n      sub\n        /* \"--CODEGEN--\":15:17   */\n      0x20\n        /* \"--CODEGEN--\":10:13   */\n      dup2\n        /* \"--CODEGEN--\":7:18   */\n      lt\n        /* \"--CODEGEN--\":4:6   */\n      iszero\n      tag_168\n      jumpi\n        /* \"--CODEGEN--\":31:32   */\n      0x00\n        /* \"--CODEGEN--\":28:29   */\n      dup1\n        /* \"--CODEGEN--\":21:33   */\n      revert\n        /* \"--CODEGEN--\":4:6   */\n    tag_168:\n      pop\n        /* \"bitlime-periphery/contracts/Safemoon.sol\":33965:34136  function setSwapAndLiquifyEnabled(bool _enabled) public onlyOwner {\r... */\n      calldataload\n      iszero\n      iszero\n      tag_169\n      jump\t// in\n        /* \"bitlime-periphery/contracts/Safemoon.sol\":33795:33957  function setMaxTxPercent(uint256 maxTxPercent) external onlyOwner() {\r... */\n    tag_35:\n      callvalue\n        /* \"--CODEGEN--\":5:14   */\n      dup1\n        /* \"--CODEGEN--\":2:4   */\n      iszero\n      tag_170\n      jumpi\n        /* \"--CODEGEN--\":27:28   */\n      0x00\n        /* \"--CODEGEN--\":24:25   */\n      dup1\n        /* \"--CODEGEN--\":17:29   */\n      revert\n        /* \"--CODEGEN--\":2:4   */\n    tag_170:\n        /* \"bitlime-periphery/contracts/Safemoon.sol\":33795:33957  function setMaxTxPercent(uint256 maxTxPercent) external onlyOwner() {\r... */\n      pop\n      tag_50\n      0x04\n      dup1\n      calldatasize\n      sub\n        /* \"--CODEGEN--\":15:17   */\n      0x20\n        /* \"--CODEGEN--\":10:13   */\n      dup2\n        /* \"--CODEGEN--\":7:18   */\n      lt\n        /* \"--CODEGEN--\":4:6   */\n      iszero\n      tag_172\n      jumpi\n        /* \"--CODEGEN--\":31:32   */\n      0x00\n        /* \"--CODEGEN--\":28:29   */\n      dup1\n        /* \"--CODEGEN--\":21:33   */\n      revert\n        /* \"--CODEGEN--\":4:6   */\n    tag_172:\n      pop\n        /* \"bitlime-periphery/contracts/Safemoon.sol\":33795:33957  function setMaxTxPercent(uint256 maxTxPercent) external onlyOwner() {\r... */\n      calldataload\n      tag_173\n      jump\t// in\n        /* \"bitlime-periphery/contracts/Safemoon.sol\":17407:17621  function lock(uint256 time) public virtual onlyOwner {\r... */\n    tag_36:\n      callvalue\n        /* \"--CODEGEN--\":5:14   */\n      dup1\n        /* \"--CODEGEN--\":2:4   */\n      iszero\n      tag_174\n      jumpi\n        /* \"--CODEGEN--\":27:28   */\n      0x00\n        /* \"--CODEGEN--\":24:25   */\n      dup1\n        /* \"--CODEGEN--\":17:29   */\n      revert\n        /* \"--CODEGEN--\":2:4   */\n    tag_174:\n        /* \"bitlime-periphery/contracts/Safemoon.sol\":17407:17621  function lock(uint256 time) public virtual onlyOwner {\r... */\n      pop\n      tag_50\n      0x04\n      dup1\n      calldatasize\n      sub\n        /* \"--CODEGEN--\":15:17   */\n      0x20\n        /* \"--CODEGEN--\":10:13   */\n      dup2\n        /* \"--CODEGEN--\":7:18   */\n      lt\n        /* \"--CODEGEN--\":4:6   */\n      iszero\n      tag_176\n      jumpi\n        /* \"--CODEGEN--\":31:32   */\n      0x00\n        /* \"--CODEGEN--\":28:29   */\n      dup1\n        /* \"--CODEGEN--\":21:33   */\n      revert\n        /* \"--CODEGEN--\":4:6   */\n    tag_176:\n      pop\n        /* \"bitlime-periphery/contracts/Safemoon.sol\":17407:17621  function lock(uint256 time) public virtual onlyOwner {\r... */\n      calldataload\n      tag_177\n      jump\t// in\n        /* \"bitlime-periphery/contracts/Safemoon.sol\":29248:29391  function allowance(address owner, address spender) public view override returns (uint256) {\r... */\n    tag_37:\n      callvalue\n        /* \"--CODEGEN--\":5:14   */\n      dup1\n        /* \"--CODEGEN--\":2:4   */\n      iszero\n      tag_178\n      jumpi\n        /* \"--CODEGEN--\":27:28   */\n      0x00\n        /* \"--CODEGEN--\":24:25   */\n      dup1\n        /* \"--CODEGEN--\":17:29   */\n      revert\n        /* \"--CODEGEN--\":2:4   */\n    tag_178:\n        /* \"bitlime-periphery/contracts/Safemoon.sol\":29248:29391  function allowance(address owner, address spender) public view override returns (uint256) {\r... */\n      pop\n      tag_65\n      0x04\n      dup1\n      calldatasize\n      sub\n        /* \"--CODEGEN--\":15:17   */\n      0x40\n        /* \"--CODEGEN--\":10:13   */\n      dup2\n        /* \"--CODEGEN--\":7:18   */\n      lt\n        /* \"--CODEGEN--\":4:6   */\n      iszero\n      tag_180\n      jumpi\n        /* \"--CODEGEN--\":31:32   */\n      0x00\n        /* \"--CODEGEN--\":28:29   */\n      dup1\n        /* \"--CODEGEN--\":21:33   */\n      revert\n        /* \"--CODEGEN--\":4:6   */\n    tag_180:\n      pop\n      sub(shl(0xa0, 0x01), 0x01)\n        /* \"bitlime-periphery/contracts/Safemoon.sol\":29248:29391  function allowance(address owner, address spender) public view override returns (uint256) {\r... */\n      dup2\n      calldataload\n      dup2\n      and\n      swap2\n      0x20\n      add\n      calldataload\n      and\n      tag_181\n      jump\t// in\n        /* \"bitlime-periphery/contracts/Safemoon.sol\":33430:33540  function includeInFee(address account) public onlyOwner {\r... */\n    tag_38:\n      callvalue\n        /* \"--CODEGEN--\":5:14   */\n      dup1\n        /* \"--CODEGEN--\":2:4   */\n      iszero\n      tag_182\n      jumpi\n        /* \"--CODEGEN--\":27:28   */\n      0x00\n        /* \"--CODEGEN--\":24:25   */\n      dup1\n        /* \"--CODEGEN--\":17:29   */\n      revert\n        /* \"--CODEGEN--\":2:4   */\n    tag_182:\n        /* \"bitlime-periphery/contracts/Safemoon.sol\":33430:33540  function includeInFee(address account) public onlyOwner {\r... */\n      pop\n      tag_50\n      0x04\n      dup1\n      calldatasize\n      sub\n        /* \"--CODEGEN--\":15:17   */\n      0x20\n        /* \"--CODEGEN--\":10:13   */\n      dup2\n        /* \"--CODEGEN--\":7:18   */\n      lt\n        /* \"--CODEGEN--\":4:6   */\n      iszero\n      tag_184\n      jumpi\n        /* \"--CODEGEN--\":31:32   */\n      0x00\n        /* \"--CODEGEN--\":28:29   */\n      dup1\n        /* \"--CODEGEN--\":21:33   */\n      revert\n        /* \"--CODEGEN--\":4:6   */\n    tag_184:\n      pop\n        /* \"bitlime-periphery/contracts/Safemoon.sol\":33430:33540  function includeInFee(address account) public onlyOwner {\r... */\n      calldataload\n      sub(shl(0xa0, 0x01), 0x01)\n      and\n      tag_185\n      jump\t// in\n        /* \"bitlime-periphery/contracts/Safemoon.sol\":16990:17234  function transferOwnership(address newOwner) public virtual onlyOwner {\r... */\n    tag_39:\n      callvalue\n        /* \"--CODEGEN--\":5:14   */\n      dup1\n        /* \"--CODEGEN--\":2:4   */\n      iszero\n      tag_186\n      jumpi\n        /* \"--CODEGEN--\":27:28   */\n      0x00\n        /* \"--CODEGEN--\":24:25   */\n      dup1\n        /* \"--CODEGEN--\":17:29   */\n      revert\n        /* \"--CODEGEN--\":2:4   */\n    tag_186:\n        /* \"bitlime-periphery/contracts/Safemoon.sol\":16990:17234  function transferOwnership(address newOwner) public virtual onlyOwner {\r... */\n      pop\n      tag_50\n      0x04\n      dup1\n      calldatasize\n      sub\n        /* \"--CODEGEN--\":15:17   */\n      0x20\n        /* \"--CODEGEN--\":10:13   */\n      dup2\n        /* \"--CODEGEN--\":7:18   */\n      lt\n        /* \"--CODEGEN--\":4:6   */\n      iszero\n      tag_188\n      jumpi\n        /* \"--CODEGEN--\":31:32   */\n      0x00\n        /* \"--CODEGEN--\":28:29   */\n      dup1\n        /* \"--CODEGEN--\":21:33   */\n      revert\n        /* \"--CODEGEN--\":4:6   */\n    tag_188:\n      pop\n        /* \"bitlime-periphery/contracts/Safemoon.sol\":16990:17234  function transferOwnership(address newOwner) public virtual onlyOwner {\r... */\n      calldataload\n      sub(shl(0xa0, 0x01), 0x01)\n      and\n      tag_189\n      jump\t// in\n        /* \"bitlime-periphery/contracts/Safemoon.sol\":33552:33650  function setTaxFeePercent(uint256 taxFee) external onlyOwner() {\r... */\n    tag_52:\n        /* \"bitlime-periphery/contracts/Safemoon.sol\":16266:16278  _msgSender() */\n      tag_191\n        /* \"bitlime-periphery/contracts/Safemoon.sol\":16266:16276  _msgSender */\n      tag_192\n        /* \"bitlime-periphery/contracts/Safemoon.sol\":16266:16278  _msgSender() */\n      jump\t// in\n    tag_191:\n        /* \"bitlime-periphery/contracts/Safemoon.sol\":16256:16262  _owner */\n      sload(0x00)\n      sub(shl(0xa0, 0x01), 0x01)\n      swap1\n      dup2\n      and\n        /* \"bitlime-periphery/contracts/Safemoon.sol\":16256:16278  _owner == _msgSender() */\n      swap2\n      and\n      eq\n        /* \"bitlime-periphery/contracts/Safemoon.sol\":16248:16315  require(_owner == _msgSender(), \"Ownable: caller is not the owner\") */\n      tag_193\n      jumpi\n      0x40\n      dup1\n      mload\n      shl(0xe5, 0x461bcd)\n      dup2\n      mstore\n      0x20\n      0x04\n      dup3\n      add\n      dup2\n      swap1\n      mstore\n      0x24\n      dup3\n      add\n      mstore\n      0x00\n      dup1\n      mload\n      0x20\n      data_9924ebdf1add33d25d4ef888e16131f0a5687b0580a36c21b5c301a6c462effe\n      dup4\n      codecopy\n      dup2\n      mload\n      swap2\n      mstore\n      0x44\n      dup3\n      add\n      mstore\n      swap1\n      mload\n      swap1\n      dup2\n      swap1\n      sub\n      0x64\n      add\n      swap1\n      revert\n    tag_193:\n        /* \"bitlime-periphery/contracts/Safemoon.sol\":33626:33633  _taxFee */\n      0x0f\n        /* \"bitlime-periphery/contracts/Safemoon.sol\":33626:33642  _taxFee = taxFee */\n      sstore\n        /* \"bitlime-periphery/contracts/Safemoon.sol\":33552:33650  function setTaxFeePercent(uint256 taxFee) external onlyOwner() {\r... */\n      jump\t// out\n        /* \"bitlime-periphery/contracts/Safemoon.sol\":28487:28570  function name() public view returns (string memory) {\r... */\n    tag_55:\n        /* \"bitlime-periphery/contracts/Safemoon.sol\":28557:28562  _name */\n      0x0c\n        /* \"bitlime-periphery/contracts/Safemoon.sol\":28550:28562  return _name */\n      dup1\n      sload\n      0x40\n      dup1\n      mload\n      0x20\n      0x1f\n      0x02\n      not(0x00)\n      0x0100\n      0x01\n      dup9\n      and\n      iszero\n      mul\n      add\n      swap1\n      swap6\n      and\n      swap5\n      swap1\n      swap5\n      div\n      swap4\n      dup5\n      add\n      dup2\n      swap1\n      div\n      dup2\n      mul\n      dup3\n      add\n      dup2\n      add\n      swap1\n      swap3\n      mstore\n      dup3\n      dup2\n      mstore\n        /* \"bitlime-periphery/contracts/Safemoon.sol\":28524:28537  string memory */\n      0x60\n      swap4\n        /* \"bitlime-periphery/contracts/Safemoon.sol\":28550:28562  return _name */\n      swap1\n      swap3\n        /* \"bitlime-periphery/contracts/Safemoon.sol\":28557:28562  _name */\n      swap1\n      swap2\n        /* \"bitlime-periphery/contracts/Safemoon.sol\":28550:28562  return _name */\n      dup4\n      add\n        /* \"bitlime-periphery/contracts/Safemoon.sol\":28557:28562  _name */\n      dup3\n        /* \"bitlime-periphery/contracts/Safemoon.sol\":28550:28562  return _name */\n      dup3\n      dup1\n      iszero\n      tag_196\n      jumpi\n      dup1\n      0x1f\n      lt\n      tag_197\n      jumpi\n      0x0100\n      dup1\n      dup4\n      sload\n      div\n      mul\n      dup4\n      mstore\n      swap2\n      0x20\n      add\n      swap2\n      jump(tag_196)\n    tag_197:\n      dup3\n      add\n      swap2\n      swap1\n      0x00\n      mstore\n      keccak256(0x00, 0x20)\n      swap1\n    tag_198:\n      dup2\n      sload\n      dup2\n      mstore\n      swap1\n      0x01\n      add\n      swap1\n      0x20\n      add\n      dup1\n      dup4\n      gt\n      tag_198\n      jumpi\n      dup3\n      swap1\n      sub\n      0x1f\n      and\n      dup3\n      add\n      swap2\n    tag_196:\n      pop\n      pop\n      pop\n      pop\n      pop\n      swap1\n      pop\n        /* \"bitlime-periphery/contracts/Safemoon.sol\":28487:28570  function name() public view returns (string memory) {\r... */\n      swap1\n      jump\t// out\n        /* \"bitlime-periphery/contracts/Safemoon.sol\":29399:29560  function approve(address spender, uint256 amount) public override returns (bool) {\r... */\n    tag_63:\n        /* \"bitlime-periphery/contracts/Safemoon.sol\":29474:29478  bool */\n      0x00\n        /* \"bitlime-periphery/contracts/Safemoon.sol\":29491:29530  _approve(_msgSender(), spender, amount) */\n      tag_200\n        /* \"bitlime-periphery/contracts/Safemoon.sol\":29500:29512  _msgSender() */\n      tag_201\n        /* \"bitlime-periphery/contracts/Safemoon.sol\":29500:29510  _msgSender */\n      tag_192\n        /* \"bitlime-periphery/contracts/Safemoon.sol\":29500:29512  _msgSender() */\n      jump\t// in\n    tag_201:\n        /* \"bitlime-periphery/contracts/Safemoon.sol\":29514:29521  spender */\n      dup5\n        /* \"bitlime-periphery/contracts/Safemoon.sol\":29523:29529  amount */\n      dup5\n        /* \"bitlime-periphery/contracts/Safemoon.sol\":29491:29499  _approve */\n      tag_202\n        /* \"bitlime-periphery/contracts/Safemoon.sol\":29491:29530  _approve(_msgSender(), spender, amount) */\n      jump\t// in\n    tag_200:\n      pop\n        /* \"bitlime-periphery/contracts/Safemoon.sol\":29548:29552  true */\n      0x01\n        /* \"bitlime-periphery/contracts/Safemoon.sol\":29399:29560  function approve(address spender, uint256 amount) public override returns (bool) {\r... */\n    tag_199:\n      swap3\n      swap2\n      pop\n      pop\n      jump\t// out\n        /* \"bitlime-periphery/contracts/Safemoon.sol\":30520:30607  function totalFees() public view returns (uint256) {\r... */\n    tag_66:\n        /* \"bitlime-periphery/contracts/Safemoon.sol\":30589:30599  _tFeeTotal */\n      sload(0x0b)\n        /* \"bitlime-periphery/contracts/Safemoon.sol\":30520:30607  function totalFees() public view returns (uint256) {\r... */\n      swap1\n      jump\t// out\n        /* \"bitlime-periphery/contracts/Safemoon.sol\":27053:27104  IUniswapV2Router02 public immutable uniswapV2Router */\n    tag_69:\n      immutable(\"0xfc57b5902f0023899e1247e2ff263b1dfd650a9d73b378b1a0bb28583d7847fc\")\n      dup2\n      jump\t// out\n        /* \"bitlime-periphery/contracts/Safemoon.sol\":28764:28859  function totalSupply() public view override returns (uint256) {\r... */\n    tag_72:\n        /* \"bitlime-periphery/contracts/Safemoon.sol\":28844:28851  _tTotal */\n      sload(0x09)\n        /* \"bitlime-periphery/contracts/Safemoon.sol\":28764:28859  function totalSupply() public view override returns (uint256) {\r... */\n      swap1\n      jump\t// out\n        /* \"bitlime-periphery/contracts/Safemoon.sol\":29568:29881  function transferFrom(address sender, address recipient, uint256 amount) public override returns (bool) {\r... */\n    tag_76:\n        /* \"bitlime-periphery/contracts/Safemoon.sol\":29666:29670  bool */\n      0x00\n        /* \"bitlime-periphery/contracts/Safemoon.sol\":29683:29719  _transfer(sender, recipient, amount) */\n      tag_206\n        /* \"bitlime-periphery/contracts/Safemoon.sol\":29693:29699  sender */\n      dup5\n        /* \"bitlime-periphery/contracts/Safemoon.sol\":29701:29710  recipient */\n      dup5\n        /* \"bitlime-periphery/contracts/Safemoon.sol\":29712:29718  amount */\n      dup5\n        /* \"bitlime-periphery/contracts/Safemoon.sol\":29683:29692  _transfer */\n      tag_207\n        /* \"bitlime-periphery/contracts/Safemoon.sol\":29683:29719  _transfer(sender, recipient, amount) */\n      jump\t// in\n    tag_206:\n        /* \"bitlime-periphery/contracts/Safemoon.sol\":29730:29851  _approve(sender, _msgSender(), _allowances[sender][_msgSender()].sub(amount, \"ERC20: transfer amount exceeds allowance\")) */\n      tag_208\n        /* \"bitlime-periphery/contracts/Safemoon.sol\":29739:29745  sender */\n      dup5\n        /* \"bitlime-periphery/contracts/Safemoon.sol\":29747:29759  _msgSender() */\n      tag_209\n        /* \"bitlime-periphery/contracts/Safemoon.sol\":29747:29757  _msgSender */\n      tag_192\n        /* \"bitlime-periphery/contracts/Safemoon.sol\":29747:29759  _msgSender() */\n      jump\t// in\n    tag_209:\n        /* \"bitlime-periphery/contracts/Safemoon.sol\":29761:29850  _allowances[sender][_msgSender()].sub(amount, \"ERC20: transfer amount exceeds allowance\") */\n      tag_210\n        /* \"bitlime-periphery/contracts/Safemoon.sol\":29799:29805  amount */\n      dup6\n        /* \"bitlime-periphery/contracts/Safemoon.sol\":29761:29850  _allowances[sender][_msgSender()].sub(amount, \"ERC20: transfer amount exceeds allowance\") */\n      mload(0x40)\n      dup1\n      0x60\n      add\n      0x40\n      mstore\n      dup1\n      0x28\n      dup2\n      mstore\n      0x20\n      add\n      data_974d1b4421da69cc60b481194f0dad36a5bb4e23da810da7a7fb30cdba178330\n      0x28\n      swap2\n      codecopy\n      sub(shl(0xa0, 0x01), 0x01)\n        /* \"bitlime-periphery/contracts/Safemoon.sol\":29761:29780  _allowances[sender] */\n      dup11\n      and\n      0x00\n      swap1\n      dup2\n      mstore\n        /* \"bitlime-periphery/contracts/Safemoon.sol\":29761:29772  _allowances */\n      0x05\n        /* \"bitlime-periphery/contracts/Safemoon.sol\":29761:29780  _allowances[sender] */\n      0x20\n      mstore\n      0x40\n      dup2\n      keccak256\n      swap1\n        /* \"bitlime-periphery/contracts/Safemoon.sol\":29781:29793  _msgSender() */\n      tag_211\n        /* \"bitlime-periphery/contracts/Safemoon.sol\":29781:29791  _msgSender */\n      tag_192\n        /* \"bitlime-periphery/contracts/Safemoon.sol\":29781:29793  _msgSender() */\n      jump\t// in\n    tag_211:\n      sub(shl(0xa0, 0x01), 0x01)\n        /* \"bitlime-periphery/contracts/Safemoon.sol\":29761:29794  _allowances[sender][_msgSender()] */\n      and\n      dup2\n      mstore\n      0x20\n      dup2\n      add\n      swap2\n      swap1\n      swap2\n      mstore\n      0x40\n      add\n      0x00\n      keccak256\n      sload\n      swap2\n        /* \"bitlime-periphery/contracts/Safemoon.sol\":29761:29850  _allowances[sender][_msgSender()].sub(amount, \"ERC20: transfer amount exceeds allowance\") */\n      swap1\n      0xffffffff\n        /* \"bitlime-periphery/contracts/Safemoon.sol\":29761:29798  _allowances[sender][_msgSender()].sub */\n      tag_212\n        /* \"bitlime-periphery/contracts/Safemoon.sol\":29761:29850  _allowances[sender][_msgSender()].sub(amount, \"ERC20: transfer amount exceeds allowance\") */\n      and\n      jump\t// in\n    tag_210:\n        /* \"bitlime-periphery/contracts/Safemoon.sol\":29730:29738  _approve */\n      tag_202\n        /* \"bitlime-periphery/contracts/Safemoon.sol\":29730:29851  _approve(sender, _msgSender(), _allowances[sender][_msgSender()].sub(amount, \"ERC20: transfer amount exceeds allowance\")) */\n      jump\t// in\n    tag_208:\n      pop\n        /* \"bitlime-periphery/contracts/Safemoon.sol\":29869:29873  true */\n      0x01\n        /* \"bitlime-periphery/contracts/Safemoon.sol\":29568:29881  function transferFrom(address sender, address recipient, uint256 amount) public override returns (bool) {\r... */\n      swap4\n      swap3\n      pop\n      pop\n      pop\n      jump\t// out\n        /* \"bitlime-periphery/contracts/Safemoon.sol\":31444:31697  function tokenFromReflection(uint256 rAmount) public view returns(uint256) {\r... */\n    tag_80:\n        /* \"bitlime-periphery/contracts/Safemoon.sol\":31510:31517  uint256 */\n      0x00\n        /* \"bitlime-periphery/contracts/Safemoon.sol\":31549:31556  _rTotal */\n      sload(0x0a)\n        /* \"bitlime-periphery/contracts/Safemoon.sol\":31538:31545  rAmount */\n      dup3\n        /* \"bitlime-periphery/contracts/Safemoon.sol\":31538:31556  rAmount <= _rTotal */\n      gt\n      iszero\n        /* \"bitlime-periphery/contracts/Safemoon.sol\":31530:31603  require(rAmount <= _rTotal, \"Amount must be less than total reflections\") */\n      tag_214\n      jumpi\n      mload(0x40)\n      shl(0xe5, 0x461bcd)\n      dup2\n      mstore\n      0x04\n      add\n      dup1\n      dup1\n      0x20\n      add\n      dup3\n      dup2\n      sub\n      dup3\n      mstore\n      0x2a\n      dup2\n      mstore\n      0x20\n      add\n      dup1\n      data_22f7af55a509c3b14f0d528f087748dec8a8bf425135e3f5dc28c6a31ec6d812\n      0x2a\n      swap2\n      codecopy\n      0x40\n      add\n      swap2\n      pop\n      pop\n      mload(0x40)\n      dup1\n      swap2\n      sub\n      swap1\n      revert\n    tag_214:\n        /* \"bitlime-periphery/contracts/Safemoon.sol\":31614:31633  uint256 currentRate */\n      0x00\n        /* \"bitlime-periphery/contracts/Safemoon.sol\":31637:31647  _getRate() */\n      tag_215\n        /* \"bitlime-periphery/contracts/Safemoon.sol\":31637:31645  _getRate */\n      tag_216\n        /* \"bitlime-periphery/contracts/Safemoon.sol\":31637:31647  _getRate() */\n      jump\t// in\n    tag_215:\n        /* \"bitlime-periphery/contracts/Safemoon.sol\":31614:31647  uint256 currentRate =  _getRate() */\n      swap1\n      pop\n        /* \"bitlime-periphery/contracts/Safemoon.sol\":31665:31689  rAmount.div(currentRate) */\n      tag_217\n        /* \"bitlime-periphery/contracts/Safemoon.sol\":31665:31672  rAmount */\n      dup4\n        /* \"bitlime-periphery/contracts/Safemoon.sol\":31614:31647  uint256 currentRate =  _getRate() */\n      dup3\n        /* \"bitlime-periphery/contracts/Safemoon.sol\":31665:31689  rAmount.div(currentRate) */\n      0xffffffff\n        /* \"bitlime-periphery/contracts/Safemoon.sol\":31665:31676  rAmount.div */\n      tag_218\n        /* \"bitlime-periphery/contracts/Safemoon.sol\":31665:31689  rAmount.div(currentRate) */\n      and\n      jump\t// in\n    tag_217:\n        /* \"bitlime-periphery/contracts/Safemoon.sol\":31658:31689  return rAmount.div(currentRate) */\n      swap2\n      pop\n      pop\n        /* \"bitlime-periphery/contracts/Safemoon.sol\":31444:31697  function tokenFromReflection(uint256 rAmount) public view returns(uint256) {\r... */\n    tag_213:\n      swap2\n      swap1\n      pop\n      jump\t// out\n        /* \"bitlime-periphery/contracts/Safemoon.sol\":28673:28756  function decimals() public view returns (uint8) {\r... */\n    tag_83:\n        /* \"bitlime-periphery/contracts/Safemoon.sol\":28739:28748  _decimals */\n      and(0xff, sload(0x0e))\n        /* \"bitlime-periphery/contracts/Safemoon.sol\":28673:28756  function decimals() public view returns (uint8) {\r... */\n      swap1\n      jump\t// out\n        /* \"bitlime-periphery/contracts/Safemoon.sol\":32160:32639  function includeInReward(address account) external onlyOwner() {\r... */\n    tag_87:\n        /* \"bitlime-periphery/contracts/Safemoon.sol\":16266:16278  _msgSender() */\n      tag_221\n        /* \"bitlime-periphery/contracts/Safemoon.sol\":16266:16276  _msgSender */\n      tag_192\n        /* \"bitlime-periphery/contracts/Safemoon.sol\":16266:16278  _msgSender() */\n      jump\t// in\n    tag_221:\n        /* \"bitlime-periphery/contracts/Safemoon.sol\":16256:16262  _owner */\n      sload(0x00)\n      sub(shl(0xa0, 0x01), 0x01)\n      swap1\n      dup2\n      and\n        /* \"bitlime-periphery/contracts/Safemoon.sol\":16256:16278  _owner == _msgSender() */\n      swap2\n      and\n      eq\n        /* \"bitlime-periphery/contracts/Safemoon.sol\":16248:16315  require(_owner == _msgSender(), \"Ownable: caller is not the owner\") */\n      tag_222\n      jumpi\n      0x40\n      dup1\n      mload\n      shl(0xe5, 0x461bcd)\n      dup2\n      mstore\n      0x20\n      0x04\n      dup3\n      add\n      dup2\n      swap1\n      mstore\n      0x24\n      dup3\n      add\n      mstore\n      0x00\n      dup1\n      mload\n      0x20\n      data_9924ebdf1add33d25d4ef888e16131f0a5687b0580a36c21b5c301a6c462effe\n      dup4\n      codecopy\n      dup2\n      mload\n      swap2\n      mstore\n      0x44\n      dup3\n      add\n      mstore\n      swap1\n      mload\n      swap1\n      dup2\n      swap1\n      sub\n      0x64\n      add\n      swap1\n      revert\n    tag_222:\n      sub(shl(0xa0, 0x01), 0x01)\n        /* \"bitlime-periphery/contracts/Safemoon.sol\":32242:32262  _isExcluded[account] */\n      dup2\n      and\n      0x00\n      swap1\n      dup2\n      mstore\n        /* \"bitlime-periphery/contracts/Safemoon.sol\":32242:32253  _isExcluded */\n      0x07\n        /* \"bitlime-periphery/contracts/Safemoon.sol\":32242:32262  _isExcluded[account] */\n      0x20\n      mstore\n      0x40\n      swap1\n      keccak256\n      sload\n      0xff\n      and\n        /* \"bitlime-periphery/contracts/Safemoon.sol\":32234:32294  require(_isExcluded[account], \"Account is already excluded\") */\n      tag_224\n      jumpi\n      0x40\n      dup1\n      mload\n      shl(0xe5, 0x461bcd)\n      dup2\n      mstore\n      0x20\n      0x04\n      dup3\n      add\n      mstore\n      0x1b\n      0x24\n      dup3\n      add\n      mstore\n      0x4163636f756e7420697320616c7265616479206578636c756465640000000000\n      0x44\n      dup3\n      add\n      mstore\n      swap1\n      mload\n      swap1\n      dup2\n      swap1\n      sub\n      0x64\n      add\n      swap1\n      revert\n    tag_224:\n        /* \"bitlime-periphery/contracts/Safemoon.sol\":32310:32319  uint256 i */\n      0x00\n        /* \"bitlime-periphery/contracts/Safemoon.sol\":32305:32632  for (uint256 i = 0; i < _excluded.length; i++) {\r... */\n    tag_225:\n        /* \"bitlime-periphery/contracts/Safemoon.sol\":32329:32338  _excluded */\n      0x08\n        /* \"bitlime-periphery/contracts/Safemoon.sol\":32329:32345  _excluded.length */\n      sload\n        /* \"bitlime-periphery/contracts/Safemoon.sol\":32325:32345  i < _excluded.length */\n      dup2\n      lt\n        /* \"bitlime-periphery/contracts/Safemoon.sol\":32305:32632  for (uint256 i = 0; i < _excluded.length; i++) {\r... */\n      iszero\n      tag_226\n      jumpi\n        /* \"bitlime-periphery/contracts/Safemoon.sol\":32387:32394  account */\n      dup2\n      sub(shl(0xa0, 0x01), 0x01)\n        /* \"bitlime-periphery/contracts/Safemoon.sol\":32371:32394  _excluded[i] == account */\n      and\n        /* \"bitlime-periphery/contracts/Safemoon.sol\":32371:32380  _excluded */\n      0x08\n        /* \"bitlime-periphery/contracts/Safemoon.sol\":32381:32382  i */\n      dup3\n        /* \"bitlime-periphery/contracts/Safemoon.sol\":32371:32383  _excluded[i] */\n      dup2\n      sload\n      dup2\n      lt\n      tag_228\n      jumpi\n      invalid\n    tag_228:\n      0x00\n      swap2\n      dup3\n      mstore\n      0x20\n      swap1\n      swap2\n      keccak256\n      add\n      sload\n      sub(shl(0xa0, 0x01), 0x01)\n      and\n        /* \"bitlime-periphery/contracts/Safemoon.sol\":32371:32394  _excluded[i] == account */\n      eq\n        /* \"bitlime-periphery/contracts/Safemoon.sol\":32367:32621  if (_excluded[i] == account) {\r... */\n      iszero\n      tag_230\n      jumpi\n        /* \"bitlime-periphery/contracts/Safemoon.sol\":32430:32439  _excluded */\n      0x08\n        /* \"bitlime-periphery/contracts/Safemoon.sol\":32440:32456  _excluded.length */\n      dup1\n      sload\n      not(0x00)\n        /* \"bitlime-periphery/contracts/Safemoon.sol\":32440:32460  _excluded.length - 1 */\n      dup2\n      add\n      swap1\n        /* \"bitlime-periphery/contracts/Safemoon.sol\":32430:32461  _excluded[_excluded.length - 1] */\n      dup2\n      lt\n      tag_231\n      jumpi\n      invalid\n    tag_231:\n      0x00\n      swap2\n      dup3\n      mstore\n      0x20\n      swap1\n      swap2\n      keccak256\n      add\n      sload\n        /* \"bitlime-periphery/contracts/Safemoon.sol\":32415:32424  _excluded */\n      0x08\n        /* \"bitlime-periphery/contracts/Safemoon.sol\":32415:32427  _excluded[i] */\n      dup1\n      sload\n      sub(shl(0xa0, 0x01), 0x01)\n        /* \"bitlime-periphery/contracts/Safemoon.sol\":32430:32461  _excluded[_excluded.length - 1] */\n      swap1\n      swap3\n      and\n      swap2\n        /* \"bitlime-periphery/contracts/Safemoon.sol\":32425:32426  i */\n      dup4\n      swap1\n        /* \"bitlime-periphery/contracts/Safemoon.sol\":32415:32427  _excluded[i] */\n      dup2\n      lt\n      tag_233\n      jumpi\n      invalid\n    tag_233:\n      0x00\n      swap2\n      dup3\n      mstore\n      0x20\n      dup1\n      dup4\n      keccak256\n      swap2\n      swap1\n      swap2\n      add\n        /* \"bitlime-periphery/contracts/Safemoon.sol\":32415:32461  _excluded[i] = _excluded[_excluded.length - 1] */\n      dup1\n      sload\n      not(sub(shl(0xa0, 0x01), 0x01))\n      and\n      sub(shl(0xa0, 0x01), 0x01)\n      swap5\n      dup6\n      and\n      or\n      swap1\n      sstore\n        /* \"bitlime-periphery/contracts/Safemoon.sol\":32480:32496  _tOwned[account] */\n      swap2\n      dup5\n      and\n      dup2\n      mstore\n        /* \"bitlime-periphery/contracts/Safemoon.sol\":32480:32487  _tOwned */\n      0x04\n        /* \"bitlime-periphery/contracts/Safemoon.sol\":32480:32496  _tOwned[account] */\n      dup3\n      mstore\n      0x40\n      dup1\n      dup3\n      keccak256\n        /* \"bitlime-periphery/contracts/Safemoon.sol\":32480:32500  _tOwned[account] = 0 */\n      dup3\n      swap1\n      sstore\n        /* \"bitlime-periphery/contracts/Safemoon.sol\":32519:32530  _isExcluded */\n      0x07\n        /* \"bitlime-periphery/contracts/Safemoon.sol\":32519:32539  _isExcluded[account] */\n      swap1\n      swap3\n      mstore\n      keccak256\n        /* \"bitlime-periphery/contracts/Safemoon.sol\":32519:32547  _isExcluded[account] = false */\n      dup1\n      sload\n      not(0xff)\n      and\n      swap1\n      sstore\n        /* \"bitlime-periphery/contracts/Safemoon.sol\":32566:32575  _excluded */\n      0x08\n        /* \"bitlime-periphery/contracts/Safemoon.sol\":32566:32581  _excluded.pop() */\n      dup1\n      sload\n      dup1\n      tag_235\n      jumpi\n      invalid\n    tag_235:\n      0x00\n      dup3\n      dup2\n      mstore\n      0x20\n      swap1\n      keccak256\n      dup2\n      add\n      not(0x00)\n      swap1\n      dup2\n      add\n      dup1\n      sload\n      not(sub(shl(0xa0, 0x01), 0x01))\n      and\n      swap1\n      sstore\n      add\n      swap1\n      sstore\n        /* \"bitlime-periphery/contracts/Safemoon.sol\":32600:32605  break */\n      jump(tag_226)\n        /* \"bitlime-periphery/contracts/Safemoon.sol\":32367:32621  if (_excluded[i] == account) {\r... */\n    tag_230:\n        /* \"bitlime-periphery/contracts/Safemoon.sol\":32347:32350  i++ */\n      0x01\n      add\n        /* \"bitlime-periphery/contracts/Safemoon.sol\":32305:32632  for (uint256 i = 0; i < _excluded.length; i++) {\r... */\n      jump(tag_225)\n    tag_226:\n      pop\n        /* \"bitlime-periphery/contracts/Safemoon.sol\":32160:32639  function includeInReward(address account) external onlyOwner() {\r... */\n      pop\n      jump\t// out\n        /* \"bitlime-periphery/contracts/Safemoon.sol\":29889:30107  function increaseAllowance(address spender, uint256 addedValue) public virtual returns (bool) {\r... */\n    tag_91:\n        /* \"bitlime-periphery/contracts/Safemoon.sol\":29977:29981  bool */\n      0x00\n        /* \"bitlime-periphery/contracts/Safemoon.sol\":29994:30077  _approve(_msgSender(), spender, _allowances[_msgSender()][spender].add(addedValue)) */\n      tag_200\n        /* \"bitlime-periphery/contracts/Safemoon.sol\":30003:30015  _msgSender() */\n      tag_239\n        /* \"bitlime-periphery/contracts/Safemoon.sol\":30003:30013  _msgSender */\n      tag_192\n        /* \"bitlime-periphery/contracts/Safemoon.sol\":30003:30015  _msgSender() */\n      jump\t// in\n    tag_239:\n        /* \"bitlime-periphery/contracts/Safemoon.sol\":30017:30024  spender */\n      dup5\n        /* \"bitlime-periphery/contracts/Safemoon.sol\":30026:30076  _allowances[_msgSender()][spender].add(addedValue) */\n      tag_210\n        /* \"bitlime-periphery/contracts/Safemoon.sol\":30065:30075  addedValue */\n      dup6\n        /* \"bitlime-periphery/contracts/Safemoon.sol\":30026:30037  _allowances */\n      0x05\n        /* \"bitlime-periphery/contracts/Safemoon.sol\":30026:30051  _allowances[_msgSender()] */\n      0x00\n        /* \"bitlime-periphery/contracts/Safemoon.sol\":30038:30050  _msgSender() */\n      tag_241\n        /* \"bitlime-periphery/contracts/Safemoon.sol\":30038:30048  _msgSender */\n      tag_192\n        /* \"bitlime-periphery/contracts/Safemoon.sol\":30038:30050  _msgSender() */\n      jump\t// in\n    tag_241:\n      sub(shl(0xa0, 0x01), 0x01)\n        /* \"bitlime-periphery/contracts/Safemoon.sol\":30026:30051  _allowances[_msgSender()] */\n      swap1\n      dup2\n      and\n      dup3\n      mstore\n      0x20\n      dup1\n      dup4\n      add\n      swap4\n      swap1\n      swap4\n      mstore\n      0x40\n      swap2\n      dup3\n      add\n      0x00\n      swap1\n      dup2\n      keccak256\n        /* \"bitlime-periphery/contracts/Safemoon.sol\":30026:30060  _allowances[_msgSender()][spender] */\n      swap2\n      dup13\n      and\n      dup2\n      mstore\n      swap3\n      mstore\n      swap1\n      keccak256\n      sload\n      swap1\n        /* \"bitlime-periphery/contracts/Safemoon.sol\":30026:30076  _allowances[_msgSender()][spender].add(addedValue) */\n      0xffffffff\n        /* \"bitlime-periphery/contracts/Safemoon.sol\":30026:30064  _allowances[_msgSender()][spender].add */\n      tag_242\n        /* \"bitlime-periphery/contracts/Safemoon.sol\":30026:30076  _allowances[_msgSender()][spender].add(addedValue) */\n      and\n      jump\t// in\n        /* \"bitlime-periphery/contracts/Safemoon.sol\":26865:26891  uint256 public _taxFee = 5 */\n    tag_94:\n      sload(0x0f)\n      dup2\n      jump\t// out\n        /* \"bitlime-periphery/contracts/Safemoon.sol\":30615:30992  function deliver(uint256 tAmount) public {\r... */\n    tag_98:\n        /* \"bitlime-periphery/contracts/Safemoon.sol\":30667:30681  address sender */\n      0x00\n        /* \"bitlime-periphery/contracts/Safemoon.sol\":30684:30696  _msgSender() */\n      tag_244\n        /* \"bitlime-periphery/contracts/Safemoon.sol\":30684:30694  _msgSender */\n      tag_192\n        /* \"bitlime-periphery/contracts/Safemoon.sol\":30684:30696  _msgSender() */\n      jump\t// in\n    tag_244:\n      sub(shl(0xa0, 0x01), 0x01)\n        /* \"bitlime-periphery/contracts/Safemoon.sol\":30716:30735  _isExcluded[sender] */\n      dup2\n      and\n      0x00\n      swap1\n      dup2\n      mstore\n        /* \"bitlime-periphery/contracts/Safemoon.sol\":30716:30727  _isExcluded */\n      0x07\n        /* \"bitlime-periphery/contracts/Safemoon.sol\":30716:30735  _isExcluded[sender] */\n      0x20\n      mstore\n      0x40\n      swap1\n      keccak256\n      sload\n        /* \"bitlime-periphery/contracts/Safemoon.sol\":30667:30696  address sender = _msgSender() */\n      swap1\n      swap2\n      pop\n        /* \"bitlime-periphery/contracts/Safemoon.sol\":30716:30735  _isExcluded[sender] */\n      0xff\n      and\n        /* \"bitlime-periphery/contracts/Safemoon.sol\":30715:30735  !_isExcluded[sender] */\n      iszero\n        /* \"bitlime-periphery/contracts/Safemoon.sol\":30707:30784  require(!_isExcluded[sender], \"Excluded addresses cannot call this function\") */\n      tag_245\n      jumpi\n      mload(0x40)\n      shl(0xe5, 0x461bcd)\n      dup2\n      mstore\n      0x04\n      add\n      dup1\n      dup1\n      0x20\n      add\n      dup3\n      dup2\n      sub\n      dup3\n      mstore\n      0x2c\n      dup2\n      mstore\n      0x20\n      add\n      dup1\n      data_ecefcaf5fbcf9ca6dcdb02298ba1da96f4ead317b0a4779917ecb2e5e7dc3ac4\n      0x2c\n      swap2\n      codecopy\n      0x40\n      add\n      swap2\n      pop\n      pop\n      mload(0x40)\n      dup1\n      swap2\n      sub\n      swap1\n      revert\n    tag_245:\n        /* \"bitlime-periphery/contracts/Safemoon.sol\":30796:30811  uint256 rAmount */\n      0x00\n        /* \"bitlime-periphery/contracts/Safemoon.sol\":30820:30839  _getValues(tAmount) */\n      tag_246\n        /* \"bitlime-periphery/contracts/Safemoon.sol\":30831:30838  tAmount */\n      dup4\n        /* \"bitlime-periphery/contracts/Safemoon.sol\":30820:30830  _getValues */\n      tag_247\n        /* \"bitlime-periphery/contracts/Safemoon.sol\":30820:30839  _getValues(tAmount) */\n      jump\t// in\n    tag_246:\n      pop\n      pop\n      pop\n      pop\n      sub(shl(0xa0, 0x01), 0x01)\n        /* \"bitlime-periphery/contracts/Safemoon.sol\":30868:30883  _rOwned[sender] */\n      dup5\n      and\n      0x00\n      swap1\n      dup2\n      mstore\n        /* \"bitlime-periphery/contracts/Safemoon.sol\":30868:30875  _rOwned */\n      0x03\n        /* \"bitlime-periphery/contracts/Safemoon.sol\":30868:30883  _rOwned[sender] */\n      0x20\n      mstore\n      0x40\n      swap1\n      keccak256\n      sload\n        /* \"bitlime-periphery/contracts/Safemoon.sol\":30795:30839  (uint256 rAmount,,,,,) = _getValues(tAmount) */\n      swap2\n      swap3\n      pop\n        /* \"bitlime-periphery/contracts/Safemoon.sol\":30868:30896  _rOwned[sender].sub(rAmount) */\n      tag_248\n      swap2\n        /* \"bitlime-periphery/contracts/Safemoon.sol\":30868:30883  _rOwned[sender] */\n      swap1\n      pop\n        /* \"bitlime-periphery/contracts/Safemoon.sol\":30795:30839  (uint256 rAmount,,,,,) = _getValues(tAmount) */\n      dup3\n        /* \"bitlime-periphery/contracts/Safemoon.sol\":30868:30887  _rOwned[sender].sub */\n      tag_249\n        /* \"bitlime-periphery/contracts/Safemoon.sol\":30868:30896  _rOwned[sender].sub(rAmount) */\n      jump\t// in\n    tag_248:\n      sub(shl(0xa0, 0x01), 0x01)\n        /* \"bitlime-periphery/contracts/Safemoon.sol\":30850:30865  _rOwned[sender] */\n      dup4\n      and\n      0x00\n      swap1\n      dup2\n      mstore\n        /* \"bitlime-periphery/contracts/Safemoon.sol\":30850:30857  _rOwned */\n      0x03\n        /* \"bitlime-periphery/contracts/Safemoon.sol\":30850:30865  _rOwned[sender] */\n      0x20\n      mstore\n      0x40\n      swap1\n      keccak256\n        /* \"bitlime-periphery/contracts/Safemoon.sol\":30850:30896  _rOwned[sender] = _rOwned[sender].sub(rAmount) */\n      sstore\n        /* \"bitlime-periphery/contracts/Safemoon.sol\":30917:30924  _rTotal */\n      sload(0x0a)\n        /* \"bitlime-periphery/contracts/Safemoon.sol\":30917:30937  _rTotal.sub(rAmount) */\n      tag_250\n      swap1\n        /* \"bitlime-periphery/contracts/Safemoon.sol\":30929:30936  rAmount */\n      dup3\n        /* \"bitlime-periphery/contracts/Safemoon.sol\":30917:30937  _rTotal.sub(rAmount) */\n      0xffffffff\n        /* \"bitlime-periphery/contracts/Safemoon.sol\":30917:30928  _rTotal.sub */\n      tag_249\n        /* \"bitlime-periphery/contracts/Safemoon.sol\":30917:30937  _rTotal.sub(rAmount) */\n      and\n      jump\t// in\n    tag_250:\n        /* \"bitlime-periphery/contracts/Safemoon.sol\":30907:30914  _rTotal */\n      0x0a\n        /* \"bitlime-periphery/contracts/Safemoon.sol\":30907:30937  _rTotal = _rTotal.sub(rAmount) */\n      sstore\n        /* \"bitlime-periphery/contracts/Safemoon.sol\":30961:30971  _tFeeTotal */\n      sload(0x0b)\n        /* \"bitlime-periphery/contracts/Safemoon.sol\":30961:30984  _tFeeTotal.add(tAmount) */\n      tag_251\n      swap1\n        /* \"bitlime-periphery/contracts/Safemoon.sol\":30976:30983  tAmount */\n      dup5\n        /* \"bitlime-periphery/contracts/Safemoon.sol\":30961:30984  _tFeeTotal.add(tAmount) */\n      0xffffffff\n        /* \"bitlime-periphery/contracts/Safemoon.sol\":30961:30975  _tFeeTotal.add */\n      tag_242\n        /* \"bitlime-periphery/contracts/Safemoon.sol\":30961:30984  _tFeeTotal.add(tAmount) */\n      and\n      jump\t// in\n    tag_251:\n        /* \"bitlime-periphery/contracts/Safemoon.sol\":30948:30958  _tFeeTotal */\n      0x0b\n        /* \"bitlime-periphery/contracts/Safemoon.sol\":30948:30984  _tFeeTotal = _tFeeTotal.add(tAmount) */\n      sstore\n      pop\n      pop\n      pop\n        /* \"bitlime-periphery/contracts/Safemoon.sol\":30615:30992  function deliver(uint256 tAmount) public {\r... */\n      jump\t// out\n        /* \"bitlime-periphery/contracts/Safemoon.sol\":33307:33418  function excludeFromFee(address account) public onlyOwner {\r... */\n    tag_102:\n        /* \"bitlime-periphery/contracts/Safemoon.sol\":16266:16278  _msgSender() */\n      tag_253\n        /* \"bitlime-periphery/contracts/Safemoon.sol\":16266:16276  _msgSender */\n      tag_192\n        /* \"bitlime-periphery/contracts/Safemoon.sol\":16266:16278  _msgSender() */\n      jump\t// in\n    tag_253:\n        /* \"bitlime-periphery/contracts/Safemoon.sol\":16256:16262  _owner */\n      sload(0x00)\n      sub(shl(0xa0, 0x01), 0x01)\n      swap1\n      dup2\n      and\n        /* \"bitlime-periphery/contracts/Safemoon.sol\":16256:16278  _owner == _msgSender() */\n      swap2\n      and\n      eq\n        /* \"bitlime-periphery/contracts/Safemoon.sol\":16248:16315  require(_owner == _msgSender(), \"Ownable: caller is not the owner\") */\n      tag_254\n      jumpi\n      0x40\n      dup1\n      mload\n      shl(0xe5, 0x461bcd)\n      dup2\n      mstore\n      0x20\n      0x04\n      dup3\n      add\n      dup2\n      swap1\n      mstore\n      0x24\n      dup3\n      add\n      mstore\n      0x00\n      dup1\n      mload\n      0x20\n      data_9924ebdf1add33d25d4ef888e16131f0a5687b0580a36c21b5c301a6c462effe\n      dup4\n      codecopy\n      dup2\n      mload\n      swap2\n      mstore\n      0x44\n      dup3\n      add\n      mstore\n      swap1\n      mload\n      swap1\n      dup2\n      swap1\n      sub\n      0x64\n      add\n      swap1\n      revert\n    tag_254:\n      sub(shl(0xa0, 0x01), 0x01)\n        /* \"bitlime-periphery/contracts/Safemoon.sol\":33376:33403  _isExcludedFromFee[account] */\n      and\n      0x00\n      swap1\n      dup2\n      mstore\n        /* \"bitlime-periphery/contracts/Safemoon.sol\":33376:33394  _isExcludedFromFee */\n      0x06\n        /* \"bitlime-periphery/contracts/Safemoon.sol\":33376:33403  _isExcludedFromFee[account] */\n      0x20\n      mstore\n      0x40\n      swap1\n      keccak256\n        /* \"bitlime-periphery/contracts/Safemoon.sol\":33376:33410  _isExcludedFromFee[account] = true */\n      dup1\n      sload\n      not(0xff)\n      and\n        /* \"bitlime-periphery/contracts/Safemoon.sol\":33406:33410  true */\n      0x01\n        /* \"bitlime-periphery/contracts/Safemoon.sol\":33376:33410  _isExcludedFromFee[account] = true */\n      or\n      swap1\n      sstore\n        /* \"bitlime-periphery/contracts/Safemoon.sol\":33307:33418  function excludeFromFee(address account) public onlyOwner {\r... */\n      jump\t// out\n        /* \"bitlime-periphery/contracts/Safemoon.sol\":31000:31436  function reflectionFromToken(uint256 tAmount, bool deductTransferFee) public view returns(uint256) {\r... */\n    tag_106:\n        /* \"bitlime-periphery/contracts/Safemoon.sol\":31090:31097  uint256 */\n      0x00\n        /* \"bitlime-periphery/contracts/Safemoon.sol\":31129:31136  _tTotal */\n      sload(0x09)\n        /* \"bitlime-periphery/contracts/Safemoon.sol\":31118:31125  tAmount */\n      dup4\n        /* \"bitlime-periphery/contracts/Safemoon.sol\":31118:31136  tAmount <= _tTotal */\n      gt\n      iszero\n        /* \"bitlime-periphery/contracts/Safemoon.sol\":31110:31172  require(tAmount <= _tTotal, \"Amount must be less than supply\") */\n      tag_257\n      jumpi\n      0x40\n      dup1\n      mload\n      shl(0xe5, 0x461bcd)\n      dup2\n      mstore\n      0x20\n      0x04\n      dup3\n      add\n      mstore\n      0x1f\n      0x24\n      dup3\n      add\n      mstore\n      0x416d6f756e74206d757374206265206c657373207468616e20737570706c7900\n      0x44\n      dup3\n      add\n      mstore\n      swap1\n      mload\n      swap1\n      dup2\n      swap1\n      sub\n      0x64\n      add\n      swap1\n      revert\n    tag_257:\n        /* \"bitlime-periphery/contracts/Safemoon.sol\":31188:31205  deductTransferFee */\n      dup2\n        /* \"bitlime-periphery/contracts/Safemoon.sol\":31183:31429  if (!deductTransferFee) {\r... */\n      tag_258\n      jumpi\n        /* \"bitlime-periphery/contracts/Safemoon.sol\":31223:31238  uint256 rAmount */\n      0x00\n        /* \"bitlime-periphery/contracts/Safemoon.sol\":31247:31266  _getValues(tAmount) */\n      tag_259\n        /* \"bitlime-periphery/contracts/Safemoon.sol\":31258:31265  tAmount */\n      dup5\n        /* \"bitlime-periphery/contracts/Safemoon.sol\":31247:31257  _getValues */\n      tag_247\n        /* \"bitlime-periphery/contracts/Safemoon.sol\":31247:31266  _getValues(tAmount) */\n      jump\t// in\n    tag_259:\n      pop\n        /* \"bitlime-periphery/contracts/Safemoon.sol\":31222:31266  (uint256 rAmount,,,,,) = _getValues(tAmount) */\n      swap4\n      swap6\n      pop\n        /* \"bitlime-periphery/contracts/Safemoon.sol\":31281:31295  return rAmount */\n      tag_199\n      swap5\n      pop\n      pop\n      pop\n      pop\n      pop\n      jump\n        /* \"bitlime-periphery/contracts/Safemoon.sol\":31183:31429  if (!deductTransferFee) {\r... */\n    tag_258:\n        /* \"bitlime-periphery/contracts/Safemoon.sol\":31330:31353  uint256 rTransferAmount */\n      0x00\n        /* \"bitlime-periphery/contracts/Safemoon.sol\":31361:31380  _getValues(tAmount) */\n      tag_261\n        /* \"bitlime-periphery/contracts/Safemoon.sol\":31372:31379  tAmount */\n      dup5\n        /* \"bitlime-periphery/contracts/Safemoon.sol\":31361:31371  _getValues */\n      tag_247\n        /* \"bitlime-periphery/contracts/Safemoon.sol\":31361:31380  _getValues(tAmount) */\n      jump\t// in\n    tag_261:\n      pop\n        /* \"bitlime-periphery/contracts/Safemoon.sol\":31328:31380  (,uint256 rTransferAmount,,,,) = _getValues(tAmount) */\n      swap3\n      swap6\n      pop\n        /* \"bitlime-periphery/contracts/Safemoon.sol\":31395:31417  return rTransferAmount */\n      tag_199\n      swap5\n      pop\n      pop\n      pop\n      pop\n      pop\n      jump\n        /* \"bitlime-periphery/contracts/Safemoon.sol\":27111:27149  address public immutable uniswapV2Pair */\n    tag_109:\n      immutable(\"0x3420243e987a0dddfaa7d77b227cced5f6bc741ff3ff5461051f619ef3b8b7b2\")\n      dup2\n      jump\t// out\n        /* \"bitlime-periphery/contracts/Safemoon.sol\":27190:27230  bool public swapAndLiquifyEnabled = true */\n    tag_112:\n      sload(0x13)\n      0x0100\n      swap1\n      div\n      0xff\n      and\n      dup2\n      jump\t// out\n        /* \"bitlime-periphery/contracts/Safemoon.sol\":31705:32152  function excludeFromReward(address account) public onlyOwner() {\r... */\n    tag_116:\n        /* \"bitlime-periphery/contracts/Safemoon.sol\":16266:16278  _msgSender() */\n      tag_263\n        /* \"bitlime-periphery/contracts/Safemoon.sol\":16266:16276  _msgSender */\n      tag_192\n        /* \"bitlime-periphery/contracts/Safemoon.sol\":16266:16278  _msgSender() */\n      jump\t// in\n    tag_263:\n        /* \"bitlime-periphery/contracts/Safemoon.sol\":16256:16262  _owner */\n      sload(0x00)\n      sub(shl(0xa0, 0x01), 0x01)\n      swap1\n      dup2\n      and\n        /* \"bitlime-periphery/contracts/Safemoon.sol\":16256:16278  _owner == _msgSender() */\n      swap2\n      and\n      eq\n        /* \"bitlime-periphery/contracts/Safemoon.sol\":16248:16315  require(_owner == _msgSender(), \"Ownable: caller is not the owner\") */\n      tag_264\n      jumpi\n      0x40\n      dup1\n      mload\n      shl(0xe5, 0x461bcd)\n      dup2\n      mstore\n      0x20\n      0x04\n      dup3\n      add\n      dup2\n      swap1\n      mstore\n      0x24\n      dup3\n      add\n      mstore\n      0x00\n      dup1\n      mload\n      0x20\n      data_9924ebdf1add33d25d4ef888e16131f0a5687b0580a36c21b5c301a6c462effe\n      dup4\n      codecopy\n      dup2\n      mload\n      swap2\n      mstore\n      0x44\n      dup3\n      add\n      mstore\n      swap1\n      mload\n      swap1\n      dup2\n      swap1\n      sub\n      0x64\n      add\n      swap1\n      revert\n    tag_264:\n      sub(shl(0xa0, 0x01), 0x01)\n        /* \"bitlime-periphery/contracts/Safemoon.sol\":31902:31922  _isExcluded[account] */\n      dup2\n      and\n      0x00\n      swap1\n      dup2\n      mstore\n        /* \"bitlime-periphery/contracts/Safemoon.sol\":31902:31913  _isExcluded */\n      0x07\n        /* \"bitlime-periphery/contracts/Safemoon.sol\":31902:31922  _isExcluded[account] */\n      0x20\n      mstore\n      0x40\n      swap1\n      keccak256\n      sload\n      0xff\n      and\n        /* \"bitlime-periphery/contracts/Safemoon.sol\":31901:31922  !_isExcluded[account] */\n      iszero\n        /* \"bitlime-periphery/contracts/Safemoon.sol\":31893:31954  require(!_isExcluded[account], \"Account is already excluded\") */\n      tag_266\n      jumpi\n      0x40\n      dup1\n      mload\n      shl(0xe5, 0x461bcd)\n      dup2\n      mstore\n      0x20\n      0x04\n      dup3\n      add\n      mstore\n      0x1b\n      0x24\n      dup3\n      add\n      mstore\n      0x4163636f756e7420697320616c7265616479206578636c756465640000000000\n      0x44\n      dup3\n      add\n      mstore\n      swap1\n      mload\n      swap1\n      dup2\n      swap1\n      sub\n      0x64\n      add\n      swap1\n      revert\n    tag_266:\n      sub(shl(0xa0, 0x01), 0x01)\n        /* \"bitlime-periphery/contracts/Safemoon.sol\":31968:31984  _rOwned[account] */\n      dup2\n      and\n        /* \"bitlime-periphery/contracts/Safemoon.sol\":31987:31988  0 */\n      0x00\n        /* \"bitlime-periphery/contracts/Safemoon.sol\":31968:31984  _rOwned[account] */\n      swap1\n      dup2\n      mstore\n        /* \"bitlime-periphery/contracts/Safemoon.sol\":31968:31975  _rOwned */\n      0x03\n        /* \"bitlime-periphery/contracts/Safemoon.sol\":31968:31984  _rOwned[account] */\n      0x20\n      mstore\n      0x40\n      swap1\n      keccak256\n      sload\n        /* \"bitlime-periphery/contracts/Safemoon.sol\":31968:31988  _rOwned[account] > 0 */\n      iszero\n        /* \"bitlime-periphery/contracts/Safemoon.sol\":31965:32073  if(_rOwned[account] > 0) {\r... */\n      tag_267\n      jumpi\n      sub(shl(0xa0, 0x01), 0x01)\n        /* \"bitlime-periphery/contracts/Safemoon.sol\":32044:32060  _rOwned[account] */\n      dup2\n      and\n      0x00\n      swap1\n      dup2\n      mstore\n        /* \"bitlime-periphery/contracts/Safemoon.sol\":32044:32051  _rOwned */\n      0x03\n        /* \"bitlime-periphery/contracts/Safemoon.sol\":32044:32060  _rOwned[account] */\n      0x20\n      mstore\n      0x40\n      swap1\n      keccak256\n      sload\n        /* \"bitlime-periphery/contracts/Safemoon.sol\":32024:32061  tokenFromReflection(_rOwned[account]) */\n      tag_268\n      swap1\n        /* \"bitlime-periphery/contracts/Safemoon.sol\":32024:32043  tokenFromReflection */\n      tag_80\n        /* \"bitlime-periphery/contracts/Safemoon.sol\":32024:32061  tokenFromReflection(_rOwned[account]) */\n      jump\t// in\n    tag_268:\n      sub(shl(0xa0, 0x01), 0x01)\n        /* \"bitlime-periphery/contracts/Safemoon.sol\":32005:32021  _tOwned[account] */\n      dup3\n      and\n      0x00\n      swap1\n      dup2\n      mstore\n        /* \"bitlime-periphery/contracts/Safemoon.sol\":32005:32012  _tOwned */\n      0x04\n        /* \"bitlime-periphery/contracts/Safemoon.sol\":32005:32021  _tOwned[account] */\n      0x20\n      mstore\n      0x40\n      swap1\n      keccak256\n        /* \"bitlime-periphery/contracts/Safemoon.sol\":32005:32061  _tOwned[account] = tokenFromReflection(_rOwned[account]) */\n      sstore\n        /* \"bitlime-periphery/contracts/Safemoon.sol\":31965:32073  if(_rOwned[account] > 0) {\r... */\n    tag_267:\n      sub(shl(0xa0, 0x01), 0x01)\n        /* \"bitlime-periphery/contracts/Safemoon.sol\":32083:32103  _isExcluded[account] */\n      and\n      0x00\n      dup2\n      dup2\n      mstore\n        /* \"bitlime-periphery/contracts/Safemoon.sol\":32083:32094  _isExcluded */\n      0x07\n        /* \"bitlime-periphery/contracts/Safemoon.sol\":32083:32103  _isExcluded[account] */\n      0x20\n      mstore\n      0x40\n      dup2\n      keccak256\n        /* \"bitlime-periphery/contracts/Safemoon.sol\":32083:32110  _isExcluded[account] = true */\n      dup1\n      sload\n      not(0xff)\n      and\n        /* \"bitlime-periphery/contracts/Safemoon.sol\":32106:32110  true */\n      0x01\n        /* \"bitlime-periphery/contracts/Safemoon.sol\":32083:32110  _isExcluded[account] = true */\n      swap1\n      dup2\n      or\n      swap1\n      swap2\n      sstore\n        /* \"bitlime-periphery/contracts/Safemoon.sol\":32121:32130  _excluded */\n      0x08\n        /* \"--CODEGEN--\":27:37   */\n      dup1\n      sload\n        /* \"--CODEGEN--\":23:41   */\n      swap2\n      dup3\n      add\n        /* \"--CODEGEN--\":45:68   */\n      dup2\n      sstore\n        /* \"bitlime-periphery/contracts/Safemoon.sol\":32121:32144  _excluded.push(account) */\n      swap1\n      swap2\n      mstore\n      0xf3f7a9fe364faab93b216da50a3214154f22a0a2b415b23a84c8169e8b636ee3\n      add\n      dup1\n      sload\n      not(sub(shl(0xa0, 0x01), 0x01))\n      and\n      swap1\n      swap2\n      or\n      swap1\n      sstore\n        /* \"bitlime-periphery/contracts/Safemoon.sol\":31705:32152  function excludeFromReward(address account) public onlyOwner() {\r... */\n      jump\t// out\n        /* \"bitlime-periphery/contracts/Safemoon.sol\":37449:37572  function isExcludedFromFee(address account) public view returns(bool) {\r... */\n    tag_120:\n      sub(shl(0xa0, 0x01), 0x01)\n        /* \"bitlime-periphery/contracts/Safemoon.sol\":37537:37564  _isExcludedFromFee[account] */\n      and\n        /* \"bitlime-periphery/contracts/Safemoon.sol\":37513:37517  bool */\n      0x00\n        /* \"bitlime-periphery/contracts/Safemoon.sol\":37537:37564  _isExcludedFromFee[account] */\n      swap1\n      dup2\n      mstore\n        /* \"bitlime-periphery/contracts/Safemoon.sol\":37537:37555  _isExcludedFromFee */\n      0x06\n        /* \"bitlime-periphery/contracts/Safemoon.sol\":37537:37564  _isExcludedFromFee[account] */\n      0x20\n      mstore\n      0x40\n      swap1\n      keccak256\n      sload\n      0xff\n      and\n      swap1\n        /* \"bitlime-periphery/contracts/Safemoon.sol\":37449:37572  function isExcludedFromFee(address account) public view returns(bool) {\r... */\n      jump\t// out\n        /* \"bitlime-periphery/contracts/Safemoon.sol\":26952:26984  uint256 public _liquidityFee = 5 */\n    tag_123:\n      sload(0x11)\n      dup2\n      jump\t// out\n        /* \"bitlime-periphery/contracts/Safemoon.sol\":28867:29065  function balanceOf(address account) public view override returns (uint256) {\r... */\n    tag_127:\n      sub(shl(0xa0, 0x01), 0x01)\n        /* \"bitlime-periphery/contracts/Safemoon.sol\":28957:28977  _isExcluded[account] */\n      dup2\n      and\n        /* \"bitlime-periphery/contracts/Safemoon.sol\":28933:28940  uint256 */\n      0x00\n        /* \"bitlime-periphery/contracts/Safemoon.sol\":28957:28977  _isExcluded[account] */\n      swap1\n      dup2\n      mstore\n        /* \"bitlime-periphery/contracts/Safemoon.sol\":28957:28968  _isExcluded */\n      0x07\n        /* \"bitlime-periphery/contracts/Safemoon.sol\":28957:28977  _isExcluded[account] */\n      0x20\n      mstore\n      0x40\n      dup2\n      keccak256\n      sload\n      0xff\n      and\n        /* \"bitlime-periphery/contracts/Safemoon.sol\":28953:29002  if (_isExcluded[account]) return _tOwned[account] */\n      iszero\n      tag_272\n      jumpi\n      pop\n      sub(shl(0xa0, 0x01), 0x01)\n        /* \"bitlime-periphery/contracts/Safemoon.sol\":28986:29002  _tOwned[account] */\n      dup2\n      and\n      0x00\n      swap1\n      dup2\n      mstore\n        /* \"bitlime-periphery/contracts/Safemoon.sol\":28986:28993  _tOwned */\n      0x04\n        /* \"bitlime-periphery/contracts/Safemoon.sol\":28986:29002  _tOwned[account] */\n      0x20\n      mstore\n      0x40\n      swap1\n      keccak256\n      sload\n        /* \"bitlime-periphery/contracts/Safemoon.sol\":28979:29002  return _tOwned[account] */\n      jump(tag_213)\n        /* \"bitlime-periphery/contracts/Safemoon.sol\":28953:29002  if (_isExcluded[account]) return _tOwned[account] */\n    tag_272:\n      sub(shl(0xa0, 0x01), 0x01)\n        /* \"bitlime-periphery/contracts/Safemoon.sol\":29040:29056  _rOwned[account] */\n      dup3\n      and\n      0x00\n      swap1\n      dup2\n      mstore\n        /* \"bitlime-periphery/contracts/Safemoon.sol\":29040:29047  _rOwned */\n      0x03\n        /* \"bitlime-periphery/contracts/Safemoon.sol\":29040:29056  _rOwned[account] */\n      0x20\n      mstore\n      0x40\n      swap1\n      keccak256\n      sload\n        /* \"bitlime-periphery/contracts/Safemoon.sol\":29020:29057  tokenFromReflection(_rOwned[account]) */\n      tag_199\n      swap1\n        /* \"bitlime-periphery/contracts/Safemoon.sol\":29020:29039  tokenFromReflection */\n      tag_80\n        /* \"bitlime-periphery/contracts/Safemoon.sol\":29020:29057  tokenFromReflection(_rOwned[account]) */\n      jump\t// in\n        /* \"bitlime-periphery/contracts/Safemoon.sol\":16687:16835  function renounceOwnership() public virtual onlyOwner {\r... */\n    tag_130:\n        /* \"bitlime-periphery/contracts/Safemoon.sol\":16266:16278  _msgSender() */\n      tag_275\n        /* \"bitlime-periphery/contracts/Safemoon.sol\":16266:16276  _msgSender */\n      tag_192\n        /* \"bitlime-periphery/contracts/Safemoon.sol\":16266:16278  _msgSender() */\n      jump\t// in\n    tag_275:\n        /* \"bitlime-periphery/contracts/Safemoon.sol\":16256:16262  _owner */\n      sload(0x00)\n      sub(shl(0xa0, 0x01), 0x01)\n      swap1\n      dup2\n      and\n        /* \"bitlime-periphery/contracts/Safemoon.sol\":16256:16278  _owner == _msgSender() */\n      swap2\n      and\n      eq\n        /* \"bitlime-periphery/contracts/Safemoon.sol\":16248:16315  require(_owner == _msgSender(), \"Ownable: caller is not the owner\") */\n      tag_276\n      jumpi\n      0x40\n      dup1\n      mload\n      shl(0xe5, 0x461bcd)\n      dup2\n      mstore\n      0x20\n      0x04\n      dup3\n      add\n      dup2\n      swap1\n      mstore\n      0x24\n      dup3\n      add\n      mstore\n      0x00\n      dup1\n      mload\n      0x20\n      data_9924ebdf1add33d25d4ef888e16131f0a5687b0580a36c21b5c301a6c462effe\n      dup4\n      codecopy\n      dup2\n      mload\n      swap2\n      mstore\n      0x44\n      dup3\n      add\n      mstore\n      swap1\n      mload\n      swap1\n      dup2\n      swap1\n      sub\n      0x64\n      add\n      swap1\n      revert\n    tag_276:\n        /* \"bitlime-periphery/contracts/Safemoon.sol\":16794:16795  0 */\n      0x00\n        /* \"bitlime-periphery/contracts/Safemoon.sol\":16778:16784  _owner */\n      dup1\n      sload\n        /* \"bitlime-periphery/contracts/Safemoon.sol\":16757:16797  OwnershipTransferred(_owner, address(0)) */\n      mload(0x40)\n      sub(shl(0xa0, 0x01), 0x01)\n        /* \"bitlime-periphery/contracts/Safemoon.sol\":16778:16784  _owner */\n      swap1\n      swap2\n      and\n      swap1\n      0x00\n      dup1\n      mload\n      0x20\n      data_9c064737b570a74c2bac5d21056d93ac53115214216cd14d4a0fc9b60be81231\n      dup4\n      codecopy\n      dup2\n      mload\n      swap2\n      mstore\n        /* \"bitlime-periphery/contracts/Safemoon.sol\":16757:16797  OwnershipTransferred(_owner, address(0)) */\n      swap1\n        /* \"bitlime-periphery/contracts/Safemoon.sol\":16794:16795  0 */\n      dup4\n      swap1\n        /* \"bitlime-periphery/contracts/Safemoon.sol\":16757:16797  OwnershipTransferred(_owner, address(0)) */\n      log3\n        /* \"bitlime-periphery/contracts/Safemoon.sol\":16825:16826  0 */\n      0x00\n        /* \"bitlime-periphery/contracts/Safemoon.sol\":16808:16827  _owner = address(0) */\n      dup1\n      sload\n      not(sub(shl(0xa0, 0x01), 0x01))\n      and\n      swap1\n      sstore\n        /* \"bitlime-periphery/contracts/Safemoon.sol\":16687:16835  function renounceOwnership() public virtual onlyOwner {\r... */\n      jump\t// out\n        /* \"bitlime-periphery/contracts/Safemoon.sol\":27243:27296  uint256 public _maxTxAmount = 5000000 * 10**6 * 10**9 */\n    tag_133:\n      sload(0x14)\n      dup2\n      jump\t// out\n        /* \"bitlime-periphery/contracts/Safemoon.sol\":30392:30512  function isExcludedFromReward(address account) public view returns (bool) {\r... */\n    tag_137:\n      sub(shl(0xa0, 0x01), 0x01)\n        /* \"bitlime-periphery/contracts/Safemoon.sol\":30484:30504  _isExcluded[account] */\n      and\n        /* \"bitlime-periphery/contracts/Safemoon.sol\":30460:30464  bool */\n      0x00\n        /* \"bitlime-periphery/contracts/Safemoon.sol\":30484:30504  _isExcluded[account] */\n      swap1\n      dup2\n      mstore\n        /* \"bitlime-periphery/contracts/Safemoon.sol\":30484:30495  _isExcluded */\n      0x07\n        /* \"bitlime-periphery/contracts/Safemoon.sol\":30484:30504  _isExcluded[account] */\n      0x20\n      mstore\n      0x40\n      swap1\n      keccak256\n      sload\n      0xff\n      and\n      swap1\n        /* \"bitlime-periphery/contracts/Safemoon.sol\":30392:30512  function isExcludedFromReward(address account) public view returns (bool) {\r... */\n      jump\t// out\n        /* \"bitlime-periphery/contracts/Safemoon.sol\":16044:16123  function owner() public view returns (address) {\r... */\n    tag_140:\n        /* \"bitlime-periphery/contracts/Safemoon.sol\":16082:16089  address */\n      0x00\n        /* \"bitlime-periphery/contracts/Safemoon.sol\":16109:16115  _owner */\n      sload\n      sub(shl(0xa0, 0x01), 0x01)\n      and\n        /* \"bitlime-periphery/contracts/Safemoon.sol\":16044:16123  function owner() public view returns (address) {\r... */\n      swap1\n      jump\t// out\n        /* \"bitlime-periphery/contracts/Safemoon.sol\":33662:33784  function setLiquidityFeePercent(uint256 liquidityFee) external onlyOwner() {\r... */\n    tag_144:\n        /* \"bitlime-periphery/contracts/Safemoon.sol\":16266:16278  _msgSender() */\n      tag_281\n        /* \"bitlime-periphery/contracts/Safemoon.sol\":16266:16276  _msgSender */\n      tag_192\n        /* \"bitlime-periphery/contracts/Safemoon.sol\":16266:16278  _msgSender() */\n      jump\t// in\n    tag_281:\n        /* \"bitlime-periphery/contracts/Safemoon.sol\":16256:16262  _owner */\n      sload(0x00)\n      sub(shl(0xa0, 0x01), 0x01)\n      swap1\n      dup2\n      and\n        /* \"bitlime-periphery/contracts/Safemoon.sol\":16256:16278  _owner == _msgSender() */\n      swap2\n      and\n      eq\n        /* \"bitlime-periphery/contracts/Safemoon.sol\":16248:16315  require(_owner == _msgSender(), \"Ownable: caller is not the owner\") */\n      tag_282\n      jumpi\n      0x40\n      dup1\n      mload\n      shl(0xe5, 0x461bcd)\n      dup2\n      mstore\n      0x20\n      0x04\n      dup3\n      add\n      dup2\n      swap1\n      mstore\n      0x24\n      dup3\n      add\n      mstore\n      0x00\n      dup1\n      mload\n      0x20\n      data_9924ebdf1add33d25d4ef888e16131f0a5687b0580a36c21b5c301a6c462effe\n      dup4\n      codecopy\n      dup2\n      mload\n      swap2\n      mstore\n      0x44\n      dup3\n      add\n      mstore\n      swap1\n      mload\n      swap1\n      dup2\n      swap1\n      sub\n      0x64\n      add\n      swap1\n      revert\n    tag_282:\n        /* \"bitlime-periphery/contracts/Safemoon.sol\":33748:33761  _liquidityFee */\n      0x11\n        /* \"bitlime-periphery/contracts/Safemoon.sol\":33748:33776  _liquidityFee = liquidityFee */\n      sstore\n        /* \"bitlime-periphery/contracts/Safemoon.sol\":33662:33784  function setLiquidityFeePercent(uint256 liquidityFee) external onlyOwner() {\r... */\n      jump\t// out\n        /* \"bitlime-periphery/contracts/Safemoon.sol\":28578:28665  function symbol() public view returns (string memory) {\r... */\n    tag_147:\n        /* \"bitlime-periphery/contracts/Safemoon.sol\":28650:28657  _symbol */\n      0x0d\n        /* \"bitlime-periphery/contracts/Safemoon.sol\":28643:28657  return _symbol */\n      dup1\n      sload\n      0x40\n      dup1\n      mload\n      0x20\n      0x1f\n      0x02\n      not(0x00)\n      0x0100\n      0x01\n      dup9\n      and\n      iszero\n      mul\n      add\n      swap1\n      swap6\n      and\n      swap5\n      swap1\n      swap5\n      div\n      swap4\n      dup5\n      add\n      dup2\n      swap1\n      div\n      dup2\n      mul\n      dup3\n      add\n      dup2\n      add\n      swap1\n      swap3\n      mstore\n      dup3\n      dup2\n      mstore\n        /* \"bitlime-periphery/contracts/Safemoon.sol\":28617:28630  string memory */\n      0x60\n      swap4\n        /* \"bitlime-periphery/contracts/Safemoon.sol\":28643:28657  return _symbol */\n      swap1\n      swap3\n        /* \"bitlime-periphery/contracts/Safemoon.sol\":28650:28657  _symbol */\n      swap1\n      swap2\n        /* \"bitlime-periphery/contracts/Safemoon.sol\":28643:28657  return _symbol */\n      dup4\n      add\n        /* \"bitlime-periphery/contracts/Safemoon.sol\":28650:28657  _symbol */\n      dup3\n        /* \"bitlime-periphery/contracts/Safemoon.sol\":28643:28657  return _symbol */\n      dup3\n      dup1\n      iszero\n      tag_196\n      jumpi\n      dup1\n      0x1f\n      lt\n      tag_197\n      jumpi\n      0x0100\n      dup1\n      dup4\n      sload\n      div\n      mul\n      dup4\n      mstore\n      swap2\n      0x20\n      add\n      swap2\n      jump(tag_196)\n        /* \"bitlime-periphery/contracts/Safemoon.sol\":30115:30384  function decreaseAllowance(address spender, uint256 subtractedValue) public virtual returns (bool) {\r... */\n    tag_155:\n        /* \"bitlime-periphery/contracts/Safemoon.sol\":30208:30212  bool */\n      0x00\n        /* \"bitlime-periphery/contracts/Safemoon.sol\":30225:30354  _approve(_msgSender(), spender, _allowances[_msgSender()][spender].sub(subtractedValue, \"ERC20: decreased allowance below zero\")) */\n      tag_200\n        /* \"bitlime-periphery/contracts/Safemoon.sol\":30234:30246  _msgSender() */\n      tag_290\n        /* \"bitlime-periphery/contracts/Safemoon.sol\":30234:30244  _msgSender */\n      tag_192\n        /* \"bitlime-periphery/contracts/Safemoon.sol\":30234:30246  _msgSender() */\n      jump\t// in\n    tag_290:\n        /* \"bitlime-periphery/contracts/Safemoon.sol\":30248:30255  spender */\n      dup5\n        /* \"bitlime-periphery/contracts/Safemoon.sol\":30257:30353  _allowances[_msgSender()][spender].sub(subtractedValue, \"ERC20: decreased allowance below zero\") */\n      tag_210\n        /* \"bitlime-periphery/contracts/Safemoon.sol\":30296:30311  subtractedValue */\n      dup6\n        /* \"bitlime-periphery/contracts/Safemoon.sol\":30257:30353  _allowances[_msgSender()][spender].sub(subtractedValue, \"ERC20: decreased allowance below zero\") */\n      mload(0x40)\n      dup1\n      0x60\n      add\n      0x40\n      mstore\n      dup1\n      0x25\n      dup2\n      mstore\n      0x20\n      add\n      data_f8b476f7d28209d77d4a4ac1fe36b9f8259aa1bb6bddfa6e89de7e51615cf8a8\n      0x25\n      swap2\n      codecopy\n        /* \"bitlime-periphery/contracts/Safemoon.sol\":30257:30268  _allowances */\n      0x05\n        /* \"bitlime-periphery/contracts/Safemoon.sol\":30257:30282  _allowances[_msgSender()] */\n      0x00\n        /* \"bitlime-periphery/contracts/Safemoon.sol\":30269:30281  _msgSender() */\n      tag_292\n        /* \"bitlime-periphery/contracts/Safemoon.sol\":30269:30279  _msgSender */\n      tag_192\n        /* \"bitlime-periphery/contracts/Safemoon.sol\":30269:30281  _msgSender() */\n      jump\t// in\n    tag_292:\n      sub(shl(0xa0, 0x01), 0x01)\n        /* \"bitlime-periphery/contracts/Safemoon.sol\":30257:30282  _allowances[_msgSender()] */\n      swap1\n      dup2\n      and\n      dup3\n      mstore\n      0x20\n      dup1\n      dup4\n      add\n      swap4\n      swap1\n      swap4\n      mstore\n      0x40\n      swap2\n      dup3\n      add\n      0x00\n      swap1\n      dup2\n      keccak256\n        /* \"bitlime-periphery/contracts/Safemoon.sol\":30257:30291  _allowances[_msgSender()][spender] */\n      swap2\n      dup14\n      and\n      dup2\n      mstore\n      swap3\n      mstore\n      swap1\n      keccak256\n      sload\n      swap2\n        /* \"bitlime-periphery/contracts/Safemoon.sol\":30257:30353  _allowances[_msgSender()][spender].sub(subtractedValue, \"ERC20: decreased allowance below zero\") */\n      swap1\n      0xffffffff\n        /* \"bitlime-periphery/contracts/Safemoon.sol\":30257:30295  _allowances[_msgSender()][spender].sub */\n      tag_212\n        /* \"bitlime-periphery/contracts/Safemoon.sol\":30257:30353  _allowances[_msgSender()][spender].sub(subtractedValue, \"ERC20: decreased allowance below zero\") */\n      and\n      jump\t// in\n        /* \"bitlime-periphery/contracts/Safemoon.sol\":17697:17990  function unlock() public virtual {\r... */\n    tag_158:\n        /* \"bitlime-periphery/contracts/Safemoon.sol\":17749:17763  _previousOwner */\n      and(sub(shl(0xa0, 0x01), 0x01), sload(0x01))\n        /* \"bitlime-periphery/contracts/Safemoon.sol\":17767:17777  msg.sender */\n      caller\n        /* \"bitlime-periphery/contracts/Safemoon.sol\":17749:17777  _previousOwner == msg.sender */\n      eq\n        /* \"bitlime-periphery/contracts/Safemoon.sol\":17741:17817  require(_previousOwner == msg.sender, \"You don't have permission to unlock\") */\n      tag_294\n      jumpi\n      mload(0x40)\n      shl(0xe5, 0x461bcd)\n      dup2\n      mstore\n      0x04\n      add\n      dup1\n      dup1\n      0x20\n      add\n      dup3\n      dup2\n      sub\n      dup3\n      mstore\n      0x23\n      dup2\n      mstore\n      0x20\n      add\n      dup1\n      data_f4eb59be3df39931213d374c3658377dca3f0d2b46b7bc965af767c57c74b611\n      0x23\n      swap2\n      codecopy\n      0x40\n      add\n      swap2\n      pop\n      pop\n      mload(0x40)\n      dup1\n      swap2\n      sub\n      swap1\n      revert\n    tag_294:\n        /* \"bitlime-periphery/contracts/Safemoon.sol\":17842:17851  _lockTime */\n      sload(0x02)\n        /* \"bitlime-periphery/contracts/Safemoon.sol\":17836:17839  now */\n      timestamp\n        /* \"bitlime-periphery/contracts/Safemoon.sol\":17836:17851  now > _lockTime */\n      gt\n        /* \"bitlime-periphery/contracts/Safemoon.sol\":17828:17888  require(now > _lockTime , \"Contract is locked until 7 days\") */\n      tag_295\n      jumpi\n      0x40\n      dup1\n      mload\n      shl(0xe5, 0x461bcd)\n      dup2\n      mstore\n      0x20\n      0x04\n      dup3\n      add\n      mstore\n      0x1f\n      0x24\n      dup3\n      add\n      mstore\n      0x436f6e7472616374206973206c6f636b656420756e74696c2037206461797300\n      0x44\n      dup3\n      add\n      mstore\n      swap1\n      mload\n      swap1\n      dup2\n      swap1\n      sub\n      0x64\n      add\n      swap1\n      revert\n    tag_295:\n        /* \"bitlime-periphery/contracts/Safemoon.sol\":17933:17947  _previousOwner */\n      sload(0x01)\n      0x00\n        /* \"bitlime-periphery/contracts/Safemoon.sol\":17925:17931  _owner */\n      dup1\n      sload\n        /* \"bitlime-periphery/contracts/Safemoon.sol\":17904:17948  OwnershipTransferred(_owner, _previousOwner) */\n      mload(0x40)\n      sub(shl(0xa0, 0x01), 0x01)\n        /* \"bitlime-periphery/contracts/Safemoon.sol\":17933:17947  _previousOwner */\n      swap4\n      dup5\n      and\n      swap4\n        /* \"bitlime-periphery/contracts/Safemoon.sol\":17925:17931  _owner */\n      swap1\n      swap2\n      and\n      swap2\n      0x00\n      dup1\n      mload\n      0x20\n      data_9c064737b570a74c2bac5d21056d93ac53115214216cd14d4a0fc9b60be81231\n      dup4\n      codecopy\n      dup2\n      mload\n      swap2\n      mstore\n        /* \"bitlime-periphery/contracts/Safemoon.sol\":17904:17948  OwnershipTransferred(_owner, _previousOwner) */\n      swap2\n      log3\n        /* \"bitlime-periphery/contracts/Safemoon.sol\":17968:17982  _previousOwner */\n      sload(0x01)\n      0x00\n        /* \"bitlime-periphery/contracts/Safemoon.sol\":17959:17982  _owner = _previousOwner */\n      dup1\n      sload\n      not(sub(shl(0xa0, 0x01), 0x01))\n      and\n      sub(shl(0xa0, 0x01), 0x01)\n        /* \"bitlime-periphery/contracts/Safemoon.sol\":17968:17982  _previousOwner */\n      swap1\n      swap3\n      and\n        /* \"bitlime-periphery/contracts/Safemoon.sol\":17959:17982  _owner = _previousOwner */\n      swap2\n      swap1\n      swap2\n      or\n      swap1\n      sstore\n        /* \"bitlime-periphery/contracts/Safemoon.sol\":17697:17990  function unlock() public virtual {\r... */\n      jump\t// out\n        /* \"bitlime-periphery/contracts/Safemoon.sol\":29073:29240  function transfer(address recipient, uint256 amount) public override returns (bool) {\r... */\n    tag_162:\n        /* \"bitlime-periphery/contracts/Safemoon.sol\":29151:29155  bool */\n      0x00\n        /* \"bitlime-periphery/contracts/Safemoon.sol\":29168:29210  _transfer(_msgSender(), recipient, amount) */\n      tag_200\n        /* \"bitlime-periphery/contracts/Safemoon.sol\":29178:29190  _msgSender() */\n      tag_298\n        /* \"bitlime-periphery/contracts/Safemoon.sol\":29178:29188  _msgSender */\n      tag_192\n        /* \"bitlime-periphery/contracts/Safemoon.sol\":29178:29190  _msgSender() */\n      jump\t// in\n    tag_298:\n        /* \"bitlime-periphery/contracts/Safemoon.sol\":29192:29201  recipient */\n      dup5\n        /* \"bitlime-periphery/contracts/Safemoon.sol\":29203:29209  amount */\n      dup5\n        /* \"bitlime-periphery/contracts/Safemoon.sol\":29168:29177  _transfer */\n      tag_207\n        /* \"bitlime-periphery/contracts/Safemoon.sol\":29168:29210  _transfer(_msgSender(), recipient, amount) */\n      jump\t// in\n        /* \"bitlime-periphery/contracts/Safemoon.sol\":17242:17331  function geUnlockTime() public view returns (uint256) {\r... */\n    tag_165:\n        /* \"bitlime-periphery/contracts/Safemoon.sol\":17314:17323  _lockTime */\n      sload(0x02)\n        /* \"bitlime-periphery/contracts/Safemoon.sol\":17242:17331  function geUnlockTime() public view returns (uint256) {\r... */\n      swap1\n      jump\t// out\n        /* \"bitlime-periphery/contracts/Safemoon.sol\":33965:34136  function setSwapAndLiquifyEnabled(bool _enabled) public onlyOwner {\r... */\n    tag_169:\n        /* \"bitlime-periphery/contracts/Safemoon.sol\":16266:16278  _msgSender() */\n      tag_301\n        /* \"bitlime-periphery/contracts/Safemoon.sol\":16266:16276  _msgSender */\n      tag_192\n        /* \"bitlime-periphery/contracts/Safemoon.sol\":16266:16278  _msgSender() */\n      jump\t// in\n    tag_301:\n        /* \"bitlime-periphery/contracts/Safemoon.sol\":16256:16262  _owner */\n      sload(0x00)\n      sub(shl(0xa0, 0x01), 0x01)\n      swap1\n      dup2\n      and\n        /* \"bitlime-periphery/contracts/Safemoon.sol\":16256:16278  _owner == _msgSender() */\n      swap2\n      and\n      eq\n        /* \"bitlime-periphery/contracts/Safemoon.sol\":16248:16315  require(_owner == _msgSender(), \"Ownable: caller is not the owner\") */\n      tag_302\n      jumpi\n      0x40\n      dup1\n      mload\n      shl(0xe5, 0x461bcd)\n      dup2\n      mstore\n      0x20\n      0x04\n      dup3\n      add\n      dup2\n      swap1\n      mstore\n      0x24\n      dup3\n      add\n      mstore\n      0x00\n      dup1\n      mload\n      0x20\n      data_9924ebdf1add33d25d4ef888e16131f0a5687b0580a36c21b5c301a6c462effe\n      dup4\n      codecopy\n      dup2\n      mload\n      swap2\n      mstore\n      0x44\n      dup3\n      add\n      mstore\n      swap1\n      mload\n      swap1\n      dup2\n      swap1\n      sub\n      0x64\n      add\n      swap1\n      revert\n    tag_302:\n        /* \"bitlime-periphery/contracts/Safemoon.sol\":34042:34063  swapAndLiquifyEnabled */\n      0x13\n        /* \"bitlime-periphery/contracts/Safemoon.sol\":34042:34074  swapAndLiquifyEnabled = _enabled */\n      dup1\n      sload\n      dup3\n      iszero\n      iszero\n      0x0100\n      dup2\n      mul\n      not(0xff00)\n      swap1\n      swap3\n      and\n      swap2\n      swap1\n      swap2\n      or\n      swap1\n      swap2\n      sstore\n        /* \"bitlime-periphery/contracts/Safemoon.sol\":34090:34128  SwapAndLiquifyEnabledUpdated(_enabled) */\n      0x40\n      dup1\n      mload\n      swap2\n      dup3\n      mstore\n      mload\n      0x53726dfcaf90650aa7eb35524f4d3220f07413c8d6cb404cc8c18bf5591bc159\n      swap2\n      dup2\n      swap1\n      sub\n      0x20\n      add\n      swap1\n      log1\n        /* \"bitlime-periphery/contracts/Safemoon.sol\":33965:34136  function setSwapAndLiquifyEnabled(bool _enabled) public onlyOwner {\r... */\n      pop\n      jump\t// out\n        /* \"bitlime-periphery/contracts/Safemoon.sol\":33795:33957  function setMaxTxPercent(uint256 maxTxPercent) external onlyOwner() {\r... */\n    tag_173:\n        /* \"bitlime-periphery/contracts/Safemoon.sol\":16266:16278  _msgSender() */\n      tag_305\n        /* \"bitlime-periphery/contracts/Safemoon.sol\":16266:16276  _msgSender */\n      tag_192\n        /* \"bitlime-periphery/contracts/Safemoon.sol\":16266:16278  _msgSender() */\n      jump\t// in\n    tag_305:\n        /* \"bitlime-periphery/contracts/Safemoon.sol\":16256:16262  _owner */\n      sload(0x00)\n      sub(shl(0xa0, 0x01), 0x01)\n      swap1\n      dup2\n      and\n        /* \"bitlime-periphery/contracts/Safemoon.sol\":16256:16278  _owner == _msgSender() */\n      swap2\n      and\n      eq\n        /* \"bitlime-periphery/contracts/Safemoon.sol\":16248:16315  require(_owner == _msgSender(), \"Ownable: caller is not the owner\") */\n      tag_306\n      jumpi\n      0x40\n      dup1\n      mload\n      shl(0xe5, 0x461bcd)\n      dup2\n      mstore\n      0x20\n      0x04\n      dup3\n      add\n      dup2\n      swap1\n      mstore\n      0x24\n      dup3\n      add\n      mstore\n      0x00\n      dup1\n      mload\n      0x20\n      data_9924ebdf1add33d25d4ef888e16131f0a5687b0580a36c21b5c301a6c462effe\n      dup4\n      codecopy\n      dup2\n      mload\n      swap2\n      mstore\n      0x44\n      dup3\n      add\n      mstore\n      swap1\n      mload\n      swap1\n      dup2\n      swap1\n      sub\n      0x64\n      add\n      swap1\n      revert\n    tag_306:\n        /* \"bitlime-periphery/contracts/Safemoon.sol\":33889:33949  _tTotal.mul(maxTxPercent).div(\r... */\n      tag_308\n        /* \"bitlime-periphery/contracts/Safemoon.sol\":33933:33938  10**2 */\n      0x64\n        /* \"bitlime-periphery/contracts/Safemoon.sol\":33889:33914  _tTotal.mul(maxTxPercent) */\n      tag_309\n        /* \"bitlime-periphery/contracts/Safemoon.sol\":33901:33913  maxTxPercent */\n      dup4\n        /* \"bitlime-periphery/contracts/Safemoon.sol\":33889:33896  _tTotal */\n      sload(0x09)\n        /* \"bitlime-periphery/contracts/Safemoon.sol\":33889:33900  _tTotal.mul */\n      tag_310\n      swap1\n        /* \"bitlime-periphery/contracts/Safemoon.sol\":33889:33914  _tTotal.mul(maxTxPercent) */\n      swap2\n      swap1\n      0xffffffff\n      and\n      jump\t// in\n    tag_309:\n        /* \"bitlime-periphery/contracts/Safemoon.sol\":33889:33918  _tTotal.mul(maxTxPercent).div */\n      swap1\n        /* \"bitlime-periphery/contracts/Safemoon.sol\":33889:33949  _tTotal.mul(maxTxPercent).div(\r... */\n      0xffffffff\n        /* \"bitlime-periphery/contracts/Safemoon.sol\":33889:33918  _tTotal.mul(maxTxPercent).div */\n      tag_218\n        /* \"bitlime-periphery/contracts/Safemoon.sol\":33889:33949  _tTotal.mul(maxTxPercent).div(\r... */\n      and\n      jump\t// in\n    tag_308:\n        /* \"bitlime-periphery/contracts/Safemoon.sol\":33874:33886  _maxTxAmount */\n      0x14\n        /* \"bitlime-periphery/contracts/Safemoon.sol\":33874:33949  _maxTxAmount = _tTotal.mul(maxTxPercent).div(\r... */\n      sstore\n      pop\n        /* \"bitlime-periphery/contracts/Safemoon.sol\":33795:33957  function setMaxTxPercent(uint256 maxTxPercent) external onlyOwner() {\r... */\n      jump\t// out\n        /* \"bitlime-periphery/contracts/Safemoon.sol\":17407:17621  function lock(uint256 time) public virtual onlyOwner {\r... */\n    tag_177:\n        /* \"bitlime-periphery/contracts/Safemoon.sol\":16266:16278  _msgSender() */\n      tag_312\n        /* \"bitlime-periphery/contracts/Safemoon.sol\":16266:16276  _msgSender */\n      tag_192\n        /* \"bitlime-periphery/contracts/Safemoon.sol\":16266:16278  _msgSender() */\n      jump\t// in\n    tag_312:\n        /* \"bitlime-periphery/contracts/Safemoon.sol\":16256:16262  _owner */\n      sload(0x00)\n      sub(shl(0xa0, 0x01), 0x01)\n      swap1\n      dup2\n      and\n        /* \"bitlime-periphery/contracts/Safemoon.sol\":16256:16278  _owner == _msgSender() */\n      swap2\n      and\n      eq\n        /* \"bitlime-periphery/contracts/Safemoon.sol\":16248:16315  require(_owner == _msgSender(), \"Ownable: caller is not the owner\") */\n      tag_313\n      jumpi\n      0x40\n      dup1\n      mload\n      shl(0xe5, 0x461bcd)\n      dup2\n      mstore\n      0x20\n      0x04\n      dup3\n      add\n      dup2\n      swap1\n      mstore\n      0x24\n      dup3\n      add\n      mstore\n      0x00\n      dup1\n      mload\n      0x20\n      data_9924ebdf1add33d25d4ef888e16131f0a5687b0580a36c21b5c301a6c462effe\n      dup4\n      codecopy\n      dup2\n      mload\n      swap2\n      mstore\n      0x44\n      dup3\n      add\n      mstore\n      swap1\n      mload\n      swap1\n      dup2\n      swap1\n      sub\n      0x64\n      add\n      swap1\n      revert\n    tag_313:\n        /* \"bitlime-periphery/contracts/Safemoon.sol\":17488:17494  _owner */\n      0x00\n      dup1\n      sload\n      0x01\n        /* \"bitlime-periphery/contracts/Safemoon.sol\":17471:17494  _previousOwner = _owner */\n      dup1\n      sload\n      not(sub(shl(0xa0, 0x01), 0x01))\n      swap1\n      dup2\n      and\n      sub(shl(0xa0, 0x01), 0x01)\n        /* \"bitlime-periphery/contracts/Safemoon.sol\":17488:17494  _owner */\n      dup5\n      and\n        /* \"bitlime-periphery/contracts/Safemoon.sol\":17471:17494  _previousOwner = _owner */\n      or\n      swap1\n      swap2\n      sstore\n        /* \"bitlime-periphery/contracts/Safemoon.sol\":17505:17524  _owner = address(0) */\n      and\n      dup2\n      sstore\n        /* \"bitlime-periphery/contracts/Safemoon.sol\":17547:17550  now */\n      timestamp\n        /* \"bitlime-periphery/contracts/Safemoon.sol\":17547:17557  now + time */\n      dup3\n      add\n        /* \"bitlime-periphery/contracts/Safemoon.sol\":17535:17544  _lockTime */\n      0x02\n        /* \"bitlime-periphery/contracts/Safemoon.sol\":17535:17557  _lockTime = now + time */\n      sstore\n        /* \"bitlime-periphery/contracts/Safemoon.sol\":17573:17613  OwnershipTransferred(_owner, address(0)) */\n      mload(0x40)\n        /* \"bitlime-periphery/contracts/Safemoon.sol\":17488:17494  _owner */\n      dup2\n      swap1\n      0x00\n      dup1\n      mload\n      0x20\n      data_9c064737b570a74c2bac5d21056d93ac53115214216cd14d4a0fc9b60be81231\n      dup4\n      codecopy\n      dup2\n      mload\n      swap2\n      mstore\n        /* \"bitlime-periphery/contracts/Safemoon.sol\":17573:17613  OwnershipTransferred(_owner, address(0)) */\n      swap1\n        /* \"bitlime-periphery/contracts/Safemoon.sol\":17488:17494  _owner */\n      dup3\n      swap1\n        /* \"bitlime-periphery/contracts/Safemoon.sol\":17573:17613  OwnershipTransferred(_owner, address(0)) */\n      log3\n        /* \"bitlime-periphery/contracts/Safemoon.sol\":17407:17621  function lock(uint256 time) public virtual onlyOwner {\r... */\n      pop\n      jump\t// out\n        /* \"bitlime-periphery/contracts/Safemoon.sol\":29248:29391  function allowance(address owner, address spender) public view override returns (uint256) {\r... */\n    tag_181:\n      sub(shl(0xa0, 0x01), 0x01)\n        /* \"bitlime-periphery/contracts/Safemoon.sol\":29356:29374  _allowances[owner] */\n      swap2\n      dup3\n      and\n        /* \"bitlime-periphery/contracts/Safemoon.sol\":29329:29336  uint256 */\n      0x00\n        /* \"bitlime-periphery/contracts/Safemoon.sol\":29356:29374  _allowances[owner] */\n      swap1\n      dup2\n      mstore\n        /* \"bitlime-periphery/contracts/Safemoon.sol\":29356:29367  _allowances */\n      0x05\n        /* \"bitlime-periphery/contracts/Safemoon.sol\":29356:29374  _allowances[owner] */\n      0x20\n      swap1\n      dup2\n      mstore\n      0x40\n      dup1\n      dup4\n      keccak256\n        /* \"bitlime-periphery/contracts/Safemoon.sol\":29356:29383  _allowances[owner][spender] */\n      swap4\n      swap1\n      swap5\n      and\n      dup3\n      mstore\n      swap2\n      swap1\n      swap2\n      mstore\n      keccak256\n      sload\n      swap1\n        /* \"bitlime-periphery/contracts/Safemoon.sol\":29248:29391  function allowance(address owner, address spender) public view override returns (uint256) {\r... */\n      jump\t// out\n        /* \"bitlime-periphery/contracts/Safemoon.sol\":33430:33540  function includeInFee(address account) public onlyOwner {\r... */\n    tag_185:\n        /* \"bitlime-periphery/contracts/Safemoon.sol\":16266:16278  _msgSender() */\n      tag_317\n        /* \"bitlime-periphery/contracts/Safemoon.sol\":16266:16276  _msgSender */\n      tag_192\n        /* \"bitlime-periphery/contracts/Safemoon.sol\":16266:16278  _msgSender() */\n      jump\t// in\n    tag_317:\n        /* \"bitlime-periphery/contracts/Safemoon.sol\":16256:16262  _owner */\n      sload(0x00)\n      sub(shl(0xa0, 0x01), 0x01)\n      swap1\n      dup2\n      and\n        /* \"bitlime-periphery/contracts/Safemoon.sol\":16256:16278  _owner == _msgSender() */\n      swap2\n      and\n      eq\n        /* \"bitlime-periphery/contracts/Safemoon.sol\":16248:16315  require(_owner == _msgSender(), \"Ownable: caller is not the owner\") */\n      tag_318\n      jumpi\n      0x40\n      dup1\n      mload\n      shl(0xe5, 0x461bcd)\n      dup2\n      mstore\n      0x20\n      0x04\n      dup3\n      add\n      dup2\n      swap1\n      mstore\n      0x24\n      dup3\n      add\n      mstore\n      0x00\n      dup1\n      mload\n      0x20\n      data_9924ebdf1add33d25d4ef888e16131f0a5687b0580a36c21b5c301a6c462effe\n      dup4\n      codecopy\n      dup2\n      mload\n      swap2\n      mstore\n      0x44\n      dup3\n      add\n      mstore\n      swap1\n      mload\n      swap1\n      dup2\n      swap1\n      sub\n      0x64\n      add\n      swap1\n      revert\n    tag_318:\n      sub(shl(0xa0, 0x01), 0x01)\n        /* \"bitlime-periphery/contracts/Safemoon.sol\":33497:33524  _isExcludedFromFee[account] */\n      and\n        /* \"bitlime-periphery/contracts/Safemoon.sol\":33527:33532  false */\n      0x00\n        /* \"bitlime-periphery/contracts/Safemoon.sol\":33497:33524  _isExcludedFromFee[account] */\n      swap1\n      dup2\n      mstore\n        /* \"bitlime-periphery/contracts/Safemoon.sol\":33497:33515  _isExcludedFromFee */\n      0x06\n        /* \"bitlime-periphery/contracts/Safemoon.sol\":33497:33524  _isExcludedFromFee[account] */\n      0x20\n      mstore\n      0x40\n      swap1\n      keccak256\n        /* \"bitlime-periphery/contracts/Safemoon.sol\":33497:33532  _isExcludedFromFee[account] = false */\n      dup1\n      sload\n      not(0xff)\n      and\n      swap1\n      sstore\n        /* \"bitlime-periphery/contracts/Safemoon.sol\":33430:33540  function includeInFee(address account) public onlyOwner {\r... */\n      jump\t// out\n        /* \"bitlime-periphery/contracts/Safemoon.sol\":16990:17234  function transferOwnership(address newOwner) public virtual onlyOwner {\r... */\n    tag_189:\n        /* \"bitlime-periphery/contracts/Safemoon.sol\":16266:16278  _msgSender() */\n      tag_321\n        /* \"bitlime-periphery/contracts/Safemoon.sol\":16266:16276  _msgSender */\n      tag_192\n        /* \"bitlime-periphery/contracts/Safemoon.sol\":16266:16278  _msgSender() */\n      jump\t// in\n    tag_321:\n        /* \"bitlime-periphery/contracts/Safemoon.sol\":16256:16262  _owner */\n      sload(0x00)\n      sub(shl(0xa0, 0x01), 0x01)\n      swap1\n      dup2\n      and\n        /* \"bitlime-periphery/contracts/Safemoon.sol\":16256:16278  _owner == _msgSender() */\n      swap2\n      and\n      eq\n        /* \"bitlime-periphery/contracts/Safemoon.sol\":16248:16315  require(_owner == _msgSender(), \"Ownable: caller is not the owner\") */\n      tag_322\n      jumpi\n      0x40\n      dup1\n      mload\n      shl(0xe5, 0x461bcd)\n      dup2\n      mstore\n      0x20\n      0x04\n      dup3\n      add\n      dup2\n      swap1\n      mstore\n      0x24\n      dup3\n      add\n      mstore\n      0x00\n      dup1\n      mload\n      0x20\n      data_9924ebdf1add33d25d4ef888e16131f0a5687b0580a36c21b5c301a6c462effe\n      dup4\n      codecopy\n      dup2\n      mload\n      swap2\n      mstore\n      0x44\n      dup3\n      add\n      mstore\n      swap1\n      mload\n      swap1\n      dup2\n      swap1\n      sub\n      0x64\n      add\n      swap1\n      revert\n    tag_322:\n      sub(shl(0xa0, 0x01), 0x01)\n        /* \"bitlime-periphery/contracts/Safemoon.sol\":17079:17101  newOwner != address(0) */\n      dup2\n      and\n        /* \"bitlime-periphery/contracts/Safemoon.sol\":17071:17144  require(newOwner != address(0), \"Ownable: new owner is the zero address\") */\n      tag_324\n      jumpi\n      mload(0x40)\n      shl(0xe5, 0x461bcd)\n      dup2\n      mstore\n      0x04\n      add\n      dup1\n      dup1\n      0x20\n      add\n      dup3\n      dup2\n      sub\n      dup3\n      mstore\n      0x26\n      dup2\n      mstore\n      0x20\n      add\n      dup1\n      data_245f15ff17f551913a7a18385165551503906a406f905ac1c2437281a7cd0cfe\n      0x26\n      swap2\n      codecopy\n      0x40\n      add\n      swap2\n      pop\n      pop\n      mload(0x40)\n      dup1\n      swap2\n      sub\n      swap1\n      revert\n    tag_324:\n        /* \"bitlime-periphery/contracts/Safemoon.sol\":17181:17187  _owner */\n      0x00\n      dup1\n      sload\n        /* \"bitlime-periphery/contracts/Safemoon.sol\":17160:17198  OwnershipTransferred(_owner, newOwner) */\n      mload(0x40)\n      sub(shl(0xa0, 0x01), 0x01)\n      dup1\n      dup6\n      and\n      swap4\n        /* \"bitlime-periphery/contracts/Safemoon.sol\":17181:17187  _owner */\n      swap3\n      and\n      swap2\n      0x00\n      dup1\n      mload\n      0x20\n      data_9c064737b570a74c2bac5d21056d93ac53115214216cd14d4a0fc9b60be81231\n      dup4\n      codecopy\n      dup2\n      mload\n      swap2\n      mstore\n        /* \"bitlime-periphery/contracts/Safemoon.sol\":17160:17198  OwnershipTransferred(_owner, newOwner) */\n      swap2\n      log3\n        /* \"bitlime-periphery/contracts/Safemoon.sol\":17209:17215  _owner */\n      0x00\n        /* \"bitlime-periphery/contracts/Safemoon.sol\":17209:17226  _owner = newOwner */\n      dup1\n      sload\n      not(sub(shl(0xa0, 0x01), 0x01))\n      and\n      sub(shl(0xa0, 0x01), 0x01)\n      swap3\n      swap1\n      swap3\n      and\n      swap2\n      swap1\n      swap2\n      or\n      swap1\n      sstore\n        /* \"bitlime-periphery/contracts/Safemoon.sol\":16990:17234  function transferOwnership(address newOwner) public virtual onlyOwner {\r... */\n      jump\t// out\n        /* \"bitlime-periphery/contracts/Safemoon.sol\":8452:8558  function _msgSender() internal view virtual returns (address payable) {\r... */\n    tag_192:\n        /* \"bitlime-periphery/contracts/Safemoon.sol\":8540:8550  msg.sender */\n      caller\n        /* \"bitlime-periphery/contracts/Safemoon.sol\":8452:8558  function _msgSender() internal view virtual returns (address payable) {\r... */\n      swap1\n      jump\t// out\n        /* \"bitlime-periphery/contracts/Safemoon.sol\":37580:37917  function _approve(address owner, address spender, uint256 amount) private {\r... */\n    tag_202:\n      sub(shl(0xa0, 0x01), 0x01)\n        /* \"bitlime-periphery/contracts/Safemoon.sol\":37673:37692  owner != address(0) */\n      dup4\n      and\n        /* \"bitlime-periphery/contracts/Safemoon.sol\":37665:37733  require(owner != address(0), \"ERC20: approve from the zero address\") */\n      tag_327\n      jumpi\n      mload(0x40)\n      shl(0xe5, 0x461bcd)\n      dup2\n      mstore\n      0x04\n      add\n      dup1\n      dup1\n      0x20\n      add\n      dup3\n      dup2\n      sub\n      dup3\n      mstore\n      0x24\n      dup2\n      mstore\n      0x20\n      add\n      dup1\n      data_c953f4879035ed60e766b34720f656aab5c697b141d924c283124ecedb91c208\n      0x24\n      swap2\n      codecopy\n      0x40\n      add\n      swap2\n      pop\n      pop\n      mload(0x40)\n      dup1\n      swap2\n      sub\n      swap1\n      revert\n    tag_327:\n      sub(shl(0xa0, 0x01), 0x01)\n        /* \"bitlime-periphery/contracts/Safemoon.sol\":37752:37773  spender != address(0) */\n      dup3\n      and\n        /* \"bitlime-periphery/contracts/Safemoon.sol\":37744:37812  require(spender != address(0), \"ERC20: approve to the zero address\") */\n      tag_328\n      jumpi\n      mload(0x40)\n      shl(0xe5, 0x461bcd)\n      dup2\n      mstore\n      0x04\n      add\n      dup1\n      dup1\n      0x20\n      add\n      dup3\n      dup2\n      sub\n      dup3\n      mstore\n      0x22\n      dup2\n      mstore\n      0x20\n      add\n      dup1\n      data_24883cc5fe64ace9d0df1893501ecb93c77180f0ff69cca79affb3c316dc8029\n      0x22\n      swap2\n      codecopy\n      0x40\n      add\n      swap2\n      pop\n      pop\n      mload(0x40)\n      dup1\n      swap2\n      sub\n      swap1\n      revert\n    tag_328:\n      sub(shl(0xa0, 0x01), 0x01)\n        /* \"bitlime-periphery/contracts/Safemoon.sol\":37825:37843  _allowances[owner] */\n      dup1\n      dup5\n      and\n      0x00\n      dup2\n      dup2\n      mstore\n        /* \"bitlime-periphery/contracts/Safemoon.sol\":37825:37836  _allowances */\n      0x05\n        /* \"bitlime-periphery/contracts/Safemoon.sol\":37825:37843  _allowances[owner] */\n      0x20\n      swap1\n      dup2\n      mstore\n      0x40\n      dup1\n      dup4\n      keccak256\n        /* \"bitlime-periphery/contracts/Safemoon.sol\":37825:37852  _allowances[owner][spender] */\n      swap5\n      dup8\n      and\n      dup1\n      dup5\n      mstore\n      swap5\n      dup3\n      mstore\n      swap2\n      dup3\n      swap1\n      keccak256\n        /* \"bitlime-periphery/contracts/Safemoon.sol\":37825:37861  _allowances[owner][spender] = amount */\n      dup6\n      swap1\n      sstore\n        /* \"bitlime-periphery/contracts/Safemoon.sol\":37877:37909  Approval(owner, spender, amount) */\n      dup2\n      mload\n      dup6\n      dup2\n      mstore\n      swap2\n      mload\n      0x8c5be1e5ebec7d5bd14f71427d1e84f3dd0314c0f7b2291e5b200ac8c7c3b925\n      swap3\n      dup2\n      swap1\n      sub\n      swap1\n      swap2\n      add\n      swap1\n      log3\n        /* \"bitlime-periphery/contracts/Safemoon.sol\":37580:37917  function _approve(address owner, address spender, uint256 amount) private {\r... */\n      pop\n      pop\n      pop\n      jump\t// out\n        /* \"bitlime-periphery/contracts/Safemoon.sol\":37925:39738  function _transfer(\r... */\n    tag_207:\n      sub(shl(0xa0, 0x01), 0x01)\n        /* \"bitlime-periphery/contracts/Safemoon.sol\":38047:38065  from != address(0) */\n      dup4\n      and\n        /* \"bitlime-periphery/contracts/Safemoon.sol\":38039:38107  require(from != address(0), \"ERC20: transfer from the zero address\") */\n      tag_330\n      jumpi\n      mload(0x40)\n      shl(0xe5, 0x461bcd)\n      dup2\n      mstore\n      0x04\n      add\n      dup1\n      dup1\n      0x20\n      add\n      dup3\n      dup2\n      sub\n      dup3\n      mstore\n      0x25\n      dup2\n      mstore\n      0x20\n      add\n      dup1\n      data_baecc556b46f4ed0f2b4cb599d60785ac8563dd2dc0a5bf12edea1c39e5e1fea\n      0x25\n      swap2\n      codecopy\n      0x40\n      add\n      swap2\n      pop\n      pop\n      mload(0x40)\n      dup1\n      swap2\n      sub\n      swap1\n      revert\n    tag_330:\n      sub(shl(0xa0, 0x01), 0x01)\n        /* \"bitlime-periphery/contracts/Safemoon.sol\":38126:38142  to != address(0) */\n      dup3\n      and\n        /* \"bitlime-periphery/contracts/Safemoon.sol\":38118:38182  require(to != address(0), \"ERC20: transfer to the zero address\") */\n      tag_331\n      jumpi\n      mload(0x40)\n      shl(0xe5, 0x461bcd)\n      dup2\n      mstore\n      0x04\n      add\n      dup1\n      dup1\n      0x20\n      add\n      dup3\n      dup2\n      sub\n      dup3\n      mstore\n      0x23\n      dup2\n      mstore\n      0x20\n      add\n      dup1\n      data_0557e210f7a69a685100a7e4e3d0a7024c546085cee28910fd17d0b081d9516f\n      0x23\n      swap2\n      codecopy\n      0x40\n      add\n      swap2\n      pop\n      pop\n      mload(0x40)\n      dup1\n      swap2\n      sub\n      swap1\n      revert\n    tag_331:\n        /* \"bitlime-periphery/contracts/Safemoon.sol\":38210:38211  0 */\n      0x00\n        /* \"bitlime-periphery/contracts/Safemoon.sol\":38201:38207  amount */\n      dup2\n        /* \"bitlime-periphery/contracts/Safemoon.sol\":38201:38211  amount > 0 */\n      gt\n        /* \"bitlime-periphery/contracts/Safemoon.sol\":38193:38257  require(amount > 0, \"Transfer amount must be greater than zero\") */\n      tag_332\n      jumpi\n      mload(0x40)\n      shl(0xe5, 0x461bcd)\n      dup2\n      mstore\n      0x04\n      add\n      dup1\n      dup1\n      0x20\n      add\n      dup3\n      dup2\n      sub\n      dup3\n      mstore\n      0x29\n      dup2\n      mstore\n      0x20\n      add\n      dup1\n      data_9edb5ab58321f35d2386ea65721c9b107daa2c273610fc16d394af2a320ba785\n      0x29\n      swap2\n      codecopy\n      0x40\n      add\n      swap2\n      pop\n      pop\n      mload(0x40)\n      dup1\n      swap2\n      sub\n      swap1\n      revert\n    tag_332:\n        /* \"bitlime-periphery/contracts/Safemoon.sol\":38279:38286  owner() */\n      tag_333\n        /* \"bitlime-periphery/contracts/Safemoon.sol\":38279:38284  owner */\n      tag_140\n        /* \"bitlime-periphery/contracts/Safemoon.sol\":38279:38286  owner() */\n      jump\t// in\n    tag_333:\n      sub(shl(0xa0, 0x01), 0x01)\n        /* \"bitlime-periphery/contracts/Safemoon.sol\":38271:38286  from != owner() */\n      and\n        /* \"bitlime-periphery/contracts/Safemoon.sol\":38271:38275  from */\n      dup4\n      sub(shl(0xa0, 0x01), 0x01)\n        /* \"bitlime-periphery/contracts/Safemoon.sol\":38271:38286  from != owner() */\n      and\n      eq\n      iszero\n        /* \"bitlime-periphery/contracts/Safemoon.sol\":38271:38303  from != owner() && to != owner() */\n      dup1\n      iszero\n      tag_334\n      jumpi\n      pop\n        /* \"bitlime-periphery/contracts/Safemoon.sol\":38296:38303  owner() */\n      tag_335\n        /* \"bitlime-periphery/contracts/Safemoon.sol\":38296:38301  owner */\n      tag_140\n        /* \"bitlime-periphery/contracts/Safemoon.sol\":38296:38303  owner() */\n      jump\t// in\n    tag_335:\n      sub(shl(0xa0, 0x01), 0x01)\n        /* \"bitlime-periphery/contracts/Safemoon.sol\":38290:38303  to != owner() */\n      and\n        /* \"bitlime-periphery/contracts/Safemoon.sol\":38290:38292  to */\n      dup3\n      sub(shl(0xa0, 0x01), 0x01)\n        /* \"bitlime-periphery/contracts/Safemoon.sol\":38290:38303  to != owner() */\n      and\n      eq\n      iszero\n        /* \"bitlime-periphery/contracts/Safemoon.sol\":38271:38303  from != owner() && to != owner() */\n    tag_334:\n        /* \"bitlime-periphery/contracts/Safemoon.sol\":38268:38393  if(from != owner() && to != owner())\r... */\n      iszero\n      tag_337\n      jumpi\n        /* \"bitlime-periphery/contracts/Safemoon.sol\":38336:38348  _maxTxAmount */\n      sload(0x14)\n        /* \"bitlime-periphery/contracts/Safemoon.sol\":38326:38332  amount */\n      dup2\n        /* \"bitlime-periphery/contracts/Safemoon.sol\":38326:38348  amount <= _maxTxAmount */\n      gt\n      iszero\n        /* \"bitlime-periphery/contracts/Safemoon.sol\":38318:38393  require(amount <= _maxTxAmount, \"Transfer amount exceeds the maxTxAmount.\") */\n      tag_337\n      jumpi\n      mload(0x40)\n      shl(0xe5, 0x461bcd)\n      dup2\n      mstore\n      0x04\n      add\n      dup1\n      dup1\n      0x20\n      add\n      dup3\n      dup2\n      sub\n      dup3\n      mstore\n      0x28\n      dup2\n      mstore\n      0x20\n      add\n      dup1\n      data_72052210969ce5fd88e52b5e685de9548acef9bb1b6d02e29c1765d0674948dd\n      0x28\n      swap2\n      codecopy\n      0x40\n      add\n      swap2\n      pop\n      pop\n      mload(0x40)\n      dup1\n      swap2\n      sub\n      swap1\n      revert\n    tag_337:\n        /* \"bitlime-periphery/contracts/Safemoon.sol\":38688:38716  uint256 contractTokenBalance */\n      0x00\n        /* \"bitlime-periphery/contracts/Safemoon.sol\":38719:38743  balanceOf(address(this)) */\n      tag_338\n        /* \"bitlime-periphery/contracts/Safemoon.sol\":38737:38741  this */\n      address\n        /* \"bitlime-periphery/contracts/Safemoon.sol\":38719:38728  balanceOf */\n      tag_127\n        /* \"bitlime-periphery/contracts/Safemoon.sol\":38719:38743  balanceOf(address(this)) */\n      jump\t// in\n    tag_338:\n        /* \"bitlime-periphery/contracts/Safemoon.sol\":38688:38743  uint256 contractTokenBalance = balanceOf(address(this)) */\n      swap1\n      pop\n        /* \"bitlime-periphery/contracts/Safemoon.sol\":38791:38803  _maxTxAmount */\n      sload(0x14)\n        /* \"bitlime-periphery/contracts/Safemoon.sol\":38767:38787  contractTokenBalance */\n      dup2\n        /* \"bitlime-periphery/contracts/Safemoon.sol\":38767:38803  contractTokenBalance >= _maxTxAmount */\n      lt\n        /* \"bitlime-periphery/contracts/Safemoon.sol\":38764:38876  if(contractTokenBalance >= _maxTxAmount)\r... */\n      tag_339\n      jumpi\n      pop\n        /* \"bitlime-periphery/contracts/Safemoon.sol\":38852:38864  _maxTxAmount */\n      sload(0x14)\n        /* \"bitlime-periphery/contracts/Safemoon.sol\":38764:38876  if(contractTokenBalance >= _maxTxAmount)\r... */\n    tag_339:\n        /* \"bitlime-periphery/contracts/Safemoon.sol\":38947:38976  numTokensSellToAddToLiquidity */\n      sload(0x15)\n        /* \"bitlime-periphery/contracts/Safemoon.sol\":38923:38976  contractTokenBalance >= numTokensSellToAddToLiquidity */\n      dup2\n      lt\n      dup1\n      iszero\n      swap1\n      dup2\n      swap1\n        /* \"bitlime-periphery/contracts/Safemoon.sol\":39005:39058  overMinTokenBalance &&\r... */\n      tag_340\n      jumpi\n      pop\n        /* \"bitlime-periphery/contracts/Safemoon.sol\":39042:39058  inSwapAndLiquify */\n      and(0xff, sload(0x13))\n        /* \"bitlime-periphery/contracts/Safemoon.sol\":39041:39058  !inSwapAndLiquify */\n      iszero\n        /* \"bitlime-periphery/contracts/Safemoon.sol\":39005:39058  overMinTokenBalance &&\r... */\n    tag_340:\n        /* \"bitlime-periphery/contracts/Safemoon.sol\":39005:39096  overMinTokenBalance &&\r... */\n      dup1\n      iszero\n      tag_341\n      jumpi\n      pop\n        /* \"bitlime-periphery/contracts/Safemoon.sol\":39083:39096  uniswapV2Pair */\n      immutable(\"0x3420243e987a0dddfaa7d77b227cced5f6bc741ff3ff5461051f619ef3b8b7b2\")\n      sub(shl(0xa0, 0x01), 0x01)\n        /* \"bitlime-periphery/contracts/Safemoon.sol\":39075:39096  from != uniswapV2Pair */\n      and\n        /* \"bitlime-periphery/contracts/Safemoon.sol\":39075:39079  from */\n      dup6\n      sub(shl(0xa0, 0x01), 0x01)\n        /* \"bitlime-periphery/contracts/Safemoon.sol\":39075:39096  from != uniswapV2Pair */\n      and\n      eq\n      iszero\n        /* \"bitlime-periphery/contracts/Safemoon.sol\":39005:39096  overMinTokenBalance &&\r... */\n    tag_341:\n        /* \"bitlime-periphery/contracts/Safemoon.sol\":39005:39134  overMinTokenBalance &&\r... */\n      dup1\n      iszero\n      tag_342\n      jumpi\n      pop\n        /* \"bitlime-periphery/contracts/Safemoon.sol\":39113:39134  swapAndLiquifyEnabled */\n      sload(0x13)\n      0x0100\n      swap1\n      div\n      0xff\n      and\n        /* \"bitlime-periphery/contracts/Safemoon.sol\":39005:39134  overMinTokenBalance &&\r... */\n    tag_342:\n        /* \"bitlime-periphery/contracts/Safemoon.sol\":38987:39305  if (\r... */\n      iszero\n      tag_344\n      jumpi\n        /* \"bitlime-periphery/contracts/Safemoon.sol\":39184:39213  numTokensSellToAddToLiquidity */\n      sload(0x15)\n        /* \"bitlime-periphery/contracts/Safemoon.sol\":39161:39213  contractTokenBalance = numTokensSellToAddToLiquidity */\n      swap2\n      pop\n        /* \"bitlime-periphery/contracts/Safemoon.sol\":39257:39293  swapAndLiquify(contractTokenBalance) */\n      tag_344\n        /* \"bitlime-periphery/contracts/Safemoon.sol\":39272:39292  contractTokenBalance */\n      dup3\n        /* \"bitlime-periphery/contracts/Safemoon.sol\":39257:39271  swapAndLiquify */\n      tag_345\n        /* \"bitlime-periphery/contracts/Safemoon.sol\":39257:39293  swapAndLiquify(contractTokenBalance) */\n      jump\t// in\n    tag_344:\n      sub(shl(0xa0, 0x01), 0x01)\n        /* \"bitlime-periphery/contracts/Safemoon.sol\":39513:39537  _isExcludedFromFee[from] */\n      dup6\n      and\n        /* \"bitlime-periphery/contracts/Safemoon.sol\":39386:39398  bool takeFee */\n      0x00\n        /* \"bitlime-periphery/contracts/Safemoon.sol\":39513:39537  _isExcludedFromFee[from] */\n      swap1\n      dup2\n      mstore\n        /* \"bitlime-periphery/contracts/Safemoon.sol\":39513:39531  _isExcludedFromFee */\n      0x06\n        /* \"bitlime-periphery/contracts/Safemoon.sol\":39513:39537  _isExcludedFromFee[from] */\n      0x20\n      mstore\n      0x40\n      swap1\n      keccak256\n      sload\n        /* \"bitlime-periphery/contracts/Safemoon.sol\":39401:39405  true */\n      0x01\n      swap1\n        /* \"bitlime-periphery/contracts/Safemoon.sol\":39513:39537  _isExcludedFromFee[from] */\n      0xff\n      and\n      dup1\n        /* \"bitlime-periphery/contracts/Safemoon.sol\":39513:39563  _isExcludedFromFee[from] || _isExcludedFromFee[to] */\n      tag_346\n      jumpi\n      pop\n      sub(shl(0xa0, 0x01), 0x01)\n        /* \"bitlime-periphery/contracts/Safemoon.sol\":39541:39563  _isExcludedFromFee[to] */\n      dup6\n      and\n      0x00\n      swap1\n      dup2\n      mstore\n        /* \"bitlime-periphery/contracts/Safemoon.sol\":39541:39559  _isExcludedFromFee */\n      0x06\n        /* \"bitlime-periphery/contracts/Safemoon.sol\":39541:39563  _isExcludedFromFee[to] */\n      0x20\n      mstore\n      0x40\n      swap1\n      keccak256\n      sload\n      0xff\n      and\n        /* \"bitlime-periphery/contracts/Safemoon.sol\":39513:39563  _isExcludedFromFee[from] || _isExcludedFromFee[to] */\n    tag_346:\n        /* \"bitlime-periphery/contracts/Safemoon.sol\":39510:39606  if(_isExcludedFromFee[from] || _isExcludedFromFee[to]){\r... */\n      iszero\n      tag_347\n      jumpi\n      pop\n        /* \"bitlime-periphery/contracts/Safemoon.sol\":39589:39594  false */\n      0x00\n        /* \"bitlime-periphery/contracts/Safemoon.sol\":39510:39606  if(_isExcludedFromFee[from] || _isExcludedFromFee[to]){\r... */\n    tag_347:\n        /* \"bitlime-periphery/contracts/Safemoon.sol\":39692:39730  _tokenTransfer(from,to,amount,takeFee) */\n      tag_348\n        /* \"bitlime-periphery/contracts/Safemoon.sol\":39707:39711  from */\n      dup7\n        /* \"bitlime-periphery/contracts/Safemoon.sol\":39712:39714  to */\n      dup7\n        /* \"bitlime-periphery/contracts/Safemoon.sol\":39715:39721  amount */\n      dup7\n        /* \"bitlime-periphery/contracts/Safemoon.sol\":39722:39729  takeFee */\n      dup5\n        /* \"bitlime-periphery/contracts/Safemoon.sol\":39692:39706  _tokenTransfer */\n      tag_349\n        /* \"bitlime-periphery/contracts/Safemoon.sol\":39692:39730  _tokenTransfer(from,to,amount,takeFee) */\n      jump\t// in\n    tag_348:\n        /* \"bitlime-periphery/contracts/Safemoon.sol\":37925:39738  function _transfer(\r... */\n      pop\n      pop\n      pop\n      pop\n      pop\n      pop\n      jump\t// out\n        /* \"bitlime-periphery/contracts/Safemoon.sol\":4862:5054  function sub(uint256 a, uint256 b, string memory errorMessage) internal pure returns (uint256) {\r... */\n    tag_212:\n        /* \"bitlime-periphery/contracts/Safemoon.sol\":4948:4955  uint256 */\n      0x00\n        /* \"bitlime-periphery/contracts/Safemoon.sol\":4984:4996  errorMessage */\n      dup2\n        /* \"bitlime-periphery/contracts/Safemoon.sol\":4976:4982  b <= a */\n      dup5\n      dup5\n      gt\n      iszero\n        /* \"bitlime-periphery/contracts/Safemoon.sol\":4968:4997  require(b <= a, errorMessage) */\n      tag_351\n      jumpi\n      mload(0x40)\n      shl(0xe5, 0x461bcd)\n      dup2\n      mstore\n      0x04\n      add\n      dup1\n      dup1\n      0x20\n      add\n      dup3\n      dup2\n      sub\n      dup3\n      mstore\n      dup4\n      dup2\n      dup2\n      mload\n      dup2\n      mstore\n      0x20\n      add\n      swap2\n      pop\n      dup1\n      mload\n      swap1\n      0x20\n      add\n      swap1\n      dup1\n      dup4\n      dup4\n        /* \"--CODEGEN--\":23:24   */\n      0x00\n        /* \"--CODEGEN--\":8:108   */\n    tag_352:\n        /* \"--CODEGEN--\":33:36   */\n      dup4\n        /* \"--CODEGEN--\":30:31   */\n      dup2\n        /* \"--CODEGEN--\":27:37   */\n      lt\n        /* \"--CODEGEN--\":8:108   */\n      iszero\n      tag_354\n      jumpi\n        /* \"--CODEGEN--\":90:101   */\n      dup2\n      dup2\n      add\n        /* \"--CODEGEN--\":84:102   */\n      mload\n        /* \"--CODEGEN--\":71:82   */\n      dup4\n      dup3\n      add\n        /* \"--CODEGEN--\":64:103   */\n      mstore\n        /* \"--CODEGEN--\":52:54   */\n      0x20\n        /* \"--CODEGEN--\":45:55   */\n      add\n        /* \"--CODEGEN--\":8:108   */\n      jump(tag_352)\n    tag_354:\n        /* \"--CODEGEN--\":12:26   */\n      pop\n        /* \"bitlime-periphery/contracts/Safemoon.sol\":4968:4997  require(b <= a, errorMessage) */\n      pop\n      pop\n      pop\n      swap1\n      pop\n      swap1\n      dup2\n      add\n      swap1\n      0x1f\n      and\n      dup1\n      iszero\n      tag_355\n      jumpi\n      dup1\n      dup3\n      sub\n      dup1\n      mload\n      0x01\n      dup4\n      0x20\n      sub\n      0x0100\n      exp\n      sub\n      not\n      and\n      dup2\n      mstore\n      0x20\n      add\n      swap2\n      pop\n    tag_355:\n      pop\n      swap3\n      pop\n      pop\n      pop\n      mload(0x40)\n      dup1\n      swap2\n      sub\n      swap1\n      revert\n    tag_351:\n      pop\n      pop\n      pop\n        /* \"bitlime-periphery/contracts/Safemoon.sol\":5020:5025  a - b */\n      swap1\n      sub\n      swap1\n        /* \"bitlime-periphery/contracts/Safemoon.sol\":4862:5054  function sub(uint256 a, uint256 b, string memory errorMessage) internal pure returns (uint256) {\r... */\n      jump\t// out\n        /* \"bitlime-periphery/contracts/Safemoon.sol\":35599:35762  function _getRate() private view returns(uint256) {\r... */\n    tag_216:\n        /* \"bitlime-periphery/contracts/Safemoon.sol\":35640:35647  uint256 */\n      0x00\n        /* \"bitlime-periphery/contracts/Safemoon.sol\":35661:35676  uint256 rSupply */\n      dup1\n        /* \"bitlime-periphery/contracts/Safemoon.sol\":35678:35693  uint256 tSupply */\n      0x00\n        /* \"bitlime-periphery/contracts/Safemoon.sol\":35697:35716  _getCurrentSupply() */\n      tag_357\n        /* \"bitlime-periphery/contracts/Safemoon.sol\":35697:35714  _getCurrentSupply */\n      tag_358\n        /* \"bitlime-periphery/contracts/Safemoon.sol\":35697:35716  _getCurrentSupply() */\n      jump\t// in\n    tag_357:\n        /* \"bitlime-periphery/contracts/Safemoon.sol\":35660:35716  (uint256 rSupply, uint256 tSupply) = _getCurrentSupply() */\n      swap1\n      swap3\n      pop\n      swap1\n      pop\n        /* \"bitlime-periphery/contracts/Safemoon.sol\":35734:35754  rSupply.div(tSupply) */\n      tag_359\n        /* \"bitlime-periphery/contracts/Safemoon.sol\":35660:35716  (uint256 rSupply, uint256 tSupply) = _getCurrentSupply() */\n      dup3\n      dup3\n        /* \"bitlime-periphery/contracts/Safemoon.sol\":35734:35754  rSupply.div(tSupply) */\n      0xffffffff\n        /* \"bitlime-periphery/contracts/Safemoon.sol\":35734:35745  rSupply.div */\n      tag_218\n        /* \"bitlime-periphery/contracts/Safemoon.sol\":35734:35754  rSupply.div(tSupply) */\n      and\n      jump\t// in\n    tag_359:\n        /* \"bitlime-periphery/contracts/Safemoon.sol\":35727:35754  return rSupply.div(tSupply) */\n      swap3\n      pop\n      pop\n      pop\n        /* \"bitlime-periphery/contracts/Safemoon.sol\":35599:35762  function _getRate() private view returns(uint256) {\r... */\n      swap1\n      jump\t// out\n        /* \"bitlime-periphery/contracts/Safemoon.sol\":6260:6392  function div(uint256 a, uint256 b) internal pure returns (uint256) {\r... */\n    tag_218:\n        /* \"bitlime-periphery/contracts/Safemoon.sol\":6318:6325  uint256 */\n      0x00\n        /* \"bitlime-periphery/contracts/Safemoon.sol\":6345:6384  div(a, b, \"SafeMath: division by zero\") */\n      tag_361\n        /* \"bitlime-periphery/contracts/Safemoon.sol\":6349:6350  a */\n      dup4\n        /* \"bitlime-periphery/contracts/Safemoon.sol\":6352:6353  b */\n      dup4\n        /* \"bitlime-periphery/contracts/Safemoon.sol\":6345:6384  div(a, b, \"SafeMath: division by zero\") */\n      mload(0x40)\n      dup1\n      0x40\n      add\n      0x40\n      mstore\n      dup1\n      0x1a\n      dup2\n      mstore\n      0x20\n      add\n      0x536166654d6174683a206469766973696f6e206279207a65726f000000000000\n      dup2\n      mstore\n      pop\n        /* \"bitlime-periphery/contracts/Safemoon.sol\":6345:6348  div */\n      tag_362\n        /* \"bitlime-periphery/contracts/Safemoon.sol\":6345:6384  div(a, b, \"SafeMath: division by zero\") */\n      jump\t// in\n    tag_361:\n        /* \"bitlime-periphery/contracts/Safemoon.sol\":6338:6384  return div(a, b, \"SafeMath: division by zero\") */\n      swap4\n        /* \"bitlime-periphery/contracts/Safemoon.sol\":6260:6392  function div(uint256 a, uint256 b) internal pure returns (uint256) {\r... */\n      swap3\n      pop\n      pop\n      pop\n      jump\t// out\n        /* \"bitlime-periphery/contracts/Safemoon.sol\":3959:4140  function add(uint256 a, uint256 b) internal pure returns (uint256) {\r... */\n    tag_242:\n        /* \"bitlime-periphery/contracts/Safemoon.sol\":4017:4024  uint256 */\n      0x00\n        /* \"bitlime-periphery/contracts/Safemoon.sol\":4049:4054  a + b */\n      dup3\n      dup3\n      add\n        /* \"bitlime-periphery/contracts/Safemoon.sol\":4073:4079  c >= a */\n      dup4\n      dup2\n      lt\n      iszero\n        /* \"bitlime-periphery/contracts/Safemoon.sol\":4065:4111  require(c >= a, \"SafeMath: addition overflow\") */\n      tag_361\n      jumpi\n      0x40\n      dup1\n      mload\n      shl(0xe5, 0x461bcd)\n      dup2\n      mstore\n      0x20\n      0x04\n      dup3\n      add\n      mstore\n      0x1b\n      0x24\n      dup3\n      add\n      mstore\n      0x536166654d6174683a206164646974696f6e206f766572666c6f770000000000\n      0x44\n      dup3\n      add\n      mstore\n      swap1\n      mload\n      swap1\n      dup2\n      swap1\n      sub\n      0x64\n      add\n      swap1\n      revert\n        /* \"bitlime-periphery/contracts/Safemoon.sol\":34397:34816  function _getValues(uint256 tAmount) private view returns (uint256, uint256, uint256, uint256, uint256, uint256) {\r... */\n    tag_247:\n        /* \"bitlime-periphery/contracts/Safemoon.sol\":34456:34463  uint256 */\n      0x00\n        /* \"bitlime-periphery/contracts/Safemoon.sol\":34465:34472  uint256 */\n      dup1\n        /* \"bitlime-periphery/contracts/Safemoon.sol\":34474:34481  uint256 */\n      0x00\n        /* \"bitlime-periphery/contracts/Safemoon.sol\":34483:34490  uint256 */\n      dup1\n        /* \"bitlime-periphery/contracts/Safemoon.sol\":34492:34499  uint256 */\n      0x00\n        /* \"bitlime-periphery/contracts/Safemoon.sol\":34501:34508  uint256 */\n      dup1\n        /* \"bitlime-periphery/contracts/Safemoon.sol\":34522:34545  uint256 tTransferAmount */\n      0x00\n        /* \"bitlime-periphery/contracts/Safemoon.sol\":34547:34559  uint256 tFee */\n      dup1\n        /* \"bitlime-periphery/contracts/Safemoon.sol\":34561:34579  uint256 tLiquidity */\n      0x00\n        /* \"bitlime-periphery/contracts/Safemoon.sol\":34583:34603  _getTValues(tAmount) */\n      tag_366\n        /* \"bitlime-periphery/contracts/Safemoon.sol\":34595:34602  tAmount */\n      dup11\n        /* \"bitlime-periphery/contracts/Safemoon.sol\":34583:34594  _getTValues */\n      tag_367\n        /* \"bitlime-periphery/contracts/Safemoon.sol\":34583:34603  _getTValues(tAmount) */\n      jump\t// in\n    tag_366:\n        /* \"bitlime-periphery/contracts/Safemoon.sol\":34521:34603  (uint256 tTransferAmount, uint256 tFee, uint256 tLiquidity) = _getTValues(tAmount) */\n      swap3\n      pop\n      swap3\n      pop\n      swap3\n      pop\n        /* \"bitlime-periphery/contracts/Safemoon.sol\":34615:34630  uint256 rAmount */\n      0x00\n        /* \"bitlime-periphery/contracts/Safemoon.sol\":34632:34655  uint256 rTransferAmount */\n      dup1\n        /* \"bitlime-periphery/contracts/Safemoon.sol\":34657:34669  uint256 rFee */\n      0x00\n        /* \"bitlime-periphery/contracts/Safemoon.sol\":34673:34723  _getRValues(tAmount, tFee, tLiquidity, _getRate()) */\n      tag_368\n        /* \"bitlime-periphery/contracts/Safemoon.sol\":34685:34692  tAmount */\n      dup14\n        /* \"bitlime-periphery/contracts/Safemoon.sol\":34694:34698  tFee */\n      dup7\n        /* \"bitlime-periphery/contracts/Safemoon.sol\":34700:34710  tLiquidity */\n      dup7\n        /* \"bitlime-periphery/contracts/Safemoon.sol\":34712:34722  _getRate() */\n      tag_369\n        /* \"bitlime-periphery/contracts/Safemoon.sol\":34712:34720  _getRate */\n      tag_216\n        /* \"bitlime-periphery/contracts/Safemoon.sol\":34712:34722  _getRate() */\n      jump\t// in\n    tag_369:\n        /* \"bitlime-periphery/contracts/Safemoon.sol\":34673:34684  _getRValues */\n      tag_370\n        /* \"bitlime-periphery/contracts/Safemoon.sol\":34673:34723  _getRValues(tAmount, tFee, tLiquidity, _getRate()) */\n      jump\t// in\n    tag_368:\n        /* \"bitlime-periphery/contracts/Safemoon.sol\":34614:34723  (uint256 rAmount, uint256 rTransferAmount, uint256 rFee) = _getRValues(tAmount, tFee, tLiquidity, _getRate()) */\n      swap2\n      swap16\n      swap1\n      swap15\n      pop\n      swap1\n      swap13\n      pop\n        /* \"bitlime-periphery/contracts/Safemoon.sol\":34774:34789  tTransferAmount */\n      swap6\n      swap11\n      pop\n        /* \"bitlime-periphery/contracts/Safemoon.sol\":34791:34795  tFee */\n      swap4\n      swap9\n      pop\n        /* \"bitlime-periphery/contracts/Safemoon.sol\":34797:34807  tLiquidity */\n      swap2\n      swap7\n      pop\n        /* \"bitlime-periphery/contracts/Safemoon.sol\":34397:34816  function _getValues(uint256 tAmount) private view returns (uint256, uint256, uint256, uint256, uint256, uint256) {\r... */\n      swap3\n      swap5\n      pop\n      pop\n      pop\n      pop\n      pop\n      jump\t// out\n        /* \"bitlime-periphery/contracts/Safemoon.sol\":4423:4559  function sub(uint256 a, uint256 b) internal pure returns (uint256) {\r... */\n    tag_249:\n        /* \"bitlime-periphery/contracts/Safemoon.sol\":4481:4488  uint256 */\n      0x00\n        /* \"bitlime-periphery/contracts/Safemoon.sol\":4508:4551  sub(a, b, \"SafeMath: subtraction overflow\") */\n      tag_361\n        /* \"bitlime-periphery/contracts/Safemoon.sol\":4512:4513  a */\n      dup4\n        /* \"bitlime-periphery/contracts/Safemoon.sol\":4515:4516  b */\n      dup4\n        /* \"bitlime-periphery/contracts/Safemoon.sol\":4508:4551  sub(a, b, \"SafeMath: subtraction overflow\") */\n      mload(0x40)\n      dup1\n      0x40\n      add\n      0x40\n      mstore\n      dup1\n      0x1e\n      dup2\n      mstore\n      0x20\n      add\n      0x536166654d6174683a207375627472616374696f6e206f766572666c6f770000\n      dup2\n      mstore\n      pop\n        /* \"bitlime-periphery/contracts/Safemoon.sol\":4508:4511  sub */\n      tag_212\n        /* \"bitlime-periphery/contracts/Safemoon.sol\":4508:4551  sub(a, b, \"SafeMath: subtraction overflow\") */\n      jump\t// in\n        /* \"bitlime-periphery/contracts/Safemoon.sol\":5313:5784  function mul(uint256 a, uint256 b) internal pure returns (uint256) {\r... */\n    tag_310:\n        /* \"bitlime-periphery/contracts/Safemoon.sol\":5371:5378  uint256 */\n      0x00\n        /* \"bitlime-periphery/contracts/Safemoon.sol\":5616:5622  a == 0 */\n      dup3\n        /* \"bitlime-periphery/contracts/Safemoon.sol\":5612:5659  if (a == 0) {\r... */\n      tag_374\n      jumpi\n      pop\n        /* \"bitlime-periphery/contracts/Safemoon.sol\":5646:5647  0 */\n      0x00\n        /* \"bitlime-periphery/contracts/Safemoon.sol\":5639:5647  return 0 */\n      jump(tag_199)\n        /* \"bitlime-periphery/contracts/Safemoon.sol\":5612:5659  if (a == 0) {\r... */\n    tag_374:\n        /* \"bitlime-periphery/contracts/Safemoon.sol\":5683:5688  a * b */\n      dup3\n      dup3\n      mul\n        /* \"bitlime-periphery/contracts/Safemoon.sol\":5687:5688  b */\n      dup3\n        /* \"bitlime-periphery/contracts/Safemoon.sol\":5683:5684  a */\n      dup5\n        /* \"bitlime-periphery/contracts/Safemoon.sol\":5683:5688  a * b */\n      dup3\n        /* \"bitlime-periphery/contracts/Safemoon.sol\":5683:5684  a */\n      dup2\n        /* \"bitlime-periphery/contracts/Safemoon.sol\":5707:5712  c / a */\n      tag_375\n      jumpi\n      invalid\n    tag_375:\n      div\n        /* \"bitlime-periphery/contracts/Safemoon.sol\":5707:5717  c / a == b */\n      eq\n        /* \"bitlime-periphery/contracts/Safemoon.sol\":5699:5755  require(c / a == b, \"SafeMath: multiplication overflow\") */\n      tag_361\n      jumpi\n      mload(0x40)\n      shl(0xe5, 0x461bcd)\n      dup2\n      mstore\n      0x04\n      add\n      dup1\n      dup1\n      0x20\n      add\n      dup3\n      dup2\n      sub\n      dup3\n      mstore\n      0x21\n      dup2\n      mstore\n      0x20\n      add\n      dup1\n      data_9113bb53c2876a3805b2c9242029423fc540a728243ce887ab24c82cf119fba3\n      0x21\n      swap2\n      codecopy\n      0x40\n      add\n      swap2\n      pop\n      pop\n      mload(0x40)\n      dup1\n      swap2\n      sub\n      swap1\n      revert\n        /* \"bitlime-periphery/contracts/Safemoon.sol\":39746:40731  function swapAndLiquify(uint256 contractTokenBalance) private lockTheSwap {\r... */\n    tag_345:\n        /* \"bitlime-periphery/contracts/Safemoon.sol\":27680:27696  inSwapAndLiquify */\n      0x13\n        /* \"bitlime-periphery/contracts/Safemoon.sol\":27680:27703  inSwapAndLiquify = true */\n      dup1\n      sload\n      not(0xff)\n      and\n        /* \"bitlime-periphery/contracts/Safemoon.sol\":27699:27703  true */\n      0x01\n        /* \"bitlime-periphery/contracts/Safemoon.sol\":27680:27703  inSwapAndLiquify = true */\n      or\n      swap1\n      sstore\n        /* \"bitlime-periphery/contracts/Safemoon.sol\":27680:27696  inSwapAndLiquify */\n      0x00\n        /* \"bitlime-periphery/contracts/Safemoon.sol\":39897:39924  contractTokenBalance.div(2) */\n      tag_379\n        /* \"bitlime-periphery/contracts/Safemoon.sol\":39897:39917  contractTokenBalance */\n      dup3\n        /* \"bitlime-periphery/contracts/Safemoon.sol\":39922:39923  2 */\n      0x02\n        /* \"bitlime-periphery/contracts/Safemoon.sol\":39897:39924  contractTokenBalance.div(2) */\n      0xffffffff\n        /* \"bitlime-periphery/contracts/Safemoon.sol\":39897:39921  contractTokenBalance.div */\n      tag_218\n        /* \"bitlime-periphery/contracts/Safemoon.sol\":39897:39924  contractTokenBalance.div(2) */\n      and\n      jump\t// in\n    tag_379:\n        /* \"bitlime-periphery/contracts/Safemoon.sol\":39882:39924  uint256 half = contractTokenBalance.div(2) */\n      swap1\n      pop\n        /* \"bitlime-periphery/contracts/Safemoon.sol\":39935:39952  uint256 otherHalf */\n      0x00\n        /* \"bitlime-periphery/contracts/Safemoon.sol\":39955:39985  contractTokenBalance.sub(half) */\n      tag_380\n        /* \"bitlime-periphery/contracts/Safemoon.sol\":39955:39975  contractTokenBalance */\n      dup4\n        /* \"bitlime-periphery/contracts/Safemoon.sol\":39882:39924  uint256 half = contractTokenBalance.div(2) */\n      dup4\n        /* \"bitlime-periphery/contracts/Safemoon.sol\":39955:39985  contractTokenBalance.sub(half) */\n      0xffffffff\n        /* \"bitlime-periphery/contracts/Safemoon.sol\":39955:39979  contractTokenBalance.sub */\n      tag_249\n        /* \"bitlime-periphery/contracts/Safemoon.sol\":39955:39985  contractTokenBalance.sub(half) */\n      and\n      jump\t// in\n    tag_380:\n        /* \"bitlime-periphery/contracts/Safemoon.sol\":39935:39985  uint256 otherHalf = contractTokenBalance.sub(half) */\n      swap1\n      pop\n        /* \"bitlime-periphery/contracts/Safemoon.sol\":40288:40309  address(this).balance */\n      selfbalance\n        /* \"bitlime-periphery/contracts/Safemoon.sol\":40354:40376  swapTokensForEth(half) */\n      tag_381\n        /* \"bitlime-periphery/contracts/Safemoon.sol\":40371:40375  half */\n      dup4\n        /* \"bitlime-periphery/contracts/Safemoon.sol\":40354:40370  swapTokensForEth */\n      tag_382\n        /* \"bitlime-periphery/contracts/Safemoon.sol\":40354:40376  swapTokensForEth(half) */\n      jump\t// in\n    tag_381:\n        /* \"bitlime-periphery/contracts/Safemoon.sol\":40507:40525  uint256 newBalance */\n      0x00\n        /* \"bitlime-periphery/contracts/Safemoon.sol\":40528:40569  address(this).balance.sub(initialBalance) */\n      tag_383\n        /* \"bitlime-periphery/contracts/Safemoon.sol\":40528:40549  address(this).balance */\n      selfbalance\n        /* \"bitlime-periphery/contracts/Safemoon.sol\":40554:40568  initialBalance */\n      dup4\n        /* \"bitlime-periphery/contracts/Safemoon.sol\":40528:40569  address(this).balance.sub(initialBalance) */\n      0xffffffff\n        /* \"bitlime-periphery/contracts/Safemoon.sol\":40528:40553  address(this).balance.sub */\n      tag_249\n        /* \"bitlime-periphery/contracts/Safemoon.sol\":40528:40569  address(this).balance.sub(initialBalance) */\n      and\n      jump\t// in\n    tag_383:\n        /* \"bitlime-periphery/contracts/Safemoon.sol\":40507:40569  uint256 newBalance = address(this).balance.sub(initialBalance) */\n      swap1\n      pop\n        /* \"bitlime-periphery/contracts/Safemoon.sol\":40619:40654  addLiquidity(otherHalf, newBalance) */\n      tag_384\n        /* \"bitlime-periphery/contracts/Safemoon.sol\":40632:40641  otherHalf */\n      dup4\n        /* \"bitlime-periphery/contracts/Safemoon.sol\":40643:40653  newBalance */\n      dup3\n        /* \"bitlime-periphery/contracts/Safemoon.sol\":40619:40631  addLiquidity */\n      tag_385\n        /* \"bitlime-periphery/contracts/Safemoon.sol\":40619:40654  addLiquidity(otherHalf, newBalance) */\n      jump\t// in\n    tag_384:\n        /* \"bitlime-periphery/contracts/Safemoon.sol\":40680:40723  SwapAndLiquify(half, newBalance, otherHalf) */\n      0x40\n      dup1\n      mload\n      dup6\n      dup2\n      mstore\n      0x20\n      dup2\n      add\n      dup4\n      swap1\n      mstore\n      dup1\n      dup3\n      add\n      dup6\n      swap1\n      mstore\n      swap1\n      mload\n      0x17bbfb9a6069321b6ded73bd96327c9e6b7212a5cd51ff219cd61370acafb561\n      swap2\n      dup2\n      swap1\n      sub\n      0x60\n      add\n      swap1\n      log1\n      pop\n      pop\n        /* \"bitlime-periphery/contracts/Safemoon.sol\":27726:27742  inSwapAndLiquify */\n      0x13\n        /* \"bitlime-periphery/contracts/Safemoon.sol\":27726:27750  inSwapAndLiquify = false */\n      dup1\n      sload\n      not(0xff)\n      and\n      swap1\n      sstore\n      pop\n      pop\n      pop\n        /* \"bitlime-periphery/contracts/Safemoon.sol\":39746:40731  function swapAndLiquify(uint256 contractTokenBalance) private lockTheSwap {\r... */\n      jump\t// out\n        /* \"bitlime-periphery/contracts/Safemoon.sol\":41930:42764  function _tokenTransfer(address sender, address recipient, uint256 amount,bool takeFee) private {\r... */\n    tag_349:\n        /* \"bitlime-periphery/contracts/Safemoon.sol\":42041:42048  takeFee */\n      dup1\n        /* \"bitlime-periphery/contracts/Safemoon.sol\":42037:42077  if(!takeFee)\r... */\n      tag_388\n      jumpi\n        /* \"bitlime-periphery/contracts/Safemoon.sol\":42063:42077  removeAllFee() */\n      tag_388\n        /* \"bitlime-periphery/contracts/Safemoon.sol\":42063:42075  removeAllFee */\n      tag_389\n        /* \"bitlime-periphery/contracts/Safemoon.sol\":42063:42077  removeAllFee() */\n      jump\t// in\n    tag_388:\n      sub(shl(0xa0, 0x01), 0x01)\n        /* \"bitlime-periphery/contracts/Safemoon.sol\":42102:42121  _isExcluded[sender] */\n      dup5\n      and\n      0x00\n      swap1\n      dup2\n      mstore\n        /* \"bitlime-periphery/contracts/Safemoon.sol\":42102:42113  _isExcluded */\n      0x07\n        /* \"bitlime-periphery/contracts/Safemoon.sol\":42102:42121  _isExcluded[sender] */\n      0x20\n      mstore\n      0x40\n      swap1\n      keccak256\n      sload\n      0xff\n      and\n        /* \"bitlime-periphery/contracts/Safemoon.sol\":42102:42148  _isExcluded[sender] && !_isExcluded[recipient] */\n      dup1\n      iszero\n      tag_390\n      jumpi\n      pop\n      sub(shl(0xa0, 0x01), 0x01)\n        /* \"bitlime-periphery/contracts/Safemoon.sol\":42126:42148  _isExcluded[recipient] */\n      dup4\n      and\n      0x00\n      swap1\n      dup2\n      mstore\n        /* \"bitlime-periphery/contracts/Safemoon.sol\":42126:42137  _isExcluded */\n      0x07\n        /* \"bitlime-periphery/contracts/Safemoon.sol\":42126:42148  _isExcluded[recipient] */\n      0x20\n      mstore\n      0x40\n      swap1\n      keccak256\n      sload\n      0xff\n      and\n        /* \"bitlime-periphery/contracts/Safemoon.sol\":42125:42148  !_isExcluded[recipient] */\n      iszero\n        /* \"bitlime-periphery/contracts/Safemoon.sol\":42102:42148  _isExcluded[sender] && !_isExcluded[recipient] */\n    tag_390:\n        /* \"bitlime-periphery/contracts/Safemoon.sol\":42098:42695  if (_isExcluded[sender] && !_isExcluded[recipient]) {\r... */\n      iszero\n      tag_391\n      jumpi\n        /* \"bitlime-periphery/contracts/Safemoon.sol\":42165:42213  _transferFromExcluded(sender, recipient, amount) */\n      tag_392\n        /* \"bitlime-periphery/contracts/Safemoon.sol\":42187:42193  sender */\n      dup5\n        /* \"bitlime-periphery/contracts/Safemoon.sol\":42195:42204  recipient */\n      dup5\n        /* \"bitlime-periphery/contracts/Safemoon.sol\":42206:42212  amount */\n      dup5\n        /* \"bitlime-periphery/contracts/Safemoon.sol\":42165:42186  _transferFromExcluded */\n      tag_393\n        /* \"bitlime-periphery/contracts/Safemoon.sol\":42165:42213  _transferFromExcluded(sender, recipient, amount) */\n      jump\t// in\n    tag_392:\n        /* \"bitlime-periphery/contracts/Safemoon.sol\":42098:42695  if (_isExcluded[sender] && !_isExcluded[recipient]) {\r... */\n      jump(tag_410)\n    tag_391:\n      sub(shl(0xa0, 0x01), 0x01)\n        /* \"bitlime-periphery/contracts/Safemoon.sol\":42236:42255  _isExcluded[sender] */\n      dup5\n      and\n      0x00\n      swap1\n      dup2\n      mstore\n        /* \"bitlime-periphery/contracts/Safemoon.sol\":42236:42247  _isExcluded */\n      0x07\n        /* \"bitlime-periphery/contracts/Safemoon.sol\":42236:42255  _isExcluded[sender] */\n      0x20\n      mstore\n      0x40\n      swap1\n      keccak256\n      sload\n      0xff\n      and\n        /* \"bitlime-periphery/contracts/Safemoon.sol\":42235:42255  !_isExcluded[sender] */\n      iszero\n        /* \"bitlime-periphery/contracts/Safemoon.sol\":42235:42281  !_isExcluded[sender] && _isExcluded[recipient] */\n      dup1\n      iszero\n      tag_395\n      jumpi\n      pop\n      sub(shl(0xa0, 0x01), 0x01)\n        /* \"bitlime-periphery/contracts/Safemoon.sol\":42259:42281  _isExcluded[recipient] */\n      dup4\n      and\n      0x00\n      swap1\n      dup2\n      mstore\n        /* \"bitlime-periphery/contracts/Safemoon.sol\":42259:42270  _isExcluded */\n      0x07\n        /* \"bitlime-periphery/contracts/Safemoon.sol\":42259:42281  _isExcluded[recipient] */\n      0x20\n      mstore\n      0x40\n      swap1\n      keccak256\n      sload\n      0xff\n      and\n        /* \"bitlime-periphery/contracts/Safemoon.sol\":42235:42281  !_isExcluded[sender] && _isExcluded[recipient] */\n    tag_395:\n        /* \"bitlime-periphery/contracts/Safemoon.sol\":42231:42695  if (!_isExcluded[sender] && _isExcluded[recipient]) {\r... */\n      iszero\n      tag_396\n      jumpi\n        /* \"bitlime-periphery/contracts/Safemoon.sol\":42298:42344  _transferToExcluded(sender, recipient, amount) */\n      tag_392\n        /* \"bitlime-periphery/contracts/Safemoon.sol\":42318:42324  sender */\n      dup5\n        /* \"bitlime-periphery/contracts/Safemoon.sol\":42326:42335  recipient */\n      dup5\n        /* \"bitlime-periphery/contracts/Safemoon.sol\":42337:42343  amount */\n      dup5\n        /* \"bitlime-periphery/contracts/Safemoon.sol\":42298:42317  _transferToExcluded */\n      tag_398\n        /* \"bitlime-periphery/contracts/Safemoon.sol\":42298:42344  _transferToExcluded(sender, recipient, amount) */\n      jump\t// in\n        /* \"bitlime-periphery/contracts/Safemoon.sol\":42231:42695  if (!_isExcluded[sender] && _isExcluded[recipient]) {\r... */\n    tag_396:\n      sub(shl(0xa0, 0x01), 0x01)\n        /* \"bitlime-periphery/contracts/Safemoon.sol\":42367:42386  _isExcluded[sender] */\n      dup5\n      and\n      0x00\n      swap1\n      dup2\n      mstore\n        /* \"bitlime-periphery/contracts/Safemoon.sol\":42367:42378  _isExcluded */\n      0x07\n        /* \"bitlime-periphery/contracts/Safemoon.sol\":42367:42386  _isExcluded[sender] */\n      0x20\n      mstore\n      0x40\n      swap1\n      keccak256\n      sload\n      0xff\n      and\n        /* \"bitlime-periphery/contracts/Safemoon.sol\":42366:42386  !_isExcluded[sender] */\n      iszero\n        /* \"bitlime-periphery/contracts/Safemoon.sol\":42366:42413  !_isExcluded[sender] && !_isExcluded[recipient] */\n      dup1\n      iszero\n      tag_400\n      jumpi\n      pop\n      sub(shl(0xa0, 0x01), 0x01)\n        /* \"bitlime-periphery/contracts/Safemoon.sol\":42391:42413  _isExcluded[recipient] */\n      dup4\n      and\n      0x00\n      swap1\n      dup2\n      mstore\n        /* \"bitlime-periphery/contracts/Safemoon.sol\":42391:42402  _isExcluded */\n      0x07\n        /* \"bitlime-periphery/contracts/Safemoon.sol\":42391:42413  _isExcluded[recipient] */\n      0x20\n      mstore\n      0x40\n      swap1\n      keccak256\n      sload\n      0xff\n      and\n        /* \"bitlime-periphery/contracts/Safemoon.sol\":42390:42413  !_isExcluded[recipient] */\n      iszero\n        /* \"bitlime-periphery/contracts/Safemoon.sol\":42366:42413  !_isExcluded[sender] && !_isExcluded[recipient] */\n    tag_400:\n        /* \"bitlime-periphery/contracts/Safemoon.sol\":42362:42695  if (!_isExcluded[sender] && !_isExcluded[recipient]) {\r... */\n      iszero\n      tag_401\n      jumpi\n        /* \"bitlime-periphery/contracts/Safemoon.sol\":42430:42474  _transferStandard(sender, recipient, amount) */\n      tag_392\n        /* \"bitlime-periphery/contracts/Safemoon.sol\":42448:42454  sender */\n      dup5\n        /* \"bitlime-periphery/contracts/Safemoon.sol\":42456:42465  recipient */\n      dup5\n        /* \"bitlime-periphery/contracts/Safemoon.sol\":42467:42473  amount */\n      dup5\n        /* \"bitlime-periphery/contracts/Safemoon.sol\":42430:42447  _transferStandard */\n      tag_403\n        /* \"bitlime-periphery/contracts/Safemoon.sol\":42430:42474  _transferStandard(sender, recipient, amount) */\n      jump\t// in\n        /* \"bitlime-periphery/contracts/Safemoon.sol\":42362:42695  if (!_isExcluded[sender] && !_isExcluded[recipient]) {\r... */\n    tag_401:\n      sub(shl(0xa0, 0x01), 0x01)\n        /* \"bitlime-periphery/contracts/Safemoon.sol\":42496:42515  _isExcluded[sender] */\n      dup5\n      and\n      0x00\n      swap1\n      dup2\n      mstore\n        /* \"bitlime-periphery/contracts/Safemoon.sol\":42496:42507  _isExcluded */\n      0x07\n        /* \"bitlime-periphery/contracts/Safemoon.sol\":42496:42515  _isExcluded[sender] */\n      0x20\n      mstore\n      0x40\n      swap1\n      keccak256\n      sload\n      0xff\n      and\n        /* \"bitlime-periphery/contracts/Safemoon.sol\":42496:42541  _isExcluded[sender] && _isExcluded[recipient] */\n      dup1\n      iszero\n      tag_405\n      jumpi\n      pop\n      sub(shl(0xa0, 0x01), 0x01)\n        /* \"bitlime-periphery/contracts/Safemoon.sol\":42519:42541  _isExcluded[recipient] */\n      dup4\n      and\n      0x00\n      swap1\n      dup2\n      mstore\n        /* \"bitlime-periphery/contracts/Safemoon.sol\":42519:42530  _isExcluded */\n      0x07\n        /* \"bitlime-periphery/contracts/Safemoon.sol\":42519:42541  _isExcluded[recipient] */\n      0x20\n      mstore\n      0x40\n      swap1\n      keccak256\n      sload\n      0xff\n      and\n        /* \"bitlime-periphery/contracts/Safemoon.sol\":42496:42541  _isExcluded[sender] && _isExcluded[recipient] */\n    tag_405:\n        /* \"bitlime-periphery/contracts/Safemoon.sol\":42492:42695  if (_isExcluded[sender] && _isExcluded[recipient]) {\r... */\n      iszero\n      tag_406\n      jumpi\n        /* \"bitlime-periphery/contracts/Safemoon.sol\":42558:42606  _transferBothExcluded(sender, recipient, amount) */\n      tag_392\n        /* \"bitlime-periphery/contracts/Safemoon.sol\":42580:42586  sender */\n      dup5\n        /* \"bitlime-periphery/contracts/Safemoon.sol\":42588:42597  recipient */\n      dup5\n        /* \"bitlime-periphery/contracts/Safemoon.sol\":42599:42605  amount */\n      dup5\n        /* \"bitlime-periphery/contracts/Safemoon.sol\":42558:42579  _transferBothExcluded */\n      tag_408\n        /* \"bitlime-periphery/contracts/Safemoon.sol\":42558:42606  _transferBothExcluded(sender, recipient, amount) */\n      jump\t// in\n        /* \"bitlime-periphery/contracts/Safemoon.sol\":42492:42695  if (_isExcluded[sender] && _isExcluded[recipient]) {\r... */\n    tag_406:\n        /* \"bitlime-periphery/contracts/Safemoon.sol\":42639:42683  _transferStandard(sender, recipient, amount) */\n      tag_410\n        /* \"bitlime-periphery/contracts/Safemoon.sol\":42657:42663  sender */\n      dup5\n        /* \"bitlime-periphery/contracts/Safemoon.sol\":42665:42674  recipient */\n      dup5\n        /* \"bitlime-periphery/contracts/Safemoon.sol\":42676:42682  amount */\n      dup5\n        /* \"bitlime-periphery/contracts/Safemoon.sol\":42639:42656  _transferStandard */\n      tag_403\n        /* \"bitlime-periphery/contracts/Safemoon.sol\":42639:42683  _transferStandard(sender, recipient, amount) */\n      jump\t// in\n    tag_410:\n        /* \"bitlime-periphery/contracts/Safemoon.sol\":42719:42726  takeFee */\n      dup1\n        /* \"bitlime-periphery/contracts/Safemoon.sol\":42715:42756  if(!takeFee)\r... */\n      tag_412\n      jumpi\n        /* \"bitlime-periphery/contracts/Safemoon.sol\":42741:42756  restoreAllFee() */\n      tag_412\n        /* \"bitlime-periphery/contracts/Safemoon.sol\":42741:42754  restoreAllFee */\n      tag_413\n        /* \"bitlime-periphery/contracts/Safemoon.sol\":42741:42756  restoreAllFee() */\n      jump\t// in\n    tag_412:\n        /* \"bitlime-periphery/contracts/Safemoon.sol\":41930:42764  function _tokenTransfer(address sender, address recipient, uint256 amount,bool takeFee) private {\r... */\n      pop\n      pop\n      pop\n      pop\n      jump\t// out\n        /* \"bitlime-periphery/contracts/Safemoon.sol\":35770:36331  function _getCurrentSupply() private view returns(uint256, uint256) {\r... */\n    tag_358:\n        /* \"bitlime-periphery/contracts/Safemoon.sol\":35867:35874  _rTotal */\n      sload(0x0a)\n        /* \"bitlime-periphery/contracts/Safemoon.sol\":35903:35910  _tTotal */\n      sload(0x09)\n        /* \"bitlime-periphery/contracts/Safemoon.sol\":35820:35827  uint256 */\n      0x00\n      swap2\n      dup3\n      swap2\n      dup3\n        /* \"bitlime-periphery/contracts/Safemoon.sol\":35927:36216  for (uint256 i = 0; i < _excluded.length; i++) {\r... */\n    tag_415:\n        /* \"bitlime-periphery/contracts/Safemoon.sol\":35951:35960  _excluded */\n      0x08\n        /* \"bitlime-periphery/contracts/Safemoon.sol\":35951:35967  _excluded.length */\n      sload\n        /* \"bitlime-periphery/contracts/Safemoon.sol\":35947:35967  i < _excluded.length */\n      dup2\n      lt\n        /* \"bitlime-periphery/contracts/Safemoon.sol\":35927:36216  for (uint256 i = 0; i < _excluded.length; i++) {\r... */\n      iszero\n      tag_416\n      jumpi\n        /* \"bitlime-periphery/contracts/Safemoon.sol\":36017:36024  rSupply */\n      dup3\n        /* \"bitlime-periphery/contracts/Safemoon.sol\":35993:36000  _rOwned */\n      0x03\n        /* \"bitlime-periphery/contracts/Safemoon.sol\":35993:36014  _rOwned[_excluded[i]] */\n      0x00\n        /* \"bitlime-periphery/contracts/Safemoon.sol\":36001:36010  _excluded */\n      0x08\n        /* \"bitlime-periphery/contracts/Safemoon.sol\":36011:36012  i */\n      dup5\n        /* \"bitlime-periphery/contracts/Safemoon.sol\":36001:36013  _excluded[i] */\n      dup2\n      sload\n      dup2\n      lt\n      tag_418\n      jumpi\n      invalid\n    tag_418:\n      0x00\n      swap2\n      dup3\n      mstore\n      0x20\n      dup1\n      dup4\n      keccak256\n      swap1\n      swap2\n      add\n      sload\n      sub(shl(0xa0, 0x01), 0x01)\n      and\n        /* \"bitlime-periphery/contracts/Safemoon.sol\":35993:36014  _rOwned[_excluded[i]] */\n      dup4\n      mstore\n      dup3\n      add\n      swap3\n      swap1\n      swap3\n      mstore\n      0x40\n      add\n      swap1\n      keccak256\n      sload\n        /* \"bitlime-periphery/contracts/Safemoon.sol\":35993:36024  _rOwned[_excluded[i]] > rSupply */\n      gt\n      dup1\n        /* \"bitlime-periphery/contracts/Safemoon.sol\":35993:36059  _rOwned[_excluded[i]] > rSupply || _tOwned[_excluded[i]] > tSupply */\n      tag_420\n      jumpi\n      pop\n        /* \"bitlime-periphery/contracts/Safemoon.sol\":36052:36059  tSupply */\n      dup2\n        /* \"bitlime-periphery/contracts/Safemoon.sol\":36028:36035  _tOwned */\n      0x04\n        /* \"bitlime-periphery/contracts/Safemoon.sol\":36028:36049  _tOwned[_excluded[i]] */\n      0x00\n        /* \"bitlime-periphery/contracts/Safemoon.sol\":36036:36045  _excluded */\n      0x08\n        /* \"bitlime-periphery/contracts/Safemoon.sol\":36046:36047  i */\n      dup5\n        /* \"bitlime-periphery/contracts/Safemoon.sol\":36036:36048  _excluded[i] */\n      dup2\n      sload\n      dup2\n      lt\n      tag_421\n      jumpi\n      invalid\n    tag_421:\n      0x00\n      swap2\n      dup3\n      mstore\n      0x20\n      dup1\n      dup4\n      keccak256\n      swap1\n      swap2\n      add\n      sload\n      sub(shl(0xa0, 0x01), 0x01)\n      and\n        /* \"bitlime-periphery/contracts/Safemoon.sol\":36028:36049  _tOwned[_excluded[i]] */\n      dup4\n      mstore\n      dup3\n      add\n      swap3\n      swap1\n      swap3\n      mstore\n      0x40\n      add\n      swap1\n      keccak256\n      sload\n        /* \"bitlime-periphery/contracts/Safemoon.sol\":36028:36059  _tOwned[_excluded[i]] > tSupply */\n      gt\n        /* \"bitlime-periphery/contracts/Safemoon.sol\":35993:36059  _rOwned[_excluded[i]] > rSupply || _tOwned[_excluded[i]] > tSupply */\n    tag_420:\n        /* \"bitlime-periphery/contracts/Safemoon.sol\":35989:36086  if (_rOwned[_excluded[i]] > rSupply || _tOwned[_excluded[i]] > tSupply) return (_rTotal, _tTotal) */\n      iszero\n      tag_423\n      jumpi\n        /* \"bitlime-periphery/contracts/Safemoon.sol\":36069:36076  _rTotal */\n      sload(0x0a)\n        /* \"bitlime-periphery/contracts/Safemoon.sol\":36078:36085  _tTotal */\n      sload(0x09)\n        /* \"bitlime-periphery/contracts/Safemoon.sol\":36061:36086  return (_rTotal, _tTotal) */\n      swap5\n      pop\n      swap5\n      pop\n      pop\n      pop\n      pop\n      jump(tag_414)\n        /* \"bitlime-periphery/contracts/Safemoon.sol\":35989:36086  if (_rOwned[_excluded[i]] > rSupply || _tOwned[_excluded[i]] > tSupply) return (_rTotal, _tTotal) */\n    tag_423:\n        /* \"bitlime-periphery/contracts/Safemoon.sol\":36111:36145  rSupply.sub(_rOwned[_excluded[i]]) */\n      tag_424\n        /* \"bitlime-periphery/contracts/Safemoon.sol\":36123:36130  _rOwned */\n      0x03\n        /* \"bitlime-periphery/contracts/Safemoon.sol\":36123:36144  _rOwned[_excluded[i]] */\n      0x00\n        /* \"bitlime-periphery/contracts/Safemoon.sol\":36131:36140  _excluded */\n      0x08\n        /* \"bitlime-periphery/contracts/Safemoon.sol\":36141:36142  i */\n      dup5\n        /* \"bitlime-periphery/contracts/Safemoon.sol\":36131:36143  _excluded[i] */\n      dup2\n      sload\n      dup2\n      lt\n      tag_425\n      jumpi\n      invalid\n    tag_425:\n      0x00\n      swap2\n      dup3\n      mstore\n      0x20\n      dup1\n      dup4\n      keccak256\n      swap1\n      swap2\n      add\n      sload\n      sub(shl(0xa0, 0x01), 0x01)\n      and\n        /* \"bitlime-periphery/contracts/Safemoon.sol\":36123:36144  _rOwned[_excluded[i]] */\n      dup4\n      mstore\n      dup3\n      add\n      swap3\n      swap1\n      swap3\n      mstore\n      0x40\n      add\n      swap1\n      keccak256\n      sload\n        /* \"bitlime-periphery/contracts/Safemoon.sol\":36111:36118  rSupply */\n      dup5\n      swap1\n        /* \"bitlime-periphery/contracts/Safemoon.sol\":36111:36145  rSupply.sub(_rOwned[_excluded[i]]) */\n      0xffffffff\n        /* \"bitlime-periphery/contracts/Safemoon.sol\":36111:36122  rSupply.sub */\n      tag_249\n        /* \"bitlime-periphery/contracts/Safemoon.sol\":36111:36145  rSupply.sub(_rOwned[_excluded[i]]) */\n      and\n      jump\t// in\n    tag_424:\n        /* \"bitlime-periphery/contracts/Safemoon.sol\":36101:36145  rSupply = rSupply.sub(_rOwned[_excluded[i]]) */\n      swap3\n      pop\n        /* \"bitlime-periphery/contracts/Safemoon.sol\":36170:36204  tSupply.sub(_tOwned[_excluded[i]]) */\n      tag_427\n        /* \"bitlime-periphery/contracts/Safemoon.sol\":36182:36189  _tOwned */\n      0x04\n        /* \"bitlime-periphery/contracts/Safemoon.sol\":36182:36203  _tOwned[_excluded[i]] */\n      0x00\n        /* \"bitlime-periphery/contracts/Safemoon.sol\":36190:36199  _excluded */\n      0x08\n        /* \"bitlime-periphery/contracts/Safemoon.sol\":36200:36201  i */\n      dup5\n        /* \"bitlime-periphery/contracts/Safemoon.sol\":36190:36202  _excluded[i] */\n      dup2\n      sload\n      dup2\n      lt\n      tag_428\n      jumpi\n      invalid\n    tag_428:\n      0x00\n      swap2\n      dup3\n      mstore\n      0x20\n      dup1\n      dup4\n      keccak256\n      swap1\n      swap2\n      add\n      sload\n      sub(shl(0xa0, 0x01), 0x01)\n      and\n        /* \"bitlime-periphery/contracts/Safemoon.sol\":36182:36203  _tOwned[_excluded[i]] */\n      dup4\n      mstore\n      dup3\n      add\n      swap3\n      swap1\n      swap3\n      mstore\n      0x40\n      add\n      swap1\n      keccak256\n      sload\n        /* \"bitlime-periphery/contracts/Safemoon.sol\":36170:36177  tSupply */\n      dup4\n      swap1\n        /* \"bitlime-periphery/contracts/Safemoon.sol\":36170:36204  tSupply.sub(_tOwned[_excluded[i]]) */\n      0xffffffff\n        /* \"bitlime-periphery/contracts/Safemoon.sol\":36170:36181  tSupply.sub */\n      tag_249\n        /* \"bitlime-periphery/contracts/Safemoon.sol\":36170:36204  tSupply.sub(_tOwned[_excluded[i]]) */\n      and\n      jump\t// in\n    tag_427:\n        /* \"bitlime-periphery/contracts/Safemoon.sol\":36160:36204  tSupply = tSupply.sub(_tOwned[_excluded[i]]) */\n      swap2\n      pop\n        /* \"bitlime-periphery/contracts/Safemoon.sol\":35969:35972  i++ */\n      0x01\n      add\n        /* \"bitlime-periphery/contracts/Safemoon.sol\":35927:36216  for (uint256 i = 0; i < _excluded.length; i++) {\r... */\n      jump(tag_415)\n    tag_416:\n      pop\n        /* \"bitlime-periphery/contracts/Safemoon.sol\":36252:36259  _tTotal */\n      sload(0x09)\n        /* \"bitlime-periphery/contracts/Safemoon.sol\":36240:36247  _rTotal */\n      sload(0x0a)\n        /* \"bitlime-periphery/contracts/Safemoon.sol\":36240:36260  _rTotal.div(_tTotal) */\n      tag_430\n      swap2\n      0xffffffff\n        /* \"bitlime-periphery/contracts/Safemoon.sol\":36240:36251  _rTotal.div */\n      tag_218\n        /* \"bitlime-periphery/contracts/Safemoon.sol\":36240:36260  _rTotal.div(_tTotal) */\n      and\n      jump\t// in\n    tag_430:\n        /* \"bitlime-periphery/contracts/Safemoon.sol\":36230:36237  rSupply */\n      dup3\n        /* \"bitlime-periphery/contracts/Safemoon.sol\":36230:36260  rSupply < _rTotal.div(_tTotal) */\n      lt\n        /* \"bitlime-periphery/contracts/Safemoon.sol\":36226:36287  if (rSupply < _rTotal.div(_tTotal)) return (_rTotal, _tTotal) */\n      iszero\n      tag_431\n      jumpi\n        /* \"bitlime-periphery/contracts/Safemoon.sol\":36270:36277  _rTotal */\n      sload(0x0a)\n        /* \"bitlime-periphery/contracts/Safemoon.sol\":36279:36286  _tTotal */\n      sload(0x09)\n        /* \"bitlime-periphery/contracts/Safemoon.sol\":36262:36287  return (_rTotal, _tTotal) */\n      swap4\n      pop\n      swap4\n      pop\n      pop\n      pop\n      jump(tag_414)\n        /* \"bitlime-periphery/contracts/Safemoon.sol\":36226:36287  if (rSupply < _rTotal.div(_tTotal)) return (_rTotal, _tTotal) */\n    tag_431:\n        /* \"bitlime-periphery/contracts/Safemoon.sol\":36306:36313  rSupply */\n      swap1\n      swap3\n      pop\n        /* \"bitlime-periphery/contracts/Safemoon.sol\":36315:36322  tSupply */\n      swap1\n      pop\n        /* \"bitlime-periphery/contracts/Safemoon.sol\":35770:36331  function _getCurrentSupply() private view returns(uint256, uint256) {\r... */\n    tag_414:\n      swap1\n      swap2\n      jump\t// out\n        /* \"bitlime-periphery/contracts/Safemoon.sol\":6888:7166  function div(uint256 a, uint256 b, string memory errorMessage) internal pure returns (uint256) {\r... */\n    tag_362:\n        /* \"bitlime-periphery/contracts/Safemoon.sol\":6974:6981  uint256 */\n      0x00\n        /* \"bitlime-periphery/contracts/Safemoon.sol\":7009:7021  errorMessage */\n      dup2\n        /* \"bitlime-periphery/contracts/Safemoon.sol\":7002:7007  b > 0 */\n      dup4\n        /* \"bitlime-periphery/contracts/Safemoon.sol\":6994:7022  require(b > 0, errorMessage) */\n      tag_433\n      jumpi\n      mload(0x40)\n      shl(0xe5, 0x461bcd)\n      dup2\n      mstore\n      0x20\n      0x04\n      dup3\n      add\n      dup2\n      dup2\n      mstore\n      dup4\n      mload\n      0x24\n      dup5\n      add\n      mstore\n      dup4\n      mload\n      swap1\n      swap3\n      dup4\n      swap3\n      0x44\n      swap1\n      swap2\n      add\n      swap2\n      swap1\n      dup6\n      add\n      swap1\n      dup1\n      dup4\n      dup4\n      0x00\n        /* \"--CODEGEN--\":27:37   */\n      dup4\n      iszero\n        /* \"--CODEGEN--\":8:108   */\n      tag_354\n      jumpi\n        /* \"--CODEGEN--\":90:101   */\n      dup2\n      dup2\n      add\n        /* \"--CODEGEN--\":84:102   */\n      mload\n        /* \"--CODEGEN--\":71:82   */\n      dup4\n      dup3\n      add\n        /* \"--CODEGEN--\":64:103   */\n      mstore\n        /* \"--CODEGEN--\":52:54   */\n      0x20\n        /* \"--CODEGEN--\":45:55   */\n      add\n        /* \"--CODEGEN--\":8:108   */\n      jump(tag_352)\n        /* \"bitlime-periphery/contracts/Safemoon.sol\":6994:7022  require(b > 0, errorMessage) */\n    tag_433:\n      pop\n        /* \"bitlime-periphery/contracts/Safemoon.sol\":7033:7042  uint256 c */\n      0x00\n        /* \"bitlime-periphery/contracts/Safemoon.sol\":7049:7050  b */\n      dup4\n        /* \"bitlime-periphery/contracts/Safemoon.sol\":7045:7046  a */\n      dup6\n        /* \"bitlime-periphery/contracts/Safemoon.sol\":7045:7050  a / b */\n      dup2\n      tag_438\n      jumpi\n      invalid\n    tag_438:\n      div\n      swap6\n        /* \"bitlime-periphery/contracts/Safemoon.sol\":6888:7166  function div(uint256 a, uint256 b, string memory errorMessage) internal pure returns (uint256) {\r... */\n      swap5\n      pop\n      pop\n      pop\n      pop\n      pop\n      jump\t// out\n        /* \"bitlime-periphery/contracts/Safemoon.sol\":34824:35154  function _getTValues(uint256 tAmount) private view returns (uint256, uint256, uint256) {\r... */\n    tag_367:\n        /* \"bitlime-periphery/contracts/Safemoon.sol\":34884:34891  uint256 */\n      0x00\n        /* \"bitlime-periphery/contracts/Safemoon.sol\":34893:34900  uint256 */\n      dup1\n        /* \"bitlime-periphery/contracts/Safemoon.sol\":34902:34909  uint256 */\n      0x00\n        /* \"bitlime-periphery/contracts/Safemoon.sol\":34922:34934  uint256 tFee */\n      dup1\n        /* \"bitlime-periphery/contracts/Safemoon.sol\":34937:34961  calculateTaxFee(tAmount) */\n      tag_440\n        /* \"bitlime-periphery/contracts/Safemoon.sol\":34953:34960  tAmount */\n      dup6\n        /* \"bitlime-periphery/contracts/Safemoon.sol\":34937:34952  calculateTaxFee */\n      tag_441\n        /* \"bitlime-periphery/contracts/Safemoon.sol\":34937:34961  calculateTaxFee(tAmount) */\n      jump\t// in\n    tag_440:\n        /* \"bitlime-periphery/contracts/Safemoon.sol\":34922:34961  uint256 tFee = calculateTaxFee(tAmount) */\n      swap1\n      pop\n        /* \"bitlime-periphery/contracts/Safemoon.sol\":34972:34990  uint256 tLiquidity */\n      0x00\n        /* \"bitlime-periphery/contracts/Safemoon.sol\":34993:35023  calculateLiquidityFee(tAmount) */\n      tag_442\n        /* \"bitlime-periphery/contracts/Safemoon.sol\":35015:35022  tAmount */\n      dup7\n        /* \"bitlime-periphery/contracts/Safemoon.sol\":34993:35014  calculateLiquidityFee */\n      tag_443\n        /* \"bitlime-periphery/contracts/Safemoon.sol\":34993:35023  calculateLiquidityFee(tAmount) */\n      jump\t// in\n    tag_442:\n        /* \"bitlime-periphery/contracts/Safemoon.sol\":34972:35023  uint256 tLiquidity = calculateLiquidityFee(tAmount) */\n      swap1\n      pop\n        /* \"bitlime-periphery/contracts/Safemoon.sol\":35034:35057  uint256 tTransferAmount */\n      0x00\n        /* \"bitlime-periphery/contracts/Safemoon.sol\":35060:35093  tAmount.sub(tFee).sub(tLiquidity) */\n      tag_444\n        /* \"bitlime-periphery/contracts/Safemoon.sol\":34972:35023  uint256 tLiquidity = calculateLiquidityFee(tAmount) */\n      dup3\n        /* \"bitlime-periphery/contracts/Safemoon.sol\":35060:35077  tAmount.sub(tFee) */\n      tag_445\n        /* \"bitlime-periphery/contracts/Safemoon.sol\":35060:35067  tAmount */\n      dup10\n        /* \"bitlime-periphery/contracts/Safemoon.sol\":35072:35076  tFee */\n      dup7\n        /* \"bitlime-periphery/contracts/Safemoon.sol\":35060:35077  tAmount.sub(tFee) */\n      0xffffffff\n        /* \"bitlime-periphery/contracts/Safemoon.sol\":35060:35071  tAmount.sub */\n      tag_249\n        /* \"bitlime-periphery/contracts/Safemoon.sol\":35060:35077  tAmount.sub(tFee) */\n      and\n      jump\t// in\n    tag_445:\n        /* \"bitlime-periphery/contracts/Safemoon.sol\":35060:35081  tAmount.sub(tFee).sub */\n      swap1\n        /* \"bitlime-periphery/contracts/Safemoon.sol\":35060:35093  tAmount.sub(tFee).sub(tLiquidity) */\n      0xffffffff\n        /* \"bitlime-periphery/contracts/Safemoon.sol\":35060:35081  tAmount.sub(tFee).sub */\n      tag_249\n        /* \"bitlime-periphery/contracts/Safemoon.sol\":35060:35093  tAmount.sub(tFee).sub(tLiquidity) */\n      and\n      jump\t// in\n    tag_444:\n        /* \"bitlime-periphery/contracts/Safemoon.sol\":35034:35093  uint256 tTransferAmount = tAmount.sub(tFee).sub(tLiquidity) */\n      swap8\n        /* \"bitlime-periphery/contracts/Safemoon.sol\":35129:35133  tFee */\n      swap3\n      swap7\n      pop\n        /* \"bitlime-periphery/contracts/Safemoon.sol\":35135:35145  tLiquidity */\n      swap1\n      swap5\n      pop\n        /* \"bitlime-periphery/contracts/Safemoon.sol\":34824:35154  function _getTValues(uint256 tAmount) private view returns (uint256, uint256, uint256) {\r... */\n      swap1\n      swap3\n      pop\n      pop\n      pop\n      jump\t// out\n        /* \"bitlime-periphery/contracts/Safemoon.sol\":35162:35591  function _getRValues(uint256 tAmount, uint256 tFee, uint256 tLiquidity, uint256 currentRate) private pure returns (uint256, uint256, uint256) {\r... */\n    tag_370:\n        /* \"bitlime-periphery/contracts/Safemoon.sol\":35277:35284  uint256 */\n      0x00\n      dup1\n      dup1\n      dup1\n        /* \"bitlime-periphery/contracts/Safemoon.sol\":35333:35357  tAmount.mul(currentRate) */\n      tag_447\n        /* \"bitlime-periphery/contracts/Safemoon.sol\":35333:35340  tAmount */\n      dup9\n        /* \"bitlime-periphery/contracts/Safemoon.sol\":35345:35356  currentRate */\n      dup7\n        /* \"bitlime-periphery/contracts/Safemoon.sol\":35333:35357  tAmount.mul(currentRate) */\n      0xffffffff\n        /* \"bitlime-periphery/contracts/Safemoon.sol\":35333:35344  tAmount.mul */\n      tag_310\n        /* \"bitlime-periphery/contracts/Safemoon.sol\":35333:35357  tAmount.mul(currentRate) */\n      and\n      jump\t// in\n    tag_447:\n        /* \"bitlime-periphery/contracts/Safemoon.sol\":35315:35357  uint256 rAmount = tAmount.mul(currentRate) */\n      swap1\n      pop\n        /* \"bitlime-periphery/contracts/Safemoon.sol\":35368:35380  uint256 rFee */\n      0x00\n        /* \"bitlime-periphery/contracts/Safemoon.sol\":35383:35404  tFee.mul(currentRate) */\n      tag_448\n        /* \"bitlime-periphery/contracts/Safemoon.sol\":35383:35387  tFee */\n      dup9\n        /* \"bitlime-periphery/contracts/Safemoon.sol\":35392:35403  currentRate */\n      dup8\n        /* \"bitlime-periphery/contracts/Safemoon.sol\":35383:35404  tFee.mul(currentRate) */\n      0xffffffff\n        /* \"bitlime-periphery/contracts/Safemoon.sol\":35383:35391  tFee.mul */\n      tag_310\n        /* \"bitlime-periphery/contracts/Safemoon.sol\":35383:35404  tFee.mul(currentRate) */\n      and\n      jump\t// in\n    tag_448:\n        /* \"bitlime-periphery/contracts/Safemoon.sol\":35368:35404  uint256 rFee = tFee.mul(currentRate) */\n      swap1\n      pop\n        /* \"bitlime-periphery/contracts/Safemoon.sol\":35415:35433  uint256 rLiquidity */\n      0x00\n        /* \"bitlime-periphery/contracts/Safemoon.sol\":35436:35463  tLiquidity.mul(currentRate) */\n      tag_449\n        /* \"bitlime-periphery/contracts/Safemoon.sol\":35436:35446  tLiquidity */\n      dup9\n        /* \"bitlime-periphery/contracts/Safemoon.sol\":35451:35462  currentRate */\n      dup9\n        /* \"bitlime-periphery/contracts/Safemoon.sol\":35436:35463  tLiquidity.mul(currentRate) */\n      0xffffffff\n        /* \"bitlime-periphery/contracts/Safemoon.sol\":35436:35450  tLiquidity.mul */\n      tag_310\n        /* \"bitlime-periphery/contracts/Safemoon.sol\":35436:35463  tLiquidity.mul(currentRate) */\n      and\n      jump\t// in\n    tag_449:\n        /* \"bitlime-periphery/contracts/Safemoon.sol\":35415:35463  uint256 rLiquidity = tLiquidity.mul(currentRate) */\n      swap1\n      pop\n        /* \"bitlime-periphery/contracts/Safemoon.sol\":35474:35497  uint256 rTransferAmount */\n      0x00\n        /* \"bitlime-periphery/contracts/Safemoon.sol\":35500:35533  rAmount.sub(rFee).sub(rLiquidity) */\n      tag_450\n        /* \"bitlime-periphery/contracts/Safemoon.sol\":35415:35463  uint256 rLiquidity = tLiquidity.mul(currentRate) */\n      dup3\n        /* \"bitlime-periphery/contracts/Safemoon.sol\":35500:35517  rAmount.sub(rFee) */\n      tag_445\n        /* \"bitlime-periphery/contracts/Safemoon.sol\":35500:35507  rAmount */\n      dup7\n        /* \"bitlime-periphery/contracts/Safemoon.sol\":35512:35516  rFee */\n      dup7\n        /* \"bitlime-periphery/contracts/Safemoon.sol\":35500:35517  rAmount.sub(rFee) */\n      0xffffffff\n        /* \"bitlime-periphery/contracts/Safemoon.sol\":35500:35511  rAmount.sub */\n      tag_249\n        /* \"bitlime-periphery/contracts/Safemoon.sol\":35500:35517  rAmount.sub(rFee) */\n      and\n      jump\t// in\n        /* \"bitlime-periphery/contracts/Safemoon.sol\":35500:35533  rAmount.sub(rFee).sub(rLiquidity) */\n    tag_450:\n        /* \"bitlime-periphery/contracts/Safemoon.sol\":35552:35559  rAmount */\n      swap4\n      swap12\n      swap4\n      swap11\n      pop\n        /* \"bitlime-periphery/contracts/Safemoon.sol\":35578:35582  rFee */\n      swap2\n      swap9\n      pop\n        /* \"bitlime-periphery/contracts/Safemoon.sol\":35162:35591  function _getRValues(uint256 tAmount, uint256 tFee, uint256 tLiquidity, uint256 currentRate) private pure returns (uint256, uint256, uint256) {\r... */\n      swap2\n      swap7\n      pop\n      pop\n      pop\n      pop\n      pop\n      pop\n      pop\n      jump\t// out\n        /* \"bitlime-periphery/contracts/Safemoon.sol\":40739:41328  function swapTokensForEth(uint256 tokenAmount) private {\r... */\n    tag_382:\n        /* \"bitlime-periphery/contracts/Safemoon.sol\":40889:40905  new address[](2) */\n      0x40\n      dup1\n      mload\n        /* \"bitlime-periphery/contracts/Safemoon.sol\":40903:40904  2 */\n      0x02\n        /* \"bitlime-periphery/contracts/Safemoon.sol\":40889:40905  new address[](2) */\n      dup1\n      dup3\n      mstore\n        /* \"bitlime-periphery/contracts/Safemoon.sol\":40865:40886  address[] memory path */\n      0x60\n        /* \"bitlime-periphery/contracts/Safemoon.sol\":40889:40905  new address[](2) */\n      dup1\n      dup4\n      add\n      dup5\n      mstore\n        /* \"bitlime-periphery/contracts/Safemoon.sol\":40865:40886  address[] memory path */\n      swap3\n        /* \"bitlime-periphery/contracts/Safemoon.sol\":40889:40905  new address[](2) */\n      0x20\n      dup4\n      add\n      swap1\n      dup1\n        /* \"--CODEGEN--\":109:123   */\n      calldatasize\n        /* \"bitlime-periphery/contracts/Safemoon.sol\":40889:40905  new address[](2) */\n      dup4\n        /* \"--CODEGEN--\":88:130   */\n      calldatacopy\n        /* \"--CODEGEN--\":144:161   */\n      add\n      swap1\n      pop\n        /* \"bitlime-periphery/contracts/Safemoon.sol\":40889:40905  new address[](2) */\n      pop\n        /* \"bitlime-periphery/contracts/Safemoon.sol\":40865:40905  address[] memory path = new address[](2) */\n      swap1\n      pop\n        /* \"bitlime-periphery/contracts/Safemoon.sol\":40934:40938  this */\n      address\n        /* \"bitlime-periphery/contracts/Safemoon.sol\":40916:40920  path */\n      dup2\n        /* \"bitlime-periphery/contracts/Safemoon.sol\":40921:40922  0 */\n      0x00\n        /* \"bitlime-periphery/contracts/Safemoon.sol\":40916:40923  path[0] */\n      dup2\n      mload\n      dup2\n      lt\n      tag_455\n      jumpi\n      invalid\n    tag_455:\n      0x20\n      mul\n      0x20\n      add\n      add\n        /* \"bitlime-periphery/contracts/Safemoon.sol\":40916:40939  path[0] = address(this) */\n      swap1\n      sub(shl(0xa0, 0x01), 0x01)\n      and\n      swap1\n      dup2\n      sub(shl(0xa0, 0x01), 0x01)\n      and\n      dup2\n      mstore\n      pop\n      pop\n        /* \"bitlime-periphery/contracts/Safemoon.sol\":40960:40975  uniswapV2Router */\n      immutable(\"0xfc57b5902f0023899e1247e2ff263b1dfd650a9d73b378b1a0bb28583d7847fc\")\n      sub(shl(0xa0, 0x01), 0x01)\n        /* \"bitlime-periphery/contracts/Safemoon.sol\":40960:40980  uniswapV2Router.WETH */\n      and\n      0xad5c4648\n        /* \"bitlime-periphery/contracts/Safemoon.sol\":40960:40982  uniswapV2Router.WETH() */\n      mload(0x40)\n      dup2\n      0xffffffff\n      and\n      0xe0\n      shl\n      dup2\n      mstore\n      0x04\n      add\n      0x20\n      mload(0x40)\n      dup1\n      dup4\n      sub\n      dup2\n      dup7\n      dup1\n      extcodesize\n      iszero\n        /* \"--CODEGEN--\":5:14   */\n      dup1\n        /* \"--CODEGEN--\":2:4   */\n      iszero\n      tag_456\n      jumpi\n        /* \"--CODEGEN--\":27:28   */\n      0x00\n        /* \"--CODEGEN--\":24:25   */\n      dup1\n        /* \"--CODEGEN--\":17:29   */\n      revert\n        /* \"--CODEGEN--\":2:4   */\n    tag_456:\n        /* \"bitlime-periphery/contracts/Safemoon.sol\":40960:40982  uniswapV2Router.WETH() */\n      pop\n      gas\n      staticcall\n      iszero\n        /* \"--CODEGEN--\":8:17   */\n      dup1\n        /* \"--CODEGEN--\":5:7   */\n      iszero\n      tag_458\n      jumpi\n        /* \"--CODEGEN--\":45:61   */\n      returndatasize\n        /* \"--CODEGEN--\":42:43   */\n      0x00\n        /* \"--CODEGEN--\":39:40   */\n      dup1\n        /* \"--CODEGEN--\":24:62   */\n      returndatacopy\n        /* \"--CODEGEN--\":77:93   */\n      returndatasize\n        /* \"--CODEGEN--\":74:75   */\n      0x00\n        /* \"--CODEGEN--\":67:94   */\n      revert\n        /* \"--CODEGEN--\":5:7   */\n    tag_458:\n        /* \"bitlime-periphery/contracts/Safemoon.sol\":40960:40982  uniswapV2Router.WETH() */\n      pop\n      pop\n      pop\n      pop\n      mload(0x40)\n      returndatasize\n        /* \"--CODEGEN--\":15:17   */\n      0x20\n        /* \"--CODEGEN--\":10:13   */\n      dup2\n        /* \"--CODEGEN--\":7:18   */\n      lt\n        /* \"--CODEGEN--\":4:6   */\n      iszero\n      tag_459\n      jumpi\n        /* \"--CODEGEN--\":31:32   */\n      0x00\n        /* \"--CODEGEN--\":28:29   */\n      dup1\n        /* \"--CODEGEN--\":21:33   */\n      revert\n        /* \"--CODEGEN--\":4:6   */\n    tag_459:\n      pop\n        /* \"bitlime-periphery/contracts/Safemoon.sol\":40960:40982  uniswapV2Router.WETH() */\n      mload\n        /* \"bitlime-periphery/contracts/Safemoon.sol\":40950:40957  path[1] */\n      dup2\n      mload\n        /* \"bitlime-periphery/contracts/Safemoon.sol\":40950:40954  path */\n      dup3\n      swap1\n        /* \"bitlime-periphery/contracts/Safemoon.sol\":40955:40956  1 */\n      0x01\n      swap1\n        /* \"bitlime-periphery/contracts/Safemoon.sol\":40950:40957  path[1] */\n      dup2\n      lt\n      tag_460\n      jumpi\n      invalid\n    tag_460:\n      0x20\n      mul\n      0x20\n      add\n      add\n        /* \"bitlime-periphery/contracts/Safemoon.sol\":40950:40982  path[1] = uniswapV2Router.WETH() */\n      swap1\n      sub(shl(0xa0, 0x01), 0x01)\n      and\n      swap1\n      dup2\n      sub(shl(0xa0, 0x01), 0x01)\n      and\n      dup2\n      mstore\n      pop\n      pop\n        /* \"bitlime-periphery/contracts/Safemoon.sol\":40995:41057  _approve(address(this), address(uniswapV2Router), tokenAmount) */\n      tag_461\n        /* \"bitlime-periphery/contracts/Safemoon.sol\":41012:41016  this */\n      address\n        /* \"bitlime-periphery/contracts/Safemoon.sol\":41027:41042  uniswapV2Router */\n      immutable(\"0xfc57b5902f0023899e1247e2ff263b1dfd650a9d73b378b1a0bb28583d7847fc\")\n        /* \"bitlime-periphery/contracts/Safemoon.sol\":41045:41056  tokenAmount */\n      dup5\n        /* \"bitlime-periphery/contracts/Safemoon.sol\":40995:41003  _approve */\n      tag_202\n        /* \"bitlime-periphery/contracts/Safemoon.sol\":40995:41057  _approve(address(this), address(uniswapV2Router), tokenAmount) */\n      jump\t// in\n    tag_461:\n        /* \"bitlime-periphery/contracts/Safemoon.sol\":41096:41111  uniswapV2Router */\n      immutable(\"0xfc57b5902f0023899e1247e2ff263b1dfd650a9d73b378b1a0bb28583d7847fc\")\n      sub(shl(0xa0, 0x01), 0x01)\n        /* \"bitlime-periphery/contracts/Safemoon.sol\":41096:41162  uniswapV2Router.swapExactTokensForETHSupportingFeeOnTransferTokens */\n      and\n      0x791ac947\n        /* \"bitlime-periphery/contracts/Safemoon.sol\":41177:41188  tokenAmount */\n      dup4\n        /* \"bitlime-periphery/contracts/Safemoon.sol\":41203:41204  0 */\n      0x00\n        /* \"bitlime-periphery/contracts/Safemoon.sol\":41247:41251  path */\n      dup5\n        /* \"bitlime-periphery/contracts/Safemoon.sol\":41274:41278  this */\n      address\n        /* \"bitlime-periphery/contracts/Safemoon.sol\":41294:41309  block.timestamp */\n      timestamp\n        /* \"bitlime-periphery/contracts/Safemoon.sol\":41096:41320  uniswapV2Router.swapExactTokensForETHSupportingFeeOnTransferTokens(\r... */\n      mload(0x40)\n      dup7\n      0xffffffff\n      and\n      0xe0\n      shl\n      dup2\n      mstore\n      0x04\n      add\n      dup1\n      dup7\n      dup2\n      mstore\n      0x20\n      add\n      dup6\n      dup2\n      mstore\n      0x20\n      add\n      dup1\n      0x20\n      add\n      dup5\n      sub(shl(0xa0, 0x01), 0x01)\n      and\n      sub(shl(0xa0, 0x01), 0x01)\n      and\n      dup2\n      mstore\n      0x20\n      add\n      dup4\n      dup2\n      mstore\n      0x20\n      add\n      dup3\n      dup2\n      sub\n      dup3\n      mstore\n      dup6\n      dup2\n      dup2\n      mload\n      dup2\n      mstore\n      0x20\n      add\n      swap2\n      pop\n      dup1\n      mload\n      swap1\n      0x20\n      add\n      swap1\n      0x20\n      mul\n      dup1\n      dup4\n      dup4\n        /* \"--CODEGEN--\":23:24   */\n      0x00\n        /* \"--CODEGEN--\":8:108   */\n    tag_462:\n        /* \"--CODEGEN--\":33:36   */\n      dup4\n        /* \"--CODEGEN--\":30:31   */\n      dup2\n        /* \"--CODEGEN--\":27:37   */\n      lt\n        /* \"--CODEGEN--\":8:108   */\n      iszero\n      tag_464\n      jumpi\n        /* \"--CODEGEN--\":90:101   */\n      dup2\n      dup2\n      add\n        /* \"--CODEGEN--\":84:102   */\n      mload\n        /* \"--CODEGEN--\":71:82   */\n      dup4\n      dup3\n      add\n        /* \"--CODEGEN--\":64:103   */\n      mstore\n        /* \"--CODEGEN--\":52:54   */\n      0x20\n        /* \"--CODEGEN--\":45:55   */\n      add\n        /* \"--CODEGEN--\":8:108   */\n      jump(tag_462)\n    tag_464:\n        /* \"--CODEGEN--\":12:26   */\n      pop\n        /* \"bitlime-periphery/contracts/Safemoon.sol\":41096:41320  uniswapV2Router.swapExactTokensForETHSupportingFeeOnTransferTokens(\r... */\n      pop\n      pop\n      pop\n      swap1\n      pop\n      add\n      swap7\n      pop\n      pop\n      pop\n      pop\n      pop\n      pop\n      pop\n      0x00\n      mload(0x40)\n      dup1\n      dup4\n      sub\n      dup2\n      0x00\n      dup8\n      dup1\n      extcodesize\n      iszero\n        /* \"--CODEGEN--\":5:14   */\n      dup1\n        /* \"--CODEGEN--\":2:4   */\n      iszero\n      tag_465\n      jumpi\n        /* \"--CODEGEN--\":27:28   */\n      0x00\n        /* \"--CODEGEN--\":24:25   */\n      dup1\n        /* \"--CODEGEN--\":17:29   */\n      revert\n        /* \"--CODEGEN--\":2:4   */\n    tag_465:\n        /* \"bitlime-periphery/contracts/Safemoon.sol\":41096:41320  uniswapV2Router.swapExactTokensForETHSupportingFeeOnTransferTokens(\r... */\n      pop\n      gas\n      call\n      iszero\n        /* \"--CODEGEN--\":8:17   */\n      dup1\n        /* \"--CODEGEN--\":5:7   */\n      iszero\n      tag_348\n      jumpi\n        /* \"--CODEGEN--\":45:61   */\n      returndatasize\n        /* \"--CODEGEN--\":42:43   */\n      0x00\n        /* \"--CODEGEN--\":39:40   */\n      dup1\n        /* \"--CODEGEN--\":24:62   */\n      returndatacopy\n        /* \"--CODEGEN--\":77:93   */\n      returndatasize\n        /* \"--CODEGEN--\":74:75   */\n      0x00\n        /* \"--CODEGEN--\":67:94   */\n      revert\n        /* \"bitlime-periphery/contracts/Safemoon.sol\":41336:41849  function addLiquidity(uint256 tokenAmount, uint256 ethAmount) private {\r... */\n    tag_385:\n        /* \"bitlime-periphery/contracts/Safemoon.sol\":41484:41546  _approve(address(this), address(uniswapV2Router), tokenAmount) */\n      tag_469\n        /* \"bitlime-periphery/contracts/Safemoon.sol\":41501:41505  this */\n      address\n        /* \"bitlime-periphery/contracts/Safemoon.sol\":41516:41531  uniswapV2Router */\n      immutable(\"0xfc57b5902f0023899e1247e2ff263b1dfd650a9d73b378b1a0bb28583d7847fc\")\n        /* \"bitlime-periphery/contracts/Safemoon.sol\":41534:41545  tokenAmount */\n      dup5\n        /* \"bitlime-periphery/contracts/Safemoon.sol\":41484:41492  _approve */\n      tag_202\n        /* \"bitlime-periphery/contracts/Safemoon.sol\":41484:41546  _approve(address(this), address(uniswapV2Router), tokenAmount) */\n      jump\t// in\n    tag_469:\n        /* \"bitlime-periphery/contracts/Safemoon.sol\":41589:41604  uniswapV2Router */\n      immutable(\"0xfc57b5902f0023899e1247e2ff263b1dfd650a9d73b378b1a0bb28583d7847fc\")\n      sub(shl(0xa0, 0x01), 0x01)\n        /* \"bitlime-periphery/contracts/Safemoon.sol\":41589:41620  uniswapV2Router.addLiquidityETH */\n      and\n      0xf305d719\n        /* \"bitlime-periphery/contracts/Safemoon.sol\":41628:41637  ethAmount */\n      dup3\n        /* \"bitlime-periphery/contracts/Safemoon.sol\":41661:41665  this */\n      address\n        /* \"bitlime-periphery/contracts/Safemoon.sol\":41681:41692  tokenAmount */\n      dup6\n        /* \"bitlime-periphery/contracts/Safemoon.sol\":41707:41708  0 */\n      0x00\n        /* \"bitlime-periphery/contracts/Safemoon.sol\":41750:41751  0 */\n      dup1\n        /* \"bitlime-periphery/contracts/Safemoon.sol\":41793:41800  owner() */\n      tag_470\n        /* \"bitlime-periphery/contracts/Safemoon.sol\":41793:41798  owner */\n      tag_140\n        /* \"bitlime-periphery/contracts/Safemoon.sol\":41793:41800  owner() */\n      jump\t// in\n    tag_470:\n        /* \"bitlime-periphery/contracts/Safemoon.sol\":41815:41830  block.timestamp */\n      timestamp\n        /* \"bitlime-periphery/contracts/Safemoon.sol\":41589:41841  uniswapV2Router.addLiquidityETH{value: ethAmount}(\r... */\n      mload(0x40)\n      dup9\n      0xffffffff\n      and\n      0xe0\n      shl\n      dup2\n      mstore\n      0x04\n      add\n      dup1\n      dup8\n      sub(shl(0xa0, 0x01), 0x01)\n      and\n      sub(shl(0xa0, 0x01), 0x01)\n      and\n      dup2\n      mstore\n      0x20\n      add\n      dup7\n      dup2\n      mstore\n      0x20\n      add\n      dup6\n      dup2\n      mstore\n      0x20\n      add\n      dup5\n      dup2\n      mstore\n      0x20\n      add\n      dup4\n      sub(shl(0xa0, 0x01), 0x01)\n      and\n      sub(shl(0xa0, 0x01), 0x01)\n      and\n      dup2\n      mstore\n      0x20\n      add\n      dup3\n      dup2\n      mstore\n      0x20\n      add\n      swap7\n      pop\n      pop\n      pop\n      pop\n      pop\n      pop\n      pop\n      0x60\n      mload(0x40)\n      dup1\n      dup4\n      sub\n      dup2\n      dup6\n      dup9\n      dup1\n      extcodesize\n      iszero\n        /* \"--CODEGEN--\":5:14   */\n      dup1\n        /* \"--CODEGEN--\":2:4   */\n      iszero\n      tag_471\n      jumpi\n        /* \"--CODEGEN--\":27:28   */\n      0x00\n        /* \"--CODEGEN--\":24:25   */\n      dup1\n        /* \"--CODEGEN--\":17:29   */\n      revert\n        /* \"--CODEGEN--\":2:4   */\n    tag_471:\n        /* \"bitlime-periphery/contracts/Safemoon.sol\":41589:41841  uniswapV2Router.addLiquidityETH{value: ethAmount}(\r... */\n      pop\n      gas\n      call\n      iszero\n        /* \"--CODEGEN--\":8:17   */\n      dup1\n        /* \"--CODEGEN--\":5:7   */\n      iszero\n      tag_473\n      jumpi\n        /* \"--CODEGEN--\":45:61   */\n      returndatasize\n        /* \"--CODEGEN--\":42:43   */\n      0x00\n        /* \"--CODEGEN--\":39:40   */\n      dup1\n        /* \"--CODEGEN--\":24:62   */\n      returndatacopy\n        /* \"--CODEGEN--\":77:93   */\n      returndatasize\n        /* \"--CODEGEN--\":74:75   */\n      0x00\n        /* \"--CODEGEN--\":67:94   */\n      revert\n        /* \"--CODEGEN--\":5:7   */\n    tag_473:\n        /* \"bitlime-periphery/contracts/Safemoon.sol\":41589:41841  uniswapV2Router.addLiquidityETH{value: ethAmount}(\r... */\n      pop\n      pop\n      pop\n      pop\n      pop\n      mload(0x40)\n      returndatasize\n        /* \"--CODEGEN--\":15:17   */\n      0x60\n        /* \"--CODEGEN--\":10:13   */\n      dup2\n        /* \"--CODEGEN--\":7:18   */\n      lt\n        /* \"--CODEGEN--\":4:6   */\n      iszero\n      tag_412\n      jumpi\n        /* \"--CODEGEN--\":31:32   */\n      0x00\n        /* \"--CODEGEN--\":28:29   */\n      dup1\n        /* \"--CODEGEN--\":21:33   */\n      revert\n        /* \"bitlime-periphery/contracts/Safemoon.sol\":37050:37300  function removeAllFee() private {\r... */\n    tag_389:\n        /* \"bitlime-periphery/contracts/Safemoon.sol\":37096:37103  _taxFee */\n      sload(0x0f)\n        /* \"bitlime-periphery/contracts/Safemoon.sol\":37096:37108  _taxFee == 0 */\n      iszero\n        /* \"bitlime-periphery/contracts/Safemoon.sol\":37096:37130  _taxFee == 0 && _liquidityFee == 0 */\n      dup1\n      iszero\n      tag_476\n      jumpi\n      pop\n        /* \"bitlime-periphery/contracts/Safemoon.sol\":37112:37125  _liquidityFee */\n      sload(0x11)\n        /* \"bitlime-periphery/contracts/Safemoon.sol\":37112:37130  _liquidityFee == 0 */\n      iszero\n        /* \"bitlime-periphery/contracts/Safemoon.sol\":37096:37130  _taxFee == 0 && _liquidityFee == 0 */\n    tag_476:\n        /* \"bitlime-periphery/contracts/Safemoon.sol\":37093:37139  if(_taxFee == 0 && _liquidityFee == 0) return; */\n      iszero\n      tag_477\n      jumpi\n        /* \"bitlime-periphery/contracts/Safemoon.sol\":37132:37139  return; */\n      jump(tag_475)\n        /* \"bitlime-periphery/contracts/Safemoon.sol\":37093:37139  if(_taxFee == 0 && _liquidityFee == 0) return; */\n    tag_477:\n        /* \"bitlime-periphery/contracts/Safemoon.sol\":37177:37184  _taxFee */\n      0x0f\n      dup1\n      sload\n        /* \"bitlime-periphery/contracts/Safemoon.sol\":37159:37174  _previousTaxFee */\n      0x10\n        /* \"bitlime-periphery/contracts/Safemoon.sol\":37159:37184  _previousTaxFee = _taxFee */\n      sstore\n        /* \"bitlime-periphery/contracts/Safemoon.sol\":37219:37232  _liquidityFee */\n      0x11\n      dup1\n      sload\n        /* \"bitlime-periphery/contracts/Safemoon.sol\":37195:37216  _previousLiquidityFee */\n      0x12\n        /* \"bitlime-periphery/contracts/Safemoon.sol\":37195:37232  _previousLiquidityFee = _liquidityFee */\n      sstore\n      0x00\n        /* \"bitlime-periphery/contracts/Safemoon.sol\":37253:37264  _taxFee = 0 */\n      swap2\n      dup3\n      swap1\n      sstore\n        /* \"bitlime-periphery/contracts/Safemoon.sol\":37275:37292  _liquidityFee = 0 */\n      sstore\n        /* \"bitlime-periphery/contracts/Safemoon.sol\":37050:37300  function removeAllFee() private {\r... */\n    tag_475:\n      jump\t// out\n        /* \"bitlime-periphery/contracts/Safemoon.sol\":43876:44442  function _transferFromExcluded(address sender, address recipient, uint256 tAmount) private {\r... */\n    tag_393:\n        /* \"bitlime-periphery/contracts/Safemoon.sol\":43979:43994  uint256 rAmount */\n      0x00\n        /* \"bitlime-periphery/contracts/Safemoon.sol\":43996:44019  uint256 rTransferAmount */\n      dup1\n        /* \"bitlime-periphery/contracts/Safemoon.sol\":44021:44033  uint256 rFee */\n      0x00\n        /* \"bitlime-periphery/contracts/Safemoon.sol\":44035:44058  uint256 tTransferAmount */\n      dup1\n        /* \"bitlime-periphery/contracts/Safemoon.sol\":44060:44072  uint256 tFee */\n      0x00\n        /* \"bitlime-periphery/contracts/Safemoon.sol\":44074:44092  uint256 tLiquidity */\n      dup1\n        /* \"bitlime-periphery/contracts/Safemoon.sol\":44096:44115  _getValues(tAmount) */\n      tag_479\n        /* \"bitlime-periphery/contracts/Safemoon.sol\":44107:44114  tAmount */\n      dup8\n        /* \"bitlime-periphery/contracts/Safemoon.sol\":44096:44106  _getValues */\n      tag_247\n        /* \"bitlime-periphery/contracts/Safemoon.sol\":44096:44115  _getValues(tAmount) */\n      jump\t// in\n    tag_479:\n      sub(shl(0xa0, 0x01), 0x01)\n        /* \"bitlime-periphery/contracts/Safemoon.sol\":44144:44159  _tOwned[sender] */\n      dup16\n      and\n      0x00\n      swap1\n      dup2\n      mstore\n        /* \"bitlime-periphery/contracts/Safemoon.sol\":44144:44151  _tOwned */\n      0x04\n        /* \"bitlime-periphery/contracts/Safemoon.sol\":44144:44159  _tOwned[sender] */\n      0x20\n      mstore\n      0x40\n      swap1\n      keccak256\n      sload\n        /* \"bitlime-periphery/contracts/Safemoon.sol\":43978:44115  (uint256 rAmount, uint256 rTransferAmount, uint256 rFee, uint256 tTransferAmount, uint256 tFee, uint256 tLiquidity) = _getValues(tAmount) */\n      swap6\n      swap12\n      pop\n      swap4\n      swap10\n      pop\n      swap2\n      swap8\n      pop\n      swap6\n      pop\n      swap4\n      pop\n      swap2\n      pop\n        /* \"bitlime-periphery/contracts/Safemoon.sol\":44144:44172  _tOwned[sender].sub(tAmount) */\n      tag_480\n      swap1\n        /* \"bitlime-periphery/contracts/Safemoon.sol\":44164:44171  tAmount */\n      dup9\n        /* \"bitlime-periphery/contracts/Safemoon.sol\":44144:44172  _tOwned[sender].sub(tAmount) */\n      0xffffffff\n        /* \"bitlime-periphery/contracts/Safemoon.sol\":44144:44163  _tOwned[sender].sub */\n      tag_249\n        /* \"bitlime-periphery/contracts/Safemoon.sol\":44144:44172  _tOwned[sender].sub(tAmount) */\n      and\n      jump\t// in\n    tag_480:\n      sub(shl(0xa0, 0x01), 0x01)\n        /* \"bitlime-periphery/contracts/Safemoon.sol\":44126:44141  _tOwned[sender] */\n      dup11\n      and\n      0x00\n      swap1\n      dup2\n      mstore\n        /* \"bitlime-periphery/contracts/Safemoon.sol\":44126:44133  _tOwned */\n      0x04\n        /* \"bitlime-periphery/contracts/Safemoon.sol\":44126:44141  _tOwned[sender] */\n      0x20\n      swap1\n      dup2\n      mstore\n      0x40\n      dup1\n      dup4\n      keccak256\n        /* \"bitlime-periphery/contracts/Safemoon.sol\":44126:44172  _tOwned[sender] = _tOwned[sender].sub(tAmount) */\n      swap4\n      swap1\n      swap4\n      sstore\n        /* \"bitlime-periphery/contracts/Safemoon.sol\":44201:44208  _rOwned */\n      0x03\n        /* \"bitlime-periphery/contracts/Safemoon.sol\":44201:44216  _rOwned[sender] */\n      swap1\n      mstore\n      keccak256\n      sload\n        /* \"bitlime-periphery/contracts/Safemoon.sol\":44201:44229  _rOwned[sender].sub(rAmount) */\n      tag_481\n      swap1\n        /* \"bitlime-periphery/contracts/Safemoon.sol\":44221:44228  rAmount */\n      dup8\n        /* \"bitlime-periphery/contracts/Safemoon.sol\":44201:44229  _rOwned[sender].sub(rAmount) */\n      0xffffffff\n        /* \"bitlime-periphery/contracts/Safemoon.sol\":44201:44220  _rOwned[sender].sub */\n      tag_249\n        /* \"bitlime-periphery/contracts/Safemoon.sol\":44201:44229  _rOwned[sender].sub(rAmount) */\n      and\n      jump\t// in\n    tag_481:\n      sub(shl(0xa0, 0x01), 0x01)\n        /* \"bitlime-periphery/contracts/Safemoon.sol\":44183:44198  _rOwned[sender] */\n      dup1\n      dup12\n      and\n      0x00\n      swap1\n      dup2\n      mstore\n        /* \"bitlime-periphery/contracts/Safemoon.sol\":44183:44190  _rOwned */\n      0x03\n        /* \"bitlime-periphery/contracts/Safemoon.sol\":44183:44198  _rOwned[sender] */\n      0x20\n      mstore\n      0x40\n      dup1\n      dup3\n      keccak256\n        /* \"bitlime-periphery/contracts/Safemoon.sol\":44183:44229  _rOwned[sender] = _rOwned[sender].sub(rAmount) */\n      swap4\n      swap1\n      swap4\n      sstore\n        /* \"bitlime-periphery/contracts/Safemoon.sol\":44261:44279  _rOwned[recipient] */\n      swap1\n      dup11\n      and\n      dup2\n      mstore\n      keccak256\n      sload\n        /* \"bitlime-periphery/contracts/Safemoon.sol\":44261:44300  _rOwned[recipient].add(rTransferAmount) */\n      tag_482\n      swap1\n        /* \"bitlime-periphery/contracts/Safemoon.sol\":44284:44299  rTransferAmount */\n      dup7\n        /* \"bitlime-periphery/contracts/Safemoon.sol\":44261:44300  _rOwned[recipient].add(rTransferAmount) */\n      0xffffffff\n        /* \"bitlime-periphery/contracts/Safemoon.sol\":44261:44283  _rOwned[recipient].add */\n      tag_242\n        /* \"bitlime-periphery/contracts/Safemoon.sol\":44261:44300  _rOwned[recipient].add(rTransferAmount) */\n      and\n      jump\t// in\n    tag_482:\n      sub(shl(0xa0, 0x01), 0x01)\n        /* \"bitlime-periphery/contracts/Safemoon.sol\":44240:44258  _rOwned[recipient] */\n      dup10\n      and\n      0x00\n      swap1\n      dup2\n      mstore\n        /* \"bitlime-periphery/contracts/Safemoon.sol\":44240:44247  _rOwned */\n      0x03\n        /* \"bitlime-periphery/contracts/Safemoon.sol\":44240:44258  _rOwned[recipient] */\n      0x20\n      mstore\n      0x40\n      swap1\n      keccak256\n        /* \"bitlime-periphery/contracts/Safemoon.sol\":44240:44300  _rOwned[recipient] = _rOwned[recipient].add(rTransferAmount) */\n      sstore\n        /* \"bitlime-periphery/contracts/Safemoon.sol\":44314:44340  _takeLiquidity(tLiquidity) */\n      tag_483\n        /* \"bitlime-periphery/contracts/Safemoon.sol\":44329:44339  tLiquidity */\n      dup2\n        /* \"bitlime-periphery/contracts/Safemoon.sol\":44314:44328  _takeLiquidity */\n      tag_484\n        /* \"bitlime-periphery/contracts/Safemoon.sol\":44314:44340  _takeLiquidity(tLiquidity) */\n      jump\t// in\n    tag_483:\n        /* \"bitlime-periphery/contracts/Safemoon.sol\":44351:44374  _reflectFee(rFee, tFee) */\n      tag_485\n        /* \"bitlime-periphery/contracts/Safemoon.sol\":44363:44367  rFee */\n      dup5\n        /* \"bitlime-periphery/contracts/Safemoon.sol\":44369:44373  tFee */\n      dup4\n        /* \"bitlime-periphery/contracts/Safemoon.sol\":44351:44362  _reflectFee */\n      tag_486\n        /* \"bitlime-periphery/contracts/Safemoon.sol\":44351:44374  _reflectFee(rFee, tFee) */\n      jump\t// in\n    tag_485:\n        /* \"bitlime-periphery/contracts/Safemoon.sol\":44407:44416  recipient */\n      dup8\n      sub(shl(0xa0, 0x01), 0x01)\n        /* \"bitlime-periphery/contracts/Safemoon.sol\":44390:44434  Transfer(sender, recipient, tTransferAmount) */\n      and\n        /* \"bitlime-periphery/contracts/Safemoon.sol\":44399:44405  sender */\n      dup10\n      sub(shl(0xa0, 0x01), 0x01)\n        /* \"bitlime-periphery/contracts/Safemoon.sol\":44390:44434  Transfer(sender, recipient, tTransferAmount) */\n      and\n      0xddf252ad1be2c89b69c2b068fc378daa952ba7f163c4a11628f55a4df523b3ef\n        /* \"bitlime-periphery/contracts/Safemoon.sol\":44418:44433  tTransferAmount */\n      dup6\n        /* \"bitlime-periphery/contracts/Safemoon.sol\":44390:44434  Transfer(sender, recipient, tTransferAmount) */\n      mload(0x40)\n      dup1\n      dup3\n      dup2\n      mstore\n      0x20\n      add\n      swap2\n      pop\n      pop\n      mload(0x40)\n      dup1\n      swap2\n      sub\n      swap1\n      log3\n        /* \"bitlime-periphery/contracts/Safemoon.sol\":43876:44442  function _transferFromExcluded(address sender, address recipient, uint256 tAmount) private {\r... */\n      pop\n      pop\n      pop\n      pop\n      pop\n      pop\n      pop\n      pop\n      pop\n      jump\t// out\n        /* \"bitlime-periphery/contracts/Safemoon.sol\":43282:43868  function _transferToExcluded(address sender, address recipient, uint256 tAmount) private {\r... */\n    tag_398:\n        /* \"bitlime-periphery/contracts/Safemoon.sol\":43383:43398  uint256 rAmount */\n      0x00\n        /* \"bitlime-periphery/contracts/Safemoon.sol\":43400:43423  uint256 rTransferAmount */\n      dup1\n        /* \"bitlime-periphery/contracts/Safemoon.sol\":43425:43437  uint256 rFee */\n      0x00\n        /* \"bitlime-periphery/contracts/Safemoon.sol\":43439:43462  uint256 tTransferAmount */\n      dup1\n        /* \"bitlime-periphery/contracts/Safemoon.sol\":43464:43476  uint256 tFee */\n      0x00\n        /* \"bitlime-periphery/contracts/Safemoon.sol\":43478:43496  uint256 tLiquidity */\n      dup1\n        /* \"bitlime-periphery/contracts/Safemoon.sol\":43500:43519  _getValues(tAmount) */\n      tag_488\n        /* \"bitlime-periphery/contracts/Safemoon.sol\":43511:43518  tAmount */\n      dup8\n        /* \"bitlime-periphery/contracts/Safemoon.sol\":43500:43510  _getValues */\n      tag_247\n        /* \"bitlime-periphery/contracts/Safemoon.sol\":43500:43519  _getValues(tAmount) */\n      jump\t// in\n    tag_488:\n      sub(shl(0xa0, 0x01), 0x01)\n        /* \"bitlime-periphery/contracts/Safemoon.sol\":43548:43563  _rOwned[sender] */\n      dup16\n      and\n      0x00\n      swap1\n      dup2\n      mstore\n        /* \"bitlime-periphery/contracts/Safemoon.sol\":43548:43555  _rOwned */\n      0x03\n        /* \"bitlime-periphery/contracts/Safemoon.sol\":43548:43563  _rOwned[sender] */\n      0x20\n      mstore\n      0x40\n      swap1\n      keccak256\n      sload\n        /* \"bitlime-periphery/contracts/Safemoon.sol\":43382:43519  (uint256 rAmount, uint256 rTransferAmount, uint256 rFee, uint256 tTransferAmount, uint256 tFee, uint256 tLiquidity) = _getValues(tAmount) */\n      swap6\n      swap12\n      pop\n      swap4\n      swap10\n      pop\n      swap2\n      swap8\n      pop\n      swap6\n      pop\n      swap4\n      pop\n      swap2\n      pop\n        /* \"bitlime-periphery/contracts/Safemoon.sol\":43548:43576  _rOwned[sender].sub(rAmount) */\n      tag_489\n      swap1\n        /* \"bitlime-periphery/contracts/Safemoon.sol\":43382:43519  (uint256 rAmount, uint256 rTransferAmount, uint256 rFee, uint256 tTransferAmount, uint256 tFee, uint256 tLiquidity) = _getValues(tAmount) */\n      dup8\n        /* \"bitlime-periphery/contracts/Safemoon.sol\":43548:43576  _rOwned[sender].sub(rAmount) */\n      0xffffffff\n        /* \"bitlime-periphery/contracts/Safemoon.sol\":43548:43567  _rOwned[sender].sub */\n      tag_249\n        /* \"bitlime-periphery/contracts/Safemoon.sol\":43548:43576  _rOwned[sender].sub(rAmount) */\n      and\n      jump\t// in\n    tag_489:\n      sub(shl(0xa0, 0x01), 0x01)\n        /* \"bitlime-periphery/contracts/Safemoon.sol\":43530:43545  _rOwned[sender] */\n      dup1\n      dup12\n      and\n      0x00\n      swap1\n      dup2\n      mstore\n        /* \"bitlime-periphery/contracts/Safemoon.sol\":43530:43537  _rOwned */\n      0x03\n        /* \"bitlime-periphery/contracts/Safemoon.sol\":43530:43545  _rOwned[sender] */\n      0x20\n      swap1\n      dup2\n      mstore\n      0x40\n      dup1\n      dup4\n      keccak256\n        /* \"bitlime-periphery/contracts/Safemoon.sol\":43530:43576  _rOwned[sender] = _rOwned[sender].sub(rAmount) */\n      swap5\n      swap1\n      swap5\n      sstore\n        /* \"bitlime-periphery/contracts/Safemoon.sol\":43608:43626  _tOwned[recipient] */\n      swap2\n      dup12\n      and\n      dup2\n      mstore\n        /* \"bitlime-periphery/contracts/Safemoon.sol\":43608:43615  _tOwned */\n      0x04\n        /* \"bitlime-periphery/contracts/Safemoon.sol\":43608:43626  _tOwned[recipient] */\n      swap1\n      swap2\n      mstore\n      keccak256\n      sload\n        /* \"bitlime-periphery/contracts/Safemoon.sol\":43608:43647  _tOwned[recipient].add(tTransferAmount) */\n      tag_490\n      swap1\n        /* \"bitlime-periphery/contracts/Safemoon.sol\":43631:43646  tTransferAmount */\n      dup5\n        /* \"bitlime-periphery/contracts/Safemoon.sol\":43608:43647  _tOwned[recipient].add(tTransferAmount) */\n      0xffffffff\n        /* \"bitlime-periphery/contracts/Safemoon.sol\":43608:43630  _tOwned[recipient].add */\n      tag_242\n        /* \"bitlime-periphery/contracts/Safemoon.sol\":43608:43647  _tOwned[recipient].add(tTransferAmount) */\n      and\n      jump\t// in\n    tag_490:\n      sub(shl(0xa0, 0x01), 0x01)\n        /* \"bitlime-periphery/contracts/Safemoon.sol\":43587:43605  _tOwned[recipient] */\n      dup10\n      and\n      0x00\n      swap1\n      dup2\n      mstore\n        /* \"bitlime-periphery/contracts/Safemoon.sol\":43587:43594  _tOwned */\n      0x04\n        /* \"bitlime-periphery/contracts/Safemoon.sol\":43587:43605  _tOwned[recipient] */\n      0x20\n      swap1\n      dup2\n      mstore\n      0x40\n      dup1\n      dup4\n      keccak256\n        /* \"bitlime-periphery/contracts/Safemoon.sol\":43587:43647  _tOwned[recipient] = _tOwned[recipient].add(tTransferAmount) */\n      swap4\n      swap1\n      swap4\n      sstore\n        /* \"bitlime-periphery/contracts/Safemoon.sol\":43679:43686  _rOwned */\n      0x03\n        /* \"bitlime-periphery/contracts/Safemoon.sol\":43679:43697  _rOwned[recipient] */\n      swap1\n      mstore\n      keccak256\n      sload\n        /* \"bitlime-periphery/contracts/Safemoon.sol\":43679:43718  _rOwned[recipient].add(rTransferAmount) */\n      tag_482\n      swap1\n        /* \"bitlime-periphery/contracts/Safemoon.sol\":43702:43717  rTransferAmount */\n      dup7\n        /* \"bitlime-periphery/contracts/Safemoon.sol\":43679:43718  _rOwned[recipient].add(rTransferAmount) */\n      0xffffffff\n        /* \"bitlime-periphery/contracts/Safemoon.sol\":43679:43701  _rOwned[recipient].add */\n      tag_242\n        /* \"bitlime-periphery/contracts/Safemoon.sol\":43679:43718  _rOwned[recipient].add(rTransferAmount) */\n      and\n      jump\t// in\n        /* \"bitlime-periphery/contracts/Safemoon.sol\":42772:43274  function _transferStandard(address sender, address recipient, uint256 tAmount) private {\r... */\n    tag_403:\n        /* \"bitlime-periphery/contracts/Safemoon.sol\":42871:42886  uint256 rAmount */\n      0x00\n        /* \"bitlime-periphery/contracts/Safemoon.sol\":42888:42911  uint256 rTransferAmount */\n      dup1\n        /* \"bitlime-periphery/contracts/Safemoon.sol\":42913:42925  uint256 rFee */\n      0x00\n        /* \"bitlime-periphery/contracts/Safemoon.sol\":42927:42950  uint256 tTransferAmount */\n      dup1\n        /* \"bitlime-periphery/contracts/Safemoon.sol\":42952:42964  uint256 tFee */\n      0x00\n        /* \"bitlime-periphery/contracts/Safemoon.sol\":42966:42984  uint256 tLiquidity */\n      dup1\n        /* \"bitlime-periphery/contracts/Safemoon.sol\":42988:43007  _getValues(tAmount) */\n      tag_495\n        /* \"bitlime-periphery/contracts/Safemoon.sol\":42999:43006  tAmount */\n      dup8\n        /* \"bitlime-periphery/contracts/Safemoon.sol\":42988:42998  _getValues */\n      tag_247\n        /* \"bitlime-periphery/contracts/Safemoon.sol\":42988:43007  _getValues(tAmount) */\n      jump\t// in\n    tag_495:\n      sub(shl(0xa0, 0x01), 0x01)\n        /* \"bitlime-periphery/contracts/Safemoon.sol\":43036:43051  _rOwned[sender] */\n      dup16\n      and\n      0x00\n      swap1\n      dup2\n      mstore\n        /* \"bitlime-periphery/contracts/Safemoon.sol\":43036:43043  _rOwned */\n      0x03\n        /* \"bitlime-periphery/contracts/Safemoon.sol\":43036:43051  _rOwned[sender] */\n      0x20\n      mstore\n      0x40\n      swap1\n      keccak256\n      sload\n        /* \"bitlime-periphery/contracts/Safemoon.sol\":42870:43007  (uint256 rAmount, uint256 rTransferAmount, uint256 rFee, uint256 tTransferAmount, uint256 tFee, uint256 tLiquidity) = _getValues(tAmount) */\n      swap6\n      swap12\n      pop\n      swap4\n      swap10\n      pop\n      swap2\n      swap8\n      pop\n      swap6\n      pop\n      swap4\n      pop\n      swap2\n      pop\n        /* \"bitlime-periphery/contracts/Safemoon.sol\":43036:43064  _rOwned[sender].sub(rAmount) */\n      tag_481\n      swap1\n        /* \"bitlime-periphery/contracts/Safemoon.sol\":42870:43007  (uint256 rAmount, uint256 rTransferAmount, uint256 rFee, uint256 tTransferAmount, uint256 tFee, uint256 tLiquidity) = _getValues(tAmount) */\n      dup8\n        /* \"bitlime-periphery/contracts/Safemoon.sol\":43036:43064  _rOwned[sender].sub(rAmount) */\n      0xffffffff\n        /* \"bitlime-periphery/contracts/Safemoon.sol\":43036:43055  _rOwned[sender].sub */\n      tag_249\n        /* \"bitlime-periphery/contracts/Safemoon.sol\":43036:43064  _rOwned[sender].sub(rAmount) */\n      and\n      jump\t// in\n        /* \"bitlime-periphery/contracts/Safemoon.sol\":32649:33291  function _transferBothExcluded(address sender, address recipient, uint256 tAmount) private {\r... */\n    tag_408:\n        /* \"bitlime-periphery/contracts/Safemoon.sol\":32752:32767  uint256 rAmount */\n      0x00\n        /* \"bitlime-periphery/contracts/Safemoon.sol\":32769:32792  uint256 rTransferAmount */\n      dup1\n        /* \"bitlime-periphery/contracts/Safemoon.sol\":32794:32806  uint256 rFee */\n      0x00\n        /* \"bitlime-periphery/contracts/Safemoon.sol\":32808:32831  uint256 tTransferAmount */\n      dup1\n        /* \"bitlime-periphery/contracts/Safemoon.sol\":32833:32845  uint256 tFee */\n      0x00\n        /* \"bitlime-periphery/contracts/Safemoon.sol\":32847:32865  uint256 tLiquidity */\n      dup1\n        /* \"bitlime-periphery/contracts/Safemoon.sol\":32869:32888  _getValues(tAmount) */\n      tag_501\n        /* \"bitlime-periphery/contracts/Safemoon.sol\":32880:32887  tAmount */\n      dup8\n        /* \"bitlime-periphery/contracts/Safemoon.sol\":32869:32879  _getValues */\n      tag_247\n        /* \"bitlime-periphery/contracts/Safemoon.sol\":32869:32888  _getValues(tAmount) */\n      jump\t// in\n    tag_501:\n      sub(shl(0xa0, 0x01), 0x01)\n        /* \"bitlime-periphery/contracts/Safemoon.sol\":32917:32932  _tOwned[sender] */\n      dup16\n      and\n      0x00\n      swap1\n      dup2\n      mstore\n        /* \"bitlime-periphery/contracts/Safemoon.sol\":32917:32924  _tOwned */\n      0x04\n        /* \"bitlime-periphery/contracts/Safemoon.sol\":32917:32932  _tOwned[sender] */\n      0x20\n      mstore\n      0x40\n      swap1\n      keccak256\n      sload\n        /* \"bitlime-periphery/contracts/Safemoon.sol\":32751:32888  (uint256 rAmount, uint256 rTransferAmount, uint256 rFee, uint256 tTransferAmount, uint256 tFee, uint256 tLiquidity) = _getValues(tAmount) */\n      swap6\n      swap12\n      pop\n      swap4\n      swap10\n      pop\n      swap2\n      swap8\n      pop\n      swap6\n      pop\n      swap4\n      pop\n      swap2\n      pop\n        /* \"bitlime-periphery/contracts/Safemoon.sol\":32917:32945  _tOwned[sender].sub(tAmount) */\n      tag_502\n      swap1\n        /* \"bitlime-periphery/contracts/Safemoon.sol\":32937:32944  tAmount */\n      dup9\n        /* \"bitlime-periphery/contracts/Safemoon.sol\":32917:32945  _tOwned[sender].sub(tAmount) */\n      0xffffffff\n        /* \"bitlime-periphery/contracts/Safemoon.sol\":32917:32936  _tOwned[sender].sub */\n      tag_249\n        /* \"bitlime-periphery/contracts/Safemoon.sol\":32917:32945  _tOwned[sender].sub(tAmount) */\n      and\n      jump\t// in\n    tag_502:\n      sub(shl(0xa0, 0x01), 0x01)\n        /* \"bitlime-periphery/contracts/Safemoon.sol\":32899:32914  _tOwned[sender] */\n      dup11\n      and\n      0x00\n      swap1\n      dup2\n      mstore\n        /* \"bitlime-periphery/contracts/Safemoon.sol\":32899:32906  _tOwned */\n      0x04\n        /* \"bitlime-periphery/contracts/Safemoon.sol\":32899:32914  _tOwned[sender] */\n      0x20\n      swap1\n      dup2\n      mstore\n      0x40\n      dup1\n      dup4\n      keccak256\n        /* \"bitlime-periphery/contracts/Safemoon.sol\":32899:32945  _tOwned[sender] = _tOwned[sender].sub(tAmount) */\n      swap4\n      swap1\n      swap4\n      sstore\n        /* \"bitlime-periphery/contracts/Safemoon.sol\":32974:32981  _rOwned */\n      0x03\n        /* \"bitlime-periphery/contracts/Safemoon.sol\":32974:32989  _rOwned[sender] */\n      swap1\n      mstore\n      keccak256\n      sload\n        /* \"bitlime-periphery/contracts/Safemoon.sol\":32974:33002  _rOwned[sender].sub(rAmount) */\n      tag_489\n      swap1\n        /* \"bitlime-periphery/contracts/Safemoon.sol\":32994:33001  rAmount */\n      dup8\n        /* \"bitlime-periphery/contracts/Safemoon.sol\":32974:33002  _rOwned[sender].sub(rAmount) */\n      0xffffffff\n        /* \"bitlime-periphery/contracts/Safemoon.sol\":32974:32993  _rOwned[sender].sub */\n      tag_249\n        /* \"bitlime-periphery/contracts/Safemoon.sol\":32974:33002  _rOwned[sender].sub(rAmount) */\n      and\n      jump\t// in\n        /* \"bitlime-periphery/contracts/Safemoon.sol\":37312:37437  function restoreAllFee() private {\r... */\n    tag_413:\n        /* \"bitlime-periphery/contracts/Safemoon.sol\":37366:37381  _previousTaxFee */\n      sload(0x10)\n        /* \"bitlime-periphery/contracts/Safemoon.sol\":37356:37363  _taxFee */\n      0x0f\n        /* \"bitlime-periphery/contracts/Safemoon.sol\":37356:37381  _taxFee = _previousTaxFee */\n      sstore\n        /* \"bitlime-periphery/contracts/Safemoon.sol\":37408:37429  _previousLiquidityFee */\n      sload(0x12)\n        /* \"bitlime-periphery/contracts/Safemoon.sol\":37392:37405  _liquidityFee */\n      0x11\n        /* \"bitlime-periphery/contracts/Safemoon.sol\":37392:37429  _liquidityFee = _previousLiquidityFee */\n      sstore\n        /* \"bitlime-periphery/contracts/Safemoon.sol\":37312:37437  function restoreAllFee() private {\r... */\n      jump\t// out\n        /* \"bitlime-periphery/contracts/Safemoon.sol\":36710:36864  function calculateTaxFee(uint256 _amount) private view returns (uint256) {\r... */\n    tag_441:\n        /* \"bitlime-periphery/contracts/Safemoon.sol\":36774:36781  uint256 */\n      0x00\n        /* \"bitlime-periphery/contracts/Safemoon.sol\":36801:36856  _amount.mul(_taxFee).div(\r... */\n      tag_199\n        /* \"bitlime-periphery/contracts/Safemoon.sol\":36840:36845  10**2 */\n      0x64\n        /* \"bitlime-periphery/contracts/Safemoon.sol\":36801:36821  _amount.mul(_taxFee) */\n      tag_309\n        /* \"bitlime-periphery/contracts/Safemoon.sol\":36813:36820  _taxFee */\n      sload(0x0f)\n        /* \"bitlime-periphery/contracts/Safemoon.sol\":36801:36808  _amount */\n      dup6\n        /* \"bitlime-periphery/contracts/Safemoon.sol\":36801:36812  _amount.mul */\n      tag_310\n      swap1\n        /* \"bitlime-periphery/contracts/Safemoon.sol\":36801:36821  _amount.mul(_taxFee) */\n      swap2\n      swap1\n      0xffffffff\n      and\n      jump\t// in\n        /* \"bitlime-periphery/contracts/Safemoon.sol\":36872:37038  function calculateLiquidityFee(uint256 _amount) private view returns (uint256) {\r... */\n    tag_443:\n        /* \"bitlime-periphery/contracts/Safemoon.sol\":36942:36949  uint256 */\n      0x00\n        /* \"bitlime-periphery/contracts/Safemoon.sol\":36969:37030  _amount.mul(_liquidityFee).div(\r... */\n      tag_199\n        /* \"bitlime-periphery/contracts/Safemoon.sol\":37014:37019  10**2 */\n      0x64\n        /* \"bitlime-periphery/contracts/Safemoon.sol\":36969:36995  _amount.mul(_liquidityFee) */\n      tag_309\n        /* \"bitlime-periphery/contracts/Safemoon.sol\":36981:36994  _liquidityFee */\n      sload(0x11)\n        /* \"bitlime-periphery/contracts/Safemoon.sol\":36969:36976  _amount */\n      dup6\n        /* \"bitlime-periphery/contracts/Safemoon.sol\":36969:36980  _amount.mul */\n      tag_310\n      swap1\n        /* \"bitlime-periphery/contracts/Safemoon.sol\":36969:36995  _amount.mul(_liquidityFee) */\n      swap2\n      swap1\n      0xffffffff\n      and\n      jump\t// in\n        /* \"bitlime-periphery/contracts/Safemoon.sol\":36343:36698  function _takeLiquidity(uint256 tLiquidity) private {\r... */\n    tag_484:\n        /* \"bitlime-periphery/contracts/Safemoon.sol\":36406:36425  uint256 currentRate */\n      0x00\n        /* \"bitlime-periphery/contracts/Safemoon.sol\":36429:36439  _getRate() */\n      tag_516\n        /* \"bitlime-periphery/contracts/Safemoon.sol\":36429:36437  _getRate */\n      tag_216\n        /* \"bitlime-periphery/contracts/Safemoon.sol\":36429:36439  _getRate() */\n      jump\t// in\n    tag_516:\n        /* \"bitlime-periphery/contracts/Safemoon.sol\":36406:36439  uint256 currentRate =  _getRate() */\n      swap1\n      pop\n        /* \"bitlime-periphery/contracts/Safemoon.sol\":36450:36468  uint256 rLiquidity */\n      0x00\n        /* \"bitlime-periphery/contracts/Safemoon.sol\":36471:36498  tLiquidity.mul(currentRate) */\n      tag_517\n        /* \"bitlime-periphery/contracts/Safemoon.sol\":36471:36481  tLiquidity */\n      dup4\n        /* \"bitlime-periphery/contracts/Safemoon.sol\":36406:36439  uint256 currentRate =  _getRate() */\n      dup4\n        /* \"bitlime-periphery/contracts/Safemoon.sol\":36471:36498  tLiquidity.mul(currentRate) */\n      0xffffffff\n        /* \"bitlime-periphery/contracts/Safemoon.sol\":36471:36485  tLiquidity.mul */\n      tag_310\n        /* \"bitlime-periphery/contracts/Safemoon.sol\":36471:36498  tLiquidity.mul(currentRate) */\n      and\n      jump\t// in\n    tag_517:\n        /* \"bitlime-periphery/contracts/Safemoon.sol\":36550:36554  this */\n      address\n        /* \"bitlime-periphery/contracts/Safemoon.sol\":36534:36556  _rOwned[address(this)] */\n      0x00\n      swap1\n      dup2\n      mstore\n        /* \"bitlime-periphery/contracts/Safemoon.sol\":36534:36541  _rOwned */\n      0x03\n        /* \"bitlime-periphery/contracts/Safemoon.sol\":36534:36556  _rOwned[address(this)] */\n      0x20\n      mstore\n      0x40\n      swap1\n      keccak256\n      sload\n        /* \"bitlime-periphery/contracts/Safemoon.sol\":36450:36498  uint256 rLiquidity = tLiquidity.mul(currentRate) */\n      swap1\n      swap2\n      pop\n        /* \"bitlime-periphery/contracts/Safemoon.sol\":36534:36572  _rOwned[address(this)].add(rLiquidity) */\n      tag_518\n      swap1\n        /* \"bitlime-periphery/contracts/Safemoon.sol\":36450:36498  uint256 rLiquidity = tLiquidity.mul(currentRate) */\n      dup3\n        /* \"bitlime-periphery/contracts/Safemoon.sol\":36534:36572  _rOwned[address(this)].add(rLiquidity) */\n      0xffffffff\n        /* \"bitlime-periphery/contracts/Safemoon.sol\":36534:36560  _rOwned[address(this)].add */\n      tag_242\n        /* \"bitlime-periphery/contracts/Safemoon.sol\":36534:36572  _rOwned[address(this)].add(rLiquidity) */\n      and\n      jump\t// in\n    tag_518:\n        /* \"bitlime-periphery/contracts/Safemoon.sol\":36525:36529  this */\n      address\n        /* \"bitlime-periphery/contracts/Safemoon.sol\":36509:36531  _rOwned[address(this)] */\n      0x00\n      swap1\n      dup2\n      mstore\n        /* \"bitlime-periphery/contracts/Safemoon.sol\":36509:36516  _rOwned */\n      0x03\n        /* \"bitlime-periphery/contracts/Safemoon.sol\":36509:36531  _rOwned[address(this)] */\n      0x20\n      swap1\n      dup2\n      mstore\n      0x40\n      dup1\n      dup4\n      keccak256\n        /* \"bitlime-periphery/contracts/Safemoon.sol\":36509:36572  _rOwned[address(this)] = _rOwned[address(this)].add(rLiquidity) */\n      swap4\n      swap1\n      swap4\n      sstore\n        /* \"bitlime-periphery/contracts/Safemoon.sol\":36586:36597  _isExcluded */\n      0x07\n        /* \"bitlime-periphery/contracts/Safemoon.sol\":36586:36612  _isExcluded[address(this)] */\n      swap1\n      mstore\n      keccak256\n      sload\n      0xff\n      and\n        /* \"bitlime-periphery/contracts/Safemoon.sol\":36583:36690  if(_isExcluded[address(this)])\r... */\n      iszero\n      tag_519\n      jumpi\n        /* \"bitlime-periphery/contracts/Safemoon.sol\":36668:36672  this */\n      address\n        /* \"bitlime-periphery/contracts/Safemoon.sol\":36652:36674  _tOwned[address(this)] */\n      0x00\n      swap1\n      dup2\n      mstore\n        /* \"bitlime-periphery/contracts/Safemoon.sol\":36652:36659  _tOwned */\n      0x04\n        /* \"bitlime-periphery/contracts/Safemoon.sol\":36652:36674  _tOwned[address(this)] */\n      0x20\n      mstore\n      0x40\n      swap1\n      keccak256\n      sload\n        /* \"bitlime-periphery/contracts/Safemoon.sol\":36652:36690  _tOwned[address(this)].add(tLiquidity) */\n      tag_520\n      swap1\n        /* \"bitlime-periphery/contracts/Safemoon.sol\":36679:36689  tLiquidity */\n      dup5\n        /* \"bitlime-periphery/contracts/Safemoon.sol\":36652:36690  _tOwned[address(this)].add(tLiquidity) */\n      0xffffffff\n        /* \"bitlime-periphery/contracts/Safemoon.sol\":36652:36678  _tOwned[address(this)].add */\n      tag_242\n        /* \"bitlime-periphery/contracts/Safemoon.sol\":36652:36690  _tOwned[address(this)].add(tLiquidity) */\n      and\n      jump\t// in\n    tag_520:\n        /* \"bitlime-periphery/contracts/Safemoon.sol\":36643:36647  this */\n      address\n        /* \"bitlime-periphery/contracts/Safemoon.sol\":36627:36649  _tOwned[address(this)] */\n      0x00\n      swap1\n      dup2\n      mstore\n        /* \"bitlime-periphery/contracts/Safemoon.sol\":36627:36634  _tOwned */\n      0x04\n        /* \"bitlime-periphery/contracts/Safemoon.sol\":36627:36649  _tOwned[address(this)] */\n      0x20\n      mstore\n      0x40\n      swap1\n      keccak256\n        /* \"bitlime-periphery/contracts/Safemoon.sol\":36627:36690  _tOwned[address(this)] = _tOwned[address(this)].add(tLiquidity) */\n      sstore\n        /* \"bitlime-periphery/contracts/Safemoon.sol\":36583:36690  if(_isExcluded[address(this)])\r... */\n    tag_519:\n        /* \"bitlime-periphery/contracts/Safemoon.sol\":36343:36698  function _takeLiquidity(uint256 tLiquidity) private {\r... */\n      pop\n      pop\n      pop\n      jump\t// out\n        /* \"bitlime-periphery/contracts/Safemoon.sol\":34242:34389  function _reflectFee(uint256 rFee, uint256 tFee) private {\r... */\n    tag_486:\n        /* \"bitlime-periphery/contracts/Safemoon.sol\":34320:34327  _rTotal */\n      sload(0x0a)\n        /* \"bitlime-periphery/contracts/Safemoon.sol\":34320:34337  _rTotal.sub(rFee) */\n      tag_522\n      swap1\n        /* \"bitlime-periphery/contracts/Safemoon.sol\":34332:34336  rFee */\n      dup4\n        /* \"bitlime-periphery/contracts/Safemoon.sol\":34320:34337  _rTotal.sub(rFee) */\n      0xffffffff\n        /* \"bitlime-periphery/contracts/Safemoon.sol\":34320:34331  _rTotal.sub */\n      tag_249\n        /* \"bitlime-periphery/contracts/Safemoon.sol\":34320:34337  _rTotal.sub(rFee) */\n      and\n      jump\t// in\n    tag_522:\n        /* \"bitlime-periphery/contracts/Safemoon.sol\":34310:34317  _rTotal */\n      0x0a\n        /* \"bitlime-periphery/contracts/Safemoon.sol\":34310:34337  _rTotal = _rTotal.sub(rFee) */\n      sstore\n        /* \"bitlime-periphery/contracts/Safemoon.sol\":34361:34371  _tFeeTotal */\n      sload(0x0b)\n        /* \"bitlime-periphery/contracts/Safemoon.sol\":34361:34381  _tFeeTotal.add(tFee) */\n      tag_523\n      swap1\n        /* \"bitlime-periphery/contracts/Safemoon.sol\":34376:34380  tFee */\n      dup3\n        /* \"bitlime-periphery/contracts/Safemoon.sol\":34361:34381  _tFeeTotal.add(tFee) */\n      0xffffffff\n        /* \"bitlime-periphery/contracts/Safemoon.sol\":34361:34375  _tFeeTotal.add */\n      tag_242\n        /* \"bitlime-periphery/contracts/Safemoon.sol\":34361:34381  _tFeeTotal.add(tFee) */\n      and\n      jump\t// in\n    tag_523:\n        /* \"bitlime-periphery/contracts/Safemoon.sol\":34348:34358  _tFeeTotal */\n      0x0b\n        /* \"bitlime-periphery/contracts/Safemoon.sol\":34348:34381  _tFeeTotal = _tFeeTotal.add(tFee) */\n      sstore\n      pop\n      pop\n        /* \"bitlime-periphery/contracts/Safemoon.sol\":34242:34389  function _reflectFee(uint256 rFee, uint256 tFee) private {\r... */\n      jump\t// out\n    stop\n    data_0557e210f7a69a685100a7e4e3d0a7024c546085cee28910fd17d0b081d9516f 45524332303a207472616e7366657220746f20746865207a65726f2061646472657373\n    data_22f7af55a509c3b14f0d528f087748dec8a8bf425135e3f5dc28c6a31ec6d812 416d6f756e74206d757374206265206c657373207468616e20746f74616c207265666c656374696f6e73\n    data_245f15ff17f551913a7a18385165551503906a406f905ac1c2437281a7cd0cfe 4f776e61626c653a206e6577206f776e657220697320746865207a65726f2061646472657373\n    data_24883cc5fe64ace9d0df1893501ecb93c77180f0ff69cca79affb3c316dc8029 45524332303a20617070726f766520746f20746865207a65726f2061646472657373\n    data_72052210969ce5fd88e52b5e685de9548acef9bb1b6d02e29c1765d0674948dd 5472616e7366657220616d6f756e74206578636565647320746865206d61785478416d6f756e742e\n    data_9113bb53c2876a3805b2c9242029423fc540a728243ce887ab24c82cf119fba3 536166654d6174683a206d756c7469706c69636174696f6e206f766572666c6f77\n    data_974d1b4421da69cc60b481194f0dad36a5bb4e23da810da7a7fb30cdba178330 45524332303a207472616e7366657220616d6f756e74206578636565647320616c6c6f77616e6365\n    data_9924ebdf1add33d25d4ef888e16131f0a5687b0580a36c21b5c301a6c462effe 4f776e61626c653a2063616c6c6572206973206e6f7420746865206f776e6572\n    data_9c064737b570a74c2bac5d21056d93ac53115214216cd14d4a0fc9b60be81231 8be0079c531659141344cd1fd0a4f28419497f9722a3daafe3b4186f6b6457e0\n    data_9edb5ab58321f35d2386ea65721c9b107daa2c273610fc16d394af2a320ba785 5472616e7366657220616d6f756e74206d7573742062652067726561746572207468616e207a65726f\n    data_baecc556b46f4ed0f2b4cb599d60785ac8563dd2dc0a5bf12edea1c39e5e1fea 45524332303a207472616e736665722066726f6d20746865207a65726f2061646472657373\n    data_c953f4879035ed60e766b34720f656aab5c697b141d924c283124ecedb91c208 45524332303a20617070726f76652066726f6d20746865207a65726f2061646472657373\n    data_ecefcaf5fbcf9ca6dcdb02298ba1da96f4ead317b0a4779917ecb2e5e7dc3ac4 4578636c75646564206164647265737365732063616e6e6f742063616c6c20746869732066756e6374696f6e\n    data_f4eb59be3df39931213d374c3658377dca3f0d2b46b7bc965af767c57c74b611 596f7520646f6e27742068617665207065726d697373696f6e20746f20756e6c6f636b\n    data_f8b476f7d28209d77d4a4ac1fe36b9f8259aa1bb6bddfa6e89de7e51615cf8a8 45524332303a2064656372656173656420616c6c6f77616e63652062656c6f77207a65726f\n\n    auxdata: 0xa2646970667358221220a71de2bb940b14c6ec2bb8df849b88dbb3bf53e77de61b8c0860e3a13aebb11664736f6c63430006060033\n}\n",
				"bytecode": {
					"linkReferences": {},
					"object": "69d3c21bcecceda100000060095569085afffa6ff50bffffff19600a55610100604052600860c08190526729b0b332a6b7b7b760c11b60e09081526200004991600c9190620003de565b506040805180820190915260088082526729a0a322a6a7a7a760c11b60209092019182526200007b91600d91620003de565b50600e805460ff191660091790556005600f819055601081905560118190556012556013805461ff00191661010017905569010f0cf064dd59200000601455681b1ae4d6e2ef500000601555348015620000d457600080fd5b506000620000ea6001600160e01b03620003ca16565b600080546001600160a01b0319166001600160a01b0383169081178255604051929350917f8be0079c531659141344cd1fd0a4f28419497f9722a3daafe3b4186f6b6457e0908290a350600a54600360006200014e6001600160e01b03620003ca16565b6001600160a01b03166001600160a01b031681526020019081526020016000208190555060007305ff2b0db69458a0750badebc4f9e13add608c7f9050806001600160a01b031663c45a01556040518163ffffffff1660e01b815260040160206040518083038186803b158015620001c557600080fd5b505afa158015620001da573d6000803e3d6000fd5b505050506040513d6020811015620001f157600080fd5b5051604080516315ab88c960e31b815290516001600160a01b039283169263c9c653969230929186169163ad5c464891600480820192602092909190829003018186803b1580156200024257600080fd5b505afa15801562000257573d6000803e3d6000fd5b505050506040513d60208110156200026e57600080fd5b5051604080516001600160e01b031960e086901b1681526001600160a01b0393841660048201529290911660248301525160448083019260209291908290030181600087803b158015620002c157600080fd5b505af1158015620002d6573d6000803e3d6000fd5b505050506040513d6020811015620002ed57600080fd5b50516001600160601b0319606091821b811660a0529082901b16608052600160066000620003236001600160e01b03620003cf16565b6001600160a01b0316815260208082019290925260409081016000908120805494151560ff199586161790553081526006909252902080549091166001179055620003766001600160e01b03620003ca16565b6001600160a01b031660006001600160a01b03167fddf252ad1be2c89b69c2b068fc378daa952ba7f163c4a11628f55a4df523b3ef6009546040518082815260200191505060405180910390a35062000480565b335b90565b6000546001600160a01b031690565b828054600181600116156101000203166002900490600052602060002090601f016020900481019282601f106200042157805160ff191683800117855562000451565b8280016001018555821562000451579182015b828111156200045157825182559160200191906001019062000434565b506200045f92915062000463565b5090565b620003cc91905b808211156200045f57600081556001016200046a565b60805160601c60a05160601c612b1b620004c860003980610ed852806119da5250806109a152806121e4528061229c52806122c352806123b252806123d95250612b1b6000f3fe60806040526004361061021e5760003560e01c80635342acb411610123578063a457c2d7116100ab578063d543dbeb1161006f578063d543dbeb14610793578063dd467064146107bd578063dd62ed3e146107e7578063ea2f0b3714610822578063f2fde38b1461085557610225565b8063a457c2d7146106cb578063a69df4b514610704578063a9059cbb14610719578063b6c5232414610752578063c49b9a801461076757610225565b80637d1db4a5116100f25780637d1db4a51461062f57806388f82020146106445780638da5cb5b146106775780638ee88c531461068c57806395d89b41146106b657610225565b80635342acb41461059f5780636bc87c3a146105d257806370a08231146105e7578063715018a61461061a57610225565b80633685d419116101a6578063437823ec11610175578063437823ec146104dd5780634549b0391461051057806349bd5a5e146105425780634a74bb021461055757806352390c021461056c57610225565b80633685d4191461043257806339509351146104655780633b124fe71461049e5780633bd5d173146104b357610225565b80631694505e116101ed5780631694505e1461035457806318160ddd1461038557806323b872dd1461039a5780632d838119146103dd578063313ce5671461040757610225565b8063061c82d01461022a57806306fdde0314610256578063095ea7b3146102e057806313114a9d1461032d57610225565b3661022557005b600080fd5b34801561023657600080fd5b506102546004803603602081101561024d57600080fd5b5035610888565b005b34801561026257600080fd5b5061026b6108e5565b6040805160208082528351818301528351919283929083019185019080838360005b838110156102a557818101518382015260200161028d565b50505050905090810190601f1680156102d25780820380516001836020036101000a031916815260200191505b509250505060405180910390f35b3480156102ec57600080fd5b506103196004803603604081101561030357600080fd5b506001600160a01b03813516906020013561097b565b604080519115158252519081900360200190f35b34801561033957600080fd5b50610342610999565b60408051918252519081900360200190f35b34801561036057600080fd5b5061036961099f565b604080516001600160a01b039092168252519081900360200190f35b34801561039157600080fd5b506103426109c3565b3480156103a657600080fd5b50610319600480360360608110156103bd57600080fd5b506001600160a01b038135811691602081013590911690604001356109c9565b3480156103e957600080fd5b506103426004803603602081101561040057600080fd5b5035610a56565b34801561041357600080fd5b5061041c610abe565b6040805160ff9092168252519081900360200190f35b34801561043e57600080fd5b506102546004803603602081101561045557600080fd5b50356001600160a01b0316610ac7565b34801561047157600080fd5b506103196004803603604081101561048857600080fd5b506001600160a01b038135169060200135610c88565b3480156104aa57600080fd5b50610342610cdc565b3480156104bf57600080fd5b50610254600480360360208110156104d657600080fd5b5035610ce2565b3480156104e957600080fd5b506102546004803603602081101561050057600080fd5b50356001600160a01b0316610dc8565b34801561051c57600080fd5b506103426004803603604081101561053357600080fd5b50803590602001351515610e44565b34801561054e57600080fd5b50610369610ed6565b34801561056357600080fd5b50610319610efa565b34801561057857600080fd5b506102546004803603602081101561058f57600080fd5b50356001600160a01b0316610f08565b3480156105ab57600080fd5b50610319600480360360208110156105c257600080fd5b50356001600160a01b031661108e565b3480156105de57600080fd5b506103426110ac565b3480156105f357600080fd5b506103426004803603602081101561060a57600080fd5b50356001600160a01b03166110b2565b34801561062657600080fd5b50610254611114565b34801561063b57600080fd5b506103426111a4565b34801561065057600080fd5b506103196004803603602081101561066757600080fd5b50356001600160a01b03166111aa565b34801561068357600080fd5b506103696111c8565b34801561069857600080fd5b50610254600480360360208110156106af57600080fd5b50356111d7565b3480156106c257600080fd5b5061026b611234565b3480156106d757600080fd5b50610319600480360360408110156106ee57600080fd5b506001600160a01b038135169060200135611295565b34801561071057600080fd5b50610254611303565b34801561072557600080fd5b506103196004803603604081101561073c57600080fd5b506001600160a01b0381351690602001356113f1565b34801561075e57600080fd5b50610342611405565b34801561077357600080fd5b506102546004803603602081101561078a57600080fd5b5035151561140b565b34801561079f57600080fd5b50610254600480360360208110156107b657600080fd5b50356114b2565b3480156107c957600080fd5b50610254600480360360208110156107e057600080fd5b5035611536565b3480156107f357600080fd5b506103426004803603604081101561080a57600080fd5b506001600160a01b03813581169160200135166115d4565b34801561082e57600080fd5b506102546004803603602081101561084557600080fd5b50356001600160a01b03166115ff565b34801561086157600080fd5b506102546004803603602081101561087857600080fd5b50356001600160a01b0316611678565b61089061175e565b6000546001600160a01b039081169116146108e0576040805162461bcd60e51b815260206004820181905260248201526000805160206129c0833981519152604482015290519081900360640190fd5b600f55565b600c8054604080516020601f60026000196101006001881615020190951694909404938401819004810282018101909252828152606093909290918301828280156109715780601f1061094657610100808354040283529160200191610971565b820191906000526020600020905b81548152906001019060200180831161095457829003601f168201915b5050505050905090565b600061098f61098861175e565b8484611762565b5060015b92915050565b600b5490565b7f000000000000000000000000000000000000000000000000000000000000000081565b60095490565b60006109d684848461184e565b610a4c846109e261175e565b610a4785604051806060016040528060288152602001612998602891396001600160a01b038a16600090815260056020526040812090610a2061175e565b6001600160a01b03168152602081019190915260400160002054919063ffffffff611a9416565b611762565b5060019392505050565b6000600a54821115610a995760405162461bcd60e51b815260040180806020018281038252602a8152602001806128dd602a913960400191505060405180910390fd5b6000610aa3611b2b565b9050610ab5838263ffffffff611b5416565b9150505b919050565b600e5460ff1690565b610acf61175e565b6000546001600160a01b03908116911614610b1f576040805162461bcd60e51b815260206004820181905260248201526000805160206129c0833981519152604482015290519081900360640190fd5b6001600160a01b03811660009081526007602052604090205460ff16610b8c576040805162461bcd60e51b815260206004820152601b60248201527f4163636f756e7420697320616c7265616479206578636c756465640000000000604482015290519081900360640190fd5b60005b600854811015610c8457816001600160a01b031660088281548110610bb057fe5b6000918252602090912001546001600160a01b03161415610c7c57600880546000198101908110610bdd57fe5b600091825260209091200154600880546001600160a01b039092169183908110610c0357fe5b600091825260208083209190910180546001600160a01b0319166001600160a01b039485161790559184168152600482526040808220829055600790925220805460ff191690556008805480610c5557fe5b600082815260209020810160001990810180546001600160a01b0319169055019055610c84565b600101610b8f565b5050565b600061098f610c9561175e565b84610a478560056000610ca661175e565b6001600160a01b03908116825260208083019390935260409182016000908120918c16815292529020549063ffffffff611b9d16565b600f5481565b6000610cec61175e565b6001600160a01b03811660009081526007602052604090205490915060ff1615610d475760405162461bcd60e51b815260040180806020018281038252602c815260200180612a72602c913960400191505060405180910390fd5b6000610d5283611bf7565b505050506001600160a01b038416600090815260036020526040902054919250610d7e91905082611c46565b6001600160a01b038316600090815260036020526040902055600a54610daa908263ffffffff611c4616565b600a55600b54610dc0908463ffffffff611b9d16565b600b55505050565b610dd061175e565b6000546001600160a01b03908116911614610e20576040805162461bcd60e51b815260206004820181905260248201526000805160206129c0833981519152604482015290519081900360640190fd5b6001600160a01b03166000908152600660205260409020805460ff19166001179055565b6000600954831115610e9d576040805162461bcd60e51b815260206004820152601f60248201527f416d6f756e74206d757374206265206c657373207468616e20737570706c7900604482015290519081900360640190fd5b81610ebc576000610ead84611bf7565b50939550610993945050505050565b6000610ec784611bf7565b50929550610993945050505050565b7f000000000000000000000000000000000000000000000000000000000000000081565b601354610100900460ff1681565b610f1061175e565b6000546001600160a01b03908116911614610f60576040805162461bcd60e51b815260206004820181905260248201526000805160206129c0833981519152604482015290519081900360640190fd5b6001600160a01b03811660009081526007602052604090205460ff1615610fce576040805162461bcd60e51b815260206004820152601b60248201527f4163636f756e7420697320616c7265616479206578636c756465640000000000604482015290519081900360640190fd5b6001600160a01b03811660009081526003602052604090205415611028576001600160a01b03811660009081526003602052604090205461100e90610a56565b6001600160a01b0382166000908152600460205260409020555b6001600160a01b03166000818152600760205260408120805460ff191660019081179091556008805491820181559091527ff3f7a9fe364faab93b216da50a3214154f22a0a2b415b23a84c8169e8b636ee30180546001600160a01b0319169091179055565b6001600160a01b031660009081526006602052604090205460ff1690565b60115481565b6001600160a01b03811660009081526007602052604081205460ff16156110f257506001600160a01b038116600090815260046020526040902054610ab9565b6001600160a01b03821660009081526003602052604090205461099390610a56565b61111c61175e565b6000546001600160a01b0390811691161461116c576040805162461bcd60e51b815260206004820181905260248201526000805160206129c0833981519152604482015290519081900360640190fd5b600080546040516001600160a01b03909116906000805160206129e0833981519152908390a3600080546001600160a01b0319169055565b60145481565b6001600160a01b031660009081526007602052604090205460ff1690565b6000546001600160a01b031690565b6111df61175e565b6000546001600160a01b0390811691161461122f576040805162461bcd60e51b815260206004820181905260248201526000805160206129c0833981519152604482015290519081900360640190fd5b601155565b600d8054604080516020601f60026000196101006001881615020190951694909404938401819004810282018101909252828152606093909290918301828280156109715780601f1061094657610100808354040283529160200191610971565b600061098f6112a261175e565b84610a4785604051806060016040528060258152602001612ac160259139600560006112cc61175e565b6001600160a01b03908116825260208083019390935260409182016000908120918d1681529252902054919063ffffffff611a9416565b6001546001600160a01b0316331461134c5760405162461bcd60e51b8152600401808060200182810382526023815260200180612a9e6023913960400191505060405180910390fd5b60025442116113a2576040805162461bcd60e51b815260206004820152601f60248201527f436f6e7472616374206973206c6f636b656420756e74696c2037206461797300604482015290519081900360640190fd5b600154600080546040516001600160a01b0393841693909116916000805160206129e083398151915291a3600154600080546001600160a01b0319166001600160a01b03909216919091179055565b600061098f6113fe61175e565b848461184e565b60025490565b61141361175e565b6000546001600160a01b03908116911614611463576040805162461bcd60e51b815260206004820181905260248201526000805160206129c0833981519152604482015290519081900360640190fd5b60138054821515610100810261ff00199092169190911790915560408051918252517f53726dfcaf90650aa7eb35524f4d3220f07413c8d6cb404cc8c18bf5591bc1599181900360200190a150565b6114ba61175e565b6000546001600160a01b0390811691161461150a576040805162461bcd60e51b815260206004820181905260248201526000805160206129c0833981519152604482015290519081900360640190fd5b611530606461152483600954611c8890919063ffffffff16565b9063ffffffff611b5416565b60145550565b61153e61175e565b6000546001600160a01b0390811691161461158e576040805162461bcd60e51b815260206004820181905260248201526000805160206129c0833981519152604482015290519081900360640190fd5b60008054600180546001600160a01b03199081166001600160a01b0384161790915516815542820160025560405181906000805160206129e0833981519152908290a350565b6001600160a01b03918216600090815260056020908152604080832093909416825291909152205490565b61160761175e565b6000546001600160a01b03908116911614611657576040805162461bcd60e51b815260206004820181905260248201526000805160206129c0833981519152604482015290519081900360640190fd5b6001600160a01b03166000908152600660205260409020805460ff19169055565b61168061175e565b6000546001600160a01b039081169116146116d0576040805162461bcd60e51b815260206004820181905260248201526000805160206129c0833981519152604482015290519081900360640190fd5b6001600160a01b0381166117155760405162461bcd60e51b81526004018080602001828103825260268152602001806129076026913960400191505060405180910390fd5b600080546040516001600160a01b03808516939216916000805160206129e083398151915291a3600080546001600160a01b0319166001600160a01b0392909216919091179055565b3390565b6001600160a01b0383166117a75760405162461bcd60e51b8152600401808060200182810382526024815260200180612a4e6024913960400191505060405180910390fd5b6001600160a01b0382166117ec5760405162461bcd60e51b815260040180806020018281038252602281526020018061292d6022913960400191505060405180910390fd5b6001600160a01b03808416600081815260056020908152604080832094871680845294825291829020859055815185815291517f8c5be1e5ebec7d5bd14f71427d1e84f3dd0314c0f7b2291e5b200ac8c7c3b9259281900390910190a3505050565b6001600160a01b0383166118935760405162461bcd60e51b8152600401808060200182810382526025815260200180612a296025913960400191505060405180910390fd5b6001600160a01b0382166118d85760405162461bcd60e51b81526004018080602001828103825260238152602001806128ba6023913960400191505060405180910390fd5b600081116119175760405162461bcd60e51b8152600401808060200182810382526029815260200180612a006029913960400191505060405180910390fd5b61191f6111c8565b6001600160a01b0316836001600160a01b03161415801561195957506119436111c8565b6001600160a01b0316826001600160a01b031614155b1561199f5760145481111561199f5760405162461bcd60e51b815260040180806020018281038252602881526020018061294f6028913960400191505060405180910390fd5b60006119aa306110b2565b905060145481106119ba57506014545b601554811080159081906119d1575060135460ff16155b8015611a0f57507f00000000000000000000000000000000000000000000000000000000000000006001600160a01b0316856001600160a01b031614155b8015611a225750601354610100900460ff165b15611a35576015549150611a3582611ce1565b6001600160a01b03851660009081526006602052604090205460019060ff1680611a7757506001600160a01b03851660009081526006602052604090205460ff165b15611a80575060005b611a8c86868684611d90565b505050505050565b60008184841115611b235760405162461bcd60e51b81526004018080602001828103825283818151815260200191508051906020019080838360005b83811015611ae8578181015183820152602001611ad0565b50505050905090810190601f168015611b155780820380516001836020036101000a031916815260200191505b509250505060405180910390fd5b505050900390565b6000806000611b38611f04565b9092509050611b4d828263ffffffff611b5416565b9250505090565b6000611b9683836040518060400160405280601a81526020017f536166654d6174683a206469766973696f6e206279207a65726f000000000000815250612079565b9392505050565b600082820183811015611b96576040805162461bcd60e51b815260206004820152601b60248201527f536166654d6174683a206164646974696f6e206f766572666c6f770000000000604482015290519081900360640190fd5b6000806000806000806000806000611c0e8a6120de565b9250925092506000806000611c2c8d8686611c27611b2b565b61212c565b919f909e50909c50959a5093985091965092945050505050565b6000611b9683836040518060400160405280601e81526020017f536166654d6174683a207375627472616374696f6e206f766572666c6f770000815250611a94565b600082611c9757506000610993565b82820282848281611ca457fe5b0414611b965760405162461bcd60e51b81526004018080602001828103825260218152602001806129776021913960400191505060405180910390fd5b6013805460ff191660011790556000611d0182600263ffffffff611b5416565b90506000611d15838363ffffffff611c4616565b905047611d2183612194565b6000611d33478363ffffffff611c4616565b9050611d3f83826123ac565b604080518581526020810183905280820185905290517f17bbfb9a6069321b6ded73bd96327c9e6b7212a5cd51ff219cd61370acafb5619181900360600190a150506013805460ff19169055505050565b80611d9d57611d9d6124bc565b6001600160a01b03841660009081526007602052604090205460ff168015611dde57506001600160a01b03831660009081526007602052604090205460ff16155b15611df357611dee8484846124ee565b611ef1565b6001600160a01b03841660009081526007602052604090205460ff16158015611e3457506001600160a01b03831660009081526007602052604090205460ff165b15611e4457611dee848484612624565b6001600160a01b03841660009081526007602052604090205460ff16158015611e8657506001600160a01b03831660009081526007602052604090205460ff16155b15611e9657611dee8484846126df565b6001600160a01b03841660009081526007602052604090205460ff168015611ed657506001600160a01b03831660009081526007602052604090205460ff165b15611ee657611dee848484612729565b611ef18484846126df565b80611efe57611efe6127a8565b50505050565b600a546009546000918291825b60085481101561204157826003600060088481548110611f2d57fe5b60009182526020808320909101546001600160a01b031683528201929092526040019020541180611f925750816004600060088481548110611f6b57fe5b60009182526020808320909101546001600160a01b03168352820192909252604001902054115b15611fa957600a5460095494509450505050612075565b611fef6003600060088481548110611fbd57fe5b60009182526020808320909101546001600160a01b03168352820192909252604001902054849063ffffffff611c4616565b9250612037600460006008848154811061200557fe5b60009182526020808320909101546001600160a01b03168352820192909252604001902054839063ffffffff611c4616565b9150600101611f11565b50600954600a546120579163ffffffff611b5416565b82101561206f57600a54600954935093505050612075565b90925090505b9091565b600081836120c85760405162461bcd60e51b8152602060048201818152835160248401528351909283926044909101919085019080838360008315611ae8578181015183820152602001611ad0565b5060008385816120d457fe5b0495945050505050565b6000806000806120ed856127b6565b905060006120fa866127d2565b9050600061211e82612112898663ffffffff611c4616565b9063ffffffff611c4616565b979296509094509092505050565b6000808080612141888663ffffffff611c8816565b90506000612155888763ffffffff611c8816565b90506000612169888863ffffffff611c8816565b9050600061218182612112868663ffffffff611c4616565b939b939a50919850919650505050505050565b604080516002808252606080830184529260208301908036833701905050905030816000815181106121c257fe5b60200260200101906001600160a01b031690816001600160a01b0316815250507f00000000000000000000000000000000000000000000000000000000000000006001600160a01b031663ad5c46486040518163ffffffff1660e01b815260040160206040518083038186803b15801561223b57600080fd5b505afa15801561224f573d6000803e3d6000fd5b505050506040513d602081101561226557600080fd5b505181518290600190811061227657fe5b60200260200101906001600160a01b031690816001600160a01b0316815250506122c1307f000000000000000000000000000000000000000000000000000000000000000084611762565b7f00000000000000000000000000000000000000000000000000000000000000006001600160a01b031663791ac9478360008430426040518663ffffffff1660e01b81526004018086815260200185815260200180602001846001600160a01b03166001600160a01b03168152602001838152602001828103825285818151815260200191508051906020019060200280838360005b8381101561236f578181015183820152602001612357565b505050509050019650505050505050600060405180830381600087803b15801561239857600080fd5b505af1158015611a8c573d6000803e3d6000fd5b6123d7307f000000000000000000000000000000000000000000000000000000000000000084611762565b7f00000000000000000000000000000000000000000000000000000000000000006001600160a01b031663f305d7198230856000806124146111c8565b426040518863ffffffff1660e01b815260040180876001600160a01b03166001600160a01b03168152602001868152602001858152602001848152602001836001600160a01b03166001600160a01b0316815260200182815260200196505050505050506060604051808303818588803b15801561249157600080fd5b505af11580156124a5573d6000803e3d6000fd5b50505050506040513d6060811015611efe57600080fd5b600f541580156124cc5750601154155b156124d6576124ec565b600f805460105560118054601255600091829055555b565b60008060008060008061250087611bf7565b6001600160a01b038f16600090815260046020526040902054959b50939950919750955093509150612538908863ffffffff611c4616565b6001600160a01b038a1660009081526004602090815260408083209390935560039052205461256d908763ffffffff611c4616565b6001600160a01b03808b1660009081526003602052604080822093909355908a16815220546125a2908663ffffffff611b9d16565b6001600160a01b0389166000908152600360205260409020556125c4816127ee565b6125ce8483612889565b876001600160a01b0316896001600160a01b03167fddf252ad1be2c89b69c2b068fc378daa952ba7f163c4a11628f55a4df523b3ef856040518082815260200191505060405180910390a3505050505050505050565b60008060008060008061263687611bf7565b6001600160a01b038f16600090815260036020526040902054959b5093995091975095509350915061266e908763ffffffff611c4616565b6001600160a01b03808b16600090815260036020908152604080832094909455918b168152600490915220546126aa908463ffffffff611b9d16565b6001600160a01b0389166000908152600460209081526040808320939093556003905220546125a2908663ffffffff611b9d16565b6000806000806000806126f187611bf7565b6001600160a01b038f16600090815260036020526040902054959b5093995091975095509350915061256d908763ffffffff611c4616565b60008060008060008061273b87611bf7565b6001600160a01b038f16600090815260046020526040902054959b50939950919750955093509150612773908863ffffffff611c4616565b6001600160a01b038a1660009081526004602090815260408083209390935560039052205461266e908763ffffffff611c4616565b601054600f55601254601155565b60006109936064611524600f5485611c8890919063ffffffff16565b6000610993606461152460115485611c8890919063ffffffff16565b60006127f8611b2b565b9050600061280c838363ffffffff611c8816565b3060009081526003602052604090205490915061282f908263ffffffff611b9d16565b3060009081526003602090815260408083209390935560079052205460ff16156128845730600090815260046020526040902054612873908463ffffffff611b9d16565b306000908152600460205260409020555b505050565b600a5461289c908363ffffffff611c4616565b600a55600b546128b2908263ffffffff611b9d16565b600b55505056fe45524332303a207472616e7366657220746f20746865207a65726f2061646472657373416d6f756e74206d757374206265206c657373207468616e20746f74616c207265666c656374696f6e734f776e61626c653a206e6577206f776e657220697320746865207a65726f206164647265737345524332303a20617070726f766520746f20746865207a65726f20616464726573735472616e7366657220616d6f756e74206578636565647320746865206d61785478416d6f756e742e536166654d6174683a206d756c7469706c69636174696f6e206f766572666c6f7745524332303a207472616e7366657220616d6f756e74206578636565647320616c6c6f77616e63654f776e61626c653a2063616c6c6572206973206e6f7420746865206f776e65728be0079c531659141344cd1fd0a4f28419497f9722a3daafe3b4186f6b6457e05472616e7366657220616d6f756e74206d7573742062652067726561746572207468616e207a65726f45524332303a207472616e736665722066726f6d20746865207a65726f206164647265737345524332303a20617070726f76652066726f6d20746865207a65726f20616464726573734578636c75646564206164647265737365732063616e6e6f742063616c6c20746869732066756e6374696f6e596f7520646f6e27742068617665207065726d697373696f6e20746f20756e6c6f636b45524332303a2064656372656173656420616c6c6f77616e63652062656c6f77207a65726fa2646970667358221220a71de2bb940b14c6ec2bb8df849b88dbb3bf53e77de61b8c0860e3a13aebb11664736f6c63430006060033",
					"opcodes": "PUSH10 0xD3C21BCECCEDA1000000 PUSH1 0x9 SSTORE PUSH10 0x85AFFFA6FF50BFFFFFF NOT PUSH1 0xA SSTORE PUSH2 0x100 PUSH1 0x40 MSTORE PUSH1 0x8 PUSH1 0xC0 DUP2 SWAP1 MSTORE PUSH8 0x29B0B332A6B7B7B7 PUSH1 0xC1 SHL PUSH1 0xE0 SWAP1 DUP2 MSTORE PUSH3 0x49 SWAP2 PUSH1 0xC SWAP2 SWAP1 PUSH3 0x3DE JUMP JUMPDEST POP PUSH1 0x40 DUP1 MLOAD DUP1 DUP3 ADD SWAP1 SWAP2 MSTORE PUSH1 0x8 DUP1 DUP3 MSTORE PUSH8 0x29A0A322A6A7A7A7 PUSH1 0xC1 SHL PUSH1 0x20 SWAP1 SWAP3 ADD SWAP2 DUP3 MSTORE PUSH3 0x7B SWAP2 PUSH1 0xD SWAP2 PUSH3 0x3DE JUMP JUMPDEST POP PUSH1 0xE DUP1 SLOAD PUSH1 0xFF NOT AND PUSH1 0x9 OR SWAP1 SSTORE PUSH1 0x5 PUSH1 0xF DUP2 SWAP1 SSTORE PUSH1 0x10 DUP2 SWAP1 SSTORE PUSH1 0x11 DUP2 SWAP1 SSTORE PUSH1 0x12 SSTORE PUSH1 0x13 DUP1 SLOAD PUSH2 0xFF00 NOT AND PUSH2 0x100 OR SWAP1 SSTORE PUSH10 0x10F0CF064DD59200000 PUSH1 0x14 SSTORE PUSH9 0x1B1AE4D6E2EF500000 PUSH1 0x15 SSTORE CALLVALUE DUP1 ISZERO PUSH3 0xD4 JUMPI PUSH1 0x0 DUP1 REVERT JUMPDEST POP PUSH1 0x0 PUSH3 0xEA PUSH1 0x1 PUSH1 0x1 PUSH1 0xE0 SHL SUB PUSH3 0x3CA AND JUMP JUMPDEST PUSH1 0x0 DUP1 SLOAD PUSH1 0x1 PUSH1 0x1 PUSH1 0xA0 SHL SUB NOT AND PUSH1 0x1 PUSH1 0x1 PUSH1 0xA0 SHL SUB DUP4 AND SWAP1 DUP2 OR DUP3 SSTORE PUSH1 0x40 MLOAD SWAP3 SWAP4 POP SWAP2 PUSH32 0x8BE0079C531659141344CD1FD0A4F28419497F9722A3DAAFE3B4186F6B6457E0 SWAP1 DUP3 SWAP1 LOG3 POP PUSH1 0xA SLOAD PUSH1 0x3 PUSH1 0x0 PUSH3 0x14E PUSH1 0x1 PUSH1 0x1 PUSH1 0xE0 SHL SUB PUSH3 0x3CA AND JUMP JUMPDEST PUSH1 0x1 PUSH1 0x1 PUSH1 0xA0 SHL SUB AND PUSH1 0x1 PUSH1 0x1 PUSH1 0xA0 SHL SUB AND DUP2 MSTORE PUSH1 0x20 ADD SWAP1 DUP2 MSTORE PUSH1 0x20 ADD PUSH1 0x0 KECCAK256 DUP2 SWAP1 SSTORE POP PUSH1 0x0 PUSH20 0x5FF2B0DB69458A0750BADEBC4F9E13ADD608C7F SWAP1 POP DUP1 PUSH1 0x1 PUSH1 0x1 PUSH1 0xA0 SHL SUB AND PUSH4 0xC45A0155 PUSH1 0x40 MLOAD DUP2 PUSH4 0xFFFFFFFF AND PUSH1 0xE0 SHL DUP2 MSTORE PUSH1 0x4 ADD PUSH1 0x20 PUSH1 0x40 MLOAD DUP1 DUP4 SUB DUP2 DUP7 DUP1 EXTCODESIZE ISZERO DUP1 ISZERO PUSH3 0x1C5 JUMPI PUSH1 0x0 DUP1 REVERT JUMPDEST POP GAS STATICCALL ISZERO DUP1 ISZERO PUSH3 0x1DA JUMPI RETURNDATASIZE PUSH1 0x0 DUP1 RETURNDATACOPY RETURNDATASIZE PUSH1 0x0 REVERT JUMPDEST POP POP POP POP PUSH1 0x40 MLOAD RETURNDATASIZE PUSH1 0x20 DUP2 LT ISZERO PUSH3 0x1F1 JUMPI PUSH1 0x0 DUP1 REVERT JUMPDEST POP MLOAD PUSH1 0x40 DUP1 MLOAD PUSH4 0x15AB88C9 PUSH1 0xE3 SHL DUP2 MSTORE SWAP1 MLOAD PUSH1 0x1 PUSH1 0x1 PUSH1 0xA0 SHL SUB SWAP3 DUP4 AND SWAP3 PUSH4 0xC9C65396 SWAP3 ADDRESS SWAP3 SWAP2 DUP7 AND SWAP2 PUSH4 0xAD5C4648 SWAP2 PUSH1 0x4 DUP1 DUP3 ADD SWAP3 PUSH1 0x20 SWAP3 SWAP1 SWAP2 SWAP1 DUP3 SWAP1 SUB ADD DUP2 DUP7 DUP1 EXTCODESIZE ISZERO DUP1 ISZERO PUSH3 0x242 JUMPI PUSH1 0x0 DUP1 REVERT JUMPDEST POP GAS STATICCALL ISZERO DUP1 ISZERO PUSH3 0x257 JUMPI RETURNDATASIZE PUSH1 0x0 DUP1 RETURNDATACOPY RETURNDATASIZE PUSH1 0x0 REVERT JUMPDEST POP POP POP POP PUSH1 0x40 MLOAD RETURNDATASIZE PUSH1 0x20 DUP2 LT ISZERO PUSH3 0x26E JUMPI PUSH1 0x0 DUP1 REVERT JUMPDEST POP MLOAD PUSH1 0x40 DUP1 MLOAD PUSH1 0x1 PUSH1 0x1 PUSH1 0xE0 SHL SUB NOT PUSH1 0xE0 DUP7 SWAP1 SHL AND DUP2 MSTORE PUSH1 0x1 PUSH1 0x1 PUSH1 0xA0 SHL SUB SWAP4 DUP5 AND PUSH1 0x4 DUP3 ADD MSTORE SWAP3 SWAP1 SWAP2 AND PUSH1 0x24 DUP4 ADD MSTORE MLOAD PUSH1 0x44 DUP1 DUP4 ADD SWAP3 PUSH1 0x20 SWAP3 SWAP2 SWAP1 DUP3 SWAP1 SUB ADD DUP2 PUSH1 0x0 DUP8 DUP1 EXTCODESIZE ISZERO DUP1 ISZERO PUSH3 0x2C1 JUMPI PUSH1 0x0 DUP1 REVERT JUMPDEST POP GAS CALL ISZERO DUP1 ISZERO PUSH3 0x2D6 JUMPI RETURNDATASIZE PUSH1 0x0 DUP1 RETURNDATACOPY RETURNDATASIZE PUSH1 0x0 REVERT JUMPDEST POP POP POP POP PUSH1 0x40 MLOAD RETURNDATASIZE PUSH1 0x20 DUP2 LT ISZERO PUSH3 0x2ED JUMPI PUSH1 0x0 DUP1 REVERT JUMPDEST POP MLOAD PUSH1 0x1 PUSH1 0x1 PUSH1 0x60 SHL SUB NOT PUSH1 0x60 SWAP2 DUP3 SHL DUP2 AND PUSH1 0xA0 MSTORE SWAP1 DUP3 SWAP1 SHL AND PUSH1 0x80 MSTORE PUSH1 0x1 PUSH1 0x6 PUSH1 0x0 PUSH3 0x323 PUSH1 0x1 PUSH1 0x1 PUSH1 0xE0 SHL SUB PUSH3 0x3CF AND JUMP JUMPDEST PUSH1 0x1 PUSH1 0x1 PUSH1 0xA0 SHL SUB AND DUP2 MSTORE PUSH1 0x20 DUP1 DUP3 ADD SWAP3 SWAP1 SWAP3 MSTORE PUSH1 0x40 SWAP1 DUP2 ADD PUSH1 0x0 SWAP1 DUP2 KECCAK256 DUP1 SLOAD SWAP5 ISZERO ISZERO PUSH1 0xFF NOT SWAP6 DUP7 AND OR SWAP1 SSTORE ADDRESS DUP2 MSTORE PUSH1 0x6 SWAP1 SWAP3 MSTORE SWAP1 KECCAK256 DUP1 SLOAD SWAP1 SWAP2 AND PUSH1 0x1 OR SWAP1 SSTORE PUSH3 0x376 PUSH1 0x1 PUSH1 0x1 PUSH1 0xE0 SHL SUB PUSH3 0x3CA AND JUMP JUMPDEST PUSH1 0x1 PUSH1 0x1 PUSH1 0xA0 SHL SUB AND PUSH1 0x0 PUSH1 0x1 PUSH1 0x1 PUSH1 0xA0 SHL SUB AND PUSH32 0xDDF252AD1BE2C89B69C2B068FC378DAA952BA7F163C4A11628F55A4DF523B3EF PUSH1 0x9 SLOAD PUSH1 0x40 MLOAD DUP1 DUP3 DUP2 MSTORE PUSH1 0x20 ADD SWAP2 POP POP PUSH1 0x40 MLOAD DUP1 SWAP2 SUB SWAP1 LOG3 POP PUSH3 0x480 JUMP JUMPDEST CALLER JUMPDEST SWAP1 JUMP JUMPDEST PUSH1 0x0 SLOAD PUSH1 0x1 PUSH1 0x1 PUSH1 0xA0 SHL SUB AND SWAP1 JUMP JUMPDEST DUP3 DUP1 SLOAD PUSH1 0x1 DUP2 PUSH1 0x1 AND ISZERO PUSH2 0x100 MUL SUB AND PUSH1 0x2 SWAP1 DIV SWAP1 PUSH1 0x0 MSTORE PUSH1 0x20 PUSH1 0x0 KECCAK256 SWAP1 PUSH1 0x1F ADD PUSH1 0x20 SWAP1 DIV DUP2 ADD SWAP3 DUP3 PUSH1 0x1F LT PUSH3 0x421 JUMPI DUP1 MLOAD PUSH1 0xFF NOT AND DUP4 DUP1 ADD OR DUP6 SSTORE PUSH3 0x451 JUMP JUMPDEST DUP3 DUP1 ADD PUSH1 0x1 ADD DUP6 SSTORE DUP3 ISZERO PUSH3 0x451 JUMPI SWAP2 DUP3 ADD JUMPDEST DUP3 DUP2 GT ISZERO PUSH3 0x451 JUMPI DUP3 MLOAD DUP3 SSTORE SWAP2 PUSH1 0x20 ADD SWAP2 SWAP1 PUSH1 0x1 ADD SWAP1 PUSH3 0x434 JUMP JUMPDEST POP PUSH3 0x45F SWAP3 SWAP2 POP PUSH3 0x463 JUMP JUMPDEST POP SWAP1 JUMP JUMPDEST PUSH3 0x3CC SWAP2 SWAP1 JUMPDEST DUP1 DUP3 GT ISZERO PUSH3 0x45F JUMPI PUSH1 0x0 DUP2 SSTORE PUSH1 0x1 ADD PUSH3 0x46A JUMP JUMPDEST PUSH1 0x80 MLOAD PUSH1 0x60 SHR PUSH1 0xA0 MLOAD PUSH1 0x60 SHR PUSH2 0x2B1B PUSH3 0x4C8 PUSH1 0x0 CODECOPY DUP1 PUSH2 0xED8 MSTORE DUP1 PUSH2 0x19DA MSTORE POP DUP1 PUSH2 0x9A1 MSTORE DUP1 PUSH2 0x21E4 MSTORE DUP1 PUSH2 0x229C MSTORE DUP1 PUSH2 0x22C3 MSTORE DUP1 PUSH2 0x23B2 MSTORE DUP1 PUSH2 0x23D9 MSTORE POP PUSH2 0x2B1B PUSH1 0x0 RETURN INVALID PUSH1 0x80 PUSH1 0x40 MSTORE PUSH1 0x4 CALLDATASIZE LT PUSH2 0x21E JUMPI PUSH1 0x0 CALLDATALOAD PUSH1 0xE0 SHR DUP1 PUSH4 0x5342ACB4 GT PUSH2 0x123 JUMPI DUP1 PUSH4 0xA457C2D7 GT PUSH2 0xAB JUMPI DUP1 PUSH4 0xD543DBEB GT PUSH2 0x6F JUMPI DUP1 PUSH4 0xD543DBEB EQ PUSH2 0x793 JUMPI DUP1 PUSH4 0xDD467064 EQ PUSH2 0x7BD JUMPI DUP1 PUSH4 0xDD62ED3E EQ PUSH2 0x7E7 JUMPI DUP1 PUSH4 0xEA2F0B37 EQ PUSH2 0x822 JUMPI DUP1 PUSH4 0xF2FDE38B EQ PUSH2 0x855 JUMPI PUSH2 0x225 JUMP JUMPDEST DUP1 PUSH4 0xA457C2D7 EQ PUSH2 0x6CB JUMPI DUP1 PUSH4 0xA69DF4B5 EQ PUSH2 0x704 JUMPI DUP1 PUSH4 0xA9059CBB EQ PUSH2 0x719 JUMPI DUP1 PUSH4 0xB6C52324 EQ PUSH2 0x752 JUMPI DUP1 PUSH4 0xC49B9A80 EQ PUSH2 0x767 JUMPI PUSH2 0x225 JUMP JUMPDEST DUP1 PUSH4 0x7D1DB4A5 GT PUSH2 0xF2 JUMPI DUP1 PUSH4 0x7D1DB4A5 EQ PUSH2 0x62F JUMPI DUP1 PUSH4 0x88F82020 EQ PUSH2 0x644 JUMPI DUP1 PUSH4 0x8DA5CB5B EQ PUSH2 0x677 JUMPI DUP1 PUSH4 0x8EE88C53 EQ PUSH2 0x68C JUMPI DUP1 PUSH4 0x95D89B41 EQ PUSH2 0x6B6 JUMPI PUSH2 0x225 JUMP JUMPDEST DUP1 PUSH4 0x5342ACB4 EQ PUSH2 0x59F JUMPI DUP1 PUSH4 0x6BC87C3A EQ PUSH2 0x5D2 JUMPI DUP1 PUSH4 0x70A08231 EQ PUSH2 0x5E7 JUMPI DUP1 PUSH4 0x715018A6 EQ PUSH2 0x61A JUMPI PUSH2 0x225 JUMP JUMPDEST DUP1 PUSH4 0x3685D419 GT PUSH2 0x1A6 JUMPI DUP1 PUSH4 0x437823EC GT PUSH2 0x175 JUMPI DUP1 PUSH4 0x437823EC EQ PUSH2 0x4DD JUMPI DUP1 PUSH4 0x4549B039 EQ PUSH2 0x510 JUMPI DUP1 PUSH4 0x49BD5A5E EQ PUSH2 0x542 JUMPI DUP1 PUSH4 0x4A74BB02 EQ PUSH2 0x557 JUMPI DUP1 PUSH4 0x52390C02 EQ PUSH2 0x56C JUMPI PUSH2 0x225 JUMP JUMPDEST DUP1 PUSH4 0x3685D419 EQ PUSH2 0x432 JUMPI DUP1 PUSH4 0x39509351 EQ PUSH2 0x465 JUMPI DUP1 PUSH4 0x3B124FE7 EQ PUSH2 0x49E JUMPI DUP1 PUSH4 0x3BD5D173 EQ PUSH2 0x4B3 JUMPI PUSH2 0x225 JUMP JUMPDEST DUP1 PUSH4 0x1694505E GT PUSH2 0x1ED JUMPI DUP1 PUSH4 0x1694505E EQ PUSH2 0x354 JUMPI DUP1 PUSH4 0x18160DDD EQ PUSH2 0x385 JUMPI DUP1 PUSH4 0x23B872DD EQ PUSH2 0x39A JUMPI DUP1 PUSH4 0x2D838119 EQ PUSH2 0x3DD JUMPI DUP1 PUSH4 0x313CE567 EQ PUSH2 0x407 JUMPI PUSH2 0x225 JUMP JUMPDEST DUP1 PUSH4 0x61C82D0 EQ PUSH2 0x22A JUMPI DUP1 PUSH4 0x6FDDE03 EQ PUSH2 0x256 JUMPI DUP1 PUSH4 0x95EA7B3 EQ PUSH2 0x2E0 JUMPI DUP1 PUSH4 0x13114A9D EQ PUSH2 0x32D JUMPI PUSH2 0x225 JUMP JUMPDEST CALLDATASIZE PUSH2 0x225 JUMPI STOP JUMPDEST PUSH1 0x0 DUP1 REVERT JUMPDEST CALLVALUE DUP1 ISZERO PUSH2 0x236 JUMPI PUSH1 0x0 DUP1 REVERT JUMPDEST POP PUSH2 0x254 PUSH1 0x4 DUP1 CALLDATASIZE SUB PUSH1 0x20 DUP2 LT ISZERO PUSH2 0x24D JUMPI PUSH1 0x0 DUP1 REVERT JUMPDEST POP CALLDATALOAD PUSH2 0x888 JUMP JUMPDEST STOP JUMPDEST CALLVALUE DUP1 ISZERO PUSH2 0x262 JUMPI PUSH1 0x0 DUP1 REVERT JUMPDEST POP PUSH2 0x26B PUSH2 0x8E5 JUMP JUMPDEST PUSH1 0x40 DUP1 MLOAD PUSH1 0x20 DUP1 DUP3 MSTORE DUP4 MLOAD DUP2 DUP4 ADD MSTORE DUP4 MLOAD SWAP2 SWAP3 DUP4 SWAP3 SWAP1 DUP4 ADD SWAP2 DUP6 ADD SWAP1 DUP1 DUP4 DUP4 PUSH1 0x0 JUMPDEST DUP4 DUP2 LT ISZERO PUSH2 0x2A5 JUMPI DUP2 DUP2 ADD MLOAD DUP4 DUP3 ADD MSTORE PUSH1 0x20 ADD PUSH2 0x28D JUMP JUMPDEST POP POP POP POP SWAP1 POP SWAP1 DUP2 ADD SWAP1 PUSH1 0x1F AND DUP1 ISZERO PUSH2 0x2D2 JUMPI DUP1 DUP3 SUB DUP1 MLOAD PUSH1 0x1 DUP4 PUSH1 0x20 SUB PUSH2 0x100 EXP SUB NOT AND DUP2 MSTORE PUSH1 0x20 ADD SWAP2 POP JUMPDEST POP SWAP3 POP POP POP PUSH1 0x40 MLOAD DUP1 SWAP2 SUB SWAP1 RETURN JUMPDEST CALLVALUE DUP1 ISZERO PUSH2 0x2EC JUMPI PUSH1 0x0 DUP1 REVERT JUMPDEST POP PUSH2 0x319 PUSH1 0x4 DUP1 CALLDATASIZE SUB PUSH1 0x40 DUP2 LT ISZERO PUSH2 0x303 JUMPI PUSH1 0x0 DUP1 REVERT JUMPDEST POP PUSH1 0x1 PUSH1 0x1 PUSH1 0xA0 SHL SUB DUP2 CALLDATALOAD AND SWAP1 PUSH1 0x20 ADD CALLDATALOAD PUSH2 0x97B JUMP JUMPDEST PUSH1 0x40 DUP1 MLOAD SWAP2 ISZERO ISZERO DUP3 MSTORE MLOAD SWAP1 DUP2 SWAP1 SUB PUSH1 0x20 ADD SWAP1 RETURN JUMPDEST CALLVALUE DUP1 ISZERO PUSH2 0x339 JUMPI PUSH1 0x0 DUP1 REVERT JUMPDEST POP PUSH2 0x342 PUSH2 0x999 JUMP JUMPDEST PUSH1 0x40 DUP1 MLOAD SWAP2 DUP3 MSTORE MLOAD SWAP1 DUP2 SWAP1 SUB PUSH1 0x20 ADD SWAP1 RETURN JUMPDEST CALLVALUE DUP1 ISZERO PUSH2 0x360 JUMPI PUSH1 0x0 DUP1 REVERT JUMPDEST POP PUSH2 0x369 PUSH2 0x99F JUMP JUMPDEST PUSH1 0x40 DUP1 MLOAD PUSH1 0x1 PUSH1 0x1 PUSH1 0xA0 SHL SUB SWAP1 SWAP3 AND DUP3 MSTORE MLOAD SWAP1 DUP2 SWAP1 SUB PUSH1 0x20 ADD SWAP1 RETURN JUMPDEST CALLVALUE DUP1 ISZERO PUSH2 0x391 JUMPI PUSH1 0x0 DUP1 REVERT JUMPDEST POP PUSH2 0x342 PUSH2 0x9C3 JUMP JUMPDEST CALLVALUE DUP1 ISZERO PUSH2 0x3A6 JUMPI PUSH1 0x0 DUP1 REVERT JUMPDEST POP PUSH2 0x319 PUSH1 0x4 DUP1 CALLDATASIZE SUB PUSH1 0x60 DUP2 LT ISZERO PUSH2 0x3BD JUMPI PUSH1 0x0 DUP1 REVERT JUMPDEST POP PUSH1 0x1 PUSH1 0x1 PUSH1 0xA0 SHL SUB DUP2 CALLDATALOAD DUP2 AND SWAP2 PUSH1 0x20 DUP2 ADD CALLDATALOAD SWAP1 SWAP2 AND SWAP1 PUSH1 0x40 ADD CALLDATALOAD PUSH2 0x9C9 JUMP JUMPDEST CALLVALUE DUP1 ISZERO PUSH2 0x3E9 JUMPI PUSH1 0x0 DUP1 REVERT JUMPDEST POP PUSH2 0x342 PUSH1 0x4 DUP1 CALLDATASIZE SUB PUSH1 0x20 DUP2 LT ISZERO PUSH2 0x400 JUMPI PUSH1 0x0 DUP1 REVERT JUMPDEST POP CALLDATALOAD PUSH2 0xA56 JUMP JUMPDEST CALLVALUE DUP1 ISZERO PUSH2 0x413 JUMPI PUSH1 0x0 DUP1 REVERT JUMPDEST POP PUSH2 0x41C PUSH2 0xABE JUMP JUMPDEST PUSH1 0x40 DUP1 MLOAD PUSH1 0xFF SWAP1 SWAP3 AND DUP3 MSTORE MLOAD SWAP1 DUP2 SWAP1 SUB PUSH1 0x20 ADD SWAP1 RETURN JUMPDEST CALLVALUE DUP1 ISZERO PUSH2 0x43E JUMPI PUSH1 0x0 DUP1 REVERT JUMPDEST POP PUSH2 0x254 PUSH1 0x4 DUP1 CALLDATASIZE SUB PUSH1 0x20 DUP2 LT ISZERO PUSH2 0x455 JUMPI PUSH1 0x0 DUP1 REVERT JUMPDEST POP CALLDATALOAD PUSH1 0x1 PUSH1 0x1 PUSH1 0xA0 SHL SUB AND PUSH2 0xAC7 JUMP JUMPDEST CALLVALUE DUP1 ISZERO PUSH2 0x471 JUMPI PUSH1 0x0 DUP1 REVERT JUMPDEST POP PUSH2 0x319 PUSH1 0x4 DUP1 CALLDATASIZE SUB PUSH1 0x40 DUP2 LT ISZERO PUSH2 0x488 JUMPI PUSH1 0x0 DUP1 REVERT JUMPDEST POP PUSH1 0x1 PUSH1 0x1 PUSH1 0xA0 SHL SUB DUP2 CALLDATALOAD AND SWAP1 PUSH1 0x20 ADD CALLDATALOAD PUSH2 0xC88 JUMP JUMPDEST CALLVALUE DUP1 ISZERO PUSH2 0x4AA JUMPI PUSH1 0x0 DUP1 REVERT JUMPDEST POP PUSH2 0x342 PUSH2 0xCDC JUMP JUMPDEST CALLVALUE DUP1 ISZERO PUSH2 0x4BF JUMPI PUSH1 0x0 DUP1 REVERT JUMPDEST POP PUSH2 0x254 PUSH1 0x4 DUP1 CALLDATASIZE SUB PUSH1 0x20 DUP2 LT ISZERO PUSH2 0x4D6 JUMPI PUSH1 0x0 DUP1 REVERT JUMPDEST POP CALLDATALOAD PUSH2 0xCE2 JUMP JUMPDEST CALLVALUE DUP1 ISZERO PUSH2 0x4E9 JUMPI PUSH1 0x0 DUP1 REVERT JUMPDEST POP PUSH2 0x254 PUSH1 0x4 DUP1 CALLDATASIZE SUB PUSH1 0x20 DUP2 LT ISZERO PUSH2 0x500 JUMPI PUSH1 0x0 DUP1 REVERT JUMPDEST POP CALLDATALOAD PUSH1 0x1 PUSH1 0x1 PUSH1 0xA0 SHL SUB AND PUSH2 0xDC8 JUMP JUMPDEST CALLVALUE DUP1 ISZERO PUSH2 0x51C JUMPI PUSH1 0x0 DUP1 REVERT JUMPDEST POP PUSH2 0x342 PUSH1 0x4 DUP1 CALLDATASIZE SUB PUSH1 0x40 DUP2 LT ISZERO PUSH2 0x533 JUMPI PUSH1 0x0 DUP1 REVERT JUMPDEST POP DUP1 CALLDATALOAD SWAP1 PUSH1 0x20 ADD CALLDATALOAD ISZERO ISZERO PUSH2 0xE44 JUMP JUMPDEST CALLVALUE DUP1 ISZERO PUSH2 0x54E JUMPI PUSH1 0x0 DUP1 REVERT JUMPDEST POP PUSH2 0x369 PUSH2 0xED6 JUMP JUMPDEST CALLVALUE DUP1 ISZERO PUSH2 0x563 JUMPI PUSH1 0x0 DUP1 REVERT JUMPDEST POP PUSH2 0x319 PUSH2 0xEFA JUMP JUMPDEST CALLVALUE DUP1 ISZERO PUSH2 0x578 JUMPI PUSH1 0x0 DUP1 REVERT JUMPDEST POP PUSH2 0x254 PUSH1 0x4 DUP1 CALLDATASIZE SUB PUSH1 0x20 DUP2 LT ISZERO PUSH2 0x58F JUMPI PUSH1 0x0 DUP1 REVERT JUMPDEST POP CALLDATALOAD PUSH1 0x1 PUSH1 0x1 PUSH1 0xA0 SHL SUB AND PUSH2 0xF08 JUMP JUMPDEST CALLVALUE DUP1 ISZERO PUSH2 0x5AB JUMPI PUSH1 0x0 DUP1 REVERT JUMPDEST POP PUSH2 0x319 PUSH1 0x4 DUP1 CALLDATASIZE SUB PUSH1 0x20 DUP2 LT ISZERO PUSH2 0x5C2 JUMPI PUSH1 0x0 DUP1 REVERT JUMPDEST POP CALLDATALOAD PUSH1 0x1 PUSH1 0x1 PUSH1 0xA0 SHL SUB AND PUSH2 0x108E JUMP JUMPDEST CALLVALUE DUP1 ISZERO PUSH2 0x5DE JUMPI PUSH1 0x0 DUP1 REVERT JUMPDEST POP PUSH2 0x342 PUSH2 0x10AC JUMP JUMPDEST CALLVALUE DUP1 ISZERO PUSH2 0x5F3 JUMPI PUSH1 0x0 DUP1 REVERT JUMPDEST POP PUSH2 0x342 PUSH1 0x4 DUP1 CALLDATASIZE SUB PUSH1 0x20 DUP2 LT ISZERO PUSH2 0x60A JUMPI PUSH1 0x0 DUP1 REVERT JUMPDEST POP CALLDATALOAD PUSH1 0x1 PUSH1 0x1 PUSH1 0xA0 SHL SUB AND PUSH2 0x10B2 JUMP JUMPDEST CALLVALUE DUP1 ISZERO PUSH2 0x626 JUMPI PUSH1 0x0 DUP1 REVERT JUMPDEST POP PUSH2 0x254 PUSH2 0x1114 JUMP JUMPDEST CALLVALUE DUP1 ISZERO PUSH2 0x63B JUMPI PUSH1 0x0 DUP1 REVERT JUMPDEST POP PUSH2 0x342 PUSH2 0x11A4 JUMP JUMPDEST CALLVALUE DUP1 ISZERO PUSH2 0x650 JUMPI PUSH1 0x0 DUP1 REVERT JUMPDEST POP PUSH2 0x319 PUSH1 0x4 DUP1 CALLDATASIZE SUB PUSH1 0x20 DUP2 LT ISZERO PUSH2 0x667 JUMPI PUSH1 0x0 DUP1 REVERT JUMPDEST POP CALLDATALOAD PUSH1 0x1 PUSH1 0x1 PUSH1 0xA0 SHL SUB AND PUSH2 0x11AA JUMP JUMPDEST CALLVALUE DUP1 ISZERO PUSH2 0x683 JUMPI PUSH1 0x0 DUP1 REVERT JUMPDEST POP PUSH2 0x369 PUSH2 0x11C8 JUMP JUMPDEST CALLVALUE DUP1 ISZERO PUSH2 0x698 JUMPI PUSH1 0x0 DUP1 REVERT JUMPDEST POP PUSH2 0x254 PUSH1 0x4 DUP1 CALLDATASIZE SUB PUSH1 0x20 DUP2 LT ISZERO PUSH2 0x6AF JUMPI PUSH1 0x0 DUP1 REVERT JUMPDEST POP CALLDATALOAD PUSH2 0x11D7 JUMP JUMPDEST CALLVALUE DUP1 ISZERO PUSH2 0x6C2 JUMPI PUSH1 0x0 DUP1 REVERT JUMPDEST POP PUSH2 0x26B PUSH2 0x1234 JUMP JUMPDEST CALLVALUE DUP1 ISZERO PUSH2 0x6D7 JUMPI PUSH1 0x0 DUP1 REVERT JUMPDEST POP PUSH2 0x319 PUSH1 0x4 DUP1 CALLDATASIZE SUB PUSH1 0x40 DUP2 LT ISZERO PUSH2 0x6EE JUMPI PUSH1 0x0 DUP1 REVERT JUMPDEST POP PUSH1 0x1 PUSH1 0x1 PUSH1 0xA0 SHL SUB DUP2 CALLDATALOAD AND SWAP1 PUSH1 0x20 ADD CALLDATALOAD PUSH2 0x1295 JUMP JUMPDEST CALLVALUE DUP1 ISZERO PUSH2 0x710 JUMPI PUSH1 0x0 DUP1 REVERT JUMPDEST POP PUSH2 0x254 PUSH2 0x1303 JUMP JUMPDEST CALLVALUE DUP1 ISZERO PUSH2 0x725 JUMPI PUSH1 0x0 DUP1 REVERT JUMPDEST POP PUSH2 0x319 PUSH1 0x4 DUP1 CALLDATASIZE SUB PUSH1 0x40 DUP2 LT ISZERO PUSH2 0x73C JUMPI PUSH1 0x0 DUP1 REVERT JUMPDEST POP PUSH1 0x1 PUSH1 0x1 PUSH1 0xA0 SHL SUB DUP2 CALLDATALOAD AND SWAP1 PUSH1 0x20 ADD CALLDATALOAD PUSH2 0x13F1 JUMP JUMPDEST CALLVALUE DUP1 ISZERO PUSH2 0x75E JUMPI PUSH1 0x0 DUP1 REVERT JUMPDEST POP PUSH2 0x342 PUSH2 0x1405 JUMP JUMPDEST CALLVALUE DUP1 ISZERO PUSH2 0x773 JUMPI PUSH1 0x0 DUP1 REVERT JUMPDEST POP PUSH2 0x254 PUSH1 0x4 DUP1 CALLDATASIZE SUB PUSH1 0x20 DUP2 LT ISZERO PUSH2 0x78A JUMPI PUSH1 0x0 DUP1 REVERT JUMPDEST POP CALLDATALOAD ISZERO ISZERO PUSH2 0x140B JUMP JUMPDEST CALLVALUE DUP1 ISZERO PUSH2 0x79F JUMPI PUSH1 0x0 DUP1 REVERT JUMPDEST POP PUSH2 0x254 PUSH1 0x4 DUP1 CALLDATASIZE SUB PUSH1 0x20 DUP2 LT ISZERO PUSH2 0x7B6 JUMPI PUSH1 0x0 DUP1 REVERT JUMPDEST POP CALLDATALOAD PUSH2 0x14B2 JUMP JUMPDEST CALLVALUE DUP1 ISZERO PUSH2 0x7C9 JUMPI PUSH1 0x0 DUP1 REVERT JUMPDEST POP PUSH2 0x254 PUSH1 0x4 DUP1 CALLDATASIZE SUB PUSH1 0x20 DUP2 LT ISZERO PUSH2 0x7E0 JUMPI PUSH1 0x0 DUP1 REVERT JUMPDEST POP CALLDATALOAD PUSH2 0x1536 JUMP JUMPDEST CALLVALUE DUP1 ISZERO PUSH2 0x7F3 JUMPI PUSH1 0x0 DUP1 REVERT JUMPDEST POP PUSH2 0x342 PUSH1 0x4 DUP1 CALLDATASIZE SUB PUSH1 0x40 DUP2 LT ISZERO PUSH2 0x80A JUMPI PUSH1 0x0 DUP1 REVERT JUMPDEST POP PUSH1 0x1 PUSH1 0x1 PUSH1 0xA0 SHL SUB DUP2 CALLDATALOAD DUP2 AND SWAP2 PUSH1 0x20 ADD CALLDATALOAD AND PUSH2 0x15D4 JUMP JUMPDEST CALLVALUE DUP1 ISZERO PUSH2 0x82E JUMPI PUSH1 0x0 DUP1 REVERT JUMPDEST POP PUSH2 0x254 PUSH1 0x4 DUP1 CALLDATASIZE SUB PUSH1 0x20 DUP2 LT ISZERO PUSH2 0x845 JUMPI PUSH1 0x0 DUP1 REVERT JUMPDEST POP CALLDATALOAD PUSH1 0x1 PUSH1 0x1 PUSH1 0xA0 SHL SUB AND PUSH2 0x15FF JUMP JUMPDEST CALLVALUE DUP1 ISZERO PUSH2 0x861 JUMPI PUSH1 0x0 DUP1 REVERT JUMPDEST POP PUSH2 0x254 PUSH1 0x4 DUP1 CALLDATASIZE SUB PUSH1 0x20 DUP2 LT ISZERO PUSH2 0x878 JUMPI PUSH1 0x0 DUP1 REVERT JUMPDEST POP CALLDATALOAD PUSH1 0x1 PUSH1 0x1 PUSH1 0xA0 SHL SUB AND PUSH2 0x1678 JUMP JUMPDEST PUSH2 0x890 PUSH2 0x175E JUMP JUMPDEST PUSH1 0x0 SLOAD PUSH1 0x1 PUSH1 0x1 PUSH1 0xA0 SHL SUB SWAP1 DUP2 AND SWAP2 AND EQ PUSH2 0x8E0 JUMPI PUSH1 0x40 DUP1 MLOAD PUSH3 0x461BCD PUSH1 0xE5 SHL DUP2 MSTORE PUSH1 0x20 PUSH1 0x4 DUP3 ADD DUP2 SWAP1 MSTORE PUSH1 0x24 DUP3 ADD MSTORE PUSH1 0x0 DUP1 MLOAD PUSH1 0x20 PUSH2 0x29C0 DUP4 CODECOPY DUP2 MLOAD SWAP2 MSTORE PUSH1 0x44 DUP3 ADD MSTORE SWAP1 MLOAD SWAP1 DUP2 SWAP1 SUB PUSH1 0x64 ADD SWAP1 REVERT JUMPDEST PUSH1 0xF SSTORE JUMP JUMPDEST PUSH1 0xC DUP1 SLOAD PUSH1 0x40 DUP1 MLOAD PUSH1 0x20 PUSH1 0x1F PUSH1 0x2 PUSH1 0x0 NOT PUSH2 0x100 PUSH1 0x1 DUP9 AND ISZERO MUL ADD SWAP1 SWAP6 AND SWAP5 SWAP1 SWAP5 DIV SWAP4 DUP5 ADD DUP2 SWAP1 DIV DUP2 MUL DUP3 ADD DUP2 ADD SWAP1 SWAP3 MSTORE DUP3 DUP2 MSTORE PUSH1 0x60 SWAP4 SWAP1 SWAP3 SWAP1 SWAP2 DUP4 ADD DUP3 DUP3 DUP1 ISZERO PUSH2 0x971 JUMPI DUP1 PUSH1 0x1F LT PUSH2 0x946 JUMPI PUSH2 0x100 DUP1 DUP4 SLOAD DIV MUL DUP4 MSTORE SWAP2 PUSH1 0x20 ADD SWAP2 PUSH2 0x971 JUMP JUMPDEST DUP3 ADD SWAP2 SWAP1 PUSH1 0x0 MSTORE PUSH1 0x20 PUSH1 0x0 KECCAK256 SWAP1 JUMPDEST DUP2 SLOAD DUP2 MSTORE SWAP1 PUSH1 0x1 ADD SWAP1 PUSH1 0x20 ADD DUP1 DUP4 GT PUSH2 0x954 JUMPI DUP3 SWAP1 SUB PUSH1 0x1F AND DUP3 ADD SWAP2 JUMPDEST POP POP POP POP POP SWAP1 POP SWAP1 JUMP JUMPDEST PUSH1 0x0 PUSH2 0x98F PUSH2 0x988 PUSH2 0x175E JUMP JUMPDEST DUP5 DUP5 PUSH2 0x1762 JUMP JUMPDEST POP PUSH1 0x1 JUMPDEST SWAP3 SWAP2 POP POP JUMP JUMPDEST PUSH1 0xB SLOAD SWAP1 JUMP JUMPDEST PUSH32 0x0 DUP2 JUMP JUMPDEST PUSH1 0x9 SLOAD SWAP1 JUMP JUMPDEST PUSH1 0x0 PUSH2 0x9D6 DUP5 DUP5 DUP5 PUSH2 0x184E JUMP JUMPDEST PUSH2 0xA4C DUP5 PUSH2 0x9E2 PUSH2 0x175E JUMP JUMPDEST PUSH2 0xA47 DUP6 PUSH1 0x40 MLOAD DUP1 PUSH1 0x60 ADD PUSH1 0x40 MSTORE DUP1 PUSH1 0x28 DUP2 MSTORE PUSH1 0x20 ADD PUSH2 0x2998 PUSH1 0x28 SWAP2 CODECOPY PUSH1 0x1 PUSH1 0x1 PUSH1 0xA0 SHL SUB DUP11 AND PUSH1 0x0 SWAP1 DUP2 MSTORE PUSH1 0x5 PUSH1 0x20 MSTORE PUSH1 0x40 DUP2 KECCAK256 SWAP1 PUSH2 0xA20 PUSH2 0x175E JUMP JUMPDEST PUSH1 0x1 PUSH1 0x1 PUSH1 0xA0 SHL SUB AND DUP2 MSTORE PUSH1 0x20 DUP2 ADD SWAP2 SWAP1 SWAP2 MSTORE PUSH1 0x40 ADD PUSH1 0x0 KECCAK256 SLOAD SWAP2 SWAP1 PUSH4 0xFFFFFFFF PUSH2 0x1A94 AND JUMP JUMPDEST PUSH2 0x1762 JUMP JUMPDEST POP PUSH1 0x1 SWAP4 SWAP3 POP POP POP JUMP JUMPDEST PUSH1 0x0 PUSH1 0xA SLOAD DUP3 GT ISZERO PUSH2 0xA99 JUMPI PUSH1 0x40 MLOAD PUSH3 0x461BCD PUSH1 0xE5 SHL DUP2 MSTORE PUSH1 0x4 ADD DUP1 DUP1 PUSH1 0x20 ADD DUP3 DUP2 SUB DUP3 MSTORE PUSH1 0x2A DUP2 MSTORE PUSH1 0x20 ADD DUP1 PUSH2 0x28DD PUSH1 0x2A SWAP2 CODECOPY PUSH1 0x40 ADD SWAP2 POP POP PUSH1 0x40 MLOAD DUP1 SWAP2 SUB SWAP1 REVERT JUMPDEST PUSH1 0x0 PUSH2 0xAA3 PUSH2 0x1B2B JUMP JUMPDEST SWAP1 POP PUSH2 0xAB5 DUP4 DUP3 PUSH4 0xFFFFFFFF PUSH2 0x1B54 AND JUMP JUMPDEST SWAP2 POP POP JUMPDEST SWAP2 SWAP1 POP JUMP JUMPDEST PUSH1 0xE SLOAD PUSH1 0xFF AND SWAP1 JUMP JUMPDEST PUSH2 0xACF PUSH2 0x175E JUMP JUMPDEST PUSH1 0x0 SLOAD PUSH1 0x1 PUSH1 0x1 PUSH1 0xA0 SHL SUB SWAP1 DUP2 AND SWAP2 AND EQ PUSH2 0xB1F JUMPI PUSH1 0x40 DUP1 MLOAD PUSH3 0x461BCD PUSH1 0xE5 SHL DUP2 MSTORE PUSH1 0x20 PUSH1 0x4 DUP3 ADD DUP2 SWAP1 MSTORE PUSH1 0x24 DUP3 ADD MSTORE PUSH1 0x0 DUP1 MLOAD PUSH1 0x20 PUSH2 0x29C0 DUP4 CODECOPY DUP2 MLOAD SWAP2 MSTORE PUSH1 0x44 DUP3 ADD MSTORE SWAP1 MLOAD SWAP1 DUP2 SWAP1 SUB PUSH1 0x64 ADD SWAP1 REVERT JUMPDEST PUSH1 0x1 PUSH1 0x1 PUSH1 0xA0 SHL SUB DUP2 AND PUSH1 0x0 SWAP1 DUP2 MSTORE PUSH1 0x7 PUSH1 0x20 MSTORE PUSH1 0x40 SWAP1 KECCAK256 SLOAD PUSH1 0xFF AND PUSH2 0xB8C JUMPI PUSH1 0x40 DUP1 MLOAD PUSH3 0x461BCD PUSH1 0xE5 SHL DUP2 MSTORE PUSH1 0x20 PUSH1 0x4 DUP3 ADD MSTORE PUSH1 0x1B PUSH1 0x24 DUP3 ADD MSTORE PUSH32 0x4163636F756E7420697320616C7265616479206578636C756465640000000000 PUSH1 0x44 DUP3 ADD MSTORE SWAP1 MLOAD SWAP1 DUP2 SWAP1 SUB PUSH1 0x64 ADD SWAP1 REVERT JUMPDEST PUSH1 0x0 JUMPDEST PUSH1 0x8 SLOAD DUP2 LT ISZERO PUSH2 0xC84 JUMPI DUP2 PUSH1 0x1 PUSH1 0x1 PUSH1 0xA0 SHL SUB AND PUSH1 0x8 DUP3 DUP2 SLOAD DUP2 LT PUSH2 0xBB0 JUMPI INVALID JUMPDEST PUSH1 0x0 SWAP2 DUP3 MSTORE PUSH1 0x20 SWAP1 SWAP2 KECCAK256 ADD SLOAD PUSH1 0x1 PUSH1 0x1 PUSH1 0xA0 SHL SUB AND EQ ISZERO PUSH2 0xC7C JUMPI PUSH1 0x8 DUP1 SLOAD PUSH1 0x0 NOT DUP2 ADD SWAP1 DUP2 LT PUSH2 0xBDD JUMPI INVALID JUMPDEST PUSH1 0x0 SWAP2 DUP3 MSTORE PUSH1 0x20 SWAP1 SWAP2 KECCAK256 ADD SLOAD PUSH1 0x8 DUP1 SLOAD PUSH1 0x1 PUSH1 0x1 PUSH1 0xA0 SHL SUB SWAP1 SWAP3 AND SWAP2 DUP4 SWAP1 DUP2 LT PUSH2 0xC03 JUMPI INVALID JUMPDEST PUSH1 0x0 SWAP2 DUP3 MSTORE PUSH1 0x20 DUP1 DUP4 KECCAK256 SWAP2 SWAP1 SWAP2 ADD DUP1 SLOAD PUSH1 0x1 PUSH1 0x1 PUSH1 0xA0 SHL SUB NOT AND PUSH1 0x1 PUSH1 0x1 PUSH1 0xA0 SHL SUB SWAP5 DUP6 AND OR SWAP1 SSTORE SWAP2 DUP5 AND DUP2 MSTORE PUSH1 0x4 DUP3 MSTORE PUSH1 0x40 DUP1 DUP3 KECCAK256 DUP3 SWAP1 SSTORE PUSH1 0x7 SWAP1 SWAP3 MSTORE KECCAK256 DUP1 SLOAD PUSH1 0xFF NOT AND SWAP1 SSTORE PUSH1 0x8 DUP1 SLOAD DUP1 PUSH2 0xC55 JUMPI INVALID JUMPDEST PUSH1 0x0 DUP3 DUP2 MSTORE PUSH1 0x20 SWAP1 KECCAK256 DUP2 ADD PUSH1 0x0 NOT SWAP1 DUP2 ADD DUP1 SLOAD PUSH1 0x1 PUSH1 0x1 PUSH1 0xA0 SHL SUB NOT AND SWAP1 SSTORE ADD SWAP1 SSTORE PUSH2 0xC84 JUMP JUMPDEST PUSH1 0x1 ADD PUSH2 0xB8F JUMP JUMPDEST POP POP JUMP JUMPDEST PUSH1 0x0 PUSH2 0x98F PUSH2 0xC95 PUSH2 0x175E JUMP JUMPDEST DUP5 PUSH2 0xA47 DUP6 PUSH1 0x5 PUSH1 0x0 PUSH2 0xCA6 PUSH2 0x175E JUMP JUMPDEST PUSH1 0x1 PUSH1 0x1 PUSH1 0xA0 SHL SUB SWAP1 DUP2 AND DUP3 MSTORE PUSH1 0x20 DUP1 DUP4 ADD SWAP4 SWAP1 SWAP4 MSTORE PUSH1 0x40 SWAP2 DUP3 ADD PUSH1 0x0 SWAP1 DUP2 KECCAK256 SWAP2 DUP13 AND DUP2 MSTORE SWAP3 MSTORE SWAP1 KECCAK256 SLOAD SWAP1 PUSH4 0xFFFFFFFF PUSH2 0x1B9D AND JUMP JUMPDEST PUSH1 0xF SLOAD DUP2 JUMP JUMPDEST PUSH1 0x0 PUSH2 0xCEC PUSH2 0x175E JUMP JUMPDEST PUSH1 0x1 PUSH1 0x1 PUSH1 0xA0 SHL SUB DUP2 AND PUSH1 0x0 SWAP1 DUP2 MSTORE PUSH1 0x7 PUSH1 0x20 MSTORE PUSH1 0x40 SWAP1 KECCAK256 SLOAD SWAP1 SWAP2 POP PUSH1 0xFF AND ISZERO PUSH2 0xD47 JUMPI PUSH1 0x40 MLOAD PUSH3 0x461BCD PUSH1 0xE5 SHL DUP2 MSTORE PUSH1 0x4 ADD DUP1 DUP1 PUSH1 0x20 ADD DUP3 DUP2 SUB DUP3 MSTORE PUSH1 0x2C DUP2 MSTORE PUSH1 0x20 ADD DUP1 PUSH2 0x2A72 PUSH1 0x2C SWAP2 CODECOPY PUSH1 0x40 ADD SWAP2 POP POP PUSH1 0x40 MLOAD DUP1 SWAP2 SUB SWAP1 REVERT JUMPDEST PUSH1 0x0 PUSH2 0xD52 DUP4 PUSH2 0x1BF7 JUMP JUMPDEST POP POP POP POP PUSH1 0x1 PUSH1 0x1 PUSH1 0xA0 SHL SUB DUP5 AND PUSH1 0x0 SWAP1 DUP2 MSTORE PUSH1 0x3 PUSH1 0x20 MSTORE PUSH1 0x40 SWAP1 KECCAK256 SLOAD SWAP2 SWAP3 POP PUSH2 0xD7E SWAP2 SWAP1 POP DUP3 PUSH2 0x1C46 JUMP JUMPDEST PUSH1 0x1 PUSH1 0x1 PUSH1 0xA0 SHL SUB DUP4 AND PUSH1 0x0 SWAP1 DUP2 MSTORE PUSH1 0x3 PUSH1 0x20 MSTORE PUSH1 0x40 SWAP1 KECCAK256 SSTORE PUSH1 0xA SLOAD PUSH2 0xDAA SWAP1 DUP3 PUSH4 0xFFFFFFFF PUSH2 0x1C46 AND JUMP JUMPDEST PUSH1 0xA SSTORE PUSH1 0xB SLOAD PUSH2 0xDC0 SWAP1 DUP5 PUSH4 0xFFFFFFFF PUSH2 0x1B9D AND JUMP JUMPDEST PUSH1 0xB SSTORE POP POP POP JUMP JUMPDEST PUSH2 0xDD0 PUSH2 0x175E JUMP JUMPDEST PUSH1 0x0 SLOAD PUSH1 0x1 PUSH1 0x1 PUSH1 0xA0 SHL SUB SWAP1 DUP2 AND SWAP2 AND EQ PUSH2 0xE20 JUMPI PUSH1 0x40 DUP1 MLOAD PUSH3 0x461BCD PUSH1 0xE5 SHL DUP2 MSTORE PUSH1 0x20 PUSH1 0x4 DUP3 ADD DUP2 SWAP1 MSTORE PUSH1 0x24 DUP3 ADD MSTORE PUSH1 0x0 DUP1 MLOAD PUSH1 0x20 PUSH2 0x29C0 DUP4 CODECOPY DUP2 MLOAD SWAP2 MSTORE PUSH1 0x44 DUP3 ADD MSTORE SWAP1 MLOAD SWAP1 DUP2 SWAP1 SUB PUSH1 0x64 ADD SWAP1 REVERT JUMPDEST PUSH1 0x1 PUSH1 0x1 PUSH1 0xA0 SHL SUB AND PUSH1 0x0 SWAP1 DUP2 MSTORE PUSH1 0x6 PUSH1 0x20 MSTORE PUSH1 0x40 SWAP1 KECCAK256 DUP1 SLOAD PUSH1 0xFF NOT AND PUSH1 0x1 OR SWAP1 SSTORE JUMP JUMPDEST PUSH1 0x0 PUSH1 0x9 SLOAD DUP4 GT ISZERO PUSH2 0xE9D JUMPI PUSH1 0x40 DUP1 MLOAD PUSH3 0x461BCD PUSH1 0xE5 SHL DUP2 MSTORE PUSH1 0x20 PUSH1 0x4 DUP3 ADD MSTORE PUSH1 0x1F PUSH1 0x24 DUP3 ADD MSTORE PUSH32 0x416D6F756E74206D757374206265206C657373207468616E20737570706C7900 PUSH1 0x44 DUP3 ADD MSTORE SWAP1 MLOAD SWAP1 DUP2 SWAP1 SUB PUSH1 0x64 ADD SWAP1 REVERT JUMPDEST DUP2 PUSH2 0xEBC JUMPI PUSH1 0x0 PUSH2 0xEAD DUP5 PUSH2 0x1BF7 JUMP JUMPDEST POP SWAP4 SWAP6 POP PUSH2 0x993 SWAP5 POP POP POP POP POP JUMP JUMPDEST PUSH1 0x0 PUSH2 0xEC7 DUP5 PUSH2 0x1BF7 JUMP JUMPDEST POP SWAP3 SWAP6 POP PUSH2 0x993 SWAP5 POP POP POP POP POP JUMP JUMPDEST PUSH32 0x0 DUP2 JUMP JUMPDEST PUSH1 0x13 SLOAD PUSH2 0x100 SWAP1 DIV PUSH1 0xFF AND DUP2 JUMP JUMPDEST PUSH2 0xF10 PUSH2 0x175E JUMP JUMPDEST PUSH1 0x0 SLOAD PUSH1 0x1 PUSH1 0x1 PUSH1 0xA0 SHL SUB SWAP1 DUP2 AND SWAP2 AND EQ PUSH2 0xF60 JUMPI PUSH1 0x40 DUP1 MLOAD PUSH3 0x461BCD PUSH1 0xE5 SHL DUP2 MSTORE PUSH1 0x20 PUSH1 0x4 DUP3 ADD DUP2 SWAP1 MSTORE PUSH1 0x24 DUP3 ADD MSTORE PUSH1 0x0 DUP1 MLOAD PUSH1 0x20 PUSH2 0x29C0 DUP4 CODECOPY DUP2 MLOAD SWAP2 MSTORE PUSH1 0x44 DUP3 ADD MSTORE SWAP1 MLOAD SWAP1 DUP2 SWAP1 SUB PUSH1 0x64 ADD SWAP1 REVERT JUMPDEST PUSH1 0x1 PUSH1 0x1 PUSH1 0xA0 SHL SUB DUP2 AND PUSH1 0x0 SWAP1 DUP2 MSTORE PUSH1 0x7 PUSH1 0x20 MSTORE PUSH1 0x40 SWAP1 KECCAK256 SLOAD PUSH1 0xFF AND ISZERO PUSH2 0xFCE JUMPI PUSH1 0x40 DUP1 MLOAD PUSH3 0x461BCD PUSH1 0xE5 SHL DUP2 MSTORE PUSH1 0x20 PUSH1 0x4 DUP3 ADD MSTORE PUSH1 0x1B PUSH1 0x24 DUP3 ADD MSTORE PUSH32 0x4163636F756E7420697320616C7265616479206578636C756465640000000000 PUSH1 0x44 DUP3 ADD MSTORE SWAP1 MLOAD SWAP1 DUP2 SWAP1 SUB PUSH1 0x64 ADD SWAP1 REVERT JUMPDEST PUSH1 0x1 PUSH1 0x1 PUSH1 0xA0 SHL SUB DUP2 AND PUSH1 0x0 SWAP1 DUP2 MSTORE PUSH1 0x3 PUSH1 0x20 MSTORE PUSH1 0x40 SWAP1 KECCAK256 SLOAD ISZERO PUSH2 0x1028 JUMPI PUSH1 0x1 PUSH1 0x1 PUSH1 0xA0 SHL SUB DUP2 AND PUSH1 0x0 SWAP1 DUP2 MSTORE PUSH1 0x3 PUSH1 0x20 MSTORE PUSH1 0x40 SWAP1 KECCAK256 SLOAD PUSH2 0x100E SWAP1 PUSH2 0xA56 JUMP JUMPDEST PUSH1 0x1 PUSH1 0x1 PUSH1 0xA0 SHL SUB DUP3 AND PUSH1 0x0 SWAP1 DUP2 MSTORE PUSH1 0x4 PUSH1 0x20 MSTORE PUSH1 0x40 SWAP1 KECCAK256 SSTORE JUMPDEST PUSH1 0x1 PUSH1 0x1 PUSH1 0xA0 SHL SUB AND PUSH1 0x0 DUP2 DUP2 MSTORE PUSH1 0x7 PUSH1 0x20 MSTORE PUSH1 0x40 DUP2 KECCAK256 DUP1 SLOAD PUSH1 0xFF NOT AND PUSH1 0x1 SWAP1 DUP2 OR SWAP1 SWAP2 SSTORE PUSH1 0x8 DUP1 SLOAD SWAP2 DUP3 ADD DUP2 SSTORE SWAP1 SWAP2 MSTORE PUSH32 0xF3F7A9FE364FAAB93B216DA50A3214154F22A0A2B415B23A84C8169E8B636EE3 ADD DUP1 SLOAD PUSH1 0x1 PUSH1 0x1 PUSH1 0xA0 SHL SUB NOT AND SWAP1 SWAP2 OR SWAP1 SSTORE JUMP JUMPDEST PUSH1 0x1 PUSH1 0x1 PUSH1 0xA0 SHL SUB AND PUSH1 0x0 SWAP1 DUP2 MSTORE PUSH1 0x6 PUSH1 0x20 MSTORE PUSH1 0x40 SWAP1 KECCAK256 SLOAD PUSH1 0xFF AND SWAP1 JUMP JUMPDEST PUSH1 0x11 SLOAD DUP2 JUMP JUMPDEST PUSH1 0x1 PUSH1 0x1 PUSH1 0xA0 SHL SUB DUP2 AND PUSH1 0x0 SWAP1 DUP2 MSTORE PUSH1 0x7 PUSH1 0x20 MSTORE PUSH1 0x40 DUP2 KECCAK256 SLOAD PUSH1 0xFF AND ISZERO PUSH2 0x10F2 JUMPI POP PUSH1 0x1 PUSH1 0x1 PUSH1 0xA0 SHL SUB DUP2 AND PUSH1 0x0 SWAP1 DUP2 MSTORE PUSH1 0x4 PUSH1 0x20 MSTORE PUSH1 0x40 SWAP1 KECCAK256 SLOAD PUSH2 0xAB9 JUMP JUMPDEST PUSH1 0x1 PUSH1 0x1 PUSH1 0xA0 SHL SUB DUP3 AND PUSH1 0x0 SWAP1 DUP2 MSTORE PUSH1 0x3 PUSH1 0x20 MSTORE PUSH1 0x40 SWAP1 KECCAK256 SLOAD PUSH2 0x993 SWAP1 PUSH2 0xA56 JUMP JUMPDEST PUSH2 0x111C PUSH2 0x175E JUMP JUMPDEST PUSH1 0x0 SLOAD PUSH1 0x1 PUSH1 0x1 PUSH1 0xA0 SHL SUB SWAP1 DUP2 AND SWAP2 AND EQ PUSH2 0x116C JUMPI PUSH1 0x40 DUP1 MLOAD PUSH3 0x461BCD PUSH1 0xE5 SHL DUP2 MSTORE PUSH1 0x20 PUSH1 0x4 DUP3 ADD DUP2 SWAP1 MSTORE PUSH1 0x24 DUP3 ADD MSTORE PUSH1 0x0 DUP1 MLOAD PUSH1 0x20 PUSH2 0x29C0 DUP4 CODECOPY DUP2 MLOAD SWAP2 MSTORE PUSH1 0x44 DUP3 ADD MSTORE SWAP1 MLOAD SWAP1 DUP2 SWAP1 SUB PUSH1 0x64 ADD SWAP1 REVERT JUMPDEST PUSH1 0x0 DUP1 SLOAD PUSH1 0x40 MLOAD PUSH1 0x1 PUSH1 0x1 PUSH1 0xA0 SHL SUB SWAP1 SWAP2 AND SWAP1 PUSH1 0x0 DUP1 MLOAD PUSH1 0x20 PUSH2 0x29E0 DUP4 CODECOPY DUP2 MLOAD SWAP2 MSTORE SWAP1 DUP4 SWAP1 LOG3 PUSH1 0x0 DUP1 SLOAD PUSH1 0x1 PUSH1 0x1 PUSH1 0xA0 SHL SUB NOT AND SWAP1 SSTORE JUMP JUMPDEST PUSH1 0x14 SLOAD DUP2 JUMP JUMPDEST PUSH1 0x1 PUSH1 0x1 PUSH1 0xA0 SHL SUB AND PUSH1 0x0 SWAP1 DUP2 MSTORE PUSH1 0x7 PUSH1 0x20 MSTORE PUSH1 0x40 SWAP1 KECCAK256 SLOAD PUSH1 0xFF AND SWAP1 JUMP JUMPDEST PUSH1 0x0 SLOAD PUSH1 0x1 PUSH1 0x1 PUSH1 0xA0 SHL SUB AND SWAP1 JUMP JUMPDEST PUSH2 0x11DF PUSH2 0x175E JUMP JUMPDEST PUSH1 0x0 SLOAD PUSH1 0x1 PUSH1 0x1 PUSH1 0xA0 SHL SUB SWAP1 DUP2 AND SWAP2 AND EQ PUSH2 0x122F JUMPI PUSH1 0x40 DUP1 MLOAD PUSH3 0x461BCD PUSH1 0xE5 SHL DUP2 MSTORE PUSH1 0x20 PUSH1 0x4 DUP3 ADD DUP2 SWAP1 MSTORE PUSH1 0x24 DUP3 ADD MSTORE PUSH1 0x0 DUP1 MLOAD PUSH1 0x20 PUSH2 0x29C0 DUP4 CODECOPY DUP2 MLOAD SWAP2 MSTORE PUSH1 0x44 DUP3 ADD MSTORE SWAP1 MLOAD SWAP1 DUP2 SWAP1 SUB PUSH1 0x64 ADD SWAP1 REVERT JUMPDEST PUSH1 0x11 SSTORE JUMP JUMPDEST PUSH1 0xD DUP1 SLOAD PUSH1 0x40 DUP1 MLOAD PUSH1 0x20 PUSH1 0x1F PUSH1 0x2 PUSH1 0x0 NOT PUSH2 0x100 PUSH1 0x1 DUP9 AND ISZERO MUL ADD SWAP1 SWAP6 AND SWAP5 SWAP1 SWAP5 DIV SWAP4 DUP5 ADD DUP2 SWAP1 DIV DUP2 MUL DUP3 ADD DUP2 ADD SWAP1 SWAP3 MSTORE DUP3 DUP2 MSTORE PUSH1 0x60 SWAP4 SWAP1 SWAP3 SWAP1 SWAP2 DUP4 ADD DUP3 DUP3 DUP1 ISZERO PUSH2 0x971 JUMPI DUP1 PUSH1 0x1F LT PUSH2 0x946 JUMPI PUSH2 0x100 DUP1 DUP4 SLOAD DIV MUL DUP4 MSTORE SWAP2 PUSH1 0x20 ADD SWAP2 PUSH2 0x971 JUMP JUMPDEST PUSH1 0x0 PUSH2 0x98F PUSH2 0x12A2 PUSH2 0x175E JUMP JUMPDEST DUP5 PUSH2 0xA47 DUP6 PUSH1 0x40 MLOAD DUP1 PUSH1 0x60 ADD PUSH1 0x40 MSTORE DUP1 PUSH1 0x25 DUP2 MSTORE PUSH1 0x20 ADD PUSH2 0x2AC1 PUSH1 0x25 SWAP2 CODECOPY PUSH1 0x5 PUSH1 0x0 PUSH2 0x12CC PUSH2 0x175E JUMP JUMPDEST PUSH1 0x1 PUSH1 0x1 PUSH1 0xA0 SHL SUB SWAP1 DUP2 AND DUP3 MSTORE PUSH1 0x20 DUP1 DUP4 ADD SWAP4 SWAP1 SWAP4 MSTORE PUSH1 0x40 SWAP2 DUP3 ADD PUSH1 0x0 SWAP1 DUP2 KECCAK256 SWAP2 DUP14 AND DUP2 MSTORE SWAP3 MSTORE SWAP1 KECCAK256 SLOAD SWAP2 SWAP1 PUSH4 0xFFFFFFFF PUSH2 0x1A94 AND JUMP JUMPDEST PUSH1 0x1 SLOAD PUSH1 0x1 PUSH1 0x1 PUSH1 0xA0 SHL SUB AND CALLER EQ PUSH2 0x134C JUMPI PUSH1 0x40 MLOAD PUSH3 0x461BCD PUSH1 0xE5 SHL DUP2 MSTORE PUSH1 0x4 ADD DUP1 DUP1 PUSH1 0x20 ADD DUP3 DUP2 SUB DUP3 MSTORE PUSH1 0x23 DUP2 MSTORE PUSH1 0x20 ADD DUP1 PUSH2 0x2A9E PUSH1 0x23 SWAP2 CODECOPY PUSH1 0x40 ADD SWAP2 POP POP PUSH1 0x40 MLOAD DUP1 SWAP2 SUB SWAP1 REVERT JUMPDEST PUSH1 0x2 SLOAD TIMESTAMP GT PUSH2 0x13A2 JUMPI PUSH1 0x40 DUP1 MLOAD PUSH3 0x461BCD PUSH1 0xE5 SHL DUP2 MSTORE PUSH1 0x20 PUSH1 0x4 DUP3 ADD MSTORE PUSH1 0x1F PUSH1 0x24 DUP3 ADD MSTORE PUSH32 0x436F6E7472616374206973206C6F636B656420756E74696C2037206461797300 PUSH1 0x44 DUP3 ADD MSTORE SWAP1 MLOAD SWAP1 DUP2 SWAP1 SUB PUSH1 0x64 ADD SWAP1 REVERT JUMPDEST PUSH1 0x1 SLOAD PUSH1 0x0 DUP1 SLOAD PUSH1 0x40 MLOAD PUSH1 0x1 PUSH1 0x1 PUSH1 0xA0 SHL SUB SWAP4 DUP5 AND SWAP4 SWAP1 SWAP2 AND SWAP2 PUSH1 0x0 DUP1 MLOAD PUSH1 0x20 PUSH2 0x29E0 DUP4 CODECOPY DUP2 MLOAD SWAP2 MSTORE SWAP2 LOG3 PUSH1 0x1 SLOAD PUSH1 0x0 DUP1 SLOAD PUSH1 0x1 PUSH1 0x1 PUSH1 0xA0 SHL SUB NOT AND PUSH1 0x1 PUSH1 0x1 PUSH1 0xA0 SHL SUB SWAP1 SWAP3 AND SWAP2 SWAP1 SWAP2 OR SWAP1 SSTORE JUMP JUMPDEST PUSH1 0x0 PUSH2 0x98F PUSH2 0x13FE PUSH2 0x175E JUMP JUMPDEST DUP5 DUP5 PUSH2 0x184E JUMP JUMPDEST PUSH1 0x2 SLOAD SWAP1 JUMP JUMPDEST PUSH2 0x1413 PUSH2 0x175E JUMP JUMPDEST PUSH1 0x0 SLOAD PUSH1 0x1 PUSH1 0x1 PUSH1 0xA0 SHL SUB SWAP1 DUP2 AND SWAP2 AND EQ PUSH2 0x1463 JUMPI PUSH1 0x40 DUP1 MLOAD PUSH3 0x461BCD PUSH1 0xE5 SHL DUP2 MSTORE PUSH1 0x20 PUSH1 0x4 DUP3 ADD DUP2 SWAP1 MSTORE PUSH1 0x24 DUP3 ADD MSTORE PUSH1 0x0 DUP1 MLOAD PUSH1 0x20 PUSH2 0x29C0 DUP4 CODECOPY DUP2 MLOAD SWAP2 MSTORE PUSH1 0x44 DUP3 ADD MSTORE SWAP1 MLOAD SWAP1 DUP2 SWAP1 SUB PUSH1 0x64 ADD SWAP1 REVERT JUMPDEST PUSH1 0x13 DUP1 SLOAD DUP3 ISZERO ISZERO PUSH2 0x100 DUP2 MUL PUSH2 0xFF00 NOT SWAP1 SWAP3 AND SWAP2 SWAP1 SWAP2 OR SWAP1 SWAP2 SSTORE PUSH1 0x40 DUP1 MLOAD SWAP2 DUP3 MSTORE MLOAD PUSH32 0x53726DFCAF90650AA7EB35524F4D3220F07413C8D6CB404CC8C18BF5591BC159 SWAP2 DUP2 SWAP1 SUB PUSH1 0x20 ADD SWAP1 LOG1 POP JUMP JUMPDEST PUSH2 0x14BA PUSH2 0x175E JUMP JUMPDEST PUSH1 0x0 SLOAD PUSH1 0x1 PUSH1 0x1 PUSH1 0xA0 SHL SUB SWAP1 DUP2 AND SWAP2 AND EQ PUSH2 0x150A JUMPI PUSH1 0x40 DUP1 MLOAD PUSH3 0x461BCD PUSH1 0xE5 SHL DUP2 MSTORE PUSH1 0x20 PUSH1 0x4 DUP3 ADD DUP2 SWAP1 MSTORE PUSH1 0x24 DUP3 ADD MSTORE PUSH1 0x0 DUP1 MLOAD PUSH1 0x20 PUSH2 0x29C0 DUP4 CODECOPY DUP2 MLOAD SWAP2 MSTORE PUSH1 0x44 DUP3 ADD MSTORE SWAP1 MLOAD SWAP1 DUP2 SWAP1 SUB PUSH1 0x64 ADD SWAP1 REVERT JUMPDEST PUSH2 0x1530 PUSH1 0x64 PUSH2 0x1524 DUP4 PUSH1 0x9 SLOAD PUSH2 0x1C88 SWAP1 SWAP2 SWAP1 PUSH4 0xFFFFFFFF AND JUMP JUMPDEST SWAP1 PUSH4 0xFFFFFFFF PUSH2 0x1B54 AND JUMP JUMPDEST PUSH1 0x14 SSTORE POP JUMP JUMPDEST PUSH2 0x153E PUSH2 0x175E JUMP JUMPDEST PUSH1 0x0 SLOAD PUSH1 0x1 PUSH1 0x1 PUSH1 0xA0 SHL SUB SWAP1 DUP2 AND SWAP2 AND EQ PUSH2 0x158E JUMPI PUSH1 0x40 DUP1 MLOAD PUSH3 0x461BCD PUSH1 0xE5 SHL DUP2 MSTORE PUSH1 0x20 PUSH1 0x4 DUP3 ADD DUP2 SWAP1 MSTORE PUSH1 0x24 DUP3 ADD MSTORE PUSH1 0x0 DUP1 MLOAD PUSH1 0x20 PUSH2 0x29C0 DUP4 CODECOPY DUP2 MLOAD SWAP2 MSTORE PUSH1 0x44 DUP3 ADD MSTORE SWAP1 MLOAD SWAP1 DUP2 SWAP1 SUB PUSH1 0x64 ADD SWAP1 REVERT JUMPDEST PUSH1 0x0 DUP1 SLOAD PUSH1 0x1 DUP1 SLOAD PUSH1 0x1 PUSH1 0x1 PUSH1 0xA0 SHL SUB NOT SWAP1 DUP2 AND PUSH1 0x1 PUSH1 0x1 PUSH1 0xA0 SHL SUB DUP5 AND OR SWAP1 SWAP2 SSTORE AND DUP2 SSTORE TIMESTAMP DUP3 ADD PUSH1 0x2 SSTORE PUSH1 0x40 MLOAD DUP2 SWAP1 PUSH1 0x0 DUP1 MLOAD PUSH1 0x20 PUSH2 0x29E0 DUP4 CODECOPY DUP2 MLOAD SWAP2 MSTORE SWAP1 DUP3 SWAP1 LOG3 POP JUMP JUMPDEST PUSH1 0x1 PUSH1 0x1 PUSH1 0xA0 SHL SUB SWAP2 DUP3 AND PUSH1 0x0 SWAP1 DUP2 MSTORE PUSH1 0x5 PUSH1 0x20 SWAP1 DUP2 MSTORE PUSH1 0x40 DUP1 DUP4 KECCAK256 SWAP4 SWAP1 SWAP5 AND DUP3 MSTORE SWAP2 SWAP1 SWAP2 MSTORE KECCAK256 SLOAD SWAP1 JUMP JUMPDEST PUSH2 0x1607 PUSH2 0x175E JUMP JUMPDEST PUSH1 0x0 SLOAD PUSH1 0x1 PUSH1 0x1 PUSH1 0xA0 SHL SUB SWAP1 DUP2 AND SWAP2 AND EQ PUSH2 0x1657 JUMPI PUSH1 0x40 DUP1 MLOAD PUSH3 0x461BCD PUSH1 0xE5 SHL DUP2 MSTORE PUSH1 0x20 PUSH1 0x4 DUP3 ADD DUP2 SWAP1 MSTORE PUSH1 0x24 DUP3 ADD MSTORE PUSH1 0x0 DUP1 MLOAD PUSH1 0x20 PUSH2 0x29C0 DUP4 CODECOPY DUP2 MLOAD SWAP2 MSTORE PUSH1 0x44 DUP3 ADD MSTORE SWAP1 MLOAD SWAP1 DUP2 SWAP1 SUB PUSH1 0x64 ADD SWAP1 REVERT JUMPDEST PUSH1 0x1 PUSH1 0x1 PUSH1 0xA0 SHL SUB AND PUSH1 0x0 SWAP1 DUP2 MSTORE PUSH1 0x6 PUSH1 0x20 MSTORE PUSH1 0x40 SWAP1 KECCAK256 DUP1 SLOAD PUSH1 0xFF NOT AND SWAP1 SSTORE JUMP JUMPDEST PUSH2 0x1680 PUSH2 0x175E JUMP JUMPDEST PUSH1 0x0 SLOAD PUSH1 0x1 PUSH1 0x1 PUSH1 0xA0 SHL SUB SWAP1 DUP2 AND SWAP2 AND EQ PUSH2 0x16D0 JUMPI PUSH1 0x40 DUP1 MLOAD PUSH3 0x461BCD PUSH1 0xE5 SHL DUP2 MSTORE PUSH1 0x20 PUSH1 0x4 DUP3 ADD DUP2 SWAP1 MSTORE PUSH1 0x24 DUP3 ADD MSTORE PUSH1 0x0 DUP1 MLOAD PUSH1 0x20 PUSH2 0x29C0 DUP4 CODECOPY DUP2 MLOAD SWAP2 MSTORE PUSH1 0x44 DUP3 ADD MSTORE SWAP1 MLOAD SWAP1 DUP2 SWAP1 SUB PUSH1 0x64 ADD SWAP1 REVERT JUMPDEST PUSH1 0x1 PUSH1 0x1 PUSH1 0xA0 SHL SUB DUP2 AND PUSH2 0x1715 JUMPI PUSH1 0x40 MLOAD PUSH3 0x461BCD PUSH1 0xE5 SHL DUP2 MSTORE PUSH1 0x4 ADD DUP1 DUP1 PUSH1 0x20 ADD DUP3 DUP2 SUB DUP3 MSTORE PUSH1 0x26 DUP2 MSTORE PUSH1 0x20 ADD DUP1 PUSH2 0x2907 PUSH1 0x26 SWAP2 CODECOPY PUSH1 0x40 ADD SWAP2 POP POP PUSH1 0x40 MLOAD DUP1 SWAP2 SUB SWAP1 REVERT JUMPDEST PUSH1 0x0 DUP1 SLOAD PUSH1 0x40 MLOAD PUSH1 0x1 PUSH1 0x1 PUSH1 0xA0 SHL SUB DUP1 DUP6 AND SWAP4 SWAP3 AND SWAP2 PUSH1 0x0 DUP1 MLOAD PUSH1 0x20 PUSH2 0x29E0 DUP4 CODECOPY DUP2 MLOAD SWAP2 MSTORE SWAP2 LOG3 PUSH1 0x0 DUP1 SLOAD PUSH1 0x1 PUSH1 0x1 PUSH1 0xA0 SHL SUB NOT AND PUSH1 0x1 PUSH1 0x1 PUSH1 0xA0 SHL SUB SWAP3 SWAP1 SWAP3 AND SWAP2 SWAP1 SWAP2 OR SWAP1 SSTORE JUMP JUMPDEST CALLER SWAP1 JUMP JUMPDEST PUSH1 0x1 PUSH1 0x1 PUSH1 0xA0 SHL SUB DUP4 AND PUSH2 0x17A7 JUMPI PUSH1 0x40 MLOAD PUSH3 0x461BCD PUSH1 0xE5 SHL DUP2 MSTORE PUSH1 0x4 ADD DUP1 DUP1 PUSH1 0x20 ADD DUP3 DUP2 SUB DUP3 MSTORE PUSH1 0x24 DUP2 MSTORE PUSH1 0x20 ADD DUP1 PUSH2 0x2A4E PUSH1 0x24 SWAP2 CODECOPY PUSH1 0x40 ADD SWAP2 POP POP PUSH1 0x40 MLOAD DUP1 SWAP2 SUB SWAP1 REVERT JUMPDEST PUSH1 0x1 PUSH1 0x1 PUSH1 0xA0 SHL SUB DUP3 AND PUSH2 0x17EC JUMPI PUSH1 0x40 MLOAD PUSH3 0x461BCD PUSH1 0xE5 SHL DUP2 MSTORE PUSH1 0x4 ADD DUP1 DUP1 PUSH1 0x20 ADD DUP3 DUP2 SUB DUP3 MSTORE PUSH1 0x22 DUP2 MSTORE PUSH1 0x20 ADD DUP1 PUSH2 0x292D PUSH1 0x22 SWAP2 CODECOPY PUSH1 0x40 ADD SWAP2 POP POP PUSH1 0x40 MLOAD DUP1 SWAP2 SUB SWAP1 REVERT JUMPDEST PUSH1 0x1 PUSH1 0x1 PUSH1 0xA0 SHL SUB DUP1 DUP5 AND PUSH1 0x0 DUP2 DUP2 MSTORE PUSH1 0x5 PUSH1 0x20 SWAP1 DUP2 MSTORE PUSH1 0x40 DUP1 DUP4 KECCAK256 SWAP5 DUP8 AND DUP1 DUP5 MSTORE SWAP5 DUP3 MSTORE SWAP2 DUP3 SWAP1 KECCAK256 DUP6 SWAP1 SSTORE DUP2 MLOAD DUP6 DUP2 MSTORE SWAP2 MLOAD PUSH32 0x8C5BE1E5EBEC7D5BD14F71427D1E84F3DD0314C0F7B2291E5B200AC8C7C3B925 SWAP3 DUP2 SWAP1 SUB SWAP1 SWAP2 ADD SWAP1 LOG3 POP POP POP JUMP JUMPDEST PUSH1 0x1 PUSH1 0x1 PUSH1 0xA0 SHL SUB DUP4 AND PUSH2 0x1893 JUMPI PUSH1 0x40 MLOAD PUSH3 0x461BCD PUSH1 0xE5 SHL DUP2 MSTORE PUSH1 0x4 ADD DUP1 DUP1 PUSH1 0x20 ADD DUP3 DUP2 SUB DUP3 MSTORE PUSH1 0x25 DUP2 MSTORE PUSH1 0x20 ADD DUP1 PUSH2 0x2A29 PUSH1 0x25 SWAP2 CODECOPY PUSH1 0x40 ADD SWAP2 POP POP PUSH1 0x40 MLOAD DUP1 SWAP2 SUB SWAP1 REVERT JUMPDEST PUSH1 0x1 PUSH1 0x1 PUSH1 0xA0 SHL SUB DUP3 AND PUSH2 0x18D8 JUMPI PUSH1 0x40 MLOAD PUSH3 0x461BCD PUSH1 0xE5 SHL DUP2 MSTORE PUSH1 0x4 ADD DUP1 DUP1 PUSH1 0x20 ADD DUP3 DUP2 SUB DUP3 MSTORE PUSH1 0x23 DUP2 MSTORE PUSH1 0x20 ADD DUP1 PUSH2 0x28BA PUSH1 0x23 SWAP2 CODECOPY PUSH1 0x40 ADD SWAP2 POP POP PUSH1 0x40 MLOAD DUP1 SWAP2 SUB SWAP1 REVERT JUMPDEST PUSH1 0x0 DUP2 GT PUSH2 0x1917 JUMPI PUSH1 0x40 MLOAD PUSH3 0x461BCD PUSH1 0xE5 SHL DUP2 MSTORE PUSH1 0x4 ADD DUP1 DUP1 PUSH1 0x20 ADD DUP3 DUP2 SUB DUP3 MSTORE PUSH1 0x29 DUP2 MSTORE PUSH1 0x20 ADD DUP1 PUSH2 0x2A00 PUSH1 0x29 SWAP2 CODECOPY PUSH1 0x40 ADD SWAP2 POP POP PUSH1 0x40 MLOAD DUP1 SWAP2 SUB SWAP1 REVERT JUMPDEST PUSH2 0x191F PUSH2 0x11C8 JUMP JUMPDEST PUSH1 0x1 PUSH1 0x1 PUSH1 0xA0 SHL SUB AND DUP4 PUSH1 0x1 PUSH1 0x1 PUSH1 0xA0 SHL SUB AND EQ ISZERO DUP1 ISZERO PUSH2 0x1959 JUMPI POP PUSH2 0x1943 PUSH2 0x11C8 JUMP JUMPDEST PUSH1 0x1 PUSH1 0x1 PUSH1 0xA0 SHL SUB AND DUP3 PUSH1 0x1 PUSH1 0x1 PUSH1 0xA0 SHL SUB AND EQ ISZERO JUMPDEST ISZERO PUSH2 0x199F JUMPI PUSH1 0x14 SLOAD DUP2 GT ISZERO PUSH2 0x199F JUMPI PUSH1 0x40 MLOAD PUSH3 0x461BCD PUSH1 0xE5 SHL DUP2 MSTORE PUSH1 0x4 ADD DUP1 DUP1 PUSH1 0x20 ADD DUP3 DUP2 SUB DUP3 MSTORE PUSH1 0x28 DUP2 MSTORE PUSH1 0x20 ADD DUP1 PUSH2 0x294F PUSH1 0x28 SWAP2 CODECOPY PUSH1 0x40 ADD SWAP2 POP POP PUSH1 0x40 MLOAD DUP1 SWAP2 SUB SWAP1 REVERT JUMPDEST PUSH1 0x0 PUSH2 0x19AA ADDRESS PUSH2 0x10B2 JUMP JUMPDEST SWAP1 POP PUSH1 0x14 SLOAD DUP2 LT PUSH2 0x19BA JUMPI POP PUSH1 0x14 SLOAD JUMPDEST PUSH1 0x15 SLOAD DUP2 LT DUP1 ISZERO SWAP1 DUP2 SWAP1 PUSH2 0x19D1 JUMPI POP PUSH1 0x13 SLOAD PUSH1 0xFF AND ISZERO JUMPDEST DUP1 ISZERO PUSH2 0x1A0F JUMPI POP PUSH32 0x0 PUSH1 0x1 PUSH1 0x1 PUSH1 0xA0 SHL SUB AND DUP6 PUSH1 0x1 PUSH1 0x1 PUSH1 0xA0 SHL SUB AND EQ ISZERO JUMPDEST DUP1 ISZERO PUSH2 0x1A22 JUMPI POP PUSH1 0x13 SLOAD PUSH2 0x100 SWAP1 DIV PUSH1 0xFF AND JUMPDEST ISZERO PUSH2 0x1A35 JUMPI PUSH1 0x15 SLOAD SWAP2 POP PUSH2 0x1A35 DUP3 PUSH2 0x1CE1 JUMP JUMPDEST PUSH1 0x1 PUSH1 0x1 PUSH1 0xA0 SHL SUB DUP6 AND PUSH1 0x0 SWAP1 DUP2 MSTORE PUSH1 0x6 PUSH1 0x20 MSTORE PUSH1 0x40 SWAP1 KECCAK256 SLOAD PUSH1 0x1 SWAP1 PUSH1 0xFF AND DUP1 PUSH2 0x1A77 JUMPI POP PUSH1 0x1 PUSH1 0x1 PUSH1 0xA0 SHL SUB DUP6 AND PUSH1 0x0 SWAP1 DUP2 MSTORE PUSH1 0x6 PUSH1 0x20 MSTORE PUSH1 0x40 SWAP1 KECCAK256 SLOAD PUSH1 0xFF AND JUMPDEST ISZERO PUSH2 0x1A80 JUMPI POP PUSH1 0x0 JUMPDEST PUSH2 0x1A8C DUP7 DUP7 DUP7 DUP5 PUSH2 0x1D90 JUMP JUMPDEST POP POP POP POP POP POP JUMP JUMPDEST PUSH1 0x0 DUP2 DUP5 DUP5 GT ISZERO PUSH2 0x1B23 JUMPI PUSH1 0x40 MLOAD PUSH3 0x461BCD PUSH1 0xE5 SHL DUP2 MSTORE PUSH1 0x4 ADD DUP1 DUP1 PUSH1 0x20 ADD DUP3 DUP2 SUB DUP3 MSTORE DUP4 DUP2 DUP2 MLOAD DUP2 MSTORE PUSH1 0x20 ADD SWAP2 POP DUP1 MLOAD SWAP1 PUSH1 0x20 ADD SWAP1 DUP1 DUP4 DUP4 PUSH1 0x0 JUMPDEST DUP4 DUP2 LT ISZERO PUSH2 0x1AE8 JUMPI DUP2 DUP2 ADD MLOAD DUP4 DUP3 ADD MSTORE PUSH1 0x20 ADD PUSH2 0x1AD0 JUMP JUMPDEST POP POP POP POP SWAP1 POP SWAP1 DUP2 ADD SWAP1 PUSH1 0x1F AND DUP1 ISZERO PUSH2 0x1B15 JUMPI DUP1 DUP3 SUB DUP1 MLOAD PUSH1 0x1 DUP4 PUSH1 0x20 SUB PUSH2 0x100 EXP SUB NOT AND DUP2 MSTORE PUSH1 0x20 ADD SWAP2 POP JUMPDEST POP SWAP3 POP POP POP PUSH1 0x40 MLOAD DUP1 SWAP2 SUB SWAP1 REVERT JUMPDEST POP POP POP SWAP1 SUB SWAP1 JUMP JUMPDEST PUSH1 0x0 DUP1 PUSH1 0x0 PUSH2 0x1B38 PUSH2 0x1F04 JUMP JUMPDEST SWAP1 SWAP3 POP SWAP1 POP PUSH2 0x1B4D DUP3 DUP3 PUSH4 0xFFFFFFFF PUSH2 0x1B54 AND JUMP JUMPDEST SWAP3 POP POP POP SWAP1 JUMP JUMPDEST PUSH1 0x0 PUSH2 0x1B96 DUP4 DUP4 PUSH1 0x40 MLOAD DUP1 PUSH1 0x40 ADD PUSH1 0x40 MSTORE DUP1 PUSH1 0x1A DUP2 MSTORE PUSH1 0x20 ADD PUSH32 0x536166654D6174683A206469766973696F6E206279207A65726F000000000000 DUP2 MSTORE POP PUSH2 0x2079 JUMP JUMPDEST SWAP4 SWAP3 POP POP POP JUMP JUMPDEST PUSH1 0x0 DUP3 DUP3 ADD DUP4 DUP2 LT ISZERO PUSH2 0x1B96 JUMPI PUSH1 0x40 DUP1 MLOAD PUSH3 0x461BCD PUSH1 0xE5 SHL DUP2 MSTORE PUSH1 0x20 PUSH1 0x4 DUP3 ADD MSTORE PUSH1 0x1B PUSH1 0x24 DUP3 ADD MSTORE PUSH32 0x536166654D6174683A206164646974696F6E206F766572666C6F770000000000 PUSH1 0x44 DUP3 ADD MSTORE SWAP1 MLOAD SWAP1 DUP2 SWAP1 SUB PUSH1 0x64 ADD SWAP1 REVERT JUMPDEST PUSH1 0x0 DUP1 PUSH1 0x0 DUP1 PUSH1 0x0 DUP1 PUSH1 0x0 DUP1 PUSH1 0x0 PUSH2 0x1C0E DUP11 PUSH2 0x20DE JUMP JUMPDEST SWAP3 POP SWAP3 POP SWAP3 POP PUSH1 0x0 DUP1 PUSH1 0x0 PUSH2 0x1C2C DUP14 DUP7 DUP7 PUSH2 0x1C27 PUSH2 0x1B2B JUMP JUMPDEST PUSH2 0x212C JUMP JUMPDEST SWAP2 SWAP16 SWAP1 SWAP15 POP SWAP1 SWAP13 POP SWAP6 SWAP11 POP SWAP4 SWAP9 POP SWAP2 SWAP7 POP SWAP3 SWAP5 POP POP POP POP POP JUMP JUMPDEST PUSH1 0x0 PUSH2 0x1B96 DUP4 DUP4 PUSH1 0x40 MLOAD DUP1 PUSH1 0x40 ADD PUSH1 0x40 MSTORE DUP1 PUSH1 0x1E DUP2 MSTORE PUSH1 0x20 ADD PUSH32 0x536166654D6174683A207375627472616374696F6E206F766572666C6F770000 DUP2 MSTORE POP PUSH2 0x1A94 JUMP JUMPDEST PUSH1 0x0 DUP3 PUSH2 0x1C97 JUMPI POP PUSH1 0x0 PUSH2 0x993 JUMP JUMPDEST DUP3 DUP3 MUL DUP3 DUP5 DUP3 DUP2 PUSH2 0x1CA4 JUMPI INVALID JUMPDEST DIV EQ PUSH2 0x1B96 JUMPI PUSH1 0x40 MLOAD PUSH3 0x461BCD PUSH1 0xE5 SHL DUP2 MSTORE PUSH1 0x4 ADD DUP1 DUP1 PUSH1 0x20 ADD DUP3 DUP2 SUB DUP3 MSTORE PUSH1 0x21 DUP2 MSTORE PUSH1 0x20 ADD DUP1 PUSH2 0x2977 PUSH1 0x21 SWAP2 CODECOPY PUSH1 0x40 ADD SWAP2 POP POP PUSH1 0x40 MLOAD DUP1 SWAP2 SUB SWAP1 REVERT JUMPDEST PUSH1 0x13 DUP1 SLOAD PUSH1 0xFF NOT AND PUSH1 0x1 OR SWAP1 SSTORE PUSH1 0x0 PUSH2 0x1D01 DUP3 PUSH1 0x2 PUSH4 0xFFFFFFFF PUSH2 0x1B54 AND JUMP JUMPDEST SWAP1 POP PUSH1 0x0 PUSH2 0x1D15 DUP4 DUP4 PUSH4 0xFFFFFFFF PUSH2 0x1C46 AND JUMP JUMPDEST SWAP1 POP SELFBALANCE PUSH2 0x1D21 DUP4 PUSH2 0x2194 JUMP JUMPDEST PUSH1 0x0 PUSH2 0x1D33 SELFBALANCE DUP4 PUSH4 0xFFFFFFFF PUSH2 0x1C46 AND JUMP JUMPDEST SWAP1 POP PUSH2 0x1D3F DUP4 DUP3 PUSH2 0x23AC JUMP JUMPDEST PUSH1 0x40 DUP1 MLOAD DUP6 DUP2 MSTORE PUSH1 0x20 DUP2 ADD DUP4 SWAP1 MSTORE DUP1 DUP3 ADD DUP6 SWAP1 MSTORE SWAP1 MLOAD PUSH32 0x17BBFB9A6069321B6DED73BD96327C9E6B7212A5CD51FF219CD61370ACAFB561 SWAP2 DUP2 SWAP1 SUB PUSH1 0x60 ADD SWAP1 LOG1 POP POP PUSH1 0x13 DUP1 SLOAD PUSH1 0xFF NOT AND SWAP1 SSTORE POP POP POP JUMP JUMPDEST DUP1 PUSH2 0x1D9D JUMPI PUSH2 0x1D9D PUSH2 0x24BC JUMP JUMPDEST PUSH1 0x1 PUSH1 0x1 PUSH1 0xA0 SHL SUB DUP5 AND PUSH1 0x0 SWAP1 DUP2 MSTORE PUSH1 0x7 PUSH1 0x20 MSTORE PUSH1 0x40 SWAP1 KECCAK256 SLOAD PUSH1 0xFF AND DUP1 ISZERO PUSH2 0x1DDE JUMPI POP PUSH1 0x1 PUSH1 0x1 PUSH1 0xA0 SHL SUB DUP4 AND PUSH1 0x0 SWAP1 DUP2 MSTORE PUSH1 0x7 PUSH1 0x20 MSTORE PUSH1 0x40 SWAP1 KECCAK256 SLOAD PUSH1 0xFF AND ISZERO JUMPDEST ISZERO PUSH2 0x1DF3 JUMPI PUSH2 0x1DEE DUP5 DUP5 DUP5 PUSH2 0x24EE JUMP JUMPDEST PUSH2 0x1EF1 JUMP JUMPDEST PUSH1 0x1 PUSH1 0x1 PUSH1 0xA0 SHL SUB DUP5 AND PUSH1 0x0 SWAP1 DUP2 MSTORE PUSH1 0x7 PUSH1 0x20 MSTORE PUSH1 0x40 SWAP1 KECCAK256 SLOAD PUSH1 0xFF AND ISZERO DUP1 ISZERO PUSH2 0x1E34 JUMPI POP PUSH1 0x1 PUSH1 0x1 PUSH1 0xA0 SHL SUB DUP4 AND PUSH1 0x0 SWAP1 DUP2 MSTORE PUSH1 0x7 PUSH1 0x20 MSTORE PUSH1 0x40 SWAP1 KECCAK256 SLOAD PUSH1 0xFF AND JUMPDEST ISZERO PUSH2 0x1E44 JUMPI PUSH2 0x1DEE DUP5 DUP5 DUP5 PUSH2 0x2624 JUMP JUMPDEST PUSH1 0x1 PUSH1 0x1 PUSH1 0xA0 SHL SUB DUP5 AND PUSH1 0x0 SWAP1 DUP2 MSTORE PUSH1 0x7 PUSH1 0x20 MSTORE PUSH1 0x40 SWAP1 KECCAK256 SLOAD PUSH1 0xFF AND ISZERO DUP1 ISZERO PUSH2 0x1E86 JUMPI POP PUSH1 0x1 PUSH1 0x1 PUSH1 0xA0 SHL SUB DUP4 AND PUSH1 0x0 SWAP1 DUP2 MSTORE PUSH1 0x7 PUSH1 0x20 MSTORE PUSH1 0x40 SWAP1 KECCAK256 SLOAD PUSH1 0xFF AND ISZERO JUMPDEST ISZERO PUSH2 0x1E96 JUMPI PUSH2 0x1DEE DUP5 DUP5 DUP5 PUSH2 0x26DF JUMP JUMPDEST PUSH1 0x1 PUSH1 0x1 PUSH1 0xA0 SHL SUB DUP5 AND PUSH1 0x0 SWAP1 DUP2 MSTORE PUSH1 0x7 PUSH1 0x20 MSTORE PUSH1 0x40 SWAP1 KECCAK256 SLOAD PUSH1 0xFF AND DUP1 ISZERO PUSH2 0x1ED6 JUMPI POP PUSH1 0x1 PUSH1 0x1 PUSH1 0xA0 SHL SUB DUP4 AND PUSH1 0x0 SWAP1 DUP2 MSTORE PUSH1 0x7 PUSH1 0x20 MSTORE PUSH1 0x40 SWAP1 KECCAK256 SLOAD PUSH1 0xFF AND JUMPDEST ISZERO PUSH2 0x1EE6 JUMPI PUSH2 0x1DEE DUP5 DUP5 DUP5 PUSH2 0x2729 JUMP JUMPDEST PUSH2 0x1EF1 DUP5 DUP5 DUP5 PUSH2 0x26DF JUMP JUMPDEST DUP1 PUSH2 0x1EFE JUMPI PUSH2 0x1EFE PUSH2 0x27A8 JUMP JUMPDEST POP POP POP POP JUMP JUMPDEST PUSH1 0xA SLOAD PUSH1 0x9 SLOAD PUSH1 0x0 SWAP2 DUP3 SWAP2 DUP3 JUMPDEST PUSH1 0x8 SLOAD DUP2 LT ISZERO PUSH2 0x2041 JUMPI DUP3 PUSH1 0x3 PUSH1 0x0 PUSH1 0x8 DUP5 DUP2 SLOAD DUP2 LT PUSH2 0x1F2D JUMPI INVALID JUMPDEST PUSH1 0x0 SWAP2 DUP3 MSTORE PUSH1 0x20 DUP1 DUP4 KECCAK256 SWAP1 SWAP2 ADD SLOAD PUSH1 0x1 PUSH1 0x1 PUSH1 0xA0 SHL SUB AND DUP4 MSTORE DUP3 ADD SWAP3 SWAP1 SWAP3 MSTORE PUSH1 0x40 ADD SWAP1 KECCAK256 SLOAD GT DUP1 PUSH2 0x1F92 JUMPI POP DUP2 PUSH1 0x4 PUSH1 0x0 PUSH1 0x8 DUP5 DUP2 SLOAD DUP2 LT PUSH2 0x1F6B JUMPI INVALID JUMPDEST PUSH1 0x0 SWAP2 DUP3 MSTORE PUSH1 0x20 DUP1 DUP4 KECCAK256 SWAP1 SWAP2 ADD SLOAD PUSH1 0x1 PUSH1 0x1 PUSH1 0xA0 SHL SUB AND DUP4 MSTORE DUP3 ADD SWAP3 SWAP1 SWAP3 MSTORE PUSH1 0x40 ADD SWAP1 KECCAK256 SLOAD GT JUMPDEST ISZERO PUSH2 0x1FA9 JUMPI PUSH1 0xA SLOAD PUSH1 0x9 SLOAD SWAP5 POP SWAP5 POP POP POP POP PUSH2 0x2075 JUMP JUMPDEST PUSH2 0x1FEF PUSH1 0x3 PUSH1 0x0 PUSH1 0x8 DUP5 DUP2 SLOAD DUP2 LT PUSH2 0x1FBD JUMPI INVALID JUMPDEST PUSH1 0x0 SWAP2 DUP3 MSTORE PUSH1 0x20 DUP1 DUP4 KECCAK256 SWAP1 SWAP2 ADD SLOAD PUSH1 0x1 PUSH1 0x1 PUSH1 0xA0 SHL SUB AND DUP4 MSTORE DUP3 ADD SWAP3 SWAP1 SWAP3 MSTORE PUSH1 0x40 ADD SWAP1 KECCAK256 SLOAD DUP5 SWAP1 PUSH4 0xFFFFFFFF PUSH2 0x1C46 AND JUMP JUMPDEST SWAP3 POP PUSH2 0x2037 PUSH1 0x4 PUSH1 0x0 PUSH1 0x8 DUP5 DUP2 SLOAD DUP2 LT PUSH2 0x2005 JUMPI INVALID JUMPDEST PUSH1 0x0 SWAP2 DUP3 MSTORE PUSH1 0x20 DUP1 DUP4 KECCAK256 SWAP1 SWAP2 ADD SLOAD PUSH1 0x1 PUSH1 0x1 PUSH1 0xA0 SHL SUB AND DUP4 MSTORE DUP3 ADD SWAP3 SWAP1 SWAP3 MSTORE PUSH1 0x40 ADD SWAP1 KECCAK256 SLOAD DUP4 SWAP1 PUSH4 0xFFFFFFFF PUSH2 0x1C46 AND JUMP JUMPDEST SWAP2 POP PUSH1 0x1 ADD PUSH2 0x1F11 JUMP JUMPDEST POP PUSH1 0x9 SLOAD PUSH1 0xA SLOAD PUSH2 0x2057 SWAP2 PUSH4 0xFFFFFFFF PUSH2 0x1B54 AND JUMP JUMPDEST DUP3 LT ISZERO PUSH2 0x206F JUMPI PUSH1 0xA SLOAD PUSH1 0x9 SLOAD SWAP4 POP SWAP4 POP POP POP PUSH2 0x2075 JUMP JUMPDEST SWAP1 SWAP3 POP SWAP1 POP JUMPDEST SWAP1 SWAP2 JUMP JUMPDEST PUSH1 0x0 DUP2 DUP4 PUSH2 0x20C8 JUMPI PUSH1 0x40 MLOAD PUSH3 0x461BCD PUSH1 0xE5 SHL DUP2 MSTORE PUSH1 0x20 PUSH1 0x4 DUP3 ADD DUP2 DUP2 MSTORE DUP4 MLOAD PUSH1 0x24 DUP5 ADD MSTORE DUP4 MLOAD SWAP1 SWAP3 DUP4 SWAP3 PUSH1 0x44 SWAP1 SWAP2 ADD SWAP2 SWAP1 DUP6 ADD SWAP1 DUP1 DUP4 DUP4 PUSH1 0x0 DUP4 ISZERO PUSH2 0x1AE8 JUMPI DUP2 DUP2 ADD MLOAD DUP4 DUP3 ADD MSTORE PUSH1 0x20 ADD PUSH2 0x1AD0 JUMP JUMPDEST POP PUSH1 0x0 DUP4 DUP6 DUP2 PUSH2 0x20D4 JUMPI INVALID JUMPDEST DIV SWAP6 SWAP5 POP POP POP POP POP JUMP JUMPDEST PUSH1 0x0 DUP1 PUSH1 0x0 DUP1 PUSH2 0x20ED DUP6 PUSH2 0x27B6 JUMP JUMPDEST SWAP1 POP PUSH1 0x0 PUSH2 0x20FA DUP7 PUSH2 0x27D2 JUMP JUMPDEST SWAP1 POP PUSH1 0x0 PUSH2 0x211E DUP3 PUSH2 0x2112 DUP10 DUP7 PUSH4 0xFFFFFFFF PUSH2 0x1C46 AND JUMP JUMPDEST SWAP1 PUSH4 0xFFFFFFFF PUSH2 0x1C46 AND JUMP JUMPDEST SWAP8 SWAP3 SWAP7 POP SWAP1 SWAP5 POP SWAP1 SWAP3 POP POP POP JUMP JUMPDEST PUSH1 0x0 DUP1 DUP1 DUP1 PUSH2 0x2141 DUP9 DUP7 PUSH4 0xFFFFFFFF PUSH2 0x1C88 AND JUMP JUMPDEST SWAP1 POP PUSH1 0x0 PUSH2 0x2155 DUP9 DUP8 PUSH4 0xFFFFFFFF PUSH2 0x1C88 AND JUMP JUMPDEST SWAP1 POP PUSH1 0x0 PUSH2 0x2169 DUP9 DUP9 PUSH4 0xFFFFFFFF PUSH2 0x1C88 AND JUMP JUMPDEST SWAP1 POP PUSH1 0x0 PUSH2 0x2181 DUP3 PUSH2 0x2112 DUP7 DUP7 PUSH4 0xFFFFFFFF PUSH2 0x1C46 AND JUMP JUMPDEST SWAP4 SWAP12 SWAP4 SWAP11 POP SWAP2 SWAP9 POP SWAP2 SWAP7 POP POP POP POP POP POP POP JUMP JUMPDEST PUSH1 0x40 DUP1 MLOAD PUSH1 0x2 DUP1 DUP3 MSTORE PUSH1 0x60 DUP1 DUP4 ADD DUP5 MSTORE SWAP3 PUSH1 0x20 DUP4 ADD SWAP1 DUP1 CALLDATASIZE DUP4 CALLDATACOPY ADD SWAP1 POP POP SWAP1 POP ADDRESS DUP2 PUSH1 0x0 DUP2 MLOAD DUP2 LT PUSH2 0x21C2 JUMPI INVALID JUMPDEST PUSH1 0x20 MUL PUSH1 0x20 ADD ADD SWAP1 PUSH1 0x1 PUSH1 0x1 PUSH1 0xA0 SHL SUB AND SWAP1 DUP2 PUSH1 0x1 PUSH1 0x1 PUSH1 0xA0 SHL SUB AND DUP2 MSTORE POP POP PUSH32 0x0 PUSH1 0x1 PUSH1 0x1 PUSH1 0xA0 SHL SUB AND PUSH4 0xAD5C4648 PUSH1 0x40 MLOAD DUP2 PUSH4 0xFFFFFFFF AND PUSH1 0xE0 SHL DUP2 MSTORE PUSH1 0x4 ADD PUSH1 0x20 PUSH1 0x40 MLOAD DUP1 DUP4 SUB DUP2 DUP7 DUP1 EXTCODESIZE ISZERO DUP1 ISZERO PUSH2 0x223B JUMPI PUSH1 0x0 DUP1 REVERT JUMPDEST POP GAS STATICCALL ISZERO DUP1 ISZERO PUSH2 0x224F JUMPI RETURNDATASIZE PUSH1 0x0 DUP1 RETURNDATACOPY RETURNDATASIZE PUSH1 0x0 REVERT JUMPDEST POP POP POP POP PUSH1 0x40 MLOAD RETURNDATASIZE PUSH1 0x20 DUP2 LT ISZERO PUSH2 0x2265 JUMPI PUSH1 0x0 DUP1 REVERT JUMPDEST POP MLOAD DUP2 MLOAD DUP3 SWAP1 PUSH1 0x1 SWAP1 DUP2 LT PUSH2 0x2276 JUMPI INVALID JUMPDEST PUSH1 0x20 MUL PUSH1 0x20 ADD ADD SWAP1 PUSH1 0x1 PUSH1 0x1 PUSH1 0xA0 SHL SUB AND SWAP1 DUP2 PUSH1 0x1 PUSH1 0x1 PUSH1 0xA0 SHL SUB AND DUP2 MSTORE POP POP PUSH2 0x22C1 ADDRESS PUSH32 0x0 DUP5 PUSH2 0x1762 JUMP JUMPDEST PUSH32 0x0 PUSH1 0x1 PUSH1 0x1 PUSH1 0xA0 SHL SUB AND PUSH4 0x791AC947 DUP4 PUSH1 0x0 DUP5 ADDRESS TIMESTAMP PUSH1 0x40 MLOAD DUP7 PUSH4 0xFFFFFFFF AND PUSH1 0xE0 SHL DUP2 MSTORE PUSH1 0x4 ADD DUP1 DUP7 DUP2 MSTORE PUSH1 0x20 ADD DUP6 DUP2 MSTORE PUSH1 0x20 ADD DUP1 PUSH1 0x20 ADD DUP5 PUSH1 0x1 PUSH1 0x1 PUSH1 0xA0 SHL SUB AND PUSH1 0x1 PUSH1 0x1 PUSH1 0xA0 SHL SUB AND DUP2 MSTORE PUSH1 0x20 ADD DUP4 DUP2 MSTORE PUSH1 0x20 ADD DUP3 DUP2 SUB DUP3 MSTORE DUP6 DUP2 DUP2 MLOAD DUP2 MSTORE PUSH1 0x20 ADD SWAP2 POP DUP1 MLOAD SWAP1 PUSH1 0x20 ADD SWAP1 PUSH1 0x20 MUL DUP1 DUP4 DUP4 PUSH1 0x0 JUMPDEST DUP4 DUP2 LT ISZERO PUSH2 0x236F JUMPI DUP2 DUP2 ADD MLOAD DUP4 DUP3 ADD MSTORE PUSH1 0x20 ADD PUSH2 0x2357 JUMP JUMPDEST POP POP POP POP SWAP1 POP ADD SWAP7 POP POP POP POP POP POP POP PUSH1 0x0 PUSH1 0x40 MLOAD DUP1 DUP4 SUB DUP2 PUSH1 0x0 DUP8 DUP1 EXTCODESIZE ISZERO DUP1 ISZERO PUSH2 0x2398 JUMPI PUSH1 0x0 DUP1 REVERT JUMPDEST POP GAS CALL ISZERO DUP1 ISZERO PUSH2 0x1A8C JUMPI RETURNDATASIZE PUSH1 0x0 DUP1 RETURNDATACOPY RETURNDATASIZE PUSH1 0x0 REVERT JUMPDEST PUSH2 0x23D7 ADDRESS PUSH32 0x0 DUP5 PUSH2 0x1762 JUMP JUMPDEST PUSH32 0x0 PUSH1 0x1 PUSH1 0x1 PUSH1 0xA0 SHL SUB AND PUSH4 0xF305D719 DUP3 ADDRESS DUP6 PUSH1 0x0 DUP1 PUSH2 0x2414 PUSH2 0x11C8 JUMP JUMPDEST TIMESTAMP PUSH1 0x40 MLOAD DUP9 PUSH4 0xFFFFFFFF AND PUSH1 0xE0 SHL DUP2 MSTORE PUSH1 0x4 ADD DUP1 DUP8 PUSH1 0x1 PUSH1 0x1 PUSH1 0xA0 SHL SUB AND PUSH1 0x1 PUSH1 0x1 PUSH1 0xA0 SHL SUB AND DUP2 MSTORE PUSH1 0x20 ADD DUP7 DUP2 MSTORE PUSH1 0x20 ADD DUP6 DUP2 MSTORE PUSH1 0x20 ADD DUP5 DUP2 MSTORE PUSH1 0x20 ADD DUP4 PUSH1 0x1 PUSH1 0x1 PUSH1 0xA0 SHL SUB AND PUSH1 0x1 PUSH1 0x1 PUSH1 0xA0 SHL SUB AND DUP2 MSTORE PUSH1 0x20 ADD DUP3 DUP2 MSTORE PUSH1 0x20 ADD SWAP7 POP POP POP POP POP POP POP PUSH1 0x60 PUSH1 0x40 MLOAD DUP1 DUP4 SUB DUP2 DUP6 DUP9 DUP1 EXTCODESIZE ISZERO DUP1 ISZERO PUSH2 0x2491 JUMPI PUSH1 0x0 DUP1 REVERT JUMPDEST POP GAS CALL ISZERO DUP1 ISZERO PUSH2 0x24A5 JUMPI RETURNDATASIZE PUSH1 0x0 DUP1 RETURNDATACOPY RETURNDATASIZE PUSH1 0x0 REVERT JUMPDEST POP POP POP POP POP PUSH1 0x40 MLOAD RETURNDATASIZE PUSH1 0x60 DUP2 LT ISZERO PUSH2 0x1EFE JUMPI PUSH1 0x0 DUP1 REVERT JUMPDEST PUSH1 0xF SLOAD ISZERO DUP1 ISZERO PUSH2 0x24CC JUMPI POP PUSH1 0x11 SLOAD ISZERO JUMPDEST ISZERO PUSH2 0x24D6 JUMPI PUSH2 0x24EC JUMP JUMPDEST PUSH1 0xF DUP1 SLOAD PUSH1 0x10 SSTORE PUSH1 0x11 DUP1 SLOAD PUSH1 0x12 SSTORE PUSH1 0x0 SWAP2 DUP3 SWAP1 SSTORE SSTORE JUMPDEST JUMP JUMPDEST PUSH1 0x0 DUP1 PUSH1 0x0 DUP1 PUSH1 0x0 DUP1 PUSH2 0x2500 DUP8 PUSH2 0x1BF7 JUMP JUMPDEST PUSH1 0x1 PUSH1 0x1 PUSH1 0xA0 SHL SUB DUP16 AND PUSH1 0x0 SWAP1 DUP2 MSTORE PUSH1 0x4 PUSH1 0x20 MSTORE PUSH1 0x40 SWAP1 KECCAK256 SLOAD SWAP6 SWAP12 POP SWAP4 SWAP10 POP SWAP2 SWAP8 POP SWAP6 POP SWAP4 POP SWAP2 POP PUSH2 0x2538 SWAP1 DUP9 PUSH4 0xFFFFFFFF PUSH2 0x1C46 AND JUMP JUMPDEST PUSH1 0x1 PUSH1 0x1 PUSH1 0xA0 SHL SUB DUP11 AND PUSH1 0x0 SWAP1 DUP2 MSTORE PUSH1 0x4 PUSH1 0x20 SWAP1 DUP2 MSTORE PUSH1 0x40 DUP1 DUP4 KECCAK256 SWAP4 SWAP1 SWAP4 SSTORE PUSH1 0x3 SWAP1 MSTORE KECCAK256 SLOAD PUSH2 0x256D SWAP1 DUP8 PUSH4 0xFFFFFFFF PUSH2 0x1C46 AND JUMP JUMPDEST PUSH1 0x1 PUSH1 0x1 PUSH1 0xA0 SHL SUB DUP1 DUP12 AND PUSH1 0x0 SWAP1 DUP2 MSTORE PUSH1 0x3 PUSH1 0x20 MSTORE PUSH1 0x40 DUP1 DUP3 KECCAK256 SWAP4 SWAP1 SWAP4 SSTORE SWAP1 DUP11 AND DUP2 MSTORE KECCAK256 SLOAD PUSH2 0x25A2 SWAP1 DUP7 PUSH4 0xFFFFFFFF PUSH2 0x1B9D AND JUMP JUMPDEST PUSH1 0x1 PUSH1 0x1 PUSH1 0xA0 SHL SUB DUP10 AND PUSH1 0x0 SWAP1 DUP2 MSTORE PUSH1 0x3 PUSH1 0x20 MSTORE PUSH1 0x40 SWAP1 KECCAK256 SSTORE PUSH2 0x25C4 DUP2 PUSH2 0x27EE JUMP JUMPDEST PUSH2 0x25CE DUP5 DUP4 PUSH2 0x2889 JUMP JUMPDEST DUP8 PUSH1 0x1 PUSH1 0x1 PUSH1 0xA0 SHL SUB AND DUP10 PUSH1 0x1 PUSH1 0x1 PUSH1 0xA0 SHL SUB AND PUSH32 0xDDF252AD1BE2C89B69C2B068FC378DAA952BA7F163C4A11628F55A4DF523B3EF DUP6 PUSH1 0x40 MLOAD DUP1 DUP3 DUP2 MSTORE PUSH1 0x20 ADD SWAP2 POP POP PUSH1 0x40 MLOAD DUP1 SWAP2 SUB SWAP1 LOG3 POP POP POP POP POP POP POP POP POP JUMP JUMPDEST PUSH1 0x0 DUP1 PUSH1 0x0 DUP1 PUSH1 0x0 DUP1 PUSH2 0x2636 DUP8 PUSH2 0x1BF7 JUMP JUMPDEST PUSH1 0x1 PUSH1 0x1 PUSH1 0xA0 SHL SUB DUP16 AND PUSH1 0x0 SWAP1 DUP2 MSTORE PUSH1 0x3 PUSH1 0x20 MSTORE PUSH1 0x40 SWAP1 KECCAK256 SLOAD SWAP6 SWAP12 POP SWAP4 SWAP10 POP SWAP2 SWAP8 POP SWAP6 POP SWAP4 POP SWAP2 POP PUSH2 0x266E SWAP1 DUP8 PUSH4 0xFFFFFFFF PUSH2 0x1C46 AND JUMP JUMPDEST PUSH1 0x1 PUSH1 0x1 PUSH1 0xA0 SHL SUB DUP1 DUP12 AND PUSH1 0x0 SWAP1 DUP2 MSTORE PUSH1 0x3 PUSH1 0x20 SWAP1 DUP2 MSTORE PUSH1 0x40 DUP1 DUP4 KECCAK256 SWAP5 SWAP1 SWAP5 SSTORE SWAP2 DUP12 AND DUP2 MSTORE PUSH1 0x4 SWAP1 SWAP2 MSTORE KECCAK256 SLOAD PUSH2 0x26AA SWAP1 DUP5 PUSH4 0xFFFFFFFF PUSH2 0x1B9D AND JUMP JUMPDEST PUSH1 0x1 PUSH1 0x1 PUSH1 0xA0 SHL SUB DUP10 AND PUSH1 0x0 SWAP1 DUP2 MSTORE PUSH1 0x4 PUSH1 0x20 SWAP1 DUP2 MSTORE PUSH1 0x40 DUP1 DUP4 KECCAK256 SWAP4 SWAP1 SWAP4 SSTORE PUSH1 0x3 SWAP1 MSTORE KECCAK256 SLOAD PUSH2 0x25A2 SWAP1 DUP7 PUSH4 0xFFFFFFFF PUSH2 0x1B9D AND JUMP JUMPDEST PUSH1 0x0 DUP1 PUSH1 0x0 DUP1 PUSH1 0x0 DUP1 PUSH2 0x26F1 DUP8 PUSH2 0x1BF7 JUMP JUMPDEST PUSH1 0x1 PUSH1 0x1 PUSH1 0xA0 SHL SUB DUP16 AND PUSH1 0x0 SWAP1 DUP2 MSTORE PUSH1 0x3 PUSH1 0x20 MSTORE PUSH1 0x40 SWAP1 KECCAK256 SLOAD SWAP6 SWAP12 POP SWAP4 SWAP10 POP SWAP2 SWAP8 POP SWAP6 POP SWAP4 POP SWAP2 POP PUSH2 0x256D SWAP1 DUP8 PUSH4 0xFFFFFFFF PUSH2 0x1C46 AND JUMP JUMPDEST PUSH1 0x0 DUP1 PUSH1 0x0 DUP1 PUSH1 0x0 DUP1 PUSH2 0x273B DUP8 PUSH2 0x1BF7 JUMP JUMPDEST PUSH1 0x1 PUSH1 0x1 PUSH1 0xA0 SHL SUB DUP16 AND PUSH1 0x0 SWAP1 DUP2 MSTORE PUSH1 0x4 PUSH1 0x20 MSTORE PUSH1 0x40 SWAP1 KECCAK256 SLOAD SWAP6 SWAP12 POP SWAP4 SWAP10 POP SWAP2 SWAP8 POP SWAP6 POP SWAP4 POP SWAP2 POP PUSH2 0x2773 SWAP1 DUP9 PUSH4 0xFFFFFFFF PUSH2 0x1C46 AND JUMP JUMPDEST PUSH1 0x1 PUSH1 0x1 PUSH1 0xA0 SHL SUB DUP11 AND PUSH1 0x0 SWAP1 DUP2 MSTORE PUSH1 0x4 PUSH1 0x20 SWAP1 DUP2 MSTORE PUSH1 0x40 DUP1 DUP4 KECCAK256 SWAP4 SWAP1 SWAP4 SSTORE PUSH1 0x3 SWAP1 MSTORE KECCAK256 SLOAD PUSH2 0x266E SWAP1 DUP8 PUSH4 0xFFFFFFFF PUSH2 0x1C46 AND JUMP JUMPDEST PUSH1 0x10 SLOAD PUSH1 0xF SSTORE PUSH1 0x12 SLOAD PUSH1 0x11 SSTORE JUMP JUMPDEST PUSH1 0x0 PUSH2 0x993 PUSH1 0x64 PUSH2 0x1524 PUSH1 0xF SLOAD DUP6 PUSH2 0x1C88 SWAP1 SWAP2 SWAP1 PUSH4 0xFFFFFFFF AND JUMP JUMPDEST PUSH1 0x0 PUSH2 0x993 PUSH1 0x64 PUSH2 0x1524 PUSH1 0x11 SLOAD DUP6 PUSH2 0x1C88 SWAP1 SWAP2 SWAP1 PUSH4 0xFFFFFFFF AND JUMP JUMPDEST PUSH1 0x0 PUSH2 0x27F8 PUSH2 0x1B2B JUMP JUMPDEST SWAP1 POP PUSH1 0x0 PUSH2 0x280C DUP4 DUP4 PUSH4 0xFFFFFFFF PUSH2 0x1C88 AND JUMP JUMPDEST ADDRESS PUSH1 0x0 SWAP1 DUP2 MSTORE PUSH1 0x3 PUSH1 0x20 MSTORE PUSH1 0x40 SWAP1 KECCAK256 SLOAD SWAP1 SWAP2 POP PUSH2 0x282F SWAP1 DUP3 PUSH4 0xFFFFFFFF PUSH2 0x1B9D AND JUMP JUMPDEST ADDRESS PUSH1 0x0 SWAP1 DUP2 MSTORE PUSH1 0x3 PUSH1 0x20 SWAP1 DUP2 MSTORE PUSH1 0x40 DUP1 DUP4 KECCAK256 SWAP4 SWAP1 SWAP4 SSTORE PUSH1 0x7 SWAP1 MSTORE KECCAK256 SLOAD PUSH1 0xFF AND ISZERO PUSH2 0x2884 JUMPI ADDRESS PUSH1 0x0 SWAP1 DUP2 MSTORE PUSH1 0x4 PUSH1 0x20 MSTORE PUSH1 0x40 SWAP1 KECCAK256 SLOAD PUSH2 0x2873 SWAP1 DUP5 PUSH4 0xFFFFFFFF PUSH2 0x1B9D AND JUMP JUMPDEST ADDRESS PUSH1 0x0 SWAP1 DUP2 MSTORE PUSH1 0x4 PUSH1 0x20 MSTORE PUSH1 0x40 SWAP1 KECCAK256 SSTORE JUMPDEST POP POP POP JUMP JUMPDEST PUSH1 0xA SLOAD PUSH2 0x289C SWAP1 DUP4 PUSH4 0xFFFFFFFF PUSH2 0x1C46 AND JUMP JUMPDEST PUSH1 0xA SSTORE PUSH1 0xB SLOAD PUSH2 0x28B2 SWAP1 DUP3 PUSH4 0xFFFFFFFF PUSH2 0x1B9D AND JUMP JUMPDEST PUSH1 0xB SSTORE POP POP JUMP INVALID GASLIMIT MSTORE NUMBER ORIGIN ADDRESS GASPRICE KECCAK256 PUSH21 0x72616E7366657220746F20746865207A65726F2061 PUSH5 0x6472657373 COINBASE PUSH14 0x6F756E74206D757374206265206C PUSH6 0x737320746861 PUSH15 0x20746F74616C207265666C65637469 PUSH16 0x6E734F776E61626C653A206E6577206F PUSH24 0x6E657220697320746865207A65726F206164647265737345 MSTORE NUMBER ORIGIN ADDRESS GASPRICE KECCAK256 PUSH2 0x7070 PUSH19 0x6F766520746F20746865207A65726F20616464 PUSH19 0x6573735472616E7366657220616D6F756E7420 PUSH6 0x786365656473 KECCAK256 PUSH21 0x6865206D61785478416D6F756E742E536166654D61 PUSH21 0x683A206D756C7469706C69636174696F6E206F7665 PUSH19 0x666C6F7745524332303A207472616E73666572 KECCAK256 PUSH2 0x6D6F PUSH22 0x6E74206578636565647320616C6C6F77616E63654F77 PUSH15 0x61626C653A2063616C6C6572206973 KECCAK256 PUSH15 0x6F7420746865206F776E65728BE007 SWAP13 MSTORE8 AND MSIZE EQ SGT DIFFICULTY 0xCD 0x1F 0xD0 LOG4 CALLCODE DUP5 NOT 0x49 PUSH32 0x9722A3DAAFE3B4186F6B6457E05472616E7366657220616D6F756E74206D7573 PUSH21 0x2062652067726561746572207468616E207A65726F GASLIMIT MSTORE NUMBER ORIGIN ADDRESS GASPRICE KECCAK256 PUSH21 0x72616E736665722066726F6D20746865207A65726F KECCAK256 PUSH2 0x6464 PUSH19 0x65737345524332303A20617070726F76652066 PUSH19 0x6F6D20746865207A65726F2061646472657373 GASLIMIT PUSH25 0x636C75646564206164647265737365732063616E6E6F742063 PUSH2 0x6C6C KECCAK256 PUSH21 0x6869732066756E6374696F6E596F7520646F6E2774 KECCAK256 PUSH9 0x617665207065726D69 PUSH20 0x73696F6E20746F20756E6C6F636B45524332303A KECCAK256 PUSH5 0x6563726561 PUSH20 0x656420616C6C6F77616E63652062656C6F77207A PUSH6 0x726FA2646970 PUSH7 0x7358221220A71D 0xE2 0xBB SWAP5 SIGNEXTEND EQ 0xC6 0xEC 0x2B 0xB8 0xDF DUP5 SWAP12 DUP9 0xDB 0xB3 0xBF MSTORE8 0xE7 PUSH30 0xE61B8C0860E3A13AEBB11664736F6C634300060600330000000000000000 "
				},
				"gasEstimates": {
					"creation": {
						"codeDepositCost": "2207000",
						"executionCost": "infinite",
						"totalCost": "infinite"
					},
					"external": {
						"_liquidityFee()": "1066",
						"_maxTxAmount()": "1043",
						"_taxFee()": "1088",
						"allowance(address,address)": "1338",
						"approve(address,uint256)": "infinite",
						"balanceOf(address)": "infinite",
						"decimals()": "1147",
						"decreaseAllowance(address,uint256)": "infinite",
						"deliver(uint256)": "infinite",
						"excludeFromFee(address)": "infinite",
						"excludeFromReward(address)": "infinite",
						"geUnlockTime()": "1109",
						"includeInFee(address)": "infinite",
						"includeInReward(address)": "infinite",
						"increaseAllowance(address,uint256)": "infinite",
						"isExcludedFromFee(address)": "1200",
						"isExcludedFromReward(address)": "1221",
						"lock(uint256)": "infinite",
						"name()": "infinite",
						"owner()": "1126",
						"reflectionFromToken(uint256,bool)": "infinite",
						"renounceOwnership()": "infinite",
						"setLiquidityFeePercent(uint256)": "infinite",
						"setMaxTxPercent(uint256)": "infinite",
						"setSwapAndLiquifyEnabled(bool)": "infinite",
						"setTaxFeePercent(uint256)": "infinite",
						"swapAndLiquifyEnabled()": "1132",
						"symbol()": "infinite",
						"tokenFromReflection(uint256)": "infinite",
						"totalFees()": "1111",
						"totalSupply()": "1066",
						"transfer(address,uint256)": "infinite",
						"transferFrom(address,address,uint256)": "infinite",
						"transferOwnership(address)": "infinite",
						"uniswapV2Pair()": "infinite",
						"uniswapV2Router()": "infinite",
						"unlock()": "infinite"
					},
					"internal": {
						"_approve(address,address,uint256)": "infinite",
						"_getCurrentSupply()": "infinite",
						"_getRValues(uint256,uint256,uint256,uint256)": "infinite",
						"_getRate()": "infinite",
						"_getTValues(uint256)": "infinite",
						"_getValues(uint256)": "infinite",
						"_reflectFee(uint256,uint256)": "infinite",
						"_takeLiquidity(uint256)": "infinite",
						"_tokenTransfer(address,address,uint256,bool)": "infinite",
						"_transfer(address,address,uint256)": "infinite",
						"_transferBothExcluded(address,address,uint256)": "infinite",
						"_transferFromExcluded(address,address,uint256)": "infinite",
						"_transferStandard(address,address,uint256)": "infinite",
						"_transferToExcluded(address,address,uint256)": "infinite",
						"addLiquidity(uint256,uint256)": "infinite",
						"calculateLiquidityFee(uint256)": "infinite",
						"calculateTaxFee(uint256)": "infinite",
						"removeAllFee()": "53291",
						"restoreAllFee()": "41621",
						"swapAndLiquify(uint256)": "infinite",
						"swapTokensForEth(uint256)": "infinite"
					}
				},
				"methodIdentifiers": {
					"_liquidityFee()": "6bc87c3a",
					"_maxTxAmount()": "7d1db4a5",
					"_taxFee()": "3b124fe7",
					"allowance(address,address)": "dd62ed3e",
					"approve(address,uint256)": "095ea7b3",
					"balanceOf(address)": "70a08231",
					"decimals()": "313ce567",
					"decreaseAllowance(address,uint256)": "a457c2d7",
					"deliver(uint256)": "3bd5d173",
					"excludeFromFee(address)": "437823ec",
					"excludeFromReward(address)": "52390c02",
					"geUnlockTime()": "b6c52324",
					"includeInFee(address)": "ea2f0b37",
					"includeInReward(address)": "3685d419",
					"increaseAllowance(address,uint256)": "39509351",
					"isExcludedFromFee(address)": "5342acb4",
					"isExcludedFromReward(address)": "88f82020",
					"lock(uint256)": "dd467064",
					"name()": "06fdde03",
					"owner()": "8da5cb5b",
					"reflectionFromToken(uint256,bool)": "4549b039",
					"renounceOwnership()": "715018a6",
					"setLiquidityFeePercent(uint256)": "8ee88c53",
					"setMaxTxPercent(uint256)": "d543dbeb",
					"setSwapAndLiquifyEnabled(bool)": "c49b9a80",
					"setTaxFeePercent(uint256)": "061c82d0",
					"swapAndLiquifyEnabled()": "4a74bb02",
					"symbol()": "95d89b41",
					"tokenFromReflection(uint256)": "2d838119",
					"totalFees()": "13114a9d",
					"totalSupply()": "18160ddd",
					"transfer(address,uint256)": "a9059cbb",
					"transferFrom(address,address,uint256)": "23b872dd",
					"transferOwnership(address)": "f2fde38b",
					"uniswapV2Pair()": "49bd5a5e",
					"uniswapV2Router()": "1694505e",
					"unlock()": "a69df4b5"
				}
			},
			"storageLayout": {
				"storage": [
					{
						"astId": 497,
						"contract": "bitlime-periphery/contracts/Safemoon.sol:SafeMoon",
						"label": "_owner",
						"offset": 0,
						"slot": "0",
						"type": "t_address"
					},
					{
						"astId": 499,
						"contract": "bitlime-periphery/contracts/Safemoon.sol:SafeMoon",
						"label": "_previousOwner",
						"offset": 0,
						"slot": "1",
						"type": "t_address"
					},
					{
						"astId": 501,
						"contract": "bitlime-periphery/contracts/Safemoon.sol:SafeMoon",
						"label": "_lockTime",
						"offset": 0,
						"slot": "2",
						"type": "t_uint256"
					},
					{
						"astId": 1379,
						"contract": "bitlime-periphery/contracts/Safemoon.sol:SafeMoon",
						"label": "_rOwned",
						"offset": 0,
						"slot": "3",
						"type": "t_mapping(t_address,t_uint256)"
					},
					{
						"astId": 1383,
						"contract": "bitlime-periphery/contracts/Safemoon.sol:SafeMoon",
						"label": "_tOwned",
						"offset": 0,
						"slot": "4",
						"type": "t_mapping(t_address,t_uint256)"
					},
					{
						"astId": 1389,
						"contract": "bitlime-periphery/contracts/Safemoon.sol:SafeMoon",
						"label": "_allowances",
						"offset": 0,
						"slot": "5",
						"type": "t_mapping(t_address,t_mapping(t_address,t_uint256))"
					},
					{
						"astId": 1393,
						"contract": "bitlime-periphery/contracts/Safemoon.sol:SafeMoon",
						"label": "_isExcludedFromFee",
						"offset": 0,
						"slot": "6",
						"type": "t_mapping(t_address,t_bool)"
					},
					{
						"astId": 1397,
						"contract": "bitlime-periphery/contracts/Safemoon.sol:SafeMoon",
						"label": "_isExcluded",
						"offset": 0,
						"slot": "7",
						"type": "t_mapping(t_address,t_bool)"
					},
					{
						"astId": 1400,
						"contract": "bitlime-periphery/contracts/Safemoon.sol:SafeMoon",
						"label": "_excluded",
						"offset": 0,
						"slot": "8",
						"type": "t_array(t_address)dyn_storage"
					},
					{
						"astId": 1418,
						"contract": "bitlime-periphery/contracts/Safemoon.sol:SafeMoon",
						"label": "_tTotal",
						"offset": 0,
						"slot": "9",
						"type": "t_uint256"
					},
					{
						"astId": 1427,
						"contract": "bitlime-periphery/contracts/Safemoon.sol:SafeMoon",
						"label": "_rTotal",
						"offset": 0,
						"slot": "10",
						"type": "t_uint256"
					},
					{
						"astId": 1429,
						"contract": "bitlime-periphery/contracts/Safemoon.sol:SafeMoon",
						"label": "_tFeeTotal",
						"offset": 0,
						"slot": "11",
						"type": "t_uint256"
					},
					{
						"astId": 1432,
						"contract": "bitlime-periphery/contracts/Safemoon.sol:SafeMoon",
						"label": "_name",
						"offset": 0,
						"slot": "12",
						"type": "t_string_storage"
					},
					{
						"astId": 1435,
						"contract": "bitlime-periphery/contracts/Safemoon.sol:SafeMoon",
						"label": "_symbol",
						"offset": 0,
						"slot": "13",
						"type": "t_string_storage"
					},
					{
						"astId": 1438,
						"contract": "bitlime-periphery/contracts/Safemoon.sol:SafeMoon",
						"label": "_decimals",
						"offset": 0,
						"slot": "14",
						"type": "t_uint8"
					},
					{
						"astId": 1441,
						"contract": "bitlime-periphery/contracts/Safemoon.sol:SafeMoon",
						"label": "_taxFee",
						"offset": 0,
						"slot": "15",
						"type": "t_uint256"
					},
					{
						"astId": 1444,
						"contract": "bitlime-periphery/contracts/Safemoon.sol:SafeMoon",
						"label": "_previousTaxFee",
						"offset": 0,
						"slot": "16",
						"type": "t_uint256"
					},
					{
						"astId": 1447,
						"contract": "bitlime-periphery/contracts/Safemoon.sol:SafeMoon",
						"label": "_liquidityFee",
						"offset": 0,
						"slot": "17",
						"type": "t_uint256"
					},
					{
						"astId": 1450,
						"contract": "bitlime-periphery/contracts/Safemoon.sol:SafeMoon",
						"label": "_previousLiquidityFee",
						"offset": 0,
						"slot": "18",
						"type": "t_uint256"
					},
					{
						"astId": 1456,
						"contract": "bitlime-periphery/contracts/Safemoon.sol:SafeMoon",
						"label": "inSwapAndLiquify",
						"offset": 0,
						"slot": "19",
						"type": "t_bool"
					},
					{
						"astId": 1459,
						"contract": "bitlime-periphery/contracts/Safemoon.sol:SafeMoon",
						"label": "swapAndLiquifyEnabled",
						"offset": 1,
						"slot": "19",
						"type": "t_bool"
					},
					{
						"astId": 1470,
						"contract": "bitlime-periphery/contracts/Safemoon.sol:SafeMoon",
						"label": "_maxTxAmount",
						"offset": 0,
						"slot": "20",
						"type": "t_uint256"
					},
					{
						"astId": 1481,
						"contract": "bitlime-periphery/contracts/Safemoon.sol:SafeMoon",
						"label": "numTokensSellToAddToLiquidity",
						"offset": 0,
						"slot": "21",
						"type": "t_uint256"
					}
				],
				"types": {
					"t_address": {
						"encoding": "inplace",
						"label": "address",
						"numberOfBytes": "20"
					},
					"t_array(t_address)dyn_storage": {
						"base": "t_address",
						"encoding": "dynamic_array",
						"label": "address[]",
						"numberOfBytes": "32"
					},
					"t_bool": {
						"encoding": "inplace",
						"label": "bool",
						"numberOfBytes": "1"
					},
					"t_mapping(t_address,t_bool)": {
						"encoding": "mapping",
						"key": "t_address",
						"label": "mapping(address => bool)",
						"numberOfBytes": "32",
						"value": "t_bool"
					},
					"t_mapping(t_address,t_mapping(t_address,t_uint256))": {
						"encoding": "mapping",
						"key": "t_address",
						"label": "mapping(address => mapping(address => uint256))",
						"numberOfBytes": "32",
						"value": "t_mapping(t_address,t_uint256)"
					},
					"t_mapping(t_address,t_uint256)": {
						"encoding": "mapping",
						"key": "t_address",
						"label": "mapping(address => uint256)",
						"numberOfBytes": "32",
						"value": "t_uint256"
					},
					"t_string_storage": {
						"encoding": "bytes",
						"label": "string",
						"numberOfBytes": "32"
					},
					"t_uint256": {
						"encoding": "inplace",
						"label": "uint256",
						"numberOfBytes": "32"
					},
					"t_uint8": {
						"encoding": "inplace",
						"label": "uint8",
						"numberOfBytes": "1"
					}
				}
			},
			"userdoc": {
				"methods": {}
			}
		}
	}
}